{
  "address": "0x69369927AEA310b0423F475330A6Cc7302e2d060",
  "abi": [
    {
      "inputs": [
        {
          "internalType": "address",
          "name": "owner_",
          "type": "address"
        },
        {
          "internalType": "contract IERC20",
          "name": "rewardToken_",
          "type": "address"
        }
      ],
      "stateMutability": "nonpayable",
      "type": "constructor"
    },
    {
      "inputs": [],
      "name": "AlreadyClaimed",
      "type": "error"
    },
    {
      "inputs": [],
      "name": "ClaimPeriodNotStartOrEnd",
      "type": "error"
    },
    {
      "inputs": [],
      "name": "InvalidProof",
      "type": "error"
    },
    {
      "inputs": [],
      "name": "InvalidTimestamp",
      "type": "error"
    },
    {
      "inputs": [],
      "name": "ZeroAddressSet",
      "type": "error"
    },
    {
      "inputs": [],
      "name": "ZeroRootSet",
      "type": "error"
    },
    {
      "anonymous": false,
      "inputs": [
        {
          "indexed": true,
          "internalType": "address",
          "name": "claimant",
          "type": "address"
        },
        {
          "indexed": false,
          "internalType": "uint256",
          "name": "amount",
          "type": "uint256"
        }
      ],
      "name": "Claim",
      "type": "event"
    },
    {
      "anonymous": false,
      "inputs": [
        {
          "indexed": false,
          "internalType": "uint256",
          "name": "claimPeriodEnds",
          "type": "uint256"
        }
      ],
      "name": "ClaimPeriodEndsChanged",
      "type": "event"
    },
    {
      "anonymous": false,
      "inputs": [
        {
          "indexed": false,
          "internalType": "bytes32",
          "name": "merkleRoot",
          "type": "bytes32"
        }
      ],
      "name": "MerkleRootChanged",
      "type": "event"
    },
    {
      "anonymous": false,
      "inputs": [
        {
          "indexed": true,
          "internalType": "address",
          "name": "previousOwner",
          "type": "address"
        },
        {
          "indexed": true,
          "internalType": "address",
          "name": "newOwner",
          "type": "address"
        }
      ],
      "name": "OwnershipTransferStarted",
      "type": "event"
    },
    {
      "anonymous": false,
      "inputs": [
        {
          "indexed": true,
          "internalType": "address",
          "name": "previousOwner",
          "type": "address"
        },
        {
          "indexed": true,
          "internalType": "address",
          "name": "newOwner",
          "type": "address"
        }
      ],
      "name": "OwnershipTransferred",
      "type": "event"
    },
    {
      "anonymous": false,
      "inputs": [
        {
          "indexed": false,
          "internalType": "address",
          "name": "dest",
          "type": "address"
        },
        {
          "indexed": false,
          "internalType": "uint256",
          "name": "amount",
          "type": "uint256"
        }
      ],
      "name": "Withdrawn",
      "type": "event"
    },
    {
      "inputs": [],
      "name": "acceptOwnership",
      "outputs": [],
      "stateMutability": "nonpayable",
      "type": "function"
    },
    {
      "inputs": [],
      "name": "claimPeriodEnds",
      "outputs": [
        {
          "internalType": "uint256",
          "name": "",
          "type": "uint256"
        }
      ],
      "stateMutability": "view",
      "type": "function"
    },
    {
      "inputs": [
        {
          "internalType": "uint256",
          "name": "amount",
          "type": "uint256"
        },
        {
          "internalType": "bytes32[]",
          "name": "merkleProof",
          "type": "bytes32[]"
        }
      ],
      "name": "claimTokens",
      "outputs": [],
      "stateMutability": "nonpayable",
      "type": "function"
    },
    {
      "inputs": [
        {
          "internalType": "address",
          "name": "user",
          "type": "address"
        }
      ],
      "name": "isClaimed",
      "outputs": [
        {
          "internalType": "bool",
          "name": "",
          "type": "bool"
        }
      ],
      "stateMutability": "view",
      "type": "function"
    },
    {
      "inputs": [],
      "name": "merkleRoot",
      "outputs": [
        {
          "internalType": "bytes32",
          "name": "",
          "type": "bytes32"
        }
      ],
      "stateMutability": "view",
      "type": "function"
    },
    {
      "inputs": [],
      "name": "owner",
      "outputs": [
        {
          "internalType": "address",
          "name": "",
          "type": "address"
        }
      ],
      "stateMutability": "view",
      "type": "function"
    },
    {
      "inputs": [],
      "name": "pendingOwner",
      "outputs": [
        {
          "internalType": "address",
          "name": "",
          "type": "address"
        }
      ],
      "stateMutability": "view",
      "type": "function"
    },
    {
      "inputs": [],
      "name": "renounceOwnership",
      "outputs": [],
      "stateMutability": "nonpayable",
      "type": "function"
    },
    {
      "inputs": [],
      "name": "rewardToken",
      "outputs": [
        {
          "internalType": "contract IERC20",
          "name": "",
          "type": "address"
        }
      ],
      "stateMutability": "view",
      "type": "function"
    },
    {
      "inputs": [
        {
          "internalType": "uint256",
          "name": "claimPeriodEnds_",
          "type": "uint256"
        }
      ],
      "name": "setClaimPeriodEnds",
      "outputs": [],
      "stateMutability": "nonpayable",
      "type": "function"
    },
    {
      "inputs": [
        {
          "internalType": "bytes32",
          "name": "newMerkleRoot",
          "type": "bytes32"
        }
      ],
      "name": "setMerkleRoot",
      "outputs": [],
      "stateMutability": "nonpayable",
      "type": "function"
    },
    {
      "inputs": [
        {
          "internalType": "address",
          "name": "newOwner",
          "type": "address"
        }
      ],
      "name": "transferOwnership",
      "outputs": [],
      "stateMutability": "nonpayable",
      "type": "function"
    },
    {
      "inputs": [
        {
          "internalType": "address",
          "name": "to",
          "type": "address"
        }
      ],
      "name": "withdraw",
      "outputs": [],
      "stateMutability": "nonpayable",
      "type": "function"
    }
  ],
  "transactionHash": "0x9ba85ddefd96454a48a1300aad32d11092d921118524807aa919f6afe5a90ce2",
  "args": [
    "0xBa1d495D8cfcad60d56442F1f1a9917ddE0e3231",
    "0x176211869ca2b568f2a7d4ee941e073a821ee1ff"
  ],
  "numDeployments": 1,
  "solcInputHash": "ccbbecda311cd73eb95369b7cc05f5ba",
  "bytecode": "0x60806040523480156200001157600080fd5b50604051620010eb380380620010eb8339810160408190526200003491620000f5565b6200003f3362000071565b6200004a8262000071565b600280546001600160a01b0319166001600160a01b03929092169190911790555062000134565b600180546001600160a01b03191690556200008c816200008f565b50565b600080546001600160a01b038381166001600160a01b0319831681178455604051919092169283917f8be0079c531659141344cd1fd0a4f28419497f9722a3daafe3b4186f6b6457e09190a35050565b6001600160a01b03811681146200008c57600080fd5b600080604083850312156200010957600080fd5b82516200011681620000df565b60208401519092506200012981620000df565b809150509250929050565b610fa780620001446000396000f3fe608060405234801561001057600080fd5b50600436106100df5760003560e01c80637cb647591161008c5780639a114cb2116100665780639a114cb2146101ea578063e30c3978146101fd578063f2fde38b1461021b578063f7c618c11461022e57600080fd5b80637cb64759146101415780638cc08025146101545780638da5cb5b146101ab57600080fd5b806366deac47116100bd57806366deac4714610128578063715018a61461013157806379ba50971461013957600080fd5b80632503c057146100e45780632eb4a7ab146100f957806351cff8d914610115575b600080fd5b6100f76100f2366004610d72565b61024e565b005b61010260035481565b6040519081526020015b60405180910390f35b6100f7610123366004610d8b565b6102cb565b61010260045481565b6100f76103e0565b6100f76103f4565b6100f761014f366004610d72565b6104ae565b61019b610162366004610d8b565b72ffffffffffffffffffffffffffffffffffffff600882901c16600090815260056020526040812054600160ff84161b16151592915050565b604051901515815260200161010c565b60005473ffffffffffffffffffffffffffffffffffffffff165b60405173ffffffffffffffffffffffffffffffffffffffff909116815260200161010c565b6100f76101f8366004610dc1565b610522565b60015473ffffffffffffffffffffffffffffffffffffffff166101c5565b6100f7610229366004610d8b565b610756565b6002546101c59073ffffffffffffffffffffffffffffffffffffffff1681565b610256610806565b42811161028f576040517fb7d0949700000000000000000000000000000000000000000000000000000000815260040160405180910390fd5b60048190556040518181527f15671967934582a50a78abf9731094ac6d395d1f9a63f2f4675748b1b121882b906020015b60405180910390a150565b6102d3610806565b6002546040517f70a0823100000000000000000000000000000000000000000000000000000000815230600482015260009173ffffffffffffffffffffffffffffffffffffffff16906370a0823190602401602060405180830381865afa158015610342573d6000803e3d6000fd5b505050506040513d601f19601f820116820180604052508101906103669190610e40565b60025490915061038d9073ffffffffffffffffffffffffffffffffffffffff168383610887565b6040805173ffffffffffffffffffffffffffffffffffffffff84168152602081018390527f7084f5476618d8e60b11ef0d7d3f06914655adb8793e28ff7f018d4c76d505d5910160405180910390a15050565b6103e8610806565b6103f26000610919565b565b600154339073ffffffffffffffffffffffffffffffffffffffff1681146104a2576040517f08c379a000000000000000000000000000000000000000000000000000000000815260206004820152602960248201527f4f776e61626c6532537465703a2063616c6c6572206973206e6f74207468652060448201527f6e6577206f776e6572000000000000000000000000000000000000000000000060648201526084015b60405180910390fd5b6104ab81610919565b50565b6104b6610806565b806104ed576040517f9efc87ca00000000000000000000000000000000000000000000000000000000815260040160405180910390fd5b60038190556040518181527f1b930366dfeaa7eb3b325021e4ae81e36527063452ee55b86c95f85b36f4c31c906020016102c0565b600454421061055d576040517f622e516700000000000000000000000000000000000000000000000000000000815260040160405180910390fd5b60408051336020820152908101849052600090606001604080517fffffffffffffffffffffffffffffffffffffffffffffffffffffffffffffffe081840301815282825280516020918201209083015201604051602081830303815290604052805190602001209050600061060984848080602002602001604051908101604052809392919081815260200183836020028082843760009201919091525050600354915085905061094a565b905080610642576040517f09bde33900000000000000000000000000000000000000000000000000000000815260040160405180910390fd5b61067f3372ffffffffffffffffffffffffffffffffffffff600882901c16600090815260056020526040812054600160ff84161b16151592915050565b156106b6576040517f646cf55800000000000000000000000000000000000000000000000000000000815260040160405180910390fd5b6106f63372ffffffffffffffffffffffffffffffffffffff600882901c1660009081526005602052604090208054600160ff9093169290921b9091179055565b61071a3360025473ffffffffffffffffffffffffffffffffffffffff169087610887565b60405185815233907f47cee97cb7acd717b3c0aa1435d004cd5b3c8c57d70dbceb4e4458bbd60e39d49060200160405180910390a25050505050565b61075e610806565b6001805473ffffffffffffffffffffffffffffffffffffffff83167fffffffffffffffffffffffff000000000000000000000000000000000000000090911681179091556107c160005473ffffffffffffffffffffffffffffffffffffffff1690565b73ffffffffffffffffffffffffffffffffffffffff167f38d16b8cac22d99fc7c124b9cd0de2d3fa1faef420bfe791d8c362d765e2270060405160405180910390a350565b60005473ffffffffffffffffffffffffffffffffffffffff1633146103f2576040517f08c379a000000000000000000000000000000000000000000000000000000000815260206004820181905260248201527f4f776e61626c653a2063616c6c6572206973206e6f7420746865206f776e65726044820152606401610499565b6040805173ffffffffffffffffffffffffffffffffffffffff8416602482015260448082018490528251808303909101815260649091019091526020810180517bffffffffffffffffffffffffffffffffffffffffffffffffffffffff167fa9059cbb00000000000000000000000000000000000000000000000000000000179052610914908490610960565b505050565b600180547fffffffffffffffffffffffff00000000000000000000000000000000000000001690556104ab81610a6f565b6000826109578584610ae4565b14949350505050565b60006109c2826040518060400160405280602081526020017f5361666545524332303a206c6f772d6c6576656c2063616c6c206661696c65648152508573ffffffffffffffffffffffffffffffffffffffff16610b319092919063ffffffff16565b90508051600014806109e35750808060200190518101906109e39190610e59565b610914576040517f08c379a000000000000000000000000000000000000000000000000000000000815260206004820152602a60248201527f5361666545524332303a204552433230206f7065726174696f6e20646964206e60448201527f6f742073756363656564000000000000000000000000000000000000000000006064820152608401610499565b6000805473ffffffffffffffffffffffffffffffffffffffff8381167fffffffffffffffffffffffff0000000000000000000000000000000000000000831681178455604051919092169283917f8be0079c531659141344cd1fd0a4f28419497f9722a3daafe3b4186f6b6457e09190a35050565b600081815b8451811015610b2957610b1582868381518110610b0857610b08610e7b565b6020026020010151610b48565b915080610b2181610eaa565b915050610ae9565b509392505050565b6060610b408484600085610b7a565b949350505050565b6000818310610b64576000828152602084905260409020610b73565b60008381526020839052604090205b9392505050565b606082471015610c0c576040517f08c379a000000000000000000000000000000000000000000000000000000000815260206004820152602660248201527f416464726573733a20696e73756666696369656e742062616c616e636520666f60448201527f722063616c6c00000000000000000000000000000000000000000000000000006064820152608401610499565b6000808673ffffffffffffffffffffffffffffffffffffffff168587604051610c359190610f2d565b60006040518083038185875af1925050503d8060008114610c72576040519150601f19603f3d011682016040523d82523d6000602084013e610c77565b606091505b5091509150610c8887838387610c93565b979650505050505050565b60608315610d29578251600003610d225773ffffffffffffffffffffffffffffffffffffffff85163b610d22576040517f08c379a000000000000000000000000000000000000000000000000000000000815260206004820152601d60248201527f416464726573733a2063616c6c20746f206e6f6e2d636f6e74726163740000006044820152606401610499565b5081610b40565b610b408383815115610d3e5781518083602001fd5b806040517f08c379a00000000000000000000000000000000000000000000000000000000081526004016104999190610f49565b600060208284031215610d8457600080fd5b5035919050565b600060208284031215610d9d57600080fd5b813573ffffffffffffffffffffffffffffffffffffffff81168114610b7357600080fd5b600080600060408486031215610dd657600080fd5b83359250602084013567ffffffffffffffff80821115610df557600080fd5b818601915086601f830112610e0957600080fd5b813581811115610e1857600080fd5b8760208260051b8501011115610e2d57600080fd5b6020830194508093505050509250925092565b600060208284031215610e5257600080fd5b5051919050565b600060208284031215610e6b57600080fd5b81518015158114610b7357600080fd5b7f4e487b7100000000000000000000000000000000000000000000000000000000600052603260045260246000fd5b60007fffffffffffffffffffffffffffffffffffffffffffffffffffffffffffffffff8203610f02577f4e487b7100000000000000000000000000000000000000000000000000000000600052601160045260246000fd5b5060010190565b60005b83811015610f24578181015183820152602001610f0c565b50506000910152565b60008251610f3f818460208701610f09565b9190910192915050565b6020815260008251806020840152610f68816040850160208701610f09565b601f017fffffffffffffffffffffffffffffffffffffffffffffffffffffffffffffffe016919091016040019291505056fea164736f6c6343000813000a",
  "devdoc": {
    "kind": "dev",
    "methods": {
      "acceptOwnership()": {
        "details": "The new owner accepts the ownership transfer."
      },
      "claimTokens(uint256,bytes32[])": {
        "details": "Claims airdropped tokens.",
        "params": {
          "amount": "The amount of the claim being made.",
          "merkleProof": "A merkle proof proving the claim is valid."
        }
      },
      "isClaimed(address)": {
        "details": "Returns true if the claim at the given index in the merkle tree has already been made.",
        "params": {
          "user": "The index into the merkle tree."
        }
      },
      "owner()": {
        "details": "Returns the address of the current owner."
      },
      "pendingOwner()": {
        "details": "Returns the address of the pending owner."
      },
      "renounceOwnership()": {
        "details": "Leaves the contract without owner. It will not be possible to call `onlyOwner` functions. Can only be called by the current owner. NOTE: Renouncing ownership will leave the contract without an owner, thereby disabling any functionality that is only available to the owner."
      },
      "setClaimPeriodEnds(uint256)": {
        "details": "Sets the claim period ends.",
        "params": {
          "claimPeriodEnds_": "The merkle root to set."
        }
      },
      "setMerkleRoot(bytes32)": {
        "details": "Sets the merkle root.",
        "params": {
          "newMerkleRoot": "The merkle root to set."
        }
      },
      "transferOwnership(address)": {
        "details": "Starts the ownership transfer of the contract to a new account. Replaces the pending transfer if there is one. Can only be called by the current owner."
      },
      "withdraw(address)": {
        "details": "withdraw remaining native tokens."
      }
    },
    "version": 1
  },
  "userdoc": {
    "kind": "user",
    "methods": {
      "setMerkleRoot(bytes32)": {
        "notice": "allow set twice here"
      }
    },
    "version": 1
  },
  "storageLayout": {
    "storage": [
      {
        "astId": 1397,
        "contract": "src/arcana/v1/ERC20Distributor.sol:ERC20Distributor",
        "label": "_owner",
        "offset": 0,
        "slot": "0",
        "type": "t_address"
      },
      {
        "astId": 1510,
        "contract": "src/arcana/v1/ERC20Distributor.sol:ERC20Distributor",
        "label": "_pendingOwner",
        "offset": 0,
        "slot": "1",
        "type": "t_address"
      },
      {
        "astId": 5327,
        "contract": "src/arcana/v1/ERC20Distributor.sol:ERC20Distributor",
        "label": "rewardToken",
        "offset": 0,
        "slot": "2",
        "type": "t_contract(IERC20)1663"
      },
      {
        "astId": 5329,
        "contract": "src/arcana/v1/ERC20Distributor.sol:ERC20Distributor",
        "label": "merkleRoot",
        "offset": 0,
        "slot": "3",
        "type": "t_bytes32"
      },
      {
        "astId": 5331,
        "contract": "src/arcana/v1/ERC20Distributor.sol:ERC20Distributor",
        "label": "claimPeriodEnds",
        "offset": 0,
        "slot": "4",
        "type": "t_uint256"
      },
      {
        "astId": 5334,
        "contract": "src/arcana/v1/ERC20Distributor.sol:ERC20Distributor",
        "label": "claimed",
        "offset": 0,
        "slot": "5",
        "type": "t_struct(BitMap)3109_storage"
      }
    ],
    "types": {
      "t_address": {
        "encoding": "inplace",
        "label": "address",
        "numberOfBytes": "20"
      },
      "t_bytes32": {
        "encoding": "inplace",
        "label": "bytes32",
        "numberOfBytes": "32"
      },
      "t_contract(IERC20)1663": {
        "encoding": "inplace",
        "label": "contract IERC20",
        "numberOfBytes": "20"
      },
      "t_mapping(t_uint256,t_uint256)": {
        "encoding": "mapping",
        "key": "t_uint256",
        "label": "mapping(uint256 => uint256)",
        "numberOfBytes": "32",
        "value": "t_uint256"
      },
      "t_struct(BitMap)3109_storage": {
        "encoding": "inplace",
        "label": "struct BitMaps.BitMap",
        "members": [
          {
            "astId": 3108,
            "contract": "src/arcana/v1/ERC20Distributor.sol:ERC20Distributor",
            "label": "_data",
            "offset": 0,
            "slot": "0",
            "type": "t_mapping(t_uint256,t_uint256)"
          }
        ],
        "numberOfBytes": "32"
      },
      "t_uint256": {
        "encoding": "inplace",
        "label": "uint256",
        "numberOfBytes": "32"
      }
    }
  }
}