{
  "address": "0x496007980d08bf88A12C93Abd14e3cCCbb937284",
  "abi": [
    {
      "inputs": [
        {
          "internalType": "bytes32",
          "name": "mintId",
          "type": "bytes32"
        }
      ],
      "name": "ExecutedMint",
      "type": "error"
    },
    {
      "inputs": [],
      "name": "InvalidLiquidity",
      "type": "error"
    },
    {
      "inputs": [
        {
          "internalType": "address",
          "name": "coin",
          "type": "address"
        },
        {
          "internalType": "uint256",
          "name": "gameId",
          "type": "uint256"
        }
      ],
      "name": "MisMatchCoinWithGameId",
      "type": "error"
    },
    {
      "inputs": [
        {
          "internalType": "bytes32",
          "name": "mintId",
          "type": "bytes32"
        }
      ],
      "name": "NonExistenceMintId",
      "type": "error"
    },
    {
      "inputs": [
        {
          "internalType": "address",
          "name": "user",
          "type": "address"
        },
        {
          "internalType": "uint256",
          "name": "gameId",
          "type": "uint256"
        }
      ],
      "name": "NotGameDeveloper",
      "type": "error"
    },
    {
      "inputs": [],
      "name": "NotP12Signer",
      "type": "error"
    },
    {
      "inputs": [
        {
          "internalType": "bytes32",
          "name": "mintId",
          "type": "bytes32"
        }
      ],
      "name": "NotTimeToMint",
      "type": "error"
    },
    {
      "inputs": [],
      "name": "ZeroAddressSet",
      "type": "error"
    },
    {
      "anonymous": false,
      "inputs": [
        {
          "indexed": false,
          "internalType": "address",
          "name": "previousAdmin",
          "type": "address"
        },
        {
          "indexed": false,
          "internalType": "address",
          "name": "newAdmin",
          "type": "address"
        }
      ],
      "name": "AdminChanged",
      "type": "event"
    },
    {
      "anonymous": false,
      "inputs": [
        {
          "indexed": true,
          "internalType": "address",
          "name": "beacon",
          "type": "address"
        }
      ],
      "name": "BeaconUpgraded",
      "type": "event"
    },
    {
      "anonymous": false,
      "inputs": [
        {
          "indexed": true,
          "internalType": "address",
          "name": "developer",
          "type": "address"
        },
        {
          "indexed": true,
          "internalType": "address",
          "name": "gameCoinAddress",
          "type": "address"
        },
        {
          "indexed": true,
          "internalType": "uint256",
          "name": "gameId",
          "type": "uint256"
        },
        {
          "indexed": false,
          "internalType": "uint256",
          "name": "amountGameCoin",
          "type": "uint256"
        },
        {
          "indexed": false,
          "internalType": "uint256",
          "name": "amountP12",
          "type": "uint256"
        }
      ],
      "name": "CreateGameCoin",
      "type": "event"
    },
    {
      "anonymous": false,
      "inputs": [
        {
          "indexed": true,
          "internalType": "bytes32",
          "name": "mintId",
          "type": "bytes32"
        },
        {
          "indexed": true,
          "internalType": "address",
          "name": "gameCoinAddress",
          "type": "address"
        },
        {
          "indexed": true,
          "internalType": "address",
          "name": "executor",
          "type": "address"
        }
      ],
      "name": "ExecuteMintCoin",
      "type": "event"
    },
    {
      "anonymous": false,
      "inputs": [
        {
          "indexed": false,
          "internalType": "uint8",
          "name": "version",
          "type": "uint8"
        }
      ],
      "name": "Initialized",
      "type": "event"
    },
    {
      "anonymous": false,
      "inputs": [
        {
          "indexed": true,
          "internalType": "address",
          "name": "previousOwner",
          "type": "address"
        },
        {
          "indexed": true,
          "internalType": "address",
          "name": "newOwner",
          "type": "address"
        }
      ],
      "name": "OwnershipTransferStarted",
      "type": "event"
    },
    {
      "anonymous": false,
      "inputs": [
        {
          "indexed": true,
          "internalType": "address",
          "name": "previousOwner",
          "type": "address"
        },
        {
          "indexed": true,
          "internalType": "address",
          "name": "newOwner",
          "type": "address"
        }
      ],
      "name": "OwnershipTransferred",
      "type": "event"
    },
    {
      "anonymous": false,
      "inputs": [
        {
          "indexed": false,
          "internalType": "address",
          "name": "account",
          "type": "address"
        }
      ],
      "name": "Paused",
      "type": "event"
    },
    {
      "anonymous": false,
      "inputs": [
        {
          "indexed": true,
          "internalType": "bytes32",
          "name": "mintId",
          "type": "bytes32"
        },
        {
          "indexed": true,
          "internalType": "address",
          "name": "gameCoinAddress",
          "type": "address"
        },
        {
          "indexed": false,
          "internalType": "uint256",
          "name": "mintAmount",
          "type": "uint256"
        },
        {
          "indexed": false,
          "internalType": "uint256",
          "name": "unlockTimestamp",
          "type": "uint256"
        },
        {
          "indexed": false,
          "internalType": "uint256",
          "name": "amountP12",
          "type": "uint256"
        }
      ],
      "name": "QueueMintCoin",
      "type": "event"
    },
    {
      "anonymous": false,
      "inputs": [
        {
          "indexed": false,
          "internalType": "uint256",
          "name": "gameId",
          "type": "uint256"
        },
        {
          "indexed": true,
          "internalType": "address",
          "name": "developer",
          "type": "address"
        }
      ],
      "name": "RegisterGame",
      "type": "event"
    },
    {
      "anonymous": false,
      "inputs": [
        {
          "indexed": false,
          "internalType": "uint256",
          "name": "oldDelayB",
          "type": "uint256"
        },
        {
          "indexed": false,
          "internalType": "uint256",
          "name": "newDelayB",
          "type": "uint256"
        }
      ],
      "name": "SetDelayB",
      "type": "event"
    },
    {
      "anonymous": false,
      "inputs": [
        {
          "indexed": false,
          "internalType": "uint256",
          "name": "oldDelayK",
          "type": "uint256"
        },
        {
          "indexed": false,
          "internalType": "uint256",
          "name": "newDelayK",
          "type": "uint256"
        }
      ],
      "name": "SetDelayK",
      "type": "event"
    },
    {
      "anonymous": false,
      "inputs": [
        {
          "indexed": false,
          "internalType": "address",
          "name": "oldDev",
          "type": "address"
        },
        {
          "indexed": false,
          "internalType": "address",
          "name": "newDev",
          "type": "address"
        }
      ],
      "name": "SetDev",
      "type": "event"
    },
    {
      "anonymous": false,
      "inputs": [
        {
          "indexed": false,
          "internalType": "address",
          "name": "signer",
          "type": "address"
        },
        {
          "indexed": false,
          "internalType": "bool",
          "name": "valid",
          "type": "bool"
        }
      ],
      "name": "SignerUpdate",
      "type": "event"
    },
    {
      "anonymous": false,
      "inputs": [
        {
          "indexed": false,
          "internalType": "address",
          "name": "account",
          "type": "address"
        }
      ],
      "name": "Unpaused",
      "type": "event"
    },
    {
      "anonymous": false,
      "inputs": [
        {
          "indexed": true,
          "internalType": "address",
          "name": "implementation",
          "type": "address"
        }
      ],
      "name": "Upgraded",
      "type": "event"
    },
    {
      "anonymous": false,
      "inputs": [
        {
          "indexed": false,
          "internalType": "address",
          "name": "userAddress",
          "type": "address"
        },
        {
          "indexed": false,
          "internalType": "address",
          "name": "gameCoinAddress",
          "type": "address"
        },
        {
          "indexed": false,
          "internalType": "uint256",
          "name": "amountGameCoin",
          "type": "uint256"
        }
      ],
      "name": "Withdraw",
      "type": "event"
    },
    {
      "inputs": [],
      "name": "acceptOwnership",
      "outputs": [],
      "stateMutability": "nonpayable",
      "type": "function"
    },
    {
      "inputs": [
        {
          "internalType": "address",
          "name": "",
          "type": "address"
        }
      ],
      "name": "coinGameIds",
      "outputs": [
        {
          "internalType": "uint256",
          "name": "",
          "type": "uint256"
        }
      ],
      "stateMutability": "view",
      "type": "function"
    },
    {
      "inputs": [
        {
          "internalType": "address",
          "name": "",
          "type": "address"
        },
        {
          "internalType": "bytes32",
          "name": "",
          "type": "bytes32"
        }
      ],
      "name": "coinMintRecords",
      "outputs": [
        {
          "internalType": "uint256",
          "name": "amount",
          "type": "uint256"
        },
        {
          "internalType": "uint256",
          "name": "unlockTimestamp",
          "type": "uint256"
        },
        {
          "internalType": "bool",
          "name": "executed",
          "type": "bool"
        }
      ],
      "stateMutability": "view",
      "type": "function"
    },
    {
      "inputs": [
        {
          "internalType": "string",
          "name": "name",
          "type": "string"
        },
        {
          "internalType": "string",
          "name": "symbol",
          "type": "string"
        },
        {
          "internalType": "string",
          "name": "uri",
          "type": "string"
        },
        {
          "internalType": "uint256",
          "name": "gameId",
          "type": "uint256"
        },
        {
          "internalType": "uint256",
          "name": "amountGameCoin",
          "type": "uint256"
        },
        {
          "internalType": "uint256",
          "name": "amountP12",
          "type": "uint256"
        }
      ],
      "name": "create",
      "outputs": [
        {
          "internalType": "address",
          "name": "gameCoinAddress",
          "type": "address"
        }
      ],
      "stateMutability": "nonpayable",
      "type": "function"
    },
    {
      "inputs": [],
      "name": "delayB",
      "outputs": [
        {
          "internalType": "uint256",
          "name": "",
          "type": "uint256"
        }
      ],
      "stateMutability": "view",
      "type": "function"
    },
    {
      "inputs": [],
      "name": "delayK",
      "outputs": [
        {
          "internalType": "uint256",
          "name": "",
          "type": "uint256"
        }
      ],
      "stateMutability": "view",
      "type": "function"
    },
    {
      "inputs": [
        {
          "internalType": "address",
          "name": "gameCoinAddress",
          "type": "address"
        },
        {
          "internalType": "bytes32",
          "name": "mintId",
          "type": "bytes32"
        }
      ],
      "name": "executeMintCoin",
      "outputs": [
        {
          "internalType": "bool",
          "name": "",
          "type": "bool"
        }
      ],
      "stateMutability": "nonpayable",
      "type": "function"
    },
    {
      "inputs": [],
      "name": "gameCoinImpl",
      "outputs": [
        {
          "internalType": "address",
          "name": "",
          "type": "address"
        }
      ],
      "stateMutability": "view",
      "type": "function"
    },
    {
      "inputs": [
        {
          "internalType": "uint256",
          "name": "",
          "type": "uint256"
        }
      ],
      "name": "gameDev",
      "outputs": [
        {
          "internalType": "address",
          "name": "",
          "type": "address"
        }
      ],
      "stateMutability": "view",
      "type": "function"
    },
    {
      "inputs": [
        {
          "internalType": "uint256",
          "name": "gameId",
          "type": "uint256"
        }
      ],
      "name": "getGameDev",
      "outputs": [
        {
          "internalType": "address",
          "name": "",
          "type": "address"
        }
      ],
      "stateMutability": "view",
      "type": "function"
    },
    {
      "inputs": [
        {
          "internalType": "uint256",
          "name": "gameId",
          "type": "uint256"
        }
      ],
      "name": "getGameNextCoinAddress",
      "outputs": [
        {
          "internalType": "address",
          "name": "gameCoinAddress",
          "type": "address"
        }
      ],
      "stateMutability": "view",
      "type": "function"
    },
    {
      "inputs": [
        {
          "internalType": "address",
          "name": "gameCoinAddress",
          "type": "address"
        },
        {
          "internalType": "uint256",
          "name": "amountGameCoin",
          "type": "uint256"
        }
      ],
      "name": "getMintDelay",
      "outputs": [
        {
          "internalType": "uint256",
          "name": "time",
          "type": "uint256"
        }
      ],
      "stateMutability": "view",
      "type": "function"
    },
    {
      "inputs": [
        {
          "internalType": "address",
          "name": "gameCoinAddress",
          "type": "address"
        },
        {
          "internalType": "uint256",
          "name": "amountGameCoin",
          "type": "uint256"
        }
      ],
      "name": "getMintFee",
      "outputs": [
        {
          "internalType": "uint256",
          "name": "amountP12",
          "type": "uint256"
        }
      ],
      "stateMutability": "view",
      "type": "function"
    },
    {
      "inputs": [
        {
          "internalType": "address",
          "name": "owner_",
          "type": "address"
        },
        {
          "internalType": "address",
          "name": "p12_",
          "type": "address"
        },
        {
          "internalType": "contract INonfungiblePositionManager",
          "name": "uniswapPosManager_",
          "type": "address"
        },
        {
          "internalType": "address",
          "name": "gameCoinImpl_",
          "type": "address"
        }
      ],
      "name": "initialize",
      "outputs": [],
      "stateMutability": "nonpayable",
      "type": "function"
    },
    {
      "inputs": [],
      "name": "owner",
      "outputs": [
        {
          "internalType": "address",
          "name": "",
          "type": "address"
        }
      ],
      "stateMutability": "view",
      "type": "function"
    },
    {
      "inputs": [],
      "name": "p12",
      "outputs": [
        {
          "internalType": "address",
          "name": "",
          "type": "address"
        }
      ],
      "stateMutability": "view",
      "type": "function"
    },
    {
      "inputs": [],
      "name": "pause",
      "outputs": [],
      "stateMutability": "nonpayable",
      "type": "function"
    },
    {
      "inputs": [],
      "name": "paused",
      "outputs": [
        {
          "internalType": "bool",
          "name": "",
          "type": "bool"
        }
      ],
      "stateMutability": "view",
      "type": "function"
    },
    {
      "inputs": [],
      "name": "pendingOwner",
      "outputs": [
        {
          "internalType": "address",
          "name": "",
          "type": "address"
        }
      ],
      "stateMutability": "view",
      "type": "function"
    },
    {
      "inputs": [
        {
          "internalType": "address",
          "name": "",
          "type": "address"
        }
      ],
      "name": "preMintIds",
      "outputs": [
        {
          "internalType": "bytes32",
          "name": "",
          "type": "bytes32"
        }
      ],
      "stateMutability": "view",
      "type": "function"
    },
    {
      "inputs": [],
      "name": "proxiableUUID",
      "outputs": [
        {
          "internalType": "bytes32",
          "name": "",
          "type": "bytes32"
        }
      ],
      "stateMutability": "view",
      "type": "function"
    },
    {
      "inputs": [
        {
          "internalType": "uint256",
          "name": "gameId",
          "type": "uint256"
        },
        {
          "internalType": "address",
          "name": "gameCoinAddress",
          "type": "address"
        },
        {
          "internalType": "uint256",
          "name": "amountGameCoin",
          "type": "uint256"
        }
      ],
      "name": "queueMintCoin",
      "outputs": [
        {
          "internalType": "bool",
          "name": "success",
          "type": "bool"
        }
      ],
      "stateMutability": "nonpayable",
      "type": "function"
    },
    {
      "inputs": [
        {
          "internalType": "uint256",
          "name": "gameId",
          "type": "uint256"
        },
        {
          "internalType": "address",
          "name": "developer",
          "type": "address"
        }
      ],
      "name": "register",
      "outputs": [],
      "stateMutability": "nonpayable",
      "type": "function"
    },
    {
      "inputs": [],
      "name": "renounceOwnership",
      "outputs": [],
      "stateMutability": "nonpayable",
      "type": "function"
    },
    {
      "inputs": [
        {
          "internalType": "uint256",
          "name": "newDelayB",
          "type": "uint256"
        }
      ],
      "name": "setDelayB",
      "outputs": [
        {
          "internalType": "bool",
          "name": "",
          "type": "bool"
        }
      ],
      "stateMutability": "nonpayable",
      "type": "function"
    },
    {
      "inputs": [
        {
          "internalType": "uint256",
          "name": "newDelayK",
          "type": "uint256"
        }
      ],
      "name": "setDelayK",
      "outputs": [
        {
          "internalType": "bool",
          "name": "",
          "type": "bool"
        }
      ],
      "stateMutability": "nonpayable",
      "type": "function"
    },
    {
      "inputs": [
        {
          "internalType": "address",
          "name": "",
          "type": "address"
        }
      ],
      "name": "signers",
      "outputs": [
        {
          "internalType": "bool",
          "name": "",
          "type": "bool"
        }
      ],
      "stateMutability": "view",
      "type": "function"
    },
    {
      "inputs": [
        {
          "internalType": "address",
          "name": "newOwner",
          "type": "address"
        }
      ],
      "name": "transferOwnership",
      "outputs": [],
      "stateMutability": "nonpayable",
      "type": "function"
    },
    {
      "inputs": [],
      "name": "uniswapPosManager",
      "outputs": [
        {
          "internalType": "contract INonfungiblePositionManager",
          "name": "",
          "type": "address"
        }
      ],
      "stateMutability": "view",
      "type": "function"
    },
    {
      "inputs": [],
      "name": "unpause",
      "outputs": [],
      "stateMutability": "nonpayable",
      "type": "function"
    },
    {
      "inputs": [
        {
          "internalType": "address[]",
          "name": "toAdd",
          "type": "address[]"
        },
        {
          "internalType": "address[]",
          "name": "toRemove",
          "type": "address[]"
        }
      ],
      "name": "updateSigners",
      "outputs": [],
      "stateMutability": "nonpayable",
      "type": "function"
    },
    {
      "inputs": [
        {
          "internalType": "address",
          "name": "newImplementation",
          "type": "address"
        }
      ],
      "name": "upgradeTo",
      "outputs": [],
      "stateMutability": "nonpayable",
      "type": "function"
    },
    {
      "inputs": [
        {
          "internalType": "address",
          "name": "newImplementation",
          "type": "address"
        },
        {
          "internalType": "bytes",
          "name": "data",
          "type": "bytes"
        }
      ],
      "name": "upgradeToAndCall",
      "outputs": [],
      "stateMutability": "payable",
      "type": "function"
    },
    {
      "inputs": [
        {
          "internalType": "address",
          "name": "userAddress",
          "type": "address"
        },
        {
          "internalType": "address",
          "name": "gameCoinAddress",
          "type": "address"
        },
        {
          "internalType": "uint256",
          "name": "amountGameCoin",
          "type": "uint256"
        }
      ],
      "name": "withdraw",
      "outputs": [
        {
          "internalType": "bool",
          "name": "",
          "type": "bool"
        }
      ],
      "stateMutability": "nonpayable",
      "type": "function"
    }
  ],
  "transactionHash": "0x983a3ac19ccc8875a6ee67c164e5a1bfd1cdb35209ea75d4d1e34911b73b51a3",
  "args": [],
  "numDeployments": 3,
  "solcInputHash": "3c9d77b9eaf6db5bc7b05bd2beed366a",
  "bytecode": "0x60a06040523060805234801561001457600080fd5b50608051612e9561004c6000396000818161087f015281816108c801528181610979015281816109b90152610a4c0152612e956000f3fe6080604052600436106101f95760003560e01c80639be55f511161010d578063d9caed12116100a0578063e48f427b1161006f578063e48f427b14610622578063e6fdb39614610638578063eb26c09c14610658578063f2fde38b14610678578063f8c8765e1461069857600080fd5b8063d9caed1214610597578063dbbdf083146105b7578063e30c3978146105d7578063e3f9206e146105f557600080fd5b8063b40680eb116100dc578063b40680eb14610514578063beb54e5314610534578063bfe3695314610557578063c45ef4821461057757600080fd5b80639be55f5114610471578063afdbf3c21461049e578063b2cb8d63146104be578063b309bc98146104f457600080fd5b806359f8fa0411610190578063736c0d5b1161015f578063736c0d5b146103d957806379ba5097146104095780638456cb591461041e5780638a1ff45d146104335780638da5cb5b1461045357600080fd5b806359f8fa04146103755780635c975abb14610395578063614bb60a146103ae578063715018a6146103c457600080fd5b806350605c94116101cc57806350605c941461026857806352d1902d146102bb5780635348e304146102de5780635377210f1461030e57600080fd5b8063350b2369146101fe5780633659cfe6146102205780633f4ba83a146102405780634f1ef28614610255575b600080fd5b34801561020a57600080fd5b5061021e6102193660046126a4565b6106b8565b005b34801561022c57600080fd5b5061021e61023b366004612725565b610875565b34801561024c57600080fd5b5061021e61095d565b61021e610263366004612758565b61096f565b34801561027457600080fd5b5061029e61028336600461281c565b6000908152600660205260409020546001600160a01b031690565b6040516001600160a01b0390911681526020015b60405180910390f35b3480156102c757600080fd5b506102d0610a3f565b6040519081526020016102b2565b3480156102ea57600080fd5b506102fe6102f9366004612835565b610af2565b60405190151581526020016102b2565b34801561031a57600080fd5b50610358610329366004612835565b600860209081526000928352604080842090915290825290208054600182015460029092015490919060ff1683565b6040805193845260208401929092521515908201526060016102b2565b34801561038157600080fd5b5060015461029e906001600160a01b031681565b3480156103a157600080fd5b5061015f5460ff166102fe565b3480156103ba57600080fd5b506102d060045481565b3480156103d057600080fd5b5061021e610cbb565b3480156103e557600080fd5b506102fe6103f4366004612725565b60056020526000908152604090205460ff1681565b34801561041557600080fd5b5061021e610ccd565b34801561042a57600080fd5b5061021e610d44565b34801561043f57600080fd5b5060025461029e906001600160a01b031681565b34801561045f57600080fd5b5060c9546001600160a01b031661029e565b34801561047d57600080fd5b506102d061048c366004612725565b60096020526000908152604090205481565b3480156104aa57600080fd5b506102fe6104b936600461281c565b610d54565b3480156104ca57600080fd5b5061029e6104d936600461281c565b6006602052600090815260409020546001600160a01b031681565b34801561050057600080fd5b506102fe61050f36600461281c565b610da9565b34801561052057600080fd5b506102fe61052f366004612861565b610df1565b34801561054057600080fd5b506102d061054f366004612835565b600092915050565b34801561056357600080fd5b5060005461029e906001600160a01b031681565b34801561058357600080fd5b506102d0610592366004612835565b610fd7565b3480156105a357600080fd5b506102fe6105b2366004612899565b61105f565b3480156105c357600080fd5b5061021e6105d23660046128c9565b6110d2565b3480156105e357600080fd5b5060fb546001600160a01b031661029e565b34801561060157600080fd5b506102d0610610366004612725565b60076020526000908152604090205481565b34801561062e57600080fd5b506102d060035481565b34801561064457600080fd5b5061029e61065336600461293b565b611163565b34801561066457600080fd5b5061029e61067336600461281c565b611513565b34801561068457600080fd5b5061021e610693366004612725565b611574565b3480156106a457600080fd5b5061021e6106b33660046129ed565b6115e5565b6106c06117a8565b60005b8381101561079b576001600560008787858181106106e3576106e3612a49565b90506020020160208101906106f89190612725565b6001600160a01b031681526020810191909152604001600020805460ff19169115159190911790557fc648f6265408cc54c0dc26d24ba51dfc9f35ce1a63baa2228f65d93aaf11cc6785858381811061075357610753612a49565b90506020020160208101906107689190612725565b604080516001600160a01b039092168252600160208301520160405180910390a18061079381612a75565b9150506106c3565b5060005b8181101561086e57600560008484848181106107bd576107bd612a49565b90506020020160208101906107d29190612725565b6001600160a01b031681526020810191909152604001600020805460ff191690557fc648f6265408cc54c0dc26d24ba51dfc9f35ce1a63baa2228f65d93aaf11cc6783838381811061082657610826612a49565b905060200201602081019061083b9190612725565b604080516001600160a01b039092168252600060208301520160405180910390a18061086681612a75565b91505061079f565b5050505050565b6001600160a01b037f00000000000000000000000000000000000000000000000000000000000000001630036108c65760405162461bcd60e51b81526004016108bd90612a8e565b60405180910390fd5b7f00000000000000000000000000000000000000000000000000000000000000006001600160a01b031661090f600080516020612e42833981519152546001600160a01b031690565b6001600160a01b0316146109355760405162461bcd60e51b81526004016108bd90612ada565b61093e81611802565b6040805160008082526020820190925261095a9183919061180a565b50565b6109656117a8565b61096d61197a565b565b6001600160a01b037f00000000000000000000000000000000000000000000000000000000000000001630036109b75760405162461bcd60e51b81526004016108bd90612a8e565b7f00000000000000000000000000000000000000000000000000000000000000006001600160a01b0316610a00600080516020612e42833981519152546001600160a01b031690565b6001600160a01b031614610a265760405162461bcd60e51b81526004016108bd90612ada565b610a2f82611802565b610a3b8282600161180a565b5050565b6000306001600160a01b037f00000000000000000000000000000000000000000000000000000000000000001614610adf5760405162461bcd60e51b815260206004820152603860248201527f555550535570677261646561626c653a206d757374206e6f742062652063616c60448201527f6c6564207468726f7567682064656c656761746563616c6c000000000000000060648201526084016108bd565b50600080516020612e4283398151915290565b6000610afc6119cd565b610b04611a28565b6001600160a01b03831660009081526008602090815260408083208584529091528120600101549003610b4d5760405163ba86627b60e01b8152600481018390526024016108bd565b6001600160a01b038316600090815260086020908152604080832085845290915290206002015460ff1615610b985760405163222f1d3d60e11b8152600481018390526024016108bd565b6001600160a01b038316600090815260086020908152604080832085845290915290206001015442908111610be35760405163d3d4d9c360e01b8152600481018490526024016108bd565b6001600160a01b03841660008181526008602090815260408083208784529091529081902060028101805460ff191660011790555490516340c10f1960e01b815230600482015260248101919091526340c10f1990604401600060405180830381600087803b158015610c5557600080fd5b505af1158015610c69573d6000803e3d6000fd5b50506040513392506001600160a01b038716915085907f2da35f6537bd80d9cac4d158e23a0ab942e7fb1fd4a25243fcad824c3433e37990600090a46001915050610cb5600161012d55565b92915050565b610cc36117a8565b61096d6000611a77565b60fb5433906001600160a01b03168114610d3b5760405162461bcd60e51b815260206004820152602960248201527f4f776e61626c6532537465703a2063616c6c6572206973206e6f7420746865206044820152683732bb9037bbb732b960b91b60648201526084016108bd565b61095a81611a77565b610d4c6117a8565b61096d611a90565b6000610d5e6117a8565b600380549083905560408051828152602081018590527fb936e6dfcf3fec6bfb7d23d91ce9406c4ce74825de73cf38c764ed900731d7a491015b60405180910390a150600192915050565b6000610db36117a8565b600480549083905560408051828152602081018590527f43c057f209152d56f2de0fa1d79291670facf6161810b2392b949bf1647cc2369101610d98565b6000610dfb6119cd565b610e03611a28565b6000848152600660205260409020546001600160a01b03163314610e43576040516335638f4d60e11b8152336004820152602481018590526044016108bd565b6001600160a01b0383166000908152600760205260409020548414610e8d576040516328cc1fe360e11b81526001600160a01b0384166004820152602481018590526044016108bd565b6001600160a01b038316600090815260096020908152604080832054600883528184208185529092528220600101549091610ec84283611ace565b6000805491925090610ee5906001600160a01b0316333084611ae4565b6000610ef18888610fd7565b90506000610f0189338a87611b55565b905060405180606001604052808981526020018584610f209190612b26565b8152600060209182018190526001600160a01b038c16808252600883526040808320868452845291829020845181559284015160018401559201516002909101805460ff1916911515919091179055817f192dbb596f99b94785518ef174823fd46e8962b95010f6ddc9fd529a129dbe778a610f9c8887612b26565b604080519283526020830191909152810187905260600160405180910390a360019650505050505050610fd0600161012d55565b9392505050565b6000600454836001600160a01b03166318160ddd6040518163ffffffff1660e01b8152600401602060405180830381865afa15801561101a573d6000803e3d6000fd5b505050506040513d601f19601f8201168201806040525081019061103e9190612b39565b60035461104b9085612b52565b6110559190612b7f565b610fd09190612b26565b6000611069611bc7565b61107d6001600160a01b0384168584611bf7565b604080516001600160a01b038087168252851660208201529081018390527f9b1bfa7fa9ee420a16e124f794c35ac9f90472acc99140eb2f6447c714cad8eb9060600160405180910390a15060019392505050565b6110da611bc7565b6001600160a01b03811661110157604051630ae8f22360e21b815260040160405180910390fd5b60008281526006602090815260409182902080546001600160a01b0319166001600160a01b03851690811790915591518481527f6968e0ca91155227d05a7efa746b77e16777b4a79785bc4d1e8a24e8d250f04a910160405180910390a25050565b600061116d6119cd565b611175611a28565b6000848152600660205260409020546001600160a01b031633146111b5576040516335638f4d60e11b8152336004820152602481018590526044016108bd565b6111c58a8a8a8a8a8a8a8a611c27565b905060006111d4600285612b7f565b600080549192509081908190819081906001600160a01b03908116908816101561125a576000548795508694506001600160a01b03169250879150611253611224670de0b6b3a764000086612b7f565b611236670de0b6b3a76400008b612b7f565b61124490600160c01b612b52565b61124e9190612b7f565b611d6a565b905061129b565b6000546001600160a01b03169450879350869250859150611298611286670de0b6b3a764000086612b7f565b611236670de0b6b3a764000089612b7f565b90505b6000546112b3906001600160a01b031633308b611ae4565b60015460405163095ea7b360e01b81526001600160a01b03918216600482015260001960248201529088169063095ea7b3906044016020604051808303816000875af1158015611307573d6000803e3d6000fd5b505050506040513d601f19601f8201168201806040525081019061132b9190612ba1565b506001546040516309f56ab160e11b81526001600160a01b0387811660048301528581166024830152610bb860448301528381166064830152909116906313ead562906084016020604051808303816000875af1158015611390573d6000803e3d6000fd5b505050506040513d601f19601f820116820180604052508101906113b49190612bc3565b506001805460408051610160810182526001600160a01b0389811682528781166020830152610bb892820192909252620d89b3196060820152620d89b4608082015260a0810188905260c08101869052600060e082018190526101008201523361012082015291169163883164569190610140820190611435904290612b26565b8152506040518263ffffffff1660e01b81526004016114549190612be0565b6080604051808303816000875af1158015611473573d6000803e3d6000fd5b505050506040513d601f19601f820116820180604052508101906114979190612ca4565b505050506001600160a01b0387166000818152600760209081526040918290208d905581518c81529081018b90528c929133917fdc7b59b2c9ffd67846a3b59e7d1b402809ae1a82df9a879a8e5df293ed23eb72910160405180910390a4505050505050611506600161012d55565b9998505050505050505050565b6000818152600a602052604081205481908390611531906001612b26565b60408051602081019390935282015260600160408051601f198184030181529190528051602090910120600254909150610fd0906001600160a01b031682611e52565b61157c6117a8565b60fb80546001600160a01b0383166001600160a01b031990911681179091556115ad60c9546001600160a01b031690565b6001600160a01b03167f38d16b8cac22d99fc7c124b9cd0de2d3fa1faef420bfe791d8c362d765e2270060405160405180910390a350565b603254610100900460ff16158080156116055750603254600160ff909116105b8061161f5750303b15801561161f575060325460ff166001145b6116825760405162461bcd60e51b815260206004820152602e60248201527f496e697469616c697a61626c653a20636f6e747261637420697320616c72656160448201526d191e481a5b9a5d1a585b1a5e995960921b60648201526084016108bd565b6032805460ff1916600117905580156116a5576032805461ff0019166101001790555b6001600160a01b0384166116cc57604051630ae8f22360e21b815260040160405180910390fd5b6001600160a01b0383166116f357604051630ae8f22360e21b815260040160405180910390fd5b600080546001600160a01b038087166001600160a01b0319928316811790935560018054878316908416179055600280549186169190921617905561173b9084600019611eb2565b611743611fc7565b61174b611fee565b611753612022565b61175c85611a77565b801561086e576032805461ff0019169055604051600181527f7f26b83ff96e1f2b6a682f133852f6798a09c465da95921460cefb38474024989060200160405180910390a15050505050565b60c9546001600160a01b0316331461096d5760405162461bcd60e51b815260206004820181905260248201527f4f776e61626c653a2063616c6c6572206973206e6f7420746865206f776e657260448201526064016108bd565b61095a6117a8565b7f4910fdfa16fed3260ed0e7147f7cc6da11a60208b5b9406d12a635614ffd91435460ff16156118425761183d83612051565b505050565b826001600160a01b03166352d1902d6040518163ffffffff1660e01b8152600401602060405180830381865afa92505050801561189c575060408051601f3d908101601f1916820190925261189991810190612b39565b60015b6118ff5760405162461bcd60e51b815260206004820152602e60248201527f45524331393637557067726164653a206e657720696d706c656d656e7461746960448201526d6f6e206973206e6f74205555505360901b60648201526084016108bd565b600080516020612e42833981519152811461196e5760405162461bcd60e51b815260206004820152602960248201527f45524331393637557067726164653a20756e737570706f727465642070726f786044820152681a58589b195555525160ba1b60648201526084016108bd565b5061183d8383836120ed565b611982612112565b61015f805460ff191690557f5db9ee0a495bf2e6ff9c91a7834c1ba4fdd244a5e8aa4e537bd38aeae4b073aa335b6040516001600160a01b03909116815260200160405180910390a1565b600261012d5403611a205760405162461bcd60e51b815260206004820152601f60248201527f5265656e7472616e637947756172643a207265656e7472616e742063616c6c0060448201526064016108bd565b600261012d55565b61015f5460ff161561096d5760405162461bcd60e51b815260206004820152601060248201526f14185d5cd8589b194e881c185d5cd95960821b60448201526064016108bd565b600161012d55565b60fb80546001600160a01b031916905561095a8161215c565b611a98611a28565b61015f805460ff191660011790557f62e78cea01bee320cd4e420270b5ea74000d11b0c9f74754ebdbfc544b05a2586119b03390565b6000818311611add5781610fd0565b5090919050565b6040516001600160a01b0380851660248301528316604482015260648101829052611b4f9085906323b872dd60e01b906084015b60408051601f198184030181529190526020810180516001600160e01b03166001600160e01b0319909316929092179091526121ae565b50505050565b6001600160a01b03848116600081815260096020818152604080842080548251808501889052978b1688840152606088018a90526080880189905260a0808901919091528251808903909101815260c0909701909152855195820195909520939092529052908190555b949350505050565b3360009081526005602052604090205460ff1661096d576040516369021caf60e01b815260040160405180910390fd5b6040516001600160a01b03831660248201526044810182905261183d90849063a9059cbb60e01b90606401611b18565b6000828152600a602052604081208054829185918390611c4690612a75565b918290555060408051602081019390935282015260600160408051601f198184030181529190528051602090910120600254909150611c8e906001600160a01b031682612283565b604051634823e6bd60e11b81529092506001600160a01b03831690639047cd7a90611ccb9030908e908e908e908e908e908e908e90600401612d20565b600060405180830381600087803b158015611ce557600080fd5b505af1158015611cf9573d6000803e3d6000fd5b50506040516340c10f1960e01b8152306004820152602481018690526001600160a01b03851692506340c10f199150604401600060405180830381600087803b158015611d4557600080fd5b505af1158015611d59573d6000803e3d6000fd5b505050505098975050505050505050565b600081600003611d7c57506000919050565b60006001611d8984612320565b901c6001901b90506001818481611da257611da2612b69565b048201901c90506001818481611dba57611dba612b69565b048201901c90506001818481611dd257611dd2612b69565b048201901c90506001818481611dea57611dea612b69565b048201901c90506001818481611e0257611e02612b69565b048201901c90506001818481611e1a57611e1a612b69565b048201901c90506001818481611e3257611e32612b69565b048201901c9050610fd081828581611e4c57611e4c612b69565b046123b4565b6040513060388201526f5af43d82803e903d91602b57fd5bf3ff602482015260148101839052733d602d80600a3d3981f3363d3d373d3d3d363d738152605881018290526037600c82012060788201526055604390910120600090610fd0565b801580611f2c5750604051636eb1769f60e11b81523060048201526001600160a01b03838116602483015284169063dd62ed3e90604401602060405180830381865afa158015611f06573d6000803e3d6000fd5b505050506040513d601f19601f82011682018060405250810190611f2a9190612b39565b155b611f975760405162461bcd60e51b815260206004820152603660248201527f5361666545524332303a20617070726f76652066726f6d206e6f6e2d7a65726f60448201527520746f206e6f6e2d7a65726f20616c6c6f77616e636560501b60648201526084016108bd565b6040516001600160a01b03831660248201526044810182905261183d90849063095ea7b360e01b90606401611b18565b603254610100900460ff16611a6f5760405162461bcd60e51b81526004016108bd90612d83565b603254610100900460ff166120155760405162461bcd60e51b81526004016108bd90612d83565b61015f805460ff19169055565b603254610100900460ff166120495760405162461bcd60e51b81526004016108bd90612d83565b61096d6123c3565b6001600160a01b0381163b6120be5760405162461bcd60e51b815260206004820152602d60248201527f455243313936373a206e657720696d706c656d656e746174696f6e206973206e60448201526c1bdd08184818dbdb9d1c9858dd609a1b60648201526084016108bd565b600080516020612e4283398151915280546001600160a01b0319166001600160a01b0392909216919091179055565b6120f6836123f3565b6000825111806121035750805b1561183d57611b4f8383612433565b61015f5460ff1661096d5760405162461bcd60e51b815260206004820152601460248201527314185d5cd8589b194e881b9bdd081c185d5cd95960621b60448201526064016108bd565b60c980546001600160a01b038381166001600160a01b0319831681179093556040519116919082907f8be0079c531659141344cd1fd0a4f28419497f9722a3daafe3b4186f6b6457e090600090a35050565b6000612203826040518060400160405280602081526020017f5361666545524332303a206c6f772d6c6576656c2063616c6c206661696c6564815250856001600160a01b03166124589092919063ffffffff16565b90508051600014806122245750808060200190518101906122249190612ba1565b61183d5760405162461bcd60e51b815260206004820152602a60248201527f5361666545524332303a204552433230206f7065726174696f6e20646964206e6044820152691bdd081cdd58d8d9595960b21b60648201526084016108bd565b6000763d602d80600a3d3981f3363d3d373d3d3d363d730000008360601b60e81c176000526e5af43d82803e903d91602b57fd5bf38360781b1760205281603760096000f590506001600160a01b038116610cb55760405162461bcd60e51b815260206004820152601760248201527f455243313136373a2063726561746532206661696c656400000000000000000060448201526064016108bd565b600080608083901c1561233557608092831c92015b604083901c1561234757604092831c92015b602083901c1561235957602092831c92015b601083901c1561236b57601092831c92015b600883901c1561237d57600892831c92015b600483901c1561238f57600492831c92015b600283901c156123a157600292831c92015b600183901c15610cb55760010192915050565b6000818310611add5781610fd0565b603254610100900460ff166123ea5760405162461bcd60e51b81526004016108bd90612d83565b61096d33611a77565b6123fc81612051565b6040516001600160a01b038216907fbc7cd75a20ee27fd9adebab32041f755214dbc6bffa90cc0225b39da2e5c2d3b90600090a250565b6060610fd08383604051806060016040528060278152602001612e6260279139612467565b6060611bbf84846000856124df565b6060600080856001600160a01b0316856040516124849190612df2565b600060405180830381855af49150503d80600081146124bf576040519150601f19603f3d011682016040523d82523d6000602084013e6124c4565b606091505b50915091506124d5868383876125ba565b9695505050505050565b6060824710156125405760405162461bcd60e51b815260206004820152602660248201527f416464726573733a20696e73756666696369656e742062616c616e636520666f6044820152651c8818d85b1b60d21b60648201526084016108bd565b600080866001600160a01b0316858760405161255c9190612df2565b60006040518083038185875af1925050503d8060008114612599576040519150601f19603f3d011682016040523d82523d6000602084013e61259e565b606091505b50915091506125af878383876125ba565b979650505050505050565b60608315612629578251600003612622576001600160a01b0385163b6126225760405162461bcd60e51b815260206004820152601d60248201527f416464726573733a2063616c6c20746f206e6f6e2d636f6e747261637400000060448201526064016108bd565b5081611bbf565b611bbf838381511561263e5781518083602001fd5b8060405162461bcd60e51b81526004016108bd9190612e0e565b60008083601f84011261266a57600080fd5b50813567ffffffffffffffff81111561268257600080fd5b6020830191508360208260051b850101111561269d57600080fd5b9250929050565b600080600080604085870312156126ba57600080fd5b843567ffffffffffffffff808211156126d257600080fd5b6126de88838901612658565b909650945060208701359150808211156126f757600080fd5b5061270487828801612658565b95989497509550505050565b6001600160a01b038116811461095a57600080fd5b60006020828403121561273757600080fd5b8135610fd081612710565b634e487b7160e01b600052604160045260246000fd5b6000806040838503121561276b57600080fd5b823561277681612710565b9150602083013567ffffffffffffffff8082111561279357600080fd5b818501915085601f8301126127a757600080fd5b8135818111156127b9576127b9612742565b604051601f8201601f19908116603f011681019083821181831017156127e1576127e1612742565b816040528281528860208487010111156127fa57600080fd5b8260208601602083013760006020848301015280955050505050509250929050565b60006020828403121561282e57600080fd5b5035919050565b6000806040838503121561284857600080fd5b823561285381612710565b946020939093013593505050565b60008060006060848603121561287657600080fd5b83359250602084013561288881612710565b929592945050506040919091013590565b6000806000606084860312156128ae57600080fd5b83356128b981612710565b9250602084013561288881612710565b600080604083850312156128dc57600080fd5b8235915060208301356128ee81612710565b809150509250929050565b60008083601f84011261290b57600080fd5b50813567ffffffffffffffff81111561292357600080fd5b60208301915083602082850101111561269d57600080fd5b600080600080600080600080600060c08a8c03121561295957600080fd5b893567ffffffffffffffff8082111561297157600080fd5b61297d8d838e016128f9565b909b50995060208c013591508082111561299657600080fd5b6129a28d838e016128f9565b909950975060408c01359150808211156129bb57600080fd5b506129c88c828d016128f9565b9a9d999c50979a969997986060880135976080810135975060a0013595509350505050565b60008060008060808587031215612a0357600080fd5b8435612a0e81612710565b93506020850135612a1e81612710565b92506040850135612a2e81612710565b91506060850135612a3e81612710565b939692955090935050565b634e487b7160e01b600052603260045260246000fd5b634e487b7160e01b600052601160045260246000fd5b600060018201612a8757612a87612a5f565b5060010190565b6020808252602c908201527f46756e6374696f6e206d7573742062652063616c6c6564207468726f7567682060408201526b19195b1959d85d1958d85b1b60a21b606082015260800190565b6020808252602c908201527f46756e6374696f6e206d7573742062652063616c6c6564207468726f7567682060408201526b6163746976652070726f787960a01b606082015260800190565b80820180821115610cb557610cb5612a5f565b600060208284031215612b4b57600080fd5b5051919050565b8082028115828204841417610cb557610cb5612a5f565b634e487b7160e01b600052601260045260246000fd5b600082612b9c57634e487b7160e01b600052601260045260246000fd5b500490565b600060208284031215612bb357600080fd5b81518015158114610fd057600080fd5b600060208284031215612bd557600080fd5b8151610fd081612710565b81516001600160a01b0316815261016081016020830151612c0c60208401826001600160a01b03169052565b506040830151612c23604084018262ffffff169052565b506060830151612c38606084018260020b9052565b506080830151612c4d608084018260020b9052565b5060a083015160a083015260c083015160c083015260e083015160e083015261010080840151818401525061012080840151612c93828501826001600160a01b03169052565b505061014092830151919092015290565b60008060008060808587031215612cba57600080fd5b8451935060208501516fffffffffffffffffffffffffffffffff81168114612ce157600080fd5b6040860151606090960151949790965092505050565b81835281816020850137506000828201602090810191909152601f909101601f19169091010190565b6001600160a01b038916815260a060208201819052600090612d45908301898b612cf7565b8281036040840152612d5881888a612cf7565b90508281036060840152612d6d818688612cf7565b9150508260808301529998505050505050505050565b6020808252602b908201527f496e697469616c697a61626c653a20636f6e7472616374206973206e6f74206960408201526a6e697469616c697a696e6760a81b606082015260800190565b60005b83811015612de9578181015183820152602001612dd1565b50506000910152565b60008251612e04818460208701612dce565b9190910192915050565b6020815260008251806020840152612e2d816040850160208701612dce565b601f01601f1916919091016040019291505056fe360894a13ba1a3210667c828492db98dca3e2076cc3735a920a3ca505d382bbc416464726573733a206c6f772d6c6576656c2064656c65676174652063616c6c206661696c6564a164736f6c6343000813000a",
  "devdoc": {
    "events": {
      "AdminChanged(address,address)": {
        "details": "Emitted when the admin account has changed."
      },
      "BeaconUpgraded(address)": {
        "details": "Emitted when the beacon is changed."
      },
      "Initialized(uint8)": {
        "details": "Triggered when the contract has been initialized or reinitialized."
      },
      "Paused(address)": {
        "details": "Emitted when the pause is triggered by `account`."
      },
      "Unpaused(address)": {
        "details": "Emitted when the pause is lifted by `account`."
      },
      "Upgraded(address)": {
        "details": "Emitted when the implementation is upgraded."
      }
    },
    "kind": "dev",
    "methods": {
      "acceptOwnership()": {
        "details": "The new owner accepts the ownership transfer."
      },
      "create(string,string,string,uint256,uint256,uint256)": {
        "details": "developer first create their game coin",
        "params": {
          "amountGameCoin": "how many coin first mint",
          "gameId": "the game's id",
          "name": "new game coin's name",
          "symbol": "game coin's symbol"
        },
        "returns": {
          "gameCoinAddress": "the address of the new game coin"
        }
      },
      "executeMintCoin(address,bytes32)": {
        "details": "when time is up, anyone can call this function to make the mint executed",
        "params": {
          "gameCoinAddress": "address of the game coin",
          "mintId": "a unique id to identify a mint, developer can get it after declare"
        },
        "returns": {
          "_0": "bool whether the operation success"
        }
      },
      "getGameNextCoinAddress(uint256)": {
        "details": "get a specific game next coin's deterministic address",
        "params": {
          "gameId": "off chain game Id"
        }
      },
      "getMintDelay(address,uint256)": {
        "details": "linear function to calculate the delay timedelayB is the minimum delay period, even someone mint zero token,there still be delayB period before someone can really mint zero tokendelayK is the parameter to take the ratio of new amount in to accountFor example, the initial supply of Game Coin is 100k. If developer wantto mint 100k, developer needs to real mint it after `delayK + delayB`. Ifdeveloper want to mint 200k, developer has to real mint it after `2DelayK +delayB`. ^ t +            / |          / |        / 2k+b|      / |    / k+b|  /  |/  b| 0----p---2p---------> amount"
      },
      "getMintFee(address,uint256)": {
        "details": "calculate the MintFee in P12"
      },
      "owner()": {
        "details": "Returns the address of the current owner."
      },
      "paused()": {
        "details": "Returns true if the contract is paused, and false otherwise."
      },
      "pendingOwner()": {
        "details": "Returns the address of the pending owner."
      },
      "proxiableUUID()": {
        "details": "Implementation of the ERC1822 {proxiableUUID} function. This returns the storage slot used by the implementation. It is used to validate the implementation's compatibility when performing an upgrade. IMPORTANT: A proxy pointing at a proxiable contract should not be considered proxiable itself, because this risks bricking a proxy that upgrades to it, by delegating to itself until out of gas. Thus it is critical that this function revert if invoked through a proxy. This is guaranteed by the `notDelegated` modifier."
      },
      "queueMintCoin(uint256,address,uint256)": {
        "details": "if developer want to mint after create coin, developer must declare first",
        "params": {
          "amountGameCoin": "how many developer want to mint",
          "gameCoinAddress": "game coin's address",
          "gameId": "game's id",
          "success": "whether the operation success"
        }
      },
      "register(uint256,address)": {
        "details": "create binding between game and developer, only called by p12 backend",
        "params": {
          "developer": "developer address, who own this game",
          "gameId": "game id"
        }
      },
      "renounceOwnership()": {
        "details": "Leaves the contract without owner. It will not be possible to call `onlyOwner` functions. Can only be called by the current owner. NOTE: Renouncing ownership will leave the contract without an owner, thereby disabling any functionality that is only available to the owner."
      },
      "setDelayB(uint256)": {
        "details": "set linear function's B parameter",
        "params": {
          "newDelayB": "new B parameter"
        }
      },
      "setDelayK(uint256)": {
        "details": "set linear function's K parameter",
        "params": {
          "newDelayK": "new K parameter"
        }
      },
      "transferOwnership(address)": {
        "details": "Starts the ownership transfer of the contract to a new account. Replaces the pending transfer if there is one. Can only be called by the current owner."
      },
      "updateSigners(address[],address[])": {
        "details": "update signers",
        "params": {
          "toAdd": "list of to be added signer",
          "toRemove": "list of to be removed signer"
        }
      },
      "upgradeTo(address)": {
        "custom:oz-upgrades-unsafe-allow-reachable": "delegatecall",
        "details": "Upgrade the implementation of the proxy to `newImplementation`. Calls {_authorizeUpgrade}. Emits an {Upgraded} event."
      },
      "upgradeToAndCall(address,bytes)": {
        "custom:oz-upgrades-unsafe-allow-reachable": "delegatecall",
        "details": "Upgrade the implementation of the proxy to `newImplementation`, and subsequently execute the function call encoded in `data`. Calls {_authorizeUpgrade}. Emits an {Upgraded} event."
      },
      "withdraw(address,address,uint256)": {
        "params": {
          "amountGameCoin": "how many user want to withdraw",
          "gameCoinAddress": "gameCoin's address",
          "userAddress": "user's address"
        }
      }
    },
    "version": 1
  },
  "userdoc": {
    "kind": "user",
    "methods": {
      "gameCoinImpl()": {
        "notice": "game coin implmentation address"
      },
      "withdraw(address,address,uint256)": {
        "notice": "called when user want to withdraw his game coin from custodian address"
      }
    },
    "version": 1
  },
  "storageLayout": {
    "storage": [
      {
        "astId": 13916,
        "contract": "src/coinFactory/P12CoinFactoryUpgradeable.sol:P12CoinFactoryUpgradeable",
        "label": "p12",
        "offset": 0,
        "slot": "0",
        "type": "t_address"
      },
      {
        "astId": 13920,
        "contract": "src/coinFactory/P12CoinFactoryUpgradeable.sol:P12CoinFactoryUpgradeable",
        "label": "uniswapPosManager",
        "offset": 0,
        "slot": "1",
        "type": "t_contract(INonfungiblePositionManager)15941"
      },
      {
        "astId": 13923,
        "contract": "src/coinFactory/P12CoinFactoryUpgradeable.sol:P12CoinFactoryUpgradeable",
        "label": "gameCoinImpl",
        "offset": 0,
        "slot": "2",
        "type": "t_address"
      },
      {
        "astId": 13926,
        "contract": "src/coinFactory/P12CoinFactoryUpgradeable.sol:P12CoinFactoryUpgradeable",
        "label": "delayK",
        "offset": 0,
        "slot": "3",
        "type": "t_uint256"
      },
      {
        "astId": 13928,
        "contract": "src/coinFactory/P12CoinFactoryUpgradeable.sol:P12CoinFactoryUpgradeable",
        "label": "delayB",
        "offset": 0,
        "slot": "4",
        "type": "t_uint256"
      },
      {
        "astId": 13932,
        "contract": "src/coinFactory/P12CoinFactoryUpgradeable.sol:P12CoinFactoryUpgradeable",
        "label": "signers",
        "offset": 0,
        "slot": "5",
        "type": "t_mapping(t_address,t_bool)"
      },
      {
        "astId": 13936,
        "contract": "src/coinFactory/P12CoinFactoryUpgradeable.sol:P12CoinFactoryUpgradeable",
        "label": "gameDev",
        "offset": 0,
        "slot": "6",
        "type": "t_mapping(t_uint256,t_address)"
      },
      {
        "astId": 13940,
        "contract": "src/coinFactory/P12CoinFactoryUpgradeable.sol:P12CoinFactoryUpgradeable",
        "label": "coinGameIds",
        "offset": 0,
        "slot": "7",
        "type": "t_mapping(t_address,t_uint256)"
      },
      {
        "astId": 13947,
        "contract": "src/coinFactory/P12CoinFactoryUpgradeable.sol:P12CoinFactoryUpgradeable",
        "label": "coinMintRecords",
        "offset": 0,
        "slot": "8",
        "type": "t_mapping(t_address,t_mapping(t_bytes32,t_struct(MintCoinInfo)15215_storage))"
      },
      {
        "astId": 13951,
        "contract": "src/coinFactory/P12CoinFactoryUpgradeable.sol:P12CoinFactoryUpgradeable",
        "label": "preMintIds",
        "offset": 0,
        "slot": "9",
        "type": "t_mapping(t_address,t_bytes32)"
      },
      {
        "astId": 13955,
        "contract": "src/coinFactory/P12CoinFactoryUpgradeable.sol:P12CoinFactoryUpgradeable",
        "label": "_gameCoinCount",
        "offset": 0,
        "slot": "10",
        "type": "t_mapping(t_uint256,t_uint256)"
      },
      {
        "astId": 13959,
        "contract": "src/coinFactory/P12CoinFactoryUpgradeable.sol:P12CoinFactoryUpgradeable",
        "label": "__gap",
        "offset": 0,
        "slot": "11",
        "type": "t_array(t_uint256)39_storage"
      },
      {
        "astId": 714,
        "contract": "src/coinFactory/P12CoinFactoryUpgradeable.sol:P12CoinFactoryUpgradeable",
        "label": "_initialized",
        "offset": 0,
        "slot": "50",
        "type": "t_uint8"
      },
      {
        "astId": 717,
        "contract": "src/coinFactory/P12CoinFactoryUpgradeable.sol:P12CoinFactoryUpgradeable",
        "label": "_initializing",
        "offset": 1,
        "slot": "50",
        "type": "t_bool"
      },
      {
        "astId": 696,
        "contract": "src/coinFactory/P12CoinFactoryUpgradeable.sol:P12CoinFactoryUpgradeable",
        "label": "__gap",
        "offset": 0,
        "slot": "51",
        "type": "t_array(t_uint256)50_storage"
      },
      {
        "astId": 1011,
        "contract": "src/coinFactory/P12CoinFactoryUpgradeable.sol:P12CoinFactoryUpgradeable",
        "label": "__gap",
        "offset": 0,
        "slot": "101",
        "type": "t_array(t_uint256)50_storage"
      },
      {
        "astId": 2979,
        "contract": "src/coinFactory/P12CoinFactoryUpgradeable.sol:P12CoinFactoryUpgradeable",
        "label": "__gap",
        "offset": 0,
        "slot": "151",
        "type": "t_array(t_uint256)50_storage"
      },
      {
        "astId": 116,
        "contract": "src/coinFactory/P12CoinFactoryUpgradeable.sol:P12CoinFactoryUpgradeable",
        "label": "_owner",
        "offset": 0,
        "slot": "201",
        "type": "t_address"
      },
      {
        "astId": 236,
        "contract": "src/coinFactory/P12CoinFactoryUpgradeable.sol:P12CoinFactoryUpgradeable",
        "label": "__gap",
        "offset": 0,
        "slot": "202",
        "type": "t_array(t_uint256)49_storage"
      },
      {
        "astId": 25,
        "contract": "src/coinFactory/P12CoinFactoryUpgradeable.sol:P12CoinFactoryUpgradeable",
        "label": "_pendingOwner",
        "offset": 0,
        "slot": "251",
        "type": "t_address"
      },
      {
        "astId": 104,
        "contract": "src/coinFactory/P12CoinFactoryUpgradeable.sol:P12CoinFactoryUpgradeable",
        "label": "__gap",
        "offset": 0,
        "slot": "252",
        "type": "t_array(t_uint256)49_storage"
      },
      {
        "astId": 1153,
        "contract": "src/coinFactory/P12CoinFactoryUpgradeable.sol:P12CoinFactoryUpgradeable",
        "label": "_status",
        "offset": 0,
        "slot": "301",
        "type": "t_uint256"
      },
      {
        "astId": 1222,
        "contract": "src/coinFactory/P12CoinFactoryUpgradeable.sol:P12CoinFactoryUpgradeable",
        "label": "__gap",
        "offset": 0,
        "slot": "302",
        "type": "t_array(t_uint256)49_storage"
      },
      {
        "astId": 1033,
        "contract": "src/coinFactory/P12CoinFactoryUpgradeable.sol:P12CoinFactoryUpgradeable",
        "label": "_paused",
        "offset": 0,
        "slot": "351",
        "type": "t_bool"
      },
      {
        "astId": 1138,
        "contract": "src/coinFactory/P12CoinFactoryUpgradeable.sol:P12CoinFactoryUpgradeable",
        "label": "__gap",
        "offset": 0,
        "slot": "352",
        "type": "t_array(t_uint256)49_storage"
      }
    ],
    "types": {
      "t_address": {
        "encoding": "inplace",
        "label": "address",
        "numberOfBytes": "20"
      },
      "t_array(t_uint256)39_storage": {
        "base": "t_uint256",
        "encoding": "inplace",
        "label": "uint256[39]",
        "numberOfBytes": "1248"
      },
      "t_array(t_uint256)49_storage": {
        "base": "t_uint256",
        "encoding": "inplace",
        "label": "uint256[49]",
        "numberOfBytes": "1568"
      },
      "t_array(t_uint256)50_storage": {
        "base": "t_uint256",
        "encoding": "inplace",
        "label": "uint256[50]",
        "numberOfBytes": "1600"
      },
      "t_bool": {
        "encoding": "inplace",
        "label": "bool",
        "numberOfBytes": "1"
      },
      "t_bytes32": {
        "encoding": "inplace",
        "label": "bytes32",
        "numberOfBytes": "32"
      },
      "t_contract(INonfungiblePositionManager)15941": {
        "encoding": "inplace",
        "label": "contract INonfungiblePositionManager",
        "numberOfBytes": "20"
      },
      "t_mapping(t_address,t_bool)": {
        "encoding": "mapping",
        "key": "t_address",
        "label": "mapping(address => bool)",
        "numberOfBytes": "32",
        "value": "t_bool"
      },
      "t_mapping(t_address,t_bytes32)": {
        "encoding": "mapping",
        "key": "t_address",
        "label": "mapping(address => bytes32)",
        "numberOfBytes": "32",
        "value": "t_bytes32"
      },
      "t_mapping(t_address,t_mapping(t_bytes32,t_struct(MintCoinInfo)15215_storage))": {
        "encoding": "mapping",
        "key": "t_address",
        "label": "mapping(address => mapping(bytes32 => struct IP12CoinFactoryDef.MintCoinInfo))",
        "numberOfBytes": "32",
        "value": "t_mapping(t_bytes32,t_struct(MintCoinInfo)15215_storage)"
      },
      "t_mapping(t_address,t_uint256)": {
        "encoding": "mapping",
        "key": "t_address",
        "label": "mapping(address => uint256)",
        "numberOfBytes": "32",
        "value": "t_uint256"
      },
      "t_mapping(t_bytes32,t_struct(MintCoinInfo)15215_storage)": {
        "encoding": "mapping",
        "key": "t_bytes32",
        "label": "mapping(bytes32 => struct IP12CoinFactoryDef.MintCoinInfo)",
        "numberOfBytes": "32",
        "value": "t_struct(MintCoinInfo)15215_storage"
      },
      "t_mapping(t_uint256,t_address)": {
        "encoding": "mapping",
        "key": "t_uint256",
        "label": "mapping(uint256 => address)",
        "numberOfBytes": "32",
        "value": "t_address"
      },
      "t_mapping(t_uint256,t_uint256)": {
        "encoding": "mapping",
        "key": "t_uint256",
        "label": "mapping(uint256 => uint256)",
        "numberOfBytes": "32",
        "value": "t_uint256"
      },
      "t_struct(MintCoinInfo)15215_storage": {
        "encoding": "inplace",
        "label": "struct IP12CoinFactoryDef.MintCoinInfo",
        "members": [
          {
            "astId": 15210,
            "contract": "src/coinFactory/P12CoinFactoryUpgradeable.sol:P12CoinFactoryUpgradeable",
            "label": "amount",
            "offset": 0,
            "slot": "0",
            "type": "t_uint256"
          },
          {
            "astId": 15212,
            "contract": "src/coinFactory/P12CoinFactoryUpgradeable.sol:P12CoinFactoryUpgradeable",
            "label": "unlockTimestamp",
            "offset": 0,
            "slot": "1",
            "type": "t_uint256"
          },
          {
            "astId": 15214,
            "contract": "src/coinFactory/P12CoinFactoryUpgradeable.sol:P12CoinFactoryUpgradeable",
            "label": "executed",
            "offset": 0,
            "slot": "2",
            "type": "t_bool"
          }
        ],
        "numberOfBytes": "96"
      },
      "t_uint256": {
        "encoding": "inplace",
        "label": "uint256",
        "numberOfBytes": "32"
      },
      "t_uint8": {
        "encoding": "inplace",
        "label": "uint8",
        "numberOfBytes": "1"
      }
    }
  }
}