{
  "address": "0x9D57Ef033d5fA90788dDc3C8f4ac888650F5e2f8",
  "abi": [
    {
      "anonymous": false,
      "inputs": [
        {
          "indexed": true,
          "internalType": "address",
          "name": "owner",
          "type": "address"
        },
        {
          "indexed": true,
          "internalType": "address",
          "name": "spender",
          "type": "address"
        },
        {
          "indexed": false,
          "internalType": "uint256",
          "name": "value",
          "type": "uint256"
        }
      ],
      "name": "Approval",
      "type": "event"
    },
    {
      "anonymous": false,
      "inputs": [
        {
          "indexed": true,
          "internalType": "address",
          "name": "recipient",
          "type": "address"
        },
        {
          "indexed": true,
          "internalType": "bytes32",
          "name": "account",
          "type": "bytes32"
        },
        {
          "indexed": false,
          "internalType": "uint256",
          "name": "amount",
          "type": "uint256"
        }
      ],
      "name": "DepositToAccount",
      "type": "event"
    },
    {
      "anonymous": false,
      "inputs": [],
      "name": "EIP712DomainChanged",
      "type": "event"
    },
    {
      "anonymous": false,
      "inputs": [
        {
          "indexed": false,
          "internalType": "uint8",
          "name": "version",
          "type": "uint8"
        }
      ],
      "name": "Initialized",
      "type": "event"
    },
    {
      "anonymous": false,
      "inputs": [
        {
          "indexed": true,
          "internalType": "address",
          "name": "previousOwner",
          "type": "address"
        },
        {
          "indexed": true,
          "internalType": "address",
          "name": "newOwner",
          "type": "address"
        }
      ],
      "name": "OwnershipTransferStarted",
      "type": "event"
    },
    {
      "anonymous": false,
      "inputs": [
        {
          "indexed": true,
          "internalType": "address",
          "name": "previousOwner",
          "type": "address"
        },
        {
          "indexed": true,
          "internalType": "address",
          "name": "newOwner",
          "type": "address"
        }
      ],
      "name": "OwnershipTransferred",
      "type": "event"
    },
    {
      "anonymous": false,
      "inputs": [
        {
          "indexed": true,
          "internalType": "address",
          "name": "from",
          "type": "address"
        },
        {
          "indexed": true,
          "internalType": "address",
          "name": "to",
          "type": "address"
        },
        {
          "indexed": false,
          "internalType": "uint256",
          "name": "value",
          "type": "uint256"
        }
      ],
      "name": "Transfer",
      "type": "event"
    },
    {
      "inputs": [],
      "name": "DOMAIN_SEPARATOR",
      "outputs": [
        {
          "internalType": "bytes32",
          "name": "",
          "type": "bytes32"
        }
      ],
      "stateMutability": "view",
      "type": "function"
    },
    {
      "inputs": [],
      "name": "acceptOwnership",
      "outputs": [],
      "stateMutability": "nonpayable",
      "type": "function"
    },
    {
      "inputs": [
        {
          "internalType": "address",
          "name": "owner",
          "type": "address"
        },
        {
          "internalType": "address",
          "name": "spender",
          "type": "address"
        }
      ],
      "name": "allowance",
      "outputs": [
        {
          "internalType": "uint256",
          "name": "",
          "type": "uint256"
        }
      ],
      "stateMutability": "view",
      "type": "function"
    },
    {
      "inputs": [
        {
          "internalType": "address",
          "name": "spender",
          "type": "address"
        },
        {
          "internalType": "uint256",
          "name": "amount",
          "type": "uint256"
        }
      ],
      "name": "approve",
      "outputs": [
        {
          "internalType": "bool",
          "name": "",
          "type": "bool"
        }
      ],
      "stateMutability": "nonpayable",
      "type": "function"
    },
    {
      "inputs": [
        {
          "internalType": "address",
          "name": "account",
          "type": "address"
        }
      ],
      "name": "balanceOf",
      "outputs": [
        {
          "internalType": "uint256",
          "name": "",
          "type": "uint256"
        }
      ],
      "stateMutability": "view",
      "type": "function"
    },
    {
      "inputs": [
        {
          "internalType": "uint256",
          "name": "amount",
          "type": "uint256"
        }
      ],
      "name": "burn",
      "outputs": [],
      "stateMutability": "nonpayable",
      "type": "function"
    },
    {
      "inputs": [
        {
          "internalType": "address",
          "name": "account",
          "type": "address"
        },
        {
          "internalType": "uint256",
          "name": "amount",
          "type": "uint256"
        }
      ],
      "name": "burnFrom",
      "outputs": [],
      "stateMutability": "nonpayable",
      "type": "function"
    },
    {
      "inputs": [],
      "name": "decimals",
      "outputs": [
        {
          "internalType": "uint8",
          "name": "",
          "type": "uint8"
        }
      ],
      "stateMutability": "view",
      "type": "function"
    },
    {
      "inputs": [
        {
          "internalType": "address",
          "name": "spender",
          "type": "address"
        },
        {
          "internalType": "uint256",
          "name": "subtractedValue",
          "type": "uint256"
        }
      ],
      "name": "decreaseAllowance",
      "outputs": [
        {
          "internalType": "bool",
          "name": "",
          "type": "bool"
        }
      ],
      "stateMutability": "nonpayable",
      "type": "function"
    },
    {
      "inputs": [
        {
          "internalType": "address",
          "name": "recipient",
          "type": "address"
        },
        {
          "internalType": "uint256",
          "name": "amount",
          "type": "uint256"
        },
        {
          "internalType": "bytes32",
          "name": "account",
          "type": "bytes32"
        }
      ],
      "name": "depositToAccount",
      "outputs": [],
      "stateMutability": "nonpayable",
      "type": "function"
    },
    {
      "inputs": [],
      "name": "eip712Domain",
      "outputs": [
        {
          "internalType": "bytes1",
          "name": "fields",
          "type": "bytes1"
        },
        {
          "internalType": "string",
          "name": "name",
          "type": "string"
        },
        {
          "internalType": "string",
          "name": "version",
          "type": "string"
        },
        {
          "internalType": "uint256",
          "name": "chainId",
          "type": "uint256"
        },
        {
          "internalType": "address",
          "name": "verifyingContract",
          "type": "address"
        },
        {
          "internalType": "bytes32",
          "name": "salt",
          "type": "bytes32"
        },
        {
          "internalType": "uint256[]",
          "name": "extensions",
          "type": "uint256[]"
        }
      ],
      "stateMutability": "view",
      "type": "function"
    },
    {
      "inputs": [],
      "name": "gameId",
      "outputs": [
        {
          "internalType": "uint256",
          "name": "",
          "type": "uint256"
        }
      ],
      "stateMutability": "view",
      "type": "function"
    },
    {
      "inputs": [
        {
          "internalType": "address",
          "name": "spender",
          "type": "address"
        },
        {
          "internalType": "uint256",
          "name": "addedValue",
          "type": "uint256"
        }
      ],
      "name": "increaseAllowance",
      "outputs": [
        {
          "internalType": "bool",
          "name": "",
          "type": "bool"
        }
      ],
      "stateMutability": "nonpayable",
      "type": "function"
    },
    {
      "inputs": [
        {
          "internalType": "address",
          "name": "owner_",
          "type": "address"
        },
        {
          "internalType": "string",
          "name": "name_",
          "type": "string"
        },
        {
          "internalType": "string",
          "name": "symbol_",
          "type": "string"
        },
        {
          "internalType": "string",
          "name": "uri_",
          "type": "string"
        },
        {
          "internalType": "uint256",
          "name": "gameId_",
          "type": "uint256"
        }
      ],
      "name": "initialize",
      "outputs": [],
      "stateMutability": "nonpayable",
      "type": "function"
    },
    {
      "inputs": [
        {
          "internalType": "address",
          "name": "to",
          "type": "address"
        },
        {
          "internalType": "uint256",
          "name": "amount",
          "type": "uint256"
        }
      ],
      "name": "mint",
      "outputs": [],
      "stateMutability": "nonpayable",
      "type": "function"
    },
    {
      "inputs": [],
      "name": "name",
      "outputs": [
        {
          "internalType": "string",
          "name": "",
          "type": "string"
        }
      ],
      "stateMutability": "view",
      "type": "function"
    },
    {
      "inputs": [
        {
          "internalType": "address",
          "name": "owner",
          "type": "address"
        }
      ],
      "name": "nonces",
      "outputs": [
        {
          "internalType": "uint256",
          "name": "",
          "type": "uint256"
        }
      ],
      "stateMutability": "view",
      "type": "function"
    },
    {
      "inputs": [],
      "name": "owner",
      "outputs": [
        {
          "internalType": "address",
          "name": "",
          "type": "address"
        }
      ],
      "stateMutability": "view",
      "type": "function"
    },
    {
      "inputs": [],
      "name": "pendingOwner",
      "outputs": [
        {
          "internalType": "address",
          "name": "",
          "type": "address"
        }
      ],
      "stateMutability": "view",
      "type": "function"
    },
    {
      "inputs": [
        {
          "internalType": "address",
          "name": "owner",
          "type": "address"
        },
        {
          "internalType": "address",
          "name": "spender",
          "type": "address"
        },
        {
          "internalType": "uint256",
          "name": "value",
          "type": "uint256"
        },
        {
          "internalType": "uint256",
          "name": "deadline",
          "type": "uint256"
        },
        {
          "internalType": "uint8",
          "name": "v",
          "type": "uint8"
        },
        {
          "internalType": "bytes32",
          "name": "r",
          "type": "bytes32"
        },
        {
          "internalType": "bytes32",
          "name": "s",
          "type": "bytes32"
        }
      ],
      "name": "permit",
      "outputs": [],
      "stateMutability": "nonpayable",
      "type": "function"
    },
    {
      "inputs": [],
      "name": "renounceOwnership",
      "outputs": [],
      "stateMutability": "nonpayable",
      "type": "function"
    },
    {
      "inputs": [],
      "name": "symbol",
      "outputs": [
        {
          "internalType": "string",
          "name": "",
          "type": "string"
        }
      ],
      "stateMutability": "view",
      "type": "function"
    },
    {
      "inputs": [],
      "name": "tokenURI",
      "outputs": [
        {
          "internalType": "string",
          "name": "",
          "type": "string"
        }
      ],
      "stateMutability": "view",
      "type": "function"
    },
    {
      "inputs": [],
      "name": "totalSupply",
      "outputs": [
        {
          "internalType": "uint256",
          "name": "",
          "type": "uint256"
        }
      ],
      "stateMutability": "view",
      "type": "function"
    },
    {
      "inputs": [
        {
          "internalType": "address",
          "name": "to",
          "type": "address"
        },
        {
          "internalType": "uint256",
          "name": "amount",
          "type": "uint256"
        }
      ],
      "name": "transfer",
      "outputs": [
        {
          "internalType": "bool",
          "name": "",
          "type": "bool"
        }
      ],
      "stateMutability": "nonpayable",
      "type": "function"
    },
    {
      "inputs": [
        {
          "internalType": "address",
          "name": "from",
          "type": "address"
        },
        {
          "internalType": "address",
          "name": "to",
          "type": "address"
        },
        {
          "internalType": "uint256",
          "name": "amount",
          "type": "uint256"
        }
      ],
      "name": "transferFrom",
      "outputs": [
        {
          "internalType": "bool",
          "name": "",
          "type": "bool"
        }
      ],
      "stateMutability": "nonpayable",
      "type": "function"
    },
    {
      "inputs": [
        {
          "internalType": "address",
          "name": "newOwner",
          "type": "address"
        }
      ],
      "name": "transferOwnership",
      "outputs": [],
      "stateMutability": "nonpayable",
      "type": "function"
    }
  ],
  "transactionHash": "0x7085bb614a9ac9a05a4c5468d2aef43654bc46bc89fe06be9c503230a4e57e73",
  "args": [],
  "numDeployments": 1,
  "solcInputHash": "19e34883e82b0936662a4f8f70da10bc",
  "bytecode": "0x608060405234801561001057600080fd5b50611c5c806100206000396000f3fe608060405234801561001057600080fd5b50600436106101a95760003560e01c806379ba5097116100f9578063a457c2d711610097578063d7c81b5511610071578063d7c81b5514610374578063dd62ed3e1461037d578063e30c397814610390578063f2fde38b146103a257600080fd5b8063a457c2d71461033b578063a9059cbb1461034e578063d505accf1461036157600080fd5b806384b0196e116100d357806384b0196e146102e05780638da5cb5b146102fb5780639047cd7a1461032057806395d89b411461033357600080fd5b806379ba5097146102b257806379cc6790146102ba5780637ecebe00146102cd57600080fd5b80633644e5151161016657806340c10f191161014057806340c10f191461025b57806342966c681461026e57806370a0823114610281578063715018a6146102aa57600080fd5b80633644e5151461023857806339509351146102405780633c130d901461025357600080fd5b806306fdde03146101ae578063095ea7b3146101cc57806318160ddd146101ef57806323b872dd146102015780632a85db8014610214578063313ce56714610229575b600080fd5b6101b66103b5565b6040516101c3919061167a565b60405180910390f35b6101df6101da3660046116b0565b610447565b60405190151581526020016101c3565b6035545b6040519081526020016101c3565b6101df61020f3660046116da565b610461565b610227610222366004611716565b610485565b005b604051601281526020016101c3565b6101f36104d9565b6101df61024e3660046116b0565b6104e8565b6101b661050a565b6102276102693660046116b0565b61051a565b61022761027c366004611749565b610530565b6101f361028f366004611762565b6001600160a01b031660009081526033602052604090205490565b61022761053d565b610227610551565b6102276102c83660046116b0565b6105ce565b6101f36102db366004611762565b6105e3565b6102e8610601565b6040516101c3979695949392919061177d565b60fe546001600160a01b03165b6040516001600160a01b0390911681526020016101c3565b61022761032e36600461185c565b61069f565b6101b6610888565b6101df6103493660046116b0565b610897565b6101df61035c3660046116b0565b610912565b61022761036f36600461190e565b610920565b610162546101f3565b6101f361038b366004611981565b610a84565b610130546001600160a01b0316610308565b6102276103b0366004611762565b610aaf565b6060603680546103c4906119b4565b80601f01602080910402602001604051908101604052809291908181526020018280546103f0906119b4565b801561043d5780601f106104125761010080835404028352916020019161043d565b820191906000526020600020905b81548152906001019060200180831161042057829003601f168201915b5050505050905090565b600033610455818585610b21565b60019150505b92915050565b60003361046f858285610c3d565b61047a858585610cb7565b506001949350505050565b61048f8383610912565b5080836001600160a01b03167f73d7690e4af762a86dfddbc8fc062eac709901f437b7cbe5162356c5b83b861f846040516104cc91815260200190565b60405180910390a3505050565b60006104e3610e62565b905090565b6000336104558185856104fb8383610a84565b61050591906119e8565b610b21565b606061016380546103c4906119b4565b610522610e6c565b61052c8282610ec6565b5050565b61053a3382610f87565b50565b610545610e6c565b61054f60006110b8565b565b6101305433906001600160a01b031681146105c55760405162461bcd60e51b815260206004820152602960248201527f4f776e61626c6532537465703a2063616c6c6572206973206e6f7420746865206044820152683732bb9037bbb732b960b91b60648201526084015b60405180910390fd5b61053a816110b8565b6105d9823383610c3d565b61052c8282610f87565b6001600160a01b03811660009081526099602052604081205461045b565b6000606080600080600060606065546000801b1480156106215750606654155b6106655760405162461bcd60e51b81526020600482015260156024820152741152540dcc4c8e88155b9a5b9a5d1a585b1a5e9959605a1b60448201526064016105bc565b61066d6110d2565b6106756110e1565b60408051600080825260208201909252600f60f81b9b939a50919850469750309650945092509050565b600054610100900460ff16158080156106bf5750600054600160ff909116105b806106d95750303b1580156106d9575060005460ff166001145b61073c5760405162461bcd60e51b815260206004820152602e60248201527f496e697469616c697a61626c653a20636f6e747261637420697320616c72656160448201526d191e481a5b9a5d1a585b1a5e995960921b60648201526084016105bc565b6000805460ff19166001179055801561075f576000805461ff0019166101001790555b610162829055610163610773848683611a6d565b506107b388888080601f0160208091040260200160405190810160405280939291908181526020018383808284376000920191909152506110f092505050565b61082688888080601f01602080910402602001604051908101604052809392919081815260200183838082843760009201919091525050604080516020601f8c018190048102820181019092528a815292508a915089908190840183828082843760009201919091525061113a92505050565b61082e61116b565b610837896110b8565b801561087d576000805461ff0019169055604051600181527f7f26b83ff96e1f2b6a682f133852f6798a09c465da95921460cefb38474024989060200160405180910390a15b505050505050505050565b6060603780546103c4906119b4565b600033816108a58286610a84565b9050838110156109055760405162461bcd60e51b815260206004820152602560248201527f45524332303a2064656372656173656420616c6c6f77616e63652062656c6f77604482015264207a65726f60d81b60648201526084016105bc565b61047a8286868403610b21565b600033610455818585610cb7565b834211156109705760405162461bcd60e51b815260206004820152601d60248201527f45524332305065726d69743a206578706972656420646561646c696e6500000060448201526064016105bc565b60007f6e71edae12b1b97f4d1f60370fef10105fa2faae0126114a169c64845d6126c988888861099f8c61119a565b6040805160208101969096526001600160a01b0394851690860152929091166060840152608083015260a082015260c0810186905260e00160405160208183030381529060405280519060200120905060006109fa826111c2565b90506000610a0a828787876111ef565b9050896001600160a01b0316816001600160a01b031614610a6d5760405162461bcd60e51b815260206004820152601e60248201527f45524332305065726d69743a20696e76616c6964207369676e6174757265000060448201526064016105bc565b610a788a8a8a610b21565b50505050505050505050565b6001600160a01b03918216600090815260346020908152604080832093909416825291909152205490565b610ab7610e6c565b61013080546001600160a01b0383166001600160a01b03199091168117909155610ae960fe546001600160a01b031690565b6001600160a01b03167f38d16b8cac22d99fc7c124b9cd0de2d3fa1faef420bfe791d8c362d765e2270060405160405180910390a350565b6001600160a01b038316610b835760405162461bcd60e51b8152602060048201526024808201527f45524332303a20617070726f76652066726f6d20746865207a65726f206164646044820152637265737360e01b60648201526084016105bc565b6001600160a01b038216610be45760405162461bcd60e51b815260206004820152602260248201527f45524332303a20617070726f766520746f20746865207a65726f206164647265604482015261737360f01b60648201526084016105bc565b6001600160a01b0383811660008181526034602090815260408083209487168084529482529182902085905590518481527f8c5be1e5ebec7d5bd14f71427d1e84f3dd0314c0f7b2291e5b200ac8c7c3b92591016104cc565b6000610c498484610a84565b90506000198114610cb15781811015610ca45760405162461bcd60e51b815260206004820152601d60248201527f45524332303a20696e73756666696369656e7420616c6c6f77616e636500000060448201526064016105bc565b610cb18484848403610b21565b50505050565b6001600160a01b038316610d1b5760405162461bcd60e51b815260206004820152602560248201527f45524332303a207472616e736665722066726f6d20746865207a65726f206164604482015264647265737360d81b60648201526084016105bc565b6001600160a01b038216610d7d5760405162461bcd60e51b815260206004820152602360248201527f45524332303a207472616e7366657220746f20746865207a65726f206164647260448201526265737360e81b60648201526084016105bc565b6001600160a01b03831660009081526033602052604090205481811015610df55760405162461bcd60e51b815260206004820152602660248201527f45524332303a207472616e7366657220616d6f756e7420657863656564732062604482015265616c616e636560d01b60648201526084016105bc565b6001600160a01b0380851660008181526033602052604080822086860390559286168082529083902080548601905591517fddf252ad1be2c89b69c2b068fc378daa952ba7f163c4a11628f55a4df523b3ef90610e559086815260200190565b60405180910390a3610cb1565b60006104e3611217565b60fe546001600160a01b0316331461054f5760405162461bcd60e51b815260206004820181905260248201527f4f776e61626c653a2063616c6c6572206973206e6f7420746865206f776e657260448201526064016105bc565b6001600160a01b038216610f1c5760405162461bcd60e51b815260206004820152601f60248201527f45524332303a206d696e7420746f20746865207a65726f20616464726573730060448201526064016105bc565b8060356000828254610f2e91906119e8565b90915550506001600160a01b0382166000818152603360209081526040808320805486019055518481527fddf252ad1be2c89b69c2b068fc378daa952ba7f163c4a11628f55a4df523b3ef910160405180910390a35050565b6001600160a01b038216610fe75760405162461bcd60e51b815260206004820152602160248201527f45524332303a206275726e2066726f6d20746865207a65726f206164647265736044820152607360f81b60648201526084016105bc565b6001600160a01b0382166000908152603360205260409020548181101561105b5760405162461bcd60e51b815260206004820152602260248201527f45524332303a206275726e20616d6f756e7420657863656564732062616c616e604482015261636560f01b60648201526084016105bc565b6001600160a01b03831660008181526033602090815260408083208686039055603580548790039055518581529192917fddf252ad1be2c89b69c2b068fc378daa952ba7f163c4a11628f55a4df523b3ef91016104cc565b505050565b61013080546001600160a01b031916905561053a8161128b565b6060606780546103c4906119b4565b6060606880546103c4906119b4565b600054610100900460ff166111175760405162461bcd60e51b81526004016105bc90611b2e565b61053a81604051806040016040528060018152602001603160f81b8152506112dd565b600054610100900460ff166111615760405162461bcd60e51b81526004016105bc90611b2e565b61052c828261132c565b600054610100900460ff166111925760405162461bcd60e51b81526004016105bc90611b2e565b61054f61136c565b6001600160a01b03811660009081526099602052604090208054600181018255905b50919050565b600061045b6111cf610e62565b8360405161190160f01b8152600281019290925260228201526042902090565b60008060006112008787878761139c565b9150915061120d81611460565b5095945050505050565b60007f8b73c3c69bb8fe3d512ecc4cf759cc79239f7b179b0ffacaa9a75d522b39400f6112426115aa565b61124a611603565b60408051602081019490945283019190915260608201524660808201523060a082015260c00160405160208183030381529060405280519060200120905090565b60fe80546001600160a01b038381166001600160a01b0319831681179093556040519116919082907f8be0079c531659141344cd1fd0a4f28419497f9722a3daafe3b4186f6b6457e090600090a35050565b600054610100900460ff166113045760405162461bcd60e51b81526004016105bc90611b2e565b60676113108382611b79565b50606861131d8282611b79565b50506000606581905560665550565b600054610100900460ff166113535760405162461bcd60e51b81526004016105bc90611b2e565b603661135f8382611b79565b5060376110b38282611b79565b600054610100900460ff166113935760405162461bcd60e51b81526004016105bc90611b2e565b61054f336110b8565b6000807f7fffffffffffffffffffffffffffffff5d576e7357a4501ddfe92f46681b20a08311156113d35750600090506003611457565b6040805160008082526020820180845289905260ff881692820192909252606081018690526080810185905260019060a0016020604051602081039080840390855afa158015611427573d6000803e3d6000fd5b5050604051601f1901519150506001600160a01b03811661145057600060019250925050611457565b9150600090505b94509492505050565b600081600481111561147457611474611c39565b0361147c5750565b600181600481111561149057611490611c39565b036114dd5760405162461bcd60e51b815260206004820152601860248201527f45434453413a20696e76616c6964207369676e6174757265000000000000000060448201526064016105bc565b60028160048111156114f1576114f1611c39565b0361153e5760405162461bcd60e51b815260206004820152601f60248201527f45434453413a20696e76616c6964207369676e6174757265206c656e6774680060448201526064016105bc565b600381600481111561155257611552611c39565b0361053a5760405162461bcd60e51b815260206004820152602260248201527f45434453413a20696e76616c6964207369676e6174757265202773272076616c604482015261756560f01b60648201526084016105bc565b6000806115b56110d2565b8051909150156115cc578051602090910120919050565b60655480156115db5792915050565b7fc5d2460186f7233c927e7db2dcc703c0e500b653ca82273b7bfad8045d85a4709250505090565b60008061160e6110e1565b805190915015611625578051602090910120919050565b60665480156115db5792915050565b6000815180845260005b8181101561165a5760208185018101518683018201520161163e565b506000602082860101526020601f19601f83011685010191505092915050565b60208152600061168d6020830184611634565b9392505050565b80356001600160a01b03811681146116ab57600080fd5b919050565b600080604083850312156116c357600080fd5b6116cc83611694565b946020939093013593505050565b6000806000606084860312156116ef57600080fd5b6116f884611694565b925061170660208501611694565b9150604084013590509250925092565b60008060006060848603121561172b57600080fd5b61173484611694565b95602085013595506040909401359392505050565b60006020828403121561175b57600080fd5b5035919050565b60006020828403121561177457600080fd5b61168d82611694565b60ff60f81b881681526000602060e08184015261179d60e084018a611634565b83810360408501526117af818a611634565b606085018990526001600160a01b038816608086015260a0850187905284810360c0860152855180825283870192509083019060005b81811015611801578351835292840192918401916001016117e5565b50909c9b505050505050505050505050565b60008083601f84011261182557600080fd5b50813567ffffffffffffffff81111561183d57600080fd5b60208301915083602082850101111561185557600080fd5b9250929050565b60008060008060008060008060a0898b03121561187857600080fd5b61188189611694565b9750602089013567ffffffffffffffff8082111561189e57600080fd5b6118aa8c838d01611813565b909950975060408b01359150808211156118c357600080fd5b6118cf8c838d01611813565b909750955060608b01359150808211156118e857600080fd5b506118f58b828c01611813565b999c989b50969995989497949560800135949350505050565b600080600080600080600060e0888a03121561192957600080fd5b61193288611694565b965061194060208901611694565b95506040880135945060608801359350608088013560ff8116811461196457600080fd5b9699959850939692959460a0840135945060c09093013592915050565b6000806040838503121561199457600080fd5b61199d83611694565b91506119ab60208401611694565b90509250929050565b600181811c908216806119c857607f821691505b6020821081036111bc57634e487b7160e01b600052602260045260246000fd5b8082018082111561045b57634e487b7160e01b600052601160045260246000fd5b634e487b7160e01b600052604160045260246000fd5b601f8211156110b357600081815260208120601f850160051c81016020861015611a465750805b601f850160051c820191505b81811015611a6557828155600101611a52565b505050505050565b67ffffffffffffffff831115611a8557611a85611a09565b611a9983611a9383546119b4565b83611a1f565b6000601f841160018114611acd5760008515611ab55750838201355b600019600387901b1c1916600186901b178355611b27565b600083815260209020601f19861690835b82811015611afe5786850135825560209485019460019092019101611ade565b5086821015611b1b5760001960f88860031b161c19848701351681555b505060018560011b0183555b5050505050565b6020808252602b908201527f496e697469616c697a61626c653a20636f6e7472616374206973206e6f74206960408201526a6e697469616c697a696e6760a81b606082015260800190565b815167ffffffffffffffff811115611b9357611b93611a09565b611ba781611ba184546119b4565b84611a1f565b602080601f831160018114611bdc5760008415611bc45750858301515b600019600386901b1c1916600185901b178555611a65565b600085815260208120601f198616915b82811015611c0b57888601518255948401946001909101908401611bec565b5085821015611c295787850151600019600388901b60f8161c191681555b5050505050600190811b01905550565b634e487b7160e01b600052602160045260246000fdfea164736f6c6343000813000a",
  "devdoc": {
    "events": {
      "Approval(address,address,uint256)": {
        "details": "Emitted when the allowance of a `spender` for an `owner` is set by a call to {approve}. `value` is the new allowance."
      },
      "DepositToAccount(address,bytes32,uint256)": {
        "details": "record the event that transfer coin with a off-chain account, which will be used when someone want to deposit his coin to off-chain game."
      },
      "EIP712DomainChanged()": {
        "details": "MAY be emitted to signal that the domain could have changed."
      },
      "Initialized(uint8)": {
        "details": "Triggered when the contract has been initialized or reinitialized."
      },
      "Transfer(address,address,uint256)": {
        "details": "Emitted when `value` tokens are moved from one account (`from`) to another (`to`). Note that `value` may be zero."
      }
    },
    "kind": "dev",
    "methods": {
      "DOMAIN_SEPARATOR()": {
        "details": "See {IERC20Permit-DOMAIN_SEPARATOR}."
      },
      "acceptOwnership()": {
        "details": "The new owner accepts the ownership transfer."
      },
      "allowance(address,address)": {
        "details": "See {IERC20-allowance}."
      },
      "approve(address,uint256)": {
        "details": "See {IERC20-approve}. NOTE: If `amount` is the maximum `uint256`, the allowance is not updated on `transferFrom`. This is semantically equivalent to an infinite approval. Requirements: - `spender` cannot be the zero address."
      },
      "balanceOf(address)": {
        "details": "See {IERC20-balanceOf}."
      },
      "burn(uint256)": {
        "details": "Destroys `amount` tokens from the caller. See {ERC20-_burn}."
      },
      "burnFrom(address,uint256)": {
        "details": "Destroys `amount` tokens from `account`, deducting from the caller's allowance. See {ERC20-_burn} and {ERC20-allowance}. Requirements: - the caller must have allowance for ``accounts``'s tokens of at least `amount`."
      },
      "decimals()": {
        "details": "Returns the number of decimals used to get its user representation. For example, if `decimals` equals `2`, a balance of `505` tokens should be displayed to a user as `5.05` (`505 / 10 ** 2`). Tokens usually opt for a value of 18, imitating the relationship between Ether and Wei. This is the default value returned by this function, unless it's overridden. NOTE: This information is only used for _display_ purposes: it in no way affects any of the arithmetic of the contract, including {IERC20-balanceOf} and {IERC20-transfer}."
      },
      "decreaseAllowance(address,uint256)": {
        "details": "Atomically decreases the allowance granted to `spender` by the caller. This is an alternative to {approve} that can be used as a mitigation for problems described in {IERC20-approve}. Emits an {Approval} event indicating the updated allowance. Requirements: - `spender` cannot be the zero address. - `spender` must have allowance for the caller of at least `subtractedValue`."
      },
      "depositToAccount(address,uint256,bytes32)": {
        "details": "transfer function for just a basic transfer with an off-chain accountcalled when a user want to deposit his coin from on-chain to off-chain",
        "params": {
          "account": "off-chain account hash",
          "amount": "amount of this transfer",
          "recipient": "address which receive the coin, usually be custodian address"
        }
      },
      "eip712Domain()": {
        "details": "See {EIP-5267}. _Available since v4.9._"
      },
      "gameId()": {
        "details": "Returns the gameId of the token"
      },
      "increaseAllowance(address,uint256)": {
        "details": "Atomically increases the allowance granted to `spender` by the caller. This is an alternative to {approve} that can be used as a mitigation for problems described in {IERC20-approve}. Emits an {Approval} event indicating the updated allowance. Requirements: - `spender` cannot be the zero address."
      },
      "initialize(address,string,string,string,uint256)": {
        "params": {
          "gameId_": "gameId",
          "name_": "game coin name",
          "symbol_": "game coin symbol"
        }
      },
      "mint(address,uint256)": {
        "details": "mint function, the Owner will only be factory contract",
        "params": {
          "amount": "amount of the minting",
          "to": "address which receive newly-minted coin"
        }
      },
      "name()": {
        "details": "Returns the name of the token."
      },
      "nonces(address)": {
        "details": "See {IERC20Permit-nonces}."
      },
      "owner()": {
        "details": "Returns the address of the current owner."
      },
      "pendingOwner()": {
        "details": "Returns the address of the pending owner."
      },
      "permit(address,address,uint256,uint256,uint8,bytes32,bytes32)": {
        "details": "See {IERC20Permit-permit}."
      },
      "renounceOwnership()": {
        "details": "Leaves the contract without owner. It will not be possible to call `onlyOwner` functions. Can only be called by the current owner. NOTE: Renouncing ownership will leave the contract without an owner, thereby disabling any functionality that is only available to the owner."
      },
      "symbol()": {
        "details": "Returns the symbol of the token, usually a shorter version of the name."
      },
      "tokenURI()": {
        "details": "return token uri"
      },
      "totalSupply()": {
        "details": "See {IERC20-totalSupply}."
      },
      "transfer(address,uint256)": {
        "details": "See {IERC20-transfer}. Requirements: - `to` cannot be the zero address. - the caller must have a balance of at least `amount`."
      },
      "transferFrom(address,address,uint256)": {
        "details": "See {IERC20-transferFrom}. Emits an {Approval} event indicating the updated allowance. This is not required by the EIP. See the note at the beginning of {ERC20}. NOTE: Does not update the allowance if the current allowance is the maximum `uint256`. Requirements: - `from` and `to` cannot be the zero address. - `from` must have a balance of at least `amount`. - the caller must have allowance for ``from``'s tokens of at least `amount`."
      },
      "transferOwnership(address)": {
        "details": "Starts the ownership transfer of the contract to a new account. Replaces the pending transfer if there is one. Can only be called by the current owner."
      }
    },
    "stateVariables": {
      "_gameId": {
        "details": "Off-chain game id"
      }
    },
    "version": 1
  },
  "userdoc": {
    "kind": "user",
    "methods": {
      "depositToAccount(address,uint256,bytes32)": {
        "notice": "deposit is valid only when recipient is on-chain custodian address"
      }
    },
    "version": 1
  },
  "storageLayout": {
    "storage": [
      {
        "astId": 714,
        "contract": "src/coinFactory/P12GameCoin.sol:P12GameCoin",
        "label": "_initialized",
        "offset": 0,
        "slot": "0",
        "type": "t_uint8"
      },
      {
        "astId": 717,
        "contract": "src/coinFactory/P12GameCoin.sol:P12GameCoin",
        "label": "_initializing",
        "offset": 1,
        "slot": "0",
        "type": "t_bool"
      },
      {
        "astId": 2979,
        "contract": "src/coinFactory/P12GameCoin.sol:P12GameCoin",
        "label": "__gap",
        "offset": 0,
        "slot": "1",
        "type": "t_array(t_uint256)50_storage"
      },
      {
        "astId": 1242,
        "contract": "src/coinFactory/P12GameCoin.sol:P12GameCoin",
        "label": "_balances",
        "offset": 0,
        "slot": "51",
        "type": "t_mapping(t_address,t_uint256)"
      },
      {
        "astId": 1248,
        "contract": "src/coinFactory/P12GameCoin.sol:P12GameCoin",
        "label": "_allowances",
        "offset": 0,
        "slot": "52",
        "type": "t_mapping(t_address,t_mapping(t_address,t_uint256))"
      },
      {
        "astId": 1250,
        "contract": "src/coinFactory/P12GameCoin.sol:P12GameCoin",
        "label": "_totalSupply",
        "offset": 0,
        "slot": "53",
        "type": "t_uint256"
      },
      {
        "astId": 1252,
        "contract": "src/coinFactory/P12GameCoin.sol:P12GameCoin",
        "label": "_name",
        "offset": 0,
        "slot": "54",
        "type": "t_string_storage"
      },
      {
        "astId": 1254,
        "contract": "src/coinFactory/P12GameCoin.sol:P12GameCoin",
        "label": "_symbol",
        "offset": 0,
        "slot": "55",
        "type": "t_string_storage"
      },
      {
        "astId": 1834,
        "contract": "src/coinFactory/P12GameCoin.sol:P12GameCoin",
        "label": "__gap",
        "offset": 0,
        "slot": "56",
        "type": "t_array(t_uint256)45_storage"
      },
      {
        "astId": 3777,
        "contract": "src/coinFactory/P12GameCoin.sol:P12GameCoin",
        "label": "_hashedName",
        "offset": 0,
        "slot": "101",
        "type": "t_bytes32"
      },
      {
        "astId": 3780,
        "contract": "src/coinFactory/P12GameCoin.sol:P12GameCoin",
        "label": "_hashedVersion",
        "offset": 0,
        "slot": "102",
        "type": "t_bytes32"
      },
      {
        "astId": 3782,
        "contract": "src/coinFactory/P12GameCoin.sol:P12GameCoin",
        "label": "_name",
        "offset": 0,
        "slot": "103",
        "type": "t_string_storage"
      },
      {
        "astId": 3784,
        "contract": "src/coinFactory/P12GameCoin.sol:P12GameCoin",
        "label": "_version",
        "offset": 0,
        "slot": "104",
        "type": "t_string_storage"
      },
      {
        "astId": 4042,
        "contract": "src/coinFactory/P12GameCoin.sol:P12GameCoin",
        "label": "__gap",
        "offset": 0,
        "slot": "105",
        "type": "t_array(t_uint256)48_storage"
      },
      {
        "astId": 2003,
        "contract": "src/coinFactory/P12GameCoin.sol:P12GameCoin",
        "label": "_nonces",
        "offset": 0,
        "slot": "153",
        "type": "t_mapping(t_address,t_struct(Counter)2986_storage)"
      },
      {
        "astId": 2011,
        "contract": "src/coinFactory/P12GameCoin.sol:P12GameCoin",
        "label": "_PERMIT_TYPEHASH_DEPRECATED_SLOT",
        "offset": 0,
        "slot": "154",
        "type": "t_bytes32"
      },
      {
        "astId": 2167,
        "contract": "src/coinFactory/P12GameCoin.sol:P12GameCoin",
        "label": "__gap",
        "offset": 0,
        "slot": "155",
        "type": "t_array(t_uint256)49_storage"
      },
      {
        "astId": 1976,
        "contract": "src/coinFactory/P12GameCoin.sol:P12GameCoin",
        "label": "__gap",
        "offset": 0,
        "slot": "204",
        "type": "t_array(t_uint256)50_storage"
      },
      {
        "astId": 116,
        "contract": "src/coinFactory/P12GameCoin.sol:P12GameCoin",
        "label": "_owner",
        "offset": 0,
        "slot": "254",
        "type": "t_address"
      },
      {
        "astId": 236,
        "contract": "src/coinFactory/P12GameCoin.sol:P12GameCoin",
        "label": "__gap",
        "offset": 0,
        "slot": "255",
        "type": "t_array(t_uint256)49_storage"
      },
      {
        "astId": 25,
        "contract": "src/coinFactory/P12GameCoin.sol:P12GameCoin",
        "label": "_pendingOwner",
        "offset": 0,
        "slot": "304",
        "type": "t_address"
      },
      {
        "astId": 104,
        "contract": "src/coinFactory/P12GameCoin.sol:P12GameCoin",
        "label": "__gap",
        "offset": 0,
        "slot": "305",
        "type": "t_array(t_uint256)49_storage"
      },
      {
        "astId": 15100,
        "contract": "src/coinFactory/P12GameCoin.sol:P12GameCoin",
        "label": "_gameId",
        "offset": 0,
        "slot": "354",
        "type": "t_uint256"
      },
      {
        "astId": 15102,
        "contract": "src/coinFactory/P12GameCoin.sol:P12GameCoin",
        "label": "_uri",
        "offset": 0,
        "slot": "355",
        "type": "t_string_storage"
      }
    ],
    "types": {
      "t_address": {
        "encoding": "inplace",
        "label": "address",
        "numberOfBytes": "20"
      },
      "t_array(t_uint256)45_storage": {
        "base": "t_uint256",
        "encoding": "inplace",
        "label": "uint256[45]",
        "numberOfBytes": "1440"
      },
      "t_array(t_uint256)48_storage": {
        "base": "t_uint256",
        "encoding": "inplace",
        "label": "uint256[48]",
        "numberOfBytes": "1536"
      },
      "t_array(t_uint256)49_storage": {
        "base": "t_uint256",
        "encoding": "inplace",
        "label": "uint256[49]",
        "numberOfBytes": "1568"
      },
      "t_array(t_uint256)50_storage": {
        "base": "t_uint256",
        "encoding": "inplace",
        "label": "uint256[50]",
        "numberOfBytes": "1600"
      },
      "t_bool": {
        "encoding": "inplace",
        "label": "bool",
        "numberOfBytes": "1"
      },
      "t_bytes32": {
        "encoding": "inplace",
        "label": "bytes32",
        "numberOfBytes": "32"
      },
      "t_mapping(t_address,t_mapping(t_address,t_uint256))": {
        "encoding": "mapping",
        "key": "t_address",
        "label": "mapping(address => mapping(address => uint256))",
        "numberOfBytes": "32",
        "value": "t_mapping(t_address,t_uint256)"
      },
      "t_mapping(t_address,t_struct(Counter)2986_storage)": {
        "encoding": "mapping",
        "key": "t_address",
        "label": "mapping(address => struct CountersUpgradeable.Counter)",
        "numberOfBytes": "32",
        "value": "t_struct(Counter)2986_storage"
      },
      "t_mapping(t_address,t_uint256)": {
        "encoding": "mapping",
        "key": "t_address",
        "label": "mapping(address => uint256)",
        "numberOfBytes": "32",
        "value": "t_uint256"
      },
      "t_string_storage": {
        "encoding": "bytes",
        "label": "string",
        "numberOfBytes": "32"
      },
      "t_struct(Counter)2986_storage": {
        "encoding": "inplace",
        "label": "struct CountersUpgradeable.Counter",
        "members": [
          {
            "astId": 2985,
            "contract": "src/coinFactory/P12GameCoin.sol:P12GameCoin",
            "label": "_value",
            "offset": 0,
            "slot": "0",
            "type": "t_uint256"
          }
        ],
        "numberOfBytes": "32"
      },
      "t_uint256": {
        "encoding": "inplace",
        "label": "uint256",
        "numberOfBytes": "32"
      },
      "t_uint8": {
        "encoding": "inplace",
        "label": "uint8",
        "numberOfBytes": "1"
      }
    }
  }
}