{
  "address": "0x89DcDEA0670241be0E540E08C0727E147D81cecC",
  "abi": [
    {
      "inputs": [
        {
          "internalType": "address",
          "name": "owner_",
          "type": "address"
        },
        {
          "internalType": "string",
          "name": "name_",
          "type": "string"
        },
        {
          "internalType": "string",
          "name": "symbol_",
          "type": "string"
        }
      ],
      "stateMutability": "nonpayable",
      "type": "constructor"
    },
    {
      "inputs": [],
      "name": "AccountBalanceOverflow",
      "type": "error"
    },
    {
      "inputs": [],
      "name": "BalanceQueryForZeroAddress",
      "type": "error"
    },
    {
      "inputs": [],
      "name": "NewOwnerIsZeroAddress",
      "type": "error"
    },
    {
      "inputs": [],
      "name": "NoHandoverRequest",
      "type": "error"
    },
    {
      "inputs": [],
      "name": "NotOwnerNorApproved",
      "type": "error"
    },
    {
      "inputs": [],
      "name": "TokenAlreadyExists",
      "type": "error"
    },
    {
      "inputs": [],
      "name": "TokenDoesNotExist",
      "type": "error"
    },
    {
      "inputs": [],
      "name": "TransferFromIncorrectOwner",
      "type": "error"
    },
    {
      "inputs": [],
      "name": "TransferToNonERC721ReceiverImplementer",
      "type": "error"
    },
    {
      "inputs": [],
      "name": "TransferToZeroAddress",
      "type": "error"
    },
    {
      "inputs": [],
      "name": "Unauthorized",
      "type": "error"
    },
    {
      "anonymous": false,
      "inputs": [
        {
          "indexed": true,
          "internalType": "address",
          "name": "owner",
          "type": "address"
        },
        {
          "indexed": true,
          "internalType": "address",
          "name": "account",
          "type": "address"
        },
        {
          "indexed": true,
          "internalType": "uint256",
          "name": "id",
          "type": "uint256"
        }
      ],
      "name": "Approval",
      "type": "event"
    },
    {
      "anonymous": false,
      "inputs": [
        {
          "indexed": true,
          "internalType": "address",
          "name": "owner",
          "type": "address"
        },
        {
          "indexed": true,
          "internalType": "address",
          "name": "operator",
          "type": "address"
        },
        {
          "indexed": false,
          "internalType": "bool",
          "name": "isApproved",
          "type": "bool"
        }
      ],
      "name": "ApprovalForAll",
      "type": "event"
    },
    {
      "anonymous": false,
      "inputs": [
        {
          "indexed": true,
          "internalType": "address",
          "name": "pendingOwner",
          "type": "address"
        }
      ],
      "name": "OwnershipHandoverCanceled",
      "type": "event"
    },
    {
      "anonymous": false,
      "inputs": [
        {
          "indexed": true,
          "internalType": "address",
          "name": "pendingOwner",
          "type": "address"
        }
      ],
      "name": "OwnershipHandoverRequested",
      "type": "event"
    },
    {
      "anonymous": false,
      "inputs": [
        {
          "indexed": true,
          "internalType": "address",
          "name": "oldOwner",
          "type": "address"
        },
        {
          "indexed": true,
          "internalType": "address",
          "name": "newOwner",
          "type": "address"
        }
      ],
      "name": "OwnershipTransferred",
      "type": "event"
    },
    {
      "anonymous": false,
      "inputs": [
        {
          "indexed": true,
          "internalType": "address",
          "name": "from",
          "type": "address"
        },
        {
          "indexed": true,
          "internalType": "address",
          "name": "to",
          "type": "address"
        },
        {
          "indexed": true,
          "internalType": "uint256",
          "name": "id",
          "type": "uint256"
        }
      ],
      "name": "Transfer",
      "type": "event"
    },
    {
      "inputs": [
        {
          "internalType": "address",
          "name": "account",
          "type": "address"
        },
        {
          "internalType": "uint256",
          "name": "id",
          "type": "uint256"
        }
      ],
      "name": "approve",
      "outputs": [],
      "stateMutability": "payable",
      "type": "function"
    },
    {
      "inputs": [
        {
          "internalType": "address",
          "name": "owner",
          "type": "address"
        }
      ],
      "name": "balanceOf",
      "outputs": [
        {
          "internalType": "uint256",
          "name": "result",
          "type": "uint256"
        }
      ],
      "stateMutability": "view",
      "type": "function"
    },
    {
      "inputs": [],
      "name": "baseUri",
      "outputs": [
        {
          "internalType": "string",
          "name": "",
          "type": "string"
        }
      ],
      "stateMutability": "view",
      "type": "function"
    },
    {
      "inputs": [],
      "name": "cancelOwnershipHandover",
      "outputs": [],
      "stateMutability": "payable",
      "type": "function"
    },
    {
      "inputs": [
        {
          "internalType": "address",
          "name": "user",
          "type": "address"
        }
      ],
      "name": "checkIfMinted",
      "outputs": [
        {
          "internalType": "bool",
          "name": "",
          "type": "bool"
        }
      ],
      "stateMutability": "view",
      "type": "function"
    },
    {
      "inputs": [
        {
          "internalType": "address",
          "name": "pendingOwner",
          "type": "address"
        }
      ],
      "name": "completeOwnershipHandover",
      "outputs": [],
      "stateMutability": "payable",
      "type": "function"
    },
    {
      "inputs": [],
      "name": "eip712Domain",
      "outputs": [
        {
          "internalType": "bytes1",
          "name": "fields",
          "type": "bytes1"
        },
        {
          "internalType": "string",
          "name": "name",
          "type": "string"
        },
        {
          "internalType": "string",
          "name": "version",
          "type": "string"
        },
        {
          "internalType": "uint256",
          "name": "chainId",
          "type": "uint256"
        },
        {
          "internalType": "address",
          "name": "verifyingContract",
          "type": "address"
        },
        {
          "internalType": "bytes32",
          "name": "salt",
          "type": "bytes32"
        },
        {
          "internalType": "uint256[]",
          "name": "extensions",
          "type": "uint256[]"
        }
      ],
      "stateMutability": "view",
      "type": "function"
    },
    {
      "inputs": [
        {
          "internalType": "uint256",
          "name": "id",
          "type": "uint256"
        }
      ],
      "name": "getApproved",
      "outputs": [
        {
          "internalType": "address",
          "name": "result",
          "type": "address"
        }
      ],
      "stateMutability": "view",
      "type": "function"
    },
    {
      "inputs": [
        {
          "internalType": "address",
          "name": "owner",
          "type": "address"
        },
        {
          "internalType": "address",
          "name": "operator",
          "type": "address"
        }
      ],
      "name": "isApprovedForAll",
      "outputs": [
        {
          "internalType": "bool",
          "name": "result",
          "type": "bool"
        }
      ],
      "stateMutability": "view",
      "type": "function"
    },
    {
      "inputs": [],
      "name": "name",
      "outputs": [
        {
          "internalType": "string",
          "name": "",
          "type": "string"
        }
      ],
      "stateMutability": "view",
      "type": "function"
    },
    {
      "inputs": [],
      "name": "owner",
      "outputs": [
        {
          "internalType": "address",
          "name": "result",
          "type": "address"
        }
      ],
      "stateMutability": "view",
      "type": "function"
    },
    {
      "inputs": [
        {
          "internalType": "uint256",
          "name": "id",
          "type": "uint256"
        }
      ],
      "name": "ownerOf",
      "outputs": [
        {
          "internalType": "address",
          "name": "result",
          "type": "address"
        }
      ],
      "stateMutability": "view",
      "type": "function"
    },
    {
      "inputs": [
        {
          "internalType": "address",
          "name": "pendingOwner",
          "type": "address"
        }
      ],
      "name": "ownershipHandoverExpiresAt",
      "outputs": [
        {
          "internalType": "uint256",
          "name": "result",
          "type": "uint256"
        }
      ],
      "stateMutability": "view",
      "type": "function"
    },
    {
      "inputs": [],
      "name": "renounceOwnership",
      "outputs": [],
      "stateMutability": "payable",
      "type": "function"
    },
    {
      "inputs": [],
      "name": "requestOwnershipHandover",
      "outputs": [],
      "stateMutability": "payable",
      "type": "function"
    },
    {
      "inputs": [
        {
          "internalType": "address",
          "name": "from",
          "type": "address"
        },
        {
          "internalType": "address",
          "name": "to",
          "type": "address"
        },
        {
          "internalType": "uint256",
          "name": "id",
          "type": "uint256"
        }
      ],
      "name": "safeTransferFrom",
      "outputs": [],
      "stateMutability": "payable",
      "type": "function"
    },
    {
      "inputs": [
        {
          "internalType": "address",
          "name": "from",
          "type": "address"
        },
        {
          "internalType": "address",
          "name": "to",
          "type": "address"
        },
        {
          "internalType": "uint256",
          "name": "id",
          "type": "uint256"
        },
        {
          "internalType": "bytes",
          "name": "data",
          "type": "bytes"
        }
      ],
      "name": "safeTransferFrom",
      "outputs": [],
      "stateMutability": "payable",
      "type": "function"
    },
    {
      "inputs": [
        {
          "internalType": "address",
          "name": "operator",
          "type": "address"
        },
        {
          "internalType": "bool",
          "name": "isApproved",
          "type": "bool"
        }
      ],
      "name": "setApprovalForAll",
      "outputs": [],
      "stateMutability": "nonpayable",
      "type": "function"
    },
    {
      "inputs": [
        {
          "internalType": "string",
          "name": "uri_",
          "type": "string"
        }
      ],
      "name": "setBaseUri",
      "outputs": [],
      "stateMutability": "nonpayable",
      "type": "function"
    },
    {
      "inputs": [
        {
          "internalType": "bytes4",
          "name": "interfaceId",
          "type": "bytes4"
        }
      ],
      "name": "supportsInterface",
      "outputs": [
        {
          "internalType": "bool",
          "name": "result",
          "type": "bool"
        }
      ],
      "stateMutability": "view",
      "type": "function"
    },
    {
      "inputs": [],
      "name": "symbol",
      "outputs": [
        {
          "internalType": "string",
          "name": "",
          "type": "string"
        }
      ],
      "stateMutability": "view",
      "type": "function"
    },
    {
      "inputs": [
        {
          "internalType": "uint256",
          "name": "tokenId",
          "type": "uint256"
        }
      ],
      "name": "tokenURI",
      "outputs": [
        {
          "internalType": "string",
          "name": "",
          "type": "string"
        }
      ],
      "stateMutability": "view",
      "type": "function"
    },
    {
      "inputs": [
        {
          "internalType": "address",
          "name": "from",
          "type": "address"
        },
        {
          "internalType": "address",
          "name": "to",
          "type": "address"
        },
        {
          "internalType": "uint256",
          "name": "id",
          "type": "uint256"
        }
      ],
      "name": "transferFrom",
      "outputs": [],
      "stateMutability": "payable",
      "type": "function"
    },
    {
      "inputs": [
        {
          "internalType": "address",
          "name": "newOwner",
          "type": "address"
        }
      ],
      "name": "transferOwnership",
      "outputs": [],
      "stateMutability": "payable",
      "type": "function"
    },
    {
      "inputs": [
        {
          "internalType": "uint256",
          "name": "deadline",
          "type": "uint256"
        },
        {
          "internalType": "bytes32",
          "name": "r",
          "type": "bytes32"
        },
        {
          "internalType": "bytes32",
          "name": "vs",
          "type": "bytes32"
        }
      ],
      "name": "whitelistMint",
      "outputs": [],
      "stateMutability": "nonpayable",
      "type": "function"
    }
  ],
  "transactionHash": "0x9b1dccf46f1e002d034e3e346eaa56eb6f0e6ac53a2f97454147e1644d6f5125",
  "args": [
    "0xBa1d495D8cfcad60d56442F1f1a9917ddE0e3231",
    "P12 Badge",
    "P12B"
  ],
  "numDeployments": 1,
  "solcInputHash": "7fc729b3fa7f417c9989c12d8fb3dc10",
  "bytecode": "0x6101206040527f9058cb3aae390ce966f8aaaa7d62aded985e19e89571bc591012365f2006b7686003553480156200003657600080fd5b506040516200196738038062001967833981016040819052620000599162000239565b306080524660a052600080620000a060408051808201825260068152651bd85bd3919560d21b602080830191909152825180840190935260018352603160f81b9083015291565b815160209283012081519183019190912060c082905260e0819052604080517f8b73c3c69bb8fe3d512ecc4cf759cc79239f7b179b0ffacaa9a75d522b39400f8152938401929092529082015246606082015230608082015260a0902061010052506000905062000112838262000352565b50600162000121828262000352565b506200012d8362000136565b5050506200041e565b638b78c6d81980546001600160a01b039092169182907f8be0079c531659141344cd1fd0a4f28419497f9722a3daafe3b4186f6b6457e0600080a355565b634e487b7160e01b600052604160045260246000fd5b600082601f8301126200019c57600080fd5b81516001600160401b0380821115620001b957620001b962000174565b604051601f8301601f19908116603f01168101908282118183101715620001e457620001e462000174565b816040528381526020925086838588010111156200020157600080fd5b600091505b8382101562000225578582018301518183018401529082019062000206565b600093810190920192909252949350505050565b6000806000606084860312156200024f57600080fd5b83516001600160a01b03811681146200026757600080fd5b60208501519093506001600160401b03808211156200028557600080fd5b62000293878388016200018a565b93506040860151915080821115620002aa57600080fd5b50620002b9868287016200018a565b9150509250925092565b600181811c90821680620002d857607f821691505b602082108103620002f957634e487b7160e01b600052602260045260246000fd5b50919050565b601f8211156200034d57600081815260208120601f850160051c81016020861015620003285750805b601f850160051c820191505b81811015620003495782815560010162000334565b5050505b505050565b81516001600160401b038111156200036e576200036e62000174565b62000386816200037f8454620002c3565b84620002ff565b602080601f831160018114620003be5760008415620003a55750858301515b600019600386901b1c1916600185901b17855562000349565b600085815260208120601f198616915b82811015620003ef57888601518255948401946001909101908401620003ce565b50858210156200040e5787850151600019600388901b60f8161c191681555b5050505050600190811b01905550565b60805160a05160c05160e05161010051611504620004636000396000610c3d01526000610cf701526000610cd101526000610c8101526000610c5e01526115046000f3fe6080604052600436106101665760003560e01c806384b0196e116100d1578063b88d4fde1161008a578063e985e9c511610064578063e985e9c5146103d6578063f04e283e1461040c578063f2fde38b1461041f578063fee81cf41461043257600080fd5b8063b88d4fde14610383578063c633e8dc14610396578063c87b56dd146103b657600080fd5b806384b0196e146102d85780638da5cb5b1461030057806395d89b41146103195780639abc83201461032e578063a0bcfc7f14610343578063a22cb4651461036357600080fd5b80632960e0c7116101235780632960e0c71461024757806342842e0e1461026757806354d1f13d1461027a5780636352211e1461028257806370a08231146102a2578063715018a6146102d057600080fd5b806301ffc9a71461016b57806306fdde03146101bd578063081812fc146101df578063095ea7b31461021757806323b872dd1461022c578063256929621461023f575b600080fd5b34801561017757600080fd5b506101a8610186366004610fa1565b6301ffc9a760e09190911c9081146380ac58cd821417635b5e139f9091141790565b60405190151581526020015b60405180910390f35b3480156101c957600080fd5b506101d2610465565b6040516101b4919061101b565b3480156101eb57600080fd5b506101ff6101fa36600461102e565b6104f7565b6040516001600160a01b0390911681526020016101b4565b61022a61022536600461105e565b61053a565b005b61022a61023a366004611088565b610549565b61022a610660565b34801561025357600080fd5b5061022a6102623660046110c4565b6106b0565b61022a610275366004611088565b6107ff565b61022a61082c565b34801561028e57600080fd5b506101ff61029d36600461102e565b610868565b3480156102ae57600080fd5b506102c26102bd3660046110f0565b6108a6565b6040519081526020016101b4565b61022a6108e1565b3480156102e457600080fd5b506102ed6108f5565b6040516101b4979695949392919061110b565b34801561030c57600080fd5b50638b78c6d819546101ff565b34801561032557600080fd5b506101d261094f565b34801561033a57600080fd5b506101d261095e565b34801561034f57600080fd5b5061022a61035e3660046111ea565b6109ec565b34801561036f57600080fd5b5061022a61037e36600461122c565b6109f9565b61022a610391366004611268565b610a4f565b3480156103a257600080fd5b506101a86103b13660046110f0565b610aaa565b3480156103c257600080fd5b506101d26103d136600461102e565b610afd565b3480156103e257600080fd5b506101a86103f13660046112d7565b601c52670a5a2e7a000000006008526000526030600c205490565b61022a61041a3660046110f0565b610b31565b61022a61042d3660046110f0565b610b71565b34801561043e57600080fd5b506102c261044d3660046110f0565b63389a75e1600c908152600091909152602090205490565b6060600080546104749061130a565b80601f01602080910402602001604051908101604052809291908181526020018280546104a09061130a565b80156104ed5780601f106104c2576101008083540402835291602001916104ed565b820191906000526020600020905b8154815290600101906020018083116104d057829003601f168201915b5050505050905090565b6000818152673ec412a9852d173d60c11b601c52602081208201820180546001600160a01b03166105305763ceea21b66000526004601cfd5b6001015492915050565b610545338383610b98565b5050565b6000818152673ec412a9852d173d60c11b3317601c52602090208101810180546001600160a01b0394851694938416938116919082861483026105a757826105995763ceea21b66000526004601cfd5b63a11481006000526004601cfd5b846105ba5763ea553b346000526004601cfd5b8560005281600101549250823314863314176105e8576030600c20546105e857634b6e7f186000526004601cfd5b82156105f657600082600101555b85851818905550601c600c8181208054600019019055600084905220805460010163ffffffff8116610630576301336cea6000526004601cfd5b90558082847fddf252ad1be2c89b69c2b068fc378daa952ba7f163c4a11628f55a4df523b3ef600080a45b505050565b60006202a30067ffffffffffffffff164201905063389a75e1600c5233600052806020600c2055337fdbf36a107da19e49527a7176a1babf963b4b0ff8cde35ee35d6cd8f1f9ac7e1d600080a250565b6003546040805160208101929092523390820152606081018490526000906106f09060800160405160208183030381529060405280519060200120610c39565b905060006106ff828585610d54565b6001600160a01b03811660009081526004602052604090205490915060ff166107605760405162461bcd60e51b815260206004820152600e60248201526d34b73b30b634b21039b4b3b732b960911b60448201526064015b60405180910390fd5b60408051336020820152600091016040516020818303038152906040528051906020012060001c90506107af816000818152673ec412a9852d173d60c11b601c52602090208101015460601b90565b156107ed5760405162461bcd60e51b815260206004820152600e60248201526d185b1c9958591e481b5a5b9d195960921b6044820152606401610757565b6107f73382610dcc565b505050505050565b61080a838383610549565b813b1561065b5761065b83838360405180602001604052806000815250610e7a565b63389a75e1600c523360005260006020600c2055337ffa7b8eab7da67f412cc9575ed43464468f9bfbae89d1675917346ca6d8fe3c92600080a2565b6000818152673ec412a9852d173d60c11b601c526020902081018101546001600160a01b0316806108a15763ceea21b66000526004601cfd5b919050565b6000816108bb57638f4eb6046000526004601cfd5b673ec412a9852d173d60c11b601c528160005263ffffffff601c600c2054169050919050565b6108e9610f04565b6108f36000610f1f565b565b600f60f81b606080600080808361093d60408051808201825260068152651bd85bd3919560d21b602080830191909152825180840190935260018352603160f81b9083015291565b97989097965046955030945091925090565b6060600180546104749061130a565b6002805461096b9061130a565b80601f01602080910402602001604051908101604052809291908181526020018280546109979061130a565b80156109e45780601f106109b9576101008083540402835291602001916109e4565b820191906000526020600020905b8154815290600101906020018083116109c757829003601f168201915b505050505081565b600261065b8284836113a0565b801515905081601c52670a5a2e7a0000000060085233600052806030600c2055806000528160601b60601c337f17307eab39ab6107e8899845ad3d59bd9653f200f220920489ca2b5937696c3160206000a35050565b610a5a858585610549565b833b15610aa357610aa385858585858080601f016020809104026020016040519081016040528093929190818152602001838380828437600092019190915250610e7a92505050565b5050505050565b604080516001600160a01b0383166020808301919091528251808303820181529183019092528051908201206000818152673ec412a9852d173d60c11b601c52918220810181015460601b5b9392505050565b60606002610b0a83610f5d565b604051602001610b1b929190611460565b6040516020818303038152906040529050919050565b610b39610f04565b63389a75e1600c52806000526020600c208054421115610b6157636f5e88186000526004601cfd5b60009055610b6e81610f1f565b50565b610b79610f04565b8060601b610b8f57637448fbae6000526004601cfd5b610b6e81610f1f565b60001960601c828116925083811693508160005283673ec412a9852d173d60c11b17601c5260206000208201820180548216915081610bdf5763ceea21b66000526004601cfd5b818514851517610c0557816000526030600c2054610c0557634b6e7f186000526004601cfd5b6001018390558183827f8c5be1e5ebec7d5bd14f71427d1e84f3dd0314c0f7b2291e5b200ac8c7c3b925600080a450505050565b60007f00000000000000000000000000000000000000000000000000000000000000007f000000000000000000000000000000000000000000000000000000000000000030147f0000000000000000000000000000000000000000000000000000000000000000461416610d2e5750604080517f8b73c3c69bb8fe3d512ecc4cf759cc79239f7b179b0ffacaa9a75d522b39400f81527f000000000000000000000000000000000000000000000000000000000000000060208201527f00000000000000000000000000000000000000000000000000000000000000009181019190915246606082015230608082015260a090205b67190100000000000060005280601a5282603a52604260182091506000603a5250919050565b600060405184600052601b8360ff1c01602052836040528260011b60011c60605260206000608060007f7fffffffffffffffffffffffffffffff5d576e7357a4501ddfe92f46681b20a1606051105afa5060005191503d610dbd57638baa579f6000526004601cfd5b60006060526040529392505050565b6001600160a01b039091169081610deb5763ea553b346000526004601cfd5b80600052673ec412a9852d173d60c11b601c5260206000208101810180548060601b15610e205763c991cbb16000526004601cfd5b831790556000829052601c600c20805460010163ffffffff8116610e4c576301336cea6000526004601cfd5b9055808260007fddf252ad1be2c89b69c2b068fc378daa952ba7f163c4a11628f55a4df523b3ef8180a45050565b60405163150b7a028082523360208301528560601b60601c604083015283606083015260808083015282518060a08401528015610ec1578060c08401826020870160045afa505b60208360a48301601c860160008a5af1610eea573d15610ee5573d6000803e3d6000fd5b600083525b508060e01b8251146107f75763d1a57ed66000526004601cfd5b638b78c6d8195433146108f3576382b429006000526004601cfd5b638b78c6d81980546001600160a01b039092169182907f8be0079c531659141344cd1fd0a4f28419497f9722a3daafe3b4186f6b6457e0600080a355565b60606080604051019050602081016040526000815280600019835b928101926030600a8206018453600a900480610f78575050819003601f19909101908152919050565b600060208284031215610fb357600080fd5b81356001600160e01b031981168114610af657600080fd5b60005b83811015610fe6578181015183820152602001610fce565b50506000910152565b60008151808452611007816020860160208601610fcb565b601f01601f19169290920160200192915050565b602081526000610af66020830184610fef565b60006020828403121561104057600080fd5b5035919050565b80356001600160a01b03811681146108a157600080fd5b6000806040838503121561107157600080fd5b61107a83611047565b946020939093013593505050565b60008060006060848603121561109d57600080fd5b6110a684611047565b92506110b460208501611047565b9150604084013590509250925092565b6000806000606084860312156110d957600080fd5b505081359360208301359350604090920135919050565b60006020828403121561110257600080fd5b610af682611047565b60ff60f81b881681526000602060e08184015261112b60e084018a610fef565b838103604085015261113d818a610fef565b606085018990526001600160a01b038816608086015260a0850187905284810360c0860152855180825283870192509083019060005b8181101561118f57835183529284019291840191600101611173565b50909c9b505050505050505050505050565b60008083601f8401126111b357600080fd5b50813567ffffffffffffffff8111156111cb57600080fd5b6020830191508360208285010111156111e357600080fd5b9250929050565b600080602083850312156111fd57600080fd5b823567ffffffffffffffff81111561121457600080fd5b611220858286016111a1565b90969095509350505050565b6000806040838503121561123f57600080fd5b61124883611047565b91506020830135801515811461125d57600080fd5b809150509250929050565b60008060008060006080868803121561128057600080fd5b61128986611047565b945061129760208701611047565b935060408601359250606086013567ffffffffffffffff8111156112ba57600080fd5b6112c6888289016111a1565b969995985093965092949392505050565b600080604083850312156112ea57600080fd5b6112f383611047565b915061130160208401611047565b90509250929050565b600181811c9082168061131e57607f821691505b60208210810361133e57634e487b7160e01b600052602260045260246000fd5b50919050565b634e487b7160e01b600052604160045260246000fd5b601f82111561065b57600081815260208120601f850160051c810160208610156113815750805b601f850160051c820191505b818110156107f75782815560010161138d565b67ffffffffffffffff8311156113b8576113b8611344565b6113cc836113c6835461130a565b8361135a565b6000601f84116001811461140057600085156113e85750838201355b600019600387901b1c1916600186901b178355610aa3565b600083815260209020601f19861690835b828110156114315786850135825560209485019460019092019101611411565b508682101561144e5760001960f88860031b161c19848701351681555b505060018560011b0183555050505050565b600080845461146e8161130a565b60018281168015611486576001811461149b576114ca565b60ff19841687528215158302870194506114ca565b8860005260208060002060005b858110156114c15781548a8201529084019082016114a8565b50505082870194505b5050505083516114de818360208801610fcb565b64173539b7b760d91b910190815260050194935050505056fea164736f6c6343000813000a",
  "devdoc": {
    "errors": {
      "AccountBalanceOverflow()": [
        {
          "details": "The recipient's balance has overflowed."
        }
      ],
      "BalanceQueryForZeroAddress()": [
        {
          "details": "Cannot query the balance for the zero address."
        }
      ],
      "NewOwnerIsZeroAddress()": [
        {
          "details": "The `newOwner` cannot be the zero address."
        }
      ],
      "NoHandoverRequest()": [
        {
          "details": "The `pendingOwner` does not have a valid handover request."
        }
      ],
      "NotOwnerNorApproved()": [
        {
          "details": "Only the token owner or an approved account can manage the token."
        }
      ],
      "TokenAlreadyExists()": [
        {
          "details": "The token already exists."
        }
      ],
      "TokenDoesNotExist()": [
        {
          "details": "The token does not exist."
        }
      ],
      "TransferFromIncorrectOwner()": [
        {
          "details": "The token must be owned by `from`."
        }
      ],
      "TransferToNonERC721ReceiverImplementer()": [
        {
          "details": "Cannot safely transfer to a contract that does not implement the ERC721Receiver interface."
        }
      ],
      "TransferToZeroAddress()": [
        {
          "details": "Cannot mint or transfer to the zero address."
        }
      ],
      "Unauthorized()": [
        {
          "details": "The caller is not authorized to call the function."
        }
      ]
    },
    "events": {
      "Approval(address,address,uint256)": {
        "details": "Emitted when `owner` enables `account` to manage the `id` token."
      },
      "ApprovalForAll(address,address,bool)": {
        "details": "Emitted when `owner` enables or disables `operator` to manage all of their tokens."
      },
      "OwnershipHandoverCanceled(address)": {
        "details": "The ownership handover to `pendingOwner` has been canceled."
      },
      "OwnershipHandoverRequested(address)": {
        "details": "An ownership handover to `pendingOwner` has been requested."
      },
      "OwnershipTransferred(address,address)": {
        "details": "The ownership is transferred from `oldOwner` to `newOwner`. This event is intentionally kept the same as OpenZeppelin's Ownable to be compatible with indexers and [EIP-173](https://eips.ethereum.org/EIPS/eip-173), despite it not being as lightweight as a single argument event."
      },
      "Transfer(address,address,uint256)": {
        "details": "Emitted when token `id` is transferred from `from` to `to`."
      }
    },
    "kind": "dev",
    "methods": {
      "approve(address,uint256)": {
        "details": "Sets `account` as the approved account to manage token `id`. Requirements: - Token `id` must exist. - The caller must be the owner of the token,   or an approved operator for the token owner. Emits an {Approval} event."
      },
      "balanceOf(address)": {
        "details": "Returns the number of tokens owned by `owner`. Requirements: - `owner` must not be the zero address."
      },
      "cancelOwnershipHandover()": {
        "details": "Cancels the two-step ownership handover to the caller, if any."
      },
      "completeOwnershipHandover(address)": {
        "details": "Allows the owner to complete the two-step ownership handover to `pendingOwner`. Reverts if there is no existing ownership handover requested by `pendingOwner`."
      },
      "eip712Domain()": {
        "details": "See: https://eips.ethereum.org/EIPS/eip-5267"
      },
      "getApproved(uint256)": {
        "details": "Returns the account approved to manage token `id`. Requirements: - Token `id` must exist."
      },
      "isApprovedForAll(address,address)": {
        "details": "Returns whether `operator` is approved to manage the tokens of `owner`."
      },
      "name()": {
        "details": "Returns the token collection name."
      },
      "owner()": {
        "details": "Returns the owner of the contract."
      },
      "ownerOf(uint256)": {
        "details": "Returns the owner of token `id`. Requirements: - Token `id` must exist."
      },
      "ownershipHandoverExpiresAt(address)": {
        "details": "Returns the expiry timestamp for the two-step ownership handover to `pendingOwner`."
      },
      "renounceOwnership()": {
        "details": "Allows the owner to renounce their ownership."
      },
      "requestOwnershipHandover()": {
        "details": "Request a two-step ownership handover to the caller. The request will automatically expire in 48 hours (172800 seconds) by default."
      },
      "safeTransferFrom(address,address,uint256)": {
        "details": "Equivalent to `safeTransferFrom(from, to, id, \"\")`."
      },
      "safeTransferFrom(address,address,uint256,bytes)": {
        "details": "Transfers token `id` from `from` to `to`. Requirements: - Token `id` must exist. - `from` must be the owner of the token. - `to` cannot be the zero address. - The caller must be the owner of the token, or be approved to manage the token. - If `to` refers to a smart contract, it must implement   {IERC721Receiver-onERC721Received}, which is called upon a safe transfer. Emits a {Transfer} event."
      },
      "setApprovalForAll(address,bool)": {
        "details": "Sets whether `operator` is approved to manage the tokens of the caller. Emits an {ApprovalForAll} event."
      },
      "supportsInterface(bytes4)": {
        "details": "Returns true if this contract implements the interface defined by `interfaceId`. See: https://eips.ethereum.org/EIPS/eip-165 This function call must use less than 30000 gas."
      },
      "symbol()": {
        "details": "Returns the token collection symbol."
      },
      "transferFrom(address,address,uint256)": {
        "details": "Transfers token `id` from `from` to `to`. Requirements: - Token `id` must exist. - `from` must be the owner of the token. - `to` cannot be the zero address. - The caller must be the owner of the token, or be approved to manage the token. Emits a {Transfer} event."
      },
      "transferOwnership(address)": {
        "details": "Allows the owner to transfer the ownership to `newOwner`."
      }
    },
    "version": 1
  },
  "userdoc": {
    "kind": "user",
    "methods": {},
    "version": 1
  },
  "storageLayout": {
    "storage": [
      {
        "astId": 1834,
        "contract": "src/oaoNFT.sol:oaoNFT",
        "label": "_name",
        "offset": 0,
        "slot": "0",
        "type": "t_string_storage"
      },
      {
        "astId": 1836,
        "contract": "src/oaoNFT.sol:oaoNFT",
        "label": "_symbol",
        "offset": 0,
        "slot": "1",
        "type": "t_string_storage"
      },
      {
        "astId": 1838,
        "contract": "src/oaoNFT.sol:oaoNFT",
        "label": "baseUri",
        "offset": 0,
        "slot": "2",
        "type": "t_string_storage"
      },
      {
        "astId": 1843,
        "contract": "src/oaoNFT.sol:oaoNFT",
        "label": "typeHash",
        "offset": 0,
        "slot": "3",
        "type": "t_bytes32"
      },
      {
        "astId": 1847,
        "contract": "src/oaoNFT.sol:oaoNFT",
        "label": "_signers",
        "offset": 0,
        "slot": "4",
        "type": "t_mapping(t_address,t_bool)"
      }
    ],
    "types": {
      "t_address": {
        "encoding": "inplace",
        "label": "address",
        "numberOfBytes": "20"
      },
      "t_bool": {
        "encoding": "inplace",
        "label": "bool",
        "numberOfBytes": "1"
      },
      "t_bytes32": {
        "encoding": "inplace",
        "label": "bytes32",
        "numberOfBytes": "32"
      },
      "t_mapping(t_address,t_bool)": {
        "encoding": "mapping",
        "key": "t_address",
        "label": "mapping(address => bool)",
        "numberOfBytes": "32",
        "value": "t_bool"
      },
      "t_string_storage": {
        "encoding": "bytes",
        "label": "string",
        "numberOfBytes": "32"
      }
    }
  }
}