{
  "address": "0x819321F324f9285a0341D3adBed201b0B8e20950",
  "abi": [
    {
      "inputs": [
        {
          "internalType": "address",
          "name": "badge_",
          "type": "address"
        },
        {
          "internalType": "address",
          "name": "owner_",
          "type": "address"
        }
      ],
      "stateMutability": "nonpayable",
      "type": "constructor"
    },
    {
      "inputs": [],
      "name": "NewOwnerIsZeroAddress",
      "type": "error"
    },
    {
      "inputs": [],
      "name": "NoHandoverRequest",
      "type": "error"
    },
    {
      "inputs": [],
      "name": "NotSigner",
      "type": "error"
    },
    {
      "inputs": [],
      "name": "Unauthorized",
      "type": "error"
    },
    {
      "anonymous": false,
      "inputs": [
        {
          "indexed": true,
          "internalType": "address",
          "name": "pendingOwner",
          "type": "address"
        }
      ],
      "name": "OwnershipHandoverCanceled",
      "type": "event"
    },
    {
      "anonymous": false,
      "inputs": [
        {
          "indexed": true,
          "internalType": "address",
          "name": "pendingOwner",
          "type": "address"
        }
      ],
      "name": "OwnershipHandoverRequested",
      "type": "event"
    },
    {
      "anonymous": false,
      "inputs": [
        {
          "indexed": true,
          "internalType": "address",
          "name": "oldOwner",
          "type": "address"
        },
        {
          "indexed": true,
          "internalType": "address",
          "name": "newOwner",
          "type": "address"
        }
      ],
      "name": "OwnershipTransferred",
      "type": "event"
    },
    {
      "anonymous": false,
      "inputs": [
        {
          "indexed": true,
          "internalType": "address",
          "name": "user",
          "type": "address"
        },
        {
          "indexed": true,
          "internalType": "uint256",
          "name": "tokenId",
          "type": "uint256"
        }
      ],
      "name": "ReleaseNFT",
      "type": "event"
    },
    {
      "anonymous": false,
      "inputs": [
        {
          "indexed": true,
          "internalType": "uint256",
          "name": "dstChainId",
          "type": "uint256"
        },
        {
          "indexed": true,
          "internalType": "uint256",
          "name": "tokenId",
          "type": "uint256"
        },
        {
          "indexed": true,
          "internalType": "uint256",
          "name": "cid",
          "type": "uint256"
        }
      ],
      "name": "SendNFT",
      "type": "event"
    },
    {
      "anonymous": false,
      "inputs": [
        {
          "indexed": false,
          "internalType": "address",
          "name": "signer",
          "type": "address"
        },
        {
          "indexed": false,
          "internalType": "bool",
          "name": "valid",
          "type": "bool"
        }
      ],
      "name": "SignerSet",
      "type": "event"
    },
    {
      "inputs": [],
      "name": "cancelOwnershipHandover",
      "outputs": [],
      "stateMutability": "payable",
      "type": "function"
    },
    {
      "inputs": [],
      "name": "communityBadge",
      "outputs": [
        {
          "internalType": "address",
          "name": "",
          "type": "address"
        }
      ],
      "stateMutability": "view",
      "type": "function"
    },
    {
      "inputs": [
        {
          "internalType": "address",
          "name": "pendingOwner",
          "type": "address"
        }
      ],
      "name": "completeOwnershipHandover",
      "outputs": [],
      "stateMutability": "payable",
      "type": "function"
    },
    {
      "inputs": [
        {
          "internalType": "address",
          "name": "",
          "type": "address"
        },
        {
          "internalType": "address",
          "name": "",
          "type": "address"
        },
        {
          "internalType": "uint256",
          "name": "",
          "type": "uint256"
        },
        {
          "internalType": "bytes",
          "name": "",
          "type": "bytes"
        }
      ],
      "name": "onERC721Received",
      "outputs": [
        {
          "internalType": "bytes4",
          "name": "",
          "type": "bytes4"
        }
      ],
      "stateMutability": "pure",
      "type": "function"
    },
    {
      "inputs": [],
      "name": "owner",
      "outputs": [
        {
          "internalType": "address",
          "name": "result",
          "type": "address"
        }
      ],
      "stateMutability": "view",
      "type": "function"
    },
    {
      "inputs": [
        {
          "internalType": "address",
          "name": "pendingOwner",
          "type": "address"
        }
      ],
      "name": "ownershipHandoverExpiresAt",
      "outputs": [
        {
          "internalType": "uint256",
          "name": "result",
          "type": "uint256"
        }
      ],
      "stateMutability": "view",
      "type": "function"
    },
    {
      "inputs": [
        {
          "internalType": "address",
          "name": "user",
          "type": "address"
        },
        {
          "internalType": "uint256",
          "name": "tokenId",
          "type": "uint256"
        }
      ],
      "name": "releaseNFT",
      "outputs": [],
      "stateMutability": "nonpayable",
      "type": "function"
    },
    {
      "inputs": [],
      "name": "renounceOwnership",
      "outputs": [],
      "stateMutability": "payable",
      "type": "function"
    },
    {
      "inputs": [],
      "name": "requestOwnershipHandover",
      "outputs": [],
      "stateMutability": "payable",
      "type": "function"
    },
    {
      "inputs": [
        {
          "internalType": "uint256",
          "name": "dstChainId",
          "type": "uint256"
        },
        {
          "internalType": "uint256",
          "name": "tokenId",
          "type": "uint256"
        },
        {
          "internalType": "address",
          "name": "receiver",
          "type": "address"
        }
      ],
      "name": "sendNFT",
      "outputs": [],
      "stateMutability": "nonpayable",
      "type": "function"
    },
    {
      "inputs": [
        {
          "internalType": "address",
          "name": "",
          "type": "address"
        }
      ],
      "name": "signers",
      "outputs": [
        {
          "internalType": "bool",
          "name": "",
          "type": "bool"
        }
      ],
      "stateMutability": "view",
      "type": "function"
    },
    {
      "inputs": [
        {
          "internalType": "address",
          "name": "newOwner",
          "type": "address"
        }
      ],
      "name": "transferOwnership",
      "outputs": [],
      "stateMutability": "payable",
      "type": "function"
    },
    {
      "inputs": [
        {
          "internalType": "address",
          "name": "signer",
          "type": "address"
        },
        {
          "internalType": "bool",
          "name": "valid",
          "type": "bool"
        }
      ],
      "name": "updateSigner",
      "outputs": [],
      "stateMutability": "nonpayable",
      "type": "function"
    }
  ],
  "transactionHash": "0x013099eb3cf42d4269650232a7ca6986655e9595b956becf11a5896ba656badc",
  "args": [
    "0xC18Eeac03F52ac67F956C3Fb7526a119475778dd",
    "0xe6CAB02B0CF13F9638083Fa2C144A3E463a7b16f"
  ],
  "numDeployments": 1,
  "solcInputHash": "b32281fe736f5b7255bdadaf6c3e7a12",
  "bytecode": "0x608060405234801561001057600080fd5b506040516108cf3803806108cf83398101604081905261002f916100b8565b6100388161005e565b50600080546001600160a01b0319166001600160a01b03929092169190911790556100eb565b638b78c6d81980546001600160a01b039092169182907f8be0079c531659141344cd1fd0a4f28419497f9722a3daafe3b4186f6b6457e0600080a355565b80516001600160a01b03811681146100b357600080fd5b919050565b600080604083850312156100cb57600080fd5b6100d48361009c565b91506100e26020840161009c565b90509250929050565b6107d5806100fa6000396000f3fe6080604052600436106100c25760003560e01c80637bd75cc01161007f578063f04e283e11610059578063f04e283e146101fc578063f2fde38b1461020f578063f460590b14610222578063fee81cf41461024257600080fd5b80637bd75cc0146101a35780638da5cb5b146101c3578063c6f84afa146101dc57600080fd5b806309bbf100146100c7578063150b7a0214610104578063256929621461014957806354d1f13d14610153578063715018a61461015b578063736c0d5b14610163575b600080fd5b3480156100d357600080fd5b506000546100e7906001600160a01b031681565b6040516001600160a01b0390911681526020015b60405180910390f35b34801561011057600080fd5b5061013061011f366004610657565b630a85bd0160e11b95945050505050565b6040516001600160e01b031990911681526020016100fb565b610151610283565b005b6101516102d3565b61015161030f565b34801561016f57600080fd5b5061019361017e3660046106f2565b60016020526000908152604090205460ff1681565b60405190151581526020016100fb565b3480156101af57600080fd5b506101516101be366004610714565b610323565b3480156101cf57600080fd5b50638b78c6d819546100e7565b3480156101e857600080fd5b506101516101f7366004610749565b610432565b61015161020a3660046106f2565b6104e0565b61015161021d3660046106f2565b610520565b34801561022e57600080fd5b5061015161023d366004610773565b610547565b34801561024e57600080fd5b5061027561025d3660046106f2565b63389a75e1600c908152600091909152602090205490565b6040519081526020016100fb565b60006202a30067ffffffffffffffff164201905063389a75e1600c5233600052806020600c2055337fdbf36a107da19e49527a7176a1babf963b4b0ff8cde35ee35d6cd8f1f9ac7e1d600080a250565b63389a75e1600c523360005260006020600c2055337ffa7b8eab7da67f412cc9575ed43464468f9bfbae89d1675917346ca6d8fe3c92600080a2565b6103176105b2565b61032160006105cd565b565b6000546040516323b872dd60e01b8152336004820152306024820152604481018490526001600160a01b03909116906323b872dd90606401600060405180830381600087803b15801561037557600080fd5b505af1158015610389573d6000803e3d6000fd5b50506000805460405163b0c479a560e01b8152600481018790529193506001600160a01b0316915063b0c479a590602401602060405180830381865afa1580156103d7573d6000803e3d6000fd5b505050506040513d601f19601f820116820180604052508101906103fb91906107af565b90508083857ff8dc9f9f37e1bd5f1360066eedb7485125935fae273201f577e81da35ad633c360405160405180910390a450505050565b61043a61060b565b6000546040516323b872dd60e01b81523060048201526001600160a01b03848116602483015260448201849052909116906323b872dd90606401600060405180830381600087803b15801561048e57600080fd5b505af11580156104a2573d6000803e3d6000fd5b50506040518392506001600160a01b03851691507fb02b5fcbd3c7f4557ffb7fbd36f3d2876f9f67c097f7c43ffba61875ea2c9e7c90600090a35050565b6104e86105b2565b63389a75e1600c52806000526020600c20805442111561051057636f5e88186000526004601cfd5b6000905561051d816105cd565b50565b6105286105b2565b8060601b61053e57637448fbae6000526004601cfd5b61051d816105cd565b61054f6105b2565b6001600160a01b038216600081815260016020908152604091829020805460ff19168515159081179091558251938452908301527ffc4acb499491cd850a8a21ab98c7f128850c0f0e5f1a875a62b7fa055c2ecf19910160405180910390a15050565b638b78c6d819543314610321576382b429006000526004601cfd5b638b78c6d81980546001600160a01b039092169182907f8be0079c531659141344cd1fd0a4f28419497f9722a3daafe3b4186f6b6457e0600080a355565b3360009081526001602052604090205460ff166103215760405163143606b960e31b815260040160405180910390fd5b80356001600160a01b038116811461065257600080fd5b919050565b60008060008060006080868803121561066f57600080fd5b6106788661063b565b94506106866020870161063b565b935060408601359250606086013567ffffffffffffffff808211156106aa57600080fd5b818801915088601f8301126106be57600080fd5b8135818111156106cd57600080fd5b8960208285010111156106df57600080fd5b9699959850939650602001949392505050565b60006020828403121561070457600080fd5b61070d8261063b565b9392505050565b60008060006060848603121561072957600080fd5b83359250602084013591506107406040850161063b565b90509250925092565b6000806040838503121561075c57600080fd5b6107658361063b565b946020939093013593505050565b6000806040838503121561078657600080fd5b61078f8361063b565b9150602083013580151581146107a457600080fd5b809150509250929050565b6000602082840312156107c157600080fd5b505191905056fea164736f6c6343000813000a",
  "devdoc": {
    "errors": {
      "NewOwnerIsZeroAddress()": [
        {
          "details": "The `newOwner` cannot be the zero address."
        }
      ],
      "NoHandoverRequest()": [
        {
          "details": "The `pendingOwner` does not have a valid handover request."
        }
      ],
      "Unauthorized()": [
        {
          "details": "The caller is not authorized to call the function."
        }
      ]
    },
    "events": {
      "OwnershipHandoverCanceled(address)": {
        "details": "The ownership handover to `pendingOwner` has been canceled."
      },
      "OwnershipHandoverRequested(address)": {
        "details": "An ownership handover to `pendingOwner` has been requested."
      },
      "OwnershipTransferred(address,address)": {
        "details": "The ownership is transferred from `oldOwner` to `newOwner`. This event is intentionally kept the same as OpenZeppelin's Ownable to be compatible with indexers and [EIP-173](https://eips.ethereum.org/EIPS/eip-173), despite it not being as lightweight as a single argument event."
      },
      "SendNFT(uint256,uint256,uint256)": {
        "details": "just emit the bridge NFT request event",
        "params": {
          "cid": "galxe campaign id",
          "dstChainId": "destination dstChainId",
          "tokenId": "NFT tokenId"
        }
      }
    },
    "kind": "dev",
    "methods": {
      "cancelOwnershipHandover()": {
        "details": "Cancels the two-step ownership handover to the caller, if any."
      },
      "completeOwnershipHandover(address)": {
        "details": "Allows the owner to complete the two-step ownership handover to `pendingOwner`. Reverts if there is no existing ownership handover requested by `pendingOwner`."
      },
      "owner()": {
        "details": "Returns the owner of the contract."
      },
      "ownershipHandoverExpiresAt(address)": {
        "details": "Returns the expiry timestamp for the two-step ownership handover to `pendingOwner`."
      },
      "renounceOwnership()": {
        "details": "Allows the owner to renounce their ownership."
      },
      "requestOwnershipHandover()": {
        "details": "Request a two-step ownership handover to the caller. The request will automatically expire in 48 hours (172800 seconds) by default."
      },
      "transferOwnership(address)": {
        "details": "Allows the owner to transfer the ownership to `newOwner`."
      }
    },
    "version": 1
  },
  "userdoc": {
    "events": {
      "SendNFT(uint256,uint256,uint256)": {
        "notice": "emit bridge NFT event"
      }
    },
    "kind": "user",
    "methods": {},
    "version": 1
  },
  "storageLayout": {
    "storage": [
      {
        "astId": 337,
        "contract": "src/GalaxeBadgeReceiver.sol:GalxeBadgeReceiver",
        "label": "communityBadge",
        "offset": 0,
        "slot": "0",
        "type": "t_address"
      },
      {
        "astId": 341,
        "contract": "src/GalaxeBadgeReceiver.sol:GalxeBadgeReceiver",
        "label": "signers",
        "offset": 0,
        "slot": "1",
        "type": "t_mapping(t_address,t_bool)"
      }
    ],
    "types": {
      "t_address": {
        "encoding": "inplace",
        "label": "address",
        "numberOfBytes": "20"
      },
      "t_bool": {
        "encoding": "inplace",
        "label": "bool",
        "numberOfBytes": "1"
      },
      "t_mapping(t_address,t_bool)": {
        "encoding": "mapping",
        "key": "t_address",
        "label": "mapping(address => bool)",
        "numberOfBytes": "32",
        "value": "t_bool"
      }
    }
  }
}