{
  "address": "0x1e93e00143065e0CCFD4eA042b8278882b721017",
  "abi": [
    {
      "inputs": [
        {
          "internalType": "address",
          "name": "badge_",
          "type": "address"
        },
        {
          "internalType": "address",
          "name": "owner_",
          "type": "address"
        }
      ],
      "stateMutability": "nonpayable",
      "type": "constructor"
    },
    {
      "inputs": [],
      "name": "NewOwnerIsZeroAddress",
      "type": "error"
    },
    {
      "inputs": [],
      "name": "NoHandoverRequest",
      "type": "error"
    },
    {
      "inputs": [],
      "name": "NotSigner",
      "type": "error"
    },
    {
      "inputs": [],
      "name": "Unauthorized",
      "type": "error"
    },
    {
      "anonymous": false,
      "inputs": [
        {
          "indexed": true,
          "internalType": "address",
          "name": "pendingOwner",
          "type": "address"
        }
      ],
      "name": "OwnershipHandoverCanceled",
      "type": "event"
    },
    {
      "anonymous": false,
      "inputs": [
        {
          "indexed": true,
          "internalType": "address",
          "name": "pendingOwner",
          "type": "address"
        }
      ],
      "name": "OwnershipHandoverRequested",
      "type": "event"
    },
    {
      "anonymous": false,
      "inputs": [
        {
          "indexed": true,
          "internalType": "address",
          "name": "oldOwner",
          "type": "address"
        },
        {
          "indexed": true,
          "internalType": "address",
          "name": "newOwner",
          "type": "address"
        }
      ],
      "name": "OwnershipTransferred",
      "type": "event"
    },
    {
      "anonymous": false,
      "inputs": [
        {
          "indexed": true,
          "internalType": "address",
          "name": "user",
          "type": "address"
        },
        {
          "indexed": true,
          "internalType": "uint256",
          "name": "tokenId",
          "type": "uint256"
        }
      ],
      "name": "ReleaseNFT",
      "type": "event"
    },
    {
      "anonymous": false,
      "inputs": [
        {
          "indexed": true,
          "internalType": "uint256",
          "name": "dstChainId",
          "type": "uint256"
        },
        {
          "indexed": true,
          "internalType": "uint256",
          "name": "tokenId",
          "type": "uint256"
        },
        {
          "indexed": true,
          "internalType": "uint256",
          "name": "cid",
          "type": "uint256"
        },
        {
          "indexed": false,
          "internalType": "address",
          "name": "from",
          "type": "address"
        },
        {
          "indexed": false,
          "internalType": "address",
          "name": "receiver",
          "type": "address"
        }
      ],
      "name": "SendNFT",
      "type": "event"
    },
    {
      "anonymous": false,
      "inputs": [
        {
          "indexed": false,
          "internalType": "address",
          "name": "signer",
          "type": "address"
        },
        {
          "indexed": false,
          "internalType": "bool",
          "name": "valid",
          "type": "bool"
        }
      ],
      "name": "SignerSet",
      "type": "event"
    },
    {
      "inputs": [],
      "name": "cancelOwnershipHandover",
      "outputs": [],
      "stateMutability": "payable",
      "type": "function"
    },
    {
      "inputs": [],
      "name": "communityBadge",
      "outputs": [
        {
          "internalType": "address",
          "name": "",
          "type": "address"
        }
      ],
      "stateMutability": "view",
      "type": "function"
    },
    {
      "inputs": [
        {
          "internalType": "address",
          "name": "pendingOwner",
          "type": "address"
        }
      ],
      "name": "completeOwnershipHandover",
      "outputs": [],
      "stateMutability": "payable",
      "type": "function"
    },
    {
      "inputs": [
        {
          "internalType": "address",
          "name": "",
          "type": "address"
        },
        {
          "internalType": "address",
          "name": "",
          "type": "address"
        },
        {
          "internalType": "uint256",
          "name": "",
          "type": "uint256"
        },
        {
          "internalType": "bytes",
          "name": "",
          "type": "bytes"
        }
      ],
      "name": "onERC721Received",
      "outputs": [
        {
          "internalType": "bytes4",
          "name": "",
          "type": "bytes4"
        }
      ],
      "stateMutability": "pure",
      "type": "function"
    },
    {
      "inputs": [],
      "name": "owner",
      "outputs": [
        {
          "internalType": "address",
          "name": "result",
          "type": "address"
        }
      ],
      "stateMutability": "view",
      "type": "function"
    },
    {
      "inputs": [
        {
          "internalType": "address",
          "name": "pendingOwner",
          "type": "address"
        }
      ],
      "name": "ownershipHandoverExpiresAt",
      "outputs": [
        {
          "internalType": "uint256",
          "name": "result",
          "type": "uint256"
        }
      ],
      "stateMutability": "view",
      "type": "function"
    },
    {
      "inputs": [
        {
          "internalType": "address",
          "name": "user",
          "type": "address"
        },
        {
          "internalType": "uint256",
          "name": "tokenId",
          "type": "uint256"
        }
      ],
      "name": "releaseNFT",
      "outputs": [],
      "stateMutability": "nonpayable",
      "type": "function"
    },
    {
      "inputs": [],
      "name": "renounceOwnership",
      "outputs": [],
      "stateMutability": "payable",
      "type": "function"
    },
    {
      "inputs": [],
      "name": "requestOwnershipHandover",
      "outputs": [],
      "stateMutability": "payable",
      "type": "function"
    },
    {
      "inputs": [
        {
          "internalType": "uint256",
          "name": "dstChainId",
          "type": "uint256"
        },
        {
          "internalType": "uint256[]",
          "name": "tokenIds",
          "type": "uint256[]"
        },
        {
          "internalType": "address",
          "name": "from",
          "type": "address"
        },
        {
          "internalType": "address",
          "name": "receiver",
          "type": "address"
        }
      ],
      "name": "sendBatchNFT",
      "outputs": [],
      "stateMutability": "nonpayable",
      "type": "function"
    },
    {
      "inputs": [
        {
          "internalType": "uint256",
          "name": "dstChainId",
          "type": "uint256"
        },
        {
          "internalType": "uint256",
          "name": "tokenId",
          "type": "uint256"
        },
        {
          "internalType": "address",
          "name": "from",
          "type": "address"
        },
        {
          "internalType": "address",
          "name": "receiver",
          "type": "address"
        }
      ],
      "name": "sendNFT",
      "outputs": [],
      "stateMutability": "nonpayable",
      "type": "function"
    },
    {
      "inputs": [
        {
          "internalType": "address",
          "name": "",
          "type": "address"
        }
      ],
      "name": "signers",
      "outputs": [
        {
          "internalType": "bool",
          "name": "",
          "type": "bool"
        }
      ],
      "stateMutability": "view",
      "type": "function"
    },
    {
      "inputs": [
        {
          "internalType": "address",
          "name": "newOwner",
          "type": "address"
        }
      ],
      "name": "transferOwnership",
      "outputs": [],
      "stateMutability": "payable",
      "type": "function"
    },
    {
      "inputs": [
        {
          "internalType": "address",
          "name": "signer",
          "type": "address"
        },
        {
          "internalType": "bool",
          "name": "valid",
          "type": "bool"
        }
      ],
      "name": "updateSigner",
      "outputs": [],
      "stateMutability": "nonpayable",
      "type": "function"
    }
  ],
  "transactionHash": "0xba568b98bb3f2c6a14ddd468d0001f046e309cd9528cfd29fa9da8ac7f9d3e2d",
  "args": [
    "0xC18Eeac03F52ac67F956C3Fb7526a119475778dd",
    "0xe6CAB02B0CF13F9638083Fa2C144A3E463a7b16f"
  ],
  "numDeployments": 2,
  "solcInputHash": "3ceec68c001c1939549716210355bf8c",
  "bytecode": "0x608060405234801561001057600080fd5b50604051610a78380380610a7883398101604081905261002f916100b8565b6100388161005e565b50600080546001600160a01b0319166001600160a01b03929092169190911790556100eb565b638b78c6d81980546001600160a01b039092169182907f8be0079c531659141344cd1fd0a4f28419497f9722a3daafe3b4186f6b6457e0600080a355565b80516001600160a01b03811681146100b357600080fd5b919050565b600080604083850312156100cb57600080fd5b6100d48361009c565b91506100e26020840161009c565b90509250929050565b61097e806100fa6000396000f3fe6080604052600436106100dd5760003560e01c80638da5cb5b1161007f578063f04e283e11610059578063f04e283e14610237578063f2fde38b1461024a578063f460590b1461025d578063fee81cf41461027d57600080fd5b80638da5cb5b146101de578063c6f84afa146101f7578063d19abf4e1461021757600080fd5b806354d1f13d116100bb57806354d1f13d1461016e5780636357bcfe14610176578063715018a614610196578063736c0d5b1461019e57600080fd5b806309bbf100146100e2578063150b7a021461011f5780632569296214610164575b600080fd5b3480156100ee57600080fd5b50600054610102906001600160a01b031681565b6040516001600160a01b0390911681526020015b60405180910390f35b34801561012b57600080fd5b5061014b61013a366004610711565b630a85bd0160e11b95945050505050565b6040516001600160e01b03199091168152602001610116565b61016c6102be565b005b61016c61030e565b34801561018257600080fd5b5061016c6101913660046107ac565b61034a565b61016c61035c565b3480156101aa57600080fd5b506101ce6101b93660046107f2565b60016020526000908152604090205460ff1681565b6040519015158152602001610116565b3480156101ea57600080fd5b50638b78c6d81954610102565b34801561020357600080fd5b5061016c610212366004610814565b610370565b34801561022357600080fd5b5061016c61023236600461083e565b61041e565b61016c6102453660046107f2565b61046d565b61016c6102583660046107f2565b6104ad565b34801561026957600080fd5b5061016c6102783660046108df565b6104d4565b34801561028957600080fd5b506102b06102983660046107f2565b63389a75e1600c908152600091909152602090205490565b604051908152602001610116565b60006202a30067ffffffffffffffff164201905063389a75e1600c5233600052806020600c2055337fdbf36a107da19e49527a7176a1babf963b4b0ff8cde35ee35d6cd8f1f9ac7e1d600080a250565b63389a75e1600c523360005260006020600c2055337ffa7b8eab7da67f412cc9575ed43464468f9bfbae89d1675917346ca6d8fe3c92600080a2565b6103568484848461053f565b50505050565b61036461066c565b61036e6000610687565b565b6103786106c5565b6000546040516323b872dd60e01b81523060048201526001600160a01b03848116602483015260448201849052909116906323b872dd90606401600060405180830381600087803b1580156103cc57600080fd5b505af11580156103e0573d6000803e3d6000fd5b50506040518392506001600160a01b03851691507fb02b5fcbd3c7f4557ffb7fbd36f3d2876f9f67c097f7c43ffba61875ea2c9e7c90600090a35050565b60005b8381101561046557600085858381811061043d5761043d61091b565b9050602002013590506104528782868661053f565b508061045d81610931565b915050610421565b505050505050565b61047561066c565b63389a75e1600c52806000526020600c20805442111561049d57636f5e88186000526004601cfd5b600090556104aa81610687565b50565b6104b561066c565b8060601b6104cb57637448fbae6000526004601cfd5b6104aa81610687565b6104dc61066c565b6001600160a01b038216600081815260016020908152604091829020805460ff19168515159081179091558251938452908301527ffc4acb499491cd850a8a21ab98c7f128850c0f0e5f1a875a62b7fa055c2ecf19910160405180910390a15050565b6000546040516323b872dd60e01b81526001600160a01b03848116600483015230602483015260448201869052909116906323b872dd90606401600060405180830381600087803b15801561059357600080fd5b505af11580156105a7573d6000803e3d6000fd5b50506000805460405163b0c479a560e01b8152600481018890529193506001600160a01b0316915063b0c479a590602401602060405180830381865afa1580156105f5573d6000803e3d6000fd5b505050506040513d601f19601f820116820180604052508101906106199190610958565b604080516001600160a01b038087168252851660208201529192508291869188917f83f6e5b5a648aec68f5e25f4a9cb918ae422a6f79a31c71a2b68f829d32efb39910160405180910390a45050505050565b638b78c6d81954331461036e576382b429006000526004601cfd5b638b78c6d81980546001600160a01b039092169182907f8be0079c531659141344cd1fd0a4f28419497f9722a3daafe3b4186f6b6457e0600080a355565b3360009081526001602052604090205460ff1661036e5760405163143606b960e31b815260040160405180910390fd5b80356001600160a01b038116811461070c57600080fd5b919050565b60008060008060006080868803121561072957600080fd5b610732866106f5565b9450610740602087016106f5565b935060408601359250606086013567ffffffffffffffff8082111561076457600080fd5b818801915088601f83011261077857600080fd5b81358181111561078757600080fd5b89602082850101111561079957600080fd5b9699959850939650602001949392505050565b600080600080608085870312156107c257600080fd5b84359350602085013592506107d9604086016106f5565b91506107e7606086016106f5565b905092959194509250565b60006020828403121561080457600080fd5b61080d826106f5565b9392505050565b6000806040838503121561082757600080fd5b610830836106f5565b946020939093013593505050565b60008060008060006080868803121561085657600080fd5b85359450602086013567ffffffffffffffff8082111561087557600080fd5b818801915088601f83011261088957600080fd5b81358181111561089857600080fd5b8960208260051b85010111156108ad57600080fd5b6020830196508095505050506108c5604087016106f5565b91506108d3606087016106f5565b90509295509295909350565b600080604083850312156108f257600080fd5b6108fb836106f5565b91506020830135801515811461091057600080fd5b809150509250929050565b634e487b7160e01b600052603260045260246000fd5b60006001820161095157634e487b7160e01b600052601160045260246000fd5b5060010190565b60006020828403121561096a57600080fd5b505191905056fea164736f6c6343000813000a",
  "devdoc": {
    "errors": {
      "NewOwnerIsZeroAddress()": [
        {
          "details": "The `newOwner` cannot be the zero address."
        }
      ],
      "NoHandoverRequest()": [
        {
          "details": "The `pendingOwner` does not have a valid handover request."
        }
      ],
      "Unauthorized()": [
        {
          "details": "The caller is not authorized to call the function."
        }
      ]
    },
    "events": {
      "OwnershipHandoverCanceled(address)": {
        "details": "The ownership handover to `pendingOwner` has been canceled."
      },
      "OwnershipHandoverRequested(address)": {
        "details": "An ownership handover to `pendingOwner` has been requested."
      },
      "OwnershipTransferred(address,address)": {
        "details": "The ownership is transferred from `oldOwner` to `newOwner`. This event is intentionally kept the same as OpenZeppelin's Ownable to be compatible with indexers and [EIP-173](https://eips.ethereum.org/EIPS/eip-173), despite it not being as lightweight as a single argument event."
      },
      "SendNFT(uint256,uint256,uint256,address,address)": {
        "details": "just emit the bridge NFT request event",
        "params": {
          "cid": "galxe campaign id",
          "dstChainId": "destination dstChainId",
          "tokenId": "NFT tokenId"
        }
      }
    },
    "kind": "dev",
    "methods": {
      "cancelOwnershipHandover()": {
        "details": "Cancels the two-step ownership handover to the caller, if any."
      },
      "completeOwnershipHandover(address)": {
        "details": "Allows the owner to complete the two-step ownership handover to `pendingOwner`. Reverts if there is no existing ownership handover requested by `pendingOwner`."
      },
      "owner()": {
        "details": "Returns the owner of the contract."
      },
      "ownershipHandoverExpiresAt(address)": {
        "details": "Returns the expiry timestamp for the two-step ownership handover to `pendingOwner`."
      },
      "renounceOwnership()": {
        "details": "Allows the owner to renounce their ownership."
      },
      "requestOwnershipHandover()": {
        "details": "Request a two-step ownership handover to the caller. The request will automatically expire in 48 hours (172800 seconds) by default."
      },
      "transferOwnership(address)": {
        "details": "Allows the owner to transfer the ownership to `newOwner`."
      }
    },
    "version": 1
  },
  "userdoc": {
    "events": {
      "SendNFT(uint256,uint256,uint256,address,address)": {
        "notice": "emit bridge NFT event"
      }
    },
    "kind": "user",
    "methods": {},
    "version": 1
  },
  "storageLayout": {
    "storage": [
      {
        "astId": 337,
        "contract": "src/GalaxeBadgeReceiver.sol:GalxeBadgeReceiver",
        "label": "communityBadge",
        "offset": 0,
        "slot": "0",
        "type": "t_address"
      },
      {
        "astId": 341,
        "contract": "src/GalaxeBadgeReceiver.sol:GalxeBadgeReceiver",
        "label": "signers",
        "offset": 0,
        "slot": "1",
        "type": "t_mapping(t_address,t_bool)"
      }
    ],
    "types": {
      "t_address": {
        "encoding": "inplace",
        "label": "address",
        "numberOfBytes": "20"
      },
      "t_bool": {
        "encoding": "inplace",
        "label": "bool",
        "numberOfBytes": "1"
      },
      "t_mapping(t_address,t_bool)": {
        "encoding": "mapping",
        "key": "t_address",
        "label": "mapping(address => bool)",
        "numberOfBytes": "32",
        "value": "t_bool"
      }
    }
  }
}