{
  "address": "0xD3718c6e060180f0Cf6FB3268F0c07B1E92f200C",
  "abi": [
    {
      "inputs": [],
      "name": "CannotBeProved",
      "type": "error"
    },
    {
      "inputs": [],
      "name": "InvalidProof",
      "type": "error"
    },
    {
      "inputs": [],
      "name": "InvalidToken",
      "type": "error"
    },
    {
      "anonymous": false,
      "inputs": [
        {
          "indexed": false,
          "internalType": "address",
          "name": "previousAdmin",
          "type": "address"
        },
        {
          "indexed": false,
          "internalType": "address",
          "name": "newAdmin",
          "type": "address"
        }
      ],
      "name": "AdminChanged",
      "type": "event"
    },
    {
      "anonymous": false,
      "inputs": [
        {
          "indexed": true,
          "internalType": "address",
          "name": "beacon",
          "type": "address"
        }
      ],
      "name": "BeaconUpgraded",
      "type": "event"
    },
    {
      "anonymous": false,
      "inputs": [
        {
          "indexed": true,
          "internalType": "address",
          "name": "token",
          "type": "address"
        },
        {
          "indexed": true,
          "internalType": "address",
          "name": "user",
          "type": "address"
        },
        {
          "indexed": false,
          "internalType": "uint256",
          "name": "amount",
          "type": "uint256"
        }
      ],
      "name": "ClaimReward",
      "type": "event"
    },
    {
      "anonymous": false,
      "inputs": [
        {
          "indexed": false,
          "internalType": "uint8",
          "name": "version",
          "type": "uint8"
        }
      ],
      "name": "Initialized",
      "type": "event"
    },
    {
      "anonymous": false,
      "inputs": [
        {
          "indexed": true,
          "internalType": "address",
          "name": "previousOwner",
          "type": "address"
        },
        {
          "indexed": true,
          "internalType": "address",
          "name": "newOwner",
          "type": "address"
        }
      ],
      "name": "OwnershipTransferStarted",
      "type": "event"
    },
    {
      "anonymous": false,
      "inputs": [
        {
          "indexed": true,
          "internalType": "address",
          "name": "previousOwner",
          "type": "address"
        },
        {
          "indexed": true,
          "internalType": "address",
          "name": "newOwner",
          "type": "address"
        }
      ],
      "name": "OwnershipTransferred",
      "type": "event"
    },
    {
      "anonymous": false,
      "inputs": [
        {
          "indexed": false,
          "internalType": "address",
          "name": "user",
          "type": "address"
        },
        {
          "indexed": false,
          "internalType": "bytes32",
          "name": "campaign",
          "type": "bytes32"
        },
        {
          "indexed": false,
          "internalType": "enum IP12ArcanaDef.Activeness",
          "name": "activeStatus",
          "type": "uint8"
        }
      ],
      "name": "RequestParticipant",
      "type": "event"
    },
    {
      "anonymous": false,
      "inputs": [
        {
          "indexed": true,
          "internalType": "address",
          "name": "signer",
          "type": "address"
        },
        {
          "indexed": false,
          "internalType": "bool",
          "name": "valid",
          "type": "bool"
        }
      ],
      "name": "SignerUpdate",
      "type": "event"
    },
    {
      "anonymous": false,
      "inputs": [
        {
          "indexed": true,
          "internalType": "address",
          "name": "token",
          "type": "address"
        },
        {
          "indexed": true,
          "internalType": "bytes32",
          "name": "root",
          "type": "bytes32"
        }
      ],
      "name": "TokenDisRootSet",
      "type": "event"
    },
    {
      "anonymous": false,
      "inputs": [
        {
          "indexed": true,
          "internalType": "address",
          "name": "implementation",
          "type": "address"
        }
      ],
      "name": "Upgraded",
      "type": "event"
    },
    {
      "anonymous": false,
      "inputs": [
        {
          "indexed": true,
          "internalType": "address",
          "name": "token",
          "type": "address"
        },
        {
          "indexed": true,
          "internalType": "address",
          "name": "dst",
          "type": "address"
        },
        {
          "indexed": false,
          "internalType": "uint256",
          "name": "amount",
          "type": "uint256"
        }
      ],
      "name": "Withdrawn",
      "type": "event"
    },
    {
      "inputs": [],
      "name": "acceptOwnership",
      "outputs": [],
      "stateMutability": "nonpayable",
      "type": "function"
    },
    {
      "inputs": [
        {
          "internalType": "address",
          "name": "",
          "type": "address"
        },
        {
          "internalType": "bytes32",
          "name": "",
          "type": "bytes32"
        }
      ],
      "name": "activeness",
      "outputs": [
        {
          "internalType": "enum IP12ArcanaDef.Activeness",
          "name": "",
          "type": "uint8"
        }
      ],
      "stateMutability": "view",
      "type": "function"
    },
    {
      "inputs": [
        {
          "internalType": "address",
          "name": "addr",
          "type": "address"
        }
      ],
      "name": "checkIsProvedHuman",
      "outputs": [
        {
          "internalType": "bool",
          "name": "",
          "type": "bool"
        }
      ],
      "stateMutability": "view",
      "type": "function"
    },
    {
      "inputs": [
        {
          "internalType": "address",
          "name": "token",
          "type": "address"
        },
        {
          "internalType": "uint256",
          "name": "amount",
          "type": "uint256"
        },
        {
          "internalType": "bytes32[]",
          "name": "proof",
          "type": "bytes32[]"
        }
      ],
      "name": "claimReward",
      "outputs": [],
      "stateMutability": "nonpayable",
      "type": "function"
    },
    {
      "inputs": [
        {
          "internalType": "address",
          "name": "user",
          "type": "address"
        },
        {
          "internalType": "address",
          "name": "token",
          "type": "address"
        }
      ],
      "name": "getClaimedReward",
      "outputs": [
        {
          "internalType": "uint256",
          "name": "amount",
          "type": "uint256"
        }
      ],
      "stateMutability": "view",
      "type": "function"
    },
    {
      "inputs": [],
      "name": "getProofAmount",
      "outputs": [
        {
          "internalType": "uint256",
          "name": "",
          "type": "uint256"
        }
      ],
      "stateMutability": "view",
      "type": "function"
    },
    {
      "inputs": [
        {
          "internalType": "address",
          "name": "token",
          "type": "address"
        }
      ],
      "name": "getPublicationTokenFee",
      "outputs": [
        {
          "internalType": "uint256",
          "name": "",
          "type": "uint256"
        }
      ],
      "stateMutability": "view",
      "type": "function"
    },
    {
      "inputs": [
        {
          "internalType": "address",
          "name": "owner_",
          "type": "address"
        }
      ],
      "name": "initialize",
      "outputs": [],
      "stateMutability": "nonpayable",
      "type": "function"
    },
    {
      "inputs": [],
      "name": "owner",
      "outputs": [
        {
          "internalType": "address",
          "name": "",
          "type": "address"
        }
      ],
      "stateMutability": "view",
      "type": "function"
    },
    {
      "inputs": [],
      "name": "pendingOwner",
      "outputs": [
        {
          "internalType": "address",
          "name": "",
          "type": "address"
        }
      ],
      "stateMutability": "view",
      "type": "function"
    },
    {
      "inputs": [],
      "name": "proveToBeHuman",
      "outputs": [],
      "stateMutability": "payable",
      "type": "function"
    },
    {
      "inputs": [],
      "name": "proxiableUUID",
      "outputs": [
        {
          "internalType": "bytes32",
          "name": "",
          "type": "bytes32"
        }
      ],
      "stateMutability": "view",
      "type": "function"
    },
    {
      "inputs": [],
      "name": "publicationFee",
      "outputs": [
        {
          "internalType": "uint256",
          "name": "",
          "type": "uint256"
        }
      ],
      "stateMutability": "view",
      "type": "function"
    },
    {
      "inputs": [],
      "name": "publishGame",
      "outputs": [],
      "stateMutability": "payable",
      "type": "function"
    },
    {
      "inputs": [
        {
          "internalType": "address",
          "name": "token",
          "type": "address"
        }
      ],
      "name": "publishGame",
      "outputs": [],
      "stateMutability": "nonpayable",
      "type": "function"
    },
    {
      "inputs": [
        {
          "internalType": "address",
          "name": "",
          "type": "address"
        }
      ],
      "name": "qualDevs",
      "outputs": [
        {
          "internalType": "bool",
          "name": "",
          "type": "bool"
        }
      ],
      "stateMutability": "view",
      "type": "function"
    },
    {
      "inputs": [],
      "name": "renounceOwnership",
      "outputs": [],
      "stateMutability": "nonpayable",
      "type": "function"
    },
    {
      "inputs": [
        {
          "internalType": "bytes32",
          "name": "campaign",
          "type": "bytes32"
        }
      ],
      "name": "requestParticipant",
      "outputs": [],
      "stateMutability": "nonpayable",
      "type": "function"
    },
    {
      "inputs": [
        {
          "internalType": "uint256",
          "name": "amount",
          "type": "uint256"
        }
      ],
      "name": "setProofAmount",
      "outputs": [],
      "stateMutability": "nonpayable",
      "type": "function"
    },
    {
      "inputs": [
        {
          "internalType": "uint256",
          "name": "fee",
          "type": "uint256"
        }
      ],
      "name": "setPublicationFee",
      "outputs": [],
      "stateMutability": "nonpayable",
      "type": "function"
    },
    {
      "inputs": [
        {
          "internalType": "address",
          "name": "token",
          "type": "address"
        },
        {
          "internalType": "uint256",
          "name": "amount",
          "type": "uint256"
        }
      ],
      "name": "setPublicationTokenFee",
      "outputs": [],
      "stateMutability": "nonpayable",
      "type": "function"
    },
    {
      "inputs": [
        {
          "internalType": "address",
          "name": "token",
          "type": "address"
        },
        {
          "internalType": "bytes32",
          "name": "root",
          "type": "bytes32"
        }
      ],
      "name": "setTokenDisRoot",
      "outputs": [],
      "stateMutability": "nonpayable",
      "type": "function"
    },
    {
      "inputs": [
        {
          "internalType": "address",
          "name": "newOwner",
          "type": "address"
        }
      ],
      "name": "transferOwnership",
      "outputs": [],
      "stateMutability": "nonpayable",
      "type": "function"
    },
    {
      "inputs": [
        {
          "internalType": "address",
          "name": "signer",
          "type": "address"
        },
        {
          "internalType": "bool",
          "name": "valid",
          "type": "bool"
        }
      ],
      "name": "updateSigners",
      "outputs": [],
      "stateMutability": "nonpayable",
      "type": "function"
    },
    {
      "inputs": [
        {
          "internalType": "address",
          "name": "newImplementation",
          "type": "address"
        }
      ],
      "name": "upgradeTo",
      "outputs": [],
      "stateMutability": "nonpayable",
      "type": "function"
    },
    {
      "inputs": [
        {
          "internalType": "address",
          "name": "newImplementation",
          "type": "address"
        },
        {
          "internalType": "bytes",
          "name": "data",
          "type": "bytes"
        }
      ],
      "name": "upgradeToAndCall",
      "outputs": [],
      "stateMutability": "payable",
      "type": "function"
    },
    {
      "inputs": [
        {
          "internalType": "contract IERC20",
          "name": "token",
          "type": "address"
        },
        {
          "internalType": "address",
          "name": "dst",
          "type": "address"
        }
      ],
      "name": "withdrawErc20",
      "outputs": [],
      "stateMutability": "nonpayable",
      "type": "function"
    },
    {
      "inputs": [
        {
          "internalType": "address payable",
          "name": "dst",
          "type": "address"
        }
      ],
      "name": "withdrawFee",
      "outputs": [],
      "stateMutability": "nonpayable",
      "type": "function"
    },
    {
      "stateMutability": "payable",
      "type": "receive"
    }
  ],
  "transactionHash": "0xfa3f73306c4365ff92fe919293d4b474481d62d897a6107b94050f9833514d78",
  "args": [],
  "numDeployments": 4,
  "solcInputHash": "d4161f1cc2f4ea12c88c5085e86ef9d1",
  "bytecode": "0x60a06040523060805234801561001457600080fd5b5060805161263861004c60003960008181610a9201528181610b4201528181610ca401528181610d540152610e9d01526126386000f3fe6080604052600436106101bb5760003560e01c806379ba5097116100ec578063d9e7135d1161008a578063f2fde38b11610064578063f2fde38b1461051a578063f62ba9061461053a578063f93af3571461057e578063fd9fffd81461059e57600080fd5b8063d9e7135d146104af578063e30c3978146104cf578063eafdef94146104fa57600080fd5b8063a7f68792116100c6578063a7f6879214610407578063ad02625f14610427578063af8996f11461046f578063c4d66de81461048f57600080fd5b806379ba5097146103755780638da5cb5b1461038a578063a56c95cb146103d657600080fd5b806336ea88811161015957806369263e9d1161013357806369263e9d1461030a5780636e0e540c1461032a578063715018a614610340578063739656db1461035557600080fd5b806336ea8881146102b45780634f1ef286146102d457806352d1902d146102e757600080fd5b80631ac3ddeb116101955780631ac3ddeb146102115780632367d3a51461023157806324ac662a1461028c5780633659cfe61461029457600080fd5b806309823cde146101c75780630ef5b0b9146101e957806316c453f61461020957600080fd5b366101c257005b600080fd5b3480156101d357600080fd5b506101e76101e23660046121a6565b6105b3565b005b3480156101f557600080fd5b506101e7610204366004612232565b6107b7565b6101e7610814565b34801561021d57600080fd5b506101e761022c36600461225e565b6108bf565b34801561023d57600080fd5b5061027761024c36600461225e565b73ffffffffffffffffffffffffffffffffffffffff16600090815260fe602052604090205460ff1690565b60405190151581526020015b60405180910390f35b6101e7610a05565b3480156102a057600080fd5b506101e76102af36600461225e565b610a7b565b3480156102c057600080fd5b506101e76102cf36600461227b565b610c80565b6101e76102e23660046122c3565b610c8d565b3480156102f357600080fd5b506102fc610e83565b604051908152602001610283565b34801561031657600080fd5b506101e7610325366004612232565b610f6f565b34801561033657600080fd5b506102fc60fc5481565b34801561034c57600080fd5b506101e7610fa1565b34801561036157600080fd5b506101e76103703660046123a5565b610fb5565b34801561038157600080fd5b506101e76110d0565b34801561039657600080fd5b5060975473ffffffffffffffffffffffffffffffffffffffff165b60405173ffffffffffffffffffffffffffffffffffffffff9091168152602001610283565b3480156103e257600080fd5b506102776103f136600461225e565b60ff602081905260009182526040909120541681565b34801561041357600080fd5b506101e761042236600461227b565b611182565b34801561043357600080fd5b50610462610442366004612232565b60fd60209081526000928352604080842090915290825290205460ff1681565b6040516102839190612419565b34801561047b57600080fd5b506101e761048a36600461227b565b611207565b34801561049b57600080fd5b506101e76104aa36600461225e565b611214565b3480156104bb57600080fd5b506102fc6104ca3660046123a5565b6113a7565b3480156104db57600080fd5b5060c95473ffffffffffffffffffffffffffffffffffffffff166103b1565b34801561050657600080fd5b506101e761051536600461225e565b6113e2565b34801561052657600080fd5b506101e761053536600461225e565b6114a1565b34801561054657600080fd5b506102fc61055536600461225e565b73ffffffffffffffffffffffffffffffffffffffff166000908152610100602052604090205490565b34801561058a57600080fd5b506101e7610599366004612435565b611551565b3480156105aa57600080fd5b5060fb546102fc565b60408051336020820152908101849052600090606001604080517fffffffffffffffffffffffffffffffffffffffffffffffffffffffffffffffe0818403018152828252805160209182012090830152016040516020818303038152906040528051906020012090506000610680848480806020026020016040519081016040528093929190818152602001838360200280828437600092018290525073ffffffffffffffffffffffffffffffffffffffff8c168152610101602052604090205492508691506115e49050565b9050806106b9576040517f09bde33900000000000000000000000000000000000000000000000000000000815260040160405180910390fd5b3360009081526101026020908152604080832073ffffffffffffffffffffffffffffffffffffffff8a1684529091528120546106f59087612492565b3360009081526101026020908152604080832073ffffffffffffffffffffffffffffffffffffffff8c1680855292529091208890559091506107405761073b33826115fa565b610761565b61076173ffffffffffffffffffffffffffffffffffffffff88163383611759565b604051868152339073ffffffffffffffffffffffffffffffffffffffff8916907f7e77f685b38c861064cb08f2776eb5dfd3c82f652ed9f21221b8c53b75628e519060200160405180910390a350505050505050565b6107bf61182d565b73ffffffffffffffffffffffffffffffffffffffff821660008181526101016020526040808220849055518392917fe4dd9240171f52fc8d753ec2401da033792d82015f6599572ce6ca36dd1b50a791a35050565b60fc54341015610885576040517f08c379a000000000000000000000000000000000000000000000000000000000815260206004820152600e60248201527f666565206e6f7420656e6f75676800000000000000000000000000000000000060448201526064015b60405180910390fd5b33600090815260ff6020526040902080547fffffffffffffffffffffffffffffffffffffffffffffffffffffffffffffff00166001179055565b6108c761182d565b476108e873ffffffffffffffffffffffffffffffffffffffff8316826115fa565b60405160009073ffffffffffffffffffffffffffffffffffffffff8416903031908381818185875af1925050503d8060008114610941576040519150601f19603f3d011682016040523d82523d6000602084013e610946565b606091505b50509050806109b1576040517f08c379a000000000000000000000000000000000000000000000000000000000815260206004820152600d60248201527f7769746864726177206661696c00000000000000000000000000000000000000604482015260640161087c565b60405182815273ffffffffffffffffffffffffffffffffffffffff8416906000907fd1c19fbcd4551a5edfb66d43d2e337c04837afda3482b42bdf569a8fccdae5fb906020015b60405180910390a3505050565b60fb54341015610a41576040517fb86d6d1800000000000000000000000000000000000000000000000000000000815260040160405180910390fd5b33600090815260fe6020526040902080547fffffffffffffffffffffffffffffffffffffffffffffffffffffffffffffff00166001179055565b73ffffffffffffffffffffffffffffffffffffffff7f0000000000000000000000000000000000000000000000000000000000000000163003610b40576040517f08c379a000000000000000000000000000000000000000000000000000000000815260206004820152602c60248201527f46756e6374696f6e206d7573742062652063616c6c6564207468726f7567682060448201527f64656c656761746563616c6c0000000000000000000000000000000000000000606482015260840161087c565b7f000000000000000000000000000000000000000000000000000000000000000073ffffffffffffffffffffffffffffffffffffffff16610bb57f360894a13ba1a3210667c828492db98dca3e2076cc3735a920a3ca505d382bbc5473ffffffffffffffffffffffffffffffffffffffff1690565b73ffffffffffffffffffffffffffffffffffffffff1614610c58576040517f08c379a000000000000000000000000000000000000000000000000000000000815260206004820152602c60248201527f46756e6374696f6e206d7573742062652063616c6c6564207468726f7567682060448201527f6163746976652070726f78790000000000000000000000000000000000000000606482015260840161087c565b610c61816118ae565b60408051600080825260208201909252610c7d918391906118b6565b50565b610c8861182d565b60fb55565b73ffffffffffffffffffffffffffffffffffffffff7f0000000000000000000000000000000000000000000000000000000000000000163003610d52576040517f08c379a000000000000000000000000000000000000000000000000000000000815260206004820152602c60248201527f46756e6374696f6e206d7573742062652063616c6c6564207468726f7567682060448201527f64656c656761746563616c6c0000000000000000000000000000000000000000606482015260840161087c565b7f000000000000000000000000000000000000000000000000000000000000000073ffffffffffffffffffffffffffffffffffffffff16610dc77f360894a13ba1a3210667c828492db98dca3e2076cc3735a920a3ca505d382bbc5473ffffffffffffffffffffffffffffffffffffffff1690565b73ffffffffffffffffffffffffffffffffffffffff1614610e6a576040517f08c379a000000000000000000000000000000000000000000000000000000000815260206004820152602c60248201527f46756e6374696f6e206d7573742062652063616c6c6564207468726f7567682060448201527f6163746976652070726f78790000000000000000000000000000000000000000606482015260840161087c565b610e73826118ae565b610e7f828260016118b6565b5050565b60003073ffffffffffffffffffffffffffffffffffffffff7f00000000000000000000000000000000000000000000000000000000000000001614610f4a576040517f08c379a000000000000000000000000000000000000000000000000000000000815260206004820152603860248201527f555550535570677261646561626c653a206d757374206e6f742062652063616c60448201527f6c6564207468726f7567682064656c656761746563616c6c0000000000000000606482015260840161087c565b507f360894a13ba1a3210667c828492db98dca3e2076cc3735a920a3ca505d382bbc90565b610f7761182d565b73ffffffffffffffffffffffffffffffffffffffff90911660009081526101006020526040902055565b610fa961182d565b610fb36000611ab5565b565b610fbd61182d565b6040517f70a0823100000000000000000000000000000000000000000000000000000000815230600482015260009073ffffffffffffffffffffffffffffffffffffffff8416906370a0823190602401602060405180830381865afa15801561102a573d6000803e3d6000fd5b505050506040513d601f19601f8201168201806040525081019061104e91906124a5565b905061107173ffffffffffffffffffffffffffffffffffffffff84168383611759565b8173ffffffffffffffffffffffffffffffffffffffff168373ffffffffffffffffffffffffffffffffffffffff167fd1c19fbcd4551a5edfb66d43d2e337c04837afda3482b42bdf569a8fccdae5fb836040516109f891815260200190565b60c954339073ffffffffffffffffffffffffffffffffffffffff168114611179576040517f08c379a000000000000000000000000000000000000000000000000000000000815260206004820152602960248201527f4f776e61626c6532537465703a2063616c6c6572206973206e6f74207468652060448201527f6e6577206f776e65720000000000000000000000000000000000000000000000606482015260840161087c565b610c7d81611ab5565b33600081815260fd602090815260408083208584529091529081902080547fffffffffffffffffffffffffffffffffffffffffffffffffffffffffffffff0016600190811790915590517f993d9a29df4b7ad9d20caaf063001a180cd798ccff52cb112ab0e11c2d3ba214926111fc9290918591906124be565b60405180910390a150565b61120f61182d565b60fc55565b600054610100900460ff16158080156112345750600054600160ff909116105b8061124e5750303b15801561124e575060005460ff166001145b6112da576040517f08c379a000000000000000000000000000000000000000000000000000000000815260206004820152602e60248201527f496e697469616c697a61626c653a20636f6e747261637420697320616c72656160448201527f647920696e697469616c697a6564000000000000000000000000000000000000606482015260840161087c565b600080547fffffffffffffffffffffffffffffffffffffffffffffffffffffffffffffff00166001179055801561133857600080547fffffffffffffffffffffffffffffffffffffffffffffffffffffffffffff00ff166101001790555b61134182611ab5565b8015610e7f57600080547fffffffffffffffffffffffffffffffffffffffffffffffffffffffffffff00ff169055604051600181527f7f26b83ff96e1f2b6a682f133852f6798a09c465da95921460cefb38474024989060200160405180910390a15050565b73ffffffffffffffffffffffffffffffffffffffff808316600090815261010260209081526040808320938516835292905220545b92915050565b73ffffffffffffffffffffffffffffffffffffffff81166000908152610100602052604081205490819003611443576040517fc1ab6dc100000000000000000000000000000000000000000000000000000000815260040160405180910390fd5b61146573ffffffffffffffffffffffffffffffffffffffff8316333084611ae6565b505033600090815260ff6020526040902080547fffffffffffffffffffffffffffffffffffffffffffffffffffffffffffffff00166001179055565b6114a961182d565b60c9805473ffffffffffffffffffffffffffffffffffffffff83167fffffffffffffffffffffffff0000000000000000000000000000000000000000909116811790915561150c60975473ffffffffffffffffffffffffffffffffffffffff1690565b73ffffffffffffffffffffffffffffffffffffffff167f38d16b8cac22d99fc7c124b9cd0de2d3fa1faef420bfe791d8c362d765e2270060405160405180910390a350565b61155961182d565b73ffffffffffffffffffffffffffffffffffffffff82166000818152610103602090815260409182902080547fffffffffffffffffffffffffffffffffffffffffffffffffffffffffffffff001685151590811790915591519182527fc648f6265408cc54c0dc26d24ba51dfc9f35ce1a63baa2228f65d93aaf11cc67910160405180910390a25050565b6000826115f18584611b4a565b14949350505050565b80471015611664576040517f08c379a000000000000000000000000000000000000000000000000000000000815260206004820152601d60248201527f416464726573733a20696e73756666696369656e742062616c616e6365000000604482015260640161087c565b60008273ffffffffffffffffffffffffffffffffffffffff168260405160006040518083038185875af1925050503d80600081146116be576040519150601f19603f3d011682016040523d82523d6000602084013e6116c3565b606091505b5050905080611754576040517f08c379a000000000000000000000000000000000000000000000000000000000815260206004820152603a60248201527f416464726573733a20756e61626c6520746f2073656e642076616c75652c207260448201527f6563697069656e74206d61792068617665207265766572746564000000000000606482015260840161087c565b505050565b60405173ffffffffffffffffffffffffffffffffffffffff83166024820152604481018290526117549084907fa9059cbb00000000000000000000000000000000000000000000000000000000906064015b604080517fffffffffffffffffffffffffffffffffffffffffffffffffffffffffffffffe08184030181529190526020810180517bffffffffffffffffffffffffffffffffffffffffffffffffffffffff167fffffffff0000000000000000000000000000000000000000000000000000000090931692909217909152611b97565b60975473ffffffffffffffffffffffffffffffffffffffff163314610fb3576040517f08c379a000000000000000000000000000000000000000000000000000000000815260206004820181905260248201527f4f776e61626c653a2063616c6c6572206973206e6f7420746865206f776e6572604482015260640161087c565b610c7d61182d565b7f4910fdfa16fed3260ed0e7147f7cc6da11a60208b5b9406d12a635614ffd91435460ff16156118e95761175483611ca6565b8273ffffffffffffffffffffffffffffffffffffffff166352d1902d6040518163ffffffff1660e01b8152600401602060405180830381865afa92505050801561196e575060408051601f3d9081017fffffffffffffffffffffffffffffffffffffffffffffffffffffffffffffffe016820190925261196b918101906124a5565b60015b6119fa576040517f08c379a000000000000000000000000000000000000000000000000000000000815260206004820152602e60248201527f45524331393637557067726164653a206e657720696d706c656d656e7461746960448201527f6f6e206973206e6f742055555053000000000000000000000000000000000000606482015260840161087c565b7f360894a13ba1a3210667c828492db98dca3e2076cc3735a920a3ca505d382bbc8114611aa9576040517f08c379a000000000000000000000000000000000000000000000000000000000815260206004820152602960248201527f45524331393637557067726164653a20756e737570706f727465642070726f7860448201527f6961626c65555549440000000000000000000000000000000000000000000000606482015260840161087c565b50611754838383611db0565b60c980547fffffffffffffffffffffffff0000000000000000000000000000000000000000169055610c7d81611dd5565b60405173ffffffffffffffffffffffffffffffffffffffff80851660248301528316604482015260648101829052611b449085907f23b872dd00000000000000000000000000000000000000000000000000000000906084016117ab565b50505050565b600081815b8451811015611b8f57611b7b82868381518110611b6e57611b6e6124ef565b6020026020010151611e4c565b915080611b878161251e565b915050611b4f565b509392505050565b6000611bf9826040518060400160405280602081526020017f5361666545524332303a206c6f772d6c6576656c2063616c6c206661696c65648152508573ffffffffffffffffffffffffffffffffffffffff16611e7e9092919063ffffffff16565b9050805160001480611c1a575080806020019051810190611c1a9190612556565b611754576040517f08c379a000000000000000000000000000000000000000000000000000000000815260206004820152602a60248201527f5361666545524332303a204552433230206f7065726174696f6e20646964206e60448201527f6f74207375636365656400000000000000000000000000000000000000000000606482015260840161087c565b73ffffffffffffffffffffffffffffffffffffffff81163b611d4a576040517f08c379a000000000000000000000000000000000000000000000000000000000815260206004820152602d60248201527f455243313936373a206e657720696d706c656d656e746174696f6e206973206e60448201527f6f74206120636f6e747261637400000000000000000000000000000000000000606482015260840161087c565b7f360894a13ba1a3210667c828492db98dca3e2076cc3735a920a3ca505d382bbc80547fffffffffffffffffffffffff00000000000000000000000000000000000000001673ffffffffffffffffffffffffffffffffffffffff92909216919091179055565b611db983611e95565b600082511180611dc65750805b1561175457611b448383611ee2565b6097805473ffffffffffffffffffffffffffffffffffffffff8381167fffffffffffffffffffffffff0000000000000000000000000000000000000000831681179093556040519116919082907f8be0079c531659141344cd1fd0a4f28419497f9722a3daafe3b4186f6b6457e090600090a35050565b6000818310611e68576000828152602084905260409020611e77565b60008381526020839052604090205b9392505050565b6060611e8d8484600085611f07565b949350505050565b611e9e81611ca6565b60405173ffffffffffffffffffffffffffffffffffffffff8216907fbc7cd75a20ee27fd9adebab32041f755214dbc6bffa90cc0225b39da2e5c2d3b90600090a250565b6060611e77838360405180606001604052806027815260200161260560279139612020565b606082471015611f99576040517f08c379a000000000000000000000000000000000000000000000000000000000815260206004820152602660248201527f416464726573733a20696e73756666696369656e742062616c616e636520666f60448201527f722063616c6c0000000000000000000000000000000000000000000000000000606482015260840161087c565b6000808673ffffffffffffffffffffffffffffffffffffffff168587604051611fc29190612597565b60006040518083038185875af1925050503d8060008114611fff576040519150601f19603f3d011682016040523d82523d6000602084013e612004565b606091505b5091509150612015878383876120a5565b979650505050505050565b60606000808573ffffffffffffffffffffffffffffffffffffffff168560405161204a9190612597565b600060405180830381855af49150503d8060008114612085576040519150601f19603f3d011682016040523d82523d6000602084013e61208a565b606091505b509150915061209b868383876120a5565b9695505050505050565b6060831561213b5782516000036121345773ffffffffffffffffffffffffffffffffffffffff85163b612134576040517f08c379a000000000000000000000000000000000000000000000000000000000815260206004820152601d60248201527f416464726573733a2063616c6c20746f206e6f6e2d636f6e7472616374000000604482015260640161087c565b5081611e8d565b611e8d83838151156121505781518083602001fd5b806040517f08c379a000000000000000000000000000000000000000000000000000000000815260040161087c91906125b3565b73ffffffffffffffffffffffffffffffffffffffff81168114610c7d57600080fd5b600080600080606085870312156121bc57600080fd5b84356121c781612184565b935060208501359250604085013567ffffffffffffffff808211156121eb57600080fd5b818701915087601f8301126121ff57600080fd5b81358181111561220e57600080fd5b8860208260051b850101111561222357600080fd5b95989497505060200194505050565b6000806040838503121561224557600080fd5b823561225081612184565b946020939093013593505050565b60006020828403121561227057600080fd5b8135611e7781612184565b60006020828403121561228d57600080fd5b5035919050565b7f4e487b7100000000000000000000000000000000000000000000000000000000600052604160045260246000fd5b600080604083850312156122d657600080fd5b82356122e181612184565b9150602083013567ffffffffffffffff808211156122fe57600080fd5b818501915085601f83011261231257600080fd5b81358181111561232457612324612294565b604051601f82017fffffffffffffffffffffffffffffffffffffffffffffffffffffffffffffffe0908116603f0116810190838211818310171561236a5761236a612294565b8160405282815288602084870101111561238357600080fd5b8260208601602083013760006020848301015280955050505050509250929050565b600080604083850312156123b857600080fd5b82356123c381612184565b915060208301356123d381612184565b809150509250929050565b60028110612415577f4e487b7100000000000000000000000000000000000000000000000000000000600052602160045260246000fd5b9052565b602081016113dc82846123de565b8015158114610c7d57600080fd5b6000806040838503121561244857600080fd5b823561245381612184565b915060208301356123d381612427565b7f4e487b7100000000000000000000000000000000000000000000000000000000600052601160045260246000fd5b818103818111156113dc576113dc612463565b6000602082840312156124b757600080fd5b5051919050565b73ffffffffffffffffffffffffffffffffffffffff841681526020810183905260608101611e8d60408301846123de565b7f4e487b7100000000000000000000000000000000000000000000000000000000600052603260045260246000fd5b60007fffffffffffffffffffffffffffffffffffffffffffffffffffffffffffffffff820361254f5761254f612463565b5060010190565b60006020828403121561256857600080fd5b8151611e7781612427565b60005b8381101561258e578181015183820152602001612576565b50506000910152565b600082516125a9818460208701612573565b9190910192915050565b60208152600082518060208401526125d2816040850160208701612573565b601f017fffffffffffffffffffffffffffffffffffffffffffffffffffffffffffffffe016919091016040019291505056fe416464726573733a206c6f772d6c6576656c2064656c65676174652063616c6c206661696c6564a164736f6c6343000813000a",
  "devdoc": {
    "events": {
      "AdminChanged(address,address)": {
        "details": "Emitted when the admin account has changed."
      },
      "BeaconUpgraded(address)": {
        "details": "Emitted when the beacon is changed."
      },
      "Initialized(uint8)": {
        "details": "Triggered when the contract has been initialized or reinitialized."
      },
      "Upgraded(address)": {
        "details": "Emitted when the implementation is upgraded."
      }
    },
    "kind": "dev",
    "methods": {
      "acceptOwnership()": {
        "details": "The new owner accepts the ownership transfer."
      },
      "checkIsProvedHuman(address)": {
        "details": "return whether the address have paid for proof to be human",
        "params": {
          "addr": "address"
        }
      },
      "getClaimedReward(address,address)": {
        "details": "see how many reward can be claimed",
        "params": {
          "token": "address of reward token",
          "user": "address of user"
        }
      },
      "getProofAmount()": {
        "details": "get proof of human native token amount"
      },
      "getPublicationTokenFee(address)": {
        "details": "get publication fee in specific erc20",
        "params": {
          "token": "erc token address"
        }
      },
      "owner()": {
        "details": "Returns the address of the current owner."
      },
      "pendingOwner()": {
        "details": "Returns the address of the pending owner."
      },
      "proveToBeHuman()": {
        "details": "send native token to prove is human"
      },
      "proxiableUUID()": {
        "details": "Implementation of the ERC1822 {proxiableUUID} function. This returns the storage slot used by the implementation. It is used to validate the implementation's compatibility when performing an upgrade. IMPORTANT: A proxy pointing at a proxiable contract should not be considered proxiable itself, because this risks bricking a proxy that upgrades to it, by delegating to itself until out of gas. Thus it is critical that this function revert if invoked through a proxy. This is guaranteed by the `notDelegated` modifier."
      },
      "publishGame()": {
        "details": "publish game with native token"
      },
      "publishGame(address)": {
        "details": "publish game with specific erc20 token"
      },
      "renounceOwnership()": {
        "details": "Leaves the contract without owner. It will not be possible to call `onlyOwner` functions. Can only be called by the current owner. NOTE: Renouncing ownership will leave the contract without an owner, thereby disabling any functionality that is only available to the owner."
      },
      "setProofAmount(uint256)": {
        "details": "set proof amount",
        "params": {
          "amount": "amount of native token"
        }
      },
      "setPublicationFee(uint256)": {
        "details": "set publication fee in native token",
        "params": {
          "fee": "amount of native token"
        }
      },
      "setPublicationTokenFee(address,uint256)": {
        "details": "set publication fee in erc20 token",
        "params": {
          "amount": "amount of erc20 token",
          "token": "address of erc20 token"
        }
      },
      "setTokenDisRoot(address,bytes32)": {
        "details": "update token distribution merkle root"
      },
      "transferOwnership(address)": {
        "details": "Starts the ownership transfer of the contract to a new account. Replaces the pending transfer if there is one. Can only be called by the current owner."
      },
      "upgradeTo(address)": {
        "custom:oz-upgrades-unsafe-allow-reachable": "delegatecall",
        "details": "Upgrade the implementation of the proxy to `newImplementation`. Calls {_authorizeUpgrade}. Emits an {Upgraded} event."
      },
      "upgradeToAndCall(address,bytes)": {
        "custom:oz-upgrades-unsafe-allow-reachable": "delegatecall",
        "details": "Upgrade the implementation of the proxy to `newImplementation`, and subsequently execute the function call encoded in `data`. Calls {_authorizeUpgrade}. Emits an {Upgraded} event."
      },
      "withdrawErc20(address,address)": {
        "details": "withdraw erc20 token",
        "params": {
          "dst": "recipient of the erc20 token",
          "token": "address of erc20"
        }
      },
      "withdrawFee(address)": {
        "details": "withdraw native token",
        "params": {
          "dst": "recipient of the native token"
        }
      }
    },
    "version": 1
  },
  "userdoc": {
    "kind": "user",
    "methods": {},
    "version": 1
  },
  "storageLayout": {
    "storage": [
      {
        "astId": 609,
        "contract": "src/arcana/v2/P12ArcanaV2.sol:P12ArcanaV2",
        "label": "_initialized",
        "offset": 0,
        "slot": "0",
        "type": "t_uint8"
      },
      {
        "astId": 612,
        "contract": "src/arcana/v2/P12ArcanaV2.sol:P12ArcanaV2",
        "label": "_initializing",
        "offset": 1,
        "slot": "0",
        "type": "t_bool"
      },
      {
        "astId": 591,
        "contract": "src/arcana/v2/P12ArcanaV2.sol:P12ArcanaV2",
        "label": "__gap",
        "offset": 0,
        "slot": "1",
        "type": "t_array(t_uint256)50_storage"
      },
      {
        "astId": 906,
        "contract": "src/arcana/v2/P12ArcanaV2.sol:P12ArcanaV2",
        "label": "__gap",
        "offset": 0,
        "slot": "51",
        "type": "t_array(t_uint256)50_storage"
      },
      {
        "astId": 1278,
        "contract": "src/arcana/v2/P12ArcanaV2.sol:P12ArcanaV2",
        "label": "__gap",
        "offset": 0,
        "slot": "101",
        "type": "t_array(t_uint256)50_storage"
      },
      {
        "astId": 116,
        "contract": "src/arcana/v2/P12ArcanaV2.sol:P12ArcanaV2",
        "label": "_owner",
        "offset": 0,
        "slot": "151",
        "type": "t_address"
      },
      {
        "astId": 236,
        "contract": "src/arcana/v2/P12ArcanaV2.sol:P12ArcanaV2",
        "label": "__gap",
        "offset": 0,
        "slot": "152",
        "type": "t_array(t_uint256)49_storage"
      },
      {
        "astId": 25,
        "contract": "src/arcana/v2/P12ArcanaV2.sol:P12ArcanaV2",
        "label": "_pendingOwner",
        "offset": 0,
        "slot": "201",
        "type": "t_address"
      },
      {
        "astId": 104,
        "contract": "src/arcana/v2/P12ArcanaV2.sol:P12ArcanaV2",
        "label": "__gap",
        "offset": 0,
        "slot": "202",
        "type": "t_array(t_uint256)49_storage"
      },
      {
        "astId": 2745,
        "contract": "src/arcana/v2/P12ArcanaV2.sol:P12ArcanaV2",
        "label": "_proofAmount",
        "offset": 0,
        "slot": "251",
        "type": "t_uint256"
      },
      {
        "astId": 2747,
        "contract": "src/arcana/v2/P12ArcanaV2.sol:P12ArcanaV2",
        "label": "publicationFee",
        "offset": 0,
        "slot": "252",
        "type": "t_uint256"
      },
      {
        "astId": 2754,
        "contract": "src/arcana/v2/P12ArcanaV2.sol:P12ArcanaV2",
        "label": "activeness",
        "offset": 0,
        "slot": "253",
        "type": "t_mapping(t_address,t_mapping(t_bytes32,t_enum(Activeness)3289))"
      },
      {
        "astId": 2758,
        "contract": "src/arcana/v2/P12ArcanaV2.sol:P12ArcanaV2",
        "label": "_isProvedHuman",
        "offset": 0,
        "slot": "254",
        "type": "t_mapping(t_address,t_bool)"
      },
      {
        "astId": 2762,
        "contract": "src/arcana/v2/P12ArcanaV2.sol:P12ArcanaV2",
        "label": "qualDevs",
        "offset": 0,
        "slot": "255",
        "type": "t_mapping(t_address,t_bool)"
      },
      {
        "astId": 2766,
        "contract": "src/arcana/v2/P12ArcanaV2.sol:P12ArcanaV2",
        "label": "_publishTokenFee",
        "offset": 0,
        "slot": "256",
        "type": "t_mapping(t_address,t_uint256)"
      },
      {
        "astId": 2770,
        "contract": "src/arcana/v2/P12ArcanaV2.sol:P12ArcanaV2",
        "label": "_tokenDisRoot",
        "offset": 0,
        "slot": "257",
        "type": "t_mapping(t_address,t_bytes32)"
      },
      {
        "astId": 2776,
        "contract": "src/arcana/v2/P12ArcanaV2.sol:P12ArcanaV2",
        "label": "_claimedAmount",
        "offset": 0,
        "slot": "258",
        "type": "t_mapping(t_address,t_mapping(t_address,t_uint256))"
      },
      {
        "astId": 2780,
        "contract": "src/arcana/v2/P12ArcanaV2.sol:P12ArcanaV2",
        "label": "_signers",
        "offset": 0,
        "slot": "259",
        "type": "t_mapping(t_address,t_bool)"
      },
      {
        "astId": 2784,
        "contract": "src/arcana/v2/P12ArcanaV2.sol:P12ArcanaV2",
        "label": "__gap",
        "offset": 0,
        "slot": "260",
        "type": "t_array(t_uint256)41_storage"
      }
    ],
    "types": {
      "t_address": {
        "encoding": "inplace",
        "label": "address",
        "numberOfBytes": "20"
      },
      "t_array(t_uint256)41_storage": {
        "base": "t_uint256",
        "encoding": "inplace",
        "label": "uint256[41]",
        "numberOfBytes": "1312"
      },
      "t_array(t_uint256)49_storage": {
        "base": "t_uint256",
        "encoding": "inplace",
        "label": "uint256[49]",
        "numberOfBytes": "1568"
      },
      "t_array(t_uint256)50_storage": {
        "base": "t_uint256",
        "encoding": "inplace",
        "label": "uint256[50]",
        "numberOfBytes": "1600"
      },
      "t_bool": {
        "encoding": "inplace",
        "label": "bool",
        "numberOfBytes": "1"
      },
      "t_bytes32": {
        "encoding": "inplace",
        "label": "bytes32",
        "numberOfBytes": "32"
      },
      "t_enum(Activeness)3289": {
        "encoding": "inplace",
        "label": "enum IP12ArcanaDef.Activeness",
        "numberOfBytes": "1"
      },
      "t_mapping(t_address,t_bool)": {
        "encoding": "mapping",
        "key": "t_address",
        "label": "mapping(address => bool)",
        "numberOfBytes": "32",
        "value": "t_bool"
      },
      "t_mapping(t_address,t_bytes32)": {
        "encoding": "mapping",
        "key": "t_address",
        "label": "mapping(address => bytes32)",
        "numberOfBytes": "32",
        "value": "t_bytes32"
      },
      "t_mapping(t_address,t_mapping(t_address,t_uint256))": {
        "encoding": "mapping",
        "key": "t_address",
        "label": "mapping(address => mapping(address => uint256))",
        "numberOfBytes": "32",
        "value": "t_mapping(t_address,t_uint256)"
      },
      "t_mapping(t_address,t_mapping(t_bytes32,t_enum(Activeness)3289))": {
        "encoding": "mapping",
        "key": "t_address",
        "label": "mapping(address => mapping(bytes32 => enum IP12ArcanaDef.Activeness))",
        "numberOfBytes": "32",
        "value": "t_mapping(t_bytes32,t_enum(Activeness)3289)"
      },
      "t_mapping(t_address,t_uint256)": {
        "encoding": "mapping",
        "key": "t_address",
        "label": "mapping(address => uint256)",
        "numberOfBytes": "32",
        "value": "t_uint256"
      },
      "t_mapping(t_bytes32,t_enum(Activeness)3289)": {
        "encoding": "mapping",
        "key": "t_bytes32",
        "label": "mapping(bytes32 => enum IP12ArcanaDef.Activeness)",
        "numberOfBytes": "32",
        "value": "t_enum(Activeness)3289"
      },
      "t_uint256": {
        "encoding": "inplace",
        "label": "uint256",
        "numberOfBytes": "32"
      },
      "t_uint8": {
        "encoding": "inplace",
        "label": "uint8",
        "numberOfBytes": "1"
      }
    }
  }
}