{
  "address": "0xa2AbF256845D3c047129FEfd9C2C95e55974b6Bc",
  "abi": [
    {
      "inputs": [],
      "name": "CannotBeProved",
      "type": "error"
    },
    {
      "inputs": [],
      "name": "InvalidToken",
      "type": "error"
    },
    {
      "anonymous": false,
      "inputs": [
        {
          "indexed": false,
          "internalType": "address",
          "name": "previousAdmin",
          "type": "address"
        },
        {
          "indexed": false,
          "internalType": "address",
          "name": "newAdmin",
          "type": "address"
        }
      ],
      "name": "AdminChanged",
      "type": "event"
    },
    {
      "anonymous": false,
      "inputs": [
        {
          "indexed": true,
          "internalType": "address",
          "name": "beacon",
          "type": "address"
        }
      ],
      "name": "BeaconUpgraded",
      "type": "event"
    },
    {
      "anonymous": false,
      "inputs": [
        {
          "indexed": false,
          "internalType": "uint8",
          "name": "version",
          "type": "uint8"
        }
      ],
      "name": "Initialized",
      "type": "event"
    },
    {
      "anonymous": false,
      "inputs": [
        {
          "indexed": true,
          "internalType": "address",
          "name": "previousOwner",
          "type": "address"
        },
        {
          "indexed": true,
          "internalType": "address",
          "name": "newOwner",
          "type": "address"
        }
      ],
      "name": "OwnershipTransferStarted",
      "type": "event"
    },
    {
      "anonymous": false,
      "inputs": [
        {
          "indexed": true,
          "internalType": "address",
          "name": "previousOwner",
          "type": "address"
        },
        {
          "indexed": true,
          "internalType": "address",
          "name": "newOwner",
          "type": "address"
        }
      ],
      "name": "OwnershipTransferred",
      "type": "event"
    },
    {
      "anonymous": false,
      "inputs": [
        {
          "indexed": false,
          "internalType": "address",
          "name": "user",
          "type": "address"
        },
        {
          "indexed": false,
          "internalType": "bytes32",
          "name": "campaign",
          "type": "bytes32"
        },
        {
          "indexed": false,
          "internalType": "enum IP12ArcanaDef.Activeness",
          "name": "activeStatus",
          "type": "uint8"
        }
      ],
      "name": "RequestParticipant",
      "type": "event"
    },
    {
      "anonymous": false,
      "inputs": [
        {
          "indexed": true,
          "internalType": "address",
          "name": "implementation",
          "type": "address"
        }
      ],
      "name": "Upgraded",
      "type": "event"
    },
    {
      "inputs": [],
      "name": "acceptOwnership",
      "outputs": [],
      "stateMutability": "nonpayable",
      "type": "function"
    },
    {
      "inputs": [
        {
          "internalType": "address",
          "name": "",
          "type": "address"
        },
        {
          "internalType": "bytes32",
          "name": "",
          "type": "bytes32"
        }
      ],
      "name": "activeness",
      "outputs": [
        {
          "internalType": "enum IP12ArcanaDef.Activeness",
          "name": "",
          "type": "uint8"
        }
      ],
      "stateMutability": "view",
      "type": "function"
    },
    {
      "inputs": [
        {
          "internalType": "address",
          "name": "addr",
          "type": "address"
        }
      ],
      "name": "checkIsProvedHuman",
      "outputs": [
        {
          "internalType": "bool",
          "name": "",
          "type": "bool"
        }
      ],
      "stateMutability": "view",
      "type": "function"
    },
    {
      "inputs": [],
      "name": "getProofAmount",
      "outputs": [
        {
          "internalType": "uint256",
          "name": "",
          "type": "uint256"
        }
      ],
      "stateMutability": "view",
      "type": "function"
    },
    {
      "inputs": [
        {
          "internalType": "address",
          "name": "token",
          "type": "address"
        }
      ],
      "name": "getPublicationTokenFee",
      "outputs": [
        {
          "internalType": "uint256",
          "name": "",
          "type": "uint256"
        }
      ],
      "stateMutability": "view",
      "type": "function"
    },
    {
      "inputs": [
        {
          "internalType": "address",
          "name": "owner_",
          "type": "address"
        }
      ],
      "name": "initialize",
      "outputs": [],
      "stateMutability": "nonpayable",
      "type": "function"
    },
    {
      "inputs": [],
      "name": "owner",
      "outputs": [
        {
          "internalType": "address",
          "name": "",
          "type": "address"
        }
      ],
      "stateMutability": "view",
      "type": "function"
    },
    {
      "inputs": [],
      "name": "pendingOwner",
      "outputs": [
        {
          "internalType": "address",
          "name": "",
          "type": "address"
        }
      ],
      "stateMutability": "view",
      "type": "function"
    },
    {
      "inputs": [],
      "name": "proveToBeHuman",
      "outputs": [],
      "stateMutability": "payable",
      "type": "function"
    },
    {
      "inputs": [],
      "name": "proxiableUUID",
      "outputs": [
        {
          "internalType": "bytes32",
          "name": "",
          "type": "bytes32"
        }
      ],
      "stateMutability": "view",
      "type": "function"
    },
    {
      "inputs": [
        {
          "internalType": "address",
          "name": "token",
          "type": "address"
        }
      ],
      "name": "publicGame",
      "outputs": [],
      "stateMutability": "nonpayable",
      "type": "function"
    },
    {
      "inputs": [],
      "name": "publicationFee",
      "outputs": [
        {
          "internalType": "uint256",
          "name": "",
          "type": "uint256"
        }
      ],
      "stateMutability": "view",
      "type": "function"
    },
    {
      "inputs": [],
      "name": "publishGame",
      "outputs": [],
      "stateMutability": "payable",
      "type": "function"
    },
    {
      "inputs": [
        {
          "internalType": "address",
          "name": "",
          "type": "address"
        }
      ],
      "name": "qualDevs",
      "outputs": [
        {
          "internalType": "bool",
          "name": "",
          "type": "bool"
        }
      ],
      "stateMutability": "view",
      "type": "function"
    },
    {
      "inputs": [],
      "name": "renounceOwnership",
      "outputs": [],
      "stateMutability": "nonpayable",
      "type": "function"
    },
    {
      "inputs": [
        {
          "internalType": "bytes32",
          "name": "campaign",
          "type": "bytes32"
        }
      ],
      "name": "requestParticipant",
      "outputs": [],
      "stateMutability": "nonpayable",
      "type": "function"
    },
    {
      "inputs": [
        {
          "internalType": "uint256",
          "name": "amount",
          "type": "uint256"
        }
      ],
      "name": "setProofAmount",
      "outputs": [],
      "stateMutability": "nonpayable",
      "type": "function"
    },
    {
      "inputs": [
        {
          "internalType": "uint256",
          "name": "fee",
          "type": "uint256"
        }
      ],
      "name": "setPublicationFee",
      "outputs": [],
      "stateMutability": "nonpayable",
      "type": "function"
    },
    {
      "inputs": [
        {
          "internalType": "address",
          "name": "token",
          "type": "address"
        },
        {
          "internalType": "uint256",
          "name": "amount",
          "type": "uint256"
        }
      ],
      "name": "setPublicationTokenFee",
      "outputs": [],
      "stateMutability": "nonpayable",
      "type": "function"
    },
    {
      "inputs": [
        {
          "internalType": "address",
          "name": "newOwner",
          "type": "address"
        }
      ],
      "name": "transferOwnership",
      "outputs": [],
      "stateMutability": "nonpayable",
      "type": "function"
    },
    {
      "inputs": [
        {
          "internalType": "address",
          "name": "newImplementation",
          "type": "address"
        }
      ],
      "name": "upgradeTo",
      "outputs": [],
      "stateMutability": "nonpayable",
      "type": "function"
    },
    {
      "inputs": [
        {
          "internalType": "address",
          "name": "newImplementation",
          "type": "address"
        },
        {
          "internalType": "bytes",
          "name": "data",
          "type": "bytes"
        }
      ],
      "name": "upgradeToAndCall",
      "outputs": [],
      "stateMutability": "payable",
      "type": "function"
    },
    {
      "inputs": [
        {
          "internalType": "address payable",
          "name": "dst",
          "type": "address"
        }
      ],
      "name": "withdrawFee",
      "outputs": [],
      "stateMutability": "nonpayable",
      "type": "function"
    }
  ],
  "transactionHash": "0x8b7094e0c44b3198aa66fde9aacf2f4758c79cfd6b684fb9f6ac877e3ec08a56",
  "args": [],
  "numDeployments": 4,
  "solcInputHash": "82857449157cacd8bffed665d505d48a",
  "bytecode": "0x60a06040523060805234801561001457600080fd5b50608051611c5d61004c600039600081816106fe015281816107ae01528181610910015281816109c00152610b050152611c5d6000f3fe6080604052600436106101805760003560e01c806379ba5097116100d6578063af8996f11161007f578063f2fde38b11610059578063f2fde38b14610458578063f62ba90614610478578063fd9fffd8146104bc57600080fd5b8063af8996f1146103ed578063c4d66de81461040d578063e30c39781461042d57600080fd5b8063a56c95cb116100b0578063a56c95cb14610354578063a7f6879214610385578063ad02625f146103a557600080fd5b806379ba5097146102d357806386a1eed1146102e85780638da5cb5b1461030857600080fd5b806336ea88811161013857806369263e9d1161011257806369263e9d146102885780636e0e540c146102a8578063715018a6146102be57600080fd5b806336ea8881146102325780634f1ef2861461025257806352d1902d1461026557600080fd5b80632367d3a5116101695780632367d3a5146101af57806324ac662a1461020a5780633659cfe61461021257600080fd5b806316c453f6146101855780631ac3ddeb1461018f575b600080fd5b61018d6104d1565b005b34801561019b57600080fd5b5061018d6101aa366004611969565b61057c565b3480156101bb57600080fd5b506101f56101ca366004611969565b73ffffffffffffffffffffffffffffffffffffffff16600090815260fe602052604090205460ff1690565b60405190151581526020015b60405180910390f35b61018d610671565b34801561021e57600080fd5b5061018d61022d366004611969565b6106e7565b34801561023e57600080fd5b5061018d61024d36600461198d565b6108ec565b61018d6102603660046119d5565b6108f9565b34801561027157600080fd5b5061027a610aeb565b604051908152602001610201565b34801561029457600080fd5b5061018d6102a3366004611ab7565b610bd7565b3480156102b457600080fd5b5061027a60fc5481565b3480156102ca57600080fd5b5061018d610c09565b3480156102df57600080fd5b5061018d610c1d565b3480156102f457600080fd5b5061018d610303366004611969565b610ccf565b34801561031457600080fd5b5060975473ffffffffffffffffffffffffffffffffffffffff165b60405173ffffffffffffffffffffffffffffffffffffffff9091168152602001610201565b34801561036057600080fd5b506101f561036f366004611969565b60ff602081905260009182526040909120541681565b34801561039157600080fd5b5061018d6103a036600461198d565b610d8e565b3480156103b157600080fd5b506103e06103c0366004611ab7565b60fd60209081526000928352604080842090915290825290205460ff1681565b6040516102019190611b1e565b3480156103f957600080fd5b5061018d61040836600461198d565b610e13565b34801561041957600080fd5b5061018d610428366004611969565b610cc6565b34801561043957600080fd5b5060c95473ffffffffffffffffffffffffffffffffffffffff1661032f565b34801561046457600080fd5b5061018d610473366004611969565b610e20565b34801561048457600080fd5b5061027a610493366004611969565b73ffffffffffffffffffffffffffffffffffffffff166000908152610100602052604090205490565b3480156104c857600080fd5b5060fb5461027a565b60fc54341015610542576040517f08c379a000000000000000000000000000000000000000000000000000000000815260206004820152600e60248201527f666565206e6f7420656e6f75676800000000000000000000000000000000000060448201526064015b60405180910390fd5b33600090815260ff6020526040902080547fffffffffffffffffffffffffffffffffffffffffffffffffffffffffffffff00166001179055565b610584610ed0565b6105a473ffffffffffffffffffffffffffffffffffffffff821647610f51565b60405160009073ffffffffffffffffffffffffffffffffffffffff8316903031908381818185875af1925050503d80600081146105fd576040519150601f19603f3d011682016040523d82523d6000602084013e610602565b606091505b505090508061066d576040517f08c379a000000000000000000000000000000000000000000000000000000000815260206004820152600d60248201527f7769746864726177206661696c000000000000000000000000000000000000006044820152606401610539565b5050565b60fb543410156106ad576040517fb86d6d1800000000000000000000000000000000000000000000000000000000815260040160405180910390fd5b33600090815260fe6020526040902080547fffffffffffffffffffffffffffffffffffffffffffffffffffffffffffffff00166001179055565b73ffffffffffffffffffffffffffffffffffffffff7f00000000000000000000000000000000000000000000000000000000000000001630036107ac576040517f08c379a000000000000000000000000000000000000000000000000000000000815260206004820152602c60248201527f46756e6374696f6e206d7573742062652063616c6c6564207468726f7567682060448201527f64656c656761746563616c6c00000000000000000000000000000000000000006064820152608401610539565b7f000000000000000000000000000000000000000000000000000000000000000073ffffffffffffffffffffffffffffffffffffffff166108217f360894a13ba1a3210667c828492db98dca3e2076cc3735a920a3ca505d382bbc5473ffffffffffffffffffffffffffffffffffffffff1690565b73ffffffffffffffffffffffffffffffffffffffff16146108c4576040517f08c379a000000000000000000000000000000000000000000000000000000000815260206004820152602c60248201527f46756e6374696f6e206d7573742062652063616c6c6564207468726f7567682060448201527f6163746976652070726f787900000000000000000000000000000000000000006064820152608401610539565b6108cd816110b0565b604080516000808252602082019092526108e9918391906110b8565b50565b6108f4610ed0565b60fb55565b73ffffffffffffffffffffffffffffffffffffffff7f00000000000000000000000000000000000000000000000000000000000000001630036109be576040517f08c379a000000000000000000000000000000000000000000000000000000000815260206004820152602c60248201527f46756e6374696f6e206d7573742062652063616c6c6564207468726f7567682060448201527f64656c656761746563616c6c00000000000000000000000000000000000000006064820152608401610539565b7f000000000000000000000000000000000000000000000000000000000000000073ffffffffffffffffffffffffffffffffffffffff16610a337f360894a13ba1a3210667c828492db98dca3e2076cc3735a920a3ca505d382bbc5473ffffffffffffffffffffffffffffffffffffffff1690565b73ffffffffffffffffffffffffffffffffffffffff1614610ad6576040517f08c379a000000000000000000000000000000000000000000000000000000000815260206004820152602c60248201527f46756e6374696f6e206d7573742062652063616c6c6564207468726f7567682060448201527f6163746976652070726f787900000000000000000000000000000000000000006064820152608401610539565b610adf826110b0565b61066d828260016110b8565b60003073ffffffffffffffffffffffffffffffffffffffff7f00000000000000000000000000000000000000000000000000000000000000001614610bb2576040517f08c379a000000000000000000000000000000000000000000000000000000000815260206004820152603860248201527f555550535570677261646561626c653a206d757374206e6f742062652063616c60448201527f6c6564207468726f7567682064656c656761746563616c6c00000000000000006064820152608401610539565b507f360894a13ba1a3210667c828492db98dca3e2076cc3735a920a3ca505d382bbc90565b610bdf610ed0565b73ffffffffffffffffffffffffffffffffffffffff90911660009081526101006020526040902055565b610c11610ed0565b610c1b60006112b7565b565b60c954339073ffffffffffffffffffffffffffffffffffffffff168114610cc6576040517f08c379a000000000000000000000000000000000000000000000000000000000815260206004820152602960248201527f4f776e61626c6532537465703a2063616c6c6572206973206e6f74207468652060448201527f6e6577206f776e657200000000000000000000000000000000000000000000006064820152608401610539565b6108e9816112b7565b73ffffffffffffffffffffffffffffffffffffffff81166000908152610100602052604081205490819003610d30576040517fc1ab6dc100000000000000000000000000000000000000000000000000000000815260040160405180910390fd5b610d5273ffffffffffffffffffffffffffffffffffffffff83163330846112e8565b505033600090815260ff6020526040902080547fffffffffffffffffffffffffffffffffffffffffffffffffffffffffffffff00166001179055565b33600081815260fd602090815260408083208584529091529081902080547fffffffffffffffffffffffffffffffffffffffffffffffffffffffffffffff0016600190811790915590517f993d9a29df4b7ad9d20caaf063001a180cd798ccff52cb112ab0e11c2d3ba21492610e08929091859190611b2c565b60405180910390a150565b610e1b610ed0565b60fc55565b610e28610ed0565b60c9805473ffffffffffffffffffffffffffffffffffffffff83167fffffffffffffffffffffffff00000000000000000000000000000000000000009091168117909155610e8b60975473ffffffffffffffffffffffffffffffffffffffff1690565b73ffffffffffffffffffffffffffffffffffffffff167f38d16b8cac22d99fc7c124b9cd0de2d3fa1faef420bfe791d8c362d765e2270060405160405180910390a350565b60975473ffffffffffffffffffffffffffffffffffffffff163314610c1b576040517f08c379a000000000000000000000000000000000000000000000000000000000815260206004820181905260248201527f4f776e61626c653a2063616c6c6572206973206e6f7420746865206f776e65726044820152606401610539565b80471015610fbb576040517f08c379a000000000000000000000000000000000000000000000000000000000815260206004820152601d60248201527f416464726573733a20696e73756666696369656e742062616c616e63650000006044820152606401610539565b60008273ffffffffffffffffffffffffffffffffffffffff168260405160006040518083038185875af1925050503d8060008114611015576040519150601f19603f3d011682016040523d82523d6000602084013e61101a565b606091505b50509050806110ab576040517f08c379a000000000000000000000000000000000000000000000000000000000815260206004820152603a60248201527f416464726573733a20756e61626c6520746f2073656e642076616c75652c207260448201527f6563697069656e74206d617920686176652072657665727465640000000000006064820152608401610539565b505050565b6108e9610ed0565b7f4910fdfa16fed3260ed0e7147f7cc6da11a60208b5b9406d12a635614ffd91435460ff16156110eb576110ab83611383565b8273ffffffffffffffffffffffffffffffffffffffff166352d1902d6040518163ffffffff1660e01b8152600401602060405180830381865afa925050508015611170575060408051601f3d9081017fffffffffffffffffffffffffffffffffffffffffffffffffffffffffffffffe016820190925261116d91810190611b5d565b60015b6111fc576040517f08c379a000000000000000000000000000000000000000000000000000000000815260206004820152602e60248201527f45524331393637557067726164653a206e657720696d706c656d656e7461746960448201527f6f6e206973206e6f7420555550530000000000000000000000000000000000006064820152608401610539565b7f360894a13ba1a3210667c828492db98dca3e2076cc3735a920a3ca505d382bbc81146112ab576040517f08c379a000000000000000000000000000000000000000000000000000000000815260206004820152602960248201527f45524331393637557067726164653a20756e737570706f727465642070726f7860448201527f6961626c655555494400000000000000000000000000000000000000000000006064820152608401610539565b506110ab83838361148d565b60c980547fffffffffffffffffffffffff00000000000000000000000000000000000000001690556108e9816114b2565b6040805173ffffffffffffffffffffffffffffffffffffffff85811660248301528416604482015260648082018490528251808303909101815260849091019091526020810180517bffffffffffffffffffffffffffffffffffffffffffffffffffffffff167f23b872dd0000000000000000000000000000000000000000000000000000000017905261137d908590611529565b50505050565b73ffffffffffffffffffffffffffffffffffffffff81163b611427576040517f08c379a000000000000000000000000000000000000000000000000000000000815260206004820152602d60248201527f455243313936373a206e657720696d706c656d656e746174696f6e206973206e60448201527f6f74206120636f6e7472616374000000000000000000000000000000000000006064820152608401610539565b7f360894a13ba1a3210667c828492db98dca3e2076cc3735a920a3ca505d382bbc80547fffffffffffffffffffffffff00000000000000000000000000000000000000001673ffffffffffffffffffffffffffffffffffffffff92909216919091179055565b61149683611638565b6000825111806114a35750805b156110ab5761137d8383611685565b6097805473ffffffffffffffffffffffffffffffffffffffff8381167fffffffffffffffffffffffff0000000000000000000000000000000000000000831681179093556040519116919082907f8be0079c531659141344cd1fd0a4f28419497f9722a3daafe3b4186f6b6457e090600090a35050565b600061158b826040518060400160405280602081526020017f5361666545524332303a206c6f772d6c6576656c2063616c6c206661696c65648152508573ffffffffffffffffffffffffffffffffffffffff166116b39092919063ffffffff16565b90508051600014806115ac5750808060200190518101906115ac9190611b76565b6110ab576040517f08c379a000000000000000000000000000000000000000000000000000000000815260206004820152602a60248201527f5361666545524332303a204552433230206f7065726174696f6e20646964206e60448201527f6f742073756363656564000000000000000000000000000000000000000000006064820152608401610539565b61164181611383565b60405173ffffffffffffffffffffffffffffffffffffffff8216907fbc7cd75a20ee27fd9adebab32041f755214dbc6bffa90cc0225b39da2e5c2d3b90600090a250565b60606116aa8383604051806060016040528060278152602001611c2a602791396116ca565b90505b92915050565b60606116c2848460008561174f565b949350505050565b60606000808573ffffffffffffffffffffffffffffffffffffffff16856040516116f49190611bbc565b600060405180830381855af49150503d806000811461172f576040519150601f19603f3d011682016040523d82523d6000602084013e611734565b606091505b509150915061174586838387611868565b9695505050505050565b6060824710156117e1576040517f08c379a000000000000000000000000000000000000000000000000000000000815260206004820152602660248201527f416464726573733a20696e73756666696369656e742062616c616e636520666f60448201527f722063616c6c00000000000000000000000000000000000000000000000000006064820152608401610539565b6000808673ffffffffffffffffffffffffffffffffffffffff16858760405161180a9190611bbc565b60006040518083038185875af1925050503d8060008114611847576040519150601f19603f3d011682016040523d82523d6000602084013e61184c565b606091505b509150915061185d87838387611868565b979650505050505050565b606083156118fe5782516000036118f75773ffffffffffffffffffffffffffffffffffffffff85163b6118f7576040517f08c379a000000000000000000000000000000000000000000000000000000000815260206004820152601d60248201527f416464726573733a2063616c6c20746f206e6f6e2d636f6e74726163740000006044820152606401610539565b50816116c2565b6116c283838151156119135781518083602001fd5b806040517f08c379a00000000000000000000000000000000000000000000000000000000081526004016105399190611bd8565b73ffffffffffffffffffffffffffffffffffffffff811681146108e957600080fd5b60006020828403121561197b57600080fd5b813561198681611947565b9392505050565b60006020828403121561199f57600080fd5b5035919050565b7f4e487b7100000000000000000000000000000000000000000000000000000000600052604160045260246000fd5b600080604083850312156119e857600080fd5b82356119f381611947565b9150602083013567ffffffffffffffff80821115611a1057600080fd5b818501915085601f830112611a2457600080fd5b813581811115611a3657611a366119a6565b604051601f82017fffffffffffffffffffffffffffffffffffffffffffffffffffffffffffffffe0908116603f01168101908382118183101715611a7c57611a7c6119a6565b81604052828152886020848701011115611a9557600080fd5b8260208601602083013760006020848301015280955050505050509250929050565b60008060408385031215611aca57600080fd5b8235611ad581611947565b946020939093013593505050565b60028110611b1a577f4e487b7100000000000000000000000000000000000000000000000000000000600052602160045260246000fd5b9052565b602081016116ad8284611ae3565b73ffffffffffffffffffffffffffffffffffffffff8416815260208101839052606081016116c26040830184611ae3565b600060208284031215611b6f57600080fd5b5051919050565b600060208284031215611b8857600080fd5b8151801515811461198657600080fd5b60005b83811015611bb3578181015183820152602001611b9b565b50506000910152565b60008251611bce818460208701611b98565b9190910192915050565b6020815260008251806020840152611bf7816040850160208701611b98565b601f017fffffffffffffffffffffffffffffffffffffffffffffffffffffffffffffffe016919091016040019291505056fe416464726573733a206c6f772d6c6576656c2064656c65676174652063616c6c206661696c6564a164736f6c6343000813000a",
  "devdoc": {
    "events": {
      "AdminChanged(address,address)": {
        "details": "Emitted when the admin account has changed."
      },
      "BeaconUpgraded(address)": {
        "details": "Emitted when the beacon is changed."
      },
      "Initialized(uint8)": {
        "details": "Triggered when the contract has been initialized or reinitialized."
      },
      "Upgraded(address)": {
        "details": "Emitted when the implementation is upgraded."
      }
    },
    "kind": "dev",
    "methods": {
      "acceptOwnership()": {
        "details": "The new owner accepts the ownership transfer."
      },
      "owner()": {
        "details": "Returns the address of the current owner."
      },
      "pendingOwner()": {
        "details": "Returns the address of the pending owner."
      },
      "proxiableUUID()": {
        "details": "Implementation of the ERC1822 {proxiableUUID} function. This returns the storage slot used by the implementation. It is used to validate the implementation's compatibility when performing an upgrade. IMPORTANT: A proxy pointing at a proxiable contract should not be considered proxiable itself, because this risks bricking a proxy that upgrades to it, by delegating to itself until out of gas. Thus it is critical that this function revert if invoked through a proxy. This is guaranteed by the `notDelegated` modifier."
      },
      "renounceOwnership()": {
        "details": "Leaves the contract without owner. It will not be possible to call `onlyOwner` functions. Can only be called by the current owner. NOTE: Renouncing ownership will leave the contract without an owner, thereby disabling any functionality that is only available to the owner."
      },
      "transferOwnership(address)": {
        "details": "Starts the ownership transfer of the contract to a new account. Replaces the pending transfer if there is one. Can only be called by the current owner."
      },
      "upgradeTo(address)": {
        "custom:oz-upgrades-unsafe-allow-reachable": "delegatecall",
        "details": "Upgrade the implementation of the proxy to `newImplementation`. Calls {_authorizeUpgrade}. Emits an {Upgraded} event."
      },
      "upgradeToAndCall(address,bytes)": {
        "custom:oz-upgrades-unsafe-allow-reachable": "delegatecall",
        "details": "Upgrade the implementation of the proxy to `newImplementation`, and subsequently execute the function call encoded in `data`. Calls {_authorizeUpgrade}. Emits an {Upgraded} event."
      }
    },
    "version": 1
  },
  "userdoc": {
    "kind": "user",
    "methods": {},
    "version": 1
  },
  "storageLayout": {
    "storage": [
      {
        "astId": 609,
        "contract": "src/arcana/v2/P12ArcanaV2.sol:P12ArcanaV2",
        "label": "_initialized",
        "offset": 0,
        "slot": "0",
        "type": "t_uint8"
      },
      {
        "astId": 612,
        "contract": "src/arcana/v2/P12ArcanaV2.sol:P12ArcanaV2",
        "label": "_initializing",
        "offset": 1,
        "slot": "0",
        "type": "t_bool"
      },
      {
        "astId": 591,
        "contract": "src/arcana/v2/P12ArcanaV2.sol:P12ArcanaV2",
        "label": "__gap",
        "offset": 0,
        "slot": "1",
        "type": "t_array(t_uint256)50_storage"
      },
      {
        "astId": 906,
        "contract": "src/arcana/v2/P12ArcanaV2.sol:P12ArcanaV2",
        "label": "__gap",
        "offset": 0,
        "slot": "51",
        "type": "t_array(t_uint256)50_storage"
      },
      {
        "astId": 1278,
        "contract": "src/arcana/v2/P12ArcanaV2.sol:P12ArcanaV2",
        "label": "__gap",
        "offset": 0,
        "slot": "101",
        "type": "t_array(t_uint256)50_storage"
      },
      {
        "astId": 116,
        "contract": "src/arcana/v2/P12ArcanaV2.sol:P12ArcanaV2",
        "label": "_owner",
        "offset": 0,
        "slot": "151",
        "type": "t_address"
      },
      {
        "astId": 236,
        "contract": "src/arcana/v2/P12ArcanaV2.sol:P12ArcanaV2",
        "label": "__gap",
        "offset": 0,
        "slot": "152",
        "type": "t_array(t_uint256)49_storage"
      },
      {
        "astId": 25,
        "contract": "src/arcana/v2/P12ArcanaV2.sol:P12ArcanaV2",
        "label": "_pendingOwner",
        "offset": 0,
        "slot": "201",
        "type": "t_address"
      },
      {
        "astId": 104,
        "contract": "src/arcana/v2/P12ArcanaV2.sol:P12ArcanaV2",
        "label": "__gap",
        "offset": 0,
        "slot": "202",
        "type": "t_array(t_uint256)49_storage"
      },
      {
        "astId": 2217,
        "contract": "src/arcana/v2/P12ArcanaV2.sol:P12ArcanaV2",
        "label": "_proofAmount",
        "offset": 0,
        "slot": "251",
        "type": "t_uint256"
      },
      {
        "astId": 2219,
        "contract": "src/arcana/v2/P12ArcanaV2.sol:P12ArcanaV2",
        "label": "publicationFee",
        "offset": 0,
        "slot": "252",
        "type": "t_uint256"
      },
      {
        "astId": 2226,
        "contract": "src/arcana/v2/P12ArcanaV2.sol:P12ArcanaV2",
        "label": "activeness",
        "offset": 0,
        "slot": "253",
        "type": "t_mapping(t_address,t_mapping(t_bytes32,t_enum(Activeness)2517))"
      },
      {
        "astId": 2230,
        "contract": "src/arcana/v2/P12ArcanaV2.sol:P12ArcanaV2",
        "label": "_isProvedHuman",
        "offset": 0,
        "slot": "254",
        "type": "t_mapping(t_address,t_bool)"
      },
      {
        "astId": 2234,
        "contract": "src/arcana/v2/P12ArcanaV2.sol:P12ArcanaV2",
        "label": "qualDevs",
        "offset": 0,
        "slot": "255",
        "type": "t_mapping(t_address,t_bool)"
      },
      {
        "astId": 2238,
        "contract": "src/arcana/v2/P12ArcanaV2.sol:P12ArcanaV2",
        "label": "_publishTokenFee",
        "offset": 0,
        "slot": "256",
        "type": "t_mapping(t_address,t_uint256)"
      },
      {
        "astId": 2242,
        "contract": "src/arcana/v2/P12ArcanaV2.sol:P12ArcanaV2",
        "label": "__gap",
        "offset": 0,
        "slot": "257",
        "type": "t_array(t_uint256)44_storage"
      }
    ],
    "types": {
      "t_address": {
        "encoding": "inplace",
        "label": "address",
        "numberOfBytes": "20"
      },
      "t_array(t_uint256)44_storage": {
        "base": "t_uint256",
        "encoding": "inplace",
        "label": "uint256[44]",
        "numberOfBytes": "1408"
      },
      "t_array(t_uint256)49_storage": {
        "base": "t_uint256",
        "encoding": "inplace",
        "label": "uint256[49]",
        "numberOfBytes": "1568"
      },
      "t_array(t_uint256)50_storage": {
        "base": "t_uint256",
        "encoding": "inplace",
        "label": "uint256[50]",
        "numberOfBytes": "1600"
      },
      "t_bool": {
        "encoding": "inplace",
        "label": "bool",
        "numberOfBytes": "1"
      },
      "t_bytes32": {
        "encoding": "inplace",
        "label": "bytes32",
        "numberOfBytes": "32"
      },
      "t_enum(Activeness)2517": {
        "encoding": "inplace",
        "label": "enum IP12ArcanaDef.Activeness",
        "numberOfBytes": "1"
      },
      "t_mapping(t_address,t_bool)": {
        "encoding": "mapping",
        "key": "t_address",
        "label": "mapping(address => bool)",
        "numberOfBytes": "32",
        "value": "t_bool"
      },
      "t_mapping(t_address,t_mapping(t_bytes32,t_enum(Activeness)2517))": {
        "encoding": "mapping",
        "key": "t_address",
        "label": "mapping(address => mapping(bytes32 => enum IP12ArcanaDef.Activeness))",
        "numberOfBytes": "32",
        "value": "t_mapping(t_bytes32,t_enum(Activeness)2517)"
      },
      "t_mapping(t_address,t_uint256)": {
        "encoding": "mapping",
        "key": "t_address",
        "label": "mapping(address => uint256)",
        "numberOfBytes": "32",
        "value": "t_uint256"
      },
      "t_mapping(t_bytes32,t_enum(Activeness)2517)": {
        "encoding": "mapping",
        "key": "t_bytes32",
        "label": "mapping(bytes32 => enum IP12ArcanaDef.Activeness)",
        "numberOfBytes": "32",
        "value": "t_enum(Activeness)2517"
      },
      "t_uint256": {
        "encoding": "inplace",
        "label": "uint256",
        "numberOfBytes": "32"
      },
      "t_uint8": {
        "encoding": "inplace",
        "label": "uint8",
        "numberOfBytes": "1"
      }
    }
  }
}