{
  "address": "0xC836636A795aC0161a5f118759D6b90C27eF390c",
  "abi": [
    {
      "inputs": [
        {
          "internalType": "address",
          "name": "owner_",
          "type": "address"
        }
      ],
      "stateMutability": "nonpayable",
      "type": "constructor"
    },
    {
      "inputs": [],
      "name": "DstChainIdIsNotAllowed",
      "type": "error"
    },
    {
      "inputs": [],
      "name": "NewOwnerIsZeroAddress",
      "type": "error"
    },
    {
      "inputs": [],
      "name": "NoHandoverRequest",
      "type": "error"
    },
    {
      "inputs": [],
      "name": "NotSigner",
      "type": "error"
    },
    {
      "inputs": [],
      "name": "Unauthorized",
      "type": "error"
    },
    {
      "anonymous": false,
      "inputs": [
        {
          "indexed": false,
          "internalType": "uint256",
          "name": "chainId",
          "type": "uint256"
        },
        {
          "indexed": false,
          "internalType": "bool",
          "name": "valid",
          "type": "bool"
        }
      ],
      "name": "DstValidSet",
      "type": "event"
    },
    {
      "anonymous": false,
      "inputs": [
        {
          "indexed": true,
          "internalType": "address",
          "name": "pendingOwner",
          "type": "address"
        }
      ],
      "name": "OwnershipHandoverCanceled",
      "type": "event"
    },
    {
      "anonymous": false,
      "inputs": [
        {
          "indexed": true,
          "internalType": "address",
          "name": "pendingOwner",
          "type": "address"
        }
      ],
      "name": "OwnershipHandoverRequested",
      "type": "event"
    },
    {
      "anonymous": false,
      "inputs": [
        {
          "indexed": true,
          "internalType": "address",
          "name": "oldOwner",
          "type": "address"
        },
        {
          "indexed": true,
          "internalType": "address",
          "name": "newOwner",
          "type": "address"
        }
      ],
      "name": "OwnershipTransferred",
      "type": "event"
    },
    {
      "anonymous": false,
      "inputs": [
        {
          "indexed": true,
          "internalType": "address",
          "name": "user",
          "type": "address"
        },
        {
          "indexed": true,
          "internalType": "uint256",
          "name": "tokenId",
          "type": "uint256"
        }
      ],
      "name": "ReleaseNFT",
      "type": "event"
    },
    {
      "anonymous": false,
      "inputs": [
        {
          "indexed": true,
          "internalType": "uint256",
          "name": "dstChainId",
          "type": "uint256"
        },
        {
          "indexed": true,
          "internalType": "uint256",
          "name": "tokenId",
          "type": "uint256"
        },
        {
          "indexed": true,
          "internalType": "uint256",
          "name": "cid",
          "type": "uint256"
        },
        {
          "indexed": false,
          "internalType": "address",
          "name": "nftAddr",
          "type": "address"
        },
        {
          "indexed": false,
          "internalType": "address",
          "name": "from",
          "type": "address"
        },
        {
          "indexed": false,
          "internalType": "address",
          "name": "receiver",
          "type": "address"
        }
      ],
      "name": "SendNFT",
      "type": "event"
    },
    {
      "anonymous": false,
      "inputs": [
        {
          "indexed": false,
          "internalType": "address",
          "name": "signer",
          "type": "address"
        },
        {
          "indexed": false,
          "internalType": "bool",
          "name": "valid",
          "type": "bool"
        }
      ],
      "name": "SignerSet",
      "type": "event"
    },
    {
      "inputs": [
        {
          "internalType": "uint256",
          "name": "",
          "type": "uint256"
        }
      ],
      "name": "allowedDst",
      "outputs": [
        {
          "internalType": "bool",
          "name": "",
          "type": "bool"
        }
      ],
      "stateMutability": "view",
      "type": "function"
    },
    {
      "inputs": [],
      "name": "cancelOwnershipHandover",
      "outputs": [],
      "stateMutability": "payable",
      "type": "function"
    },
    {
      "inputs": [
        {
          "internalType": "address",
          "name": "pendingOwner",
          "type": "address"
        }
      ],
      "name": "completeOwnershipHandover",
      "outputs": [],
      "stateMutability": "payable",
      "type": "function"
    },
    {
      "inputs": [
        {
          "internalType": "address",
          "name": "",
          "type": "address"
        },
        {
          "internalType": "address",
          "name": "",
          "type": "address"
        },
        {
          "internalType": "uint256",
          "name": "",
          "type": "uint256"
        },
        {
          "internalType": "bytes",
          "name": "",
          "type": "bytes"
        }
      ],
      "name": "onERC721Received",
      "outputs": [
        {
          "internalType": "bytes4",
          "name": "",
          "type": "bytes4"
        }
      ],
      "stateMutability": "pure",
      "type": "function"
    },
    {
      "inputs": [],
      "name": "owner",
      "outputs": [
        {
          "internalType": "address",
          "name": "result",
          "type": "address"
        }
      ],
      "stateMutability": "view",
      "type": "function"
    },
    {
      "inputs": [
        {
          "internalType": "address",
          "name": "pendingOwner",
          "type": "address"
        }
      ],
      "name": "ownershipHandoverExpiresAt",
      "outputs": [
        {
          "internalType": "uint256",
          "name": "result",
          "type": "uint256"
        }
      ],
      "stateMutability": "view",
      "type": "function"
    },
    {
      "inputs": [
        {
          "internalType": "address",
          "name": "nftAddr",
          "type": "address"
        },
        {
          "internalType": "address",
          "name": "user",
          "type": "address"
        },
        {
          "internalType": "uint256",
          "name": "tokenId",
          "type": "uint256"
        }
      ],
      "name": "releaseNFT",
      "outputs": [],
      "stateMutability": "nonpayable",
      "type": "function"
    },
    {
      "inputs": [],
      "name": "renounceOwnership",
      "outputs": [],
      "stateMutability": "payable",
      "type": "function"
    },
    {
      "inputs": [],
      "name": "requestOwnershipHandover",
      "outputs": [],
      "stateMutability": "payable",
      "type": "function"
    },
    {
      "inputs": [
        {
          "internalType": "address",
          "name": "nftAddr",
          "type": "address"
        },
        {
          "internalType": "uint256",
          "name": "dstChainId",
          "type": "uint256"
        },
        {
          "internalType": "uint256[]",
          "name": "tokenIds",
          "type": "uint256[]"
        },
        {
          "internalType": "address",
          "name": "from",
          "type": "address"
        },
        {
          "internalType": "address",
          "name": "receiver",
          "type": "address"
        }
      ],
      "name": "sendBatchNFT",
      "outputs": [],
      "stateMutability": "nonpayable",
      "type": "function"
    },
    {
      "inputs": [
        {
          "internalType": "address",
          "name": "nftAddr",
          "type": "address"
        },
        {
          "internalType": "uint256",
          "name": "dstChainId",
          "type": "uint256"
        },
        {
          "internalType": "uint256",
          "name": "tokenId",
          "type": "uint256"
        },
        {
          "internalType": "address",
          "name": "from",
          "type": "address"
        },
        {
          "internalType": "address",
          "name": "receiver",
          "type": "address"
        }
      ],
      "name": "sendNFT",
      "outputs": [],
      "stateMutability": "nonpayable",
      "type": "function"
    },
    {
      "inputs": [
        {
          "internalType": "address",
          "name": "",
          "type": "address"
        }
      ],
      "name": "signers",
      "outputs": [
        {
          "internalType": "bool",
          "name": "",
          "type": "bool"
        }
      ],
      "stateMutability": "view",
      "type": "function"
    },
    {
      "inputs": [
        {
          "internalType": "address",
          "name": "newOwner",
          "type": "address"
        }
      ],
      "name": "transferOwnership",
      "outputs": [],
      "stateMutability": "payable",
      "type": "function"
    },
    {
      "inputs": [
        {
          "internalType": "uint256",
          "name": "dstChainId",
          "type": "uint256"
        },
        {
          "internalType": "bool",
          "name": "valid",
          "type": "bool"
        }
      ],
      "name": "updateDstValidity",
      "outputs": [],
      "stateMutability": "nonpayable",
      "type": "function"
    },
    {
      "inputs": [
        {
          "internalType": "address",
          "name": "signer",
          "type": "address"
        },
        {
          "internalType": "bool",
          "name": "valid",
          "type": "bool"
        }
      ],
      "name": "updateSigner",
      "outputs": [],
      "stateMutability": "nonpayable",
      "type": "function"
    }
  ],
  "transactionHash": "0x7a6f3cdcee949a0ebb5e26d542d0a598e08ea2d0f8d04ddaffcace3df262a034",
  "args": [
    "0xe6CAB02B0CF13F9638083Fa2C144A3E463a7b16f"
  ],
  "numDeployments": 2,
  "solcInputHash": "7edec058baa61cc1e1f0384cf09f4fc9",
  "bytecode": "0x608060405234801561001057600080fd5b50604051610b7a380380610b7a83398101604081905261002f9161007c565b6100388161003e565b506100ac565b638b78c6d81980546001600160a01b039092169182907f8be0079c531659141344cd1fd0a4f28419497f9722a3daafe3b4186f6b6457e0600080a355565b60006020828403121561008e57600080fd5b81516001600160a01b03811681146100a557600080fd5b9392505050565b610abf806100bb6000396000f3fe6080604052600436106100e85760003560e01c80638da5cb5b1161008a578063f2fde38b11610059578063f2fde38b14610260578063f460590b14610273578063fae16f1c14610293578063fee81cf4146102b357600080fd5b80638da5cb5b146101d1578063b9a058b0146101fd578063cd8c1ce81461021d578063f04e283e1461024d57600080fd5b80633d0558ef116100c65780633d0558ef1461016157806354d1f13d14610181578063715018a614610189578063736c0d5b1461019157600080fd5b8063150b7a02146100ed57806325692962146101375780632b4380c514610141575b600080fd5b3480156100f957600080fd5b506101196101083660046107dd565b630a85bd0160e11b95945050505050565b6040516001600160e01b031990911681526020015b60405180910390f35b61013f6102f4565b005b34801561014d57600080fd5b5061013f61015c366004610878565b610344565b34801561016d57600080fd5b5061013f61017c3660046108b4565b6103ef565b61013f610403565b61013f61043f565b34801561019d57600080fd5b506101c16101ac36600461090b565b60006020819052908152604090205460ff1681565b604051901515815260200161012e565b3480156101dd57600080fd5b50638b78c6d819546040516001600160a01b03909116815260200161012e565b34801561020957600080fd5b5061013f61021836600461093d565b610453565b34801561022957600080fd5b506101c1610238366004610969565b60016020526000908152604090205460ff1681565b61013f61025b36600461090b565b6104b5565b61013f61026e36600461090b565b6104f5565b34801561027f57600080fd5b5061013f61028e366004610982565b61051c565b34801561029f57600080fd5b5061013f6102ae3660046109ac565b61057e565b3480156102bf57600080fd5b506102e66102ce36600461090b565b63389a75e1600c908152600091909152602090205490565b60405190815260200161012e565b60006202a30067ffffffffffffffff164201905063389a75e1600c5233600052806020600c2055337fdbf36a107da19e49527a7176a1babf963b4b0ff8cde35ee35d6cd8f1f9ac7e1d600080a250565b61034c6105cf565b6040516323b872dd60e01b81523060048201526001600160a01b038381166024830152604482018390528416906323b872dd90606401600060405180830381600087803b15801561039c57600080fd5b505af11580156103b0573d6000803e3d6000fd5b50506040518392506001600160a01b03851691507fb02b5fcbd3c7f4557ffb7fbd36f3d2876f9f67c097f7c43ffba61875ea2c9e7c90600090a3505050565b6103fc85858585856105ff565b5050505050565b63389a75e1600c523360005260006020600c2055337ffa7b8eab7da67f412cc9575ed43464468f9bfbae89d1675917346ca6d8fe3c92600080a2565b610447610768565b6104516000610783565b565b61045b610768565b600082815260016020908152604091829020805460ff19168415159081179091558251858152918201527fd3b88b26ee7fccc9ba34d3df123c7db1ca070188e89fe0549eb3f97cfaca072191015b60405180910390a15050565b6104bd610768565b63389a75e1600c52806000526020600c2080544211156104e557636f5e88186000526004601cfd5b600090556104f281610783565b50565b6104fd610768565b8060601b61051357637448fbae6000526004601cfd5b6104f281610783565b610524610768565b6001600160a01b03821660008181526020818152604091829020805460ff19168515159081179091558251938452908301527ffc4acb499491cd850a8a21ab98c7f128850c0f0e5f1a875a62b7fa055c2ecf1991016104a9565b60005b838110156105c657600085858381811061059d5761059d610a5c565b9050602002013590506105b388888387876105ff565b50806105be81610a72565b915050610581565b50505050505050565b3360009081526020819052604090205460ff166104515760405163143606b960e31b815260040160405180910390fd5b60008481526001602052604090205460ff1661062e57604051631b51261760e11b815260040160405180910390fd5b6040516323b872dd60e01b81526001600160a01b038381166004830152306024830152604482018590528616906323b872dd90606401600060405180830381600087803b15801561067e57600080fd5b505af1158015610692573d6000803e3d6000fd5b505060405163b0c479a560e01b815260048101869052600092506001600160a01b038816915063b0c479a590602401602060405180830381865afa1580156106de573d6000803e3d6000fd5b505050506040513d601f19601f820116820180604052508101906107029190610a99565b90508084867f1569e5e586a8059c99c967633e840c12141a8a03a90b53b7b9ca6bb37691eedc898787604051610758939291906001600160a01b0393841681529183166020830152909116604082015260600190565b60405180910390a4505050505050565b638b78c6d819543314610451576382b429006000526004601cfd5b638b78c6d81980546001600160a01b039092169182907f8be0079c531659141344cd1fd0a4f28419497f9722a3daafe3b4186f6b6457e0600080a355565b80356001600160a01b03811681146107d857600080fd5b919050565b6000806000806000608086880312156107f557600080fd5b6107fe866107c1565b945061080c602087016107c1565b935060408601359250606086013567ffffffffffffffff8082111561083057600080fd5b818801915088601f83011261084457600080fd5b81358181111561085357600080fd5b89602082850101111561086557600080fd5b9699959850939650602001949392505050565b60008060006060848603121561088d57600080fd5b610896846107c1565b92506108a4602085016107c1565b9150604084013590509250925092565b600080600080600060a086880312156108cc57600080fd5b6108d5866107c1565b945060208601359350604086013592506108f1606087016107c1565b91506108ff608087016107c1565b90509295509295909350565b60006020828403121561091d57600080fd5b610926826107c1565b9392505050565b803580151581146107d857600080fd5b6000806040838503121561095057600080fd5b823591506109606020840161092d565b90509250929050565b60006020828403121561097b57600080fd5b5035919050565b6000806040838503121561099557600080fd5b61099e836107c1565b91506109606020840161092d565b60008060008060008060a087890312156109c557600080fd5b6109ce876107c1565b955060208701359450604087013567ffffffffffffffff808211156109f257600080fd5b818901915089601f830112610a0657600080fd5b813581811115610a1557600080fd5b8a60208260051b8501011115610a2a57600080fd5b602083019650809550505050610a42606088016107c1565b9150610a50608088016107c1565b90509295509295509295565b634e487b7160e01b600052603260045260246000fd5b600060018201610a9257634e487b7160e01b600052601160045260246000fd5b5060010190565b600060208284031215610aab57600080fd5b505191905056fea164736f6c6343000813000a",
  "devdoc": {
    "errors": {
      "NewOwnerIsZeroAddress()": [
        {
          "details": "The `newOwner` cannot be the zero address."
        }
      ],
      "NoHandoverRequest()": [
        {
          "details": "The `pendingOwner` does not have a valid handover request."
        }
      ],
      "Unauthorized()": [
        {
          "details": "The caller is not authorized to call the function."
        }
      ]
    },
    "events": {
      "OwnershipHandoverCanceled(address)": {
        "details": "The ownership handover to `pendingOwner` has been canceled."
      },
      "OwnershipHandoverRequested(address)": {
        "details": "An ownership handover to `pendingOwner` has been requested."
      },
      "OwnershipTransferred(address,address)": {
        "details": "The ownership is transferred from `oldOwner` to `newOwner`. This event is intentionally kept the same as OpenZeppelin's Ownable to be compatible with indexers and [EIP-173](https://eips.ethereum.org/EIPS/eip-173), despite it not being as lightweight as a single argument event."
      },
      "SendNFT(uint256,uint256,uint256,address,address,address)": {
        "details": "just emit the bridge NFT request event",
        "params": {
          "cid": "galxe campaign id",
          "dstChainId": "destination dstChainId",
          "tokenId": "NFT tokenId"
        }
      }
    },
    "kind": "dev",
    "methods": {
      "cancelOwnershipHandover()": {
        "details": "Cancels the two-step ownership handover to the caller, if any."
      },
      "completeOwnershipHandover(address)": {
        "details": "Allows the owner to complete the two-step ownership handover to `pendingOwner`. Reverts if there is no existing ownership handover requested by `pendingOwner`."
      },
      "owner()": {
        "details": "Returns the owner of the contract."
      },
      "ownershipHandoverExpiresAt(address)": {
        "details": "Returns the expiry timestamp for the two-step ownership handover to `pendingOwner`."
      },
      "renounceOwnership()": {
        "details": "Allows the owner to renounce their ownership."
      },
      "requestOwnershipHandover()": {
        "details": "Request a two-step ownership handover to the caller. The request will automatically expire in 48 hours (172800 seconds) by default."
      },
      "transferOwnership(address)": {
        "details": "Allows the owner to transfer the ownership to `newOwner`."
      }
    },
    "version": 1
  },
  "userdoc": {
    "events": {
      "SendNFT(uint256,uint256,uint256,address,address,address)": {
        "notice": "emit bridge NFT event"
      }
    },
    "kind": "user",
    "methods": {},
    "version": 1
  },
  "storageLayout": {
    "storage": [
      {
        "astId": 339,
        "contract": "src/GalaxeBadgeReceiver.sol:GalxeBadgeReceiver",
        "label": "signers",
        "offset": 0,
        "slot": "0",
        "type": "t_mapping(t_address,t_bool)"
      },
      {
        "astId": 343,
        "contract": "src/GalaxeBadgeReceiver.sol:GalxeBadgeReceiver",
        "label": "allowedDst",
        "offset": 0,
        "slot": "1",
        "type": "t_mapping(t_uint256,t_bool)"
      }
    ],
    "types": {
      "t_address": {
        "encoding": "inplace",
        "label": "address",
        "numberOfBytes": "20"
      },
      "t_bool": {
        "encoding": "inplace",
        "label": "bool",
        "numberOfBytes": "1"
      },
      "t_mapping(t_address,t_bool)": {
        "encoding": "mapping",
        "key": "t_address",
        "label": "mapping(address => bool)",
        "numberOfBytes": "32",
        "value": "t_bool"
      },
      "t_mapping(t_uint256,t_bool)": {
        "encoding": "mapping",
        "key": "t_uint256",
        "label": "mapping(uint256 => bool)",
        "numberOfBytes": "32",
        "value": "t_bool"
      },
      "t_uint256": {
        "encoding": "inplace",
        "label": "uint256",
        "numberOfBytes": "32"
      }
    }
  }
}