{
  "address": "0x970a3B28f2FD1CD3020092Bd4B382A2cAbb9E3c2",
  "abi": [
    {
      "anonymous": false,
      "inputs": [
        {
          "indexed": false,
          "internalType": "address",
          "name": "previousAdmin",
          "type": "address"
        },
        {
          "indexed": false,
          "internalType": "address",
          "name": "newAdmin",
          "type": "address"
        }
      ],
      "name": "AdminChanged",
      "type": "event"
    },
    {
      "anonymous": false,
      "inputs": [
        {
          "indexed": true,
          "internalType": "address",
          "name": "beacon",
          "type": "address"
        }
      ],
      "name": "BeaconUpgraded",
      "type": "event"
    },
    {
      "anonymous": false,
      "inputs": [
        {
          "indexed": false,
          "internalType": "uint8",
          "name": "version",
          "type": "uint8"
        }
      ],
      "name": "Initialized",
      "type": "event"
    },
    {
      "anonymous": false,
      "inputs": [
        {
          "indexed": true,
          "internalType": "address",
          "name": "previousOwner",
          "type": "address"
        },
        {
          "indexed": true,
          "internalType": "address",
          "name": "newOwner",
          "type": "address"
        }
      ],
      "name": "OwnershipTransferred",
      "type": "event"
    },
    {
      "anonymous": false,
      "inputs": [
        {
          "indexed": true,
          "internalType": "address",
          "name": "payToken",
          "type": "address"
        },
        {
          "indexed": true,
          "internalType": "address",
          "name": "forToken",
          "type": "address"
        },
        {
          "indexed": true,
          "internalType": "uint256",
          "name": "amount",
          "type": "uint256"
        }
      ],
      "name": "Swap",
      "type": "event"
    },
    {
      "anonymous": false,
      "inputs": [
        {
          "indexed": true,
          "internalType": "address",
          "name": "implementation",
          "type": "address"
        }
      ],
      "name": "Upgraded",
      "type": "event"
    },
    {
      "anonymous": false,
      "inputs": [
        {
          "indexed": true,
          "internalType": "uint256",
          "name": "erc20Amount",
          "type": "uint256"
        },
        {
          "indexed": true,
          "internalType": "uint256",
          "name": "nativeAmount",
          "type": "uint256"
        }
      ],
      "name": "Withdraw",
      "type": "event"
    },
    {
      "inputs": [],
      "name": "claimOwnership",
      "outputs": [],
      "stateMutability": "nonpayable",
      "type": "function"
    },
    {
      "inputs": [],
      "name": "erc20",
      "outputs": [
        {
          "internalType": "contract IERC20Upgradeable",
          "name": "",
          "type": "address"
        }
      ],
      "stateMutability": "view",
      "type": "function"
    },
    {
      "inputs": [
        {
          "internalType": "contract IERC20Upgradeable",
          "name": "erc20_",
          "type": "address"
        },
        {
          "internalType": "address",
          "name": "owner_",
          "type": "address"
        }
      ],
      "name": "initialize",
      "outputs": [],
      "stateMutability": "nonpayable",
      "type": "function"
    },
    {
      "inputs": [],
      "name": "owner",
      "outputs": [
        {
          "internalType": "address",
          "name": "",
          "type": "address"
        }
      ],
      "stateMutability": "view",
      "type": "function"
    },
    {
      "inputs": [],
      "name": "pendingOwner",
      "outputs": [
        {
          "internalType": "address",
          "name": "",
          "type": "address"
        }
      ],
      "stateMutability": "view",
      "type": "function"
    },
    {
      "inputs": [],
      "name": "proxiableUUID",
      "outputs": [
        {
          "internalType": "bytes32",
          "name": "",
          "type": "bytes32"
        }
      ],
      "stateMutability": "view",
      "type": "function"
    },
    {
      "inputs": [],
      "name": "renounceOwnership",
      "outputs": [],
      "stateMutability": "nonpayable",
      "type": "function"
    },
    {
      "inputs": [
        {
          "internalType": "uint256",
          "name": "amount",
          "type": "uint256"
        }
      ],
      "name": "swapERC20ForNative",
      "outputs": [],
      "stateMutability": "nonpayable",
      "type": "function"
    },
    {
      "inputs": [],
      "name": "swapNativeForERC20",
      "outputs": [],
      "stateMutability": "payable",
      "type": "function"
    },
    {
      "inputs": [
        {
          "internalType": "address",
          "name": "newOwner",
          "type": "address"
        },
        {
          "internalType": "bool",
          "name": "direct",
          "type": "bool"
        }
      ],
      "name": "transferOwnership",
      "outputs": [],
      "stateMutability": "nonpayable",
      "type": "function"
    },
    {
      "inputs": [
        {
          "internalType": "address",
          "name": "newImplementation",
          "type": "address"
        }
      ],
      "name": "upgradeTo",
      "outputs": [],
      "stateMutability": "nonpayable",
      "type": "function"
    },
    {
      "inputs": [
        {
          "internalType": "address",
          "name": "newImplementation",
          "type": "address"
        },
        {
          "internalType": "bytes",
          "name": "data",
          "type": "bytes"
        }
      ],
      "name": "upgradeToAndCall",
      "outputs": [],
      "stateMutability": "payable",
      "type": "function"
    },
    {
      "inputs": [],
      "name": "withdraw",
      "outputs": [],
      "stateMutability": "nonpayable",
      "type": "function"
    },
    {
      "stateMutability": "payable",
      "type": "receive"
    }
  ],
  "transactionHash": "0x17b3828294f347c378273d6e78a0b9610834354c9b3f72ec14933b9fd86f8748",
  "args": [],
  "numDeployments": 1,
  "solcInputHash": "f8eb86df0d7802605652cdac488f22a2",
  "bytecode": "0x60a06040523060805234801561001457600080fd5b506080516113e761004c6000396000818161030801528181610351015281816106fc0152818161073c01526107cf01526113e76000f3fe6080604052600436106100c65760003560e01c806352d1902d1161007f5780637ac60227116100595780637ac60227146101ce5780638da5cb5b146101ee578063b242e5341461020c578063e30c39781461022c57600080fd5b806352d1902d14610159578063715018a614610181578063785e9e861461019657600080fd5b806330eabb82146100d25780633659cfe6146100dc5780633ccfd60b146100fc578063485cc955146101115780634e71e0c8146101315780634f1ef2861461014657600080fd5b366100cd57005b600080fd5b6100da61024a565b005b3480156100e857600080fd5b506100da6100f736600461101a565b6102fe565b34801561010857600080fd5b506100da6103e6565b34801561011d57600080fd5b506100da61012c366004611037565b610557565b34801561013d57600080fd5b506100da61068e565b6100da610154366004611086565b6106f2565b34801561016557600080fd5b5061016e6107c2565b6040519081526020015b60405180910390f35b34801561018d57600080fd5b506100da610875565b3480156101a257600080fd5b506000546101b6906001600160a01b031681565b6040516001600160a01b039091168152602001610178565b3480156101da57600080fd5b506100da6101e936600461114a565b6108a9565b3480156101fa57600080fd5b506065546001600160a01b03166101b6565b34801561021857600080fd5b506100da610227366004611171565b6109eb565b34801561023857600080fd5b506066546001600160a01b03166101b6565b60005460405163a9059cbb60e01b81523360048201523460248201819052916001600160a01b03169063a9059cbb906044016020604051808303816000875af115801561029b573d6000803e3d6000fd5b505050506040513d601f19601f820116820180604052508101906102bf919061119f565b506000805460405183926001600160a01b0390921691907fea368a40e9570069bb8e6511d668293ad2e1f03b0d982431fd223de9f3b70ca6908290a450565b6001600160a01b037f000000000000000000000000000000000000000000000000000000000000000016300361034f5760405162461bcd60e51b8152600401610346906111bc565b60405180910390fd5b7f00000000000000000000000000000000000000000000000000000000000000006001600160a01b031661039860008051602061136b833981519152546001600160a01b031690565b6001600160a01b0316146103be5760405162461bcd60e51b815260040161034690611208565b6103c781610a99565b604080516000808252602082019092526103e391839190610ac3565b50565b6065546001600160a01b031633146104105760405162461bcd60e51b815260040161034690611254565b600080546040516370a0823160e01b81523060048201526001600160a01b03909116906370a0823190602401602060405180830381865afa158015610459573d6000803e3d6000fd5b505050506040513d601f19601f8201168201806040525081019061047d919061128b565b60005460405163a9059cbb60e01b81523360048201526024810183905291925047916001600160a01b039091169063a9059cbb906044016020604051808303816000875af11580156104d3573d6000803e3d6000fd5b505050506040513d601f19601f820116820180604052508101906104f7919061119f565b50604051339082156108fc029083906000818181858888f19350505050158015610525573d6000803e3d6000fd5b50604051819083907f56ca301a9219608c91e7bcee90e083c19671d2cdcc96752c7af291cee5f9c8c890600090a35050565b603254610100900460ff16158080156105775750603254600160ff909116105b806105915750303b158015610591575060325460ff166001145b6105f45760405162461bcd60e51b815260206004820152602e60248201527f496e697469616c697a61626c653a20636f6e747261637420697320616c72656160448201526d191e481a5b9a5d1a585b1a5e995960921b6064820152608401610346565b6032805460ff191660011790558015610617576032805461ff0019166101001790555b600080546001600160a01b0319166001600160a01b03851617905561063b82610c2e565b610643610c5e565b8015610689576032805461ff0019169055604051600181527f7f26b83ff96e1f2b6a682f133852f6798a09c465da95921460cefb38474024989060200160405180910390a15b505050565b6066546001600160a01b031633146106e85760405162461bcd60e51b815260206004820152601e60248201527f536166654f776e61626c653a2063616c6c657220213d2070656e64696e6700006044820152606401610346565b6106f0610c8d565b565b6001600160a01b037f000000000000000000000000000000000000000000000000000000000000000016300361073a5760405162461bcd60e51b8152600401610346906111bc565b7f00000000000000000000000000000000000000000000000000000000000000006001600160a01b031661078360008051602061136b833981519152546001600160a01b031690565b6001600160a01b0316146107a95760405162461bcd60e51b815260040161034690611208565b6107b282610a99565b6107be82826001610ac3565b5050565b6000306001600160a01b037f000000000000000000000000000000000000000000000000000000000000000016146108625760405162461bcd60e51b815260206004820152603860248201527f555550535570677261646561626c653a206d757374206e6f742062652063616c60448201527f6c6564207468726f7567682064656c656761746563616c6c00000000000000006064820152608401610346565b5060008051602061136b83398151915290565b6065546001600160a01b0316331461089f5760405162461bcd60e51b815260040161034690611254565b6106f06000610cf6565b600260fb54036108fb5760405162461bcd60e51b815260206004820152601f60248201527f5265656e7472616e637947756172643a207265656e7472616e742063616c6c006044820152606401610346565b600260fb556000546040516323b872dd60e01b8152336004820152306024820152604481018390526001600160a01b03909116906323b872dd906064016020604051808303816000875af1158015610957573d6000803e3d6000fd5b505050506040513d601f19601f8201168201806040525081019061097b919061119f565b50604051339082156108fc029083906000818181858888f193505050501580156109a9573d6000803e3d6000fd5b50600080546040518392916001600160a01b0316907fea368a40e9570069bb8e6511d668293ad2e1f03b0d982431fd223de9f3b70ca6908390a450600160fb55565b6065546001600160a01b03163314610a155760405162461bcd60e51b815260040161034690611254565b6001600160a01b038216610a6b5760405162461bcd60e51b815260206004820152601b60248201527f536166654f776e61626c653a206e6577206f776e6572206973203000000000006044820152606401610346565b8015610a7a576107be82610cf6565b606680546001600160a01b0319166001600160a01b0384161790555050565b6065546001600160a01b031633146103e35760405162461bcd60e51b815260040161034690611254565b7f4910fdfa16fed3260ed0e7147f7cc6da11a60208b5b9406d12a635614ffd91435460ff1615610af65761068983610d6c565b826001600160a01b03166352d1902d6040518163ffffffff1660e01b8152600401602060405180830381865afa925050508015610b50575060408051601f3d908101601f19168201909252610b4d9181019061128b565b60015b610bb35760405162461bcd60e51b815260206004820152602e60248201527f45524331393637557067726164653a206e657720696d706c656d656e7461746960448201526d6f6e206973206e6f74205555505360901b6064820152608401610346565b60008051602061136b8339815191528114610c225760405162461bcd60e51b815260206004820152602960248201527f45524331393637557067726164653a20756e737570706f727465642070726f786044820152681a58589b195555525160ba1b6064820152608401610346565b50610689838383610e08565b603254610100900460ff16610c555760405162461bcd60e51b8152600401610346906112a4565b6103e381610e33565b603254610100900460ff16610c855760405162461bcd60e51b8152600401610346906112a4565b6106f0610e63565b6065546066546040516001600160a01b03928316929091169082907f8be0079c531659141344cd1fd0a4f28419497f9722a3daafe3b4186f6b6457e090600090a35060668054606580546001600160a01b03199081166001600160a01b03841617909155169055565b7fb53127684a568b3173ae13b9f8a6016e243e63b6e8ee1178d6a717850b5d6103819055606580546001600160a01b038084166001600160a01b0319831681179093556040519116919082907f8be0079c531659141344cd1fd0a4f28419497f9722a3daafe3b4186f6b6457e090600090a35050565b6001600160a01b0381163b610dd95760405162461bcd60e51b815260206004820152602d60248201527f455243313936373a206e657720696d706c656d656e746174696f6e206973206e60448201526c1bdd08184818dbdb9d1c9858dd609a1b6064820152608401610346565b60008051602061136b83398151915280546001600160a01b0319166001600160a01b0392909216919091179055565b610e1183610e91565b600082511180610e1e5750805b1561068957610e2d8383610ed1565b50505050565b603254610100900460ff16610e5a5760405162461bcd60e51b8152600401610346906112a4565b6103e381610cf6565b603254610100900460ff16610e8a5760405162461bcd60e51b8152600401610346906112a4565b600160fb55565b610e9a81610d6c565b6040516001600160a01b038216907fbc7cd75a20ee27fd9adebab32041f755214dbc6bffa90cc0225b39da2e5c2d3b90600090a250565b60606001600160a01b0383163b610f395760405162461bcd60e51b815260206004820152602660248201527f416464726573733a2064656c65676174652063616c6c20746f206e6f6e2d636f6044820152651b9d1c9858dd60d21b6064820152608401610346565b600080846001600160a01b031684604051610f54919061131b565b600060405180830381855af49150503d8060008114610f8f576040519150601f19603f3d011682016040523d82523d6000602084013e610f94565b606091505b5091509150610fbc828260405180606001604052806027815260200161138b60279139610fc5565b95945050505050565b60608315610fd4575081610ffe565b825115610fe45782518084602001fd5b8160405162461bcd60e51b81526004016103469190611337565b9392505050565b6001600160a01b03811681146103e357600080fd5b60006020828403121561102c57600080fd5b8135610ffe81611005565b6000806040838503121561104a57600080fd5b823561105581611005565b9150602083013561106581611005565b809150509250929050565b634e487b7160e01b600052604160045260246000fd5b6000806040838503121561109957600080fd5b82356110a481611005565b9150602083013567ffffffffffffffff808211156110c157600080fd5b818501915085601f8301126110d557600080fd5b8135818111156110e7576110e7611070565b604051601f8201601f19908116603f0116810190838211818310171561110f5761110f611070565b8160405282815288602084870101111561112857600080fd5b8260208601602083013760006020848301015280955050505050509250929050565b60006020828403121561115c57600080fd5b5035919050565b80151581146103e357600080fd5b6000806040838503121561118457600080fd5b823561118f81611005565b9150602083013561106581611163565b6000602082840312156111b157600080fd5b8151610ffe81611163565b6020808252602c908201527f46756e6374696f6e206d7573742062652063616c6c6564207468726f7567682060408201526b19195b1959d85d1958d85b1b60a21b606082015260800190565b6020808252602c908201527f46756e6374696f6e206d7573742062652063616c6c6564207468726f7567682060408201526b6163746976652070726f787960a01b606082015260800190565b6020808252601d908201527f536166654f776e61626c653a2063616c6c6572206e6f74206f776e6572000000604082015260600190565b60006020828403121561129d57600080fd5b5051919050565b6020808252602b908201527f496e697469616c697a61626c653a20636f6e7472616374206973206e6f74206960408201526a6e697469616c697a696e6760a81b606082015260800190565b60005b8381101561130a5781810151838201526020016112f2565b83811115610e2d5750506000910152565b6000825161132d8184602087016112ef565b9190910192915050565b60208152600082518060208401526113568160408501602087016112ef565b601f01601f1916919091016040019291505056fe360894a13ba1a3210667c828492db98dca3e2076cc3735a920a3ca505d382bbc416464726573733a206c6f772d6c6576656c2064656c65676174652063616c6c206661696c6564a264697066735822122073292ba09e655476bd2f5cbe983e07b918bbef0ef2bf82882296d8010d684f1164736f6c634300080f0033",
  "devdoc": {
    "kind": "dev",
    "methods": {
      "claimOwnership()": {
        "details": "pending owner call this function to claim ownership"
      },
      "owner()": {
        "details": "Returns the address of the current owner."
      },
      "pendingOwner()": {
        "details": "Return the address of the pending owner"
      },
      "proxiableUUID()": {
        "details": "Implementation of the ERC1822 {proxiableUUID} function. This returns the storage slot used by the implementation. It is used to validate that the this implementation remains valid after an upgrade. IMPORTANT: A proxy pointing at a proxiable contract should not be considered proxiable itself, because this risks bricking a proxy that upgrades to it, by delegating to itself until out of gas. Thus it is critical that this function revert if invoked through a proxy. This is guaranteed by the `notDelegated` modifier."
      },
      "renounceOwnership()": {
        "details": "Leaves the contract without owner. It will not be possible to call `onlyOwner` functions anymore. Can only be called by the current owner. NOTE: Renouncing ownership will leave the contract without an owner, thereby removing any functionality that is only available to the owner."
      },
      "swapERC20ForNative(uint256)": {
        "details": "use erc20 token to get native tokenuse nonReentrant to defence reentry"
      },
      "swapNativeForERC20()": {
        "details": "use native token to get erc20 token"
      },
      "transferOwnership(address,bool)": {
        "details": "Transfers ownership of the contract to a new account (`newOwner`). Can only be called by the current owner. Note If direct is false, it will set an pending owner and the OwnerShipTransferring only happens when the pending owner claim the ownership"
      },
      "upgradeTo(address)": {
        "details": "Upgrade the implementation of the proxy to `newImplementation`. Calls {_authorizeUpgrade}. Emits an {Upgraded} event."
      },
      "upgradeToAndCall(address,bytes)": {
        "details": "Upgrade the implementation of the proxy to `newImplementation`, and subsequently execute the function call encoded in `data`. Calls {_authorizeUpgrade}. Emits an {Upgraded} event."
      },
      "withdraw()": {
        "details": "withdraw all native token and erc20"
      }
    },
    "version": 1
  },
  "userdoc": {
    "kind": "user",
    "methods": {},
    "version": 1
  },
  "storageLayout": {
    "storage": [
      {
        "astId": 11574,
        "contract": "contracts/dev/EqualSwap.sol:EqualSwap",
        "label": "erc20",
        "offset": 0,
        "slot": "0",
        "type": "t_contract(IERC20Upgradeable)939"
      },
      {
        "astId": 11578,
        "contract": "contracts/dev/EqualSwap.sol:EqualSwap",
        "label": "_gap",
        "offset": 0,
        "slot": "1",
        "type": "t_array(t_uint256)49_storage"
      },
      {
        "astId": 395,
        "contract": "contracts/dev/EqualSwap.sol:EqualSwap",
        "label": "_initialized",
        "offset": 0,
        "slot": "50",
        "type": "t_uint8"
      },
      {
        "astId": 398,
        "contract": "contracts/dev/EqualSwap.sol:EqualSwap",
        "label": "_initializing",
        "offset": 1,
        "slot": "50",
        "type": "t_bool"
      },
      {
        "astId": 1540,
        "contract": "contracts/dev/EqualSwap.sol:EqualSwap",
        "label": "__gap",
        "offset": 0,
        "slot": "51",
        "type": "t_array(t_uint256)50_storage"
      },
      {
        "astId": 7418,
        "contract": "contracts/dev/EqualSwap.sol:EqualSwap",
        "label": "_owner",
        "offset": 0,
        "slot": "101",
        "type": "t_address"
      },
      {
        "astId": 7420,
        "contract": "contracts/dev/EqualSwap.sol:EqualSwap",
        "label": "_pendingOwner",
        "offset": 0,
        "slot": "102",
        "type": "t_address"
      },
      {
        "astId": 7608,
        "contract": "contracts/dev/EqualSwap.sol:EqualSwap",
        "label": "__gap",
        "offset": 0,
        "slot": "103",
        "type": "t_array(t_uint256)48_storage"
      },
      {
        "astId": 377,
        "contract": "contracts/dev/EqualSwap.sol:EqualSwap",
        "label": "__gap",
        "offset": 0,
        "slot": "151",
        "type": "t_array(t_uint256)50_storage"
      },
      {
        "astId": 674,
        "contract": "contracts/dev/EqualSwap.sol:EqualSwap",
        "label": "__gap",
        "offset": 0,
        "slot": "201",
        "type": "t_array(t_uint256)50_storage"
      },
      {
        "astId": 816,
        "contract": "contracts/dev/EqualSwap.sol:EqualSwap",
        "label": "_status",
        "offset": 0,
        "slot": "251",
        "type": "t_uint256"
      },
      {
        "astId": 860,
        "contract": "contracts/dev/EqualSwap.sol:EqualSwap",
        "label": "__gap",
        "offset": 0,
        "slot": "252",
        "type": "t_array(t_uint256)49_storage"
      }
    ],
    "types": {
      "t_address": {
        "encoding": "inplace",
        "label": "address",
        "numberOfBytes": "20"
      },
      "t_array(t_uint256)48_storage": {
        "base": "t_uint256",
        "encoding": "inplace",
        "label": "uint256[48]",
        "numberOfBytes": "1536"
      },
      "t_array(t_uint256)49_storage": {
        "base": "t_uint256",
        "encoding": "inplace",
        "label": "uint256[49]",
        "numberOfBytes": "1568"
      },
      "t_array(t_uint256)50_storage": {
        "base": "t_uint256",
        "encoding": "inplace",
        "label": "uint256[50]",
        "numberOfBytes": "1600"
      },
      "t_bool": {
        "encoding": "inplace",
        "label": "bool",
        "numberOfBytes": "1"
      },
      "t_contract(IERC20Upgradeable)939": {
        "encoding": "inplace",
        "label": "contract IERC20Upgradeable",
        "numberOfBytes": "20"
      },
      "t_uint256": {
        "encoding": "inplace",
        "label": "uint256",
        "numberOfBytes": "32"
      },
      "t_uint8": {
        "encoding": "inplace",
        "label": "uint8",
        "numberOfBytes": "1"
      }
    }
  }
}