{
  "address": "0xFF8189376BF651852eB066DBB0bBe1AE872ed18c",
  "abi": [
    {
      "inputs": [],
      "name": "NoPermission",
      "type": "error"
    },
    {
      "inputs": [
        {
          "internalType": "address",
          "name": "user",
          "type": "address"
        },
        {
          "internalType": "string",
          "name": "gameId",
          "type": "string"
        }
      ],
      "name": "NotGameDeveloper",
      "type": "error"
    },
    {
      "inputs": [],
      "name": "ZeroAddressSet",
      "type": "error"
    },
    {
      "anonymous": false,
      "inputs": [
        {
          "indexed": false,
          "internalType": "address",
          "name": "previousAdmin",
          "type": "address"
        },
        {
          "indexed": false,
          "internalType": "address",
          "name": "newAdmin",
          "type": "address"
        }
      ],
      "name": "AdminChanged",
      "type": "event"
    },
    {
      "anonymous": false,
      "inputs": [
        {
          "indexed": true,
          "internalType": "address",
          "name": "beacon",
          "type": "address"
        }
      ],
      "name": "BeaconUpgraded",
      "type": "event"
    },
    {
      "anonymous": false,
      "inputs": [
        {
          "indexed": true,
          "internalType": "address",
          "name": "collection",
          "type": "address"
        },
        {
          "indexed": true,
          "internalType": "address",
          "name": "developer",
          "type": "address"
        }
      ],
      "name": "CollectionCreated",
      "type": "event"
    },
    {
      "anonymous": false,
      "inputs": [
        {
          "indexed": false,
          "internalType": "uint8",
          "name": "version",
          "type": "uint8"
        }
      ],
      "name": "Initialized",
      "type": "event"
    },
    {
      "anonymous": false,
      "inputs": [
        {
          "indexed": true,
          "internalType": "address",
          "name": "previousOwner",
          "type": "address"
        },
        {
          "indexed": true,
          "internalType": "address",
          "name": "newOwner",
          "type": "address"
        }
      ],
      "name": "OwnershipTransferred",
      "type": "event"
    },
    {
      "anonymous": false,
      "inputs": [
        {
          "indexed": false,
          "internalType": "address",
          "name": "account",
          "type": "address"
        }
      ],
      "name": "Paused",
      "type": "event"
    },
    {
      "anonymous": false,
      "inputs": [
        {
          "indexed": false,
          "internalType": "address",
          "name": "oldP12Factory",
          "type": "address"
        },
        {
          "indexed": false,
          "internalType": "address",
          "name": "newP12Factory",
          "type": "address"
        }
      ],
      "name": "SetP12Factory",
      "type": "event"
    },
    {
      "anonymous": false,
      "inputs": [
        {
          "indexed": true,
          "internalType": "address",
          "name": "collection",
          "type": "address"
        },
        {
          "indexed": true,
          "internalType": "uint256",
          "name": "tokenId",
          "type": "uint256"
        },
        {
          "indexed": false,
          "internalType": "uint256",
          "name": "amount",
          "type": "uint256"
        }
      ],
      "name": "SftCreated",
      "type": "event"
    },
    {
      "anonymous": false,
      "inputs": [
        {
          "indexed": false,
          "internalType": "address",
          "name": "account",
          "type": "address"
        }
      ],
      "name": "Unpaused",
      "type": "event"
    },
    {
      "anonymous": false,
      "inputs": [
        {
          "indexed": true,
          "internalType": "address",
          "name": "implementation",
          "type": "address"
        }
      ],
      "name": "Upgraded",
      "type": "event"
    },
    {
      "inputs": [],
      "name": "claimOwnership",
      "outputs": [],
      "stateMutability": "nonpayable",
      "type": "function"
    },
    {
      "inputs": [
        {
          "internalType": "address",
          "name": "collection",
          "type": "address"
        },
        {
          "internalType": "uint256",
          "name": "amount",
          "type": "uint256"
        },
        {
          "internalType": "string",
          "name": "uri",
          "type": "string"
        }
      ],
      "name": "createAssetAndMint",
      "outputs": [],
      "stateMutability": "nonpayable",
      "type": "function"
    },
    {
      "inputs": [
        {
          "internalType": "string",
          "name": "gameId",
          "type": "string"
        },
        {
          "internalType": "string",
          "name": "contractURI",
          "type": "string"
        }
      ],
      "name": "createCollection",
      "outputs": [],
      "stateMutability": "nonpayable",
      "type": "function"
    },
    {
      "inputs": [
        {
          "internalType": "address",
          "name": "owner_",
          "type": "address"
        },
        {
          "internalType": "address",
          "name": "p12CoinFactory_",
          "type": "address"
        }
      ],
      "name": "initialize",
      "outputs": [],
      "stateMutability": "nonpayable",
      "type": "function"
    },
    {
      "inputs": [],
      "name": "owner",
      "outputs": [
        {
          "internalType": "address",
          "name": "",
          "type": "address"
        }
      ],
      "stateMutability": "view",
      "type": "function"
    },
    {
      "inputs": [],
      "name": "p12CoinFactory",
      "outputs": [
        {
          "internalType": "address",
          "name": "",
          "type": "address"
        }
      ],
      "stateMutability": "view",
      "type": "function"
    },
    {
      "inputs": [],
      "name": "pause",
      "outputs": [],
      "stateMutability": "nonpayable",
      "type": "function"
    },
    {
      "inputs": [],
      "name": "paused",
      "outputs": [
        {
          "internalType": "bool",
          "name": "",
          "type": "bool"
        }
      ],
      "stateMutability": "view",
      "type": "function"
    },
    {
      "inputs": [],
      "name": "pendingOwner",
      "outputs": [
        {
          "internalType": "address",
          "name": "",
          "type": "address"
        }
      ],
      "stateMutability": "view",
      "type": "function"
    },
    {
      "inputs": [],
      "name": "proxiableUUID",
      "outputs": [
        {
          "internalType": "bytes32",
          "name": "",
          "type": "bytes32"
        }
      ],
      "stateMutability": "view",
      "type": "function"
    },
    {
      "inputs": [
        {
          "internalType": "address",
          "name": "",
          "type": "address"
        }
      ],
      "name": "registry",
      "outputs": [
        {
          "internalType": "string",
          "name": "",
          "type": "string"
        }
      ],
      "stateMutability": "view",
      "type": "function"
    },
    {
      "inputs": [],
      "name": "renounceOwnership",
      "outputs": [],
      "stateMutability": "nonpayable",
      "type": "function"
    },
    {
      "inputs": [
        {
          "internalType": "address",
          "name": "newP12CoinFactory",
          "type": "address"
        }
      ],
      "name": "setP12CoinFactory",
      "outputs": [],
      "stateMutability": "nonpayable",
      "type": "function"
    },
    {
      "inputs": [
        {
          "internalType": "address",
          "name": "newOwner",
          "type": "address"
        },
        {
          "internalType": "bool",
          "name": "direct",
          "type": "bool"
        }
      ],
      "name": "transferOwnership",
      "outputs": [],
      "stateMutability": "nonpayable",
      "type": "function"
    },
    {
      "inputs": [],
      "name": "unpause",
      "outputs": [],
      "stateMutability": "nonpayable",
      "type": "function"
    },
    {
      "inputs": [
        {
          "internalType": "address",
          "name": "collection",
          "type": "address"
        },
        {
          "internalType": "string",
          "name": "newUri",
          "type": "string"
        }
      ],
      "name": "updateCollectionUri",
      "outputs": [],
      "stateMutability": "nonpayable",
      "type": "function"
    },
    {
      "inputs": [
        {
          "internalType": "address",
          "name": "collection",
          "type": "address"
        },
        {
          "internalType": "uint256",
          "name": "tokenId",
          "type": "uint256"
        },
        {
          "internalType": "string",
          "name": "newUri",
          "type": "string"
        }
      ],
      "name": "updateSftUri",
      "outputs": [],
      "stateMutability": "nonpayable",
      "type": "function"
    },
    {
      "inputs": [
        {
          "internalType": "address",
          "name": "newImplementation",
          "type": "address"
        }
      ],
      "name": "upgradeTo",
      "outputs": [],
      "stateMutability": "nonpayable",
      "type": "function"
    },
    {
      "inputs": [
        {
          "internalType": "address",
          "name": "newImplementation",
          "type": "address"
        },
        {
          "internalType": "bytes",
          "name": "data",
          "type": "bytes"
        }
      ],
      "name": "upgradeToAndCall",
      "outputs": [],
      "stateMutability": "payable",
      "type": "function"
    }
  ],
  "transactionHash": "0x88b3c3db94783f738b964d16612d5a6214de1864f821883e9614b6e31b1a2e3d",
  "args": [],
  "numDeployments": 1,
  "solcInputHash": "83b4c5e44455b5b29d1a7a6f01d741e0",
  "bytecode": "0x60a06040523060805234801561001457600080fd5b50608051613f9761004c6000396000818161061601528181610659015281816109c401528181610a070152610aa30152613f976000f3fe6080604052600436106200012b5760003560e01c80634f1ef28611620000ad5780638456cb59116200006c5780638456cb5914620003335780638da5cb5b146200034b578063b242e534146200036b578063d5bc3ab11462000390578063e30c397814620003b557600080fd5b80634f1ef286146200029357806352d1902d14620002aa5780635c975abb14620002d1578063715018a614620002f65780637e183ba0146200030e57600080fd5b80633f4ba83a11620000fa5780633f4ba83a14620001f4578063408a908f146200020c578063422cf3fe1462000231578063485cc95514620002565780634e71e0c8146200027b57600080fd5b8063038defd71462000130578063176b9b75146200016d5780633659cfe614620001945780633cd784f114620001b9575b600080fd5b3480156200013d57600080fd5b50620001556200014f366004620015ba565b620003d5565b60405162000164919062001637565b60405180910390f35b3480156200017a57600080fd5b50620001926200018c36600462001698565b62000477565b005b348015620001a157600080fd5b5062000192620001b3366004620015ba565b6200060c565b348015620001c657600080fd5b50600154620001db906001600160a01b031681565b6040516001600160a01b03909116815260200162000164565b3480156200020157600080fd5b5062000192620006f7565b3480156200021957600080fd5b50620001926200022b3660046200170b565b6200070d565b3480156200023e57600080fd5b50620001926200025036600462001761565b62000790565b3480156200026357600080fd5b506200019262000275366004620017bc565b62000810565b3480156200028857600080fd5b506200019262000984565b62000192620002a436600462001810565b620009ba565b348015620002b757600080fd5b50620002c262000a96565b60405190815260200162000164565b348015620002de57600080fd5b5060fc5460ff16604051901515815260200162000164565b3480156200030357600080fd5b506200019262000b4c565b3480156200031b57600080fd5b50620001926200032d366004620015ba565b62000b62565b3480156200034057600080fd5b506200019262000bfa565b3480156200035857600080fd5b5060ca546001600160a01b0316620001db565b3480156200037857600080fd5b50620001926200038a366004620018e0565b62000c0e565b3480156200039d57600080fd5b5062000192620003af3660046200170b565b62000c71565b348015620003c257600080fd5b5060cb546001600160a01b0316620001db565b60006020819052908152604090208054620003f09062001917565b80601f01602080910402602001604051908101604052809291908181526020018280546200041e9062001917565b80156200046f5780601f1062000443576101008083540402835291602001916200046f565b820191906000526020600020905b8154815290600101906020018083116200045157829003601f168201915b505050505081565b83838080601f0160208091040260200160405190810160405280939291908181526020018383808284376000920191909152505060015460405163cad2efad60e01b81523393506001600160a01b03909116915063cad2efad90620004e190859060040162001637565b602060405180830381865afa158015620004ff573d6000803e3d6000fd5b505050506040513d601f19601f8201168201806040525081019062000525919062001953565b6001600160a01b0316146200055c573381604051633facfa2960e21b81526004016200055392919062001973565b60405180910390fd5b6200056662000e25565b6000308484604051620005799062001596565b6200058793929190620019ca565b604051809103906000f080158015620005a4573d6000803e3d6000fd5b506001600160a01b0381166000908152602081905260409020909150620005cd86888362001a43565b5060405133906001600160a01b038316907f5d0de243db1669e3a7056744cd715c625f0c1c348736c2c2d53d0ddebff1a6c790600090a3505050505050565b6001600160a01b037f0000000000000000000000000000000000000000000000000000000000000000163003620006575760405162461bcd60e51b8152600401620005539062001b11565b7f00000000000000000000000000000000000000000000000000000000000000006001600160a01b0316620006a260008051602062003f1b833981519152546001600160a01b031690565b6001600160a01b031614620006cb5760405162461bcd60e51b8152600401620005539062001b5d565b620006d68162000e6d565b60408051600080825260208201909252620006f49183919062000e77565b50565b6200070162000fef565b6200070b6200101b565b565b8362000719816200106f565b6200072362000e25565b604051633c17845760e11b81526001600160a01b0386169063782f08ae90620007559087908790879060040162001ba9565b600060405180830381600087803b1580156200077057600080fd5b505af115801562000785573d6000803e3d6000fd5b505050505050505050565b826200079c816200106f565b620007a662000e25565b60405163938e3d7b60e01b81526001600160a01b0385169063938e3d7b90620007d6908690869060040162001bc5565b600060405180830381600087803b158015620007f157600080fd5b505af115801562000806573d6000803e3d6000fd5b5050505050505050565b603354610100900460ff1615808015620008315750603354600160ff909116105b806200084d5750303b1580156200084d575060335460ff166001145b620008b25760405162461bcd60e51b815260206004820152602e60248201527f496e697469616c697a61626c653a20636f6e747261637420697320616c72656160448201526d191e481a5b9a5d1a585b1a5e995960921b606482015260840162000553565b6033805460ff191660011790558015620008d6576033805461ff0019166101001790555b6001600160a01b038216620008fe57604051630ae8f22360e21b815260040160405180910390fd5b600180546001600160a01b0319166001600160a01b038416179055620009236200113c565b6200092d6200116d565b6200093883620011a3565b80156200097f576033805461ff0019169055604051600181527f7f26b83ff96e1f2b6a682f133852f6798a09c465da95921460cefb38474024989060200160405180910390a15b505050565b60cb546001600160a01b03163314620009b057604051639d7b369d60e01b815260040160405180910390fd5b6200070b620011d8565b6001600160a01b037f000000000000000000000000000000000000000000000000000000000000000016300362000a055760405162461bcd60e51b8152600401620005539062001b11565b7f00000000000000000000000000000000000000000000000000000000000000006001600160a01b031662000a5060008051602062003f1b833981519152546001600160a01b031690565b6001600160a01b03161462000a795760405162461bcd60e51b8152600401620005539062001b5d565b62000a848262000e6d565b62000a928282600162000e77565b5050565b6000306001600160a01b037f0000000000000000000000000000000000000000000000000000000000000000161462000b385760405162461bcd60e51b815260206004820152603860248201527f555550535570677261646561626c653a206d757374206e6f742062652063616c60448201527f6c6564207468726f7567682064656c656761746563616c6c0000000000000000606482015260840162000553565b5060008051602062003f1b83398151915290565b62000b5662000fef565b6200070b600062001241565b62000b6c62000fef565b6001546001600160a01b0390811690821662000b9b57604051630ae8f22360e21b815260040160405180910390fd5b600180546001600160a01b0319166001600160a01b0384811691821790925560408051928416835260208301919091527fb5004c6dd32173c6ee128faa447de600665c96ba213f764d94599ca5ceda78b1910160405180910390a15050565b62000c0462000fef565b6200070b620012b7565b62000c1862000fef565b6001600160a01b03821662000c4057604051630ae8f22360e21b815260040160405180910390fd5b801562000c525762000a928262001241565b60cb80546001600160a01b0319166001600160a01b0384161790555050565b8362000c7d816200106f565b62000c8762000e25565b60026034540362000cdb5760405162461bcd60e51b815260206004820152601f60248201527f5265656e7472616e637947756172643a207265656e7472616e742063616c6c00604482015260640162000553565b6002603455604051630118fa4960e01b81526000906001600160a01b03871690630118fa499062000d159088908890889060040162001ba9565b6020604051808303816000875af115801562000d35573d6000803e3d6000fd5b505050506040513d601f19601f8201168201806040525081019062000d5b919062001bdb565b6040805160008152602081019182905263731133e960e01b9091529091506001600160a01b0387169063731133e99062000d9f90339085908a906024810162001bf5565b600060405180830381600087803b15801562000dba57600080fd5b505af115801562000dcf573d6000803e3d6000fd5b5050505080866001600160a01b03167f58be1f766b329e9aa34f854f3b08451e86df3ddc1043743469ed3fa3205984db8760405162000e1091815260200190565b60405180910390a35050600160345550505050565b60fc5460ff16156200070b5760405162461bcd60e51b815260206004820152601060248201526f14185d5cd8589b194e881c185d5cd95960821b604482015260640162000553565b620006f462000fef565b7f4910fdfa16fed3260ed0e7147f7cc6da11a60208b5b9406d12a635614ffd91435460ff161562000ead576200097f83620012f7565b826001600160a01b03166352d1902d6040518163ffffffff1660e01b8152600401602060405180830381865afa92505050801562000f0a575060408051601f3d908101601f1916820190925262000f079181019062001bdb565b60015b62000f6f5760405162461bcd60e51b815260206004820152602e60248201527f45524331393637557067726164653a206e657720696d706c656d656e7461746960448201526d6f6e206973206e6f74205555505360901b606482015260840162000553565b60008051602062003f1b833981519152811462000fe15760405162461bcd60e51b815260206004820152602960248201527f45524331393637557067726164653a20756e737570706f727465642070726f786044820152681a58589b195555525160ba1b606482015260840162000553565b506200097f83838362001396565b60ca546001600160a01b031633146200070b57604051639d7b369d60e01b815260040160405180910390fd5b62001025620013c7565b60fc805460ff191690557f5db9ee0a495bf2e6ff9c91a7834c1ba4fdd244a5e8aa4e537bd38aeae4b073aa335b6040516001600160a01b03909116815260200160405180910390a1565b6001546001600160a01b0382811660009081526020819052604090819020905163cad2efad60e01b815233939092169163cad2efad91620010b39160040162001cb3565b602060405180830381865afa158015620010d1573d6000803e3d6000fd5b505050506040513d601f19601f82011682018060405250810190620010f7919062001953565b6001600160a01b031614620006f4576001600160a01b038116600090815260208190526040908190209051633facfa2960e21b81526200055391339160040162001cc8565b603354610100900460ff16620011665760405162461bcd60e51b8152600401620005539062001cee565b6001603455565b603354610100900460ff16620011975760405162461bcd60e51b8152600401620005539062001cee565b60fc805460ff19169055565b603354610100900460ff16620011cd5760405162461bcd60e51b8152600401620005539062001cee565b620006f48162001241565b60ca5460cb546040516001600160a01b03928316929091169082907f8be0079c531659141344cd1fd0a4f28419497f9722a3daafe3b4186f6b6457e090600090a35060cb805460ca80546001600160a01b03199081166001600160a01b03841617909155169055565b7fb53127684a568b3173ae13b9f8a6016e243e63b6e8ee1178d6a717850b5d610381905560ca80546001600160a01b038084166001600160a01b0319831681179093556040519116919082907f8be0079c531659141344cd1fd0a4f28419497f9722a3daafe3b4186f6b6457e090600090a35050565b620012c162000e25565b60fc805460ff191660011790557f62e78cea01bee320cd4e420270b5ea74000d11b0c9f74754ebdbfc544b05a258620010523390565b6001600160a01b0381163b620013665760405162461bcd60e51b815260206004820152602d60248201527f455243313936373a206e657720696d706c656d656e746174696f6e206973206e60448201526c1bdd08184818dbdb9d1c9858dd609a1b606482015260840162000553565b60008051602062003f1b83398151915280546001600160a01b0319166001600160a01b0392909216919091179055565b620013a18362001412565b600082511180620013af5750805b156200097f57620013c1838362001454565b50505050565b60fc5460ff166200070b5760405162461bcd60e51b815260206004820152601460248201527314185d5cd8589b194e881b9bdd081c185d5cd95960621b604482015260640162000553565b6200141d81620012f7565b6040516001600160a01b038216907fbc7cd75a20ee27fd9adebab32041f755214dbc6bffa90cc0225b39da2e5c2d3b90600090a250565b60606001600160a01b0383163b620014be5760405162461bcd60e51b815260206004820152602660248201527f416464726573733a2064656c65676174652063616c6c20746f206e6f6e2d636f6044820152651b9d1c9858dd60d21b606482015260840162000553565b600080846001600160a01b031684604051620014db919062001d39565b600060405180830381855af49150503d806000811462001518576040519150601f19603f3d011682016040523d82523d6000602084013e6200151d565b606091505b509150915062001548828260405180606001604052806027815260200162003f3b6027913962001551565b95945050505050565b60608315620015625750816200158f565b825115620015735782518084602001fd5b8160405162461bcd60e51b815260040162000553919062001637565b9392505050565b6121c38062001d5883390190565b6001600160a01b0381168114620006f457600080fd5b600060208284031215620015cd57600080fd5b81356200158f81620015a4565b60005b83811015620015f7578181015183820152602001620015dd565b83811115620013c15750506000910152565b6000815180845262001623816020860160208601620015da565b601f01601f19169290920160200192915050565b6020815260006200158f602083018462001609565b60008083601f8401126200165f57600080fd5b50813567ffffffffffffffff8111156200167857600080fd5b6020830191508360208285010111156200169157600080fd5b9250929050565b60008060008060408587031215620016af57600080fd5b843567ffffffffffffffff80821115620016c857600080fd5b620016d6888389016200164c565b90965094506020870135915080821115620016f057600080fd5b50620016ff878288016200164c565b95989497509550505050565b600080600080606085870312156200172257600080fd5b84356200172f81620015a4565b935060208501359250604085013567ffffffffffffffff8111156200175357600080fd5b620016ff878288016200164c565b6000806000604084860312156200177757600080fd5b83356200178481620015a4565b9250602084013567ffffffffffffffff811115620017a157600080fd5b620017af868287016200164c565b9497909650939450505050565b60008060408385031215620017d057600080fd5b8235620017dd81620015a4565b91506020830135620017ef81620015a4565b809150509250929050565b634e487b7160e01b600052604160045260246000fd5b600080604083850312156200182457600080fd5b82356200183181620015a4565b9150602083013567ffffffffffffffff808211156200184f57600080fd5b818501915085601f8301126200186457600080fd5b813581811115620018795762001879620017fa565b604051601f8201601f19908116603f01168101908382118183101715620018a457620018a4620017fa565b81604052828152886020848701011115620018be57600080fd5b8260208601602083013760006020848301015280955050505050509250929050565b60008060408385031215620018f457600080fd5b82356200190181620015a4565b915060208301358015158114620017ef57600080fd5b600181811c908216806200192c57607f821691505b6020821081036200194d57634e487b7160e01b600052602260045260246000fd5b50919050565b6000602082840312156200196657600080fd5b81516200158f81620015a4565b6001600160a01b0383168152604060208201819052600090620019999083018462001609565b949350505050565b81835281816020850137506000828201602090810191909152601f909101601f19169091010190565b6001600160a01b0384168152604060208201819052600090620015489083018486620019a1565b601f8211156200097f57600081815260208120601f850160051c8101602086101562001a1a5750805b601f850160051c820191505b8181101562001a3b5782815560010162001a26565b505050505050565b67ffffffffffffffff83111562001a5e5762001a5e620017fa565b62001a768362001a6f835462001917565b83620019f1565b6000601f84116001811462001aad576000851562001a945750838201355b600019600387901b1c1916600186901b17835562001b0a565b600083815260209020601f19861690835b8281101562001ae0578685013582556020948501946001909201910162001abe565b508682101562001afe5760001960f88860031b161c19848701351681555b505060018560011b0183555b5050505050565b6020808252602c908201527f46756e6374696f6e206d7573742062652063616c6c6564207468726f7567682060408201526b19195b1959d85d1958d85b1b60a21b606082015260800190565b6020808252602c908201527f46756e6374696f6e206d7573742062652063616c6c6564207468726f7567682060408201526b6163746976652070726f787960a01b606082015260800190565b83815260406020820152600062001548604083018486620019a1565b60208152600062001999602083018486620019a1565b60006020828403121562001bee57600080fd5b5051919050565b60018060a01b038516815283602082015282604082015260806060820152600062001c24608083018462001609565b9695505050505050565b6000815462001c3d8162001917565b80855260206001838116801562001c5d576001811462001c785762001ca8565b60ff1985168884015283151560051b88018301955062001ca8565b866000528260002060005b8581101562001ca05781548a820186015290830190840162001c83565b890184019650505b505050505092915050565b6020815260006200158f602083018462001c2e565b6001600160a01b0383168152604060208201819052600090620019999083018462001c2e565b6020808252602b908201527f496e697469616c697a61626c653a20636f6e7472616374206973206e6f74206960408201526a6e697469616c697a696e6760a81b606082015260800190565b6000825162001d4d818460208701620015da565b919091019291505056fe608060405260006008553480156200001657600080fd5b50604051620021c3380380620021c3833981016040819052620000399162000116565b604080516020810190915260008152829062000055816200009c565b506200006181620000ae565b5080516000036200008557604051639fcc718560e01b815260040160405180910390fd5b6005620000938282620002a5565b50505062000371565b6002620000aa8282620002a5565b5050565b600380546001600160a01b038381166001600160a01b0319831681179093556040519116919082907f8be0079c531659141344cd1fd0a4f28419497f9722a3daafe3b4186f6b6457e090600090a35050565b634e487b7160e01b600052604160045260246000fd5b600080604083850312156200012a57600080fd5b82516001600160a01b03811681146200014257600080fd5b602084810151919350906001600160401b03808211156200016257600080fd5b818601915086601f8301126200017757600080fd5b8151818111156200018c576200018c62000100565b604051601f8201601f19908116603f01168101908382118183101715620001b757620001b762000100565b816040528281528986848701011115620001d057600080fd5b600093505b82841015620001f45784840186015181850187015292850192620001d5565b82841115620002065760008684830101525b8096505050505050509250929050565b600181811c908216806200022b57607f821691505b6020821081036200024c57634e487b7160e01b600052602260045260246000fd5b50919050565b601f821115620002a057600081815260208120601f850160051c810160208610156200027b5750805b601f850160051c820191505b818110156200029c5782815560010162000287565b5050505b505050565b81516001600160401b03811115620002c157620002c162000100565b620002d981620002d2845462000216565b8462000252565b602080601f831160018114620003115760008415620002f85750858301515b600019600386901b1c1916600185901b1785556200029c565b600085815260208120601f198616915b82811015620003425788860151825594840194600190910190840162000321565b5085821015620003615787850151600019600388901b60f8161c191681555b5050505050600190811b01905550565b611e4280620003816000396000f3fe608060405234801561001057600080fd5b506004361061012b5760003560e01c8063782f08ae116100ad578063b242e53411610071578063b242e534146102a2578063e30c3978146102b5578063e8a3d485146102c6578063e985e9c5146102ce578063f242432a1461030a57600080fd5b8063782f08ae14610224578063869f7594146102375780638da5cb5b14610257578063938e3d7b1461027c578063a22cb4651461028f57600080fd5b806335403023116100f457806335403023146101c15780634e1273f4146101e15780634e71e0c814610201578063715018a614610209578063731133e91461021157600080fd5b8062fdd58e146101305780630118fa491461015657806301ffc9a7146101695780630e89341c1461018c5780632eb2c2d6146101ac575b600080fd5b61014361013e3660046112de565b61031d565b6040519081526020015b60405180910390f35b610143610164366004611350565b6103b3565b61017c6101773660046113b4565b61040d565b604051901515815260200161014d565b61019f61019a3660046113d8565b61045f565b60405161014d919061143e565b6101bf6101ba36600461159a565b610524565b005b6101436101cf3660046113d8565b60066020526000908152604090205481565b6101f46101ef366004611643565b610570565b60405161014d9190611748565b6101bf610699565b6101bf6106ce565b6101bf61021f36600461175b565b6106e0565b6101bf610232366004611350565b61078a565b6101436102453660046113d8565b60076020526000908152604090205481565b6003546001600160a01b03165b6040516001600160a01b03909116815260200161014d565b6101bf61028a3660046117bb565b6107a2565b6101bf61029d3660046117fc565b6108ac565b6101bf6102b03660046117fc565b6108bb565b6004546001600160a01b0316610264565b61019f610918565b61017c6102dc366004611838565b6001600160a01b03918216600090815260016020908152604080832093909416825291909152205460ff1690565b6101bf61031836600461186b565b6109a6565b60006001600160a01b03831661038d5760405162461bcd60e51b815260206004820152602a60248201527f455243313135353a2061646472657373207a65726f206973206e6f742061207660448201526930b634b21037bbb732b960b11b60648201526084015b60405180910390fd5b506000908152602081815260408083206001600160a01b03949094168352929052205490565b60006103bd6109eb565b600880546000908152600760205260409020859055546103de908484610a16565b6001600860008282546103f191906118e5565b9091555050600854610405906001906118fd565b949350505050565b60006001600160e01b03198216636cdb3d1360e11b148061043e57506001600160e01b031982166303a24d0760e21b145b8061045957506301ffc9a760e01b6001600160e01b03198316145b92915050565b606060085482106104865760405163ed15e6cf60e01b815260048101839052602401610384565b6000828152600960205260409020805461049f90611914565b80601f01602080910402602001604051908101604052809291908181526020018280546104cb90611914565b80156105185780601f106104ed57610100808354040283529160200191610518565b820191906000526020600020905b8154815290600101906020018083116104fb57829003601f168201915b50505050509050919050565b6001600160a01b038516331480610540575061054085336102dc565b61055c5760405162461bcd60e51b81526004016103849061194e565b6105698585858585610aab565b5050505050565b606081518351146105d55760405162461bcd60e51b815260206004820152602960248201527f455243313135353a206163636f756e747320616e6420696473206c656e677468604482015268040dad2e6dac2e8c6d60bb1b6064820152608401610384565b600083516001600160401b038111156105f0576105f0611451565b604051908082528060200260200182016040528015610619578160200160208202803683370190505b50905060005b84518110156106915761066485828151811061063d5761063d61199d565b60200260200101518583815181106106575761065761199d565b602002602001015161031d565b8282815181106106765761067661199d565b602090810291909101015261068a816119b3565b905061061f565b509392505050565b6004546001600160a01b031633146106c457604051639d7b369d60e01b815260040160405180910390fd5b6106cc610c88565b565b6106d66109eb565b6106cc6000610cf1565b6106e86109eb565b600854831061070d5760405163ed15e6cf60e01b815260048101849052602401610384565b60008381526007602090815260408083205460069092529091205461073290846118e5565b111561075457604051631dd8770560e31b815260048101849052602401610384565b600083815260066020526040812080548492906107729084906118e5565b90915550610784905084848484610d43565b50505050565b6107926109eb565b61079d838383610a16565b505050565b6107aa6109eb565b60008190036107cc57604051639fcc718560e01b815260040160405180910390fd5b6000600580546107db90611914565b80601f016020809104026020016040519081016040528092919081815260200182805461080790611914565b80156108545780601f1061082957610100808354040283529160200191610854565b820191906000526020600020905b81548152906001019060200180831161083757829003601f168201915b5050505050905082826005918261086c929190611a12565b507f89e5b6f07571941ef88c704155a3557ef26b4fd73f9c2c18294de8e767dda34d81600560405161089f929190611ad1565b60405180910390a1505050565b6108b7338383610e57565b5050565b6108c36109eb565b6001600160a01b0382166108ea57604051630ae8f22360e21b815260040160405180910390fd5b80156108f9576108b782610cf1565b600480546001600160a01b0319166001600160a01b0384161790555050565b6005805461092590611914565b80601f016020809104026020016040519081016040528092919081815260200182805461095190611914565b801561099e5780601f106109735761010080835404028352916020019161099e565b820191906000526020600020905b81548152906001019060200180831161098157829003601f168201915b505050505081565b6001600160a01b0385163314806109c257506109c285336102dc565b6109de5760405162461bcd60e51b81526004016103849061194e565b6105698585858585610f37565b6003546001600160a01b031633146106cc57604051639d7b369d60e01b815260040160405180910390fd5b6000819003610a385760405163683d806b60e11b815260040160405180910390fd5b600854831115610a5e5760405163ed15e6cf60e01b815260048101849052602401610384565b6000838152600960205260409020610a77828483611a12565b507fcb8a581c366c006d079f78b3f29b10e2bf252c6a9df7fb60286aa83c09bbd0b183838360405161089f93929190611b6c565b8151835114610b0d5760405162461bcd60e51b815260206004820152602860248201527f455243313135353a2069647320616e6420616d6f756e7473206c656e677468206044820152670dad2e6dac2e8c6d60c31b6064820152608401610384565b6001600160a01b038416610b335760405162461bcd60e51b815260040161038490611ba2565b3360005b8451811015610c1a576000858281518110610b5457610b5461199d565b602002602001015190506000858381518110610b7257610b7261199d565b602090810291909101810151600084815280835260408082206001600160a01b038e168352909352919091205490915081811015610bc25760405162461bcd60e51b815260040161038490611be7565b6000838152602081815260408083206001600160a01b038e8116855292528083208585039055908b16825281208054849290610bff9084906118e5565b9250508190555050505080610c13906119b3565b9050610b37565b50846001600160a01b0316866001600160a01b0316826001600160a01b03167f4a39dc06d4c0dbc64b70af90fd698a233a518aa5d07e595d983b8c0526c8f7fb8787604051610c6a929190611c31565b60405180910390a4610c80818787878787611061565b505050505050565b6003546004546040516001600160a01b03928316929091169082907f8be0079c531659141344cd1fd0a4f28419497f9722a3daafe3b4186f6b6457e090600090a35060048054600380546001600160a01b03199081166001600160a01b03841617909155169055565b600380546001600160a01b038381166001600160a01b0319831681179093556040519116919082907f8be0079c531659141344cd1fd0a4f28419497f9722a3daafe3b4186f6b6457e090600090a35050565b6001600160a01b038416610da35760405162461bcd60e51b815260206004820152602160248201527f455243313135353a206d696e7420746f20746865207a65726f206164647265736044820152607360f81b6064820152608401610384565b336000610daf856111bc565b90506000610dbc856111bc565b90506000868152602081815260408083206001600160a01b038b16845290915281208054879290610dee9084906118e5565b909155505060408051878152602081018790526001600160a01b03808a1692600092918716917fc3d58168c5ae7397731d063d5bbf3d657854427343f4c083240f7aacaa2d0f62910160405180910390a4610e4e83600089898989611207565b50505050505050565b816001600160a01b0316836001600160a01b031603610eca5760405162461bcd60e51b815260206004820152602960248201527f455243313135353a2073657474696e6720617070726f76616c20737461747573604482015268103337b91039b2b63360b91b6064820152608401610384565b6001600160a01b03838116600081815260016020908152604080832094871680845294825291829020805460ff191686151590811790915591519182527f17307eab39ab6107e8899845ad3d59bd9653f200f220920489ca2b5937696c31910160405180910390a3505050565b6001600160a01b038416610f5d5760405162461bcd60e51b815260040161038490611ba2565b336000610f69856111bc565b90506000610f76856111bc565b90506000868152602081815260408083206001600160a01b038c16845290915290205485811015610fb95760405162461bcd60e51b815260040161038490611be7565b6000878152602081815260408083206001600160a01b038d8116855292528083208985039055908a16825281208054889290610ff69084906118e5565b909155505060408051888152602081018890526001600160a01b03808b16928c821692918816917fc3d58168c5ae7397731d063d5bbf3d657854427343f4c083240f7aacaa2d0f62910160405180910390a4611056848a8a8a8a8a611207565b505050505050505050565b6001600160a01b0384163b15610c805760405163bc197c8160e01b81526001600160a01b0385169063bc197c81906110a59089908990889088908890600401611c5f565b6020604051808303816000875af19250505080156110e0575060408051601f3d908101601f191682019092526110dd91810190611cbd565b60015b61118c576110ec611cda565b806308c379a0036111255750611100611cf6565b8061110b5750611127565b8060405162461bcd60e51b8152600401610384919061143e565b505b60405162461bcd60e51b815260206004820152603460248201527f455243313135353a207472616e7366657220746f206e6f6e20455243313135356044820152732932b1b2b4bb32b91034b6b83632b6b2b73a32b960611b6064820152608401610384565b6001600160e01b0319811663bc197c8160e01b14610e4e5760405162461bcd60e51b815260040161038490611d7f565b604080516001808252818301909252606091600091906020808301908036833701905050905082816000815181106111f6576111f661199d565b602090810291909101015292915050565b6001600160a01b0384163b15610c805760405163f23a6e6160e01b81526001600160a01b0385169063f23a6e619061124b9089908990889088908890600401611dc7565b6020604051808303816000875af1925050508015611286575060408051601f3d908101601f1916820190925261128391810190611cbd565b60015b611292576110ec611cda565b6001600160e01b0319811663f23a6e6160e01b14610e4e5760405162461bcd60e51b815260040161038490611d7f565b80356001600160a01b03811681146112d957600080fd5b919050565b600080604083850312156112f157600080fd5b6112fa836112c2565b946020939093013593505050565b60008083601f84011261131a57600080fd5b5081356001600160401b0381111561133157600080fd5b60208301915083602082850101111561134957600080fd5b9250929050565b60008060006040848603121561136557600080fd5b8335925060208401356001600160401b0381111561138257600080fd5b61138e86828701611308565b9497909650939450505050565b6001600160e01b0319811681146113b157600080fd5b50565b6000602082840312156113c657600080fd5b81356113d18161139b565b9392505050565b6000602082840312156113ea57600080fd5b5035919050565b6000815180845260005b81811015611417576020818501810151868301820152016113fb565b81811115611429576000602083870101525b50601f01601f19169290920160200192915050565b6020815260006113d160208301846113f1565b634e487b7160e01b600052604160045260246000fd5b601f8201601f191681016001600160401b038111828210171561148c5761148c611451565b6040525050565b60006001600160401b038211156114ac576114ac611451565b5060051b60200190565b600082601f8301126114c757600080fd5b813560206114d482611493565b6040516114e18282611467565b83815260059390931b850182019282810191508684111561150157600080fd5b8286015b8481101561151c5780358352918301918301611505565b509695505050505050565b600082601f83011261153857600080fd5b81356001600160401b0381111561155157611551611451565b604051611568601f8301601f191660200182611467565b81815284602083860101111561157d57600080fd5b816020850160208301376000918101602001919091529392505050565b600080600080600060a086880312156115b257600080fd5b6115bb866112c2565b94506115c9602087016112c2565b935060408601356001600160401b03808211156115e557600080fd5b6115f189838a016114b6565b9450606088013591508082111561160757600080fd5b61161389838a016114b6565b9350608088013591508082111561162957600080fd5b5061163688828901611527565b9150509295509295909350565b6000806040838503121561165657600080fd5b82356001600160401b038082111561166d57600080fd5b818501915085601f83011261168157600080fd5b8135602061168e82611493565b60405161169b8282611467565b83815260059390931b85018201928281019150898411156116bb57600080fd5b948201945b838610156116e0576116d1866112c2565b825294820194908201906116c0565b965050860135925050808211156116f657600080fd5b50611703858286016114b6565b9150509250929050565b600081518084526020808501945080840160005b8381101561173d57815187529582019590820190600101611721565b509495945050505050565b6020815260006113d1602083018461170d565b6000806000806080858703121561177157600080fd5b61177a856112c2565b9350602085013592506040850135915060608501356001600160401b038111156117a357600080fd5b6117af87828801611527565b91505092959194509250565b600080602083850312156117ce57600080fd5b82356001600160401b038111156117e457600080fd5b6117f085828601611308565b90969095509350505050565b6000806040838503121561180f57600080fd5b611818836112c2565b91506020830135801515811461182d57600080fd5b809150509250929050565b6000806040838503121561184b57600080fd5b611854836112c2565b9150611862602084016112c2565b90509250929050565b600080600080600060a0868803121561188357600080fd5b61188c866112c2565b945061189a602087016112c2565b9350604086013592506060860135915060808601356001600160401b038111156118c357600080fd5b61163688828901611527565b634e487b7160e01b600052601160045260246000fd5b600082198211156118f8576118f86118cf565b500190565b60008282101561190f5761190f6118cf565b500390565b600181811c9082168061192857607f821691505b60208210810361194857634e487b7160e01b600052602260045260246000fd5b50919050565b6020808252602f908201527f455243313135353a2063616c6c6572206973206e6f7420746f6b656e206f776e60408201526e195c881b9bdc88185c1c1c9bdd9959608a1b606082015260800190565b634e487b7160e01b600052603260045260246000fd5b6000600182016119c5576119c56118cf565b5060010190565b601f82111561079d57600081815260208120601f850160051c810160208610156119f35750805b601f850160051c820191505b81811015610c80578281556001016119ff565b6001600160401b03831115611a2957611a29611451565b611a3d83611a378354611914565b836119cc565b6000601f841160018114611a715760008515611a595750838201355b600019600387901b1c1916600186901b178355610569565b600083815260209020601f19861690835b82811015611aa25786850135825560209485019460019092019101611a82565b5086821015611abf5760001960f88860031b161c19848701351681555b505060018560011b0183555050505050565b604081526000611ae460408301856113f1565b60208382038185015260008554611afa81611914565b80855260018281168015611b155760018114611b2f57611b5d565b60ff1984168787015282151560051b870186019450611b5d565b896000528560002060005b84811015611b55578154898201890152908301908701611b3a565b880187019550505b50929998505050505050505050565b83815260406020820152816040820152818360608301376000818301606090810191909152601f909201601f1916010192915050565b60208082526025908201527f455243313135353a207472616e7366657220746f20746865207a65726f206164604082015264647265737360d81b606082015260800190565b6020808252602a908201527f455243313135353a20696e73756666696369656e742062616c616e636520666f60408201526939103a3930b739b332b960b11b606082015260800190565b604081526000611c44604083018561170d565b8281036020840152611c56818561170d565b95945050505050565b6001600160a01b0386811682528516602082015260a060408201819052600090611c8b9083018661170d565b8281036060840152611c9d818661170d565b90508281036080840152611cb181856113f1565b98975050505050505050565b600060208284031215611ccf57600080fd5b81516113d18161139b565b600060033d1115611cf35760046000803e5060005160e01c5b90565b600060443d1015611d045790565b6040516003193d81016004833e81513d6001600160401b038160248401118184111715611d3357505050505090565b8285019150815181811115611d4b5750505050505090565b843d8701016020828501011115611d655750505050505090565b611d7460208286010187611467565b509095945050505050565b60208082526028908201527f455243313135353a204552433131353552656365697665722072656a656374656040820152676420746f6b656e7360c01b606082015260800190565b6001600160a01b03868116825285166020820152604081018490526060810183905260a060808201819052600090611e01908301846113f1565b97965050505050505056fea26469706673582212206a368559eec260411d584280a79e3e13cb4bb13c1cb75263b525fca91a6edebc64736f6c634300080f0033360894a13ba1a3210667c828492db98dca3e2076cc3735a920a3ca505d382bbc416464726573733a206c6f772d6c6576656c2064656c65676174652063616c6c206661696c6564a26469706673582212203dda81f94e9df8dfbc0245285f59f26e0ee945efe5e2e28a24af729bdfc4c10b64736f6c634300080f0033",
  "devdoc": {
    "kind": "dev",
    "methods": {
      "claimOwnership()": {
        "details": "pending owner call this function to claim ownership"
      },
      "createAssetAndMint(address,uint256,string)": {
        "details": "create asset and mint to msg.sender address",
        "params": {
          "amount": "amount of asset",
          "collection": "which collection want to create",
          "uri": "new asset's metadata uri"
        }
      },
      "createCollection(string,string)": {
        "details": "create Collection",
        "params": {
          "contractURI": "contract-level metadata uri",
          "gameId": "a off-chain game id"
        }
      },
      "owner()": {
        "details": "Returns the address of the current owner."
      },
      "paused()": {
        "details": "Returns true if the contract is paused, and false otherwise."
      },
      "pendingOwner()": {
        "details": "Return the address of the pending owner"
      },
      "proxiableUUID()": {
        "details": "Implementation of the ERC1822 {proxiableUUID} function. This returns the storage slot used by the implementation. It is used to validate that the this implementation remains valid after an upgrade. IMPORTANT: A proxy pointing at a proxiable contract should not be considered proxiable itself, because this risks bricking a proxy that upgrades to it, by delegating to itself until out of gas. Thus it is critical that this function revert if invoked through a proxy. This is guaranteed by the `notDelegated` modifier."
      },
      "renounceOwnership()": {
        "details": "Leaves the contract without owner. It will not be possible to call `onlyOwner` functions anymore. Can only be called by the current owner. NOTE: Renouncing ownership will leave the contract without an owner, thereby removing any functionality that is only available to the owner."
      },
      "setP12CoinFactory(address)": {
        "params": {
          "newP12CoinFactory": "address of p12CoinFactory"
        }
      },
      "transferOwnership(address,bool)": {
        "details": "Transfers ownership of the contract to a new account (`newOwner`). Can only be called by the current owner. Note If direct is false, it will set an pending owner and the OwnerShipTransferring only happens when the pending owner claim the ownership"
      },
      "updateCollectionUri(address,string)": {
        "details": "update Collection Uri",
        "params": {
          "collection": "collection address",
          "newUri": "new Contract-level metadata uri"
        }
      },
      "updateSftUri(address,uint256,string)": {
        "details": "update Sft Uri",
        "params": {
          "collection": "collection address",
          "newUri": "new metadata uri",
          "tokenId": "token id"
        }
      },
      "upgradeTo(address)": {
        "details": "Upgrade the implementation of the proxy to `newImplementation`. Calls {_authorizeUpgrade}. Emits an {Upgraded} event."
      },
      "upgradeToAndCall(address,bytes)": {
        "details": "Upgrade the implementation of the proxy to `newImplementation`, and subsequently execute the function call encoded in `data`. Calls {_authorizeUpgrade}. Emits an {Upgraded} event."
      }
    },
    "version": 1
  },
  "userdoc": {
    "kind": "user",
    "methods": {
      "p12CoinFactory()": {
        "notice": "p12CoinFactory address, for reading game and developer relationship"
      },
      "setP12CoinFactory(address)": {
        "notice": "set new p12CoinFactory"
      }
    },
    "version": 1
  },
  "storageLayout": {
    "storage": [
      {
        "astId": 8780,
        "contract": "contracts/assetFactory/P12AssetFactoryUpgradable.sol:P12AssetFactoryUpgradable",
        "label": "registry",
        "offset": 0,
        "slot": "0",
        "type": "t_mapping(t_address,t_string_storage)"
      },
      {
        "astId": 8783,
        "contract": "contracts/assetFactory/P12AssetFactoryUpgradable.sol:P12AssetFactoryUpgradable",
        "label": "p12CoinFactory",
        "offset": 0,
        "slot": "1",
        "type": "t_address"
      },
      {
        "astId": 8787,
        "contract": "contracts/assetFactory/P12AssetFactoryUpgradable.sol:P12AssetFactoryUpgradable",
        "label": "__gap",
        "offset": 0,
        "slot": "2",
        "type": "t_array(t_uint256)49_storage"
      },
      {
        "astId": 395,
        "contract": "contracts/assetFactory/P12AssetFactoryUpgradable.sol:P12AssetFactoryUpgradable",
        "label": "_initialized",
        "offset": 0,
        "slot": "51",
        "type": "t_uint8"
      },
      {
        "astId": 398,
        "contract": "contracts/assetFactory/P12AssetFactoryUpgradable.sol:P12AssetFactoryUpgradable",
        "label": "_initializing",
        "offset": 1,
        "slot": "51",
        "type": "t_bool"
      },
      {
        "astId": 816,
        "contract": "contracts/assetFactory/P12AssetFactoryUpgradable.sol:P12AssetFactoryUpgradable",
        "label": "_status",
        "offset": 0,
        "slot": "52",
        "type": "t_uint256"
      },
      {
        "astId": 860,
        "contract": "contracts/assetFactory/P12AssetFactoryUpgradable.sol:P12AssetFactoryUpgradable",
        "label": "__gap",
        "offset": 0,
        "slot": "53",
        "type": "t_array(t_uint256)49_storage"
      },
      {
        "astId": 1540,
        "contract": "contracts/assetFactory/P12AssetFactoryUpgradable.sol:P12AssetFactoryUpgradable",
        "label": "__gap",
        "offset": 0,
        "slot": "102",
        "type": "t_array(t_uint256)50_storage"
      },
      {
        "astId": 377,
        "contract": "contracts/assetFactory/P12AssetFactoryUpgradable.sol:P12AssetFactoryUpgradable",
        "label": "__gap",
        "offset": 0,
        "slot": "152",
        "type": "t_array(t_uint256)50_storage"
      },
      {
        "astId": 8312,
        "contract": "contracts/assetFactory/P12AssetFactoryUpgradable.sol:P12AssetFactoryUpgradable",
        "label": "_owner",
        "offset": 0,
        "slot": "202",
        "type": "t_address"
      },
      {
        "astId": 8314,
        "contract": "contracts/assetFactory/P12AssetFactoryUpgradable.sol:P12AssetFactoryUpgradable",
        "label": "_pendingOwner",
        "offset": 0,
        "slot": "203",
        "type": "t_address"
      },
      {
        "astId": 8516,
        "contract": "contracts/assetFactory/P12AssetFactoryUpgradable.sol:P12AssetFactoryUpgradable",
        "label": "__gap",
        "offset": 0,
        "slot": "204",
        "type": "t_array(t_uint256)48_storage"
      },
      {
        "astId": 696,
        "contract": "contracts/assetFactory/P12AssetFactoryUpgradable.sol:P12AssetFactoryUpgradable",
        "label": "_paused",
        "offset": 0,
        "slot": "252",
        "type": "t_bool"
      },
      {
        "astId": 801,
        "contract": "contracts/assetFactory/P12AssetFactoryUpgradable.sol:P12AssetFactoryUpgradable",
        "label": "__gap",
        "offset": 0,
        "slot": "253",
        "type": "t_array(t_uint256)49_storage"
      },
      {
        "astId": 674,
        "contract": "contracts/assetFactory/P12AssetFactoryUpgradable.sol:P12AssetFactoryUpgradable",
        "label": "__gap",
        "offset": 0,
        "slot": "302",
        "type": "t_array(t_uint256)50_storage"
      }
    ],
    "types": {
      "t_address": {
        "encoding": "inplace",
        "label": "address",
        "numberOfBytes": "20"
      },
      "t_array(t_uint256)48_storage": {
        "base": "t_uint256",
        "encoding": "inplace",
        "label": "uint256[48]",
        "numberOfBytes": "1536"
      },
      "t_array(t_uint256)49_storage": {
        "base": "t_uint256",
        "encoding": "inplace",
        "label": "uint256[49]",
        "numberOfBytes": "1568"
      },
      "t_array(t_uint256)50_storage": {
        "base": "t_uint256",
        "encoding": "inplace",
        "label": "uint256[50]",
        "numberOfBytes": "1600"
      },
      "t_bool": {
        "encoding": "inplace",
        "label": "bool",
        "numberOfBytes": "1"
      },
      "t_mapping(t_address,t_string_storage)": {
        "encoding": "mapping",
        "key": "t_address",
        "label": "mapping(address => string)",
        "numberOfBytes": "32",
        "value": "t_string_storage"
      },
      "t_string_storage": {
        "encoding": "bytes",
        "label": "string",
        "numberOfBytes": "32"
      },
      "t_uint256": {
        "encoding": "inplace",
        "label": "uint256",
        "numberOfBytes": "32"
      },
      "t_uint8": {
        "encoding": "inplace",
        "label": "uint8",
        "numberOfBytes": "1"
      }
    }
  }
}