{
  "address": "0x59d7Cab3aedD66A47B242752E599F5D557bdbc12",
  "abi": [
    {
      "anonymous": false,
      "inputs": [
        {
          "indexed": false,
          "internalType": "address",
          "name": "previousAdmin",
          "type": "address"
        },
        {
          "indexed": false,
          "internalType": "address",
          "name": "newAdmin",
          "type": "address"
        }
      ],
      "name": "AdminChanged",
      "type": "event"
    },
    {
      "anonymous": false,
      "inputs": [
        {
          "indexed": true,
          "internalType": "address",
          "name": "beacon",
          "type": "address"
        }
      ],
      "name": "BeaconUpgraded",
      "type": "event"
    },
    {
      "anonymous": false,
      "inputs": [
        {
          "indexed": true,
          "internalType": "bytes32",
          "name": "itemHash",
          "type": "bytes32"
        }
      ],
      "name": "EvCancel",
      "type": "event"
    },
    {
      "anonymous": false,
      "inputs": [
        {
          "indexed": false,
          "internalType": "contract IERC20Upgradeable",
          "name": "currency",
          "type": "address"
        },
        {
          "indexed": false,
          "internalType": "bool",
          "name": "isRemoval",
          "type": "bool"
        }
      ],
      "name": "EvCurrency",
      "type": "event"
    },
    {
      "anonymous": false,
      "inputs": [
        {
          "indexed": false,
          "internalType": "address",
          "name": "delegate",
          "type": "address"
        },
        {
          "indexed": false,
          "internalType": "bool",
          "name": "isRemoval",
          "type": "bool"
        }
      ],
      "name": "EvDelegate",
      "type": "event"
    },
    {
      "anonymous": false,
      "inputs": [
        {
          "indexed": false,
          "internalType": "uint256",
          "name": "index",
          "type": "uint256"
        },
        {
          "indexed": false,
          "internalType": "bytes",
          "name": "error",
          "type": "bytes"
        }
      ],
      "name": "EvFailure",
      "type": "event"
    },
    {
      "anonymous": false,
      "inputs": [
        {
          "indexed": false,
          "internalType": "uint256",
          "name": "newValue",
          "type": "uint256"
        }
      ],
      "name": "EvFeeCapUpdate",
      "type": "event"
    },
    {
      "anonymous": false,
      "inputs": [
        {
          "indexed": true,
          "internalType": "bytes32",
          "name": "itemHash",
          "type": "bytes32"
        },
        {
          "indexed": false,
          "internalType": "address",
          "name": "maker",
          "type": "address"
        },
        {
          "indexed": false,
          "internalType": "address",
          "name": "taker",
          "type": "address"
        },
        {
          "indexed": false,
          "internalType": "uint256",
          "name": "orderSalt",
          "type": "uint256"
        },
        {
          "indexed": false,
          "internalType": "uint256",
          "name": "settleSalt",
          "type": "uint256"
        },
        {
          "indexed": false,
          "internalType": "uint256",
          "name": "intent",
          "type": "uint256"
        },
        {
          "indexed": false,
          "internalType": "uint256",
          "name": "delegateType",
          "type": "uint256"
        },
        {
          "indexed": false,
          "internalType": "uint256",
          "name": "deadline",
          "type": "uint256"
        },
        {
          "indexed": false,
          "internalType": "contract IERC20Upgradeable",
          "name": "currency",
          "type": "address"
        },
        {
          "components": [
            {
              "internalType": "uint256",
              "name": "price",
              "type": "uint256"
            },
            {
              "internalType": "bytes",
              "name": "data",
              "type": "bytes"
            }
          ],
          "indexed": false,
          "internalType": "struct Market.OrderItem",
          "name": "item",
          "type": "tuple"
        },
        {
          "components": [
            {
              "internalType": "enum Market.Op",
              "name": "op",
              "type": "uint8"
            },
            {
              "internalType": "uint256",
              "name": "orderIdx",
              "type": "uint256"
            },
            {
              "internalType": "uint256",
              "name": "itemIdx",
              "type": "uint256"
            },
            {
              "internalType": "uint256",
              "name": "price",
              "type": "uint256"
            },
            {
              "internalType": "bytes32",
              "name": "itemHash",
              "type": "bytes32"
            },
            {
              "internalType": "contract IDelegate",
              "name": "executionDelegate",
              "type": "address"
            },
            {
              "components": [
                {
                  "internalType": "uint256",
                  "name": "percentage",
                  "type": "uint256"
                },
                {
                  "internalType": "address",
                  "name": "to",
                  "type": "address"
                }
              ],
              "internalType": "struct Market.Fee[]",
              "name": "fees",
              "type": "tuple[]"
            }
          ],
          "indexed": false,
          "internalType": "struct Market.SettleDetail",
          "name": "detail",
          "type": "tuple"
        }
      ],
      "name": "EvInventory",
      "type": "event"
    },
    {
      "anonymous": false,
      "inputs": [
        {
          "indexed": false,
          "internalType": "bytes32",
          "name": "itemHash",
          "type": "bytes32"
        },
        {
          "indexed": false,
          "internalType": "address",
          "name": "currency",
          "type": "address"
        },
        {
          "indexed": false,
          "internalType": "address",
          "name": "to",
          "type": "address"
        },
        {
          "indexed": false,
          "internalType": "uint256",
          "name": "amount",
          "type": "uint256"
        }
      ],
      "name": "EvProfit",
      "type": "event"
    },
    {
      "anonymous": false,
      "inputs": [
        {
          "indexed": true,
          "internalType": "address",
          "name": "previousOwner",
          "type": "address"
        },
        {
          "indexed": true,
          "internalType": "address",
          "name": "newOwner",
          "type": "address"
        }
      ],
      "name": "OwnershipTransferred",
      "type": "event"
    },
    {
      "anonymous": false,
      "inputs": [
        {
          "indexed": false,
          "internalType": "address",
          "name": "account",
          "type": "address"
        }
      ],
      "name": "Paused",
      "type": "event"
    },
    {
      "anonymous": false,
      "inputs": [
        {
          "indexed": false,
          "internalType": "address",
          "name": "account",
          "type": "address"
        }
      ],
      "name": "Unpaused",
      "type": "event"
    },
    {
      "anonymous": false,
      "inputs": [
        {
          "indexed": true,
          "internalType": "address",
          "name": "implementation",
          "type": "address"
        }
      ],
      "name": "Upgraded",
      "type": "event"
    },
    {
      "inputs": [],
      "name": "RATE_BASE",
      "outputs": [
        {
          "internalType": "uint256",
          "name": "",
          "type": "uint256"
        }
      ],
      "stateMutability": "view",
      "type": "function"
    },
    {
      "inputs": [],
      "name": "claimOwnership",
      "outputs": [],
      "stateMutability": "nonpayable",
      "type": "function"
    },
    {
      "inputs": [
        {
          "internalType": "contract IERC20Upgradeable",
          "name": "",
          "type": "address"
        }
      ],
      "name": "currencies",
      "outputs": [
        {
          "internalType": "bool",
          "name": "",
          "type": "bool"
        }
      ],
      "stateMutability": "view",
      "type": "function"
    },
    {
      "inputs": [
        {
          "internalType": "address",
          "name": "",
          "type": "address"
        }
      ],
      "name": "delegates",
      "outputs": [
        {
          "internalType": "bool",
          "name": "",
          "type": "bool"
        }
      ],
      "stateMutability": "view",
      "type": "function"
    },
    {
      "inputs": [],
      "name": "domainSeparator",
      "outputs": [
        {
          "internalType": "bytes32",
          "name": "",
          "type": "bytes32"
        }
      ],
      "stateMutability": "view",
      "type": "function"
    },
    {
      "inputs": [],
      "name": "feeCapPct",
      "outputs": [
        {
          "internalType": "uint256",
          "name": "",
          "type": "uint256"
        }
      ],
      "stateMutability": "view",
      "type": "function"
    },
    {
      "inputs": [
        {
          "internalType": "uint256",
          "name": "feeCapPct_",
          "type": "uint256"
        },
        {
          "internalType": "address",
          "name": "weth_",
          "type": "address"
        }
      ],
      "name": "initialize",
      "outputs": [],
      "stateMutability": "nonpayable",
      "type": "function"
    },
    {
      "inputs": [
        {
          "internalType": "bytes32",
          "name": "",
          "type": "bytes32"
        }
      ],
      "name": "inventoryStatus",
      "outputs": [
        {
          "internalType": "enum Market.InvStatus",
          "name": "",
          "type": "uint8"
        }
      ],
      "stateMutability": "view",
      "type": "function"
    },
    {
      "inputs": [],
      "name": "owner",
      "outputs": [
        {
          "internalType": "address",
          "name": "",
          "type": "address"
        }
      ],
      "stateMutability": "view",
      "type": "function"
    },
    {
      "inputs": [],
      "name": "pause",
      "outputs": [],
      "stateMutability": "nonpayable",
      "type": "function"
    },
    {
      "inputs": [],
      "name": "paused",
      "outputs": [
        {
          "internalType": "bool",
          "name": "",
          "type": "bool"
        }
      ],
      "stateMutability": "view",
      "type": "function"
    },
    {
      "inputs": [],
      "name": "pendingOwner",
      "outputs": [
        {
          "internalType": "address",
          "name": "",
          "type": "address"
        }
      ],
      "stateMutability": "view",
      "type": "function"
    },
    {
      "inputs": [],
      "name": "proxiableUUID",
      "outputs": [
        {
          "internalType": "bytes32",
          "name": "",
          "type": "bytes32"
        }
      ],
      "stateMutability": "view",
      "type": "function"
    },
    {
      "inputs": [],
      "name": "renounceOwnership",
      "outputs": [],
      "stateMutability": "nonpayable",
      "type": "function"
    },
    {
      "inputs": [
        {
          "components": [
            {
              "components": [
                {
                  "internalType": "uint256",
                  "name": "salt",
                  "type": "uint256"
                },
                {
                  "internalType": "address",
                  "name": "user",
                  "type": "address"
                },
                {
                  "internalType": "uint256",
                  "name": "network",
                  "type": "uint256"
                },
                {
                  "internalType": "uint256",
                  "name": "intent",
                  "type": "uint256"
                },
                {
                  "internalType": "uint256",
                  "name": "delegateType",
                  "type": "uint256"
                },
                {
                  "internalType": "uint256",
                  "name": "deadline",
                  "type": "uint256"
                },
                {
                  "internalType": "contract IERC20Upgradeable",
                  "name": "currency",
                  "type": "address"
                },
                {
                  "components": [
                    {
                      "internalType": "uint256",
                      "name": "price",
                      "type": "uint256"
                    },
                    {
                      "internalType": "bytes",
                      "name": "data",
                      "type": "bytes"
                    }
                  ],
                  "internalType": "struct Market.OrderItem[]",
                  "name": "items",
                  "type": "tuple[]"
                },
                {
                  "internalType": "bytes32",
                  "name": "r",
                  "type": "bytes32"
                },
                {
                  "internalType": "bytes32",
                  "name": "s",
                  "type": "bytes32"
                },
                {
                  "internalType": "uint8",
                  "name": "v",
                  "type": "uint8"
                },
                {
                  "internalType": "uint8",
                  "name": "signVersion",
                  "type": "uint8"
                }
              ],
              "internalType": "struct Market.Order[]",
              "name": "orders",
              "type": "tuple[]"
            },
            {
              "components": [
                {
                  "internalType": "enum Market.Op",
                  "name": "op",
                  "type": "uint8"
                },
                {
                  "internalType": "uint256",
                  "name": "orderIdx",
                  "type": "uint256"
                },
                {
                  "internalType": "uint256",
                  "name": "itemIdx",
                  "type": "uint256"
                },
                {
                  "internalType": "uint256",
                  "name": "price",
                  "type": "uint256"
                },
                {
                  "internalType": "bytes32",
                  "name": "itemHash",
                  "type": "bytes32"
                },
                {
                  "internalType": "contract IDelegate",
                  "name": "executionDelegate",
                  "type": "address"
                },
                {
                  "components": [
                    {
                      "internalType": "uint256",
                      "name": "percentage",
                      "type": "uint256"
                    },
                    {
                      "internalType": "address",
                      "name": "to",
                      "type": "address"
                    }
                  ],
                  "internalType": "struct Market.Fee[]",
                  "name": "fees",
                  "type": "tuple[]"
                }
              ],
              "internalType": "struct Market.SettleDetail[]",
              "name": "details",
              "type": "tuple[]"
            },
            {
              "components": [
                {
                  "internalType": "uint256",
                  "name": "salt",
                  "type": "uint256"
                },
                {
                  "internalType": "uint256",
                  "name": "deadline",
                  "type": "uint256"
                },
                {
                  "internalType": "address",
                  "name": "user",
                  "type": "address"
                },
                {
                  "internalType": "bool",
                  "name": "canFail",
                  "type": "bool"
                }
              ],
              "internalType": "struct Market.SettleShared",
              "name": "shared",
              "type": "tuple"
            }
          ],
          "internalType": "struct Market.RunInput",
          "name": "input",
          "type": "tuple"
        }
      ],
      "name": "run",
      "outputs": [],
      "stateMutability": "payable",
      "type": "function"
    },
    {
      "inputs": [
        {
          "components": [
            {
              "internalType": "uint256",
              "name": "salt",
              "type": "uint256"
            },
            {
              "internalType": "address",
              "name": "user",
              "type": "address"
            },
            {
              "internalType": "uint256",
              "name": "network",
              "type": "uint256"
            },
            {
              "internalType": "uint256",
              "name": "intent",
              "type": "uint256"
            },
            {
              "internalType": "uint256",
              "name": "delegateType",
              "type": "uint256"
            },
            {
              "internalType": "uint256",
              "name": "deadline",
              "type": "uint256"
            },
            {
              "internalType": "contract IERC20Upgradeable",
              "name": "currency",
              "type": "address"
            },
            {
              "components": [
                {
                  "internalType": "uint256",
                  "name": "price",
                  "type": "uint256"
                },
                {
                  "internalType": "bytes",
                  "name": "data",
                  "type": "bytes"
                }
              ],
              "internalType": "struct Market.OrderItem[]",
              "name": "items",
              "type": "tuple[]"
            },
            {
              "internalType": "bytes32",
              "name": "r",
              "type": "bytes32"
            },
            {
              "internalType": "bytes32",
              "name": "s",
              "type": "bytes32"
            },
            {
              "internalType": "uint8",
              "name": "v",
              "type": "uint8"
            },
            {
              "internalType": "uint8",
              "name": "signVersion",
              "type": "uint8"
            }
          ],
          "internalType": "struct Market.Order",
          "name": "order",
          "type": "tuple"
        },
        {
          "components": [
            {
              "internalType": "uint256",
              "name": "salt",
              "type": "uint256"
            },
            {
              "internalType": "uint256",
              "name": "deadline",
              "type": "uint256"
            },
            {
              "internalType": "address",
              "name": "user",
              "type": "address"
            },
            {
              "internalType": "bool",
              "name": "canFail",
              "type": "bool"
            }
          ],
          "internalType": "struct Market.SettleShared",
          "name": "shared",
          "type": "tuple"
        },
        {
          "components": [
            {
              "internalType": "enum Market.Op",
              "name": "op",
              "type": "uint8"
            },
            {
              "internalType": "uint256",
              "name": "orderIdx",
              "type": "uint256"
            },
            {
              "internalType": "uint256",
              "name": "itemIdx",
              "type": "uint256"
            },
            {
              "internalType": "uint256",
              "name": "price",
              "type": "uint256"
            },
            {
              "internalType": "bytes32",
              "name": "itemHash",
              "type": "bytes32"
            },
            {
              "internalType": "contract IDelegate",
              "name": "executionDelegate",
              "type": "address"
            },
            {
              "components": [
                {
                  "internalType": "uint256",
                  "name": "percentage",
                  "type": "uint256"
                },
                {
                  "internalType": "address",
                  "name": "to",
                  "type": "address"
                }
              ],
              "internalType": "struct Market.Fee[]",
              "name": "fees",
              "type": "tuple[]"
            }
          ],
          "internalType": "struct Market.SettleDetail",
          "name": "detail",
          "type": "tuple"
        }
      ],
      "name": "runSingle",
      "outputs": [
        {
          "internalType": "uint256",
          "name": "",
          "type": "uint256"
        }
      ],
      "stateMutability": "nonpayable",
      "type": "function"
    },
    {
      "inputs": [
        {
          "internalType": "address",
          "name": "newOwner",
          "type": "address"
        },
        {
          "internalType": "bool",
          "name": "direct",
          "type": "bool"
        }
      ],
      "name": "transferOwnership",
      "outputs": [],
      "stateMutability": "nonpayable",
      "type": "function"
    },
    {
      "inputs": [],
      "name": "unpause",
      "outputs": [],
      "stateMutability": "nonpayable",
      "type": "function"
    },
    {
      "inputs": [
        {
          "internalType": "contract IERC20Upgradeable[]",
          "name": "toAdd",
          "type": "address[]"
        },
        {
          "internalType": "contract IERC20Upgradeable[]",
          "name": "toRemove",
          "type": "address[]"
        }
      ],
      "name": "updateCurrencies",
      "outputs": [],
      "stateMutability": "nonpayable",
      "type": "function"
    },
    {
      "inputs": [
        {
          "internalType": "address[]",
          "name": "toAdd",
          "type": "address[]"
        },
        {
          "internalType": "address[]",
          "name": "toRemove",
          "type": "address[]"
        }
      ],
      "name": "updateDelegates",
      "outputs": [],
      "stateMutability": "nonpayable",
      "type": "function"
    },
    {
      "inputs": [
        {
          "internalType": "uint256",
          "name": "val",
          "type": "uint256"
        }
      ],
      "name": "updateFeeCap",
      "outputs": [],
      "stateMutability": "nonpayable",
      "type": "function"
    },
    {
      "inputs": [
        {
          "internalType": "address",
          "name": "newImplementation",
          "type": "address"
        }
      ],
      "name": "upgradeTo",
      "outputs": [],
      "stateMutability": "nonpayable",
      "type": "function"
    },
    {
      "inputs": [
        {
          "internalType": "address",
          "name": "newImplementation",
          "type": "address"
        },
        {
          "internalType": "bytes",
          "name": "data",
          "type": "bytes"
        }
      ],
      "name": "upgradeToAndCall",
      "outputs": [],
      "stateMutability": "payable",
      "type": "function"
    },
    {
      "inputs": [],
      "name": "weth",
      "outputs": [
        {
          "internalType": "contract IWETHUpgradable",
          "name": "",
          "type": "address"
        }
      ],
      "stateMutability": "view",
      "type": "function"
    },
    {
      "stateMutability": "payable",
      "type": "receive"
    }
  ],
  "transactionHash": "0x7dfc244371eba8191b115a4ce4e27ff2f74a23beb2310f38e6282d8f71e8614d",
  "args": [],
  "numDeployments": 1,
  "solcInputHash": "1f7f80fb95b6efcc6f464d7df403eaaa",
  "bytecode": "0x60a06040523060805234801561001457600080fd5b50608051613de961004c600039600081816104d001528181610510015281816106450152818161068501526107180152613de96000f3fe60806040526004361061014f5760003560e01c80638456cb59116100b6578063a90419121161006f578063a9041912146103b4578063b242e534146103c7578063da35a26f146103e7578063e30c397814610407578063e59f739a14610425578063f698da251461044557600080fd5b80638456cb59146102ee5780638c7c8f84146103035780638da5cb5b14610323578063912c860c1461034157806395835fea1461037e5780639fb514671461039e57600080fd5b80634f1ef286116101085780634f1ef2861461022957806352d1902d1461023c578063587cde1e146102515780635c975abb146102915780636036cba3146102a9578063715018a6146102d957600080fd5b80630873c6ec1461015b5780631819ecc9146101855780633659cfe6146101a55780633f4ba83a146101c75780633fc8cef3146101dc5780634e71e0c81461021457600080fd5b3661015657005b600080fd5b34801561016757600080fd5b50610172620f424081565b6040519081526020015b60405180910390f35b34801561019157600080fd5b506101726101a036600461318a565b61045b565b3480156101b157600080fd5b506101c56101c03660046131fe565b6104c6565b005b3480156101d357600080fd5b506101c56105a5565b3480156101e857600080fd5b506002546101fc906001600160a01b031681565b6040516001600160a01b03909116815260200161017c565b34801561022057600080fd5b506101c56105d9565b6101c561023736600461321b565b61063b565b34801561024857600080fd5b5061017261070b565b34801561025d57600080fd5b5061028161026c3660046131fe565b60326020526000908152604090205460ff1681565b604051901515815260200161017c565b34801561029d57600080fd5b5060cc5460ff16610281565b3480156102b557600080fd5b506102816102c43660046131fe565b60336020526000908152604090205460ff1681565b3480156102e557600080fd5b506101c56107bf565b3480156102fa57600080fd5b506101c56107f3565b34801561030f57600080fd5b506101c561031e3660046132e4565b610825565b34801561032f57600080fd5b50609a546001600160a01b03166101fc565b34801561034d57600080fd5b5061037161035c36600461333d565b60346020526000908152604090205460ff1681565b60405161017c919061336c565b34801561038a57600080fd5b506101c561039936600461333d565b610a08565b3480156103aa57600080fd5b5061017260005481565b6101c56103c2366004613410565b610a6d565b3480156103d357600080fd5b506101c56103e236600461352e565b610e2e565b3480156103f357600080fd5b506101c5610402366004613567565b610edc565b34801561041357600080fd5b50609b546001600160a01b03166101fc565b34801561043157600080fd5b506101c56104403660046135d7565b6110ae565b34801561045157600080fd5b5061017260015481565b60003330146104b15760405162461bcd60e51b815260206004820152601760248201527f53656372657453686f703a20756e736166652063616c6c00000000000000000060448201526064015b60405180910390fd5b6104bc84848461128d565b90505b9392505050565b6001600160a01b037f000000000000000000000000000000000000000000000000000000000000000016300361050e5760405162461bcd60e51b81526004016104a890613642565b7f00000000000000000000000000000000000000000000000000000000000000006001600160a01b0316610557600080516020613d6d833981519152546001600160a01b031690565b6001600160a01b03161461057d5760405162461bcd60e51b81526004016104a89061368e565b61058681611a73565b604080516000808252602082019092526105a291839190611a9d565b50565b609a546001600160a01b031633146105cf5760405162461bcd60e51b81526004016104a8906136da565b6105d7611c08565b565b609b546001600160a01b031633146106335760405162461bcd60e51b815260206004820152601e60248201527f536166654f776e61626c653a2063616c6c657220213d2070656e64696e67000060448201526064016104a8565b6105d7611c9b565b6001600160a01b037f00000000000000000000000000000000000000000000000000000000000000001630036106835760405162461bcd60e51b81526004016104a890613642565b7f00000000000000000000000000000000000000000000000000000000000000006001600160a01b03166106cc600080516020613d6d833981519152546001600160a01b031690565b6001600160a01b0316146106f25760405162461bcd60e51b81526004016104a89061368e565b6106fb82611a73565b61070782826001611a9d565b5050565b6000306001600160a01b037f000000000000000000000000000000000000000000000000000000000000000016146107ab5760405162461bcd60e51b815260206004820152603860248201527f555550535570677261646561626c653a206d757374206e6f742062652063616c60448201527f6c6564207468726f7567682064656c656761746563616c6c000000000000000060648201526084016104a8565b50600080516020613d6d8339815191525b90565b609a546001600160a01b031633146107e95760405162461bcd60e51b81526004016104a8906136da565b6105d76000611d04565b609a546001600160a01b0316331461081d5760405162461bcd60e51b81526004016104a8906136da565b6105d7611d56565b609a546001600160a01b0316331461084f5760405162461bcd60e51b81526004016104a8906136da565b60005b825181101561092d5760016033600085848151811061087357610873613711565b60200260200101516001600160a01b03166001600160a01b0316815260200190815260200160002060006101000a81548160ff0219169083151502179055507f394e2e27feefcc03344b82ebb5995989b1d85a589c0cba6643f4e87f774a89ee8382815181106108e5576108e5613711565b602002602001015160006040516109139291906001600160a01b039290921682521515602082015260400190565b60405180910390a1806109258161373d565b915050610852565b5060005b8151811015610a03576033600083838151811061095057610950613711565b60200260200101516001600160a01b03166001600160a01b0316815260200190815260200160002060006101000a81549060ff02191690557f394e2e27feefcc03344b82ebb5995989b1d85a589c0cba6643f4e87f774a89ee8282815181106109bb576109bb613711565b602002602001015160016040516109e99291906001600160a01b039290921682521515602082015260400190565b60405180910390a1806109fb8161373d565b915050610931565b505050565b609a546001600160a01b03163314610a325760405162461bcd60e51b81526004016104a8906136da565b60008190556040518181527f19fc3beddeea399f0966d5f8664ad94006f16a10fb28c4e2fe6fae62626b71289060200160405180910390a150565b600260365403610abf5760405162461bcd60e51b815260206004820152601f60248201527f5265656e7472616e637947756172643a207265656e7472616e742063616c6c0060448201526064016104a8565b600260365560cc5460ff1615610b0a5760405162461bcd60e51b815260206004820152601060248201526f14185d5cd8589b194e881c185d5cd95960821b60448201526064016104a8565b4281604001516020015111610b315760405162461bcd60e51b81526004016104a890613756565b8060400151604001516001600160a01b0316336001600160a01b031614610b9a5760405162461bcd60e51b815260206004820152601c60248201527f53656372657453686f703a2073656e646572206e6f74206d617463680000000060448201526064016104a8565b3460005b825151811015610be057610bce83600001518281518110610bc157610bc1613711565b6020026020010151611dd1565b80610bd88161373d565b915050610b9e565b5060005b826020015151811015610dbc57600083602001518281518110610c0957610c09613711565b6020026020010151905060008460000151826020015181518110610c2f57610c2f613711565b6020026020010151905084604001516060015115610d8b576040808601519051631819ecc960e01b81523091631819ecc991610c719185918790600401613916565b6020604051808303816000875af1925050508015610cac575060408051601f3d908101601f19168201909252610ca991810190613a38565b60015b610d7957610cb8613a51565b806308c379a003610d165750610ccc613a6c565b80610cd75750610d18565b7f97c789f43a3e7ac27906b5fbdac832f54441771021fba06f71207d9be6d4b6238482604051610d08929190613af5565b60405180910390a150610da7565b505b3d808015610d42576040519150601f19603f3d011682016040523d82523d6000602084013e610d47565b606091505b507f97c789f43a3e7ac27906b5fbdac832f54441771021fba06f71207d9be6d4b6238482604051610d08929190613af5565b610d838186613b0e565b945050610da7565b610d9a8186604001518461128d565b610da49085613b0e565b93505b50508080610db49061373d565b915050610be4565b50604051339082156108fc029083906000818181858888f19350505050610e255760405162461bcd60e51b815260206004820152601d60248201527f53656372657453686f703a20726566756e6420746f6b656e206661696c00000060448201526064016104a8565b50506001603655565b609a546001600160a01b03163314610e585760405162461bcd60e51b81526004016104a8906136da565b6001600160a01b038216610eae5760405162461bcd60e51b815260206004820152601b60248201527f536166654f776e61626c653a206e6577206f776e65722069732030000000000060448201526064016104a8565b8015610ebd5761070782611d04565b609b80546001600160a01b0319166001600160a01b0384161790555050565b603554610100900460ff16610ef75760355460ff1615610efb565b303b155b610f5e5760405162461bcd60e51b815260206004820152602e60248201527f496e697469616c697a61626c653a20636f6e747261637420697320616c72656160448201526d191e481a5b9a5d1a585b1a5e995960921b60648201526084016104a8565b603554610100900460ff16158015610f80576035805461ffff19166101011790555b6000839055600280546001600160a01b0319166001600160a01b038416179055604080518082018252600e81526d05031322053656372657453686f760941b6020918201528151808301835260058152640312e302e360dc1b9082015281517f8b73c3c69bb8fe3d512ecc4cf759cc79239f7b179b0ffacaa9a75d522b39400f9181018290527f33c9c717ac4f1d9042c21834c184a1e067e7806976206baad1ec9a5cc5aba1d0928101929092527f06c015bd22b4c69690933c1058878ebdfef31f9aaae40bbe86d8a09fe1b2972c60608301524660808301523060a08301529060c00160408051601f198184030181529190528051602090910120600155611087611ece565b61108f611efc565b611097611f2f565b508015610a03576035805461ff0019169055505050565b609a546001600160a01b031633146110d85760405162461bcd60e51b81526004016104a8906136da565b60005b838110156111b3576001603260008787858181106110fb576110fb613711565b905060200201602081019061111091906131fe565b6001600160a01b031681526020810191909152604001600020805460ff19169115159190911790557f4a31a64b928a0e8aff42ef84d144ffe82d08cb41c8027060593135e2026899b285858381811061116b5761116b613711565b905060200201602081019061118091906131fe565b604080516001600160a01b039092168252600060208301520160405180910390a1806111ab8161373d565b9150506110db565b5060005b8181101561128657603260008484848181106111d5576111d5613711565b90506020020160208101906111ea91906131fe565b6001600160a01b031681526020810191909152604001600020805460ff191690557f4a31a64b928a0e8aff42ef84d144ffe82d08cb41c8027060593135e2026899b283838381811061123e5761123e613711565b905060200201602081019061125391906131fe565b604080516001600160a01b039092168252600160208301520160405180910390a18061127e8161373d565b9150506111b7565b5050505050565b6000806000905060008560e001518460400151815181106112b0576112b0613711565b6020026020010151905060006112c68783611f5f565b90508460800151811461131b5760405162461bcd60e51b815260206004820152601a60248201527f53656372657453686f703a2068617368206e6f74206d6174636800000000000060448201526064016104a8565b4687604001511461136e5760405162461bcd60e51b815260206004820152601960248201527f53656372657453686f703a2077726f6e67206e6574776f726b0000000000000060448201526064016104a8565b60a08501516001600160a01b0316158015906113a6575060a08501516001600160a01b031660009081526032602052604090205460ff165b6113f25760405162461bcd60e51b815260206004820152601c60248201527f53656372657453686f703a20756e6b6e6f776e2064656c65676174650000000060448201526064016104a8565b60c08701516001600160a01b031660009081526033602052604090205460ff1661145e5760405162461bcd60e51b815260206004820152601a60248201527f53656372657453686f703a2077726f6e672063757272656e637900000000000060448201526064016104a8565b602082015160018651600381111561147857611478613356565b036116a65760008281526034602052604081205460ff1660028111156114a0576114a0613356565b146114ed5760405162461bcd60e51b815260206004820152601c60248201527f53656372657453686f703a20736f6c64206f722063616e63656c65640000000060448201526064016104a8565b60018860600151146115415760405162461bcd60e51b815260206004820152601a60248201527f53656372657453686f703a20696e74656e7420213d2073656c6c00000000000060448201526064016104a8565b61154b8887611fb4565b428860a001511161156e5760405162461bcd60e51b81526004016104a890613756565b8251606087015110156115bb5760405162461bcd60e51b815260206004820152601560248201527414d958dc995d14da1bdc0e881d5b99195c9c185a59605a1b60448201526064016104a8565b6115d28860c001518860400151886060015161203c565b93508560a001516001600160a01b031663bc553f0f89602001518960400151846040518463ffffffff1660e01b815260040161161093929190613b25565b6020604051808303816000875af115801561162f573d6000803e3d6000fd5b505050506040513d601f19601f820116820180604052508101906116539190613b51565b61166f5760405162461bcd60e51b81526004016104a890613b6e565b6116888289602001518a60c00151898a60600151612078565b6000828152603460205260409020805460ff19166001179055611a5a565b6002865160038111156116bb576116bb613356565b036118cb5760008281526034602052604081205460ff1660028111156116e3576116e3613356565b146117305760405162461bcd60e51b815260206004820152601c60248201527f53656372657453686f703a20736f6c64206f722063616e63656c65640000000060448201526064016104a8565b60028860600151146117845760405162461bcd60e51b815260206004820152601a60248201527f53656372657453686f703a20696e74656e7420213d2073656c6c00000000000060448201526064016104a8565b61178e8887611fb4565b428860a00151116117b15760405162461bcd60e51b81526004016104a890613756565b8251606087015110156117fe5760405162461bcd60e51b815260206004820152601560248201527414d958dc995d14da1bdc0e881d5b99195c9c185a59605a1b60448201526064016104a8565b6118158860c001518960200151886060015161203c565b93508560a001516001600160a01b031663bc553f0f88604001518a60200151846040518463ffffffff1660e01b815260040161185393929190613b25565b6020604051808303816000875af1158015611872573d6000803e3d6000fd5b505050506040513d601f19601f820116820180604052508101906118969190613b51565b6118b25760405162461bcd60e51b81526004016104a890613b6e565b6116888288604001518a60c00151898a60600151612078565b6003865160038111156118e0576118e0613356565b03611a195760008281526034602052604081205460ff16600281111561190857611908613356565b146119555760405162461bcd60e51b815260206004820152601c60248201527f53656372657453686f703a20756e61626c6520746f2063616e63656c0000000060448201526064016104a8565b60208801516001600160a01b031633146119b15760405162461bcd60e51b815260206004820152601c60248201527f53656372657453686f703a206e6f207065726d69742063616e63656c0000000060448201526064016104a8565b428860a00151116119d45760405162461bcd60e51b81526004016104a890613756565b600082815260346020526040808220805460ff191660021790555183917f5b0b06d07e20243724d90e17a20034972f339eb28bd1c9437a71999bd15a1e7a91a2611a5a565b60405162461bcd60e51b8152602060048201526016602482015275053656372657453686f703a20756e6b6e6f776e206f760541b60448201526064016104a8565b611a678289858a8a6121c0565b50919695505050505050565b609a546001600160a01b031633146105a25760405162461bcd60e51b81526004016104a8906136da565b7f4910fdfa16fed3260ed0e7147f7cc6da11a60208b5b9406d12a635614ffd91435460ff1615611ad057610a0383612231565b826001600160a01b03166352d1902d6040518163ffffffff1660e01b8152600401602060405180830381865afa925050508015611b2a575060408051601f3d908101601f19168201909252611b2791810190613a38565b60015b611b8d5760405162461bcd60e51b815260206004820152602e60248201527f45524331393637557067726164653a206e657720696d706c656d656e7461746960448201526d6f6e206973206e6f74205555505360901b60648201526084016104a8565b600080516020613d6d8339815191528114611bfc5760405162461bcd60e51b815260206004820152602960248201527f45524331393637557067726164653a20756e737570706f727465642070726f786044820152681a58589b195555525160ba1b60648201526084016104a8565b50610a038383836122cd565b60cc5460ff16611c515760405162461bcd60e51b815260206004820152601460248201527314185d5cd8589b194e881b9bdd081c185d5cd95960621b60448201526064016104a8565b60cc805460ff191690557f5db9ee0a495bf2e6ff9c91a7834c1ba4fdd244a5e8aa4e537bd38aeae4b073aa335b6040516001600160a01b03909116815260200160405180910390a1565b609a54609b546040516001600160a01b03928316929091169082907f8be0079c531659141344cd1fd0a4f28419497f9722a3daafe3b4186f6b6457e090600090a350609b8054609a80546001600160a01b03199081166001600160a01b03841617909155169055565b609a80546001600160a01b038381166001600160a01b0319831681179093556040519116919082907f8be0079c531659141344cd1fd0a4f28419497f9722a3daafe3b4186f6b6457e090600090a35050565b60cc5460ff1615611d9c5760405162461bcd60e51b815260206004820152601060248201526f14185d5cd8589b194e881c185d5cd95960821b60448201526064016104a8565b60cc805460ff191660011790557f62e78cea01bee320cd4e420270b5ea74000d11b0c9f74754ebdbfc544b05a258611c7e3390565b6000600160ff1682610160015160ff1603611e21576000611dfc600154611df7856122f8565b6123c7565b9050611e19818461014001518561010001518661012001516123ee565b915050611e69565b60405162461bcd60e51b815260206004820152601d60248201527f53656372657453686f703a2077726f6e67207369672076657273696f6e00000060448201526064016104a8565b81602001516001600160a01b0316816001600160a01b0316146107075760405162461bcd60e51b815260206004820152601960248201527f53656372657453686f703a20736967206e6f74206d617463680000000000000060448201526064016104a8565b603554610100900460ff16611ef55760405162461bcd60e51b81526004016104a890613ba5565b6001603655565b603554610100900460ff16611f235760405162461bcd60e51b81526004016104a890613ba5565b60cc805460ff19169055565b603554610100900460ff16611f565760405162461bcd60e51b81526004016104a890613ba5565b6105d733611d04565b81516020808401516040808601516060870151608088015160a089015160c08a01519451600098611f9698909796918b9101613bf0565b60405160208183030381529060405280519060200120905092915050565b81608001518160a001516001600160a01b0316632c436e5b6040518163ffffffff1660e01b8152600401602060405180830381865afa158015611ffb573d6000803e3d6000fd5b505050506040513d601f19601f8201168201806040525081019061201f9190613a38565b146107075760405162461bcd60e51b81526004016104a890613b6e565b6000811561206e576001600160a01b0384166120595750806104bf565b61206e6001600160a01b038516843085612416565b5060009392505050565b806000805b8460c00151518110156121105760008560c0015182815181106120a2576120a2613711565b602002602001015190508060000151836120bc9190613c49565b92506000620f42408260000151876120d49190613c61565b6120de9190613c80565b90506120ea8186613b0e565b94506120fb88836020015183612481565b505080806121089061373d565b91505061207d565b5080600054101561215c5760405162461bcd60e51b81526020600482015260166024820152751d1bdd185b081999594818d85c08195e18d95959195960521b60448201526064016104a8565b612167858784612481565b604080518881526001600160a01b0387811660208301528816818301526060810184905290517fe2c49856b032c255ae7e325d18109bc4e22a2804e2e49a017ec0f59f19cd447b9181900360800190a150505050505050565b847fbc7faddfa2d67a527d007c7779c5ce64b8a108c2fcbfe4b13a0b1d3551a1a175856020015184604001518760000151866000015189606001518a608001518b60a001518c60c001518c8b6040516122229a99989796959493929190613ca2565b60405180910390a25050505050565b6001600160a01b0381163b61229e5760405162461bcd60e51b815260206004820152602d60248201527f455243313936373a206e657720696d706c656d656e746174696f6e206973206e60448201526c1bdd08184818dbdb9d1c9858dd609a1b60648201526084016104a8565b600080516020613d6d83398151915280546001600160a01b0319166001600160a01b0392909216919091179055565b6122d6836124b3565b6000825111806122e35750805b15610a03576122f283836124f3565b50505050565b60007f1897435d74cd983f2d094af2a83a02fd7acae45cbbee767ee4538a4c31bc79d6826000015183602001518460400151856060015186608001518760a001518860c001518960e00151516123518b60e001516125e7565b60408051602081019b909b528a01989098526001600160a01b0396871660608a0152608089019590955260a088019390935260c087019190915260e0860152909116610100840152610120830152610140820152610160015b604051602081830303815290604052805190602001209050919050565b60405161190160f01b60208201526022810183905260428101829052600090606201611f96565b60008060006123ff8787878761265e565b9150915061240c8161274b565b5095945050505050565b6040516001600160a01b03808516602483015283166044820152606481018290526122f29085906323b872dd60e01b906084015b60408051601f198184030181529190526020810180516001600160e01b03166001600160e01b031990931692909217909152612901565b8015610a03576001600160a01b03831661249f57610a0382826129d3565b610a036001600160a01b0384168383612aec565b6124bc81612231565b6040516001600160a01b038216907fbc7cd75a20ee27fd9adebab32041f755214dbc6bffa90cc0225b39da2e5c2d3b90600090a250565b60606001600160a01b0383163b61255b5760405162461bcd60e51b815260206004820152602660248201527f416464726573733a2064656c65676174652063616c6c20746f206e6f6e2d636f6044820152651b9d1c9858dd60d21b60648201526084016104a8565b600080846001600160a01b0316846040516125769190613d1b565b600060405180830381855af49150503d80600081146125b1576040519150601f19603f3d011682016040523d82523d6000602084013e6125b6565b606091505b50915091506125de8282604051806060016040528060278152602001613d8d60279139612b1c565b95945050505050565b6000606060005b835181101561264f578161261a85838151811061260d5761260d613711565b6020026020010151612b55565b60405160200161262b929190613d37565b604051602081830303815290604052915080806126479061373d565b9150506125ee565b50805160209091012092915050565b6000807f7fffffffffffffffffffffffffffffff5d576e7357a4501ddfe92f46681b20a08311156126955750600090506003612742565b8460ff16601b141580156126ad57508460ff16601c14155b156126be5750600090506004612742565b6040805160008082526020820180845289905260ff881692820192909252606081018690526080810185905260019060a0016020604051602081039080840390855afa158015612712573d6000803e3d6000fd5b5050604051601f1901519150506001600160a01b03811661273b57600060019250925050612742565b9150600090505b94509492505050565b600081600481111561275f5761275f613356565b036127675750565b600181600481111561277b5761277b613356565b036127c85760405162461bcd60e51b815260206004820152601860248201527f45434453413a20696e76616c6964207369676e6174757265000000000000000060448201526064016104a8565b60028160048111156127dc576127dc613356565b036128295760405162461bcd60e51b815260206004820152601f60248201527f45434453413a20696e76616c6964207369676e6174757265206c656e6774680060448201526064016104a8565b600381600481111561283d5761283d613356565b036128955760405162461bcd60e51b815260206004820152602260248201527f45434453413a20696e76616c6964207369676e6174757265202773272076616c604482015261756560f01b60648201526084016104a8565b60048160048111156128a9576128a9613356565b036105a25760405162461bcd60e51b815260206004820152602260248201527f45434453413a20696e76616c6964207369676e6174757265202776272076616c604482015261756560f01b60648201526084016104a8565b6000612956826040518060400160405280602081526020017f5361666545524332303a206c6f772d6c6576656c2063616c6c206661696c6564815250856001600160a01b0316612ba89092919063ffffffff16565b805190915015610a0357808060200190518101906129749190613b51565b610a035760405162461bcd60e51b815260206004820152602a60248201527f5361666545524332303a204552433230206f7065726174696f6e20646964206e6044820152691bdd081cdd58d8d9595960b21b60648201526084016104a8565b80471015612a235760405162461bcd60e51b815260206004820152601d60248201527f416464726573733a20696e73756666696369656e742062616c616e636500000060448201526064016104a8565b6000826001600160a01b03168260405160006040518083038185875af1925050503d8060008114612a70576040519150601f19603f3d011682016040523d82523d6000602084013e612a75565b606091505b5050905080610a035760405162461bcd60e51b815260206004820152603a60248201527f416464726573733a20756e61626c6520746f2073656e642076616c75652c207260448201527f6563697069656e74206d6179206861766520726576657274656400000000000060648201526084016104a8565b6040516001600160a01b038316602482015260448101829052610a0390849063a9059cbb60e01b9060640161244a565b60608315612b2b5750816104bf565b825115612b3b5782518084602001fd5b8160405162461bcd60e51b81526004016104a89190613d59565b80516020808301518051908201206040516000936123aa937fc3a0c300c66ade339734c0629cf933940eaccc55b682952080d263a95c718462939192019283526020830191909152604082015260600190565b60606104bc8484600085856001600160a01b0385163b612c0a5760405162461bcd60e51b815260206004820152601d60248201527f416464726573733a2063616c6c20746f206e6f6e2d636f6e747261637400000060448201526064016104a8565b600080866001600160a01b03168587604051612c269190613d1b565b60006040518083038185875af1925050503d8060008114612c63576040519150601f19603f3d011682016040523d82523d6000602084013e612c68565b606091505b5091509150612c78828286612b1c565b979650505050505050565b634e487b7160e01b600052604160045260246000fd5b604081018181106001600160401b0382111715612cb857612cb8612c83565b60405250565b606081018181106001600160401b0382111715612cb857612cb8612c83565b601f8201601f191681016001600160401b0381118282101715612d0257612d02612c83565b6040525050565b60405161018081016001600160401b0381118282101715612d2c57612d2c612c83565b60405290565b60405160e081016001600160401b0381118282101715612d2c57612d2c612c83565b6001600160a01b03811681146105a257600080fd5b8035612d7481612d54565b919050565b60006001600160401b03821115612d9257612d92612c83565b5060051b60200190565b600082601f830112612dad57600080fd5b81356001600160401b03811115612dc657612dc6612c83565b604051612ddd601f8301601f191660200182612cdd565b818152846020838601011115612df257600080fd5b816020850160208301376000918101602001919091529392505050565b600082601f830112612e2057600080fd5b81356020612e2d82612d79565b60408051612e3b8382612cdd565b84815260059490941b8601830193838101925087851115612e5b57600080fd5b8387015b85811015612edc5780356001600160401b0380821115612e7f5760008081fd5b90890190818b03601f1901851315612e975760008081fd5b8451612ea281612c99565b8783013581528583013582811115612eba5760008081fd5b612ec88d8a83870101612d9c565b828a01525086525050928401928401612e5f565b50979650505050505050565b803560ff81168114612d7457600080fd5b60006101808284031215612f0c57600080fd5b612f14612d09565b905081358152612f2660208301612d69565b602082015260408201356040820152606082013560608201526080820135608082015260a082013560a0820152612f5f60c08301612d69565b60c082015260e08201356001600160401b03811115612f7d57600080fd5b612f8984828501612e0f565b60e08301525061010082810135908201526101208083013590820152610140612fb3818401612ee8565b90820152610160612fc5838201612ee8565b9082015292915050565b80151581146105a257600080fd5b600060808284031215612fef57600080fd5b604051608081018181106001600160401b038211171561301157613011612c83565b80604052508091508235815260208301356020820152604083013561303581612d54565b6040820152606083013561304881612fcf565b6060919091015292915050565b803560048110612d7457600080fd5b600082601f83011261307557600080fd5b8135602061308282612d79565b604080516130908382612cdd565b84815260069490941b86018301938381019250878511156130b057600080fd5b8387015b85811015612edc5782818a0312156130cc5760008081fd5b82516130d781612c99565b81358152858201356130e881612d54565b8187015284529284019282016130b4565b600060e0828403121561310b57600080fd5b613113612d32565b905061311e82613055565b81526020820135602082015260408201356040820152606082013560608201526080820135608082015261315460a08301612d69565b60a082015260c08201356001600160401b0381111561317257600080fd5b61317e84828501613064565b60c08301525092915050565b600080600060c0848603121561319f57600080fd5b83356001600160401b03808211156131b657600080fd5b6131c287838801612ef9565b94506131d18760208801612fdd565b935060a08601359150808211156131e757600080fd5b506131f4868287016130f9565b9150509250925092565b60006020828403121561321057600080fd5b81356104bf81612d54565b6000806040838503121561322e57600080fd5b823561323981612d54565b915060208301356001600160401b0381111561325457600080fd5b61326085828601612d9c565b9150509250929050565b600082601f83011261327b57600080fd5b8135602061328882612d79565b6040516132958282612cdd565b83815260059390931b85018201928281019150868411156132b557600080fd5b8286015b848110156132d95780356132cc81612d54565b83529183019183016132b9565b509695505050505050565b600080604083850312156132f757600080fd5b82356001600160401b038082111561330e57600080fd5b61331a8683870161326a565b9350602085013591508082111561333057600080fd5b506132608582860161326a565b60006020828403121561334f57600080fd5b5035919050565b634e487b7160e01b600052602160045260246000fd5b602081016003831061338057613380613356565b91905290565b600082601f83011261339757600080fd5b813560206133a482612d79565b6040516133b18282612cdd565b83815260059390931b85018201928281019150868411156133d157600080fd5b8286015b848110156132d95780356001600160401b038111156133f45760008081fd5b6134028986838b01016130f9565b8452509183019183016133d5565b6000602080838503121561342357600080fd5b82356001600160401b038082111561343a57600080fd5b9084019060c0828703121561344e57600080fd5b60405161345a81612cbe565b82358281111561346957600080fd5b8301601f8101881361347a57600080fd5b803561348581612d79565b6040516134928282612cdd565b82815260059290921b830187019187810191508a8311156134b257600080fd5b8784015b838110156134ea578035878111156134ce5760008081fd5b6134dc8d8b83890101612ef9565b8452509188019188016134b6565b508452505050828401358281111561350157600080fd5b61350d88828601613386565b858301525061351f8760408501612fdd565b60408201529695505050505050565b6000806040838503121561354157600080fd5b823561354c81612d54565b9150602083013561355c81612fcf565b809150509250929050565b6000806040838503121561357a57600080fd5b82359150602083013561355c81612d54565b60008083601f84011261359e57600080fd5b5081356001600160401b038111156135b557600080fd5b6020830191508360208260051b85010111156135d057600080fd5b9250929050565b600080600080604085870312156135ed57600080fd5b84356001600160401b038082111561360457600080fd5b6136108883890161358c565b9096509450602087013591508082111561362957600080fd5b506136368782880161358c565b95989497509550505050565b6020808252602c908201527f46756e6374696f6e206d7573742062652063616c6c6564207468726f7567682060408201526b19195b1959d85d1958d85b1b60a21b606082015260800190565b6020808252602c908201527f46756e6374696f6e206d7573742062652063616c6c6564207468726f7567682060408201526b6163746976652070726f787960a01b606082015260800190565b6020808252601d908201527f536166654f776e61626c653a2063616c6c6572206e6f74206f776e6572000000604082015260600190565b634e487b7160e01b600052603260045260246000fd5b634e487b7160e01b600052601160045260246000fd5b60006001820161374f5761374f613727565b5060010190565b6020808252601c908201527f53656372657453686f703a20646561646c696e65207265616368656400000000604082015260600190565b60005b838110156137a8578181015183820152602001613790565b838111156122f25750506000910152565b600081518084526137d181602086016020860161378d565b601f01601f19169290920160200192915050565b80518252600060208201516040602085015261380460408501826137b9565b949350505050565b600081518084526020808501808196508360051b8101915082860160005b858110156138545782840389526138428483516137e5565b9885019893509084019060010161382a565b5091979650505050505050565b600060e0830182516004811061387957613879613356565b84526020838101518186015260408085015181870152606080860151908701526080808601519087015260a0808601516001600160a01b039081169188019190915260c08087015160e091890191909152805194859052830193600091906101008901905b80841015613909578651805183528601518316868301529585019560019390930192908401906138de565b5098975050505050505050565b60c08152835160c08201526000602085015161393d60e08401826001600160a01b03169052565b506040850151610100818185015260608701519150610120828186015260808801519250610140838187015260a08901519350610160848188015260c08a01519450610180613996818901876001600160a01b03169052565b60e08b01519550806101a0890152506139b361024088018661380c565b938a01516101c0880152918901516101e087015288015160ff9081166102008701529088015190811661022086015290915050613a1c602084018680518252602080820151908301526040808201516001600160a01b0316908301526060908101511515910152565b82810360a0840152613a2e8185613861565b9695505050505050565b600060208284031215613a4a57600080fd5b5051919050565b600060033d11156107bc5760046000803e5060005160e01c90565b600060443d1015613a7a5790565b6040516003193d81016004833e81513d6001600160401b038160248401118184111715613aa957505050505090565b8285019150815181811115613ac15750505050505090565b843d8701016020828501011115613adb5750505050505090565b613aea60208286010187612cdd565b509095945050505050565b8281526040602082015260006104bc60408301846137b9565b600082821015613b2057613b20613727565b500390565b6001600160a01b038481168252831660208201526060604082018190526000906125de908301846137b9565b600060208284031215613b6357600080fd5b81516104bf81612fcf565b6020808252601c908201527f53656372657453686f703a2064656c65676174696f6e206572726f7200000000604082015260600190565b6020808252602b908201527f496e697469616c697a61626c653a20636f6e7472616374206973206e6f74206960408201526a6e697469616c697a696e6760a81b606082015260800190565b60006101008a835260018060a01b03808b1660208501528960408501528860608501528760808501528660a085015280861660c0850152508060e0840152613c3a818401856137e5565b9b9a5050505050505050505050565b60008219821115613c5c57613c5c613727565b500190565b6000816000190483118215151615613c7b57613c7b613727565b500290565b600082613c9d57634e487b7160e01b600052601260045260246000fd5b500490565b600061014060018060a01b03808e168452808d1660208501528b60408501528a60608501528960808501528860a08501528760c085015280871660e08501525080610100840152613cf5818401866137e5565b9050828103610120840152613d0a8185613861565b9d9c50505050505050505050505050565b60008251613d2d81846020870161378d565b9190910192915050565b60008351613d4981846020880161378d565b9190910191825250602001919050565b6020815260006104bf60208301846137b956fe360894a13ba1a3210667c828492db98dca3e2076cc3735a920a3ca505d382bbc416464726573733a206c6f772d6c6576656c2064656c65676174652063616c6c206661696c6564a26469706673582212208a975ecd58f8e7ef7e511ac1218f9ef3bf0e40a24c276ca42bae8fa6adcd578a64736f6c634300080f0033",
  "devdoc": {
    "kind": "dev",
    "methods": {
      "claimOwnership()": {
        "details": "pending owner call this function to claim ownership"
      },
      "initialize(uint256,address)": {
        "details": "initialize",
        "params": {
          "feeCapPct_": "max fee percentage",
          "weth_": "address of wrapped eth"
        }
      },
      "owner()": {
        "details": "Returns the address of the current owner."
      },
      "paused()": {
        "details": "Returns true if the contract is paused, and false otherwise."
      },
      "pendingOwner()": {
        "details": "Return the address of the pending owner"
      },
      "proxiableUUID()": {
        "details": "Implementation of the ERC1822 {proxiableUUID} function. This returns the storage slot used by the implementation. It is used to validate that the this implementation remains valid after an upgrade. IMPORTANT: A proxy pointing at a proxiable contract should not be considered proxiable itself, because this risks bricking a proxy that upgrades to it, by delegating to itself until out of gas. Thus it is critical that this function revert if invoked through a proxy. This is guaranteed by the `notDelegated` modifier."
      },
      "renounceOwnership()": {
        "details": "Leaves the contract without owner. It will not be possible to call `onlyOwner` functions anymore. Can only be called by the current owner. NOTE: Renouncing ownership will leave the contract without an owner, thereby removing any functionality that is only available to the owner."
      },
      "run(((uint256,address,uint256,uint256,uint256,uint256,address,(uint256,bytes)[],bytes32,bytes32,uint8,uint8)[],(uint8,uint256,uint256,uint256,bytes32,address,(uint256,address)[])[],(uint256,uint256,address,bool)))": {
        "details": "Entry of a contract call",
        "params": {
          "input": "a struct that contains all data"
        }
      },
      "runSingle((uint256,address,uint256,uint256,uint256,uint256,address,(uint256,bytes)[],bytes32,bytes32,uint8,uint8),(uint256,uint256,address,bool),(uint8,uint256,uint256,uint256,bytes32,address,(uint256,address)[]))": {
        "details": "run a single order",
        "params": {
          "detail": "detail by the taker",
          "order": "order by the maker",
          "shared": "some option of the taker"
        }
      },
      "transferOwnership(address,bool)": {
        "details": "Transfers ownership of the contract to a new account (`newOwner`). Can only be called by the current owner. Note If direct is false, it will set an pending owner and the OwnerShipTransferring only happens when the pending owner claim the ownership"
      },
      "updateCurrencies(address[],address[])": {
        "details": "update Currencies address",
        "params": {
          "toAdd": "the array of currency address that want to add",
          "toRemove": "the array to currency address that want to remove"
        }
      },
      "updateDelegates(address[],address[])": {
        "details": "update Delegates address",
        "params": {
          "toAdd": "the array of delegate address that want to add",
          "toRemove": "the array to delegate address that want to remove"
        }
      },
      "updateFeeCap(uint256)": {
        "params": {
          "val": "new Fee Cap"
        }
      },
      "upgradeTo(address)": {
        "details": "Upgrade the implementation of the proxy to `newImplementation`. Calls {_authorizeUpgrade}. Emits an {Upgraded} event."
      },
      "upgradeToAndCall(address,bytes)": {
        "details": "Upgrade the implementation of the proxy to `newImplementation`, and subsequently execute the function call encoded in `data`. Calls {_authorizeUpgrade}. Emits an {Upgraded} event."
      }
    },
    "stateVariables": {
      "RATE_BASE": {
        "details": "precision of the parameters "
      }
    },
    "version": 1
  },
  "userdoc": {
    "kind": "user",
    "methods": {},
    "version": 1
  },
  "storageLayout": {
    "storage": [
      {
        "astId": 10430,
        "contract": "contracts/secretShop/SecretShopUpgradable.sol:SecretShopUpgradable",
        "label": "feeCapPct",
        "offset": 0,
        "slot": "0",
        "type": "t_uint256"
      },
      {
        "astId": 10433,
        "contract": "contracts/secretShop/SecretShopUpgradable.sol:SecretShopUpgradable",
        "label": "domainSeparator",
        "offset": 0,
        "slot": "1",
        "type": "t_bytes32"
      },
      {
        "astId": 10436,
        "contract": "contracts/secretShop/SecretShopUpgradable.sol:SecretShopUpgradable",
        "label": "weth",
        "offset": 0,
        "slot": "2",
        "type": "t_contract(IWETHUpgradable)11898"
      },
      {
        "astId": 10440,
        "contract": "contracts/secretShop/SecretShopUpgradable.sol:SecretShopUpgradable",
        "label": "__gap",
        "offset": 0,
        "slot": "3",
        "type": "t_array(t_uint256)47_storage"
      },
      {
        "astId": 10445,
        "contract": "contracts/secretShop/SecretShopUpgradable.sol:SecretShopUpgradable",
        "label": "delegates",
        "offset": 0,
        "slot": "50",
        "type": "t_mapping(t_address,t_bool)"
      },
      {
        "astId": 10451,
        "contract": "contracts/secretShop/SecretShopUpgradable.sol:SecretShopUpgradable",
        "label": "currencies",
        "offset": 0,
        "slot": "51",
        "type": "t_mapping(t_contract(IERC20Upgradeable)846,t_bool)"
      },
      {
        "astId": 10457,
        "contract": "contracts/secretShop/SecretShopUpgradable.sol:SecretShopUpgradable",
        "label": "inventoryStatus",
        "offset": 0,
        "slot": "52",
        "type": "t_mapping(t_bytes32,t_enum(InvStatus)10413)"
      },
      {
        "astId": 395,
        "contract": "contracts/secretShop/SecretShopUpgradable.sol:SecretShopUpgradable",
        "label": "_initialized",
        "offset": 0,
        "slot": "53",
        "type": "t_bool"
      },
      {
        "astId": 398,
        "contract": "contracts/secretShop/SecretShopUpgradable.sol:SecretShopUpgradable",
        "label": "_initializing",
        "offset": 1,
        "slot": "53",
        "type": "t_bool"
      },
      {
        "astId": 723,
        "contract": "contracts/secretShop/SecretShopUpgradable.sol:SecretShopUpgradable",
        "label": "_status",
        "offset": 0,
        "slot": "54",
        "type": "t_uint256"
      },
      {
        "astId": 767,
        "contract": "contracts/secretShop/SecretShopUpgradable.sol:SecretShopUpgradable",
        "label": "__gap",
        "offset": 0,
        "slot": "55",
        "type": "t_array(t_uint256)49_storage"
      },
      {
        "astId": 1354,
        "contract": "contracts/secretShop/SecretShopUpgradable.sol:SecretShopUpgradable",
        "label": "__gap",
        "offset": 0,
        "slot": "104",
        "type": "t_array(t_uint256)50_storage"
      },
      {
        "astId": 7440,
        "contract": "contracts/secretShop/SecretShopUpgradable.sol:SecretShopUpgradable",
        "label": "_owner",
        "offset": 0,
        "slot": "154",
        "type": "t_address"
      },
      {
        "astId": 7442,
        "contract": "contracts/secretShop/SecretShopUpgradable.sol:SecretShopUpgradable",
        "label": "_pendingOwner",
        "offset": 0,
        "slot": "155",
        "type": "t_address"
      },
      {
        "astId": 7625,
        "contract": "contracts/secretShop/SecretShopUpgradable.sol:SecretShopUpgradable",
        "label": "__gap",
        "offset": 0,
        "slot": "156",
        "type": "t_array(t_uint256)48_storage"
      },
      {
        "astId": 619,
        "contract": "contracts/secretShop/SecretShopUpgradable.sol:SecretShopUpgradable",
        "label": "_paused",
        "offset": 0,
        "slot": "204",
        "type": "t_bool"
      },
      {
        "astId": 708,
        "contract": "contracts/secretShop/SecretShopUpgradable.sol:SecretShopUpgradable",
        "label": "__gap",
        "offset": 0,
        "slot": "205",
        "type": "t_array(t_uint256)49_storage"
      },
      {
        "astId": 377,
        "contract": "contracts/secretShop/SecretShopUpgradable.sol:SecretShopUpgradable",
        "label": "__gap",
        "offset": 0,
        "slot": "254",
        "type": "t_array(t_uint256)50_storage"
      },
      {
        "astId": 597,
        "contract": "contracts/secretShop/SecretShopUpgradable.sol:SecretShopUpgradable",
        "label": "__gap",
        "offset": 0,
        "slot": "304",
        "type": "t_array(t_uint256)50_storage"
      }
    ],
    "types": {
      "t_address": {
        "encoding": "inplace",
        "label": "address",
        "numberOfBytes": "20"
      },
      "t_array(t_uint256)47_storage": {
        "base": "t_uint256",
        "encoding": "inplace",
        "label": "uint256[47]",
        "numberOfBytes": "1504"
      },
      "t_array(t_uint256)48_storage": {
        "base": "t_uint256",
        "encoding": "inplace",
        "label": "uint256[48]",
        "numberOfBytes": "1536"
      },
      "t_array(t_uint256)49_storage": {
        "base": "t_uint256",
        "encoding": "inplace",
        "label": "uint256[49]",
        "numberOfBytes": "1568"
      },
      "t_array(t_uint256)50_storage": {
        "base": "t_uint256",
        "encoding": "inplace",
        "label": "uint256[50]",
        "numberOfBytes": "1600"
      },
      "t_bool": {
        "encoding": "inplace",
        "label": "bool",
        "numberOfBytes": "1"
      },
      "t_bytes32": {
        "encoding": "inplace",
        "label": "bytes32",
        "numberOfBytes": "32"
      },
      "t_contract(IERC20Upgradeable)846": {
        "encoding": "inplace",
        "label": "contract IERC20Upgradeable",
        "numberOfBytes": "20"
      },
      "t_contract(IWETHUpgradable)11898": {
        "encoding": "inplace",
        "label": "contract IWETHUpgradable",
        "numberOfBytes": "20"
      },
      "t_enum(InvStatus)10413": {
        "encoding": "inplace",
        "label": "enum Market.InvStatus",
        "numberOfBytes": "1"
      },
      "t_mapping(t_address,t_bool)": {
        "encoding": "mapping",
        "key": "t_address",
        "label": "mapping(address => bool)",
        "numberOfBytes": "32",
        "value": "t_bool"
      },
      "t_mapping(t_bytes32,t_enum(InvStatus)10413)": {
        "encoding": "mapping",
        "key": "t_bytes32",
        "label": "mapping(bytes32 => enum Market.InvStatus)",
        "numberOfBytes": "32",
        "value": "t_enum(InvStatus)10413"
      },
      "t_mapping(t_contract(IERC20Upgradeable)846,t_bool)": {
        "encoding": "mapping",
        "key": "t_contract(IERC20Upgradeable)846",
        "label": "mapping(contract IERC20Upgradeable => bool)",
        "numberOfBytes": "32",
        "value": "t_bool"
      },
      "t_uint256": {
        "encoding": "inplace",
        "label": "uint256",
        "numberOfBytes": "32"
      }
    }
  }
}