{
  "address": "0x1DEF93A65aD4F7578029A14Bf79565bB55099c2b",
  "abi": [
    {
      "inputs": [],
      "name": "AddGaugeFail",
      "type": "error"
    },
    {
      "inputs": [],
      "name": "DuplicatedGaugeType",
      "type": "error"
    },
    {
      "inputs": [],
      "name": "InvalidGaugeType",
      "type": "error"
    },
    {
      "inputs": [],
      "name": "InvalidWeight",
      "type": "error"
    },
    {
      "inputs": [],
      "name": "NoPermission",
      "type": "error"
    },
    {
      "inputs": [],
      "name": "UnLockTooSoon",
      "type": "error"
    },
    {
      "inputs": [],
      "name": "VoteTooOften",
      "type": "error"
    },
    {
      "inputs": [],
      "name": "ZeroAddressSet",
      "type": "error"
    },
    {
      "anonymous": false,
      "inputs": [
        {
          "indexed": false,
          "internalType": "string",
          "name": "name",
          "type": "string"
        },
        {
          "indexed": false,
          "internalType": "int128",
          "name": "typeId",
          "type": "int128"
        }
      ],
      "name": "AddType",
      "type": "event"
    },
    {
      "anonymous": false,
      "inputs": [
        {
          "indexed": false,
          "internalType": "address",
          "name": "previousAdmin",
          "type": "address"
        },
        {
          "indexed": false,
          "internalType": "address",
          "name": "newAdmin",
          "type": "address"
        }
      ],
      "name": "AdminChanged",
      "type": "event"
    },
    {
      "anonymous": false,
      "inputs": [
        {
          "indexed": false,
          "internalType": "address",
          "name": "admin",
          "type": "address"
        }
      ],
      "name": "ApplyOwnership",
      "type": "event"
    },
    {
      "anonymous": false,
      "inputs": [
        {
          "indexed": true,
          "internalType": "address",
          "name": "beacon",
          "type": "address"
        }
      ],
      "name": "BeaconUpgraded",
      "type": "event"
    },
    {
      "anonymous": false,
      "inputs": [
        {
          "indexed": false,
          "internalType": "address",
          "name": "admin",
          "type": "address"
        }
      ],
      "name": "CommitOwnership",
      "type": "event"
    },
    {
      "anonymous": false,
      "inputs": [
        {
          "indexed": false,
          "internalType": "uint8",
          "name": "version",
          "type": "uint8"
        }
      ],
      "name": "Initialized",
      "type": "event"
    },
    {
      "anonymous": false,
      "inputs": [
        {
          "indexed": false,
          "internalType": "address",
          "name": "addr",
          "type": "address"
        },
        {
          "indexed": false,
          "internalType": "int128",
          "name": "gaugeType",
          "type": "int128"
        },
        {
          "indexed": false,
          "internalType": "uint256",
          "name": "weight",
          "type": "uint256"
        }
      ],
      "name": "NewGauge",
      "type": "event"
    },
    {
      "anonymous": false,
      "inputs": [
        {
          "indexed": false,
          "internalType": "address",
          "name": "gaugeAddress",
          "type": "address"
        },
        {
          "indexed": false,
          "internalType": "uint256",
          "name": "time",
          "type": "uint256"
        },
        {
          "indexed": false,
          "internalType": "uint256",
          "name": "weight",
          "type": "uint256"
        },
        {
          "indexed": false,
          "internalType": "uint256",
          "name": "totalWeight",
          "type": "uint256"
        }
      ],
      "name": "NewGaugeWeight",
      "type": "event"
    },
    {
      "anonymous": false,
      "inputs": [
        {
          "indexed": false,
          "internalType": "int128",
          "name": "typeId",
          "type": "int128"
        },
        {
          "indexed": false,
          "internalType": "uint256",
          "name": "time",
          "type": "uint256"
        },
        {
          "indexed": false,
          "internalType": "uint256",
          "name": "weight",
          "type": "uint256"
        },
        {
          "indexed": false,
          "internalType": "uint256",
          "name": "totalWeight",
          "type": "uint256"
        }
      ],
      "name": "NewTypeWeight",
      "type": "event"
    },
    {
      "anonymous": false,
      "inputs": [
        {
          "indexed": true,
          "internalType": "address",
          "name": "previousOwner",
          "type": "address"
        },
        {
          "indexed": true,
          "internalType": "address",
          "name": "newOwner",
          "type": "address"
        }
      ],
      "name": "OwnershipTransferred",
      "type": "event"
    },
    {
      "anonymous": false,
      "inputs": [
        {
          "indexed": false,
          "internalType": "address",
          "name": "account",
          "type": "address"
        }
      ],
      "name": "Paused",
      "type": "event"
    },
    {
      "anonymous": false,
      "inputs": [
        {
          "indexed": false,
          "internalType": "address",
          "name": "oldP12Factory",
          "type": "address"
        },
        {
          "indexed": false,
          "internalType": "address",
          "name": "newP12Factory",
          "type": "address"
        }
      ],
      "name": "SetP12Factory",
      "type": "event"
    },
    {
      "anonymous": false,
      "inputs": [
        {
          "indexed": false,
          "internalType": "contract IVotingEscrow",
          "name": "oldVotingEscrow",
          "type": "address"
        },
        {
          "indexed": false,
          "internalType": "contract IVotingEscrow",
          "name": "newVotingEscrow",
          "type": "address"
        }
      ],
      "name": "SetVotingEscrow",
      "type": "event"
    },
    {
      "anonymous": false,
      "inputs": [
        {
          "indexed": false,
          "internalType": "address",
          "name": "account",
          "type": "address"
        }
      ],
      "name": "Unpaused",
      "type": "event"
    },
    {
      "anonymous": false,
      "inputs": [
        {
          "indexed": true,
          "internalType": "address",
          "name": "implementation",
          "type": "address"
        }
      ],
      "name": "Upgraded",
      "type": "event"
    },
    {
      "anonymous": false,
      "inputs": [
        {
          "indexed": false,
          "internalType": "uint256",
          "name": "time",
          "type": "uint256"
        },
        {
          "indexed": false,
          "internalType": "address",
          "name": "user",
          "type": "address"
        },
        {
          "indexed": false,
          "internalType": "address",
          "name": "gaugeAddress",
          "type": "address"
        },
        {
          "indexed": false,
          "internalType": "uint256",
          "name": "weight",
          "type": "uint256"
        }
      ],
      "name": "VoteForGauge",
      "type": "event"
    },
    {
      "inputs": [],
      "name": "MULTIPLIER",
      "outputs": [
        {
          "internalType": "uint256",
          "name": "",
          "type": "uint256"
        }
      ],
      "stateMutability": "view",
      "type": "function"
    },
    {
      "inputs": [],
      "name": "WEEK",
      "outputs": [
        {
          "internalType": "uint256",
          "name": "",
          "type": "uint256"
        }
      ],
      "stateMutability": "view",
      "type": "function"
    },
    {
      "inputs": [],
      "name": "WEIGHT_VOTE_DELAY",
      "outputs": [
        {
          "internalType": "uint256",
          "name": "",
          "type": "uint256"
        }
      ],
      "stateMutability": "view",
      "type": "function"
    },
    {
      "inputs": [
        {
          "internalType": "address",
          "name": "addr",
          "type": "address"
        },
        {
          "internalType": "int128",
          "name": "gaugeType",
          "type": "int128"
        },
        {
          "internalType": "uint256",
          "name": "weight",
          "type": "uint256"
        }
      ],
      "name": "addGauge",
      "outputs": [],
      "stateMutability": "nonpayable",
      "type": "function"
    },
    {
      "inputs": [
        {
          "internalType": "string",
          "name": "name",
          "type": "string"
        },
        {
          "internalType": "uint256",
          "name": "weight",
          "type": "uint256"
        }
      ],
      "name": "addType",
      "outputs": [],
      "stateMutability": "nonpayable",
      "type": "function"
    },
    {
      "inputs": [
        {
          "internalType": "address",
          "name": "addr",
          "type": "address"
        },
        {
          "internalType": "uint256",
          "name": "weight",
          "type": "uint256"
        }
      ],
      "name": "changeGaugeWeight",
      "outputs": [],
      "stateMutability": "nonpayable",
      "type": "function"
    },
    {
      "inputs": [
        {
          "internalType": "int128",
          "name": "typeId",
          "type": "int128"
        },
        {
          "internalType": "uint256",
          "name": "weight",
          "type": "uint256"
        }
      ],
      "name": "changeTypeWeight",
      "outputs": [],
      "stateMutability": "nonpayable",
      "type": "function"
    },
    {
      "inputs": [],
      "name": "checkpoint",
      "outputs": [],
      "stateMutability": "nonpayable",
      "type": "function"
    },
    {
      "inputs": [
        {
          "internalType": "address",
          "name": "addr",
          "type": "address"
        }
      ],
      "name": "checkpointGauge",
      "outputs": [],
      "stateMutability": "nonpayable",
      "type": "function"
    },
    {
      "inputs": [],
      "name": "claimOwnership",
      "outputs": [],
      "stateMutability": "nonpayable",
      "type": "function"
    },
    {
      "inputs": [
        {
          "internalType": "address",
          "name": "addr",
          "type": "address"
        },
        {
          "internalType": "uint256",
          "name": "time",
          "type": "uint256"
        }
      ],
      "name": "gaugeRelativeWeight",
      "outputs": [
        {
          "internalType": "uint256",
          "name": "",
          "type": "uint256"
        }
      ],
      "stateMutability": "view",
      "type": "function"
    },
    {
      "inputs": [
        {
          "internalType": "address",
          "name": "addr",
          "type": "address"
        },
        {
          "internalType": "uint256",
          "name": "time",
          "type": "uint256"
        }
      ],
      "name": "gaugeRelativeWeightWrite",
      "outputs": [
        {
          "internalType": "uint256",
          "name": "",
          "type": "uint256"
        }
      ],
      "stateMutability": "nonpayable",
      "type": "function"
    },
    {
      "inputs": [
        {
          "internalType": "int128",
          "name": "",
          "type": "int128"
        }
      ],
      "name": "gaugeTypeNames",
      "outputs": [
        {
          "internalType": "string",
          "name": "",
          "type": "string"
        }
      ],
      "stateMutability": "view",
      "type": "function"
    },
    {
      "inputs": [
        {
          "internalType": "address",
          "name": "",
          "type": "address"
        }
      ],
      "name": "gaugeTypes",
      "outputs": [
        {
          "internalType": "int128",
          "name": "",
          "type": "int128"
        }
      ],
      "stateMutability": "view",
      "type": "function"
    },
    {
      "inputs": [
        {
          "internalType": "int128",
          "name": "",
          "type": "int128"
        }
      ],
      "name": "gauges",
      "outputs": [
        {
          "internalType": "address",
          "name": "",
          "type": "address"
        }
      ],
      "stateMutability": "view",
      "type": "function"
    },
    {
      "inputs": [
        {
          "internalType": "address",
          "name": "addr",
          "type": "address"
        }
      ],
      "name": "getGaugeTypes",
      "outputs": [
        {
          "internalType": "int128",
          "name": "",
          "type": "int128"
        }
      ],
      "stateMutability": "view",
      "type": "function"
    },
    {
      "inputs": [
        {
          "internalType": "address",
          "name": "addr",
          "type": "address"
        }
      ],
      "name": "getGaugeWeight",
      "outputs": [
        {
          "internalType": "uint256",
          "name": "",
          "type": "uint256"
        }
      ],
      "stateMutability": "view",
      "type": "function"
    },
    {
      "inputs": [],
      "name": "getTotalWeight",
      "outputs": [
        {
          "internalType": "uint256",
          "name": "",
          "type": "uint256"
        }
      ],
      "stateMutability": "view",
      "type": "function"
    },
    {
      "inputs": [
        {
          "internalType": "int128",
          "name": "typeId",
          "type": "int128"
        }
      ],
      "name": "getTypeWeight",
      "outputs": [
        {
          "internalType": "uint256",
          "name": "",
          "type": "uint256"
        }
      ],
      "stateMutability": "view",
      "type": "function"
    },
    {
      "inputs": [
        {
          "internalType": "int128",
          "name": "typeId",
          "type": "int128"
        }
      ],
      "name": "getWeightsSumPerType",
      "outputs": [
        {
          "internalType": "uint256",
          "name": "",
          "type": "uint256"
        }
      ],
      "stateMutability": "view",
      "type": "function"
    },
    {
      "inputs": [
        {
          "internalType": "address",
          "name": "owner_",
          "type": "address"
        },
        {
          "internalType": "address",
          "name": "votingEscrow_",
          "type": "address"
        },
        {
          "internalType": "address",
          "name": "p12CoinFactory_",
          "type": "address"
        }
      ],
      "name": "initialize",
      "outputs": [],
      "stateMutability": "nonpayable",
      "type": "function"
    },
    {
      "inputs": [
        {
          "internalType": "address",
          "name": "",
          "type": "address"
        },
        {
          "internalType": "address",
          "name": "",
          "type": "address"
        }
      ],
      "name": "lastUserVote",
      "outputs": [
        {
          "internalType": "uint256",
          "name": "",
          "type": "uint256"
        }
      ],
      "stateMutability": "view",
      "type": "function"
    },
    {
      "inputs": [],
      "name": "nGaugeTypes",
      "outputs": [
        {
          "internalType": "int128",
          "name": "",
          "type": "int128"
        }
      ],
      "stateMutability": "view",
      "type": "function"
    },
    {
      "inputs": [],
      "name": "nGauges",
      "outputs": [
        {
          "internalType": "int128",
          "name": "",
          "type": "int128"
        }
      ],
      "stateMutability": "view",
      "type": "function"
    },
    {
      "inputs": [],
      "name": "owner",
      "outputs": [
        {
          "internalType": "address",
          "name": "",
          "type": "address"
        }
      ],
      "stateMutability": "view",
      "type": "function"
    },
    {
      "inputs": [],
      "name": "p12CoinFactory",
      "outputs": [
        {
          "internalType": "address",
          "name": "",
          "type": "address"
        }
      ],
      "stateMutability": "view",
      "type": "function"
    },
    {
      "inputs": [],
      "name": "pause",
      "outputs": [],
      "stateMutability": "nonpayable",
      "type": "function"
    },
    {
      "inputs": [],
      "name": "paused",
      "outputs": [
        {
          "internalType": "bool",
          "name": "",
          "type": "bool"
        }
      ],
      "stateMutability": "view",
      "type": "function"
    },
    {
      "inputs": [],
      "name": "pendingOwner",
      "outputs": [
        {
          "internalType": "address",
          "name": "",
          "type": "address"
        }
      ],
      "stateMutability": "view",
      "type": "function"
    },
    {
      "inputs": [
        {
          "internalType": "int128",
          "name": "",
          "type": "int128"
        },
        {
          "internalType": "uint256",
          "name": "",
          "type": "uint256"
        }
      ],
      "name": "pointsSum",
      "outputs": [
        {
          "internalType": "uint256",
          "name": "bias",
          "type": "uint256"
        },
        {
          "internalType": "uint256",
          "name": "slope",
          "type": "uint256"
        }
      ],
      "stateMutability": "view",
      "type": "function"
    },
    {
      "inputs": [
        {
          "internalType": "uint256",
          "name": "",
          "type": "uint256"
        }
      ],
      "name": "pointsTotal",
      "outputs": [
        {
          "internalType": "uint256",
          "name": "",
          "type": "uint256"
        }
      ],
      "stateMutability": "view",
      "type": "function"
    },
    {
      "inputs": [
        {
          "internalType": "int128",
          "name": "",
          "type": "int128"
        },
        {
          "internalType": "uint256",
          "name": "",
          "type": "uint256"
        }
      ],
      "name": "pointsTypeWeight",
      "outputs": [
        {
          "internalType": "uint256",
          "name": "",
          "type": "uint256"
        }
      ],
      "stateMutability": "view",
      "type": "function"
    },
    {
      "inputs": [
        {
          "internalType": "address",
          "name": "",
          "type": "address"
        },
        {
          "internalType": "uint256",
          "name": "",
          "type": "uint256"
        }
      ],
      "name": "pointsWeight",
      "outputs": [
        {
          "internalType": "uint256",
          "name": "bias",
          "type": "uint256"
        },
        {
          "internalType": "uint256",
          "name": "slope",
          "type": "uint256"
        }
      ],
      "stateMutability": "view",
      "type": "function"
    },
    {
      "inputs": [],
      "name": "proxiableUUID",
      "outputs": [
        {
          "internalType": "bytes32",
          "name": "",
          "type": "bytes32"
        }
      ],
      "stateMutability": "view",
      "type": "function"
    },
    {
      "inputs": [],
      "name": "renounceOwnership",
      "outputs": [],
      "stateMutability": "nonpayable",
      "type": "function"
    },
    {
      "inputs": [
        {
          "internalType": "address",
          "name": "newP12Factory",
          "type": "address"
        }
      ],
      "name": "setP12CoinFactory",
      "outputs": [],
      "stateMutability": "nonpayable",
      "type": "function"
    },
    {
      "inputs": [
        {
          "internalType": "contract IVotingEscrow",
          "name": "newVotingEscrow",
          "type": "address"
        }
      ],
      "name": "setVotingEscrow",
      "outputs": [],
      "stateMutability": "nonpayable",
      "type": "function"
    },
    {
      "inputs": [
        {
          "internalType": "int128",
          "name": "",
          "type": "int128"
        }
      ],
      "name": "timeSum",
      "outputs": [
        {
          "internalType": "uint256",
          "name": "",
          "type": "uint256"
        }
      ],
      "stateMutability": "view",
      "type": "function"
    },
    {
      "inputs": [],
      "name": "timeTotal",
      "outputs": [
        {
          "internalType": "uint256",
          "name": "",
          "type": "uint256"
        }
      ],
      "stateMutability": "view",
      "type": "function"
    },
    {
      "inputs": [
        {
          "internalType": "int128",
          "name": "",
          "type": "int128"
        }
      ],
      "name": "timeTypeWeight",
      "outputs": [
        {
          "internalType": "uint256",
          "name": "",
          "type": "uint256"
        }
      ],
      "stateMutability": "view",
      "type": "function"
    },
    {
      "inputs": [
        {
          "internalType": "address",
          "name": "",
          "type": "address"
        }
      ],
      "name": "timeWeight",
      "outputs": [
        {
          "internalType": "uint256",
          "name": "",
          "type": "uint256"
        }
      ],
      "stateMutability": "view",
      "type": "function"
    },
    {
      "inputs": [
        {
          "internalType": "address",
          "name": "newOwner",
          "type": "address"
        },
        {
          "internalType": "bool",
          "name": "direct",
          "type": "bool"
        }
      ],
      "name": "transferOwnership",
      "outputs": [],
      "stateMutability": "nonpayable",
      "type": "function"
    },
    {
      "inputs": [],
      "name": "unpause",
      "outputs": [],
      "stateMutability": "nonpayable",
      "type": "function"
    },
    {
      "inputs": [
        {
          "internalType": "address",
          "name": "newImplementation",
          "type": "address"
        }
      ],
      "name": "upgradeTo",
      "outputs": [],
      "stateMutability": "nonpayable",
      "type": "function"
    },
    {
      "inputs": [
        {
          "internalType": "address",
          "name": "newImplementation",
          "type": "address"
        },
        {
          "internalType": "bytes",
          "name": "data",
          "type": "bytes"
        }
      ],
      "name": "upgradeToAndCall",
      "outputs": [],
      "stateMutability": "payable",
      "type": "function"
    },
    {
      "inputs": [
        {
          "internalType": "address",
          "name": "gaugeAddr",
          "type": "address"
        },
        {
          "internalType": "uint256",
          "name": "userWeight",
          "type": "uint256"
        }
      ],
      "name": "voteForGaugeWeights",
      "outputs": [],
      "stateMutability": "nonpayable",
      "type": "function"
    },
    {
      "inputs": [
        {
          "internalType": "address",
          "name": "",
          "type": "address"
        }
      ],
      "name": "voteUserPower",
      "outputs": [
        {
          "internalType": "uint256",
          "name": "",
          "type": "uint256"
        }
      ],
      "stateMutability": "view",
      "type": "function"
    },
    {
      "inputs": [
        {
          "internalType": "address",
          "name": "",
          "type": "address"
        },
        {
          "internalType": "address",
          "name": "",
          "type": "address"
        }
      ],
      "name": "voteUserSlopes",
      "outputs": [
        {
          "internalType": "uint256",
          "name": "slope",
          "type": "uint256"
        },
        {
          "internalType": "uint256",
          "name": "power",
          "type": "uint256"
        },
        {
          "internalType": "uint256",
          "name": "end",
          "type": "uint256"
        }
      ],
      "stateMutability": "view",
      "type": "function"
    },
    {
      "inputs": [],
      "name": "votingEscrow",
      "outputs": [
        {
          "internalType": "contract IVotingEscrow",
          "name": "",
          "type": "address"
        }
      ],
      "stateMutability": "view",
      "type": "function"
    }
  ],
  "transactionHash": "0x768b2bb6980fe6d32ccd21e0fc785e6559a7fec9fc42dec3e0c9362a6fa32a2c",
  "args": [],
  "numDeployments": 1,
  "solcInputHash": "bc492e94cb91a890f3895b6826360612",
  "bytecode": "0x60a06040523060805234801561001457600080fd5b506080516132e161004c60003960008181610a6801528181610ab101528181610be301528181610c230152610cb201526132e16000f3fe6080604052600436106102ae5760003560e01c80637e183ba011610175578063c685775a116100dc578063e4036c6d11610095578063ec73d9061161006f578063ec73d90614610998578063f4359ce5146109c5578063f763d1ff146109dc578063f89993f014610a1b57600080fd5b8063e4036c6d146108d1578063e75ec699146108fe578063eab9041e1461096057600080fd5b8063c685775a146107ec578063ce5ec92e14610822578063dd2b117f14610842578063e0ab067e14610863578063e24862e814610883578063e30c3978146108b357600080fd5b80639fbd4f661161012e5780639fbd4f6614610703578063b242e53414610723578063bb18d47a14610743578063c0c53b8b14610763578063c2c4c5c114610783578063c3a6ca131461079857600080fd5b80637e183ba0146106565780638456cb5914610676578063870e37331461068b5780638aca6a23146106ab5780638da5cb5b146106cb5780639e08e3ef146106e957600080fd5b80634e71e0c8116102195780635c975abb116101d25780635c975abb1461057f57806365c60468146105a3578063688f3f1f146105c3578063715018a6146105d95780637244d960146105ee57806372be52761461060e57600080fd5b80634e71e0c8146104c95780634f1ef286146104de5780634f2bfe5b146104f15780634f6ffd071461051157806352d1902d1461052857806357f4cf271461053d57600080fd5b80632d1746911161026b5780632d174691146103da57806330928dc5146103fc5780633659cfe6146104295780633cd784f1146104495780633f4ba83a14610481578063491640411461049657600080fd5b8063057c9cb4146102b3578063059f8b16146102f357806306aba0e11461030f57806310d1ba581461033357806326f4ed5114610375578063289f338f146103ad575b600080fd5b3480156102bf57600080fd5b506102e06102ce366004612b14565b603d6020526000908152604090205481565b6040519081526020015b60405180910390f35b3480156102ff57600080fd5b506102e0670de0b6b3a764000081565b34801561031b57600080fd5b506003546000908152603d60205260409020546102e0565b34801561033f57600080fd5b506102e061034e366004612b44565b600f0b6000908152603e60209081526040808320603f835281842054845290915290205490565b34801561038157600080fd5b506102e0610390366004612b74565b603660209081526000928352604080842090915290825290205481565b3480156103b957600080fd5b506102e06103c8366004612bad565b60396020526000908152604090205481565b3480156103e657600080fd5b506103fa6103f5366004612bca565b610a48565b005b34801561040857600080fd5b506102e0610417366004612b44565b603f6020526000908152604090205481565b34801561043557600080fd5b506103fa610444366004612bad565b610a5e565b34801561045557600080fd5b50600154610469906001600160a01b031681565b6040516001600160a01b0390911681526020016102ea565b34801561048d57600080fd5b506103fa610b46565b3480156104a257600080fd5b506104b66104b1366004612bad565b610b58565b604051600f9190910b81526020016102ea565b3480156104d557600080fd5b506103fa610ba6565b6103fa6104ec366004612c82565b610bd9565b3480156104fd57600080fd5b50600054610469906001600160a01b031681565b34801561051d57600080fd5b506102e0620d2f0081565b34801561053457600080fd5b506102e0610ca5565b34801561054957600080fd5b506102e0610558366004612b44565b600f0b6000908152603a60209081526040808320603c835281842054845290915290205490565b34801561058b57600080fd5b506101095460ff1660405190151581526020016102ea565b3480156105af57600080fd5b506102e06105be366004612bca565b610d58565b3480156105cf57600080fd5b506102e060035481565b3480156105e557600080fd5b506103fa610d6d565b3480156105fa57600080fd5b506103fa610609366004612bca565b610d7f565b34801561061a57600080fd5b506102e0610629366004612bad565b6001600160a01b031660009081526037602090815260408083206039835281842054845290915290205490565b34801561066257600080fd5b506103fa610671366004612bad565b61151d565b34801561068257600080fd5b506103fa6115b3565b34801561069757600080fd5b506103fa6106a6366004612ce6565b6115c3565b3480156106b757600080fd5b506103fa6106c6366004612bad565b611664565b3480156106d757600080fd5b5060d7546001600160a01b0316610469565b3480156106f557600080fd5b506002546104b690600f0b81565b34801561070f57600080fd5b506103fa61071e366004612d3f565b611676565b34801561072f57600080fd5b506103fa61073e366004612d7d565b611941565b34801561074f57600080fd5b506102e061075e366004612bca565b61199e565b34801561076f57600080fd5b506103fa61077e366004612db0565b6119bd565b34801561078f57600080fd5b506103fa611b43565b3480156107a457600080fd5b506107d76107b3366004612bca565b60376020908152600092835260408084209091529082529020805460019091015482565b604080519283526020830191909152016102ea565b3480156107f857600080fd5b50610469610807366004612b44565b6032602052600090815260409020546001600160a01b031681565b34801561082e57600080fd5b506103fa61083d366004612bad565b611b4b565b34801561084e57600080fd5b506002546104b690600160801b9004600f0b81565b34801561086f57600080fd5b506103fa61087e366004612dfb565b611bd9565b34801561088f57600080fd5b506104b661089e366004612bad565b603360205260009081526040902054600f0b81565b3480156108bf57600080fd5b5060d8546001600160a01b0316610469565b3480156108dd57600080fd5b506108f16108ec366004612b44565b611beb565b6040516102ea9190612e6f565b34801561090a57600080fd5b50610945610919366004612b74565b603460209081526000928352604080842090915290825290208054600182015460029092015490919083565b604080519384526020840192909252908201526060016102ea565b34801561096c57600080fd5b506102e061097b366004612dfb565b603e60209081526000928352604080842090915290825290205481565b3480156109a457600080fd5b506102e06109b3366004612bad565b60356020526000908152604090205481565b3480156109d157600080fd5b506102e062093a8081565b3480156109e857600080fd5b506107d76109f7366004612dfb565b603a6020908152600092835260408084209091529082529020805460019091015482565b348015610a2757600080fd5b506102e0610a36366004612b44565b603c6020526000908152604090205481565b610a50611c85565b610a5a8282611cb0565b5050565b6001600160a01b037f0000000000000000000000000000000000000000000000000000000000000000163003610aaf5760405162461bcd60e51b8152600401610aa690612e82565b60405180910390fd5b7f00000000000000000000000000000000000000000000000000000000000000006001600160a01b0316610af8600080516020613265833981519152546001600160a01b031690565b6001600160a01b031614610b1e5760405162461bcd60e51b8152600401610aa690612ece565b610b2781611e4b565b60408051600080825260208201909252610b4391839190611e53565b50565b610b4e611c85565b610b56611fbe565b565b6001600160a01b038116600090815260336020526040812054600f0b808203610b9457604051633ec8776b60e01b815260040160405180910390fd5b610b9f600182612f30565b9392505050565b60d8546001600160a01b03163314610bd157604051639d7b369d60e01b815260040160405180910390fd5b610b56612011565b6001600160a01b037f0000000000000000000000000000000000000000000000000000000000000000163003610c215760405162461bcd60e51b8152600401610aa690612e82565b7f00000000000000000000000000000000000000000000000000000000000000006001600160a01b0316610c6a600080516020613265833981519152546001600160a01b031690565b6001600160a01b031614610c905760405162461bcd60e51b8152600401610aa690612ece565b610c9982611e4b565b610a5a82826001611e53565b6000306001600160a01b037f00000000000000000000000000000000000000000000000000000000000000001614610d455760405162461bcd60e51b815260206004820152603860248201527f555550535570677261646561626c653a206d757374206e6f742062652063616c60448201527f6c6564207468726f7567682064656c656761746563616c6c00000000000000006064820152608401610aa6565b5060008051602061326583398151915290565b6000610d64838361207a565b90505b92915050565b610d75611c85565b610b566000612154565b610d876121ca565b60008054604051631e74dac160e31b81523360048201526001600160a01b039091169063f3a6d608906024016020604051808303816000875af1158015610dd2573d6000803e3d6000fd5b505050506040513d601f19601f82011682018060405250810190610df69190612f80565b600080546040516326f57e5760e11b815233600482015292935090916001600160a01b0390911690634deafcae906024016020604051808303816000875af1158015610e46573d6000803e3d6000fd5b505050506040513d601f19601f82011682018060405250810190610e6a9190612f80565b9050600062093a8080610e7d8142612f99565b610e879190612fb1565b610e919190612fd3565b9050808211610eb357604051632a0b352d60e21b815260040160405180910390fd5b612710841115610ed65760405163585b926360e01b815260040160405180910390fd5b3360009081526036602090815260408083206001600160a01b0389168452909152902054610f0890620d2f0090612f99565b421015610f28576040516375e33e8560e11b815260040160405180910390fd5b60408051808201909152600080825260208201526001600160a01b038616600090815260336020526040812054610f6490600190600f0b612f30565b9050600081600f0b1215610f8b576040516312571c8b60e21b815260040160405180910390fd5b3360009081526034602090815260408083206001600160a01b038b168452825280832081516060810183528154815260018201549381019390935260020154908201819052909190851015610fed57848260400151610fea9190612ff2565b90505b8151610ffa908290612fd3565b84526040805160608101909152600090806127106110188c8c612fd3565b6110229190612fb1565b8152602081018b90526040018890529050600061103f8789612ff2565b825190915061104f908290612fd3565b60208088019190915284810151838201513360009081526035909352604090922054909161107c91612f99565b6110869190612ff2565b33600090815260356020526040902081905561271010156110ba5760405163585b926360e01b815260040160405180910390fd5b6110e56040518060800160405280600081526020016000815260200160008152602001600081525090565b6110ee8c612211565b81526001600160a01b038c1660009081526037602090815260408083208b84528252909120600101549082015261112486612390565b604080830191909152600f87900b6000908152603a60209081528282208b83528152919020600101546060830152875190880151825161116e9161116791612f99565b89516124de565b6111789190612ff2565b6001600160a01b038d1660009081526037602090815260408083208c845282529182902092909255885191890151908301516111b79161116791612f99565b6111c19190612ff2565b600f87900b6000908152603a602090815260408083208c845290915290819020919091558501518810156112845784518351602083015161120c9161120591612f99565b87516124de565b6112169190612ff2565b6001600160a01b038d1660009081526037602090815260408083208c84529091529020600101558451835160608301516112539161120591612f99565b61125d9190612ff2565b600f87900b6000908152603a602090815260408083208c84529091529020600101556112fa565b82516001600160a01b038d1660009081526037602090815260408083208c8452909152812060010180549091906112bc908490612f99565b90915550508251600f87900b6000908152603a602090815260408083208c8452909152812060010180549091906112f4908490612f99565b90915550505b50428460400151111561137d5783516001600160a01b038c1660009081526038602090815260408083208189015184529091528120805490919061133f908490612ff2565b90915550508351600f86900b6000908152603b6020908152604080832081890151845290915281208054909190611377908490612ff2565b90915550505b81516001600160a01b038c166000908152603860209081526040808320818701518452909152812080549091906113b5908490612f99565b90915550508151600f86900b6000908152603b60209081526040808320818701518452909152812080549091906113ed908490612f99565b909155506113fb90506124f5565b508160346000336001600160a01b03166001600160a01b0316815260200190815260200160002060008d6001600160a01b03166001600160a01b031681526020019081526020016000206000820151816000015560208201518160010155604082015181600201559050504260366000336001600160a01b03166001600160a01b0316815260200190815260200160002060008d6001600160a01b03166001600160a01b03168152602001908152602001600020819055507f45ca9a4c8d0119eb329e580d28fe689e484e1be230da8037ade9547d2d25cc9142338d8d60405161150894939291909384526001600160a01b03928316602085015291166040830152606082015260800190565b60405180910390a15050505050505050505050565b611525611c85565b6001546001600160a01b0390811690821661155357604051630ae8f22360e21b815260040160405180910390fd5b600180546001600160a01b0319166001600160a01b0384811691821790925560408051928416835260208301919091527fb5004c6dd32173c6ee128faa447de600665c96ba213f764d94599ca5ceda78b191015b60405180910390a15050565b6115bb611c85565b610b56612649565b6115cb611c85565b600254600f0b60008181526031602052604090206115e9848261308b565b506115f581600161314b565b600280546001600160801b0319166001600160801b0392909216919091179055811561165f576116258183612687565b7f6fbe76157c712f16b5a3c44ed48baa04e3450bc3fab0c020e848aca72bbccc84838260405161165692919061319a565b60405180910390a15b505050565b61166d81612211565b50610a5a6124f5565b60d7546001600160a01b0316331480159061169c57506001546001600160a01b03163314155b156116ba57604051639d7b369d60e01b815260040160405180910390fd5b600082600f0b12806116d65750600254600f90810b9083900b12155b156116f457604051633ec8776b60e01b815260040160405180910390fd5b6001600160a01b038316600090815260336020526040902054600f0b1561172e57604051634132d77760e11b815260040160405180910390fd5b600254600160801b9004600f0b61174681600161314b565b600280546001600160801b03928316600160801b029216919091179055600f81900b600090815260326020526040902080546001600160a01b0386166001600160a01b031990911617905561179c83600161314b565b6001600160a01b038516600090815260336020526040812080546001600160801b0319166001600160801b03939093169290921790915562093a80806117e28142612f99565b6117ec9190612fb1565b6117f69190612fd3565b905082156118aa5760006118098561278b565b9050600061181686612390565b905060006118226124f5565b905061182e8287612f99565b600f88900b6000818152603a60209081526040808320898452825280832094909455918152603c909152208490556118668684612fd3565b6118709082612f99565b6000858152603d602090815260408083209390935560038790556001600160a01b038b168252603781528282208783529052208690555050505b600f84900b6000908152603c602052604081205490036118db57600f84900b6000908152603c602052604090208190555b6001600160a01b0385166000818152603960209081526040918290208490558151928352600f87900b9083015281018490527ffd55b3191f9c9dd92f4f134dd700e7d76f6a0c836a08687023d6d38f03ebd8779060600160405180910390a15050505050565b611949611c85565b6001600160a01b03821661197057604051630ae8f22360e21b815260040160405180910390fd5b801561197f57610a5a82612154565b60d880546001600160a01b0319166001600160a01b0384161790555050565b60006119a983612211565b506119b26124f5565b50610d64838361207a565b604054610100900460ff16158080156119dd5750604054600160ff909116105b806119f75750303b1580156119f7575060405460ff166001145b611a5a5760405162461bcd60e51b815260206004820152602e60248201527f496e697469616c697a61626c653a20636f6e747261637420697320616c72656160448201526d191e481a5b9a5d1a585b1a5e995960921b6064820152608401610aa6565b6040805460ff191660011790558015611a7d576040805461ff0019166101001790555b6001600160a01b0383161580611a9a57506001600160a01b038216155b15611ab857604051630ae8f22360e21b815260040160405180910390fd5b600080546001600160a01b038086166001600160a01b0319928316179092556001805492851692909116919091179055611af0612838565b611af98461286c565b8015611b3d576040805461ff001916815551600181527f7f26b83ff96e1f2b6a682f133852f6798a09c465da95921460cefb38474024989060200160405180910390a15b50505050565b610b436124f5565b611b53611c85565b6000546001600160a01b03908116908216611b8157604051630ae8f22360e21b815260040160405180910390fd5b600080546001600160a01b0319166001600160a01b0384811691821790925560408051928416835260208301919091527fd828f779f83b901159162ddcecf828d6a7983bf62746349df2da26aff0ac140b91016115a7565b611be1611c85565b610a5a8282612687565b60316020526000908152604090208054611c0490613009565b80601f0160208091040260200160405190810160405280929190818152602001828054611c3090613009565b8015611c7d5780601f10611c5257610100808354040283529160200191611c7d565b820191906000526020600020905b815481529060010190602001808311611c6057829003601f168201915b505050505081565b60d7546001600160a01b03163314610b5657604051639d7b369d60e01b815260040160405180910390fd5b6001600160a01b038216600090815260336020526040812054611cd890600190600f0b612f30565b90506000611ce584612211565b90506000611cf28361278b565b90506000611cff84612390565b90506000611d0b6124f5565b9050600062093a8080611d1e8142612f99565b611d289190612fb1565b611d329190612fd3565b6001600160a01b038916600081815260376020908152604080832085845282528083208c90559282526039905290812082905590915085611d738986612f99565b611d7d9190612ff2565b600f88900b6000818152603a602090815260408083208784528252808320859055928252603c9052208390559050611db58585612fd3565b611dbf8683612fd3565b611dc99085612f99565b611dd39190612ff2565b6000838152603d6020908152604091829020839055600385905581516001600160a01b038d16815242918101919091529081018a9052606081018290529093507f54c0cf3647e6cdb2fc0a7876e60ba77563fceedf2e06c01c597f8dccb9e6bd729060800160405180910390a1505050505050505050565b610b43611c85565b7f4910fdfa16fed3260ed0e7147f7cc6da11a60208b5b9406d12a635614ffd91435460ff1615611e865761165f8361289c565b826001600160a01b03166352d1902d6040518163ffffffff1660e01b8152600401602060405180830381865afa925050508015611ee0575060408051601f3d908101601f19168201909252611edd91810190612f80565b60015b611f435760405162461bcd60e51b815260206004820152602e60248201527f45524331393637557067726164653a206e657720696d706c656d656e7461746960448201526d6f6e206973206e6f74205555505360901b6064820152608401610aa6565b6000805160206132658339815191528114611fb25760405162461bcd60e51b815260206004820152602960248201527f45524331393637557067726164653a20756e737570706f727465642070726f786044820152681a58589b195555525160ba1b6064820152608401610aa6565b5061165f838383612938565b611fc661295d565b610109805460ff191690557f5db9ee0a495bf2e6ff9c91a7834c1ba4fdd244a5e8aa4e537bd38aeae4b073aa335b6040516001600160a01b03909116815260200160405180910390a1565b60d75460d8546040516001600160a01b03928316929091169082907f8be0079c531659141344cd1fd0a4f28419497f9722a3daafe3b4186f6b6457e090600090a35060d8805460d780546001600160a01b03199081166001600160a01b03841617909155169055565b60008062093a8061208b8185612fb1565b6120959190612fd3565b6000818152603d60205260409020549091508015612149576001600160a01b0385166000908152603360205260408120546120d590600190600f0b612f30565b600f81900b6000908152603e602090815260408083208784528252808320546001600160a01b038b168452603783528184208885529092529091205491925090838161212984670de0b6b3a7640000612fd3565b6121339190612fd3565b61213d9190612fb1565b95505050505050610d67565b600092505050610d67565b7fb53127684a568b3173ae13b9f8a6016e243e63b6e8ee1178d6a717850b5d610381905560d780546001600160a01b038084166001600160a01b0319831681179093556040519116919082907f8be0079c531659141344cd1fd0a4f28419497f9722a3daafe3b4186f6b6457e090600090a35050565b6101095460ff1615610b565760405162461bcd60e51b815260206004820152601060248201526f14185d5cd8589b194e881c185d5cd95960821b6044820152606401610aa6565b6001600160a01b0381166000908152603960205260408120548015612381576001600160a01b038316600090815260376020908152604080832084845282528083208151808301909252805482526001015491810191909152905b6101f4811015612378574283116123785761228a62093a8084612f99565b9250600062093a8083602001516122a19190612fd3565b905080836000015111156123055780836000018181516122c19190612ff2565b9052506001600160a01b038616600090815260386020908152604080832087845282529091205490840180518291906122fb908390612ff2565b9052506123109050565b600080845260208401525b6001600160a01b03861660009081526037602090815260408083208784528252909120845181559084015160019091015542841115612365576001600160a01b03861660009081526039602052604090208490555b5080612370816131bf565b91505061226c565b50519392505050565b50600092915050565b50919050565b600f81900b6000908152603c6020526040812054801561238157600f83900b6000908152603a6020908152604080832084845282528083208151808301909252805482526001015491810191909152905b6101f481101561237857428311612378576123ff62093a8084612f99565b9250600062093a8083602001516124169190612fd3565b905080836000015111156124755780836000018181516124369190612ff2565b905250600f86900b6000908152603b60209081526040808320878452825290912054908401805182919061246b908390612ff2565b9052506124809050565b600080845260208401525b600f86900b6000908152603a6020908152604080832087845282529091208451815590840151600190910155428411156124cb57600f86900b6000908152603c602052604090208490555b50806124d6816131bf565b9150506123e1565b6000818310156124ee5781610d64565b5090919050565b60035460025460009190600f0b4282111561251a5761251762093a8083612ff2565b91505b6000828152603d6020526040812054905b606481600f0b121561256b5782600f0b81600f0b031561256b5761254e81612390565b506125588161278b565b5080612563816131d8565b91505061252b565b5060005b6101f4811015612641574284116126415761258d62093a8085612f99565b93506000915060005b606481600f0b121561260f57600254600f82810b91900b1461260f57600f81900b6000818152603a60209081526040808320898452825280832054938352603e82528083208984529091529020546125ee8183612fd3565b6125f89086612f99565b945050508080612607906131d8565b915050612596565b506000848152603d602052604090208290554284111561262f5760038490555b80612639816131bf565b91505061256f565b509392505050565b6126516121ca565b610109805460ff191660011790557f62e78cea01bee320cd4e420270b5ea74000d11b0c9f74754ebdbfc544b05a258611ff43390565b60006126928361278b565b9050600061269f84612390565b905060006126ab6124f5565b9050600062093a80806126be8142612f99565b6126c89190612fb1565b6126d29190612fd3565b90506126de8484612fd3565b6126e88685612fd3565b6126f29084612f99565b6126fc9190612ff2565b6000828152603d60209081526040808320849055600f8a900b808452603e835281842086855283528184208a90556003869055808452603f83529281902085905580519283529082018490528101879052606081018290529092507e170bcdc909b6ac6e12d020fe8942256312cdcd555fb6d712899eba56d2f9019060800160405180910390a1505050505050565b600f81900b6000908152603f6020526040812054801561238157600f83900b6000908152603e60209081526040808320848452909152812054905b6101f481101561264157428311612641576127e462093a8084612f99565b600f86900b6000908152603e60209081526040808320848452909152902083905592504283111561282657600f85900b6000908152603f602052604090208390555b80612830816131bf565b9150506127c6565b604054610100900460ff1661285f5760405162461bcd60e51b8152600401610aa6906131fd565b610109805460ff19169055565b604054610100900460ff166128935760405162461bcd60e51b8152600401610aa6906131fd565b610b4381612154565b6001600160a01b0381163b6129095760405162461bcd60e51b815260206004820152602d60248201527f455243313936373a206e657720696d706c656d656e746174696f6e206973206e60448201526c1bdd08184818dbdb9d1c9858dd609a1b6064820152608401610aa6565b60008051602061326583398151915280546001600160a01b0319166001600160a01b0392909216919091179055565b612941836129a7565b60008251118061294e5750805b1561165f57611b3d83836129e7565b6101095460ff16610b565760405162461bcd60e51b815260206004820152601460248201527314185d5cd8589b194e881b9bdd081c185d5cd95960621b6044820152606401610aa6565b6129b08161289c565b6040516001600160a01b038216907fbc7cd75a20ee27fd9adebab32041f755214dbc6bffa90cc0225b39da2e5c2d3b90600090a250565b60606001600160a01b0383163b612a4f5760405162461bcd60e51b815260206004820152602660248201527f416464726573733a2064656c65676174652063616c6c20746f206e6f6e2d636f6044820152651b9d1c9858dd60d21b6064820152608401610aa6565b600080846001600160a01b031684604051612a6a9190613248565b600060405180830381855af49150503d8060008114612aa5576040519150601f19603f3d011682016040523d82523d6000602084013e612aaa565b606091505b5091509150612ad2828260405180606001604052806027815260200161328560279139612adb565b95945050505050565b60608315612aea575081610b9f565b825115612afa5782518084602001fd5b8160405162461bcd60e51b8152600401610aa69190612e6f565b600060208284031215612b2657600080fd5b5035919050565b8035600f81900b8114612b3f57600080fd5b919050565b600060208284031215612b5657600080fd5b610d6482612b2d565b6001600160a01b0381168114610b4357600080fd5b60008060408385031215612b8757600080fd5b8235612b9281612b5f565b91506020830135612ba281612b5f565b809150509250929050565b600060208284031215612bbf57600080fd5b8135610b9f81612b5f565b60008060408385031215612bdd57600080fd5b8235612be881612b5f565b946020939093013593505050565b634e487b7160e01b600052604160045260246000fd5b600067ffffffffffffffff80841115612c2757612c27612bf6565b604051601f8501601f19908116603f01168101908282118183101715612c4f57612c4f612bf6565b81604052809350858152868686011115612c6857600080fd5b858560208301376000602087830101525050509392505050565b60008060408385031215612c9557600080fd5b8235612ca081612b5f565b9150602083013567ffffffffffffffff811115612cbc57600080fd5b8301601f81018513612ccd57600080fd5b612cdc85823560208401612c0c565b9150509250929050565b60008060408385031215612cf957600080fd5b823567ffffffffffffffff811115612d1057600080fd5b8301601f81018513612d2157600080fd5b612d3085823560208401612c0c565b95602094909401359450505050565b600080600060608486031215612d5457600080fd5b8335612d5f81612b5f565b9250612d6d60208501612b2d565b9150604084013590509250925092565b60008060408385031215612d9057600080fd5b8235612d9b81612b5f565b915060208301358015158114612ba257600080fd5b600080600060608486031215612dc557600080fd5b8335612dd081612b5f565b92506020840135612de081612b5f565b91506040840135612df081612b5f565b809150509250925092565b60008060408385031215612e0e57600080fd5b612be883612b2d565b60005b83811015612e32578181015183820152602001612e1a565b83811115611b3d5750506000910152565b60008151808452612e5b816020860160208601612e17565b601f01601f19169290920160200192915050565b602081526000610d646020830184612e43565b6020808252602c908201527f46756e6374696f6e206d7573742062652063616c6c6564207468726f7567682060408201526b19195b1959d85d1958d85b1b60a21b606082015260800190565b6020808252602c908201527f46756e6374696f6e206d7573742062652063616c6c6564207468726f7567682060408201526b6163746976652070726f787960a01b606082015260800190565b634e487b7160e01b600052601160045260246000fd5b600081600f0b83600f0b600081128160016001607f1b031901831281151615612f5b57612f5b612f1a565b8160016001607f1b03018313811615612f7657612f76612f1a565b5090039392505050565b600060208284031215612f9257600080fd5b5051919050565b60008219821115612fac57612fac612f1a565b500190565b600082612fce57634e487b7160e01b600052601260045260246000fd5b500490565b6000816000190483118215151615612fed57612fed612f1a565b500290565b60008282101561300457613004612f1a565b500390565b600181811c9082168061301d57607f821691505b60208210810361238a57634e487b7160e01b600052602260045260246000fd5b601f82111561165f57600081815260208120601f850160051c810160208610156130645750805b601f850160051c820191505b8181101561308357828155600101613070565b505050505050565b815167ffffffffffffffff8111156130a5576130a5612bf6565b6130b9816130b38454613009565b8461303d565b602080601f8311600181146130ee57600084156130d65750858301515b600019600386901b1c1916600185901b178555613083565b600085815260208120601f198616915b8281101561311d578886015182559484019460019091019084016130fe565b508582101561313b5787850151600019600388901b60f8161c191681555b5050505050600190811b01905550565b600081600f0b83600f0b600082128260016001607f1b030382138115161561317557613175612f1a565b8260016001607f1b031903821281161561319157613191612f1a565b50019392505050565b6040815260006131ad6040830185612e43565b905082600f0b60208301529392505050565b6000600182016131d1576131d1612f1a565b5060010190565b600081600f0b60016001607f1b0381036131f4576131f4612f1a565b60010192915050565b6020808252602b908201527f496e697469616c697a61626c653a20636f6e7472616374206973206e6f74206960408201526a6e697469616c697a696e6760a81b606082015260800190565b6000825161325a818460208701612e17565b919091019291505056fe360894a13ba1a3210667c828492db98dca3e2076cc3735a920a3ca505d382bbc416464726573733a206c6f772d6c6576656c2064656c65676174652063616c6c206661696c6564a26469706673582212205632ff2eca87089e3db367641248248e931ff9ce4636286ded1717c7233c16bc64736f6c634300080f0033",
  "devdoc": {
    "kind": "dev",
    "methods": {
      "addGauge(address,int128,uint256)": {
        "params": {
          "addr": "Gauge address",
          "gaugeType": "Gauge type",
          "weight": "Gauge weight"
        }
      },
      "addType(string,uint256)": {
        "params": {
          "name": "Name of gauge type",
          "weight": "Weight of gauge type"
        }
      },
      "changeGaugeWeight(address,uint256)": {
        "params": {
          "addr": "`GaugeController` contract address",
          "weight": "New Gauge weight"
        }
      },
      "changeTypeWeight(int128,uint256)": {
        "params": {
          "typeId": "Gauge type id",
          "weight": "New Gauge weight"
        }
      },
      "checkpointGauge(address)": {
        "params": {
          "addr": "Gauge address"
        }
      },
      "claimOwnership()": {
        "details": "pending owner call this function to claim ownership"
      },
      "gaugeRelativeWeight(address,uint256)": {
        "params": {
          "addr": "Gauge address",
          "time": "Relative weight at the specified timestamp in the past or present"
        },
        "returns": {
          "_0": "Value of relative weight normalized to 1e18"
        }
      },
      "gaugeRelativeWeightWrite(address,uint256)": {
        "details": "Any address can call, however nothing is recorded if the values are filled already",
        "params": {
          "addr": "Gauge address",
          "time": "Relative weight at the specified timestamp in the past or present"
        },
        "returns": {
          "_0": "Value of relative weight normalized to 1e18"
        }
      },
      "getGaugeTypes(address)": {
        "params": {
          "addr": "Gauge address"
        },
        "returns": {
          "_0": "Gauge type id"
        }
      },
      "getGaugeWeight(address)": {
        "params": {
          "addr": "Gauge address"
        },
        "returns": {
          "_0": "Gauge weight"
        }
      },
      "getTotalWeight()": {
        "returns": {
          "_0": "Total weight"
        }
      },
      "getTypeWeight(int128)": {
        "params": {
          "typeId": "Type id"
        },
        "returns": {
          "_0": "Type weight"
        }
      },
      "getWeightsSumPerType(int128)": {
        "params": {
          "typeId": "Type id"
        },
        "returns": {
          "_0": "Sum of gauge weights"
        }
      },
      "owner()": {
        "details": "Returns the address of the current owner."
      },
      "paused()": {
        "details": "Returns true if the contract is paused, and false otherwise."
      },
      "pendingOwner()": {
        "details": "Return the address of the pending owner"
      },
      "proxiableUUID()": {
        "details": "Implementation of the ERC1822 {proxiableUUID} function. This returns the storage slot used by the implementation. It is used to validate that the this implementation remains valid after an upgrade. IMPORTANT: A proxy pointing at a proxiable contract should not be considered proxiable itself, because this risks bricking a proxy that upgrades to it, by delegating to itself until out of gas. Thus it is critical that this function revert if invoked through a proxy. This is guaranteed by the `notDelegated` modifier."
      },
      "renounceOwnership()": {
        "details": "Leaves the contract without owner. It will not be possible to call `onlyOwner` functions anymore. Can only be called by the current owner. NOTE: Renouncing ownership will leave the contract without an owner, thereby removing any functionality that is only available to the owner."
      },
      "setP12CoinFactory(address)": {
        "params": {
          "newP12Factory": "address of newP12Factory"
        }
      },
      "setVotingEscrow(address)": {
        "params": {
          "newVotingEscrow": "address of votingEscrow"
        }
      },
      "transferOwnership(address,bool)": {
        "details": "Transfers ownership of the contract to a new account (`newOwner`). Can only be called by the current owner. Note If direct is false, it will set an pending owner and the OwnerShipTransferring only happens when the pending owner claim the ownership"
      },
      "upgradeTo(address)": {
        "details": "Upgrade the implementation of the proxy to `newImplementation`. Calls {_authorizeUpgrade}. Emits an {Upgraded} event."
      },
      "upgradeToAndCall(address,bytes)": {
        "details": "Upgrade the implementation of the proxy to `newImplementation`, and subsequently execute the function call encoded in `data`. Calls {_authorizeUpgrade}. Emits an {Upgraded} event."
      },
      "voteForGaugeWeights(address,uint256)": {
        "params": {
          "gaugeAddr": "Gauge which `msg.sender` votes for",
          "userWeight": "Weight for a gauge in bps (units of 0.01%). Minimal is 0.01%. Ignored if 0"
        }
      }
    },
    "version": 1
  },
  "userdoc": {
    "kind": "user",
    "methods": {
      "addGauge(address,int128,uint256)": {
        "notice": "Add gauge `addr` of type `gaugeType` with weight `weight`"
      },
      "addType(string,uint256)": {
        "notice": "Add gauge type with name `name` and weight `weight`"
      },
      "changeGaugeWeight(address,uint256)": {
        "notice": "Change weight of gauge `addr` to `weight`"
      },
      "changeTypeWeight(int128,uint256)": {
        "notice": "Change gauge type `typeId` weight to `weight`"
      },
      "checkpoint()": {
        "notice": "Checkpoint to fill data common for all gauges"
      },
      "checkpointGauge(address)": {
        "notice": "Checkpoint to fill data for both a specific gauge and common for all gauges"
      },
      "gaugeRelativeWeight(address,uint256)": {
        "notice": "Get Gauge relative weight (not more than 1.0) normalized to 1e18        (e.g. 1.0 == 1e18). Inflation which will be received by it is        inflation_rate * relative_weight / 1e18"
      },
      "gaugeRelativeWeightWrite(address,uint256)": {
        "notice": "Get gauge weight normalized to 1e18 and also fill all the unfilled     values for type and gauge records"
      },
      "getGaugeTypes(address)": {
        "notice": "Get gauge type for address"
      },
      "getGaugeWeight(address)": {
        "notice": "Get current gauge weight"
      },
      "getTotalWeight()": {
        "notice": "Get current total (type-weighted) weight"
      },
      "getTypeWeight(int128)": {
        "notice": "Get current type weight"
      },
      "getWeightsSumPerType(int128)": {
        "notice": "Get sum of gauge weights per type"
      },
      "setP12CoinFactory(address)": {
        "notice": "set new p12CoinFactory"
      },
      "setVotingEscrow(address)": {
        "notice": "set new votingEscrow"
      },
      "voteForGaugeWeights(address,uint256)": {
        "notice": "Allocate voting power for changing pool weights"
      }
    },
    "version": 1
  },
  "storageLayout": {
    "storage": [
      {
        "astId": 13290,
        "contract": "contracts/staking/GaugeControllerUpgradeable.sol:GaugeControllerUpgradeable",
        "label": "votingEscrow",
        "offset": 0,
        "slot": "0",
        "type": "t_contract(IVotingEscrow)19980"
      },
      {
        "astId": 13292,
        "contract": "contracts/staking/GaugeControllerUpgradeable.sol:GaugeControllerUpgradeable",
        "label": "p12CoinFactory",
        "offset": 0,
        "slot": "1",
        "type": "t_address"
      },
      {
        "astId": 13294,
        "contract": "contracts/staking/GaugeControllerUpgradeable.sol:GaugeControllerUpgradeable",
        "label": "nGaugeTypes",
        "offset": 0,
        "slot": "2",
        "type": "t_int128"
      },
      {
        "astId": 13296,
        "contract": "contracts/staking/GaugeControllerUpgradeable.sol:GaugeControllerUpgradeable",
        "label": "nGauges",
        "offset": 16,
        "slot": "2",
        "type": "t_int128"
      },
      {
        "astId": 13298,
        "contract": "contracts/staking/GaugeControllerUpgradeable.sol:GaugeControllerUpgradeable",
        "label": "timeTotal",
        "offset": 0,
        "slot": "3",
        "type": "t_uint256"
      },
      {
        "astId": 13302,
        "contract": "contracts/staking/GaugeControllerUpgradeable.sol:GaugeControllerUpgradeable",
        "label": "__gap",
        "offset": 0,
        "slot": "4",
        "type": "t_array(t_uint256)45_storage"
      },
      {
        "astId": 13306,
        "contract": "contracts/staking/GaugeControllerUpgradeable.sol:GaugeControllerUpgradeable",
        "label": "gaugeTypeNames",
        "offset": 0,
        "slot": "49",
        "type": "t_mapping(t_int128,t_string_storage)"
      },
      {
        "astId": 13310,
        "contract": "contracts/staking/GaugeControllerUpgradeable.sol:GaugeControllerUpgradeable",
        "label": "gauges",
        "offset": 0,
        "slot": "50",
        "type": "t_mapping(t_int128,t_address)"
      },
      {
        "astId": 13314,
        "contract": "contracts/staking/GaugeControllerUpgradeable.sol:GaugeControllerUpgradeable",
        "label": "gaugeTypes",
        "offset": 0,
        "slot": "51",
        "type": "t_mapping(t_address,t_int128)"
      },
      {
        "astId": 13321,
        "contract": "contracts/staking/GaugeControllerUpgradeable.sol:GaugeControllerUpgradeable",
        "label": "voteUserSlopes",
        "offset": 0,
        "slot": "52",
        "type": "t_mapping(t_address,t_mapping(t_address,t_struct(VotedSlope)13391_storage))"
      },
      {
        "astId": 13325,
        "contract": "contracts/staking/GaugeControllerUpgradeable.sol:GaugeControllerUpgradeable",
        "label": "voteUserPower",
        "offset": 0,
        "slot": "53",
        "type": "t_mapping(t_address,t_uint256)"
      },
      {
        "astId": 13331,
        "contract": "contracts/staking/GaugeControllerUpgradeable.sol:GaugeControllerUpgradeable",
        "label": "lastUserVote",
        "offset": 0,
        "slot": "54",
        "type": "t_mapping(t_address,t_mapping(t_address,t_uint256))"
      },
      {
        "astId": 13338,
        "contract": "contracts/staking/GaugeControllerUpgradeable.sol:GaugeControllerUpgradeable",
        "label": "pointsWeight",
        "offset": 0,
        "slot": "55",
        "type": "t_mapping(t_address,t_mapping(t_uint256,t_struct(Point)13384_storage))"
      },
      {
        "astId": 13344,
        "contract": "contracts/staking/GaugeControllerUpgradeable.sol:GaugeControllerUpgradeable",
        "label": "changesWeight",
        "offset": 0,
        "slot": "56",
        "type": "t_mapping(t_address,t_mapping(t_uint256,t_uint256))"
      },
      {
        "astId": 13348,
        "contract": "contracts/staking/GaugeControllerUpgradeable.sol:GaugeControllerUpgradeable",
        "label": "timeWeight",
        "offset": 0,
        "slot": "57",
        "type": "t_mapping(t_address,t_uint256)"
      },
      {
        "astId": 13355,
        "contract": "contracts/staking/GaugeControllerUpgradeable.sol:GaugeControllerUpgradeable",
        "label": "pointsSum",
        "offset": 0,
        "slot": "58",
        "type": "t_mapping(t_int128,t_mapping(t_uint256,t_struct(Point)13384_storage))"
      },
      {
        "astId": 13361,
        "contract": "contracts/staking/GaugeControllerUpgradeable.sol:GaugeControllerUpgradeable",
        "label": "changesSum",
        "offset": 0,
        "slot": "59",
        "type": "t_mapping(t_int128,t_mapping(t_uint256,t_uint256))"
      },
      {
        "astId": 13365,
        "contract": "contracts/staking/GaugeControllerUpgradeable.sol:GaugeControllerUpgradeable",
        "label": "timeSum",
        "offset": 0,
        "slot": "60",
        "type": "t_mapping(t_int128,t_uint256)"
      },
      {
        "astId": 13369,
        "contract": "contracts/staking/GaugeControllerUpgradeable.sol:GaugeControllerUpgradeable",
        "label": "pointsTotal",
        "offset": 0,
        "slot": "61",
        "type": "t_mapping(t_uint256,t_uint256)"
      },
      {
        "astId": 13375,
        "contract": "contracts/staking/GaugeControllerUpgradeable.sol:GaugeControllerUpgradeable",
        "label": "pointsTypeWeight",
        "offset": 0,
        "slot": "62",
        "type": "t_mapping(t_int128,t_mapping(t_uint256,t_uint256))"
      },
      {
        "astId": 13379,
        "contract": "contracts/staking/GaugeControllerUpgradeable.sol:GaugeControllerUpgradeable",
        "label": "timeTypeWeight",
        "offset": 0,
        "slot": "63",
        "type": "t_mapping(t_int128,t_uint256)"
      },
      {
        "astId": 395,
        "contract": "contracts/staking/GaugeControllerUpgradeable.sol:GaugeControllerUpgradeable",
        "label": "_initialized",
        "offset": 0,
        "slot": "64",
        "type": "t_uint8"
      },
      {
        "astId": 398,
        "contract": "contracts/staking/GaugeControllerUpgradeable.sol:GaugeControllerUpgradeable",
        "label": "_initializing",
        "offset": 1,
        "slot": "64",
        "type": "t_bool"
      },
      {
        "astId": 1540,
        "contract": "contracts/staking/GaugeControllerUpgradeable.sol:GaugeControllerUpgradeable",
        "label": "__gap",
        "offset": 0,
        "slot": "65",
        "type": "t_array(t_uint256)50_storage"
      },
      {
        "astId": 377,
        "contract": "contracts/staking/GaugeControllerUpgradeable.sol:GaugeControllerUpgradeable",
        "label": "__gap",
        "offset": 0,
        "slot": "115",
        "type": "t_array(t_uint256)50_storage"
      },
      {
        "astId": 674,
        "contract": "contracts/staking/GaugeControllerUpgradeable.sol:GaugeControllerUpgradeable",
        "label": "__gap",
        "offset": 0,
        "slot": "165",
        "type": "t_array(t_uint256)50_storage"
      },
      {
        "astId": 8312,
        "contract": "contracts/staking/GaugeControllerUpgradeable.sol:GaugeControllerUpgradeable",
        "label": "_owner",
        "offset": 0,
        "slot": "215",
        "type": "t_address"
      },
      {
        "astId": 8314,
        "contract": "contracts/staking/GaugeControllerUpgradeable.sol:GaugeControllerUpgradeable",
        "label": "_pendingOwner",
        "offset": 0,
        "slot": "216",
        "type": "t_address"
      },
      {
        "astId": 8516,
        "contract": "contracts/staking/GaugeControllerUpgradeable.sol:GaugeControllerUpgradeable",
        "label": "__gap",
        "offset": 0,
        "slot": "217",
        "type": "t_array(t_uint256)48_storage"
      },
      {
        "astId": 696,
        "contract": "contracts/staking/GaugeControllerUpgradeable.sol:GaugeControllerUpgradeable",
        "label": "_paused",
        "offset": 0,
        "slot": "265",
        "type": "t_bool"
      },
      {
        "astId": 801,
        "contract": "contracts/staking/GaugeControllerUpgradeable.sol:GaugeControllerUpgradeable",
        "label": "__gap",
        "offset": 0,
        "slot": "266",
        "type": "t_array(t_uint256)49_storage"
      }
    ],
    "types": {
      "t_address": {
        "encoding": "inplace",
        "label": "address",
        "numberOfBytes": "20"
      },
      "t_array(t_uint256)45_storage": {
        "base": "t_uint256",
        "encoding": "inplace",
        "label": "uint256[45]",
        "numberOfBytes": "1440"
      },
      "t_array(t_uint256)48_storage": {
        "base": "t_uint256",
        "encoding": "inplace",
        "label": "uint256[48]",
        "numberOfBytes": "1536"
      },
      "t_array(t_uint256)49_storage": {
        "base": "t_uint256",
        "encoding": "inplace",
        "label": "uint256[49]",
        "numberOfBytes": "1568"
      },
      "t_array(t_uint256)50_storage": {
        "base": "t_uint256",
        "encoding": "inplace",
        "label": "uint256[50]",
        "numberOfBytes": "1600"
      },
      "t_bool": {
        "encoding": "inplace",
        "label": "bool",
        "numberOfBytes": "1"
      },
      "t_contract(IVotingEscrow)19980": {
        "encoding": "inplace",
        "label": "contract IVotingEscrow",
        "numberOfBytes": "20"
      },
      "t_int128": {
        "encoding": "inplace",
        "label": "int128",
        "numberOfBytes": "16"
      },
      "t_mapping(t_address,t_int128)": {
        "encoding": "mapping",
        "key": "t_address",
        "label": "mapping(address => int128)",
        "numberOfBytes": "32",
        "value": "t_int128"
      },
      "t_mapping(t_address,t_mapping(t_address,t_struct(VotedSlope)13391_storage))": {
        "encoding": "mapping",
        "key": "t_address",
        "label": "mapping(address => mapping(address => struct ControllerStorage.VotedSlope))",
        "numberOfBytes": "32",
        "value": "t_mapping(t_address,t_struct(VotedSlope)13391_storage)"
      },
      "t_mapping(t_address,t_mapping(t_address,t_uint256))": {
        "encoding": "mapping",
        "key": "t_address",
        "label": "mapping(address => mapping(address => uint256))",
        "numberOfBytes": "32",
        "value": "t_mapping(t_address,t_uint256)"
      },
      "t_mapping(t_address,t_mapping(t_uint256,t_struct(Point)13384_storage))": {
        "encoding": "mapping",
        "key": "t_address",
        "label": "mapping(address => mapping(uint256 => struct ControllerStorage.Point))",
        "numberOfBytes": "32",
        "value": "t_mapping(t_uint256,t_struct(Point)13384_storage)"
      },
      "t_mapping(t_address,t_mapping(t_uint256,t_uint256))": {
        "encoding": "mapping",
        "key": "t_address",
        "label": "mapping(address => mapping(uint256 => uint256))",
        "numberOfBytes": "32",
        "value": "t_mapping(t_uint256,t_uint256)"
      },
      "t_mapping(t_address,t_struct(VotedSlope)13391_storage)": {
        "encoding": "mapping",
        "key": "t_address",
        "label": "mapping(address => struct ControllerStorage.VotedSlope)",
        "numberOfBytes": "32",
        "value": "t_struct(VotedSlope)13391_storage"
      },
      "t_mapping(t_address,t_uint256)": {
        "encoding": "mapping",
        "key": "t_address",
        "label": "mapping(address => uint256)",
        "numberOfBytes": "32",
        "value": "t_uint256"
      },
      "t_mapping(t_int128,t_address)": {
        "encoding": "mapping",
        "key": "t_int128",
        "label": "mapping(int128 => address)",
        "numberOfBytes": "32",
        "value": "t_address"
      },
      "t_mapping(t_int128,t_mapping(t_uint256,t_struct(Point)13384_storage))": {
        "encoding": "mapping",
        "key": "t_int128",
        "label": "mapping(int128 => mapping(uint256 => struct ControllerStorage.Point))",
        "numberOfBytes": "32",
        "value": "t_mapping(t_uint256,t_struct(Point)13384_storage)"
      },
      "t_mapping(t_int128,t_mapping(t_uint256,t_uint256))": {
        "encoding": "mapping",
        "key": "t_int128",
        "label": "mapping(int128 => mapping(uint256 => uint256))",
        "numberOfBytes": "32",
        "value": "t_mapping(t_uint256,t_uint256)"
      },
      "t_mapping(t_int128,t_string_storage)": {
        "encoding": "mapping",
        "key": "t_int128",
        "label": "mapping(int128 => string)",
        "numberOfBytes": "32",
        "value": "t_string_storage"
      },
      "t_mapping(t_int128,t_uint256)": {
        "encoding": "mapping",
        "key": "t_int128",
        "label": "mapping(int128 => uint256)",
        "numberOfBytes": "32",
        "value": "t_uint256"
      },
      "t_mapping(t_uint256,t_struct(Point)13384_storage)": {
        "encoding": "mapping",
        "key": "t_uint256",
        "label": "mapping(uint256 => struct ControllerStorage.Point)",
        "numberOfBytes": "32",
        "value": "t_struct(Point)13384_storage"
      },
      "t_mapping(t_uint256,t_uint256)": {
        "encoding": "mapping",
        "key": "t_uint256",
        "label": "mapping(uint256 => uint256)",
        "numberOfBytes": "32",
        "value": "t_uint256"
      },
      "t_string_storage": {
        "encoding": "bytes",
        "label": "string",
        "numberOfBytes": "32"
      },
      "t_struct(Point)13384_storage": {
        "encoding": "inplace",
        "label": "struct ControllerStorage.Point",
        "members": [
          {
            "astId": 13381,
            "contract": "contracts/staking/GaugeControllerUpgradeable.sol:GaugeControllerUpgradeable",
            "label": "bias",
            "offset": 0,
            "slot": "0",
            "type": "t_uint256"
          },
          {
            "astId": 13383,
            "contract": "contracts/staking/GaugeControllerUpgradeable.sol:GaugeControllerUpgradeable",
            "label": "slope",
            "offset": 0,
            "slot": "1",
            "type": "t_uint256"
          }
        ],
        "numberOfBytes": "64"
      },
      "t_struct(VotedSlope)13391_storage": {
        "encoding": "inplace",
        "label": "struct ControllerStorage.VotedSlope",
        "members": [
          {
            "astId": 13386,
            "contract": "contracts/staking/GaugeControllerUpgradeable.sol:GaugeControllerUpgradeable",
            "label": "slope",
            "offset": 0,
            "slot": "0",
            "type": "t_uint256"
          },
          {
            "astId": 13388,
            "contract": "contracts/staking/GaugeControllerUpgradeable.sol:GaugeControllerUpgradeable",
            "label": "power",
            "offset": 0,
            "slot": "1",
            "type": "t_uint256"
          },
          {
            "astId": 13390,
            "contract": "contracts/staking/GaugeControllerUpgradeable.sol:GaugeControllerUpgradeable",
            "label": "end",
            "offset": 0,
            "slot": "2",
            "type": "t_uint256"
          }
        ],
        "numberOfBytes": "96"
      },
      "t_uint256": {
        "encoding": "inplace",
        "label": "uint256",
        "numberOfBytes": "32"
      },
      "t_uint8": {
        "encoding": "inplace",
        "label": "uint8",
        "numberOfBytes": "1"
      }
    }
  }
}