{
  "address": "0xd1190C53dFF162242EE5145cFb1C28dA75B921f3",
  "abi": [
    {
      "inputs": [
        {
          "internalType": "bytes32",
          "name": "mintId",
          "type": "bytes32"
        }
      ],
      "name": "ExecutedMint",
      "type": "error"
    },
    {
      "inputs": [],
      "name": "InvalidLiquidity",
      "type": "error"
    },
    {
      "inputs": [
        {
          "internalType": "contract IP12GameCoin",
          "name": "coin",
          "type": "address"
        },
        {
          "internalType": "string",
          "name": "gameId",
          "type": "string"
        }
      ],
      "name": "MisMatchCoinWithGameId",
      "type": "error"
    },
    {
      "inputs": [],
      "name": "NoPermission",
      "type": "error"
    },
    {
      "inputs": [
        {
          "internalType": "bytes32",
          "name": "mintId",
          "type": "bytes32"
        }
      ],
      "name": "NonExistenceMintId",
      "type": "error"
    },
    {
      "inputs": [],
      "name": "NotEnoughP12",
      "type": "error"
    },
    {
      "inputs": [
        {
          "internalType": "address",
          "name": "user",
          "type": "address"
        },
        {
          "internalType": "string",
          "name": "gameId",
          "type": "string"
        }
      ],
      "name": "NotGameDeveloper",
      "type": "error"
    },
    {
      "inputs": [],
      "name": "NotP12Dev",
      "type": "error"
    },
    {
      "inputs": [
        {
          "internalType": "bytes32",
          "name": "mintId",
          "type": "bytes32"
        }
      ],
      "name": "NotTimeToMint",
      "type": "error"
    },
    {
      "inputs": [],
      "name": "ZeroAddressSet",
      "type": "error"
    },
    {
      "anonymous": false,
      "inputs": [
        {
          "indexed": false,
          "internalType": "address",
          "name": "previousAdmin",
          "type": "address"
        },
        {
          "indexed": false,
          "internalType": "address",
          "name": "newAdmin",
          "type": "address"
        }
      ],
      "name": "AdminChanged",
      "type": "event"
    },
    {
      "anonymous": false,
      "inputs": [
        {
          "indexed": true,
          "internalType": "address",
          "name": "beacon",
          "type": "address"
        }
      ],
      "name": "BeaconUpgraded",
      "type": "event"
    },
    {
      "anonymous": false,
      "inputs": [
        {
          "indexed": true,
          "internalType": "contract IP12GameCoin",
          "name": "gameCoinAddress",
          "type": "address"
        },
        {
          "indexed": false,
          "internalType": "string",
          "name": "gameId",
          "type": "string"
        },
        {
          "indexed": false,
          "internalType": "uint256",
          "name": "amountP12",
          "type": "uint256"
        }
      ],
      "name": "CreateGameCoin",
      "type": "event"
    },
    {
      "anonymous": false,
      "inputs": [
        {
          "indexed": true,
          "internalType": "bytes32",
          "name": "mintId",
          "type": "bytes32"
        },
        {
          "indexed": true,
          "internalType": "contract IP12GameCoin",
          "name": "gameCoinAddress",
          "type": "address"
        },
        {
          "indexed": true,
          "internalType": "address",
          "name": "executor",
          "type": "address"
        }
      ],
      "name": "ExecuteMintCoin",
      "type": "event"
    },
    {
      "anonymous": false,
      "inputs": [
        {
          "indexed": false,
          "internalType": "uint8",
          "name": "version",
          "type": "uint8"
        }
      ],
      "name": "Initialized",
      "type": "event"
    },
    {
      "anonymous": false,
      "inputs": [
        {
          "indexed": true,
          "internalType": "address",
          "name": "previousOwner",
          "type": "address"
        },
        {
          "indexed": true,
          "internalType": "address",
          "name": "newOwner",
          "type": "address"
        }
      ],
      "name": "OwnershipTransferred",
      "type": "event"
    },
    {
      "anonymous": false,
      "inputs": [
        {
          "indexed": false,
          "internalType": "address",
          "name": "account",
          "type": "address"
        }
      ],
      "name": "Paused",
      "type": "event"
    },
    {
      "anonymous": false,
      "inputs": [
        {
          "indexed": true,
          "internalType": "bytes32",
          "name": "mintId",
          "type": "bytes32"
        },
        {
          "indexed": true,
          "internalType": "contract IP12GameCoin",
          "name": "gameCoinAddress",
          "type": "address"
        },
        {
          "indexed": false,
          "internalType": "uint256",
          "name": "mintAmount",
          "type": "uint256"
        },
        {
          "indexed": false,
          "internalType": "uint256",
          "name": "unlockTimestamp",
          "type": "uint256"
        },
        {
          "indexed": false,
          "internalType": "uint256",
          "name": "amountP12",
          "type": "uint256"
        }
      ],
      "name": "QueueMintCoin",
      "type": "event"
    },
    {
      "anonymous": false,
      "inputs": [
        {
          "indexed": false,
          "internalType": "string",
          "name": "gameId",
          "type": "string"
        },
        {
          "indexed": true,
          "internalType": "address",
          "name": "developer",
          "type": "address"
        }
      ],
      "name": "RegisterGame",
      "type": "event"
    },
    {
      "anonymous": false,
      "inputs": [
        {
          "indexed": false,
          "internalType": "uint256",
          "name": "oldDelayB",
          "type": "uint256"
        },
        {
          "indexed": false,
          "internalType": "uint256",
          "name": "newDelayB",
          "type": "uint256"
        }
      ],
      "name": "SetDelayB",
      "type": "event"
    },
    {
      "anonymous": false,
      "inputs": [
        {
          "indexed": false,
          "internalType": "uint256",
          "name": "oldDelayK",
          "type": "uint256"
        },
        {
          "indexed": false,
          "internalType": "uint256",
          "name": "newDelayK",
          "type": "uint256"
        }
      ],
      "name": "SetDelayK",
      "type": "event"
    },
    {
      "anonymous": false,
      "inputs": [
        {
          "indexed": false,
          "internalType": "address",
          "name": "oldDev",
          "type": "address"
        },
        {
          "indexed": false,
          "internalType": "address",
          "name": "newDev",
          "type": "address"
        }
      ],
      "name": "SetDev",
      "type": "event"
    },
    {
      "anonymous": false,
      "inputs": [
        {
          "indexed": false,
          "internalType": "contract IGaugeController",
          "name": "oldGaugeController",
          "type": "address"
        },
        {
          "indexed": false,
          "internalType": "contract IGaugeController",
          "name": "newGaugeController",
          "type": "address"
        }
      ],
      "name": "SetGaugeController",
      "type": "event"
    },
    {
      "anonymous": false,
      "inputs": [
        {
          "indexed": false,
          "internalType": "contract IP12MineUpgradeable",
          "name": "oldP12Mine",
          "type": "address"
        },
        {
          "indexed": false,
          "internalType": "contract IP12MineUpgradeable",
          "name": "newP12Mine",
          "type": "address"
        }
      ],
      "name": "SetP12Mine",
      "type": "event"
    },
    {
      "anonymous": false,
      "inputs": [
        {
          "indexed": false,
          "internalType": "address",
          "name": "oldP12Token",
          "type": "address"
        },
        {
          "indexed": false,
          "internalType": "address",
          "name": "newP12Token",
          "type": "address"
        }
      ],
      "name": "SetP12Token",
      "type": "event"
    },
    {
      "anonymous": false,
      "inputs": [
        {
          "indexed": false,
          "internalType": "contract IUniswapV2Factory",
          "name": "oldUniswapFactory",
          "type": "address"
        },
        {
          "indexed": false,
          "internalType": "contract IUniswapV2Factory",
          "name": "newUniswapFactory",
          "type": "address"
        }
      ],
      "name": "SetUniswapFactory",
      "type": "event"
    },
    {
      "anonymous": false,
      "inputs": [
        {
          "indexed": false,
          "internalType": "contract IUniswapV2Router02",
          "name": "oldUniswapRouter",
          "type": "address"
        },
        {
          "indexed": false,
          "internalType": "contract IUniswapV2Router02",
          "name": "newUniswapRouter",
          "type": "address"
        }
      ],
      "name": "SetUniswapRouter",
      "type": "event"
    },
    {
      "anonymous": false,
      "inputs": [
        {
          "indexed": false,
          "internalType": "address",
          "name": "account",
          "type": "address"
        }
      ],
      "name": "Unpaused",
      "type": "event"
    },
    {
      "anonymous": false,
      "inputs": [
        {
          "indexed": true,
          "internalType": "address",
          "name": "implementation",
          "type": "address"
        }
      ],
      "name": "Upgraded",
      "type": "event"
    },
    {
      "anonymous": false,
      "inputs": [
        {
          "indexed": false,
          "internalType": "address",
          "name": "userAddress",
          "type": "address"
        },
        {
          "indexed": false,
          "internalType": "contract IP12GameCoin",
          "name": "gameCoinAddress",
          "type": "address"
        },
        {
          "indexed": false,
          "internalType": "uint256",
          "name": "amountGameCoin",
          "type": "uint256"
        }
      ],
      "name": "Withdraw",
      "type": "event"
    },
    {
      "inputs": [],
      "name": "addLiquidityEffectiveTime",
      "outputs": [
        {
          "internalType": "uint256",
          "name": "",
          "type": "uint256"
        }
      ],
      "stateMutability": "view",
      "type": "function"
    },
    {
      "inputs": [
        {
          "internalType": "contract IP12GameCoin",
          "name": "",
          "type": "address"
        }
      ],
      "name": "allGameCoins",
      "outputs": [
        {
          "internalType": "string",
          "name": "",
          "type": "string"
        }
      ],
      "stateMutability": "view",
      "type": "function"
    },
    {
      "inputs": [
        {
          "internalType": "string",
          "name": "",
          "type": "string"
        }
      ],
      "name": "allGames",
      "outputs": [
        {
          "internalType": "address",
          "name": "",
          "type": "address"
        }
      ],
      "stateMutability": "view",
      "type": "function"
    },
    {
      "inputs": [],
      "name": "claimOwnership",
      "outputs": [],
      "stateMutability": "nonpayable",
      "type": "function"
    },
    {
      "inputs": [
        {
          "internalType": "contract IP12GameCoin",
          "name": "",
          "type": "address"
        },
        {
          "internalType": "bytes32",
          "name": "",
          "type": "bytes32"
        }
      ],
      "name": "coinMintRecords",
      "outputs": [
        {
          "internalType": "uint256",
          "name": "amount",
          "type": "uint256"
        },
        {
          "internalType": "uint256",
          "name": "unlockTimestamp",
          "type": "uint256"
        },
        {
          "internalType": "bool",
          "name": "executed",
          "type": "bool"
        }
      ],
      "stateMutability": "view",
      "type": "function"
    },
    {
      "inputs": [
        {
          "internalType": "string",
          "name": "name",
          "type": "string"
        },
        {
          "internalType": "string",
          "name": "symbol",
          "type": "string"
        },
        {
          "internalType": "string",
          "name": "gameId",
          "type": "string"
        },
        {
          "internalType": "string",
          "name": "gameCoinIconUrl",
          "type": "string"
        },
        {
          "internalType": "uint256",
          "name": "amountGameCoin",
          "type": "uint256"
        },
        {
          "internalType": "uint256",
          "name": "amountP12",
          "type": "uint256"
        }
      ],
      "name": "create",
      "outputs": [
        {
          "internalType": "contract IP12GameCoin",
          "name": "gameCoinAddress",
          "type": "address"
        }
      ],
      "stateMutability": "nonpayable",
      "type": "function"
    },
    {
      "inputs": [],
      "name": "delayB",
      "outputs": [
        {
          "internalType": "uint256",
          "name": "",
          "type": "uint256"
        }
      ],
      "stateMutability": "view",
      "type": "function"
    },
    {
      "inputs": [],
      "name": "delayK",
      "outputs": [
        {
          "internalType": "uint256",
          "name": "",
          "type": "uint256"
        }
      ],
      "stateMutability": "view",
      "type": "function"
    },
    {
      "inputs": [],
      "name": "dev",
      "outputs": [
        {
          "internalType": "address",
          "name": "",
          "type": "address"
        }
      ],
      "stateMutability": "view",
      "type": "function"
    },
    {
      "inputs": [
        {
          "internalType": "contract IP12GameCoin",
          "name": "gameCoinAddress",
          "type": "address"
        },
        {
          "internalType": "bytes32",
          "name": "mintId",
          "type": "bytes32"
        }
      ],
      "name": "executeMintCoin",
      "outputs": [
        {
          "internalType": "bool",
          "name": "",
          "type": "bool"
        }
      ],
      "stateMutability": "nonpayable",
      "type": "function"
    },
    {
      "inputs": [],
      "name": "gaugeController",
      "outputs": [
        {
          "internalType": "contract IGaugeController",
          "name": "",
          "type": "address"
        }
      ],
      "stateMutability": "view",
      "type": "function"
    },
    {
      "inputs": [
        {
          "internalType": "contract IP12GameCoin",
          "name": "gameCoinAddress",
          "type": "address"
        },
        {
          "internalType": "uint256",
          "name": "amountGameCoin",
          "type": "uint256"
        }
      ],
      "name": "getMintDelay",
      "outputs": [
        {
          "internalType": "uint256",
          "name": "time",
          "type": "uint256"
        }
      ],
      "stateMutability": "view",
      "type": "function"
    },
    {
      "inputs": [
        {
          "internalType": "contract IP12GameCoin",
          "name": "gameCoinAddress",
          "type": "address"
        },
        {
          "internalType": "uint256",
          "name": "amountGameCoin",
          "type": "uint256"
        }
      ],
      "name": "getMintFee",
      "outputs": [
        {
          "internalType": "uint256",
          "name": "amountP12",
          "type": "uint256"
        }
      ],
      "stateMutability": "view",
      "type": "function"
    },
    {
      "inputs": [
        {
          "internalType": "address",
          "name": "owner_",
          "type": "address"
        },
        {
          "internalType": "address",
          "name": "p12_",
          "type": "address"
        },
        {
          "internalType": "contract IUniswapV2Factory",
          "name": "uniswapFactory_",
          "type": "address"
        },
        {
          "internalType": "contract IUniswapV2Router02",
          "name": "uniswapRouter_",
          "type": "address"
        },
        {
          "internalType": "uint256",
          "name": "effectiveTime_",
          "type": "uint256"
        },
        {
          "internalType": "bytes32",
          "name": "initHash_",
          "type": "bytes32"
        }
      ],
      "name": "initialize",
      "outputs": [],
      "stateMutability": "nonpayable",
      "type": "function"
    },
    {
      "inputs": [],
      "name": "owner",
      "outputs": [
        {
          "internalType": "address",
          "name": "",
          "type": "address"
        }
      ],
      "stateMutability": "view",
      "type": "function"
    },
    {
      "inputs": [],
      "name": "p12",
      "outputs": [
        {
          "internalType": "address",
          "name": "",
          "type": "address"
        }
      ],
      "stateMutability": "view",
      "type": "function"
    },
    {
      "inputs": [],
      "name": "p12Mine",
      "outputs": [
        {
          "internalType": "contract IP12MineUpgradeable",
          "name": "",
          "type": "address"
        }
      ],
      "stateMutability": "view",
      "type": "function"
    },
    {
      "inputs": [],
      "name": "pause",
      "outputs": [],
      "stateMutability": "nonpayable",
      "type": "function"
    },
    {
      "inputs": [],
      "name": "paused",
      "outputs": [
        {
          "internalType": "bool",
          "name": "",
          "type": "bool"
        }
      ],
      "stateMutability": "view",
      "type": "function"
    },
    {
      "inputs": [],
      "name": "pendingOwner",
      "outputs": [
        {
          "internalType": "address",
          "name": "",
          "type": "address"
        }
      ],
      "stateMutability": "view",
      "type": "function"
    },
    {
      "inputs": [
        {
          "internalType": "contract IP12GameCoin",
          "name": "",
          "type": "address"
        }
      ],
      "name": "preMintIds",
      "outputs": [
        {
          "internalType": "bytes32",
          "name": "",
          "type": "bytes32"
        }
      ],
      "stateMutability": "view",
      "type": "function"
    },
    {
      "inputs": [],
      "name": "proxiableUUID",
      "outputs": [
        {
          "internalType": "bytes32",
          "name": "",
          "type": "bytes32"
        }
      ],
      "stateMutability": "view",
      "type": "function"
    },
    {
      "inputs": [
        {
          "internalType": "string",
          "name": "gameId",
          "type": "string"
        },
        {
          "internalType": "contract IP12GameCoin",
          "name": "gameCoinAddress",
          "type": "address"
        },
        {
          "internalType": "uint256",
          "name": "amountGameCoin",
          "type": "uint256"
        }
      ],
      "name": "queueMintCoin",
      "outputs": [
        {
          "internalType": "bool",
          "name": "success",
          "type": "bool"
        }
      ],
      "stateMutability": "nonpayable",
      "type": "function"
    },
    {
      "inputs": [
        {
          "internalType": "string",
          "name": "gameId",
          "type": "string"
        },
        {
          "internalType": "address",
          "name": "developer",
          "type": "address"
        }
      ],
      "name": "register",
      "outputs": [],
      "stateMutability": "nonpayable",
      "type": "function"
    },
    {
      "inputs": [],
      "name": "renounceOwnership",
      "outputs": [],
      "stateMutability": "nonpayable",
      "type": "function"
    },
    {
      "inputs": [
        {
          "internalType": "uint256",
          "name": "newDelayB",
          "type": "uint256"
        }
      ],
      "name": "setDelayB",
      "outputs": [
        {
          "internalType": "bool",
          "name": "",
          "type": "bool"
        }
      ],
      "stateMutability": "nonpayable",
      "type": "function"
    },
    {
      "inputs": [
        {
          "internalType": "uint256",
          "name": "newDelayK",
          "type": "uint256"
        }
      ],
      "name": "setDelayK",
      "outputs": [
        {
          "internalType": "bool",
          "name": "",
          "type": "bool"
        }
      ],
      "stateMutability": "nonpayable",
      "type": "function"
    },
    {
      "inputs": [
        {
          "internalType": "address",
          "name": "newDev",
          "type": "address"
        }
      ],
      "name": "setDev",
      "outputs": [],
      "stateMutability": "nonpayable",
      "type": "function"
    },
    {
      "inputs": [
        {
          "internalType": "contract IGaugeController",
          "name": "newGaugeController",
          "type": "address"
        }
      ],
      "name": "setGaugeController",
      "outputs": [],
      "stateMutability": "nonpayable",
      "type": "function"
    },
    {
      "inputs": [
        {
          "internalType": "contract IP12MineUpgradeable",
          "name": "newP12Mine",
          "type": "address"
        }
      ],
      "name": "setP12Mine",
      "outputs": [],
      "stateMutability": "nonpayable",
      "type": "function"
    },
    {
      "inputs": [
        {
          "internalType": "address",
          "name": "newP12Token",
          "type": "address"
        }
      ],
      "name": "setP12Token",
      "outputs": [],
      "stateMutability": "nonpayable",
      "type": "function"
    },
    {
      "inputs": [
        {
          "internalType": "contract IP12GameCoin",
          "name": "token",
          "type": "address"
        },
        {
          "internalType": "string",
          "name": "newUrl",
          "type": "string"
        }
      ],
      "name": "setTokenIconUrl",
      "outputs": [],
      "stateMutability": "nonpayable",
      "type": "function"
    },
    {
      "inputs": [
        {
          "internalType": "contract IP12GameCoin",
          "name": "token",
          "type": "address"
        },
        {
          "internalType": "string",
          "name": "newName",
          "type": "string"
        }
      ],
      "name": "setTokenName",
      "outputs": [],
      "stateMutability": "nonpayable",
      "type": "function"
    },
    {
      "inputs": [
        {
          "internalType": "contract IP12GameCoin",
          "name": "token",
          "type": "address"
        },
        {
          "internalType": "string",
          "name": "newSymbol",
          "type": "string"
        }
      ],
      "name": "setTokenSymbol",
      "outputs": [],
      "stateMutability": "nonpayable",
      "type": "function"
    },
    {
      "inputs": [
        {
          "internalType": "contract IUniswapV2Factory",
          "name": "newUniswapFactory",
          "type": "address"
        }
      ],
      "name": "setUniswapFactory",
      "outputs": [],
      "stateMutability": "nonpayable",
      "type": "function"
    },
    {
      "inputs": [
        {
          "internalType": "contract IUniswapV2Router02",
          "name": "newUniswapRouter",
          "type": "address"
        }
      ],
      "name": "setUniswapRouter",
      "outputs": [],
      "stateMutability": "nonpayable",
      "type": "function"
    },
    {
      "inputs": [
        {
          "internalType": "address",
          "name": "newOwner",
          "type": "address"
        },
        {
          "internalType": "bool",
          "name": "direct",
          "type": "bool"
        }
      ],
      "name": "transferOwnership",
      "outputs": [],
      "stateMutability": "nonpayable",
      "type": "function"
    },
    {
      "inputs": [],
      "name": "uniswapFactory",
      "outputs": [
        {
          "internalType": "contract IUniswapV2Factory",
          "name": "",
          "type": "address"
        }
      ],
      "stateMutability": "view",
      "type": "function"
    },
    {
      "inputs": [],
      "name": "uniswapRouter",
      "outputs": [
        {
          "internalType": "contract IUniswapV2Router02",
          "name": "",
          "type": "address"
        }
      ],
      "stateMutability": "view",
      "type": "function"
    },
    {
      "inputs": [],
      "name": "unpause",
      "outputs": [],
      "stateMutability": "nonpayable",
      "type": "function"
    },
    {
      "inputs": [
        {
          "internalType": "address",
          "name": "newImplementation",
          "type": "address"
        }
      ],
      "name": "upgradeTo",
      "outputs": [],
      "stateMutability": "nonpayable",
      "type": "function"
    },
    {
      "inputs": [
        {
          "internalType": "address",
          "name": "newImplementation",
          "type": "address"
        },
        {
          "internalType": "bytes",
          "name": "data",
          "type": "bytes"
        }
      ],
      "name": "upgradeToAndCall",
      "outputs": [],
      "stateMutability": "payable",
      "type": "function"
    },
    {
      "inputs": [
        {
          "internalType": "address",
          "name": "userAddress",
          "type": "address"
        },
        {
          "internalType": "contract IP12GameCoin",
          "name": "gameCoinAddress",
          "type": "address"
        },
        {
          "internalType": "uint256",
          "name": "amountGameCoin",
          "type": "uint256"
        }
      ],
      "name": "withdraw",
      "outputs": [
        {
          "internalType": "bool",
          "name": "",
          "type": "bool"
        }
      ],
      "stateMutability": "nonpayable",
      "type": "function"
    }
  ],
  "transactionHash": "0x48558e572f2cb2b761e673a520e8d9d54f80376d200b3095fd4a403b2808e1c3",
  "args": [],
  "numDeployments": 1,
  "solcInputHash": "bc492e94cb91a890f3895b6826360612",
  "bytecode": "0x60a06040523060805234801561001457600080fd5b5060805161531361004c60003960008181610a3b01528181610a8701528181610eb901528181610efc015261101f01526153136000f3fe6080604052600436106200028e5760003560e01c806391cca3db116200015f578063c370c86d11620000c5578063d9caed121162000084578063d9caed121462000823578063e04b677f1462000848578063e30c3978146200086d578063e48f427b146200088d578063f036417f14620008a5578063f7f45aeb14620008ca57600080fd5b8063c370c86d146200074d578063c45ef4821462000772578063cad2efad1462000797578063caf3a4fe14620007dc578063d477f05f14620007fe57600080fd5b8063afdbf3c2116200011e578063afdbf3c21462000672578063b242e5341462000697578063b309bc9814620006bc578063bea9849e14620006e1578063beb54e531462000706578063bfe36953146200072b57600080fd5b806391cca3db14620005c057806398d294a114620005e257806399eecb3b14620005fa5780639be55f51146200061c578063ada221f4146200064d57600080fd5b80635377210f1162000205578063715018a611620001c4578063715018a614620004f8578063735de9f71462000510578063739be25414620005325780638456cb5914620005665780638bdb2afa146200057e5780638da5cb5b14620005a057600080fd5b80635377210f14620003f65780635c975abb1462000462578063614bb60a146200047d578063620a6fb614620004955780637142bc8314620004ba57600080fd5b80634e71e0c811620002525780634e71e0c814620003565780634f1ef286146200036e5780634f6649f1146200038557806352d1902d14620003aa5780635348e30414620003d157600080fd5b806291d2b814620002935780631e59c52914620002ba5780633659cfe614620002df5780633735e35914620003045780633f4ba83a146200033e575b600080fd5b348015620002a057600080fd5b50620002b8620002b236600462002d64565b620008ef565b005b348015620002c757600080fd5b50620002b8620002d936600462002e3a565b62000982565b348015620002ec57600080fd5b50620002b8620002fe36600462002d64565b62000a31565b3480156200031157600080fd5b50620003296200032336600462002e92565b62000b25565b60405190151581526020015b60405180910390f35b3480156200034b57600080fd5b50620002b862000e63565b3480156200036357600080fd5b50620002b862000e79565b620002b86200037f36600462002ef2565b62000eaf565b3480156200039257600080fd5b50620002b8620003a436600462002d64565b62000f8b565b348015620003b757600080fd5b50620003c262001012565b60405190815260200162000335565b348015620003de57600080fd5b5062000329620003f036600462002f5d565b620010c8565b3480156200040357600080fd5b50620004446200041536600462002f5d565b603460209081526000928352604080842090915290825290208054600182015460029092015490919060ff1683565b60408051938452602084019290925215159082015260600162000335565b3480156200046f57600080fd5b506101315460ff1662000329565b3480156200048a57600080fd5b50620003c260045481565b348015620004a257600080fd5b50620002b8620004b436600462002f8c565b620012b7565b348015620004c757600080fd5b50620004df620004d936600462003003565b620014b9565b6040516001600160a01b03909116815260200162000335565b3480156200050557600080fd5b50620002b86200193b565b3480156200051d57600080fd5b50600154620004df906001600160a01b031681565b3480156200053f57600080fd5b50620005576200055136600462002d64565b62001951565b6040516200033591906200312c565b3480156200057357600080fd5b50620002b8620019f3565b3480156200058b57600080fd5b50600254620004df906001600160a01b031681565b348015620005ad57600080fd5b5060cd546001600160a01b0316620004df565b348015620005cd57600080fd5b50600854620004df906001600160a01b031681565b348015620005ef57600080fd5b50620003c260065481565b3480156200060757600080fd5b50600954620004df906001600160a01b031681565b3480156200062957600080fd5b50620003c26200063b36600462002d64565b60356020526000908152604090205481565b3480156200065a57600080fd5b50620002b86200066c36600462002d64565b62001a07565b3480156200067f57600080fd5b50620003296200069136600462003141565b62001a8e565b348015620006a457600080fd5b50620002b8620006b63660046200316a565b62001ae7565b348015620006c957600080fd5b5062000329620006db36600462003141565b62001b4a565b348015620006ee57600080fd5b50620002b86200070036600462002d64565b62001b95565b3480156200071357600080fd5b50620003c26200072536600462002f5d565b62001c1c565b3480156200073857600080fd5b50600054620004df906001600160a01b031681565b3480156200075a57600080fd5b50620002b86200076c3660046200319d565b62001e51565b3480156200077f57600080fd5b50620003c26200079136600462002f5d565b62001ec7565b348015620007a457600080fd5b50620004df620007b636600462003229565b80516020818301810180516032825292820191909301209152546001600160a01b031681565b348015620007e957600080fd5b50600754620004df906001600160a01b031681565b3480156200080b57600080fd5b50620002b86200081d36600462002d64565b62001f5f565b3480156200083057600080fd5b50620003296200084236600462003262565b62001fe6565b3480156200085557600080fd5b50620002b86200086736600462002d64565b6200205d565b3480156200087a57600080fd5b5060ce546001600160a01b0316620004df565b3480156200089a57600080fd5b50620003c260035481565b348015620008b257600080fd5b50620002b8620008c43660046200319d565b620020e4565b348015620008d757600080fd5b50620002b8620008e93660046200319d565b62002120565b620008f96200215c565b6001600160a01b0381166200092157604051630ae8f22360e21b815260040160405180910390fd5b600980546001600160a01b038381166001600160a01b03198316179092556040519116907f9b1ae61f53f47914159f1f1397501254f37fc99c47286e6b059ce40b382bf0b49062000976908390859062003297565b60405180910390a15050565b6200098c62002188565b6001600160a01b038116620009b457604051630ae8f22360e21b815260040160405180910390fd5b80603283604051620009c79190620032b1565b90815260405190819003602001812080546001600160a01b039384166001600160a01b0319909116179055908216907fd0dd9fef631eda10c96c4dc062a2dd5fa09ab1fc94bc8b015f6d7c3eeaca4a389062000a259085906200312c565b60405180910390a25050565b6001600160a01b037f000000000000000000000000000000000000000000000000000000000000000016300362000a855760405162461bcd60e51b815260040162000a7c90620032cf565b60405180910390fd5b7f00000000000000000000000000000000000000000000000000000000000000006001600160a01b031662000ad060008051602062005297833981519152546001600160a01b031690565b6001600160a01b03161462000af95760405162461bcd60e51b815260040162000a7c906200331b565b62000b0481620021b4565b6040805160008082526020820190925262000b2291839190620021be565b50565b6000600260ff540362000b4c5760405162461bcd60e51b815260040162000a7c9062003367565b600260ff5562000b5b6200233b565b60328460405162000b6d9190620032b1565b90815260405190819003602001902054336001600160a01b039091161462000bae573384604051633facfa2960e21b815260040162000a7c9291906200339e565b6001600160a01b0383166000908152603360205260409020805462000c64919062000bd990620033c4565b80601f016020809104026020016040519081016040528092919081815260200182805462000c0790620033c4565b801562000c585780601f1062000c2c5761010080835404028352916020019162000c58565b820191906000526020600020905b81548152906001019060200180831162000c3a57829003601f168201915b50505050508562002384565b62000c885782846040516303f655d960e61b815260040162000a7c9291906200339e565b6001600160a01b0383166000908152603560209081526040808320546034835281842081855290925282206001015442919080831062000ccb5782935062000ccf565b8093505b600062000cdd888862001c1c565b60005490915062000cfa906001600160a01b0316333084620023e1565b600062000d08898962001ec7565b9050600062000d8e8a338b8a6005546001600160a01b039485166000818152603560208181526040808420805482518085018890529a909b168a83015260608a0198909852608089019690965260a088019890985260c0808801949094528451808803909401845260e09096019093528151918601919091209152919092529081905590565b905060405180606001604052808a8152602001888462000daf919062003416565b8152600060209182018190526001600160a01b038d16808252603483526040808320868452845291829020845181559284015160018401559201516002909101805460ff1916911515919091179055817f192dbb596f99b94785518ef174823fd46e8962b95010f6ddc9fd529a129dbe778b62000e2d8b8762003416565b604080519283526020830191909152810187905260600160405180910390a36001975050505050505050600160ff559392505050565b62000e6d6200215c565b62000e7762002454565b565b60ce546001600160a01b0316331462000ea557604051639d7b369d60e01b815260040160405180910390fd5b62000e77620024a9565b6001600160a01b037f000000000000000000000000000000000000000000000000000000000000000016300362000efa5760405162461bcd60e51b815260040162000a7c90620032cf565b7f00000000000000000000000000000000000000000000000000000000000000006001600160a01b031662000f4560008051602062005297833981519152546001600160a01b031690565b6001600160a01b03161462000f6e5760405162461bcd60e51b815260040162000a7c906200331b565b62000f7982620021b4565b62000f8782826001620021be565b5050565b62000f956200215c565b6001600160a01b03811662000fbd57604051630ae8f22360e21b815260040160405180910390fd5b600780546001600160a01b038381166001600160a01b03198316179092556040519116907f95468d408cf5dd8c0bb5ce4d4a5e1b17b13caa162d20fc4d727f92d404e5265b9062000976908390859062003297565b6000306001600160a01b037f00000000000000000000000000000000000000000000000000000000000000001614620010b45760405162461bcd60e51b815260206004820152603860248201527f555550535570677261646561626c653a206d757374206e6f742062652063616c60448201527f6c6564207468726f7567682064656c656761746563616c6c0000000000000000606482015260840162000a7c565b506000805160206200529783398151915290565b6000600260ff5403620010ef5760405162461bcd60e51b815260040162000a7c9062003367565b600260ff55620010fe6200233b565b6001600160a01b03831660009081526034602090815260408083208584529091528120600101549003620011495760405163ba86627b60e01b81526004810183905260240162000a7c565b6001600160a01b038316600090815260346020908152604080832085845290915290206002015460ff1615620011965760405163222f1d3d60e11b81526004810183905260240162000a7c565b6001600160a01b038316600090815260346020908152604080832085845290915290206001015442908111620011e35760405163d3d4d9c360e01b81526004810184905260240162000a7c565b6001600160a01b03841660008181526034602090815260408083208784529091529081902060028101805460ff191660011790555490516340c10f1960e01b815230600482015260248101919091526340c10f1990604401600060405180830381600087803b1580156200125657600080fd5b505af11580156200126b573d6000803e3d6000fd5b50506040513392506001600160a01b038716915085907f2da35f6537bd80d9cac4d158e23a0ab942e7fb1fd4a25243fcad824c3433e37990600090a46001915050600160ff5592915050565b603654610100900460ff1615808015620012d85750603654600160ff909116105b80620012f45750303b158015620012f4575060365460ff166001145b620013595760405162461bcd60e51b815260206004820152602e60248201527f496e697469616c697a61626c653a20636f6e747261637420697320616c72656160448201526d191e481a5b9a5d1a585b1a5e995960921b606482015260840162000a7c565b6036805460ff1916600117905580156200137d576036805461ff0019166101001790555b6001600160a01b038616620013a557604051630ae8f22360e21b815260040160405180910390fd5b6001600160a01b038516620013cd57604051630ae8f22360e21b815260040160405180910390fd5b6001600160a01b038416620013f557604051630ae8f22360e21b815260040160405180910390fd5b600080546001600160a01b03199081166001600160a01b0389811691821790935560028054831689851617905560018054909216928716928317909155600584905560068590556200144a9160001962002512565b6200145462002630565b6200145e62002661565b620014698762002698565b8015620014b0576036805461ff0019169055604051600181527f7f26b83ff96e1f2b6a682f133852f6798a09c465da95921460cefb38474024989060200160405180910390a15b50505050505050565b6000600260ff5403620014e05760405162461bcd60e51b815260040162000a7c9062003367565b600260ff55620014ef6200233b565b603285604051620015019190620032b1565b90815260405190819003602001902054336001600160a01b039091161462001542573385604051633facfa2960e21b815260040162000a7c9291906200339e565b81600003620015645760405163af68841360e01b815260040160405180910390fd5b620015738787878787620026cd565b905060006200158460028562003431565b600054909150620015a1906001600160a01b0316333086620023e1565b600154620015bd906001600160a01b0384811691168362002512565b6001546000805460075460065492936001600160a01b039081169363e8e337009382169288928a92899284928492911690620015fa904262003416565b60405160e08a901b6001600160e01b03191681526001600160a01b039889166004820152968816602488015260448701959095526064860193909352608485019190915260a484015290921660c482015260e4810191909152610104016060604051808303816000875af115801562001677573d6000803e3d6000fd5b505050506040513d601f19601f820116820180604052508101906200169d919062003454565b6002546000805460405163e6a4390560e01b81529396509094506001600160a01b03918216935063e6a4390592620016de9290911690889060040162003297565b602060405180830381865afa158015620016fc573d6000803e3d6000fd5b505050506040513d601f19601f8201168201806040525081019062001722919062003483565b90506001600160a01b0381166200174c57604051630ae8f22360e21b815260040160405180910390fd5b6007546040516370a0823160e01b81526001600160a01b0391821660048201526000918316906370a0823190602401602060405180830381865afa15801562001799573d6000803e3d6000fd5b505050506040513d601f19601f82011682018060405250810190620017bf9190620034a3565b9050808314620017e257604051631fff968160e01b815260040160405180910390fd5b600954604051634fdea7b360e11b81526001600160a01b03848116600483015260006024830152606460448301819052921691639fbd4f669101600060405180830381600087803b1580156200183757600080fd5b505af11580156200184c573d6000803e3d6000fd5b50506007546040516361b5943760e11b81526001600160a01b03868116600483015260248201869052336044830152909116925063c36b286e9150606401600060405180830381600087803b158015620018a557600080fd5b505af1158015620018ba573d6000803e3d6000fd5b505050506001600160a01b0385166000908152603360205260409020620018e28a826200350f565b50846001600160a01b03167f6e95c3b5d98fadafb5128d1b47318086a57941593d293495faa5879c7eda5ba88a8860405162001920929190620035dc565b60405180910390a250505050600160ff559695505050505050565b620019456200215c565b62000e7760006200271e565b603360205260009081526040902080546200196c90620033c4565b80601f01602080910402602001604051908101604052809291908181526020018280546200199a90620033c4565b8015620019eb5780601f10620019bf57610100808354040283529160200191620019eb565b820191906000526020600020905b815481529060010190602001808311620019cd57829003601f168201915b505050505081565b620019fd6200215c565b62000e7762002794565b62001a116200215c565b6001600160a01b03811662001a3957604051630ae8f22360e21b815260040160405180910390fd5b600080546001600160a01b038381166001600160a01b03198316179092556040519116907fa8b6187bdfcd1b7c94f6739c7b7fd3ae429f0243bb27db8dd521cb941628924c9062000976908390859062003297565b600062001a9a6200215c565b600380549083905560408051828152602081018590527fb936e6dfcf3fec6bfb7d23d91ce9406c4ce74825de73cf38c764ed900731d7a491015b60405180910390a160019150505b919050565b62001af16200215c565b6001600160a01b03821662001b1957604051630ae8f22360e21b815260040160405180910390fd5b801562001b2b5762000f87826200271e565b60ce80546001600160a01b0319166001600160a01b0384161790555050565b600062001b566200215c565b600480549083905560408051828152602081018590527f43c057f209152d56f2de0fa1d79291670facf6161810b2392b949bf1647cc236910162001ad4565b62001b9f6200215c565b6001600160a01b03811662001bc757604051630ae8f22360e21b815260040160405180910390fd5b600180546001600160a01b038381166001600160a01b03198316179092556040519116907f0f37b9ce7f4d93710cfa573bde8e5e815a6ddd7917004b6832145a3c22047e3b9062000976908390859062003297565b60008054819081906001600160a01b038087169116101562001d305760025460005460405163e6a4390560e01b81526001600160a01b039283169263e6a439059262001c71928a929091169060040162003297565b602060405180830381865afa15801562001c8f573d6000803e3d6000fd5b505050506040513d601f19601f8201168201806040525081019062001cb5919062003483565b6001600160a01b0316630902f1ac6040518163ffffffff1660e01b8152600401606060405180830381865afa15801562001cf3573d6000803e3d6000fd5b505050506040513d601f19601f8201168201806040525081019062001d19919062003618565b506001600160701b03908116935016905062001e23565b60025460005460405163e6a4390560e01b81526001600160a01b039283169263e6a439059262001d69928a929091169060040162003297565b602060405180830381865afa15801562001d87573d6000803e3d6000fd5b505050506040513d601f19601f8201168201806040525081019062001dad919062003483565b6001600160a01b0316630902f1ac6040518163ffffffff1660e01b8152600401606060405180830381865afa15801562001deb573d6000803e3d6000fd5b505050506040513d601f19601f8201168201806040525081019062001e11919062003618565b506001600160701b0391821693501690505b62001e308260646200366e565b62001e3c85836200366e565b62001e48919062003431565b95945050505050565b8262001e5d81620027d5565b60405163c47f002760e01b81526001600160a01b0385169063c47f00279062001e8d908690869060040162003690565b600060405180830381600087803b15801562001ea857600080fd5b505af115801562001ebd573d6000803e3d6000fd5b5050505050505050565b6000600454836001600160a01b03166318160ddd6040518163ffffffff1660e01b8152600401602060405180830381865afa15801562001f0b573d6000803e3d6000fd5b505050506040513d601f19601f8201168201806040525081019062001f319190620034a3565b60035462001f4090856200366e565b62001f4c919062003431565b62001f58919062003416565b9392505050565b62001f696200215c565b6001600160a01b03811662001f9157604051630ae8f22360e21b815260040160405180910390fd5b600880546001600160a01b038381166001600160a01b03198316179092556040519116907f7b4a3682445cf2b8276b6dde2faa9f9a653ea60d9ebadf169518e64f55666aae9062000976908390859062003297565b600062001ff262002188565b620020086001600160a01b038416858462002857565b604080516001600160a01b038087168252851660208201529081018390527f9b1bfa7fa9ee420a16e124f794c35ac9f90472acc99140eb2f6447c714cad8eb9060600160405180910390a15060019392505050565b620020676200215c565b6001600160a01b0381166200208f57604051630ae8f22360e21b815260040160405180910390fd5b600280546001600160a01b038381166001600160a01b03198316179092556040519116907f1d63ba0b48b767ad4e57f2dabb3bc49065423e8fb23b85274d4f8d0c695284899062000976908390859062003297565b82620020f081620027d5565b604051635c26412360e11b81526001600160a01b0385169063b84c82469062001e8d908690869060040162003690565b826200212c81620027d5565b60405163142a29bf60e11b81526001600160a01b03851690632854537e9062001e8d908690869060040162003690565b60cd546001600160a01b0316331462000e7757604051639d7b369d60e01b815260040160405180910390fd5b6008546001600160a01b0316331462000e77576040516354f1b40d60e11b815260040160405180910390fd5b62000b226200215c565b7f4910fdfa16fed3260ed0e7147f7cc6da11a60208b5b9406d12a635614ffd91435460ff1615620021f957620021f48362002889565b505050565b826001600160a01b03166352d1902d6040518163ffffffff1660e01b8152600401602060405180830381865afa92505050801562002256575060408051601f3d908101601f191682019092526200225391810190620034a3565b60015b620022bb5760405162461bcd60e51b815260206004820152602e60248201527f45524331393637557067726164653a206e657720696d706c656d656e7461746960448201526d6f6e206973206e6f74205555505360901b606482015260840162000a7c565b6000805160206200529783398151915281146200232d5760405162461bcd60e51b815260206004820152602960248201527f45524331393637557067726164653a20756e737570706f727465642070726f786044820152681a58589b195555525160ba1b606482015260840162000a7c565b50620021f483838362002928565b6101315460ff161562000e775760405162461bcd60e51b815260206004820152601060248201526f14185d5cd8589b194e881c185d5cd95960821b604482015260640162000a7c565b600081604051602001620023999190620032b1565b6040516020818303038152906040528051906020012083604051602001620023c29190620032b1565b6040516020818303038152906040528051906020012014905092915050565b6040516001600160a01b03808516602483015283166044820152606481018290526200244e9085906323b872dd60e01b906084015b60408051601f198184030181529190526020810180516001600160e01b03166001600160e01b03199093169290921790915262002953565b50505050565b6200245e62002a2c565b610131805460ff191690557f5db9ee0a495bf2e6ff9c91a7834c1ba4fdd244a5e8aa4e537bd38aeae4b073aa335b6040516001600160a01b03909116815260200160405180910390a1565b60cd5460ce546040516001600160a01b03928316929091169082907f8be0079c531659141344cd1fd0a4f28419497f9722a3daafe3b4186f6b6457e090600090a35060ce805460cd80546001600160a01b03199081166001600160a01b03841617909155169055565b801580620025915750604051636eb1769f60e11b81526001600160a01b0384169063dd62ed3e906200254b903090869060040162003297565b602060405180830381865afa15801562002569573d6000803e3d6000fd5b505050506040513d601f19601f820116820180604052508101906200258f9190620034a3565b155b620025fe5760405162461bcd60e51b815260206004820152603660248201527f5361666545524332303a20617070726f76652066726f6d206e6f6e2d7a65726f60448201527520746f206e6f6e2d7a65726f20616c6c6f77616e636560501b606482015260840162000a7c565b6040516001600160a01b038316602482015260448101829052620021f490849063095ea7b360e01b9060640162002416565b603654610100900460ff166200265a5760405162461bcd60e51b815260040162000a7c90620036bf565b600160ff55565b603654610100900460ff166200268b5760405162461bcd60e51b815260040162000a7c90620036bf565b610131805460ff19169055565b603654610100900460ff16620026c25760405162461bcd60e51b815260040162000a7c90620036bf565b62000b22816200271e565b600080308787878787604051620026e49062002d40565b620026f5969594939291906200370a565b604051809103906000f08015801562002712573d6000803e3d6000fd5b50979650505050505050565b7fb53127684a568b3173ae13b9f8a6016e243e63b6e8ee1178d6a717850b5d610381905560cd80546001600160a01b038084166001600160a01b0319831681179093556040519116919082907f8be0079c531659141344cd1fd0a4f28419497f9722a3daafe3b4186f6b6457e090600090a35050565b6200279e6200233b565b610131805460ff191660011790557f62e78cea01bee320cd4e420270b5ea74000d11b0c9f74754ebdbfc544b05a2586200248c3390565b6001600160a01b038116600090815260336020526040908190209051603291620027ff9162003784565b90815260405190819003602001902054336001600160a01b039091161462000b22576001600160a01b038116600090815260336020526040908190209051633facfa2960e21b815262000a7c91339160040162003802565b6040516001600160a01b038316602482015260448101829052620021f490849063a9059cbb60e01b9060640162002416565b6001600160a01b0381163b620028f85760405162461bcd60e51b815260206004820152602d60248201527f455243313936373a206e657720696d706c656d656e746174696f6e206973206e60448201526c1bdd08184818dbdb9d1c9858dd609a1b606482015260840162000a7c565b6000805160206200529783398151915280546001600160a01b0319166001600160a01b0392909216919091179055565b620029338362002a78565b600082511180620029415750805b15620021f4576200244e838362002aba565b6000620029aa826040518060400160405280602081526020017f5361666545524332303a206c6f772d6c6576656c2063616c6c206661696c6564815250856001600160a01b031662002bae9092919063ffffffff16565b805190915015620021f45780806020019051810190620029cb9190620038a5565b620021f45760405162461bcd60e51b815260206004820152602a60248201527f5361666545524332303a204552433230206f7065726174696f6e20646964206e6044820152691bdd081cdd58d8d9595960b21b606482015260840162000a7c565b6101315460ff1662000e775760405162461bcd60e51b815260206004820152601460248201527314185d5cd8589b194e881b9bdd081c185d5cd95960621b604482015260640162000a7c565b62002a838162002889565b6040516001600160a01b038216907fbc7cd75a20ee27fd9adebab32041f755214dbc6bffa90cc0225b39da2e5c2d3b90600090a250565b60606001600160a01b0383163b62002b245760405162461bcd60e51b815260206004820152602660248201527f416464726573733a2064656c65676174652063616c6c20746f206e6f6e2d636f6044820152651b9d1c9858dd60d21b606482015260840162000a7c565b600080846001600160a01b03168460405162002b419190620032b1565b600060405180830381855af49150503d806000811462002b7e576040519150601f19603f3d011682016040523d82523d6000602084013e62002b83565b606091505b509150915062001e488282604051806060016040528060278152602001620052b76027913962002bc7565b606062002bbf848460008562002c05565b949350505050565b6060831562002bd857508162001f58565b82511562002be95782518084602001fd5b8160405162461bcd60e51b815260040162000a7c91906200312c565b60608247101562002c685760405162461bcd60e51b815260206004820152602660248201527f416464726573733a20696e73756666696369656e742062616c616e636520666f6044820152651c8818d85b1b60d21b606482015260840162000a7c565b6001600160a01b0385163b62002cc15760405162461bcd60e51b815260206004820152601d60248201527f416464726573733a2063616c6c20746f206e6f6e2d636f6e7472616374000000604482015260640162000a7c565b600080866001600160a01b0316858760405162002cdf9190620032b1565b60006040518083038185875af1925050503d806000811462002d1e576040519150601f19603f3d011682016040523d82523d6000602084013e62002d23565b606091505b509150915062002d3582828662002bc7565b979650505050505050565b6119d180620038c683390190565b6001600160a01b038116811462000b2257600080fd5b60006020828403121562002d7757600080fd5b813562001f588162002d4e565b634e487b7160e01b600052604160045260246000fd5b600067ffffffffffffffff8084111562002db85762002db862002d84565b604051601f8501601f19908116603f0116810190828211818310171562002de35762002de362002d84565b8160405280935085815286868601111562002dfd57600080fd5b858560208301376000602087830101525050509392505050565b600082601f83011262002e2957600080fd5b62001f588383356020850162002d9a565b6000806040838503121562002e4e57600080fd5b823567ffffffffffffffff81111562002e6657600080fd5b62002e748582860162002e17565b925050602083013562002e878162002d4e565b809150509250929050565b60008060006060848603121562002ea857600080fd5b833567ffffffffffffffff81111562002ec057600080fd5b62002ece8682870162002e17565b935050602084013562002ee18162002d4e565b929592945050506040919091013590565b6000806040838503121562002f0657600080fd5b823562002f138162002d4e565b9150602083013567ffffffffffffffff81111562002f3057600080fd5b8301601f8101851362002f4257600080fd5b62002f538582356020840162002d9a565b9150509250929050565b6000806040838503121562002f7157600080fd5b823562002f7e8162002d4e565b946020939093013593505050565b60008060008060008060c0878903121562002fa657600080fd5b863562002fb38162002d4e565b9550602087013562002fc58162002d4e565b9450604087013562002fd78162002d4e565b9350606087013562002fe98162002d4e565b9598949750929560808101359460a0909101359350915050565b60008060008060008060c087890312156200301d57600080fd5b863567ffffffffffffffff808211156200303657600080fd5b620030448a838b0162002e17565b975060208901359150808211156200305b57600080fd5b620030698a838b0162002e17565b965060408901359150808211156200308057600080fd5b6200308e8a838b0162002e17565b95506060890135915080821115620030a557600080fd5b50620030b489828a0162002e17565b9350506080870135915060a087013590509295509295509295565b60005b83811015620030ec578181015183820152602001620030d2565b838111156200244e5750506000910152565b6000815180845262003118816020860160208601620030cf565b601f01601f19169290920160200192915050565b60208152600062001f586020830184620030fe565b6000602082840312156200315457600080fd5b5035919050565b801515811462000b2257600080fd5b600080604083850312156200317e57600080fd5b82356200318b8162002d4e565b9150602083013562002e87816200315b565b600080600060408486031215620031b357600080fd5b8335620031c08162002d4e565b9250602084013567ffffffffffffffff80821115620031de57600080fd5b818601915086601f830112620031f357600080fd5b8135818111156200320357600080fd5b8760208285010111156200321657600080fd5b6020830194508093505050509250925092565b6000602082840312156200323c57600080fd5b813567ffffffffffffffff8111156200325457600080fd5b62002bbf8482850162002e17565b6000806000606084860312156200327857600080fd5b8335620032858162002d4e565b9250602084013562002ee18162002d4e565b6001600160a01b0392831681529116602082015260400190565b60008251620032c5818460208701620030cf565b9190910192915050565b6020808252602c908201527f46756e6374696f6e206d7573742062652063616c6c6564207468726f7567682060408201526b19195b1959d85d1958d85b1b60a21b606082015260800190565b6020808252602c908201527f46756e6374696f6e206d7573742062652063616c6c6564207468726f7567682060408201526b6163746976652070726f787960a01b606082015260800190565b6020808252601f908201527f5265656e7472616e637947756172643a207265656e7472616e742063616c6c00604082015260600190565b6001600160a01b038316815260406020820181905260009062002bbf90830184620030fe565b600181811c90821680620033d957607f821691505b602082108103620033fa57634e487b7160e01b600052602260045260246000fd5b50919050565b634e487b7160e01b600052601160045260246000fd5b600082198211156200342c576200342c62003400565b500190565b6000826200344f57634e487b7160e01b600052601260045260246000fd5b500490565b6000806000606084860312156200346a57600080fd5b8351925060208401519150604084015190509250925092565b6000602082840312156200349657600080fd5b815162001f588162002d4e565b600060208284031215620034b657600080fd5b5051919050565b601f821115620021f457600081815260208120601f850160051c81016020861015620034e65750805b601f850160051c820191505b818110156200350757828155600101620034f2565b505050505050565b815167ffffffffffffffff8111156200352c576200352c62002d84565b62003544816200353d8454620033c4565b84620034bd565b602080601f8311600181146200357c5760008415620035635750858301515b600019600386901b1c1916600185901b17855562003507565b600085815260208120601f198616915b82811015620035ad578886015182559484019460019091019084016200358c565b5085821015620035cc5787850151600019600388901b60f8161c191681555b5050505050600190811b01905550565b604081526000620035f16040830185620030fe565b90508260208301529392505050565b80516001600160701b038116811462001ae257600080fd5b6000806000606084860312156200362e57600080fd5b620036398462003600565b9250620036496020850162003600565b9150604084015163ffffffff811681146200366357600080fd5b809150509250925092565b60008160001904831182151516156200368b576200368b62003400565b500290565b60208152816020820152818360408301376000818301604090810191909152601f909201601f19160101919050565b6020808252602b908201527f496e697469616c697a61626c653a20636f6e7472616374206973206e6f74206960408201526a6e697469616c697a696e6760a81b606082015260800190565b6001600160a01b038716815260c0602082018190526000906200373090830188620030fe565b8281036040840152620037448188620030fe565b905082810360608401526200375a8187620030fe565b90508281036080840152620037708186620030fe565b9150508260a0830152979650505050505050565b60008083546200379481620033c4565b60018281168015620037af5760018114620037c557620037f6565b60ff1984168752821515830287019450620037f6565b8760005260208060002060005b85811015620037ed5781548a820152908401908201620037d2565b50505082870194505b50929695505050505050565b60018060a01b038316815260006020604081840152600084546200382681620033c4565b80604087015260606001808416600081146200384b5760018114620038665762003896565b60ff1985168984015283151560051b89018301955062003896565b896000528660002060005b858110156200388e5781548b820186015290830190880162003871565b8a0184019650505b50939998505050505050505050565b600060208284031215620038b857600080fd5b815162001f58816200315b56fe60806040523480156200001157600080fd5b50604051620019d1380380620019d18339810160408190526200003491620002e6565b858585600362000045838262000449565b50600462000054828262000449565b5050506200006881620000bd60201b60201c565b50600962000077868262000449565b50600a62000086858262000449565b50600762000095848262000449565b506008620000a4838262000449565b50620000b133826200010f565b5050505050506200053c565b600580546001600160a01b038381166001600160a01b0319831681179093556040519116919082907f8be0079c531659141344cd1fd0a4f28419497f9722a3daafe3b4186f6b6457e090600090a35050565b6001600160a01b0382166200016a5760405162461bcd60e51b815260206004820152601f60248201527f45524332303a206d696e7420746f20746865207a65726f206164647265737300604482015260640160405180910390fd5b80600260008282546200017e919062000515565b90915550506001600160a01b03821660009081526020819052604081208054839290620001ad90849062000515565b90915550506040518181526001600160a01b038316906000907fddf252ad1be2c89b69c2b068fc378daa952ba7f163c4a11628f55a4df523b3ef9060200160405180910390a35050565b505050565b80516001600160a01b03811681146200021457600080fd5b919050565b634e487b7160e01b600052604160045260246000fd5b600082601f8301126200024157600080fd5b81516001600160401b03808211156200025e576200025e62000219565b604051601f8301601f19908116603f0116810190828211818310171562000289576200028962000219565b81604052838152602092508683858801011115620002a657600080fd5b600091505b83821015620002ca5785820183015181830184015290820190620002ab565b83821115620002dc5760008385830101525b9695505050505050565b60008060008060008060c087890312156200030057600080fd5b6200030b87620001fc565b60208801519096506001600160401b03808211156200032957600080fd5b620003378a838b016200022f565b965060408901519150808211156200034e57600080fd5b6200035c8a838b016200022f565b955060608901519150808211156200037357600080fd5b620003818a838b016200022f565b945060808901519150808211156200039857600080fd5b50620003a789828a016200022f565b92505060a087015190509295509295509295565b600181811c90821680620003d057607f821691505b602082108103620003f157634e487b7160e01b600052602260045260246000fd5b50919050565b601f821115620001f757600081815260208120601f850160051c81016020861015620004205750805b601f850160051c820191505b8181101562000441578281556001016200042c565b505050505050565b81516001600160401b0381111562000465576200046562000219565b6200047d81620004768454620003bb565b84620003f7565b602080601f831160018114620004b557600084156200049c5750858301515b600019600386901b1c1916600185901b17855562000441565b600085815260208120601f198616915b82811015620004e657888601518255948401946001909101908401620004c5565b5085821015620005055787850151600019600388901b60f8161c191681555b5050505050600190811b01905550565b600082198211156200053757634e487b7160e01b600052601160045260246000fd5b500190565b611485806200054c6000396000f3fe608060405234801561001057600080fd5b50600436106101735760003560e01c8063715018a6116100de578063b242e53411610097578063c5ac5e3e11610071578063c5ac5e3e1461031b578063d7c81b551461032e578063dd62ed3e14610336578063e30c39781461034957600080fd5b8063b242e534146102e2578063b84c8246146102f5578063c47f00271461030857600080fd5b8063715018a61461027457806379cc67901461027c5780638da5cb5b1461028f57806395d89b41146102b4578063a457c2d7146102bc578063a9059cbb146102cf57600080fd5b8063313ce56711610130578063313ce567146101fb578063395093511461020a57806340c10f191461021d57806342966c68146102305780634e71e0c81461024357806370a082311461024b57600080fd5b806306fdde0314610178578063095ea7b31461019657806318160ddd146101b957806323b872dd146101cb57806325371063146101de5780632854537e146101e6575b600080fd5b61018061035a565b60405161018d9190610fb5565b60405180910390f35b6101a96101a4366004610feb565b6103ec565b604051901515815260200161018d565b6002545b60405190815260200161018d565b6101a96101d9366004611015565b610404565b610180610428565b6101f96101f4366004611051565b610437565b005b6040516012815260200161018d565b6101a9610218366004610feb565b610520565b6101f961022b366004610feb565b610542565b6101f961023e3660046110c3565b610558565b6101f9610565565b6101bd6102593660046110dc565b6001600160a01b031660009081526020819052604090205490565b6101f961059a565b6101f961028a366004610feb565b6105ac565b6005546001600160a01b03165b6040516001600160a01b03909116815260200161018d565b6101806105c1565b6101a96102ca366004610feb565b6105d0565b6101a96102dd366004610feb565b610650565b6101f96102f03660046110f7565b61065e565b6101f9610303366004611051565b6106bb565b6101f9610316366004611051565b610797565b6101f9610329366004611149565b610873565b6101806108b1565b6101bd610344366004611214565b6108c0565b6006546001600160a01b031661029c565b60606009805461036990611247565b80601f016020809104026020016040519081016040528092919081815260200182805461039590611247565b80156103e25780601f106103b7576101008083540402835291602001916103e2565b820191906000526020600020905b8154815290600101906020018083116103c557829003601f168201915b5050505050905090565b6000336103fa8185856108eb565b5060019392505050565b600033610412858285610a10565b61041d858585610a8a565b506001949350505050565b60606008805461036990611247565b61043f610c58565b60006008805461044e90611247565b80601f016020809104026020016040519081016040528092919081815260200182805461047a90611247565b80156104c75780601f1061049c576101008083540402835291602001916104c7565b820191906000526020600020905b8154815290600101906020018083116104aa57829003601f168201915b505050505090508282600891826104df9291906112cf565b507fb0203171c699d032458efd294a90f4ec63b639bd5826ea48121021649e1c7cac81848460405161051393929190611390565b60405180910390a1505050565b6000336103fa81858561053383836108c0565b61053d91906113ec565b6108eb565b61054a610c58565b6105548282610c83565b5050565b6105623382610d62565b50565b6006546001600160a01b0316331461059057604051639d7b369d60e01b815260040160405180910390fd5b610598610ead565b565b6105a2610c58565b6105986000610f16565b6105b7823383610a10565b6105548282610d62565b6060600a805461036990611247565b600033816105de82866108c0565b9050838110156106435760405162461bcd60e51b815260206004820152602560248201527f45524332303a2064656372656173656420616c6c6f77616e63652062656c6f77604482015264207a65726f60d81b60648201526084015b60405180910390fd5b61041d82868684036108eb565b6000336103fa818585610a8a565b610666610c58565b6001600160a01b03821661068d57604051630ae8f22360e21b815260040160405180910390fd5b801561069c5761055482610f16565b600680546001600160a01b0319166001600160a01b0384161790555050565b6106c3610c58565b6000600a80546106d290611247565b80601f01602080910402602001604051908101604052809291908181526020018280546106fe90611247565b801561074b5780601f106107205761010080835404028352916020019161074b565b820191906000526020600020905b81548152906001019060200180831161072e57829003601f168201915b505050505090508282600a91826107639291906112cf565b507fe539f7c7cd6b523196945e98454143f55e93314cc40672ad65628a7df42d483f81848460405161051393929190611390565b61079f610c58565b6000600980546107ae90611247565b80601f01602080910402602001604051908101604052809291908181526020018280546107da90611247565b80156108275780601f106107fc57610100808354040283529160200191610827565b820191906000526020600020905b81548152906001019060200180831161080a57829003601f168201915b5050505050905082826009918261083f9291906112cf565b507ff19e969be7affb98a1d812094e0f24ecca36f1eabd6dd592c97020d47c64a00e81848460405161051393929190611390565b61087d8382610650565b507f0685266a580e960b24e8250625c91771b26ecea1913010a819fee0661a45dac883838360405161051393929190611404565b60606007805461036990611247565b6001600160a01b03918216600090815260016020908152604080832093909416825291909152205490565b6001600160a01b03831661094d5760405162461bcd60e51b8152602060048201526024808201527f45524332303a20617070726f76652066726f6d20746865207a65726f206164646044820152637265737360e01b606482015260840161063a565b6001600160a01b0382166109ae5760405162461bcd60e51b815260206004820152602260248201527f45524332303a20617070726f766520746f20746865207a65726f206164647265604482015261737360f01b606482015260840161063a565b6001600160a01b0383811660008181526001602090815260408083209487168084529482529182902085905590518481527f8c5be1e5ebec7d5bd14f71427d1e84f3dd0314c0f7b2291e5b200ac8c7c3b92591015b60405180910390a3505050565b6000610a1c84846108c0565b90506000198114610a845781811015610a775760405162461bcd60e51b815260206004820152601d60248201527f45524332303a20696e73756666696369656e7420616c6c6f77616e6365000000604482015260640161063a565b610a8484848484036108eb565b50505050565b6001600160a01b038316610aee5760405162461bcd60e51b815260206004820152602560248201527f45524332303a207472616e736665722066726f6d20746865207a65726f206164604482015264647265737360d81b606482015260840161063a565b6001600160a01b038216610b505760405162461bcd60e51b815260206004820152602360248201527f45524332303a207472616e7366657220746f20746865207a65726f206164647260448201526265737360e81b606482015260840161063a565b6001600160a01b03831660009081526020819052604090205481811015610bc85760405162461bcd60e51b815260206004820152602660248201527f45524332303a207472616e7366657220616d6f756e7420657863656564732062604482015265616c616e636560d01b606482015260840161063a565b6001600160a01b03808516600090815260208190526040808220858503905591851681529081208054849290610bff9084906113ec565b92505081905550826001600160a01b0316846001600160a01b03167fddf252ad1be2c89b69c2b068fc378daa952ba7f163c4a11628f55a4df523b3ef84604051610c4b91815260200190565b60405180910390a3610a84565b6005546001600160a01b0316331461059857604051639d7b369d60e01b815260040160405180910390fd5b6001600160a01b038216610cd95760405162461bcd60e51b815260206004820152601f60248201527f45524332303a206d696e7420746f20746865207a65726f206164647265737300604482015260640161063a565b8060026000828254610ceb91906113ec565b90915550506001600160a01b03821660009081526020819052604081208054839290610d189084906113ec565b90915550506040518181526001600160a01b038316906000907fddf252ad1be2c89b69c2b068fc378daa952ba7f163c4a11628f55a4df523b3ef9060200160405180910390a35050565b6001600160a01b038216610dc25760405162461bcd60e51b815260206004820152602160248201527f45524332303a206275726e2066726f6d20746865207a65726f206164647265736044820152607360f81b606482015260840161063a565b6001600160a01b03821660009081526020819052604090205481811015610e365760405162461bcd60e51b815260206004820152602260248201527f45524332303a206275726e20616d6f756e7420657863656564732062616c616e604482015261636560f01b606482015260840161063a565b6001600160a01b0383166000908152602081905260408120838303905560028054849290610e65908490611438565b90915550506040518281526000906001600160a01b038516907fddf252ad1be2c89b69c2b068fc378daa952ba7f163c4a11628f55a4df523b3ef90602001610a03565b505050565b6005546006546040516001600160a01b03928316929091169082907f8be0079c531659141344cd1fd0a4f28419497f9722a3daafe3b4186f6b6457e090600090a35060068054600580546001600160a01b03199081166001600160a01b03841617909155169055565b600580546001600160a01b038381166001600160a01b0319831681179093556040519116919082907f8be0079c531659141344cd1fd0a4f28419497f9722a3daafe3b4186f6b6457e090600090a35050565b6000815180845260005b81811015610f8e57602081850181015186830182015201610f72565b81811115610fa0576000602083870101525b50601f01601f19169290920160200192915050565b602081526000610fc86020830184610f68565b9392505050565b80356001600160a01b0381168114610fe657600080fd5b919050565b60008060408385031215610ffe57600080fd5b61100783610fcf565b946020939093013593505050565b60008060006060848603121561102a57600080fd5b61103384610fcf565b925061104160208501610fcf565b9150604084013590509250925092565b6000806020838503121561106457600080fd5b823567ffffffffffffffff8082111561107c57600080fd5b818501915085601f83011261109057600080fd5b81358181111561109f57600080fd5b8660208285010111156110b157600080fd5b60209290920196919550909350505050565b6000602082840312156110d557600080fd5b5035919050565b6000602082840312156110ee57600080fd5b610fc882610fcf565b6000806040838503121561110a57600080fd5b61111383610fcf565b91506020830135801515811461112857600080fd5b809150509250929050565b634e487b7160e01b600052604160045260246000fd5b60008060006060848603121561115e57600080fd5b61116784610fcf565b9250602084013567ffffffffffffffff8082111561118457600080fd5b818601915086601f83011261119857600080fd5b8135818111156111aa576111aa611133565b604051601f8201601f19908116603f011681019083821181831017156111d2576111d2611133565b816040528281528960208487010111156111eb57600080fd5b826020860160208301376000602084830101528096505050505050604084013590509250925092565b6000806040838503121561122757600080fd5b61123083610fcf565b915061123e60208401610fcf565b90509250929050565b600181811c9082168061125b57607f821691505b60208210810361127b57634e487b7160e01b600052602260045260246000fd5b50919050565b601f821115610ea857600081815260208120601f850160051c810160208610156112a85750805b601f850160051c820191505b818110156112c7578281556001016112b4565b505050505050565b67ffffffffffffffff8311156112e7576112e7611133565b6112fb836112f58354611247565b83611281565b6000601f84116001811461132f57600085156113175750838201355b600019600387901b1c1916600186901b178355611389565b600083815260209020601f19861690835b828110156113605786850135825560209485019460019092019101611340565b508682101561137d5760001960f88860031b161c19848701351681555b505060018560011b0183555b5050505050565b6040815260006113a36040830186610f68565b8281036020840152838152838560208301376000602085830101526020601f19601f860116820101915050949350505050565b634e487b7160e01b600052601160045260246000fd5b600082198211156113ff576113ff6113d6565b500190565b6001600160a01b038416815260606020820181905260009061142890830185610f68565b9050826040830152949350505050565b60008282101561144a5761144a6113d6565b50039056fea2646970667358221220df59bb4dcf8a8b3d22997a9b392fdc7ce9809bc8577e2a94ba1b2bdf0d8f6a1764736f6c634300080f0033360894a13ba1a3210667c828492db98dca3e2076cc3735a920a3ca505d382bbc416464726573733a206c6f772d6c6576656c2064656c65676174652063616c6c206661696c6564a2646970667358221220fd92cbbe0e5e0b030ae7b9247d62809d8413d9a5005d5412d07d04d6eee9571764736f6c634300080f0033",
  "devdoc": {
    "kind": "dev",
    "methods": {
      "claimOwnership()": {
        "details": "pending owner call this function to claim ownership"
      },
      "create(string,string,string,string,uint256,uint256)": {
        "details": "developer first create their game coin",
        "params": {
          "amountGameCoin": "how many coin first mint",
          "amountP12": "how many P12 coin developer would stake",
          "gameCoinIconUrl": "game coin icon's url",
          "gameId": "the game's id",
          "name": "new game coin's name",
          "symbol": "game coin's symbol"
        },
        "returns": {
          "gameCoinAddress": "the address of the new game coin"
        }
      },
      "executeMintCoin(address,bytes32)": {
        "details": "when time is up, anyone can call this function to make the mint executed",
        "params": {
          "gameCoinAddress": "address of the game coin",
          "mintId": "a unique id to identify a mint, developer can get it after declare"
        },
        "returns": {
          "_0": "bool whether the operation success"
        }
      },
      "getMintDelay(address,uint256)": {
        "details": "linear function to calculate the delay timedelayB is the minimum delay period, even someone mint zero token,there still be delayB period before someone can really mint zero tokendelayK is the parameter to take the ratio of new amount in to accountFor example, the initial supply of Game Coin is 100k. If developer wantto mint 100k, developer needs to real mint it after `delayK + delayB`. Ifdeveloper want to mint 200k, developer has to real mint it after `2DelayK +delayB`. ^ t +            / |          / |        / 2k+b|      / |    / k+b|  /  |/  b| 0----p---2p---------> amount"
      },
      "getMintFee(address,uint256)": {
        "details": "calculate the MintFee in P12"
      },
      "owner()": {
        "details": "Returns the address of the current owner."
      },
      "paused()": {
        "details": "Returns true if the contract is paused, and false otherwise."
      },
      "pendingOwner()": {
        "details": "Return the address of the pending owner"
      },
      "proxiableUUID()": {
        "details": "Implementation of the ERC1822 {proxiableUUID} function. This returns the storage slot used by the implementation. It is used to validate that the this implementation remains valid after an upgrade. IMPORTANT: A proxy pointing at a proxiable contract should not be considered proxiable itself, because this risks bricking a proxy that upgrades to it, by delegating to itself until out of gas. Thus it is critical that this function revert if invoked through a proxy. This is guaranteed by the `notDelegated` modifier."
      },
      "queueMintCoin(string,address,uint256)": {
        "details": "if developer want to mint after create coin, developer must declare first",
        "params": {
          "amountGameCoin": "how many developer want to mint",
          "gameCoinAddress": "game coin's address",
          "gameId": "game's id",
          "success": "whether the operation success"
        }
      },
      "register(string,address)": {
        "details": "create binding between game and developer, only called by p12 backend",
        "params": {
          "developer": "developer address, who own this game",
          "gameId": "game id"
        }
      },
      "renounceOwnership()": {
        "details": "Leaves the contract without owner. It will not be possible to call `onlyOwner` functions anymore. Can only be called by the current owner. NOTE: Renouncing ownership will leave the contract without an owner, thereby removing any functionality that is only available to the owner."
      },
      "setDelayB(uint256)": {
        "details": "set linear function's B parameter",
        "params": {
          "newDelayB": "new B parameter"
        }
      },
      "setDelayK(uint256)": {
        "details": "set linear function's K parameter",
        "params": {
          "newDelayK": "new K parameter"
        }
      },
      "setDev(address)": {
        "details": "set dev address",
        "params": {
          "newDev": "new dev address"
        }
      },
      "setGaugeController(address)": {
        "details": "set gaugeController contract address",
        "params": {
          "newGaugeController": "new gaugeController address"
        }
      },
      "setP12Mine(address)": {
        "details": "set p12mine contract address",
        "params": {
          "newP12Mine": "new p12mine address"
        }
      },
      "setP12Token(address)": {
        "details": "set p12Token address reserved only during development",
        "params": {
          "newP12Token": "new p12Token address"
        }
      },
      "setUniswapFactory(address)": {
        "details": "set uniswapFactory address reserved only during development",
        "params": {
          "newUniswapFactory": "new UniswapFactory address"
        }
      },
      "setUniswapRouter(address)": {
        "details": "set uniswapRouter address reserved only during development",
        "params": {
          "newUniswapRouter": "new uniswapRouter address"
        }
      },
      "transferOwnership(address,bool)": {
        "details": "Transfers ownership of the contract to a new account (`newOwner`). Can only be called by the current owner. Note If direct is false, it will set an pending owner and the OwnerShipTransferring only happens when the pending owner claim the ownership"
      },
      "upgradeTo(address)": {
        "details": "Upgrade the implementation of the proxy to `newImplementation`. Calls {_authorizeUpgrade}. Emits an {Upgraded} event."
      },
      "upgradeToAndCall(address,bytes)": {
        "details": "Upgrade the implementation of the proxy to `newImplementation`, and subsequently execute the function call encoded in `data`. Calls {_authorizeUpgrade}. Emits an {Upgraded} event."
      },
      "withdraw(address,address,uint256)": {
        "params": {
          "amountGameCoin": "how many user want to withdraw",
          "gameCoinAddress": "gameCoin's address",
          "userAddress": "user's address"
        }
      }
    },
    "version": 1
  },
  "userdoc": {
    "kind": "user",
    "methods": {
      "withdraw(address,address,uint256)": {
        "notice": "called when user want to withdraw his game coin from custodian address"
      }
    },
    "version": 1
  },
  "storageLayout": {
    "storage": [
      {
        "astId": 9254,
        "contract": "contracts/coinFactory/P12CoinFactoryUpgradeable.sol:P12CoinFactoryUpgradeable",
        "label": "p12",
        "offset": 0,
        "slot": "0",
        "type": "t_address"
      },
      {
        "astId": 9258,
        "contract": "contracts/coinFactory/P12CoinFactoryUpgradeable.sol:P12CoinFactoryUpgradeable",
        "label": "uniswapRouter",
        "offset": 0,
        "slot": "1",
        "type": "t_contract(IUniswapV2Router02)8105"
      },
      {
        "astId": 9262,
        "contract": "contracts/coinFactory/P12CoinFactoryUpgradeable.sol:P12CoinFactoryUpgradeable",
        "label": "uniswapFactory",
        "offset": 0,
        "slot": "2",
        "type": "t_contract(IUniswapV2Factory)7467"
      },
      {
        "astId": 9265,
        "contract": "contracts/coinFactory/P12CoinFactoryUpgradeable.sol:P12CoinFactoryUpgradeable",
        "label": "delayK",
        "offset": 0,
        "slot": "3",
        "type": "t_uint256"
      },
      {
        "astId": 9267,
        "contract": "contracts/coinFactory/P12CoinFactoryUpgradeable.sol:P12CoinFactoryUpgradeable",
        "label": "delayB",
        "offset": 0,
        "slot": "4",
        "type": "t_uint256"
      },
      {
        "astId": 9270,
        "contract": "contracts/coinFactory/P12CoinFactoryUpgradeable.sol:P12CoinFactoryUpgradeable",
        "label": "_initHash",
        "offset": 0,
        "slot": "5",
        "type": "t_bytes32"
      },
      {
        "astId": 9272,
        "contract": "contracts/coinFactory/P12CoinFactoryUpgradeable.sol:P12CoinFactoryUpgradeable",
        "label": "addLiquidityEffectiveTime",
        "offset": 0,
        "slot": "6",
        "type": "t_uint256"
      },
      {
        "astId": 9276,
        "contract": "contracts/coinFactory/P12CoinFactoryUpgradeable.sol:P12CoinFactoryUpgradeable",
        "label": "p12Mine",
        "offset": 0,
        "slot": "7",
        "type": "t_contract(IP12MineUpgradeable)17683"
      },
      {
        "astId": 9278,
        "contract": "contracts/coinFactory/P12CoinFactoryUpgradeable.sol:P12CoinFactoryUpgradeable",
        "label": "dev",
        "offset": 0,
        "slot": "8",
        "type": "t_address"
      },
      {
        "astId": 9281,
        "contract": "contracts/coinFactory/P12CoinFactoryUpgradeable.sol:P12CoinFactoryUpgradeable",
        "label": "gaugeController",
        "offset": 0,
        "slot": "9",
        "type": "t_contract(IGaugeController)17421"
      },
      {
        "astId": 9285,
        "contract": "contracts/coinFactory/P12CoinFactoryUpgradeable.sol:P12CoinFactoryUpgradeable",
        "label": "__gap",
        "offset": 0,
        "slot": "10",
        "type": "t_array(t_uint256)40_storage"
      },
      {
        "astId": 9289,
        "contract": "contracts/coinFactory/P12CoinFactoryUpgradeable.sol:P12CoinFactoryUpgradeable",
        "label": "allGames",
        "offset": 0,
        "slot": "50",
        "type": "t_mapping(t_string_memory_ptr,t_address)"
      },
      {
        "astId": 9294,
        "contract": "contracts/coinFactory/P12CoinFactoryUpgradeable.sol:P12CoinFactoryUpgradeable",
        "label": "allGameCoins",
        "offset": 0,
        "slot": "51",
        "type": "t_mapping(t_contract(IP12GameCoin)11183,t_string_storage)"
      },
      {
        "astId": 9302,
        "contract": "contracts/coinFactory/P12CoinFactoryUpgradeable.sol:P12CoinFactoryUpgradeable",
        "label": "coinMintRecords",
        "offset": 0,
        "slot": "52",
        "type": "t_mapping(t_contract(IP12GameCoin)11183,t_mapping(t_bytes32,t_struct(MintCoinInfo)9314_storage))"
      },
      {
        "astId": 9307,
        "contract": "contracts/coinFactory/P12CoinFactoryUpgradeable.sol:P12CoinFactoryUpgradeable",
        "label": "preMintIds",
        "offset": 0,
        "slot": "53",
        "type": "t_mapping(t_contract(IP12GameCoin)11183,t_bytes32)"
      },
      {
        "astId": 395,
        "contract": "contracts/coinFactory/P12CoinFactoryUpgradeable.sol:P12CoinFactoryUpgradeable",
        "label": "_initialized",
        "offset": 0,
        "slot": "54",
        "type": "t_uint8"
      },
      {
        "astId": 398,
        "contract": "contracts/coinFactory/P12CoinFactoryUpgradeable.sol:P12CoinFactoryUpgradeable",
        "label": "_initializing",
        "offset": 1,
        "slot": "54",
        "type": "t_bool"
      },
      {
        "astId": 1540,
        "contract": "contracts/coinFactory/P12CoinFactoryUpgradeable.sol:P12CoinFactoryUpgradeable",
        "label": "__gap",
        "offset": 0,
        "slot": "55",
        "type": "t_array(t_uint256)50_storage"
      },
      {
        "astId": 377,
        "contract": "contracts/coinFactory/P12CoinFactoryUpgradeable.sol:P12CoinFactoryUpgradeable",
        "label": "__gap",
        "offset": 0,
        "slot": "105",
        "type": "t_array(t_uint256)50_storage"
      },
      {
        "astId": 674,
        "contract": "contracts/coinFactory/P12CoinFactoryUpgradeable.sol:P12CoinFactoryUpgradeable",
        "label": "__gap",
        "offset": 0,
        "slot": "155",
        "type": "t_array(t_uint256)50_storage"
      },
      {
        "astId": 8312,
        "contract": "contracts/coinFactory/P12CoinFactoryUpgradeable.sol:P12CoinFactoryUpgradeable",
        "label": "_owner",
        "offset": 0,
        "slot": "205",
        "type": "t_address"
      },
      {
        "astId": 8314,
        "contract": "contracts/coinFactory/P12CoinFactoryUpgradeable.sol:P12CoinFactoryUpgradeable",
        "label": "_pendingOwner",
        "offset": 0,
        "slot": "206",
        "type": "t_address"
      },
      {
        "astId": 8516,
        "contract": "contracts/coinFactory/P12CoinFactoryUpgradeable.sol:P12CoinFactoryUpgradeable",
        "label": "__gap",
        "offset": 0,
        "slot": "207",
        "type": "t_array(t_uint256)48_storage"
      },
      {
        "astId": 816,
        "contract": "contracts/coinFactory/P12CoinFactoryUpgradeable.sol:P12CoinFactoryUpgradeable",
        "label": "_status",
        "offset": 0,
        "slot": "255",
        "type": "t_uint256"
      },
      {
        "astId": 860,
        "contract": "contracts/coinFactory/P12CoinFactoryUpgradeable.sol:P12CoinFactoryUpgradeable",
        "label": "__gap",
        "offset": 0,
        "slot": "256",
        "type": "t_array(t_uint256)49_storage"
      },
      {
        "astId": 696,
        "contract": "contracts/coinFactory/P12CoinFactoryUpgradeable.sol:P12CoinFactoryUpgradeable",
        "label": "_paused",
        "offset": 0,
        "slot": "305",
        "type": "t_bool"
      },
      {
        "astId": 801,
        "contract": "contracts/coinFactory/P12CoinFactoryUpgradeable.sol:P12CoinFactoryUpgradeable",
        "label": "__gap",
        "offset": 0,
        "slot": "306",
        "type": "t_array(t_uint256)49_storage"
      }
    ],
    "types": {
      "t_address": {
        "encoding": "inplace",
        "label": "address",
        "numberOfBytes": "20"
      },
      "t_array(t_uint256)40_storage": {
        "base": "t_uint256",
        "encoding": "inplace",
        "label": "uint256[40]",
        "numberOfBytes": "1280"
      },
      "t_array(t_uint256)48_storage": {
        "base": "t_uint256",
        "encoding": "inplace",
        "label": "uint256[48]",
        "numberOfBytes": "1536"
      },
      "t_array(t_uint256)49_storage": {
        "base": "t_uint256",
        "encoding": "inplace",
        "label": "uint256[49]",
        "numberOfBytes": "1568"
      },
      "t_array(t_uint256)50_storage": {
        "base": "t_uint256",
        "encoding": "inplace",
        "label": "uint256[50]",
        "numberOfBytes": "1600"
      },
      "t_bool": {
        "encoding": "inplace",
        "label": "bool",
        "numberOfBytes": "1"
      },
      "t_bytes32": {
        "encoding": "inplace",
        "label": "bytes32",
        "numberOfBytes": "32"
      },
      "t_contract(IGaugeController)17421": {
        "encoding": "inplace",
        "label": "contract IGaugeController",
        "numberOfBytes": "20"
      },
      "t_contract(IP12GameCoin)11183": {
        "encoding": "inplace",
        "label": "contract IP12GameCoin",
        "numberOfBytes": "20"
      },
      "t_contract(IP12MineUpgradeable)17683": {
        "encoding": "inplace",
        "label": "contract IP12MineUpgradeable",
        "numberOfBytes": "20"
      },
      "t_contract(IUniswapV2Factory)7467": {
        "encoding": "inplace",
        "label": "contract IUniswapV2Factory",
        "numberOfBytes": "20"
      },
      "t_contract(IUniswapV2Router02)8105": {
        "encoding": "inplace",
        "label": "contract IUniswapV2Router02",
        "numberOfBytes": "20"
      },
      "t_mapping(t_bytes32,t_struct(MintCoinInfo)9314_storage)": {
        "encoding": "mapping",
        "key": "t_bytes32",
        "label": "mapping(bytes32 => struct P12CoinFactoryStorage.MintCoinInfo)",
        "numberOfBytes": "32",
        "value": "t_struct(MintCoinInfo)9314_storage"
      },
      "t_mapping(t_contract(IP12GameCoin)11183,t_bytes32)": {
        "encoding": "mapping",
        "key": "t_contract(IP12GameCoin)11183",
        "label": "mapping(contract IP12GameCoin => bytes32)",
        "numberOfBytes": "32",
        "value": "t_bytes32"
      },
      "t_mapping(t_contract(IP12GameCoin)11183,t_mapping(t_bytes32,t_struct(MintCoinInfo)9314_storage))": {
        "encoding": "mapping",
        "key": "t_contract(IP12GameCoin)11183",
        "label": "mapping(contract IP12GameCoin => mapping(bytes32 => struct P12CoinFactoryStorage.MintCoinInfo))",
        "numberOfBytes": "32",
        "value": "t_mapping(t_bytes32,t_struct(MintCoinInfo)9314_storage)"
      },
      "t_mapping(t_contract(IP12GameCoin)11183,t_string_storage)": {
        "encoding": "mapping",
        "key": "t_contract(IP12GameCoin)11183",
        "label": "mapping(contract IP12GameCoin => string)",
        "numberOfBytes": "32",
        "value": "t_string_storage"
      },
      "t_mapping(t_string_memory_ptr,t_address)": {
        "encoding": "mapping",
        "key": "t_string_memory_ptr",
        "label": "mapping(string => address)",
        "numberOfBytes": "32",
        "value": "t_address"
      },
      "t_string_memory_ptr": {
        "encoding": "bytes",
        "label": "string",
        "numberOfBytes": "32"
      },
      "t_string_storage": {
        "encoding": "bytes",
        "label": "string",
        "numberOfBytes": "32"
      },
      "t_struct(MintCoinInfo)9314_storage": {
        "encoding": "inplace",
        "label": "struct P12CoinFactoryStorage.MintCoinInfo",
        "members": [
          {
            "astId": 9309,
            "contract": "contracts/coinFactory/P12CoinFactoryUpgradeable.sol:P12CoinFactoryUpgradeable",
            "label": "amount",
            "offset": 0,
            "slot": "0",
            "type": "t_uint256"
          },
          {
            "astId": 9311,
            "contract": "contracts/coinFactory/P12CoinFactoryUpgradeable.sol:P12CoinFactoryUpgradeable",
            "label": "unlockTimestamp",
            "offset": 0,
            "slot": "1",
            "type": "t_uint256"
          },
          {
            "astId": 9313,
            "contract": "contracts/coinFactory/P12CoinFactoryUpgradeable.sol:P12CoinFactoryUpgradeable",
            "label": "executed",
            "offset": 0,
            "slot": "2",
            "type": "t_bool"
          }
        ],
        "numberOfBytes": "96"
      },
      "t_uint256": {
        "encoding": "inplace",
        "label": "uint256",
        "numberOfBytes": "32"
      },
      "t_uint8": {
        "encoding": "inplace",
        "label": "uint8",
        "numberOfBytes": "1"
      }
    }
  }
}