{
  "address": "0x3242Aa36eBfd0562fae99CEE61AE88b5a60B5fcf",
  "abi": [
    {
      "inputs": [],
      "name": "AlreadyWithdrawn",
      "type": "error"
    },
    {
      "inputs": [],
      "name": "EmergencyAlreadySet",
      "type": "error"
    },
    {
      "inputs": [],
      "name": "EmergencyUnlockYet",
      "type": "error"
    },
    {
      "inputs": [
        {
          "internalType": "uint256",
          "name": "amount",
          "type": "uint256"
        }
      ],
      "name": "InvalidLpAmount",
      "type": "error"
    },
    {
      "inputs": [],
      "name": "LpTokenExist",
      "type": "error"
    },
    {
      "inputs": [],
      "name": "LpTokenNotExist",
      "type": "error"
    },
    {
      "inputs": [],
      "name": "NoEmergencyNow",
      "type": "error"
    },
    {
      "inputs": [],
      "name": "NoPermission",
      "type": "error"
    },
    {
      "inputs": [],
      "name": "NotStakeTokenYet",
      "type": "error"
    },
    {
      "inputs": [],
      "name": "TooEarlyToCheck",
      "type": "error"
    },
    {
      "inputs": [],
      "name": "TooEarlyToWithdrawn",
      "type": "error"
    },
    {
      "inputs": [
        {
          "internalType": "uint256",
          "name": "max",
          "type": "uint256"
        },
        {
          "internalType": "uint256",
          "name": "request",
          "type": "uint256"
        }
      ],
      "name": "WithDrawTooMuch",
      "type": "error"
    },
    {
      "inputs": [],
      "name": "ZeroAddressSet",
      "type": "error"
    },
    {
      "inputs": [],
      "name": "ZeroUintSet",
      "type": "error"
    },
    {
      "anonymous": false,
      "inputs": [
        {
          "indexed": false,
          "internalType": "address",
          "name": "previousAdmin",
          "type": "address"
        },
        {
          "indexed": false,
          "internalType": "address",
          "name": "newAdmin",
          "type": "address"
        }
      ],
      "name": "AdminChanged",
      "type": "event"
    },
    {
      "anonymous": false,
      "inputs": [
        {
          "indexed": true,
          "internalType": "address",
          "name": "beacon",
          "type": "address"
        }
      ],
      "name": "BeaconUpgraded",
      "type": "event"
    },
    {
      "anonymous": false,
      "inputs": [
        {
          "indexed": true,
          "internalType": "address",
          "name": "lpToken",
          "type": "address"
        },
        {
          "indexed": true,
          "internalType": "uint256",
          "name": "poolAmount",
          "type": "uint256"
        },
        {
          "indexed": false,
          "internalType": "uint256",
          "name": "accP12PerShare",
          "type": "uint256"
        }
      ],
      "name": "Checkpoint",
      "type": "event"
    },
    {
      "anonymous": false,
      "inputs": [
        {
          "indexed": true,
          "internalType": "address",
          "name": "user",
          "type": "address"
        },
        {
          "indexed": false,
          "internalType": "uint256",
          "name": "amount",
          "type": "uint256"
        },
        {
          "indexed": false,
          "internalType": "address",
          "name": "lpToken",
          "type": "address"
        }
      ],
      "name": "Claim",
      "type": "event"
    },
    {
      "anonymous": false,
      "inputs": [
        {
          "indexed": true,
          "internalType": "address",
          "name": "user",
          "type": "address"
        },
        {
          "indexed": true,
          "internalType": "uint256",
          "name": "pid",
          "type": "uint256"
        },
        {
          "indexed": false,
          "internalType": "uint256",
          "name": "amount",
          "type": "uint256"
        },
        {
          "indexed": false,
          "internalType": "uint256",
          "name": "userAmount",
          "type": "uint256"
        },
        {
          "indexed": false,
          "internalType": "uint256",
          "name": "poolAmount",
          "type": "uint256"
        }
      ],
      "name": "Deposit",
      "type": "event"
    },
    {
      "anonymous": false,
      "inputs": [
        {
          "indexed": false,
          "internalType": "address",
          "name": "executor",
          "type": "address"
        },
        {
          "indexed": false,
          "internalType": "uint256",
          "name": "emergencyUnlockTime",
          "type": "uint256"
        }
      ],
      "name": "Emergency",
      "type": "event"
    },
    {
      "anonymous": false,
      "inputs": [
        {
          "indexed": true,
          "internalType": "address",
          "name": "user",
          "type": "address"
        },
        {
          "indexed": true,
          "internalType": "uint256",
          "name": "pid",
          "type": "uint256"
        },
        {
          "indexed": true,
          "internalType": "bytes32",
          "name": "withdrawId",
          "type": "bytes32"
        },
        {
          "indexed": false,
          "internalType": "uint256",
          "name": "amount",
          "type": "uint256"
        },
        {
          "indexed": false,
          "internalType": "uint256",
          "name": "userAmount",
          "type": "uint256"
        },
        {
          "indexed": false,
          "internalType": "uint256",
          "name": "poolAmount",
          "type": "uint256"
        }
      ],
      "name": "ExecuteWithdraw",
      "type": "event"
    },
    {
      "anonymous": false,
      "inputs": [
        {
          "indexed": false,
          "internalType": "uint8",
          "name": "version",
          "type": "uint8"
        }
      ],
      "name": "Initialized",
      "type": "event"
    },
    {
      "anonymous": false,
      "inputs": [
        {
          "indexed": true,
          "internalType": "address",
          "name": "previousOwner",
          "type": "address"
        },
        {
          "indexed": true,
          "internalType": "address",
          "name": "newOwner",
          "type": "address"
        }
      ],
      "name": "OwnershipTransferred",
      "type": "event"
    },
    {
      "anonymous": false,
      "inputs": [
        {
          "indexed": false,
          "internalType": "address",
          "name": "account",
          "type": "address"
        }
      ],
      "name": "Paused",
      "type": "event"
    },
    {
      "anonymous": false,
      "inputs": [
        {
          "indexed": true,
          "internalType": "address",
          "name": "user",
          "type": "address"
        },
        {
          "indexed": false,
          "internalType": "uint256",
          "name": "pid",
          "type": "uint256"
        },
        {
          "indexed": true,
          "internalType": "uint256",
          "name": "amount",
          "type": "uint256"
        },
        {
          "indexed": true,
          "internalType": "bytes32",
          "name": "newWithdrawId",
          "type": "bytes32"
        },
        {
          "indexed": false,
          "internalType": "uint256",
          "name": "unlockTimestamp",
          "type": "uint256"
        }
      ],
      "name": "QueueWithdraw",
      "type": "event"
    },
    {
      "anonymous": false,
      "inputs": [
        {
          "indexed": false,
          "internalType": "uint256",
          "name": "oldDelayB",
          "type": "uint256"
        },
        {
          "indexed": false,
          "internalType": "uint256",
          "name": "newDelayB",
          "type": "uint256"
        }
      ],
      "name": "SetDelayB",
      "type": "event"
    },
    {
      "anonymous": false,
      "inputs": [
        {
          "indexed": false,
          "internalType": "uint256",
          "name": "oldDelayK",
          "type": "uint256"
        },
        {
          "indexed": false,
          "internalType": "uint256",
          "name": "newDelayK",
          "type": "uint256"
        }
      ],
      "name": "SetDelayK",
      "type": "event"
    },
    {
      "anonymous": false,
      "inputs": [
        {
          "indexed": false,
          "internalType": "contract IGaugeController",
          "name": "oldGaugeController",
          "type": "address"
        },
        {
          "indexed": false,
          "internalType": "contract IGaugeController",
          "name": "newGaugeController",
          "type": "address"
        }
      ],
      "name": "SetGaugeController",
      "type": "event"
    },
    {
      "anonymous": false,
      "inputs": [
        {
          "indexed": false,
          "internalType": "address",
          "name": "oldP12Factory",
          "type": "address"
        },
        {
          "indexed": false,
          "internalType": "address",
          "name": "newP12Factory",
          "type": "address"
        }
      ],
      "name": "SetP12Factory",
      "type": "event"
    },
    {
      "anonymous": false,
      "inputs": [
        {
          "indexed": false,
          "internalType": "uint256",
          "name": "oldRate",
          "type": "uint256"
        },
        {
          "indexed": false,
          "internalType": "uint256",
          "name": "newRate",
          "type": "uint256"
        }
      ],
      "name": "SetRate",
      "type": "event"
    },
    {
      "anonymous": false,
      "inputs": [
        {
          "indexed": false,
          "internalType": "address",
          "name": "account",
          "type": "address"
        }
      ],
      "name": "Unpaused",
      "type": "event"
    },
    {
      "anonymous": false,
      "inputs": [
        {
          "indexed": true,
          "internalType": "address",
          "name": "implementation",
          "type": "address"
        }
      ],
      "name": "Upgraded",
      "type": "event"
    },
    {
      "anonymous": false,
      "inputs": [
        {
          "indexed": false,
          "internalType": "address",
          "name": "lpToken",
          "type": "address"
        },
        {
          "indexed": false,
          "internalType": "uint256",
          "name": "amount",
          "type": "uint256"
        }
      ],
      "name": "WithdrawLpTokenEmergency",
      "type": "event"
    },
    {
      "inputs": [],
      "name": "ONE",
      "outputs": [
        {
          "internalType": "uint256",
          "name": "",
          "type": "uint256"
        }
      ],
      "stateMutability": "view",
      "type": "function"
    },
    {
      "inputs": [],
      "name": "WEEK",
      "outputs": [
        {
          "internalType": "uint256",
          "name": "",
          "type": "uint256"
        }
      ],
      "stateMutability": "view",
      "type": "function"
    },
    {
      "inputs": [
        {
          "internalType": "address",
          "name": "lpToken",
          "type": "address"
        },
        {
          "internalType": "uint256",
          "name": "amount",
          "type": "uint256"
        },
        {
          "internalType": "address",
          "name": "gameCoinCreator",
          "type": "address"
        }
      ],
      "name": "addLpTokenInfoForGameCreator",
      "outputs": [],
      "stateMutability": "nonpayable",
      "type": "function"
    },
    {
      "inputs": [
        {
          "internalType": "address",
          "name": "lpToken",
          "type": "address"
        }
      ],
      "name": "checkpoint",
      "outputs": [],
      "stateMutability": "nonpayable",
      "type": "function"
    },
    {
      "inputs": [],
      "name": "checkpointAll",
      "outputs": [],
      "stateMutability": "nonpayable",
      "type": "function"
    },
    {
      "inputs": [
        {
          "internalType": "address",
          "name": "lpToken",
          "type": "address"
        }
      ],
      "name": "claim",
      "outputs": [
        {
          "internalType": "uint256",
          "name": "",
          "type": "uint256"
        }
      ],
      "stateMutability": "nonpayable",
      "type": "function"
    },
    {
      "inputs": [],
      "name": "claimAll",
      "outputs": [
        {
          "internalType": "uint256",
          "name": "",
          "type": "uint256"
        }
      ],
      "stateMutability": "nonpayable",
      "type": "function"
    },
    {
      "inputs": [],
      "name": "claimOwnership",
      "outputs": [],
      "stateMutability": "nonpayable",
      "type": "function"
    },
    {
      "inputs": [
        {
          "internalType": "address",
          "name": "lpToken",
          "type": "address"
        }
      ],
      "name": "createPool",
      "outputs": [],
      "stateMutability": "nonpayable",
      "type": "function"
    },
    {
      "inputs": [],
      "name": "delayB",
      "outputs": [
        {
          "internalType": "uint256",
          "name": "",
          "type": "uint256"
        }
      ],
      "stateMutability": "view",
      "type": "function"
    },
    {
      "inputs": [],
      "name": "delayK",
      "outputs": [
        {
          "internalType": "uint256",
          "name": "",
          "type": "uint256"
        }
      ],
      "stateMutability": "view",
      "type": "function"
    },
    {
      "inputs": [
        {
          "internalType": "address",
          "name": "lpToken",
          "type": "address"
        },
        {
          "internalType": "uint256",
          "name": "amount",
          "type": "uint256"
        }
      ],
      "name": "deposit",
      "outputs": [],
      "stateMutability": "nonpayable",
      "type": "function"
    },
    {
      "inputs": [],
      "name": "emergency",
      "outputs": [],
      "stateMutability": "nonpayable",
      "type": "function"
    },
    {
      "inputs": [],
      "name": "emergencyUnlockTime",
      "outputs": [
        {
          "internalType": "uint256",
          "name": "",
          "type": "uint256"
        }
      ],
      "stateMutability": "view",
      "type": "function"
    },
    {
      "inputs": [
        {
          "internalType": "address",
          "name": "lpToken",
          "type": "address"
        },
        {
          "internalType": "bytes32",
          "name": "id",
          "type": "bytes32"
        }
      ],
      "name": "executeWithdraw",
      "outputs": [],
      "stateMutability": "nonpayable",
      "type": "function"
    },
    {
      "inputs": [],
      "name": "gaugeController",
      "outputs": [
        {
          "internalType": "contract IGaugeController",
          "name": "",
          "type": "address"
        }
      ],
      "stateMutability": "view",
      "type": "function"
    },
    {
      "inputs": [
        {
          "internalType": "address",
          "name": "lpToken",
          "type": "address"
        }
      ],
      "name": "getPid",
      "outputs": [
        {
          "internalType": "uint256",
          "name": "",
          "type": "uint256"
        }
      ],
      "stateMutability": "view",
      "type": "function"
    },
    {
      "inputs": [
        {
          "internalType": "address",
          "name": "lpToken",
          "type": "address"
        },
        {
          "internalType": "address",
          "name": "user",
          "type": "address"
        }
      ],
      "name": "getUserLpBalance",
      "outputs": [
        {
          "internalType": "uint256",
          "name": "",
          "type": "uint256"
        }
      ],
      "stateMutability": "view",
      "type": "function"
    },
    {
      "inputs": [
        {
          "internalType": "address",
          "name": "lpToken",
          "type": "address"
        },
        {
          "internalType": "uint256",
          "name": "amount",
          "type": "uint256"
        }
      ],
      "name": "getWithdrawUnlockTimestamp",
      "outputs": [
        {
          "internalType": "uint256",
          "name": "",
          "type": "uint256"
        }
      ],
      "stateMutability": "view",
      "type": "function"
    },
    {
      "inputs": [
        {
          "internalType": "address",
          "name": "owner_",
          "type": "address"
        },
        {
          "internalType": "address",
          "name": "p12Token_",
          "type": "address"
        },
        {
          "internalType": "address",
          "name": "p12CoinFactory_",
          "type": "address"
        },
        {
          "internalType": "contract IGaugeController",
          "name": "gaugeController_",
          "type": "address"
        },
        {
          "internalType": "uint256",
          "name": "delayK_",
          "type": "uint256"
        },
        {
          "internalType": "uint256",
          "name": "delayB_",
          "type": "uint256"
        },
        {
          "internalType": "uint256",
          "name": "rate_",
          "type": "uint256"
        }
      ],
      "name": "initialize",
      "outputs": [],
      "stateMutability": "nonpayable",
      "type": "function"
    },
    {
      "inputs": [],
      "name": "isEmergency",
      "outputs": [
        {
          "internalType": "bool",
          "name": "",
          "type": "bool"
        }
      ],
      "stateMutability": "view",
      "type": "function"
    },
    {
      "inputs": [
        {
          "internalType": "address",
          "name": "",
          "type": "address"
        }
      ],
      "name": "lpTokenRegistry",
      "outputs": [
        {
          "internalType": "uint256",
          "name": "",
          "type": "uint256"
        }
      ],
      "stateMutability": "view",
      "type": "function"
    },
    {
      "inputs": [],
      "name": "owner",
      "outputs": [
        {
          "internalType": "address",
          "name": "",
          "type": "address"
        }
      ],
      "stateMutability": "view",
      "type": "function"
    },
    {
      "inputs": [],
      "name": "p12CoinFactory",
      "outputs": [
        {
          "internalType": "address",
          "name": "",
          "type": "address"
        }
      ],
      "stateMutability": "view",
      "type": "function"
    },
    {
      "inputs": [],
      "name": "p12RewardVault",
      "outputs": [
        {
          "internalType": "contract IP12RewardVault",
          "name": "",
          "type": "address"
        }
      ],
      "stateMutability": "view",
      "type": "function"
    },
    {
      "inputs": [],
      "name": "p12Token",
      "outputs": [
        {
          "internalType": "address",
          "name": "",
          "type": "address"
        }
      ],
      "stateMutability": "view",
      "type": "function"
    },
    {
      "inputs": [],
      "name": "pause",
      "outputs": [],
      "stateMutability": "nonpayable",
      "type": "function"
    },
    {
      "inputs": [],
      "name": "paused",
      "outputs": [
        {
          "internalType": "bool",
          "name": "",
          "type": "bool"
        }
      ],
      "stateMutability": "view",
      "type": "function"
    },
    {
      "inputs": [],
      "name": "pendingOwner",
      "outputs": [
        {
          "internalType": "address",
          "name": "",
          "type": "address"
        }
      ],
      "stateMutability": "view",
      "type": "function"
    },
    {
      "inputs": [
        {
          "internalType": "address",
          "name": "",
          "type": "address"
        },
        {
          "internalType": "uint256",
          "name": "",
          "type": "uint256"
        }
      ],
      "name": "periodTimestamp",
      "outputs": [
        {
          "internalType": "uint256",
          "name": "",
          "type": "uint256"
        }
      ],
      "stateMutability": "view",
      "type": "function"
    },
    {
      "inputs": [
        {
          "internalType": "uint256",
          "name": "",
          "type": "uint256"
        }
      ],
      "name": "poolInfos",
      "outputs": [
        {
          "internalType": "address",
          "name": "lpToken",
          "type": "address"
        },
        {
          "internalType": "uint256",
          "name": "accP12PerShare",
          "type": "uint256"
        },
        {
          "internalType": "uint256",
          "name": "amount",
          "type": "uint256"
        },
        {
          "internalType": "uint256",
          "name": "period",
          "type": "uint256"
        }
      ],
      "stateMutability": "view",
      "type": "function"
    },
    {
      "inputs": [],
      "name": "poolLength",
      "outputs": [
        {
          "internalType": "uint256",
          "name": "",
          "type": "uint256"
        }
      ],
      "stateMutability": "view",
      "type": "function"
    },
    {
      "inputs": [
        {
          "internalType": "address",
          "name": "",
          "type": "address"
        }
      ],
      "name": "preWithdrawIds",
      "outputs": [
        {
          "internalType": "bytes32",
          "name": "",
          "type": "bytes32"
        }
      ],
      "stateMutability": "view",
      "type": "function"
    },
    {
      "inputs": [],
      "name": "proxiableUUID",
      "outputs": [
        {
          "internalType": "bytes32",
          "name": "",
          "type": "bytes32"
        }
      ],
      "stateMutability": "view",
      "type": "function"
    },
    {
      "inputs": [
        {
          "internalType": "address",
          "name": "lpToken",
          "type": "address"
        },
        {
          "internalType": "uint256",
          "name": "amount",
          "type": "uint256"
        }
      ],
      "name": "queueWithdraw",
      "outputs": [],
      "stateMutability": "nonpayable",
      "type": "function"
    },
    {
      "inputs": [],
      "name": "rate",
      "outputs": [
        {
          "internalType": "uint256",
          "name": "",
          "type": "uint256"
        }
      ],
      "stateMutability": "view",
      "type": "function"
    },
    {
      "inputs": [
        {
          "internalType": "address",
          "name": "",
          "type": "address"
        }
      ],
      "name": "realizedReward",
      "outputs": [
        {
          "internalType": "uint256",
          "name": "",
          "type": "uint256"
        }
      ],
      "stateMutability": "view",
      "type": "function"
    },
    {
      "inputs": [],
      "name": "renounceOwnership",
      "outputs": [],
      "stateMutability": "nonpayable",
      "type": "function"
    },
    {
      "inputs": [
        {
          "internalType": "uint256",
          "name": "newDelayB",
          "type": "uint256"
        }
      ],
      "name": "setDelayB",
      "outputs": [
        {
          "internalType": "bool",
          "name": "",
          "type": "bool"
        }
      ],
      "stateMutability": "nonpayable",
      "type": "function"
    },
    {
      "inputs": [
        {
          "internalType": "uint256",
          "name": "newDelayK",
          "type": "uint256"
        }
      ],
      "name": "setDelayK",
      "outputs": [
        {
          "internalType": "bool",
          "name": "",
          "type": "bool"
        }
      ],
      "stateMutability": "nonpayable",
      "type": "function"
    },
    {
      "inputs": [
        {
          "internalType": "contract IGaugeController",
          "name": "newGaugeController",
          "type": "address"
        }
      ],
      "name": "setGaugeController",
      "outputs": [],
      "stateMutability": "nonpayable",
      "type": "function"
    },
    {
      "inputs": [
        {
          "internalType": "address",
          "name": "newP12CoinFactory",
          "type": "address"
        }
      ],
      "name": "setP12CoinFactory",
      "outputs": [],
      "stateMutability": "nonpayable",
      "type": "function"
    },
    {
      "inputs": [
        {
          "internalType": "uint256",
          "name": "newRate",
          "type": "uint256"
        }
      ],
      "name": "setRate",
      "outputs": [
        {
          "internalType": "bool",
          "name": "",
          "type": "bool"
        }
      ],
      "stateMutability": "nonpayable",
      "type": "function"
    },
    {
      "inputs": [
        {
          "internalType": "address",
          "name": "newOwner",
          "type": "address"
        },
        {
          "internalType": "bool",
          "name": "direct",
          "type": "bool"
        }
      ],
      "name": "transferOwnership",
      "outputs": [],
      "stateMutability": "nonpayable",
      "type": "function"
    },
    {
      "inputs": [],
      "name": "unpause",
      "outputs": [],
      "stateMutability": "nonpayable",
      "type": "function"
    },
    {
      "inputs": [
        {
          "internalType": "address",
          "name": "newImplementation",
          "type": "address"
        }
      ],
      "name": "upgradeTo",
      "outputs": [],
      "stateMutability": "nonpayable",
      "type": "function"
    },
    {
      "inputs": [
        {
          "internalType": "address",
          "name": "newImplementation",
          "type": "address"
        },
        {
          "internalType": "bytes",
          "name": "data",
          "type": "bytes"
        }
      ],
      "name": "upgradeToAndCall",
      "outputs": [],
      "stateMutability": "payable",
      "type": "function"
    },
    {
      "inputs": [
        {
          "internalType": "uint256",
          "name": "",
          "type": "uint256"
        },
        {
          "internalType": "address",
          "name": "",
          "type": "address"
        }
      ],
      "name": "userInfo",
      "outputs": [
        {
          "internalType": "uint256",
          "name": "amount",
          "type": "uint256"
        },
        {
          "internalType": "uint256",
          "name": "rewardDebt",
          "type": "uint256"
        }
      ],
      "stateMutability": "view",
      "type": "function"
    },
    {
      "inputs": [],
      "name": "withdrawAllLpTokenEmergency",
      "outputs": [],
      "stateMutability": "nonpayable",
      "type": "function"
    },
    {
      "inputs": [],
      "name": "withdrawEmergency",
      "outputs": [],
      "stateMutability": "nonpayable",
      "type": "function"
    },
    {
      "inputs": [
        {
          "internalType": "address",
          "name": "",
          "type": "address"
        },
        {
          "internalType": "bytes32",
          "name": "",
          "type": "bytes32"
        }
      ],
      "name": "withdrawInfos",
      "outputs": [
        {
          "internalType": "address",
          "name": "who",
          "type": "address"
        },
        {
          "internalType": "uint256",
          "name": "amount",
          "type": "uint256"
        },
        {
          "internalType": "uint256",
          "name": "unlockTimestamp",
          "type": "uint256"
        },
        {
          "internalType": "bool",
          "name": "executed",
          "type": "bool"
        }
      ],
      "stateMutability": "view",
      "type": "function"
    },
    {
      "inputs": [
        {
          "internalType": "address",
          "name": "lpToken",
          "type": "address"
        }
      ],
      "name": "withdrawLpTokenEmergency",
      "outputs": [],
      "stateMutability": "nonpayable",
      "type": "function"
    }
  ],
  "args": [],
  "numDeployments": 1,
  "solcInputHash": "95681ec8e6f0ca074b8eddc137e42a94",
  "bytecode": "0x60a06040523060805234801561001457600080fd5b506080516144eb61004c6000396000818161103a0152818161107d015281816115190152818161155c01526115f401526144eb6000f3fe6080604052600436106200033e5760003560e01c8063689d84e411620001b1578063b242e53411620000ee578063d1058e5911620000a1578063e77fc7a41162000078578063e77fc7a41462000a5f578063ea4b4ca31462000a84578063ec83a76a1462000aa9578063f4359ce51462000ada57600080fd5b8063d1058e591462000a0f578063e30c39781462000a27578063e48f427b1462000a4757600080fd5b8063b242e53414620008df578063b309bc981462000904578063b38681251462000929578063c2ee3a0814620009b4578063c36b286e14620009d2578063caa6fea414620009f757600080fd5b80638da5cb5b116200016457806399eecb3b116200013b57806399eecb3b146200084e578063a24ed7421462000870578063a972985e1462000895578063afdbf3c214620008ba57600080fd5b80638da5cb5b14620007b05780639049f9d214620007d057806393f1a40b14620007f557600080fd5b8063689d84e414620006d1578063715018a614620007215780637e183ba014620007395780638456cb59146200075e5780638983727c14620007765780638b7c37a3146200078e57600080fd5b80633d16433e11620002805780634e13acc7116200023357806352d1902d116200020a57806352d1902d146200066a5780635c975abb14620006825780635f9e8f82146200069d578063614bb60a14620006b957600080fd5b80634e13acc7146200060a5780634e71e0c8146200063b5780634f1ef286146200065357600080fd5b80633d16433e14620005475780633f4ba83a14620005785780634016634014620005905780634146a07314620005a857806343b55f3514620005c057806347e7ef2414620005e557600080fd5b80632b57474d11620002f65780632f321b7111620002cd5780632f321b7114620004a557806334fcf43714620004ca5780633659cfe614620005005780633cd784f1146200052557600080fd5b80632b57474d14620004395780632bf6c5bc14620004755780632c4e722e146200048d57600080fd5b806291d2b81462000343578063081e3eda146200036a5780630f48fa5f146200038f57806319a78f5514620003b45780631e83409a14620003d957806320fe4adc14620003fe575b600080fd5b3480156200035057600080fd5b50620003686200036236600462003544565b62000af3565b005b3480156200037757600080fd5b506007545b6040519081526020015b60405180910390f35b3480156200039c57600080fd5b506200037c620003ae36600462003564565b62000b8c565b348015620003c157600080fd5b506200037c620003d336600462003593565b62000ce8565b348015620003e657600080fd5b506200037c620003f836600462003544565b62000d22565b3480156200040b57600080fd5b5060035462000420906001600160a01b031681565b6040516001600160a01b03909116815260200162000386565b3480156200044657600080fd5b506200037c6200045836600462003564565b603560209081526000928352604080842090915290825290205481565b3480156200048257600080fd5b506200037c60095481565b3480156200049a57600080fd5b506200037c60065481565b348015620004b257600080fd5b5062000368620004c436600462003544565b62000eb4565b348015620004d757600080fd5b50620004ef620004e9366004620035d1565b62000fcf565b604051901515815260200162000386565b3480156200050d57600080fd5b50620003686200051f36600462003544565b62001030565b3480156200053257600080fd5b5060005462000420906001600160a01b031681565b3480156200055457600080fd5b506200037c6200056636600462003544565b60326020526000908152604090205481565b3480156200058557600080fd5b50620003686200111b565b3480156200059d57600080fd5b506200036862001131565b348015620005b557600080fd5b5062000368620011ec565b348015620005cd57600080fd5b506200037c620005df36600462003544565b62001261565b348015620005f257600080fd5b50620003686200060436600462003564565b620012ca565b3480156200061757600080fd5b506200037c6200062936600462003544565b60366020526000908152604090205481565b3480156200064857600080fd5b5062000368620014d9565b620003686200066436600462003601565b6200150f565b3480156200067757600080fd5b506200037c620015e7565b3480156200068f57600080fd5b506101335460ff16620004ef565b348015620006aa57600080fd5b50600854620004ef9060ff1681565b348015620006c657600080fd5b506200037c60055481565b348015620006de57600080fd5b50620006f6620006f0366004620035d1565b6200169d565b604080516001600160a01b039095168552602085019390935291830152606082015260800162000386565b3480156200072e57600080fd5b5062000368620016e2565b3480156200074657600080fd5b50620003686200075836600462003544565b620016f8565b3480156200076b57600080fd5b50620003686200178a565b3480156200078357600080fd5b50620003686200179e565b3480156200079b57600080fd5b5060015462000420906001600160a01b031681565b348015620007bd57600080fd5b5060cf546001600160a01b031662000420565b348015620007dd57600080fd5b5062000368620007ef36600462003544565b620017cd565b3480156200080257600080fd5b506200083862000814366004620036d1565b60336020908152600092835260408084209091529082529020805460019091015482565b6040805192835260208301919091520162000386565b3480156200085b57600080fd5b5060025462000420906001600160a01b031681565b3480156200087d57600080fd5b50620003686200088f36600462003564565b6200196b565b348015620008a257600080fd5b5062000368620008b436600462003544565b62001d06565b348015620008c757600080fd5b50620004ef620008d9366004620035d1565b62001d20565b348015620008ec57600080fd5b5062000368620008fe36600462003708565b62001d6b565b3480156200091157600080fd5b50620004ef62000923366004620035d1565b62001dce565b3480156200093657600080fd5b50620009876200094836600462003564565b603760209081526000928352604080842090915290825290208054600182015460028301546003909301546001600160a01b0390921692909160ff1684565b604080516001600160a01b0390951685526020850193909352918301521515606082015260800162000386565b348015620009c157600080fd5b506200037c670de0b6b3a764000081565b348015620009df57600080fd5b5062000368620009f13660046200373b565b62001e19565b34801562000a0457600080fd5b506200036862002068565b34801562000a1c57600080fd5b506200037c620020f6565b34801562000a3457600080fd5b5060d0546001600160a01b031662000420565b34801562000a5457600080fd5b506200037c60045481565b34801562000a6c57600080fd5b506200036862000a7e36600462003782565b62002286565b34801562000a9157600080fd5b506200036862000aa336600462003564565b620024ac565b34801562000ab657600080fd5b506200037c62000ac836600462003544565b60346020526000908152604090205481565b34801562000ae757600080fd5b506200037c62093a8081565b62000afd6200274e565b6002546001600160a01b0390811690821662000b2c57604051630ae8f22360e21b815260040160405180910390fd5b600280546001600160a01b0319166001600160a01b0384811691821790925560408051928416835260208301919091527f9b1ae61f53f47914159f1f1397501254f37fc99c47286e6b059ce40b382bf0b491015b60405180910390a15050565b60008062000b9a8462001261565b905060006007828154811062000bb45762000bb462003802565b6000918252602080832060408051608081018252600490940290910180546001600160a01b0390811685526001820154858501526002808301548685015260039092015460608601528a168552603683528185205460378452828620818752909352908420015491935042918083101562000c30578062000c32565b825b9350600060055486600001516001600160a01b03166318160ddd6040518163ffffffff1660e01b8152600401602060405180830381865afa15801562000c7c573d6000803e3d6000fd5b505050506040513d601f19601f8201168201806040525081019062000ca2919062003818565b60045462000cb1908c62003848565b62000cbd91906200386a565b62000cc991906200388d565b9050600062000cd986836200388d565b9b9a5050505050505050505050565b60008062000cf68462001261565b60009081526033602090815260408083206001600160a01b038716845290915290205491505092915050565b60006002610101540362000d535760405162461bcd60e51b815260040162000d4a90620038a8565b60405180910390fd5b60026101015562000d636200277a565b600062000d708362001261565b60008181526033602090815260408083203384529091528120549192500362000dac57604051631d720a1560e11b815260040160405180910390fd5b60006007828154811062000dc45762000dc462003802565b6000918252602080832085845260338252604080852033865290925292206004909102909101915062000df783620027c3565b60008160010154670de0b6b3a76400008460010154846000015462000e1d919062003848565b62000e2991906200386a565b62000e359190620038df565b9050670de0b6b3a76400008360010154836000015462000e56919062003848565b62000e6291906200386a565b600183015562000e73338262002b19565b604080518281526001600160a01b038816602082015233916000805160206200444f833981519152910160405180910390a260016101015595945050505050565b6002610101540362000eda5760405162461bcd60e51b815260040162000d4a90620038a8565b60026101015562000eea62002bc7565b600062000ef78262001261565b905060006007828154811062000f115762000f1162003802565b60009182526020808320858452603382526040808520338652909252908320805460049093029091019350910362000f5c57604051631d720a1560e11b815260040160405180910390fd5b805460008083556001830155825462000f80906001600160a01b0316338362002c0f565b604080516001600160a01b0387168152602081018390527fdbf7eb12dbcd8a10d5042f573e98fb78d4d13563e2591a961fc35b6d6c2b7841910160405180910390a15050600161010155505050565b600062000fdb6200274e565b600680549083905562000fed6200179e565b60408051828152602081018590527f3a8f7e78fe36c54b4f888a309efa91eba128acb04cc1c2ffa0e5c4db7b4a878591015b60405180910390a150600192915050565b6001600160a01b037f00000000000000000000000000000000000000000000000000000000000000001630036200107b5760405162461bcd60e51b815260040162000d4a90620038f9565b7f00000000000000000000000000000000000000000000000000000000000000006001600160a01b0316620010c66000805160206200446f833981519152546001600160a01b031690565b6001600160a01b031614620010ef5760405162461bcd60e51b815260040162000d4a9062003945565b620010fa8162002c79565b60408051600080825260208201909252620011189183919062002c83565b50565b620011256200274e565b6200112f62002dfb565b565b60075460005b81811015620011e857600081815260336020908152604080832033845290915290205415620011d35760006007828154811062001178576200117862003802565b600091825260209182902060408051608081018252600490930290910180546001600160a01b03168084526001820154948401949094526002810154918301919091526003015460608201529150620011d19062000eb4565b505b80620011df8162003991565b91505062001137565b5050565b620011f66200274e565b6200120062002bc7565b6003546040516350e0278760e11b81523360048201526001600160a01b039091169063a1c04f0e90602401600060405180830381600087803b1580156200124657600080fd5b505af11580156200125b573d6000803e3d6000fd5b50505050565b6001600160a01b038116600090815260326020526040812054829082036200129c576040516335b2b16f60e21b815260040160405180910390fd5b6001600160a01b038316600090815260326020526040902054620012c390600190620038df565b9392505050565b620012d46200277a565b60026101015403620012fa5760405162461bcd60e51b815260040162000d4a90620038a8565b60026101015560006200130d8362001261565b905060006007828154811062001327576200132762003802565b600091825260208083208584526033825260408085203386529092529220600490910290910191506200135a83620027c3565b805415620013e25760008160010154670de0b6b3a76400008460010154846000015462001388919062003848565b6200139491906200386a565b620013a09190620038df565b9050620013ae338262002b19565b604080518281526001600160a01b038816602082015233916000805160206200444f833981519152910160405180910390a2505b83600003620014045760405163658d04b160e01b815260040160405180910390fd5b838160000160008282546200141a91906200388d565b92505081905550838260020160008282546200143791906200388d565b9091555050815462001455906001600160a01b031633308762002e50565b60018201548154670de0b6b3a764000091620014719162003848565b6200147d91906200386a565b600182015580546002830154604080518781526020810193909352820152839033907f7162984403f6c73c8639375d45a9187dfd04602231bd8e587c415718b5f7e5f99060600160405180910390a35050600161010155505050565b60d0546001600160a01b031633146200150557604051639d7b369d60e01b815260040160405180910390fd5b6200112f62002e8a565b6001600160a01b037f00000000000000000000000000000000000000000000000000000000000000001630036200155a5760405162461bcd60e51b815260040162000d4a90620038f9565b7f00000000000000000000000000000000000000000000000000000000000000006001600160a01b0316620015a56000805160206200446f833981519152546001600160a01b031690565b6001600160a01b031614620015ce5760405162461bcd60e51b815260040162000d4a9062003945565b620015d98262002c79565b620011e88282600162002c83565b6000306001600160a01b037f00000000000000000000000000000000000000000000000000000000000000001614620016895760405162461bcd60e51b815260206004820152603860248201527f555550535570677261646561626c653a206d757374206e6f742062652063616c60448201527f6c6564207468726f7567682064656c656761746563616c6c0000000000000000606482015260840162000d4a565b506000805160206200446f83398151915290565b60078181548110620016ae57600080fd5b600091825260209091206004909102018054600182015460028301546003909301546001600160a01b039092169350919084565b620016ec6200274e565b6200112f600062002ef3565b620017026200274e565b6000546001600160a01b039081169082166200173157604051630ae8f22360e21b815260040160405180910390fd5b600080546001600160a01b0319166001600160a01b0384811691821790925560408051928416835260208301919091527fb5004c6dd32173c6ee128faa447de600665c96ba213f764d94599ca5ceda78b1910162000b80565b620017946200274e565b6200112f62002f69565b60075460005b81811015620011e857620017b881620027c3565b80620017c48162003991565b915050620017a4565b6001600160a01b038116600090815260326020526040902054819015620018075760405163483c133160e11b815260040160405180910390fd5b620018116200277a565b6000546001600160a01b0316331480159062001838575060cf546001600160a01b03163314155b156200185757604051639d7b369d60e01b815260040160405180910390fd5b50604080516080810182526001600160a01b0392831680825260006020808401828152848601838152606086018481526007805460018101825581875297517fa66cc928b5edb82af9bd49922954155ab7b0942694bea4ce44661d9a8736c688600490990298890180546001600160a01b03191691909b161790995591517fa66cc928b5edb82af9bd49922954155ab7b0942694bea4ce44661d9a8736c689870155517fa66cc928b5edb82af9bd49922954155ab7b0942694bea4ce44661d9a8736c68a860155517fa66cc928b5edb82af9bd49922954155ab7b0942694bea4ce44661d9a8736c68b9094019390935581815260358352838120818052835283812042905593549084526032909152912055565b60026101015403620019915760405162461bcd60e51b815260040162000d4a90620038a8565b600261010155620019a16200277a565b6000620019ae8362001261565b6001600160a01b03808516600090815260376020908152604080832087845290915290205491925016338114620019f857604051639d7b369d60e01b815260040160405180910390fd5b60006007838154811062001a105762001a1062003802565b600091825260208083208684526033825260408085206001600160a01b0380891687529084528186208054918c168752603785528287208b8852909452942060010154600490930201935091101562001ab05780546001600160a01b03871660009081526037602090815260408083208984529091529081902060010154905163aadb0dad60e01b81526004810192909252602482015260440162000d4a565b6001600160a01b038616600090815260376020908152604080832088845290915290206002015442101562001af85760405163d5c6063760e01b815260040160405180910390fd5b6001600160a01b038616600090815260376020908152604080832088845290915290206003015460ff161562001b4157604051636507689f60e01b815260040160405180910390fd5b6001600160a01b03861660009081526037602090815260408083208884529091529020600301805460ff1916600117905562001b7d84620027c3565b60008160010154670de0b6b3a76400008460010154846000015462001ba3919062003848565b62001baf91906200386a565b62001bbb9190620038df565b905062001bc9848262002b19565b604080518281526001600160a01b0389811660208301528616916000805160206200444f833981519152910160405180910390a26001600160a01b038716600090815260376020908152604080832089845290915281206001015483549091829185919062001c3a908490620038df565b925050819055508084600201600082825462001c579190620038df565b909155505060018401548354670de0b6b3a76400009162001c789162003848565b62001c8491906200386a565b6001840155835462001ca1906001600160a01b0316868362002c0f565b82546002850154604080518481526020810193909352820152879087906001600160a01b038816907f3b6169f3eda7dec0c3762f33d51b47c9417626ef6b03a4112469b10e2542283c9060600160405180910390a45050600161010155505050505050565b600062001d138262001261565b9050620011e881620027c3565b600062001d2c6200274e565b600480549083905560408051828152602081018590527fb936e6dfcf3fec6bfb7d23d91ce9406c4ce74825de73cf38c764ed900731d7a491016200101f565b62001d756200274e565b6001600160a01b03821662001d9d57604051630ae8f22360e21b815260040160405180910390fd5b801562001daf57620011e88262002ef3565b60d080546001600160a01b0319166001600160a01b0384161790555050565b600062001dda6200274e565b600580549083905560408051828152602081018590527f43c057f209152d56f2de0fa1d79291670facf6161810b2392b949bf1647cc23691016200101f565b62001e236200277a565b6000546001600160a01b0316331462001e4f57604051639d7b369d60e01b815260040160405180910390fd5b62001e5a83620017cd565b600062001e678462001261565b6040516370a0823160e01b81523060048201529091506000906001600160a01b038616906370a0823190602401602060405180830381865afa15801562001eb2573d6000803e3d6000fd5b505050506040513d601f19601f8201168201806040525081019062001ed8919062003818565b905060006007838154811062001ef25762001ef262003802565b600091825260208083208684526033825260408085206001600160a01b038a16865290925292206004909102909101915085158062001f405750600282015462001f3d9084620038df565b86115b1562001f6357604051637c563ad760e11b81526004810187905260240162000d4a565b600182600301600082825462001f7a91906200388d565b909155505081546001600160a01b0316600090815260356020908152604080832060038601548452909152812042905581548791839162001fbd9084906200388d565b925050819055508582600201600082825462001fda91906200388d565b909155505060018201548154670de0b6b3a76400009162001ffb9162003848565b6200200791906200386a565b60018201558054600283015460408051898152602081019390935282015284906001600160a01b038716907f7162984403f6c73c8639375d45a9187dfd04602231bd8e587c415718b5f7e5f99060600160405180910390a350505050505050565b620020726200274e565b60085460ff16156200209757604051630d4fcda960e11b815260040160405180910390fd5b6008805460ff1916600117905562015180620020b481426200388d565b60098190556040805133815260208101929092527f60d80110a4ada21fcf122778cf9fd06e96a62cfab4577aa054d8f50703342c94910160405180910390a150565b6000600261010154036200211e5760405162461bcd60e51b815260040162000d4a90620038a8565b6002610101556200212e6200277a565b6007546000805b828110156200226d57600081815260336020908152604080832033845290915290205415620022585760006007828154811062002176576200217662003802565b60009182526020808320858452603382526040808520338652909252922060049091029091019150620021a983620027c3565b600180820154908301548254670de0b6b3a764000091620021ca9162003848565b620021d691906200386a565b620021e29190620038df565b620021ee90856200388d565b9350670de0b6b3a7640000826001015482600001546200220f919062003848565b6200221b91906200386a565b60018201558154604080518681526001600160a01b03909216602083015233916000805160206200444f833981519152910160405180910390a250505b80620022648162003991565b91505062002135565b506200227a338262002b19565b91505060016101015590565b603854610100900460ff1615808015620022a75750603854600160ff909116105b80620022c35750303b158015620022c3575060385460ff166001145b620023285760405162461bcd60e51b815260206004820152602e60248201527f496e697469616c697a61626c653a20636f6e747261637420697320616c72656160448201526d191e481a5b9a5d1a585b1a5e995960921b606482015260840162000d4a565b6038805460ff1916600117905580156200234c576038805461ff0019166101001790555b6001600160a01b03871615806200236a57506001600160a01b038616155b156200238957604051630ae8f22360e21b815260040160405180910390fd5b600180546001600160a01b03808a166001600160a01b03199283161790925560008054898416908316179055600280549288169290911691909117905560405130908890620023d89062003520565b6001600160a01b03928316815291166020820152604001604051809103906000f0801580156200240c573d6000803e3d6000fd5b50600380546001600160a01b0319166001600160a01b03929092169190911790556004849055600583905560068290556200244662002faa565b6200245062002fdc565b6200245b8862003013565b8015620024a2576038805461ff0019169055604051600181527f7f26b83ff96e1f2b6a682f133852f6798a09c465da95921460cefb38474024989060200160405180910390a15b5050505050505050565b620024b66200277a565b60026101015403620024dc5760405162461bcd60e51b815260040162000d4a90620038a8565b6002610101556000620024ef8362001261565b905060006007828154811062002509576200250962003802565b6000918252602080832085845260338252604080852033865290925292208054600490920290920192508411156200256257805460405163aadb0dad60e01b815260048101919091526024810185905260440162000d4a565b6200256d83620027c3565b805415620025f55760008160010154670de0b6b3a7640000846001015484600001546200259b919062003848565b620025a791906200386a565b620025b39190620038df565b9050620025c1338262002b19565b604080518281526001600160a01b038816602082015233916000805160206200444f833981519152910160405180910390a2505b600062002603868662000b8c565b6001600160a01b038781166000818152603660209081526040808320805482518085018790528084018e905233606082018190526080808301939093528451808303909301835260a082018086528351938701939093209384905561012082018552825260c081018e815260e082018a81526101009092018781529787526037865284872084885290955292909420935184546001600160a01b031916961695909517835590516001838101919091559051600283015591516003909101805460ff191691151591909117905585015484549293509091670de0b6b3a764000091620026ef9162003848565b620026fb91906200386a565b600184015560408051868152602081018490528291889133917f272443b29ab847e8afe0555c70202fdd13f55ad0256863dbf7babad95689f915910160405180910390a450506001610101555050505050565b60cf546001600160a01b031633146200112f57604051639d7b369d60e01b815260040160405180910390fd5b6101335460ff16156200112f5760405162461bcd60e51b815260206004820152601060248201526f14185d5cd8589b194e881c185d5cd95960821b604482015260640162000d4a565b620027cd6200277a565b600060078281548110620027e557620027e562003802565b60009182526020808320600492830201600181015481546001600160a01b039081168087526035855260408088206003860154895290955295849020546002549451638aca6a2360e01b8152958601969096529195509392911690638aca6a2390602401600060405180830381600087803b1580156200286457600080fd5b505af115801562002879573d6000803e3d6000fd5b505050508042116200289e5760405163b53f469f60e01b815260040160405180910390fd5b8260020154600003620028fe576001836003016000828254620028c291906200388d565b909155505082546001600160a01b0316600090815260356020908152604080832060039096015483529490529290922042905550620011189050565b8060006200293562093a80806200291681866200388d565b6200292291906200386a565b6200292e919062003848565b4262003048565b905060005b6101f481101562002a7f576000620029538484620038df565b60025488549192506000916001600160a01b03918216916365c60468911662093a8062002981818a6200386a565b6200298d919062003848565b6040516001600160e01b031960e085901b1681526001600160a01b03909216600483015260248201526044016020604051808303816000875af1158015620029d9573d6000803e3d6000fd5b505050506040513d601f19601f82011682018060405250810190620029ff919062003818565b90508760020154828260065462002a17919062003848565b62002a23919062003848565b62002a2f91906200386a565b62002a3b90886200388d565b965042840362002a4d57505062002a7f565b83945062002a6562093a80856200292e91906200388d565b93505050808062002a769062003991565b9150506200293a565b50600180860185905560038601805460009062002a9e9084906200388d565b909155505084546001600160a01b03908116600090815260356020908152604080832060038a015484528252918290204290556002880154885460018a01549351938452909316917fd5d17e0ef95673e9f3758eb2dd453e0a395922322e5462909459da8ed6ea3b40910160405180910390a3505050505050565b6003546040516310b3879160e11b81526001600160a01b03848116600483015260248201849052909116906321670f2290604401600060405180830381600087803b15801562002b6857600080fd5b505af115801562002b7d573d6000803e3d6000fd5b5050506001600160a01b03831660009081526034602052604090205462002ba7915082906200388d565b6001600160a01b0390921660009081526034602052604090209190915550565b60085460ff1662002beb5760405163d95ee41f60e01b815260040160405180910390fd5b6009544210156200112f576040516301baaa6960e21b815260040160405180910390fd5b6040516001600160a01b03831660248201526044810182905262002c7490849063a9059cbb60e01b906064015b60408051601f198184030181529190526020810180516001600160e01b03166001600160e01b03199093169290921790915262003060565b505050565b620011186200274e565b7f4910fdfa16fed3260ed0e7147f7cc6da11a60208b5b9406d12a635614ffd91435460ff161562002cb95762002c748362003139565b826001600160a01b03166352d1902d6040518163ffffffff1660e01b8152600401602060405180830381865afa92505050801562002d16575060408051601f3d908101601f1916820190925262002d139181019062003818565b60015b62002d7b5760405162461bcd60e51b815260206004820152602e60248201527f45524331393637557067726164653a206e657720696d706c656d656e7461746960448201526d6f6e206973206e6f74205555505360901b606482015260840162000d4a565b6000805160206200446f833981519152811462002ded5760405162461bcd60e51b815260206004820152602960248201527f45524331393637557067726164653a20756e737570706f727465642070726f786044820152681a58589b195555525160ba1b606482015260840162000d4a565b5062002c74838383620031d8565b62002e0562003203565b610133805460ff191690557f5db9ee0a495bf2e6ff9c91a7834c1ba4fdd244a5e8aa4e537bd38aeae4b073aa335b6040516001600160a01b03909116815260200160405180910390a1565b6040516001600160a01b03808516602483015283166044820152606481018290526200125b9085906323b872dd60e01b9060840162002c3c565b60cf5460d0546040516001600160a01b03928316929091169082907f8be0079c531659141344cd1fd0a4f28419497f9722a3daafe3b4186f6b6457e090600090a35060d0805460cf80546001600160a01b03199081166001600160a01b03841617909155169055565b7fb53127684a568b3173ae13b9f8a6016e243e63b6e8ee1178d6a717850b5d610381905560cf80546001600160a01b038084166001600160a01b0319831681179093556040519116919082907f8be0079c531659141344cd1fd0a4f28419497f9722a3daafe3b4186f6b6457e090600090a35050565b62002f736200277a565b610133805460ff191660011790557f62e78cea01bee320cd4e420270b5ea74000d11b0c9f74754ebdbfc544b05a25862002e333390565b603854610100900460ff1662002fd45760405162461bcd60e51b815260040162000d4a90620039ad565b600161010155565b603854610100900460ff16620030065760405162461bcd60e51b815260040162000d4a90620039ad565b610133805460ff19169055565b603854610100900460ff166200303d5760405162461bcd60e51b815260040162000d4a90620039ad565b620011188162002ef3565b6000818310620030595781620012c3565b5090919050565b6000620030b7826040518060400160405280602081526020017f5361666545524332303a206c6f772d6c6576656c2063616c6c206661696c6564815250856001600160a01b03166200324f9092919063ffffffff16565b80519091501562002c745780806020019051810190620030d89190620039f8565b62002c745760405162461bcd60e51b815260206004820152602a60248201527f5361666545524332303a204552433230206f7065726174696f6e20646964206e6044820152691bdd081cdd58d8d9595960b21b606482015260840162000d4a565b6001600160a01b0381163b620031a85760405162461bcd60e51b815260206004820152602d60248201527f455243313936373a206e657720696d706c656d656e746174696f6e206973206e60448201526c1bdd08184818dbdb9d1c9858dd609a1b606482015260840162000d4a565b6000805160206200446f83398151915280546001600160a01b0319166001600160a01b0392909216919091179055565b620031e38362003268565b600082511180620031f15750805b1562002c74576200125b8383620032aa565b6101335460ff166200112f5760405162461bcd60e51b815260206004820152601460248201527314185d5cd8589b194e881b9bdd081c185d5cd95960621b604482015260640162000d4a565b6060620032608484600085620033a7565b949350505050565b620032738162003139565b6040516001600160a01b038216907fbc7cd75a20ee27fd9adebab32041f755214dbc6bffa90cc0225b39da2e5c2d3b90600090a250565b60606001600160a01b0383163b620033145760405162461bcd60e51b815260206004820152602660248201527f416464726573733a2064656c65676174652063616c6c20746f206e6f6e2d636f6044820152651b9d1c9858dd60d21b606482015260840162000d4a565b600080846001600160a01b03168460405162003331919062003a47565b600060405180830381855af49150503d80600081146200336e576040519150601f19603f3d011682016040523d82523d6000602084013e62003373565b606091505b50915091506200339e82826040518060600160405280602781526020016200448f60279139620034e2565b95945050505050565b6060824710156200340a5760405162461bcd60e51b815260206004820152602660248201527f416464726573733a20696e73756666696369656e742062616c616e636520666f6044820152651c8818d85b1b60d21b606482015260840162000d4a565b6001600160a01b0385163b620034635760405162461bcd60e51b815260206004820152601d60248201527f416464726573733a2063616c6c20746f206e6f6e2d636f6e7472616374000000604482015260640162000d4a565b600080866001600160a01b0316858760405162003481919062003a47565b60006040518083038185875af1925050503d8060008114620034c0576040519150601f19603f3d011682016040523d82523d6000602084013e620034c5565b606091505b5091509150620034d7828286620034e2565b979650505050505050565b60608315620034f3575081620012c3565b825115620035045782518084602001fd5b8160405162461bcd60e51b815260040162000d4a919062003a65565b6109b48062003a9b83390190565b6001600160a01b03811681146200111857600080fd5b6000602082840312156200355757600080fd5b8135620012c3816200352e565b600080604083850312156200357857600080fd5b823562003585816200352e565b946020939093013593505050565b60008060408385031215620035a757600080fd5b8235620035b4816200352e565b91506020830135620035c6816200352e565b809150509250929050565b600060208284031215620035e457600080fd5b5035919050565b634e487b7160e01b600052604160045260246000fd5b600080604083850312156200361557600080fd5b823562003622816200352e565b9150602083013567ffffffffffffffff808211156200364057600080fd5b818501915085601f8301126200365557600080fd5b8135818111156200366a576200366a620035eb565b604051601f8201601f19908116603f01168101908382118183101715620036955762003695620035eb565b81604052828152886020848701011115620036af57600080fd5b8260208601602083013760006020848301015280955050505050509250929050565b60008060408385031215620036e557600080fd5b823591506020830135620035c6816200352e565b80151581146200111857600080fd5b600080604083850312156200371c57600080fd5b823562003729816200352e565b91506020830135620035c681620036f9565b6000806000606084860312156200375157600080fd5b83356200375e816200352e565b925060208401359150604084013562003777816200352e565b809150509250925092565b600080600080600080600060e0888a0312156200379e57600080fd5b8735620037ab816200352e565b96506020880135620037bd816200352e565b95506040880135620037cf816200352e565b94506060880135620037e1816200352e565b9699959850939660808101359560a0820135955060c0909101359350915050565b634e487b7160e01b600052603260045260246000fd5b6000602082840312156200382b57600080fd5b5051919050565b634e487b7160e01b600052601160045260246000fd5b600081600019048311821515161562003865576200386562003832565b500290565b6000826200388857634e487b7160e01b600052601260045260246000fd5b500490565b60008219821115620038a357620038a362003832565b500190565b6020808252601f908201527f5265656e7472616e637947756172643a207265656e7472616e742063616c6c00604082015260600190565b600082821015620038f457620038f462003832565b500390565b6020808252602c908201527f46756e6374696f6e206d7573742062652063616c6c6564207468726f7567682060408201526b19195b1959d85d1958d85b1b60a21b606082015260800190565b6020808252602c908201527f46756e6374696f6e206d7573742062652063616c6c6564207468726f7567682060408201526b6163746976652070726f787960a01b606082015260800190565b600060018201620039a657620039a662003832565b5060010190565b6020808252602b908201527f496e697469616c697a61626c653a20636f6e7472616374206973206e6f74206960408201526a6e697469616c697a696e6760a81b606082015260800190565b60006020828403121562003a0b57600080fd5b8151620012c381620036f9565b60005b8381101562003a3557818101518382015260200162003a1b565b838111156200125b5750506000910152565b6000825162003a5b81846020870162003a18565b9190910192915050565b602081526000825180602084015262003a8681604085016020870162003a18565b601f01601f1916919091016040019291505056fe608060405234801561001057600080fd5b506040516109b43803806109b483398101604081905261002f916100f3565b8161003981610087565b506001600160a01b03811661006157604051630ae8f22360e21b815260040160405180910390fd5b600280546001600160a01b0319166001600160a01b039290921691909117905550610126565b600080546001600160a01b038381166001600160a01b0319831681178455604051919092169283917f8be0079c531659141344cd1fd0a4f28419497f9722a3daafe3b4186f6b6457e09190a35050565b80516001600160a01b03811681146100ee57600080fd5b919050565b6000806040838503121561010657600080fd5b61010f836100d7565b915061011d602084016100d7565b90509250929050565b61087f806101356000396000f3fe608060405234801561001057600080fd5b50600436106100885760003560e01c80638da5cb5b1161005b5780638da5cb5b146100e1578063a1c04f0e146100f2578063b242e53414610105578063e30c39781461011857600080fd5b806321670f221461008d5780634e71e0c8146100a2578063715018a6146100aa5780638b7c37a3146100b2575b600080fd5b6100a061009b366004610707565b610129565b005b6100a061014c565b6100a0610181565b6002546100c5906001600160a01b031681565b6040516001600160a01b03909116815260200160405180910390f35b6000546001600160a01b03166100c5565b6100a0610100366004610731565b610193565b6100a061011336600461075d565b6102fa565b6001546001600160a01b03166100c5565b610131610357565b600254610148906001600160a01b03168383610382565b5050565b6001546001600160a01b0316331461017757604051639d7b369d60e01b815260040160405180910390fd5b61017f6103d9565b565b610189610357565b61017f6000610441565b61019b610357565b6001600160a01b0381166101c257604051630ae8f22360e21b815260040160405180910390fd5b6002546040516370a0823160e01b81523060048201526102479183916001600160a01b03909116906370a0823190602401602060405180830381865afa158015610210573d6000803e3d6000fd5b505050506040513d601f19601f820116820180604052508101906102349190610794565b6002546001600160a01b03169190610382565b6002546040516370a0823160e01b81523060048201527ff58b081c2d077b17c9ef90e17090bd89e8b8b98933872e29c9352269eda3823f916001600160a01b03169081906370a0823190602401602060405180830381865afa1580156102b1573d6000803e3d6000fd5b505050506040513d601f19601f820116820180604052508101906102d59190610794565b604080516001600160a01b03909316835260208301919091520160405180910390a150565b610302610357565b6001600160a01b03821661032957604051630ae8f22360e21b815260040160405180910390fd5b80156103385761014882610441565b600180546001600160a01b0319166001600160a01b0384161790555050565b6000546001600160a01b0316331461017f57604051639d7b369d60e01b815260040160405180910390fd5b604080516001600160a01b038416602482015260448082018490528251808303909101815260649091019091526020810180516001600160e01b031663a9059cbb60e01b1790526103d4908490610491565b505050565b600080546001546040516001600160a01b0392831693919092169183917f8be0079c531659141344cd1fd0a4f28419497f9722a3daafe3b4186f6b6457e091a35060018054600080546001600160a01b03199081166001600160a01b03841617909155169055565b600080546001600160a01b038381166001600160a01b0319831681178455604051919092169283917f8be0079c531659141344cd1fd0a4f28419497f9722a3daafe3b4186f6b6457e09190a35050565b60006104e6826040518060400160405280602081526020017f5361666545524332303a206c6f772d6c6576656c2063616c6c206661696c6564815250856001600160a01b03166105689092919063ffffffff16565b8051909150156103d4578080602001905181019061050491906107ad565b6103d45760405162461bcd60e51b815260206004820152602a60248201527f5361666545524332303a204552433230206f7065726174696f6e20646964206e6044820152691bdd081cdd58d8d9595960b21b60648201526084015b60405180910390fd5b60606105778484600085610581565b90505b9392505050565b6060824710156105e25760405162461bcd60e51b815260206004820152602660248201527f416464726573733a20696e73756666696369656e742062616c616e636520666f6044820152651c8818d85b1b60d21b606482015260840161055f565b6001600160a01b0385163b6106395760405162461bcd60e51b815260206004820152601d60248201527f416464726573733a2063616c6c20746f206e6f6e2d636f6e7472616374000000604482015260640161055f565b600080866001600160a01b0316858760405161065591906107fa565b60006040518083038185875af1925050503d8060008114610692576040519150601f19603f3d011682016040523d82523d6000602084013e610697565b606091505b50915091506106a78282866106b2565b979650505050505050565b606083156106c157508161057a565b8251156106d15782518084602001fd5b8160405162461bcd60e51b815260040161055f9190610816565b80356001600160a01b038116811461070257600080fd5b919050565b6000806040838503121561071a57600080fd5b610723836106eb565b946020939093013593505050565b60006020828403121561074357600080fd5b61057a826106eb565b801515811461075a57600080fd5b50565b6000806040838503121561077057600080fd5b610779836106eb565b915060208301356107898161074c565b809150509250929050565b6000602082840312156107a657600080fd5b5051919050565b6000602082840312156107bf57600080fd5b815161057a8161074c565b60005b838110156107e55781810151838201526020016107cd565b838111156107f4576000848401525b50505050565b6000825161080c8184602087016107ca565b9190910192915050565b60208152600082518060208401526108358160408501602087016107ca565b601f01601f1916919091016040019291505056fea26469706673582212202d905a8c76629515f3a965e562966eecdf27cce122a4685b9d1ced1a94a606c264736f6c634300080f0033a8363d922dc171313585ca13972873c5732013dc819db64b51ba8b1aa1a1e3e2360894a13ba1a3210667c828492db98dca3e2076cc3735a920a3ca505d382bbc416464726573733a206c6f772d6c6576656c2064656c65676174652063616c6c206661696c6564a26469706673582212206940cf788d48e43602a2cead9d286f1465368d6c1b770ba7e383299b27a5cabb64736f6c634300080f0033",
  "devdoc": {
    "kind": "dev",
    "methods": {
      "addLpTokenInfoForGameCreator(address,uint256,address)": {
        "params": {
          "gameCoinCreator": "user of game coin creator",
          "lpToken": "Address of lpToken"
        }
      },
      "checkpoint(address)": {
        "params": {
          "lpToken": "Address of lpToken"
        }
      },
      "claim(address)": {
        "params": {
          "lpToken": "Address of lpToken"
        }
      },
      "claimOwnership()": {
        "details": "pending owner call this function to claim ownership"
      },
      "createPool(address)": {
        "params": {
          "lpToken": "Address of lpToken"
        }
      },
      "deposit(address,uint256)": {
        "params": {
          "amount": "Number of lpToken",
          "lpToken": "Address of lpToken"
        }
      },
      "executeWithdraw(address,bytes32)": {
        "params": {
          "id": "Withdraw id",
          "lpToken": "Address of lpToken"
        }
      },
      "getPid(address)": {
        "params": {
          "lpToken": "Address of lpToken"
        }
      },
      "getUserLpBalance(address,address)": {
        "params": {
          "lpToken": "Address of lpToken",
          "user": "LpToken holder"
        },
        "returns": {
          "_0": "Get lpToken balance"
        }
      },
      "getWithdrawUnlockTimestamp(address,uint256)": {
        "params": {
          "amount": "Number of lpToken",
          "lpToken": "Address of lpToken"
        }
      },
      "initialize(address,address,address,address,uint256,uint256,uint256)": {
        "params": {
          "delayB_": "delayB_ is a coefficient",
          "delayK_": "delayK_ is a coefficient",
          "gaugeController_": "address of gaugeController",
          "p12CoinFactory_": "Address of p12CoinFactory",
          "p12Token_": "Address of p12Token"
        }
      },
      "owner()": {
        "details": "Returns the address of the current owner."
      },
      "paused()": {
        "details": "Returns true if the contract is paused, and false otherwise."
      },
      "pendingOwner()": {
        "details": "Return the address of the pending owner"
      },
      "proxiableUUID()": {
        "details": "Implementation of the ERC1822 {proxiableUUID} function. This returns the storage slot used by the implementation. It is used to validate that the this implementation remains valid after an upgrade. IMPORTANT: A proxy pointing at a proxiable contract should not be considered proxiable itself, because this risks bricking a proxy that upgrades to it, by delegating to itself until out of gas. Thus it is critical that this function revert if invoked through a proxy. This is guaranteed by the `notDelegated` modifier."
      },
      "queueWithdraw(address,uint256)": {
        "params": {
          "amount": "Number of lpToken",
          "lpToken": "Address of lpToken"
        }
      },
      "renounceOwnership()": {
        "details": "Leaves the contract without owner. It will not be possible to call `onlyOwner` functions anymore. Can only be called by the current owner. NOTE: Renouncing ownership will leave the contract without an owner, thereby removing any functionality that is only available to the owner."
      },
      "setDelayB(uint256)": {
        "params": {
          "newDelayB": "Is a coefficient"
        },
        "returns": {
          "_0": "Get bool result"
        }
      },
      "setDelayK(uint256)": {
        "params": {
          "newDelayK": "Is a coefficient"
        },
        "returns": {
          "_0": "Get bool result"
        }
      },
      "setGaugeController(address)": {
        "params": {
          "newGaugeController": "address of gaugeController"
        }
      },
      "setP12CoinFactory(address)": {
        "params": {
          "newP12CoinFactory": "address of p12CoinFactory"
        }
      },
      "setRate(uint256)": {
        "params": {
          "newRate": "is p12 token inflation rate"
        }
      },
      "transferOwnership(address,bool)": {
        "details": "Transfers ownership of the contract to a new account (`newOwner`). Can only be called by the current owner. Note If direct is false, it will set an pending owner and the OwnerShipTransferring only happens when the pending owner claim the ownership"
      },
      "upgradeTo(address)": {
        "details": "Upgrade the implementation of the proxy to `newImplementation`. Calls {_authorizeUpgrade}. Emits an {Upgraded} event."
      },
      "upgradeToAndCall(address,bytes)": {
        "details": "Upgrade the implementation of the proxy to `newImplementation`, and subsequently execute the function call encoded in `data`. Calls {_authorizeUpgrade}. Emits an {Upgraded} event."
      },
      "withdrawLpTokenEmergency(address)": {
        "params": {
          "lpToken": "address of lpToken"
        }
      }
    },
    "version": 1
  },
  "userdoc": {
    "kind": "user",
    "methods": {
      "addLpTokenInfoForGameCreator(address,uint256,address)": {
        "notice": "This method is only used when creating game coin in p12CoinFactory"
      },
      "checkpoint(address)": {
        "notice": "update checkpoint for pool"
      },
      "checkpointAll()": {
        "notice": "update checkpoint for all pool"
      },
      "claim(address)": {
        "notice": "Get pending rewards"
      },
      "claimAll()": {
        "notice": "Get all pending rewards"
      },
      "createPool(address)": {
        "notice": "Create a new pool"
      },
      "deposit(address,uint256)": {
        "notice": "Deposit lpToken"
      },
      "emergency()": {
        "notice": "set the isEmergency to true"
      },
      "executeWithdraw(address,bytes32)": {
        "notice": "Withdraw lpToken"
      },
      "getPid(address)": {
        "notice": "Get pool id"
      },
      "getUserLpBalance(address,address)": {
        "notice": "Get user lpToken balance"
      },
      "getWithdrawUnlockTimestamp(address,uint256)": {
        "notice": "get withdraw unlockTimestamp"
      },
      "initialize(address,address,address,address,uint256,uint256,uint256)": {
        "notice": "Contract initialization"
      },
      "poolLength()": {
        "notice": "Get pool len"
      },
      "queueWithdraw(address,uint256)": {
        "notice": "Withdraw lpToken delay"
      },
      "setDelayB(uint256)": {
        "notice": "Set delayB value"
      },
      "setDelayK(uint256)": {
        "notice": "Set delayK value"
      },
      "setGaugeController(address)": {
        "notice": "set new gaugeController"
      },
      "setP12CoinFactory(address)": {
        "notice": "set new p12CoinFactory"
      },
      "setRate(uint256)": {
        "notice": "set new rate"
      },
      "withdrawAllLpTokenEmergency()": {
        "notice": "withdraw lpToken Emergency"
      },
      "withdrawEmergency()": {
        "notice": "withdraw token Emergency"
      },
      "withdrawLpTokenEmergency(address)": {
        "notice": "withdraw all lpToken Emergency"
      }
    },
    "version": 1
  },
  "storageLayout": {
    "storage": [
      {
        "astId": 15178,
        "contract": "contracts/staking/P12MineUpgradeable.sol:P12MineUpgradeable",
        "label": "p12CoinFactory",
        "offset": 0,
        "slot": "0",
        "type": "t_address"
      },
      {
        "astId": 15180,
        "contract": "contracts/staking/P12MineUpgradeable.sol:P12MineUpgradeable",
        "label": "p12Token",
        "offset": 0,
        "slot": "1",
        "type": "t_address"
      },
      {
        "astId": 15183,
        "contract": "contracts/staking/P12MineUpgradeable.sol:P12MineUpgradeable",
        "label": "gaugeController",
        "offset": 0,
        "slot": "2",
        "type": "t_contract(IGaugeController)17435"
      },
      {
        "astId": 15186,
        "contract": "contracts/staking/P12MineUpgradeable.sol:P12MineUpgradeable",
        "label": "p12RewardVault",
        "offset": 0,
        "slot": "3",
        "type": "t_contract(IP12RewardVault)17718"
      },
      {
        "astId": 15188,
        "contract": "contracts/staking/P12MineUpgradeable.sol:P12MineUpgradeable",
        "label": "delayK",
        "offset": 0,
        "slot": "4",
        "type": "t_uint256"
      },
      {
        "astId": 15190,
        "contract": "contracts/staking/P12MineUpgradeable.sol:P12MineUpgradeable",
        "label": "delayB",
        "offset": 0,
        "slot": "5",
        "type": "t_uint256"
      },
      {
        "astId": 15192,
        "contract": "contracts/staking/P12MineUpgradeable.sol:P12MineUpgradeable",
        "label": "rate",
        "offset": 0,
        "slot": "6",
        "type": "t_uint256"
      },
      {
        "astId": 15196,
        "contract": "contracts/staking/P12MineUpgradeable.sol:P12MineUpgradeable",
        "label": "poolInfos",
        "offset": 0,
        "slot": "7",
        "type": "t_array(t_struct(PoolInfo)15250_storage)dyn_storage"
      },
      {
        "astId": 15198,
        "contract": "contracts/staking/P12MineUpgradeable.sol:P12MineUpgradeable",
        "label": "isEmergency",
        "offset": 0,
        "slot": "8",
        "type": "t_bool"
      },
      {
        "astId": 15200,
        "contract": "contracts/staking/P12MineUpgradeable.sol:P12MineUpgradeable",
        "label": "emergencyUnlockTime",
        "offset": 0,
        "slot": "9",
        "type": "t_uint256"
      },
      {
        "astId": 15204,
        "contract": "contracts/staking/P12MineUpgradeable.sol:P12MineUpgradeable",
        "label": "__gap",
        "offset": 0,
        "slot": "10",
        "type": "t_array(t_uint256)40_storage"
      },
      {
        "astId": 15208,
        "contract": "contracts/staking/P12MineUpgradeable.sol:P12MineUpgradeable",
        "label": "lpTokenRegistry",
        "offset": 0,
        "slot": "50",
        "type": "t_mapping(t_address,t_uint256)"
      },
      {
        "astId": 15215,
        "contract": "contracts/staking/P12MineUpgradeable.sol:P12MineUpgradeable",
        "label": "userInfo",
        "offset": 0,
        "slot": "51",
        "type": "t_mapping(t_uint256,t_mapping(t_address,t_struct(UserInfo)15241_storage))"
      },
      {
        "astId": 15219,
        "contract": "contracts/staking/P12MineUpgradeable.sol:P12MineUpgradeable",
        "label": "realizedReward",
        "offset": 0,
        "slot": "52",
        "type": "t_mapping(t_address,t_uint256)"
      },
      {
        "astId": 15225,
        "contract": "contracts/staking/P12MineUpgradeable.sol:P12MineUpgradeable",
        "label": "periodTimestamp",
        "offset": 0,
        "slot": "53",
        "type": "t_mapping(t_address,t_mapping(t_uint256,t_uint256))"
      },
      {
        "astId": 15229,
        "contract": "contracts/staking/P12MineUpgradeable.sol:P12MineUpgradeable",
        "label": "preWithdrawIds",
        "offset": 0,
        "slot": "54",
        "type": "t_mapping(t_address,t_bytes32)"
      },
      {
        "astId": 15236,
        "contract": "contracts/staking/P12MineUpgradeable.sol:P12MineUpgradeable",
        "label": "withdrawInfos",
        "offset": 0,
        "slot": "55",
        "type": "t_mapping(t_address,t_mapping(t_bytes32,t_struct(WithdrawInfo)15259_storage))"
      },
      {
        "astId": 395,
        "contract": "contracts/staking/P12MineUpgradeable.sol:P12MineUpgradeable",
        "label": "_initialized",
        "offset": 0,
        "slot": "56",
        "type": "t_uint8"
      },
      {
        "astId": 398,
        "contract": "contracts/staking/P12MineUpgradeable.sol:P12MineUpgradeable",
        "label": "_initializing",
        "offset": 1,
        "slot": "56",
        "type": "t_bool"
      },
      {
        "astId": 1540,
        "contract": "contracts/staking/P12MineUpgradeable.sol:P12MineUpgradeable",
        "label": "__gap",
        "offset": 0,
        "slot": "57",
        "type": "t_array(t_uint256)50_storage"
      },
      {
        "astId": 377,
        "contract": "contracts/staking/P12MineUpgradeable.sol:P12MineUpgradeable",
        "label": "__gap",
        "offset": 0,
        "slot": "107",
        "type": "t_array(t_uint256)50_storage"
      },
      {
        "astId": 674,
        "contract": "contracts/staking/P12MineUpgradeable.sol:P12MineUpgradeable",
        "label": "__gap",
        "offset": 0,
        "slot": "157",
        "type": "t_array(t_uint256)50_storage"
      },
      {
        "astId": 8312,
        "contract": "contracts/staking/P12MineUpgradeable.sol:P12MineUpgradeable",
        "label": "_owner",
        "offset": 0,
        "slot": "207",
        "type": "t_address"
      },
      {
        "astId": 8314,
        "contract": "contracts/staking/P12MineUpgradeable.sol:P12MineUpgradeable",
        "label": "_pendingOwner",
        "offset": 0,
        "slot": "208",
        "type": "t_address"
      },
      {
        "astId": 8516,
        "contract": "contracts/staking/P12MineUpgradeable.sol:P12MineUpgradeable",
        "label": "__gap",
        "offset": 0,
        "slot": "209",
        "type": "t_array(t_uint256)48_storage"
      },
      {
        "astId": 816,
        "contract": "contracts/staking/P12MineUpgradeable.sol:P12MineUpgradeable",
        "label": "_status",
        "offset": 0,
        "slot": "257",
        "type": "t_uint256"
      },
      {
        "astId": 860,
        "contract": "contracts/staking/P12MineUpgradeable.sol:P12MineUpgradeable",
        "label": "__gap",
        "offset": 0,
        "slot": "258",
        "type": "t_array(t_uint256)49_storage"
      },
      {
        "astId": 696,
        "contract": "contracts/staking/P12MineUpgradeable.sol:P12MineUpgradeable",
        "label": "_paused",
        "offset": 0,
        "slot": "307",
        "type": "t_bool"
      },
      {
        "astId": 801,
        "contract": "contracts/staking/P12MineUpgradeable.sol:P12MineUpgradeable",
        "label": "__gap",
        "offset": 0,
        "slot": "308",
        "type": "t_array(t_uint256)49_storage"
      }
    ],
    "types": {
      "t_address": {
        "encoding": "inplace",
        "label": "address",
        "numberOfBytes": "20"
      },
      "t_array(t_struct(PoolInfo)15250_storage)dyn_storage": {
        "base": "t_struct(PoolInfo)15250_storage",
        "encoding": "dynamic_array",
        "label": "struct P12MineStorage.PoolInfo[]",
        "numberOfBytes": "32"
      },
      "t_array(t_uint256)40_storage": {
        "base": "t_uint256",
        "encoding": "inplace",
        "label": "uint256[40]",
        "numberOfBytes": "1280"
      },
      "t_array(t_uint256)48_storage": {
        "base": "t_uint256",
        "encoding": "inplace",
        "label": "uint256[48]",
        "numberOfBytes": "1536"
      },
      "t_array(t_uint256)49_storage": {
        "base": "t_uint256",
        "encoding": "inplace",
        "label": "uint256[49]",
        "numberOfBytes": "1568"
      },
      "t_array(t_uint256)50_storage": {
        "base": "t_uint256",
        "encoding": "inplace",
        "label": "uint256[50]",
        "numberOfBytes": "1600"
      },
      "t_bool": {
        "encoding": "inplace",
        "label": "bool",
        "numberOfBytes": "1"
      },
      "t_bytes32": {
        "encoding": "inplace",
        "label": "bytes32",
        "numberOfBytes": "32"
      },
      "t_contract(IGaugeController)17435": {
        "encoding": "inplace",
        "label": "contract IGaugeController",
        "numberOfBytes": "20"
      },
      "t_contract(IP12RewardVault)17718": {
        "encoding": "inplace",
        "label": "contract IP12RewardVault",
        "numberOfBytes": "20"
      },
      "t_mapping(t_address,t_bytes32)": {
        "encoding": "mapping",
        "key": "t_address",
        "label": "mapping(address => bytes32)",
        "numberOfBytes": "32",
        "value": "t_bytes32"
      },
      "t_mapping(t_address,t_mapping(t_bytes32,t_struct(WithdrawInfo)15259_storage))": {
        "encoding": "mapping",
        "key": "t_address",
        "label": "mapping(address => mapping(bytes32 => struct P12MineStorage.WithdrawInfo))",
        "numberOfBytes": "32",
        "value": "t_mapping(t_bytes32,t_struct(WithdrawInfo)15259_storage)"
      },
      "t_mapping(t_address,t_mapping(t_uint256,t_uint256))": {
        "encoding": "mapping",
        "key": "t_address",
        "label": "mapping(address => mapping(uint256 => uint256))",
        "numberOfBytes": "32",
        "value": "t_mapping(t_uint256,t_uint256)"
      },
      "t_mapping(t_address,t_struct(UserInfo)15241_storage)": {
        "encoding": "mapping",
        "key": "t_address",
        "label": "mapping(address => struct P12MineStorage.UserInfo)",
        "numberOfBytes": "32",
        "value": "t_struct(UserInfo)15241_storage"
      },
      "t_mapping(t_address,t_uint256)": {
        "encoding": "mapping",
        "key": "t_address",
        "label": "mapping(address => uint256)",
        "numberOfBytes": "32",
        "value": "t_uint256"
      },
      "t_mapping(t_bytes32,t_struct(WithdrawInfo)15259_storage)": {
        "encoding": "mapping",
        "key": "t_bytes32",
        "label": "mapping(bytes32 => struct P12MineStorage.WithdrawInfo)",
        "numberOfBytes": "32",
        "value": "t_struct(WithdrawInfo)15259_storage"
      },
      "t_mapping(t_uint256,t_mapping(t_address,t_struct(UserInfo)15241_storage))": {
        "encoding": "mapping",
        "key": "t_uint256",
        "label": "mapping(uint256 => mapping(address => struct P12MineStorage.UserInfo))",
        "numberOfBytes": "32",
        "value": "t_mapping(t_address,t_struct(UserInfo)15241_storage)"
      },
      "t_mapping(t_uint256,t_uint256)": {
        "encoding": "mapping",
        "key": "t_uint256",
        "label": "mapping(uint256 => uint256)",
        "numberOfBytes": "32",
        "value": "t_uint256"
      },
      "t_struct(PoolInfo)15250_storage": {
        "encoding": "inplace",
        "label": "struct P12MineStorage.PoolInfo",
        "members": [
          {
            "astId": 15243,
            "contract": "contracts/staking/P12MineUpgradeable.sol:P12MineUpgradeable",
            "label": "lpToken",
            "offset": 0,
            "slot": "0",
            "type": "t_address"
          },
          {
            "astId": 15245,
            "contract": "contracts/staking/P12MineUpgradeable.sol:P12MineUpgradeable",
            "label": "accP12PerShare",
            "offset": 0,
            "slot": "1",
            "type": "t_uint256"
          },
          {
            "astId": 15247,
            "contract": "contracts/staking/P12MineUpgradeable.sol:P12MineUpgradeable",
            "label": "amount",
            "offset": 0,
            "slot": "2",
            "type": "t_uint256"
          },
          {
            "astId": 15249,
            "contract": "contracts/staking/P12MineUpgradeable.sol:P12MineUpgradeable",
            "label": "period",
            "offset": 0,
            "slot": "3",
            "type": "t_uint256"
          }
        ],
        "numberOfBytes": "128"
      },
      "t_struct(UserInfo)15241_storage": {
        "encoding": "inplace",
        "label": "struct P12MineStorage.UserInfo",
        "members": [
          {
            "astId": 15238,
            "contract": "contracts/staking/P12MineUpgradeable.sol:P12MineUpgradeable",
            "label": "amount",
            "offset": 0,
            "slot": "0",
            "type": "t_uint256"
          },
          {
            "astId": 15240,
            "contract": "contracts/staking/P12MineUpgradeable.sol:P12MineUpgradeable",
            "label": "rewardDebt",
            "offset": 0,
            "slot": "1",
            "type": "t_uint256"
          }
        ],
        "numberOfBytes": "64"
      },
      "t_struct(WithdrawInfo)15259_storage": {
        "encoding": "inplace",
        "label": "struct P12MineStorage.WithdrawInfo",
        "members": [
          {
            "astId": 15252,
            "contract": "contracts/staking/P12MineUpgradeable.sol:P12MineUpgradeable",
            "label": "who",
            "offset": 0,
            "slot": "0",
            "type": "t_address"
          },
          {
            "astId": 15254,
            "contract": "contracts/staking/P12MineUpgradeable.sol:P12MineUpgradeable",
            "label": "amount",
            "offset": 0,
            "slot": "1",
            "type": "t_uint256"
          },
          {
            "astId": 15256,
            "contract": "contracts/staking/P12MineUpgradeable.sol:P12MineUpgradeable",
            "label": "unlockTimestamp",
            "offset": 0,
            "slot": "2",
            "type": "t_uint256"
          },
          {
            "astId": 15258,
            "contract": "contracts/staking/P12MineUpgradeable.sol:P12MineUpgradeable",
            "label": "executed",
            "offset": 0,
            "slot": "3",
            "type": "t_bool"
          }
        ],
        "numberOfBytes": "128"
      },
      "t_uint256": {
        "encoding": "inplace",
        "label": "uint256",
        "numberOfBytes": "32"
      },
      "t_uint8": {
        "encoding": "inplace",
        "label": "uint8",
        "numberOfBytes": "1"
      }
    }
  }
}