{
  "address": "0xF7fd4112CFf5da535BBFa3811D40fE9Aa61FA722",
  "abi": [
    {
      "inputs": [],
      "name": "DeadlineReached",
      "type": "error"
    },
    {
      "inputs": [],
      "name": "ExecuteDelegateFail",
      "type": "error"
    },
    {
      "inputs": [],
      "name": "FeeCapExceed",
      "type": "error"
    },
    {
      "inputs": [],
      "name": "IntentNotMath",
      "type": "error"
    },
    {
      "inputs": [],
      "name": "InvalidDelegate",
      "type": "error"
    },
    {
      "inputs": [],
      "name": "ItemHashNotMatch",
      "type": "error"
    },
    {
      "inputs": [
        {
          "internalType": "bytes32",
          "name": "itemHash",
          "type": "bytes32"
        }
      ],
      "name": "ItemNotListed",
      "type": "error"
    },
    {
      "inputs": [],
      "name": "ItemPriceNotMath",
      "type": "error"
    },
    {
      "inputs": [],
      "name": "NetworkNotMatch",
      "type": "error"
    },
    {
      "inputs": [],
      "name": "NoPermission",
      "type": "error"
    },
    {
      "inputs": [],
      "name": "NotWhiteCurrency",
      "type": "error"
    },
    {
      "inputs": [],
      "name": "ReFundTokenFail",
      "type": "error"
    },
    {
      "inputs": [],
      "name": "SenderNotMatch",
      "type": "error"
    },
    {
      "inputs": [],
      "name": "SignatureNotMatch",
      "type": "error"
    },
    {
      "inputs": [],
      "name": "SignatureVersionNotMatch",
      "type": "error"
    },
    {
      "inputs": [],
      "name": "UnSafeCall",
      "type": "error"
    },
    {
      "inputs": [],
      "name": "ZeroAddressSet",
      "type": "error"
    },
    {
      "anonymous": false,
      "inputs": [
        {
          "indexed": false,
          "internalType": "address",
          "name": "previousAdmin",
          "type": "address"
        },
        {
          "indexed": false,
          "internalType": "address",
          "name": "newAdmin",
          "type": "address"
        }
      ],
      "name": "AdminChanged",
      "type": "event"
    },
    {
      "anonymous": false,
      "inputs": [
        {
          "indexed": true,
          "internalType": "address",
          "name": "beacon",
          "type": "address"
        }
      ],
      "name": "BeaconUpgraded",
      "type": "event"
    },
    {
      "anonymous": false,
      "inputs": [
        {
          "indexed": true,
          "internalType": "bytes32",
          "name": "itemHash",
          "type": "bytes32"
        }
      ],
      "name": "EvCancel",
      "type": "event"
    },
    {
      "anonymous": false,
      "inputs": [
        {
          "indexed": false,
          "internalType": "contract IERC20Upgradeable",
          "name": "currency",
          "type": "address"
        },
        {
          "indexed": false,
          "internalType": "bool",
          "name": "isRemoval",
          "type": "bool"
        }
      ],
      "name": "EvCurrency",
      "type": "event"
    },
    {
      "anonymous": false,
      "inputs": [
        {
          "indexed": false,
          "internalType": "address",
          "name": "delegate",
          "type": "address"
        },
        {
          "indexed": false,
          "internalType": "bool",
          "name": "isRemoval",
          "type": "bool"
        }
      ],
      "name": "EvDelegate",
      "type": "event"
    },
    {
      "anonymous": false,
      "inputs": [
        {
          "indexed": false,
          "internalType": "uint256",
          "name": "index",
          "type": "uint256"
        },
        {
          "indexed": false,
          "internalType": "bytes",
          "name": "error",
          "type": "bytes"
        }
      ],
      "name": "EvFailure",
      "type": "event"
    },
    {
      "anonymous": false,
      "inputs": [
        {
          "indexed": false,
          "internalType": "uint256",
          "name": "newValue",
          "type": "uint256"
        }
      ],
      "name": "EvFeeCapUpdate",
      "type": "event"
    },
    {
      "anonymous": false,
      "inputs": [
        {
          "indexed": true,
          "internalType": "bytes32",
          "name": "itemHash",
          "type": "bytes32"
        },
        {
          "indexed": false,
          "internalType": "address",
          "name": "maker",
          "type": "address"
        },
        {
          "indexed": false,
          "internalType": "address",
          "name": "taker",
          "type": "address"
        },
        {
          "indexed": false,
          "internalType": "uint256",
          "name": "orderSalt",
          "type": "uint256"
        },
        {
          "indexed": false,
          "internalType": "uint256",
          "name": "settleSalt",
          "type": "uint256"
        },
        {
          "indexed": false,
          "internalType": "uint256",
          "name": "intent",
          "type": "uint256"
        },
        {
          "indexed": false,
          "internalType": "uint256",
          "name": "delegateType",
          "type": "uint256"
        },
        {
          "indexed": false,
          "internalType": "uint256",
          "name": "deadline",
          "type": "uint256"
        },
        {
          "indexed": false,
          "internalType": "contract IERC20Upgradeable",
          "name": "currency",
          "type": "address"
        },
        {
          "components": [
            {
              "internalType": "uint256",
              "name": "price",
              "type": "uint256"
            },
            {
              "internalType": "bytes",
              "name": "data",
              "type": "bytes"
            }
          ],
          "indexed": false,
          "internalType": "struct Market.OrderItem",
          "name": "item",
          "type": "tuple"
        },
        {
          "components": [
            {
              "internalType": "enum Market.Op",
              "name": "op",
              "type": "uint8"
            },
            {
              "internalType": "uint256",
              "name": "orderIdx",
              "type": "uint256"
            },
            {
              "internalType": "uint256",
              "name": "itemIdx",
              "type": "uint256"
            },
            {
              "internalType": "uint256",
              "name": "price",
              "type": "uint256"
            },
            {
              "internalType": "bytes32",
              "name": "itemHash",
              "type": "bytes32"
            },
            {
              "internalType": "contract IDelegate",
              "name": "executionDelegate",
              "type": "address"
            },
            {
              "components": [
                {
                  "internalType": "uint256",
                  "name": "percentage",
                  "type": "uint256"
                },
                {
                  "internalType": "address",
                  "name": "to",
                  "type": "address"
                }
              ],
              "internalType": "struct Market.Fee[]",
              "name": "fees",
              "type": "tuple[]"
            }
          ],
          "indexed": false,
          "internalType": "struct Market.SettleDetail",
          "name": "detail",
          "type": "tuple"
        }
      ],
      "name": "EvInventory",
      "type": "event"
    },
    {
      "anonymous": false,
      "inputs": [
        {
          "indexed": false,
          "internalType": "bytes32",
          "name": "itemHash",
          "type": "bytes32"
        },
        {
          "indexed": false,
          "internalType": "address",
          "name": "currency",
          "type": "address"
        },
        {
          "indexed": false,
          "internalType": "address",
          "name": "to",
          "type": "address"
        },
        {
          "indexed": false,
          "internalType": "uint256",
          "name": "amount",
          "type": "uint256"
        }
      ],
      "name": "EvProfit",
      "type": "event"
    },
    {
      "anonymous": false,
      "inputs": [
        {
          "indexed": false,
          "internalType": "uint8",
          "name": "version",
          "type": "uint8"
        }
      ],
      "name": "Initialized",
      "type": "event"
    },
    {
      "anonymous": false,
      "inputs": [
        {
          "indexed": true,
          "internalType": "address",
          "name": "previousOwner",
          "type": "address"
        },
        {
          "indexed": true,
          "internalType": "address",
          "name": "newOwner",
          "type": "address"
        }
      ],
      "name": "OwnershipTransferred",
      "type": "event"
    },
    {
      "anonymous": false,
      "inputs": [
        {
          "indexed": false,
          "internalType": "address",
          "name": "account",
          "type": "address"
        }
      ],
      "name": "Paused",
      "type": "event"
    },
    {
      "anonymous": false,
      "inputs": [
        {
          "indexed": false,
          "internalType": "address",
          "name": "account",
          "type": "address"
        }
      ],
      "name": "Unpaused",
      "type": "event"
    },
    {
      "anonymous": false,
      "inputs": [
        {
          "indexed": true,
          "internalType": "address",
          "name": "implementation",
          "type": "address"
        }
      ],
      "name": "Upgraded",
      "type": "event"
    },
    {
      "inputs": [],
      "name": "RATE_BASE",
      "outputs": [
        {
          "internalType": "uint256",
          "name": "",
          "type": "uint256"
        }
      ],
      "stateMutability": "view",
      "type": "function"
    },
    {
      "inputs": [],
      "name": "claimOwnership",
      "outputs": [],
      "stateMutability": "nonpayable",
      "type": "function"
    },
    {
      "inputs": [
        {
          "internalType": "contract IERC20Upgradeable",
          "name": "",
          "type": "address"
        }
      ],
      "name": "currencies",
      "outputs": [
        {
          "internalType": "bool",
          "name": "",
          "type": "bool"
        }
      ],
      "stateMutability": "view",
      "type": "function"
    },
    {
      "inputs": [
        {
          "internalType": "address",
          "name": "",
          "type": "address"
        }
      ],
      "name": "delegates",
      "outputs": [
        {
          "internalType": "bool",
          "name": "",
          "type": "bool"
        }
      ],
      "stateMutability": "view",
      "type": "function"
    },
    {
      "inputs": [],
      "name": "domainSeparator",
      "outputs": [
        {
          "internalType": "bytes32",
          "name": "",
          "type": "bytes32"
        }
      ],
      "stateMutability": "view",
      "type": "function"
    },
    {
      "inputs": [],
      "name": "feeCapPct",
      "outputs": [
        {
          "internalType": "uint256",
          "name": "",
          "type": "uint256"
        }
      ],
      "stateMutability": "view",
      "type": "function"
    },
    {
      "inputs": [
        {
          "internalType": "address",
          "name": "owner_",
          "type": "address"
        },
        {
          "internalType": "uint256",
          "name": "feeCapPct_",
          "type": "uint256"
        },
        {
          "internalType": "address",
          "name": "weth_",
          "type": "address"
        }
      ],
      "name": "initialize",
      "outputs": [],
      "stateMutability": "nonpayable",
      "type": "function"
    },
    {
      "inputs": [
        {
          "internalType": "bytes32",
          "name": "",
          "type": "bytes32"
        }
      ],
      "name": "inventoryStatus",
      "outputs": [
        {
          "internalType": "enum Market.InvStatus",
          "name": "",
          "type": "uint8"
        }
      ],
      "stateMutability": "view",
      "type": "function"
    },
    {
      "inputs": [],
      "name": "owner",
      "outputs": [
        {
          "internalType": "address",
          "name": "",
          "type": "address"
        }
      ],
      "stateMutability": "view",
      "type": "function"
    },
    {
      "inputs": [],
      "name": "pause",
      "outputs": [],
      "stateMutability": "nonpayable",
      "type": "function"
    },
    {
      "inputs": [],
      "name": "paused",
      "outputs": [
        {
          "internalType": "bool",
          "name": "",
          "type": "bool"
        }
      ],
      "stateMutability": "view",
      "type": "function"
    },
    {
      "inputs": [],
      "name": "pendingOwner",
      "outputs": [
        {
          "internalType": "address",
          "name": "",
          "type": "address"
        }
      ],
      "stateMutability": "view",
      "type": "function"
    },
    {
      "inputs": [],
      "name": "proxiableUUID",
      "outputs": [
        {
          "internalType": "bytes32",
          "name": "",
          "type": "bytes32"
        }
      ],
      "stateMutability": "view",
      "type": "function"
    },
    {
      "inputs": [],
      "name": "renounceOwnership",
      "outputs": [],
      "stateMutability": "nonpayable",
      "type": "function"
    },
    {
      "inputs": [
        {
          "components": [
            {
              "components": [
                {
                  "internalType": "uint256",
                  "name": "salt",
                  "type": "uint256"
                },
                {
                  "internalType": "address",
                  "name": "user",
                  "type": "address"
                },
                {
                  "internalType": "uint256",
                  "name": "network",
                  "type": "uint256"
                },
                {
                  "internalType": "uint256",
                  "name": "intent",
                  "type": "uint256"
                },
                {
                  "internalType": "uint256",
                  "name": "delegateType",
                  "type": "uint256"
                },
                {
                  "internalType": "uint256",
                  "name": "deadline",
                  "type": "uint256"
                },
                {
                  "internalType": "contract IERC20Upgradeable",
                  "name": "currency",
                  "type": "address"
                },
                {
                  "components": [
                    {
                      "internalType": "uint256",
                      "name": "price",
                      "type": "uint256"
                    },
                    {
                      "internalType": "bytes",
                      "name": "data",
                      "type": "bytes"
                    }
                  ],
                  "internalType": "struct Market.OrderItem[]",
                  "name": "items",
                  "type": "tuple[]"
                },
                {
                  "internalType": "bytes32",
                  "name": "r",
                  "type": "bytes32"
                },
                {
                  "internalType": "bytes32",
                  "name": "s",
                  "type": "bytes32"
                },
                {
                  "internalType": "uint8",
                  "name": "v",
                  "type": "uint8"
                },
                {
                  "internalType": "uint8",
                  "name": "signVersion",
                  "type": "uint8"
                }
              ],
              "internalType": "struct Market.Order[]",
              "name": "orders",
              "type": "tuple[]"
            },
            {
              "components": [
                {
                  "internalType": "enum Market.Op",
                  "name": "op",
                  "type": "uint8"
                },
                {
                  "internalType": "uint256",
                  "name": "orderIdx",
                  "type": "uint256"
                },
                {
                  "internalType": "uint256",
                  "name": "itemIdx",
                  "type": "uint256"
                },
                {
                  "internalType": "uint256",
                  "name": "price",
                  "type": "uint256"
                },
                {
                  "internalType": "bytes32",
                  "name": "itemHash",
                  "type": "bytes32"
                },
                {
                  "internalType": "contract IDelegate",
                  "name": "executionDelegate",
                  "type": "address"
                },
                {
                  "components": [
                    {
                      "internalType": "uint256",
                      "name": "percentage",
                      "type": "uint256"
                    },
                    {
                      "internalType": "address",
                      "name": "to",
                      "type": "address"
                    }
                  ],
                  "internalType": "struct Market.Fee[]",
                  "name": "fees",
                  "type": "tuple[]"
                }
              ],
              "internalType": "struct Market.SettleDetail[]",
              "name": "details",
              "type": "tuple[]"
            },
            {
              "components": [
                {
                  "internalType": "uint256",
                  "name": "salt",
                  "type": "uint256"
                },
                {
                  "internalType": "uint256",
                  "name": "deadline",
                  "type": "uint256"
                },
                {
                  "internalType": "address",
                  "name": "user",
                  "type": "address"
                },
                {
                  "internalType": "bool",
                  "name": "canFail",
                  "type": "bool"
                }
              ],
              "internalType": "struct Market.SettleShared",
              "name": "shared",
              "type": "tuple"
            }
          ],
          "internalType": "struct Market.RunInput",
          "name": "input",
          "type": "tuple"
        }
      ],
      "name": "run",
      "outputs": [],
      "stateMutability": "payable",
      "type": "function"
    },
    {
      "inputs": [
        {
          "components": [
            {
              "internalType": "uint256",
              "name": "salt",
              "type": "uint256"
            },
            {
              "internalType": "address",
              "name": "user",
              "type": "address"
            },
            {
              "internalType": "uint256",
              "name": "network",
              "type": "uint256"
            },
            {
              "internalType": "uint256",
              "name": "intent",
              "type": "uint256"
            },
            {
              "internalType": "uint256",
              "name": "delegateType",
              "type": "uint256"
            },
            {
              "internalType": "uint256",
              "name": "deadline",
              "type": "uint256"
            },
            {
              "internalType": "contract IERC20Upgradeable",
              "name": "currency",
              "type": "address"
            },
            {
              "components": [
                {
                  "internalType": "uint256",
                  "name": "price",
                  "type": "uint256"
                },
                {
                  "internalType": "bytes",
                  "name": "data",
                  "type": "bytes"
                }
              ],
              "internalType": "struct Market.OrderItem[]",
              "name": "items",
              "type": "tuple[]"
            },
            {
              "internalType": "bytes32",
              "name": "r",
              "type": "bytes32"
            },
            {
              "internalType": "bytes32",
              "name": "s",
              "type": "bytes32"
            },
            {
              "internalType": "uint8",
              "name": "v",
              "type": "uint8"
            },
            {
              "internalType": "uint8",
              "name": "signVersion",
              "type": "uint8"
            }
          ],
          "internalType": "struct Market.Order",
          "name": "order",
          "type": "tuple"
        },
        {
          "components": [
            {
              "internalType": "uint256",
              "name": "salt",
              "type": "uint256"
            },
            {
              "internalType": "uint256",
              "name": "deadline",
              "type": "uint256"
            },
            {
              "internalType": "address",
              "name": "user",
              "type": "address"
            },
            {
              "internalType": "bool",
              "name": "canFail",
              "type": "bool"
            }
          ],
          "internalType": "struct Market.SettleShared",
          "name": "shared",
          "type": "tuple"
        },
        {
          "components": [
            {
              "internalType": "enum Market.Op",
              "name": "op",
              "type": "uint8"
            },
            {
              "internalType": "uint256",
              "name": "orderIdx",
              "type": "uint256"
            },
            {
              "internalType": "uint256",
              "name": "itemIdx",
              "type": "uint256"
            },
            {
              "internalType": "uint256",
              "name": "price",
              "type": "uint256"
            },
            {
              "internalType": "bytes32",
              "name": "itemHash",
              "type": "bytes32"
            },
            {
              "internalType": "contract IDelegate",
              "name": "executionDelegate",
              "type": "address"
            },
            {
              "components": [
                {
                  "internalType": "uint256",
                  "name": "percentage",
                  "type": "uint256"
                },
                {
                  "internalType": "address",
                  "name": "to",
                  "type": "address"
                }
              ],
              "internalType": "struct Market.Fee[]",
              "name": "fees",
              "type": "tuple[]"
            }
          ],
          "internalType": "struct Market.SettleDetail",
          "name": "detail",
          "type": "tuple"
        }
      ],
      "name": "runSingle",
      "outputs": [
        {
          "internalType": "uint256",
          "name": "",
          "type": "uint256"
        }
      ],
      "stateMutability": "nonpayable",
      "type": "function"
    },
    {
      "inputs": [
        {
          "internalType": "address",
          "name": "newOwner",
          "type": "address"
        },
        {
          "internalType": "bool",
          "name": "direct",
          "type": "bool"
        }
      ],
      "name": "transferOwnership",
      "outputs": [],
      "stateMutability": "nonpayable",
      "type": "function"
    },
    {
      "inputs": [],
      "name": "unpause",
      "outputs": [],
      "stateMutability": "nonpayable",
      "type": "function"
    },
    {
      "inputs": [
        {
          "internalType": "contract IERC20Upgradeable[]",
          "name": "toAdd",
          "type": "address[]"
        },
        {
          "internalType": "contract IERC20Upgradeable[]",
          "name": "toRemove",
          "type": "address[]"
        }
      ],
      "name": "updateCurrencies",
      "outputs": [],
      "stateMutability": "nonpayable",
      "type": "function"
    },
    {
      "inputs": [
        {
          "internalType": "address[]",
          "name": "toAdd",
          "type": "address[]"
        },
        {
          "internalType": "address[]",
          "name": "toRemove",
          "type": "address[]"
        }
      ],
      "name": "updateDelegates",
      "outputs": [],
      "stateMutability": "nonpayable",
      "type": "function"
    },
    {
      "inputs": [
        {
          "internalType": "uint256",
          "name": "val",
          "type": "uint256"
        }
      ],
      "name": "updateFeeCap",
      "outputs": [],
      "stateMutability": "nonpayable",
      "type": "function"
    },
    {
      "inputs": [
        {
          "internalType": "address",
          "name": "newImplementation",
          "type": "address"
        }
      ],
      "name": "upgradeTo",
      "outputs": [],
      "stateMutability": "nonpayable",
      "type": "function"
    },
    {
      "inputs": [
        {
          "internalType": "address",
          "name": "newImplementation",
          "type": "address"
        },
        {
          "internalType": "bytes",
          "name": "data",
          "type": "bytes"
        }
      ],
      "name": "upgradeToAndCall",
      "outputs": [],
      "stateMutability": "payable",
      "type": "function"
    },
    {
      "inputs": [
        {
          "components": [
            {
              "internalType": "uint256",
              "name": "salt",
              "type": "uint256"
            },
            {
              "internalType": "address",
              "name": "user",
              "type": "address"
            },
            {
              "internalType": "uint256",
              "name": "network",
              "type": "uint256"
            },
            {
              "internalType": "uint256",
              "name": "intent",
              "type": "uint256"
            },
            {
              "internalType": "uint256",
              "name": "delegateType",
              "type": "uint256"
            },
            {
              "internalType": "uint256",
              "name": "deadline",
              "type": "uint256"
            },
            {
              "internalType": "contract IERC20Upgradeable",
              "name": "currency",
              "type": "address"
            },
            {
              "components": [
                {
                  "internalType": "uint256",
                  "name": "price",
                  "type": "uint256"
                },
                {
                  "internalType": "bytes",
                  "name": "data",
                  "type": "bytes"
                }
              ],
              "internalType": "struct Market.OrderItem[]",
              "name": "items",
              "type": "tuple[]"
            },
            {
              "internalType": "bytes32",
              "name": "r",
              "type": "bytes32"
            },
            {
              "internalType": "bytes32",
              "name": "s",
              "type": "bytes32"
            },
            {
              "internalType": "uint8",
              "name": "v",
              "type": "uint8"
            },
            {
              "internalType": "uint8",
              "name": "signVersion",
              "type": "uint8"
            }
          ],
          "internalType": "struct Market.Order",
          "name": "order",
          "type": "tuple"
        }
      ],
      "name": "verifyOrderSignature",
      "outputs": [
        {
          "internalType": "bool",
          "name": "valid",
          "type": "bool"
        }
      ],
      "stateMutability": "view",
      "type": "function"
    },
    {
      "inputs": [],
      "name": "weth",
      "outputs": [
        {
          "internalType": "contract IWETHUpgradable",
          "name": "",
          "type": "address"
        }
      ],
      "stateMutability": "view",
      "type": "function"
    },
    {
      "stateMutability": "payable",
      "type": "receive"
    }
  ],
  "transactionHash": "0xefe9c4e3fb66552e466352a046f444969153251d7f3420c2881233b0a2426df8",
  "args": [],
  "numDeployments": 1,
  "solcInputHash": "bc492e94cb91a890f3895b6826360612",
  "bytecode": "0x60a06040523060805234801561001457600080fd5b506080516139dc61004c600039600081816104e801528181610531015281816106150152818161065501526106e801526139dc6000f3fe60806040526004361061016a5760003560e01c8063715018a6116100d15780639fb514671161008a578063c350a1b511610064578063c350a1b514610422578063e30c397814610442578063e59f739a14610460578063f698da251461048057600080fd5b80639fb51467146103d9578063a9041912146103ef578063b242e5341461040257600080fd5b8063715018a6146103145780638456cb59146103295780638c7c8f841461033e5780638da5cb5b1461035e578063912c860c1461037c57806395835fea146103b957600080fd5b80634e71e0c8116101235780634e71e0c81461025f5780634f1ef2861461027457806352d1902d14610287578063587cde1e1461029c5780635c975abb146102cc5780636036cba3146102e457600080fd5b80630873c6ec146101765780630e51e5da146101a05780631819ecc9146101d05780633659cfe6146101f05780633f4ba83a146102125780633fc8cef31461022757600080fd5b3661017157005b600080fd5b34801561018257600080fd5b5061018d620f424081565b6040519081526020015b60405180910390f35b3480156101ac57600080fd5b506101c06101bb366004612c16565b610496565b6040519015158152602001610197565b3480156101dc57600080fd5b5061018d6101eb366004612e0d565b6104a7565b3480156101fc57600080fd5b5061021061020b366004612e81565b6104de565b005b34801561021e57600080fd5b506102106105c6565b34801561023357600080fd5b50600254610247906001600160a01b031681565b6040516001600160a01b039091168152602001610197565b34801561026b57600080fd5b506102106105d8565b610210610282366004612e9e565b61060b565b34801561029357600080fd5b5061018d6106db565b3480156102a857600080fd5b506101c06102b7366004612e81565b60326020526000908152604090205460ff1681565b3480156102d857600080fd5b5060fe5460ff166101c0565b3480156102f057600080fd5b506101c06102ff366004612e81565b60336020526000908152604090205460ff1681565b34801561032057600080fd5b5061021061078f565b34801561033557600080fd5b506102106107a1565b34801561034a57600080fd5b50610210610359366004612f67565b6107b1565b34801561036a57600080fd5b5060cc546001600160a01b0316610247565b34801561038857600080fd5b506103ac610397366004612fc0565b60346020526000908152604090205460ff1681565b6040516101979190612fef565b3480156103c557600080fd5b506102106103d4366004612fc0565b610972565b3480156103e557600080fd5b5061018d60005481565b6102106103fd366004613093565b6109b5565b34801561040e57600080fd5b5061021061041d3660046131b1565b610cf9565b34801561042e57600080fd5b5061021061043d3660046131ea565b610d56565b34801561044e57600080fd5b5060cd546001600160a01b0316610247565b34801561046c57600080fd5b5061021061047b366004613277565b610f7b565b34801561048c57600080fd5b5061018d60015481565b60006104a182611138565b92915050565b60003330146104c95760405163476340bf60e11b815260040160405180910390fd5b6104d48484846111c3565b90505b9392505050565b6001600160a01b037f000000000000000000000000000000000000000000000000000000000000000016300361052f5760405162461bcd60e51b8152600401610526906132e2565b60405180910390fd5b7f00000000000000000000000000000000000000000000000000000000000000006001600160a01b0316610578600080516020613960833981519152546001600160a01b031690565b6001600160a01b03161461059e5760405162461bcd60e51b81526004016105269061332e565b6105a7816117ab565b604080516000808252602082019092526105c3918391906117b3565b50565b6105ce61191e565b6105d6611949565b565b60cd546001600160a01b0316331461060357604051639d7b369d60e01b815260040160405180910390fd5b6105d661199b565b6001600160a01b037f00000000000000000000000000000000000000000000000000000000000000001630036106535760405162461bcd60e51b8152600401610526906132e2565b7f00000000000000000000000000000000000000000000000000000000000000006001600160a01b031661069c600080516020613960833981519152546001600160a01b031690565b6001600160a01b0316146106c25760405162461bcd60e51b81526004016105269061332e565b6106cb826117ab565b6106d7828260016117b3565b5050565b6000306001600160a01b037f0000000000000000000000000000000000000000000000000000000000000000161461077b5760405162461bcd60e51b815260206004820152603860248201527f555550535570677261646561626c653a206d757374206e6f742062652063616c60448201527f6c6564207468726f7567682064656c656761746563616c6c00000000000000006064820152608401610526565b506000805160206139608339815191525b90565b61079761191e565b6105d66000611a04565b6107a961191e565b6105d6611a7a565b6107b961191e565b60005b8251811015610897576001603360008584815181106107dd576107dd61337a565b60200260200101516001600160a01b03166001600160a01b0316815260200190815260200160002060006101000a81548160ff0219169083151502179055507f394e2e27feefcc03344b82ebb5995989b1d85a589c0cba6643f4e87f774a89ee83828151811061084f5761084f61337a565b6020026020010151600060405161087d9291906001600160a01b039290921682521515602082015260400190565b60405180910390a18061088f816133a6565b9150506107bc565b5060005b815181101561096d57603360008383815181106108ba576108ba61337a565b60200260200101516001600160a01b03166001600160a01b0316815260200190815260200160002060006101000a81549060ff02191690557f394e2e27feefcc03344b82ebb5995989b1d85a589c0cba6643f4e87f774a89ee8282815181106109255761092561337a565b602002602001015160016040516109539291906001600160a01b039290921682521515602082015260400190565b60405180910390a180610965816133a6565b91505061089b565b505050565b61097a61191e565b60008190556040518181527f19fc3beddeea399f0966d5f8664ad94006f16a10fb28c4e2fe6fae62626b71289060200160405180910390a150565b600260365403610a075760405162461bcd60e51b815260206004820152601f60248201527f5265656e7472616e637947756172643a207265656e7472616e742063616c6c006044820152606401610526565b6002603655610a14611ab7565b428160400151602001511015610a3d5760405163b08ce5b360e01b815260040160405180910390fd5b8060400151604001516001600160a01b0316336001600160a01b031614610a775760405163afee98cf60e01b815260040160405180910390fd5b3460005b825151811015610ada57610aab83600001518281518110610a9e57610a9e61337a565b6020026020010151611138565b610ac857604051630510cc4560e01b815260040160405180910390fd5b80610ad2816133a6565b915050610a7b565b5060005b826020015151811015610cb657600083602001518281518110610b0357610b0361337a565b6020026020010151905060008460000151826020015181518110610b2957610b2961337a565b6020026020010151905084604001516060015115610c85576040808601519051631819ecc960e01b81523091631819ecc991610b6b9185918790600401613540565b6020604051808303816000875af1925050508015610ba6575060408051601f3d908101601f19168201909252610ba391810190613662565b60015b610c7357610bb261367b565b806308c379a003610c105750610bc6613696565b80610bd15750610c12565b7f97c789f43a3e7ac27906b5fbdac832f54441771021fba06f71207d9be6d4b6238482604051610c0292919061371f565b60405180910390a150610ca1565b505b3d808015610c3c576040519150601f19603f3d011682016040523d82523d6000602084013e610c41565b606091505b507f97c789f43a3e7ac27906b5fbdac832f54441771021fba06f71207d9be6d4b6238482604051610c0292919061371f565b610c7d8186613738565b945050610ca1565b610c94818660400151846111c3565b610c9e9085613738565b93505b50508080610cae906133a6565b915050610ade565b50604051339082156108fc029083906000818181858888f19350505050610cf05760405163091c2e1960e31b815260040160405180910390fd5b50506001603655565b610d0161191e565b6001600160a01b038216610d2857604051630ae8f22360e21b815260040160405180910390fd5b8015610d37576106d782611a04565b60cd80546001600160a01b0319166001600160a01b0384161790555050565b603554610100900460ff1615808015610d765750603554600160ff909116105b80610d905750303b158015610d90575060355460ff166001145b610df35760405162461bcd60e51b815260206004820152602e60248201527f496e697469616c697a61626c653a20636f6e747261637420697320616c72656160448201526d191e481a5b9a5d1a585b1a5e995960921b6064820152608401610526565b6035805460ff191660011790558015610e16576035805461ff0019166101001790555b6000839055600280546001600160a01b0319166001600160a01b038416179055604080518082018252600e81526d05031322053656372657453686f760941b6020918201528151808301835260058152640312e302e360dc1b9082015281517f8b73c3c69bb8fe3d512ecc4cf759cc79239f7b179b0ffacaa9a75d522b39400f9181018290527f33c9c717ac4f1d9042c21834c184a1e067e7806976206baad1ec9a5cc5aba1d0928101929092527f06c015bd22b4c69690933c1058878ebdfef31f9aaae40bbe86d8a09fe1b2972c60608301524660808301523060a08301529060c00160408051601f198184030181529190528051602090910120600155610f1d611afd565b610f25611b2b565b610f2e85611b5e565b508015610f75576035805461ff0019169055604051600181527f7f26b83ff96e1f2b6a682f133852f6798a09c465da95921460cefb38474024989060200160405180910390a15b50505050565b610f8361191e565b60005b8381101561105e57600160326000878785818110610fa657610fa661337a565b9050602002016020810190610fbb9190612e81565b6001600160a01b031681526020810191909152604001600020805460ff19169115159190911790557f4a31a64b928a0e8aff42ef84d144ffe82d08cb41c8027060593135e2026899b28585838181106110165761101661337a565b905060200201602081019061102b9190612e81565b604080516001600160a01b039092168252600060208301520160405180910390a180611056816133a6565b915050610f86565b5060005b8181101561113157603260008484848181106110805761108061337a565b90506020020160208101906110959190612e81565b6001600160a01b031681526020810191909152604001600020805460ff191690557f4a31a64b928a0e8aff42ef84d144ffe82d08cb41c8027060593135e2026899b28383838181106110e9576110e961337a565b90506020020160208101906110fe9190612e81565b604080516001600160a01b039092168252600160208301520160405180910390a180611129816133a6565b915050611062565b5050505050565b600080600160ff1683610160015160ff160361118957600061116460015461115f86611b8e565b611c5d565b905061118181856101400151866101000151876101200151611c9e565b9150506111a2565b60405163a1a0eb6360e01b815260040160405180910390fd5b82602001516001600160a01b0316816001600160a01b031614915050919050565b6000806000905060008560e001518460400151815181106111e6576111e661337a565b6020026020010151905060006111fc8783611cc6565b905084608001518114611222576040516332e1bad160e21b815260040160405180910390fd5b46876040015114611246576040516309969edb60e11b815260040160405180910390fd5b60a08501516001600160a01b0316158061127d575060a08501516001600160a01b031660009081526032602052604090205460ff16155b1561129b57604051632d618d8160e21b815260040160405180910390fd5b60c08701516001600160a01b031660009081526033602052604090205460ff166112d757604051623c6d7760e61b815260040160405180910390fd5b60208201516001865160038111156112f1576112f1612fd9565b0361149f5760008281526034602052604081205460ff16600281111561131957611319612fd9565b1461133a57604051631d1a5fef60e31b815260048101839052602401610526565b600188606001511461135f57604051636cca543160e01b815260040160405180910390fd5b428860a00151116113835760405163b08ce5b360e01b815260040160405180910390fd5b8251606087015110156113a9576040516365de7efb60e11b815260040160405180910390fd5b6000828152603460205260409020805460ff191660011790556113cc8887611cfd565b6113e38860c0015188604001518860600151611d86565b93508560a001516001600160a01b031663bc553f0f89602001518960400151846040518463ffffffff1660e01b81526004016114219392919061374f565b6020604051808303816000875af1158015611440573d6000803e3d6000fd5b505050506040513d601f19601f82011682018060405250810190611464919061377b565b61148157604051633e1e869560e01b815260040160405180910390fd5b61149a8289602001518a60c00151898a60600151611dc2565b611792565b6002865160038111156114b4576114b4612fd9565b0361165d5760008281526034602052604081205460ff1660028111156114dc576114dc612fd9565b146114fd57604051631d1a5fef60e31b815260048101839052602401610526565b600288606001511461152257604051636cca543160e01b815260040160405180910390fd5b428860a00151116115465760405163b08ce5b360e01b815260040160405180910390fd5b82516060870151101561156c576040516365de7efb60e11b815260040160405180910390fd5b6000828152603460205260409020805460ff1916600117905561158f8887611cfd565b6115a68860c0015189602001518860600151611d86565b93508560a001516001600160a01b031663bc553f0f88604001518a60200151846040518463ffffffff1660e01b81526004016115e49392919061374f565b6020604051808303816000875af1158015611603573d6000803e3d6000fd5b505050506040513d601f19601f82011682018060405250810190611627919061377b565b61164457604051633e1e869560e01b815260040160405180910390fd5b61149a8288604001518a60c00151898a60600151611dc2565b60038651600381111561167257611672612fd9565b036117515760008281526034602052604081205460ff16600281111561169a5761169a612fd9565b146116bb57604051631d1a5fef60e31b815260048101839052602401610526565b60208801516001600160a01b031633146116e85760405163afee98cf60e01b815260040160405180910390fd5b428860a001511161170c5760405163b08ce5b360e01b815260040160405180910390fd5b600082815260346020526040808220805460ff191660021790555183917f5b0b06d07e20243724d90e17a20034972f339eb28bd1c9437a71999bd15a1e7a91a2611792565b60405162461bcd60e51b8152602060048201526016602482015275053656372657453686f703a20756e6b6e6f776e206f760541b6044820152606401610526565b61179f8289858a8a611ee2565b50919695505050505050565b6105c361191e565b7f4910fdfa16fed3260ed0e7147f7cc6da11a60208b5b9406d12a635614ffd91435460ff16156117e65761096d83611f53565b826001600160a01b03166352d1902d6040518163ffffffff1660e01b8152600401602060405180830381865afa925050508015611840575060408051601f3d908101601f1916820190925261183d91810190613662565b60015b6118a35760405162461bcd60e51b815260206004820152602e60248201527f45524331393637557067726164653a206e657720696d706c656d656e7461746960448201526d6f6e206973206e6f74205555505360901b6064820152608401610526565b60008051602061396083398151915281146119125760405162461bcd60e51b815260206004820152602960248201527f45524331393637557067726164653a20756e737570706f727465642070726f786044820152681a58589b195555525160ba1b6064820152608401610526565b5061096d838383611fef565b60cc546001600160a01b031633146105d657604051639d7b369d60e01b815260040160405180910390fd5b611951612014565b60fe805460ff191690557f5db9ee0a495bf2e6ff9c91a7834c1ba4fdd244a5e8aa4e537bd38aeae4b073aa335b6040516001600160a01b03909116815260200160405180910390a1565b60cc5460cd546040516001600160a01b03928316929091169082907f8be0079c531659141344cd1fd0a4f28419497f9722a3daafe3b4186f6b6457e090600090a35060cd805460cc80546001600160a01b03199081166001600160a01b03841617909155169055565b7fb53127684a568b3173ae13b9f8a6016e243e63b6e8ee1178d6a717850b5d610381905560cc80546001600160a01b038084166001600160a01b0319831681179093556040519116919082907f8be0079c531659141344cd1fd0a4f28419497f9722a3daafe3b4186f6b6457e090600090a35050565b611a82611ab7565b60fe805460ff191660011790557f62e78cea01bee320cd4e420270b5ea74000d11b0c9f74754ebdbfc544b05a25861197e3390565b60fe5460ff16156105d65760405162461bcd60e51b815260206004820152601060248201526f14185d5cd8589b194e881c185d5cd95960821b6044820152606401610526565b603554610100900460ff16611b245760405162461bcd60e51b815260040161052690613798565b6001603655565b603554610100900460ff16611b525760405162461bcd60e51b815260040161052690613798565b60fe805460ff19169055565b603554610100900460ff16611b855760405162461bcd60e51b815260040161052690613798565b6105c381611a04565b60007f1897435d74cd983f2d094af2a83a02fd7acae45cbbee767ee4538a4c31bc79d6826000015183602001518460400151856060015186608001518760a001518860c001518960e0015151611be78b60e0015161205d565b60408051602081019b909b528a01989098526001600160a01b0396871660608a0152608089019590955260a088019390935260c087019190915260e0860152909116610100840152610120830152610140820152610160015b604051602081830303815290604052805190602001209050919050565b60405161190160f01b602082015260228101839052604281018290526000906062015b60405160208183030381529060405280519060200120905092915050565b6000806000611caf878787876120d4565b91509150611cbc816121c1565b5095945050505050565b81516020808401516040808601516060870151608088015160a089015160c08a01519451600098611c8098909796918b91016137e3565b81608001518160a001516001600160a01b0316632c436e5b6040518163ffffffff1660e01b8152600401602060405180830381865afa158015611d44573d6000803e3d6000fd5b505050506040513d601f19601f82011682018060405250810190611d689190613662565b146106d757604051632d618d8160e21b815260040160405180910390fd5b60008115611db8576001600160a01b038416611da35750806104d7565b611db86001600160a01b038516843085612377565b5060009392505050565b806000805b8460c0015151811015611e5a5760008560c001518281518110611dec57611dec61337a565b60200260200101519050806000015183611e06919061383c565b92506000620f4240826000015187611e1e9190613854565b611e289190613873565b9050611e348186613738565b9450611e45888360200151836123e2565b50508080611e52906133a6565b915050611dc7565b50806000541015611e7e5760405163598f6e1960e01b815260040160405180910390fd5b611e898587846123e2565b604080518881526001600160a01b0387811660208301528816818301526060810184905290517fe2c49856b032c255ae7e325d18109bc4e22a2804e2e49a017ec0f59f19cd447b9181900360800190a150505050505050565b847fbc7faddfa2d67a527d007c7779c5ce64b8a108c2fcbfe4b13a0b1d3551a1a175856020015184604001518760000151866000015189606001518a608001518b60a001518c60c001518c8b604051611f449a99989796959493929190613895565b60405180910390a25050505050565b6001600160a01b0381163b611fc05760405162461bcd60e51b815260206004820152602d60248201527f455243313936373a206e657720696d706c656d656e746174696f6e206973206e60448201526c1bdd08184818dbdb9d1c9858dd609a1b6064820152608401610526565b60008051602061396083398151915280546001600160a01b0319166001600160a01b0392909216919091179055565b611ff883612414565b6000825111806120055750805b1561096d57610f758383612454565b60fe5460ff166105d65760405162461bcd60e51b815260206004820152601460248201527314185d5cd8589b194e881b9bdd081c185d5cd95960621b6044820152606401610526565b6000606060005b83518110156120c557816120908583815181106120835761208361337a565b6020026020010151612548565b6040516020016120a192919061390e565b604051602081830303815290604052915080806120bd906133a6565b915050612064565b50805160209091012092915050565b6000807f7fffffffffffffffffffffffffffffff5d576e7357a4501ddfe92f46681b20a083111561210b57506000905060036121b8565b8460ff16601b1415801561212357508460ff16601c14155b1561213457506000905060046121b8565b6040805160008082526020820180845289905260ff881692820192909252606081018690526080810185905260019060a0016020604051602081039080840390855afa158015612188573d6000803e3d6000fd5b5050604051601f1901519150506001600160a01b0381166121b1576000600192509250506121b8565b9150600090505b94509492505050565b60008160048111156121d5576121d5612fd9565b036121dd5750565b60018160048111156121f1576121f1612fd9565b0361223e5760405162461bcd60e51b815260206004820152601860248201527f45434453413a20696e76616c6964207369676e617475726500000000000000006044820152606401610526565b600281600481111561225257612252612fd9565b0361229f5760405162461bcd60e51b815260206004820152601f60248201527f45434453413a20696e76616c6964207369676e6174757265206c656e677468006044820152606401610526565b60038160048111156122b3576122b3612fd9565b0361230b5760405162461bcd60e51b815260206004820152602260248201527f45434453413a20696e76616c6964207369676e6174757265202773272076616c604482015261756560f01b6064820152608401610526565b600481600481111561231f5761231f612fd9565b036105c35760405162461bcd60e51b815260206004820152602260248201527f45434453413a20696e76616c6964207369676e6174757265202776272076616c604482015261756560f01b6064820152608401610526565b6040516001600160a01b0380851660248301528316604482015260648101829052610f759085906323b872dd60e01b906084015b60408051601f198184030181529190526020810180516001600160e01b03166001600160e01b03199093169290921790915261259b565b801561096d576001600160a01b0383166124005761096d828261266d565b61096d6001600160a01b0384168383612786565b61241d81611f53565b6040516001600160a01b038216907fbc7cd75a20ee27fd9adebab32041f755214dbc6bffa90cc0225b39da2e5c2d3b90600090a250565b60606001600160a01b0383163b6124bc5760405162461bcd60e51b815260206004820152602660248201527f416464726573733a2064656c65676174652063616c6c20746f206e6f6e2d636f6044820152651b9d1c9858dd60d21b6064820152608401610526565b600080846001600160a01b0316846040516124d79190613930565b600060405180830381855af49150503d8060008114612512576040519150601f19603f3d011682016040523d82523d6000602084013e612517565b606091505b509150915061253f8282604051806060016040528060278152602001613980602791396127b6565b95945050505050565b8051602080830151805190820120604051600093611c40937fc3a0c300c66ade339734c0629cf933940eaccc55b682952080d263a95c718462939192019283526020830191909152604082015260600190565b60006125f0826040518060400160405280602081526020017f5361666545524332303a206c6f772d6c6576656c2063616c6c206661696c6564815250856001600160a01b03166127ef9092919063ffffffff16565b80519091501561096d578080602001905181019061260e919061377b565b61096d5760405162461bcd60e51b815260206004820152602a60248201527f5361666545524332303a204552433230206f7065726174696f6e20646964206e6044820152691bdd081cdd58d8d9595960b21b6064820152608401610526565b804710156126bd5760405162461bcd60e51b815260206004820152601d60248201527f416464726573733a20696e73756666696369656e742062616c616e63650000006044820152606401610526565b6000826001600160a01b03168260405160006040518083038185875af1925050503d806000811461270a576040519150601f19603f3d011682016040523d82523d6000602084013e61270f565b606091505b505090508061096d5760405162461bcd60e51b815260206004820152603a60248201527f416464726573733a20756e61626c6520746f2073656e642076616c75652c207260448201527f6563697069656e74206d617920686176652072657665727465640000000000006064820152608401610526565b6040516001600160a01b03831660248201526044810182905261096d90849063a9059cbb60e01b906064016123ab565b606083156127c55750816104d7565b8251156127d55782518084602001fd5b8160405162461bcd60e51b8152600401610526919061394c565b60606104d48484600085856001600160a01b0385163b6128515760405162461bcd60e51b815260206004820152601d60248201527f416464726573733a2063616c6c20746f206e6f6e2d636f6e74726163740000006044820152606401610526565b600080866001600160a01b0316858760405161286d9190613930565b60006040518083038185875af1925050503d80600081146128aa576040519150601f19603f3d011682016040523d82523d6000602084013e6128af565b606091505b50915091506128bf8282866127b6565b979650505050505050565b634e487b7160e01b600052604160045260246000fd5b604081018181106001600160401b03821117156128ff576128ff6128ca565b60405250565b606081018181106001600160401b03821117156128ff576128ff6128ca565b601f8201601f191681016001600160401b0381118282101715612949576129496128ca565b6040525050565b60405161018081016001600160401b0381118282101715612973576129736128ca565b60405290565b60405160e081016001600160401b0381118282101715612973576129736128ca565b6001600160a01b03811681146105c357600080fd5b80356129bb8161299b565b919050565b60006001600160401b038211156129d9576129d96128ca565b5060051b60200190565b600082601f8301126129f457600080fd5b81356001600160401b03811115612a0d57612a0d6128ca565b604051612a24601f8301601f191660200182612924565b818152846020838601011115612a3957600080fd5b816020850160208301376000918101602001919091529392505050565b600082601f830112612a6757600080fd5b81356020612a74826129c0565b60408051612a828382612924565b84815260059490941b8601830193838101925087851115612aa257600080fd5b8387015b85811015612b235780356001600160401b0380821115612ac65760008081fd5b90890190818b03601f1901851315612ade5760008081fd5b8451612ae9816128e0565b8783013581528583013582811115612b015760008081fd5b612b0f8d8a838701016129e3565b828a01525086525050928401928401612aa6565b50979650505050505050565b803560ff811681146129bb57600080fd5b60006101808284031215612b5357600080fd5b612b5b612950565b905081358152612b6d602083016129b0565b602082015260408201356040820152606082013560608201526080820135608082015260a082013560a0820152612ba660c083016129b0565b60c082015260e08201356001600160401b03811115612bc457600080fd5b612bd084828501612a56565b60e08301525061010082810135908201526101208083013590820152610140612bfa818401612b2f565b90820152610160612c0c838201612b2f565b9082015292915050565b600060208284031215612c2857600080fd5b81356001600160401b03811115612c3e57600080fd5b612c4a84828501612b40565b949350505050565b80151581146105c357600080fd5b600060808284031215612c7257600080fd5b604051608081018181106001600160401b0382111715612c9457612c946128ca565b806040525080915082358152602083013560208201526040830135612cb88161299b565b60408201526060830135612ccb81612c52565b6060919091015292915050565b8035600481106129bb57600080fd5b600082601f830112612cf857600080fd5b81356020612d05826129c0565b60408051612d138382612924565b84815260069490941b8601830193838101925087851115612d3357600080fd5b8387015b85811015612b235782818a031215612d4f5760008081fd5b8251612d5a816128e0565b8135815285820135612d6b8161299b565b818701528452928401928201612d37565b600060e08284031215612d8e57600080fd5b612d96612979565b9050612da182612cd8565b815260208201356020820152604082013560408201526060820135606082015260808201356080820152612dd760a083016129b0565b60a082015260c08201356001600160401b03811115612df557600080fd5b612e0184828501612ce7565b60c08301525092915050565b600080600060c08486031215612e2257600080fd5b83356001600160401b0380821115612e3957600080fd5b612e4587838801612b40565b9450612e548760208801612c60565b935060a0860135915080821115612e6a57600080fd5b50612e7786828701612d7c565b9150509250925092565b600060208284031215612e9357600080fd5b81356104d78161299b565b60008060408385031215612eb157600080fd5b8235612ebc8161299b565b915060208301356001600160401b03811115612ed757600080fd5b612ee3858286016129e3565b9150509250929050565b600082601f830112612efe57600080fd5b81356020612f0b826129c0565b604051612f188282612924565b83815260059390931b8501820192828101915086841115612f3857600080fd5b8286015b84811015612f5c578035612f4f8161299b565b8352918301918301612f3c565b509695505050505050565b60008060408385031215612f7a57600080fd5b82356001600160401b0380821115612f9157600080fd5b612f9d86838701612eed565b93506020850135915080821115612fb357600080fd5b50612ee385828601612eed565b600060208284031215612fd257600080fd5b5035919050565b634e487b7160e01b600052602160045260246000fd5b602081016003831061300357613003612fd9565b91905290565b600082601f83011261301a57600080fd5b81356020613027826129c0565b6040516130348282612924565b83815260059390931b850182019282810191508684111561305457600080fd5b8286015b84811015612f5c5780356001600160401b038111156130775760008081fd5b6130858986838b0101612d7c565b845250918301918301613058565b600060208083850312156130a657600080fd5b82356001600160401b03808211156130bd57600080fd5b9084019060c082870312156130d157600080fd5b6040516130dd81612905565b8235828111156130ec57600080fd5b8301601f810188136130fd57600080fd5b8035613108816129c0565b6040516131158282612924565b82815260059290921b830187019187810191508a83111561313557600080fd5b8784015b8381101561316d578035878111156131515760008081fd5b61315f8d8b83890101612b40565b845250918801918801613139565b508452505050828401358281111561318457600080fd5b61319088828601613009565b85830152506131a28760408501612c60565b60408201529695505050505050565b600080604083850312156131c457600080fd5b82356131cf8161299b565b915060208301356131df81612c52565b809150509250929050565b6000806000606084860312156131ff57600080fd5b833561320a8161299b565b92506020840135915060408401356132218161299b565b809150509250925092565b60008083601f84011261323e57600080fd5b5081356001600160401b0381111561325557600080fd5b6020830191508360208260051b850101111561327057600080fd5b9250929050565b6000806000806040858703121561328d57600080fd5b84356001600160401b03808211156132a457600080fd5b6132b08883890161322c565b909650945060208701359150808211156132c957600080fd5b506132d68782880161322c565b95989497509550505050565b6020808252602c908201527f46756e6374696f6e206d7573742062652063616c6c6564207468726f7567682060408201526b19195b1959d85d1958d85b1b60a21b606082015260800190565b6020808252602c908201527f46756e6374696f6e206d7573742062652063616c6c6564207468726f7567682060408201526b6163746976652070726f787960a01b606082015260800190565b634e487b7160e01b600052603260045260246000fd5b634e487b7160e01b600052601160045260246000fd5b6000600182016133b8576133b8613390565b5060010190565b60005b838110156133da5781810151838201526020016133c2565b83811115610f755750506000910152565b600081518084526134038160208601602086016133bf565b601f01601f19169290920160200192915050565b805182526000602082015160406020850152612c4a60408501826133eb565b600081518084526020808501808196508360051b8101915082860160005b8581101561347e57828403895261346c848351613417565b98850198935090840190600101613454565b5091979650505050505050565b600060e083018251600481106134a3576134a3612fd9565b84526020838101518186015260408085015181870152606080860151908701526080808601519087015260a0808601516001600160a01b039081169188019190915260c08087015160e091890191909152805194859052830193600091906101008901905b8084101561353357865180518352860151831686830152958501956001939093019290840190613508565b5098975050505050505050565b60c08152835160c08201526000602085015161356760e08401826001600160a01b03169052565b506040850151610100818185015260608701519150610120828186015260808801519250610140838187015260a08901519350610160848188015260c08a015194506101806135c0818901876001600160a01b03169052565b60e08b01519550806101a0890152506135dd610240880186613436565b938a01516101c0880152918901516101e087015288015160ff9081166102008701529088015190811661022086015290915050613646602084018680518252602080820151908301526040808201516001600160a01b0316908301526060908101511515910152565b82810360a0840152613658818561348b565b9695505050505050565b60006020828403121561367457600080fd5b5051919050565b600060033d111561078c5760046000803e5060005160e01c90565b600060443d10156136a45790565b6040516003193d81016004833e81513d6001600160401b0381602484011181841117156136d357505050505090565b82850191508151818111156136eb5750505050505090565b843d87010160208285010111156137055750505050505090565b61371460208286010187612924565b509095945050505050565b8281526040602082015260006104d460408301846133eb565b60008282101561374a5761374a613390565b500390565b6001600160a01b0384811682528316602082015260606040820181905260009061253f908301846133eb565b60006020828403121561378d57600080fd5b81516104d781612c52565b6020808252602b908201527f496e697469616c697a61626c653a20636f6e7472616374206973206e6f74206960408201526a6e697469616c697a696e6760a81b606082015260800190565b60006101008a835260018060a01b03808b1660208501528960408501528860608501528760808501528660a085015280861660c0850152508060e084015261382d81840185613417565b9b9a5050505050505050505050565b6000821982111561384f5761384f613390565b500190565b600081600019048311821515161561386e5761386e613390565b500290565b60008261389057634e487b7160e01b600052601260045260246000fd5b500490565b600061014060018060a01b03808e168452808d1660208501528b60408501528a60608501528960808501528860a08501528760c085015280871660e085015250806101008401526138e881840186613417565b90508281036101208401526138fd818561348b565b9d9c50505050505050505050505050565b600083516139208184602088016133bf565b9190910191825250602001919050565b600082516139428184602087016133bf565b9190910192915050565b6020815260006104d760208301846133eb56fe360894a13ba1a3210667c828492db98dca3e2076cc3735a920a3ca505d382bbc416464726573733a206c6f772d6c6576656c2064656c65676174652063616c6c206661696c6564a2646970667358221220ae062eb1ed722eed32af3820192164bc46d71c9f249b171410ba246307b5fe1064736f6c634300080f0033",
  "devdoc": {
    "errors": {
      "DeadlineReached()": [
        {
          "details": "signature deadline reached"
        }
      ],
      "ExecuteDelegateFail()": [
        {
          "details": "delegate execute fail"
        }
      ],
      "FeeCapExceed()": [
        {
          "details": "fee cap exceed"
        }
      ],
      "IntentNotMath()": [
        {
          "details": "intent not match"
        }
      ],
      "InvalidDelegate()": [
        {
          "details": "invalid delegate parameter"
        }
      ],
      "ItemHashNotMatch()": [
        {
          "details": "itemHash not match to data hashed"
        }
      ],
      "ItemNotListed(bytes32)": [
        {
          "details": "item cannot be traded because sold or cancelled;"
        }
      ],
      "ItemPriceNotMath()": [
        {
          "details": "price not match, such as price given is lower than price offered now"
        }
      ],
      "NetworkNotMatch()": [
        {
          "details": "chain Id not match"
        }
      ],
      "NotWhiteCurrency()": [
        {
          "details": "wrong currency, the erc20 currency is not allowed"
        }
      ],
      "ReFundTokenFail()": [
        {
          "details": "refund extra token fail"
        }
      ],
      "SenderNotMatch()": [
        {
          "details": "msg.sender is not the address in data"
        }
      ],
      "SignatureNotMatch()": [
        {
          "details": "signature not match to msg.sender;"
        }
      ],
      "SignatureVersionNotMatch()": [
        {
          "details": "signature version not match"
        }
      ],
      "UnSafeCall()": [
        {
          "details": "restrict the caller must be address(this)"
        }
      ]
    },
    "kind": "dev",
    "methods": {
      "claimOwnership()": {
        "details": "pending owner call this function to claim ownership"
      },
      "initialize(address,uint256,address)": {
        "details": "initialize",
        "params": {
          "feeCapPct_": "max fee percentage",
          "weth_": "address of wrapped eth"
        }
      },
      "owner()": {
        "details": "Returns the address of the current owner."
      },
      "paused()": {
        "details": "Returns true if the contract is paused, and false otherwise."
      },
      "pendingOwner()": {
        "details": "Return the address of the pending owner"
      },
      "proxiableUUID()": {
        "details": "Implementation of the ERC1822 {proxiableUUID} function. This returns the storage slot used by the implementation. It is used to validate that the this implementation remains valid after an upgrade. IMPORTANT: A proxy pointing at a proxiable contract should not be considered proxiable itself, because this risks bricking a proxy that upgrades to it, by delegating to itself until out of gas. Thus it is critical that this function revert if invoked through a proxy. This is guaranteed by the `notDelegated` modifier."
      },
      "renounceOwnership()": {
        "details": "Leaves the contract without owner. It will not be possible to call `onlyOwner` functions anymore. Can only be called by the current owner. NOTE: Renouncing ownership will leave the contract without an owner, thereby removing any functionality that is only available to the owner."
      },
      "run(((uint256,address,uint256,uint256,uint256,uint256,address,(uint256,bytes)[],bytes32,bytes32,uint8,uint8)[],(uint8,uint256,uint256,uint256,bytes32,address,(uint256,address)[])[],(uint256,uint256,address,bool)))": {
        "details": "Entry of a contract call",
        "params": {
          "input": "a struct that contains all data"
        }
      },
      "runSingle((uint256,address,uint256,uint256,uint256,uint256,address,(uint256,bytes)[],bytes32,bytes32,uint8,uint8),(uint256,uint256,address,bool),(uint8,uint256,uint256,uint256,bytes32,address,(uint256,address)[]))": {
        "details": "run a single order",
        "params": {
          "detail": "detail by the taker",
          "order": "order by the maker",
          "shared": "some option of the taker"
        }
      },
      "transferOwnership(address,bool)": {
        "details": "Transfers ownership of the contract to a new account (`newOwner`). Can only be called by the current owner. Note If direct is false, it will set an pending owner and the OwnerShipTransferring only happens when the pending owner claim the ownership"
      },
      "updateCurrencies(address[],address[])": {
        "details": "update Currencies address",
        "params": {
          "toAdd": "the array of currency address that want to add",
          "toRemove": "the array to currency address that want to remove"
        }
      },
      "updateDelegates(address[],address[])": {
        "details": "update Delegates address",
        "params": {
          "toAdd": "the array of delegate address that want to add",
          "toRemove": "the array to delegate address that want to remove"
        }
      },
      "updateFeeCap(uint256)": {
        "params": {
          "val": "new Fee Cap"
        }
      },
      "upgradeTo(address)": {
        "details": "Upgrade the implementation of the proxy to `newImplementation`. Calls {_authorizeUpgrade}. Emits an {Upgraded} event."
      },
      "upgradeToAndCall(address,bytes)": {
        "details": "Upgrade the implementation of the proxy to `newImplementation`, and subsequently execute the function call encoded in `data`. Calls {_authorizeUpgrade}. Emits an {Upgraded} event."
      },
      "verifyOrderSignature((uint256,address,uint256,uint256,uint256,uint256,address,(uint256,bytes)[],bytes32,bytes32,uint8,uint8))": {
        "details": "verify whether the order data is real, necessary for security",
        "params": {
          "order": "order by the maker"
        }
      }
    },
    "stateVariables": {
      "RATE_BASE": {
        "details": "precision of the parameters "
      }
    },
    "version": 1
  },
  "userdoc": {
    "kind": "user",
    "methods": {},
    "version": 1
  },
  "storageLayout": {
    "storage": [
      {
        "astId": 11729,
        "contract": "contracts/secretShop/SecretShopUpgradable.sol:SecretShopUpgradable",
        "label": "feeCapPct",
        "offset": 0,
        "slot": "0",
        "type": "t_uint256"
      },
      {
        "astId": 11732,
        "contract": "contracts/secretShop/SecretShopUpgradable.sol:SecretShopUpgradable",
        "label": "domainSeparator",
        "offset": 0,
        "slot": "1",
        "type": "t_bytes32"
      },
      {
        "astId": 11735,
        "contract": "contracts/secretShop/SecretShopUpgradable.sol:SecretShopUpgradable",
        "label": "weth",
        "offset": 0,
        "slot": "2",
        "type": "t_contract(IWETHUpgradable)13283"
      },
      {
        "astId": 11739,
        "contract": "contracts/secretShop/SecretShopUpgradable.sol:SecretShopUpgradable",
        "label": "__gap",
        "offset": 0,
        "slot": "3",
        "type": "t_array(t_uint256)47_storage"
      },
      {
        "astId": 11744,
        "contract": "contracts/secretShop/SecretShopUpgradable.sol:SecretShopUpgradable",
        "label": "delegates",
        "offset": 0,
        "slot": "50",
        "type": "t_mapping(t_address,t_bool)"
      },
      {
        "astId": 11750,
        "contract": "contracts/secretShop/SecretShopUpgradable.sol:SecretShopUpgradable",
        "label": "currencies",
        "offset": 0,
        "slot": "51",
        "type": "t_mapping(t_contract(IERC20Upgradeable)939,t_bool)"
      },
      {
        "astId": 11756,
        "contract": "contracts/secretShop/SecretShopUpgradable.sol:SecretShopUpgradable",
        "label": "inventoryStatus",
        "offset": 0,
        "slot": "52",
        "type": "t_mapping(t_bytes32,t_enum(InvStatus)11712)"
      },
      {
        "astId": 395,
        "contract": "contracts/secretShop/SecretShopUpgradable.sol:SecretShopUpgradable",
        "label": "_initialized",
        "offset": 0,
        "slot": "53",
        "type": "t_uint8"
      },
      {
        "astId": 398,
        "contract": "contracts/secretShop/SecretShopUpgradable.sol:SecretShopUpgradable",
        "label": "_initializing",
        "offset": 1,
        "slot": "53",
        "type": "t_bool"
      },
      {
        "astId": 816,
        "contract": "contracts/secretShop/SecretShopUpgradable.sol:SecretShopUpgradable",
        "label": "_status",
        "offset": 0,
        "slot": "54",
        "type": "t_uint256"
      },
      {
        "astId": 860,
        "contract": "contracts/secretShop/SecretShopUpgradable.sol:SecretShopUpgradable",
        "label": "__gap",
        "offset": 0,
        "slot": "55",
        "type": "t_array(t_uint256)49_storage"
      },
      {
        "astId": 1540,
        "contract": "contracts/secretShop/SecretShopUpgradable.sol:SecretShopUpgradable",
        "label": "__gap",
        "offset": 0,
        "slot": "104",
        "type": "t_array(t_uint256)50_storage"
      },
      {
        "astId": 377,
        "contract": "contracts/secretShop/SecretShopUpgradable.sol:SecretShopUpgradable",
        "label": "__gap",
        "offset": 0,
        "slot": "154",
        "type": "t_array(t_uint256)50_storage"
      },
      {
        "astId": 8312,
        "contract": "contracts/secretShop/SecretShopUpgradable.sol:SecretShopUpgradable",
        "label": "_owner",
        "offset": 0,
        "slot": "204",
        "type": "t_address"
      },
      {
        "astId": 8314,
        "contract": "contracts/secretShop/SecretShopUpgradable.sol:SecretShopUpgradable",
        "label": "_pendingOwner",
        "offset": 0,
        "slot": "205",
        "type": "t_address"
      },
      {
        "astId": 8516,
        "contract": "contracts/secretShop/SecretShopUpgradable.sol:SecretShopUpgradable",
        "label": "__gap",
        "offset": 0,
        "slot": "206",
        "type": "t_array(t_uint256)48_storage"
      },
      {
        "astId": 696,
        "contract": "contracts/secretShop/SecretShopUpgradable.sol:SecretShopUpgradable",
        "label": "_paused",
        "offset": 0,
        "slot": "254",
        "type": "t_bool"
      },
      {
        "astId": 801,
        "contract": "contracts/secretShop/SecretShopUpgradable.sol:SecretShopUpgradable",
        "label": "__gap",
        "offset": 0,
        "slot": "255",
        "type": "t_array(t_uint256)49_storage"
      },
      {
        "astId": 674,
        "contract": "contracts/secretShop/SecretShopUpgradable.sol:SecretShopUpgradable",
        "label": "__gap",
        "offset": 0,
        "slot": "304",
        "type": "t_array(t_uint256)50_storage"
      }
    ],
    "types": {
      "t_address": {
        "encoding": "inplace",
        "label": "address",
        "numberOfBytes": "20"
      },
      "t_array(t_uint256)47_storage": {
        "base": "t_uint256",
        "encoding": "inplace",
        "label": "uint256[47]",
        "numberOfBytes": "1504"
      },
      "t_array(t_uint256)48_storage": {
        "base": "t_uint256",
        "encoding": "inplace",
        "label": "uint256[48]",
        "numberOfBytes": "1536"
      },
      "t_array(t_uint256)49_storage": {
        "base": "t_uint256",
        "encoding": "inplace",
        "label": "uint256[49]",
        "numberOfBytes": "1568"
      },
      "t_array(t_uint256)50_storage": {
        "base": "t_uint256",
        "encoding": "inplace",
        "label": "uint256[50]",
        "numberOfBytes": "1600"
      },
      "t_bool": {
        "encoding": "inplace",
        "label": "bool",
        "numberOfBytes": "1"
      },
      "t_bytes32": {
        "encoding": "inplace",
        "label": "bytes32",
        "numberOfBytes": "32"
      },
      "t_contract(IERC20Upgradeable)939": {
        "encoding": "inplace",
        "label": "contract IERC20Upgradeable",
        "numberOfBytes": "20"
      },
      "t_contract(IWETHUpgradable)13283": {
        "encoding": "inplace",
        "label": "contract IWETHUpgradable",
        "numberOfBytes": "20"
      },
      "t_enum(InvStatus)11712": {
        "encoding": "inplace",
        "label": "enum Market.InvStatus",
        "numberOfBytes": "1"
      },
      "t_mapping(t_address,t_bool)": {
        "encoding": "mapping",
        "key": "t_address",
        "label": "mapping(address => bool)",
        "numberOfBytes": "32",
        "value": "t_bool"
      },
      "t_mapping(t_bytes32,t_enum(InvStatus)11712)": {
        "encoding": "mapping",
        "key": "t_bytes32",
        "label": "mapping(bytes32 => enum Market.InvStatus)",
        "numberOfBytes": "32",
        "value": "t_enum(InvStatus)11712"
      },
      "t_mapping(t_contract(IERC20Upgradeable)939,t_bool)": {
        "encoding": "mapping",
        "key": "t_contract(IERC20Upgradeable)939",
        "label": "mapping(contract IERC20Upgradeable => bool)",
        "numberOfBytes": "32",
        "value": "t_bool"
      },
      "t_uint256": {
        "encoding": "inplace",
        "label": "uint256",
        "numberOfBytes": "32"
      },
      "t_uint8": {
        "encoding": "inplace",
        "label": "uint8",
        "numberOfBytes": "1"
      }
    }
  }
}