{
  "address": "0x6D819C5bC4817c9A0B78bc4cFf3176C71D41E021",
  "abi": [
    {
      "inputs": [
        {
          "internalType": "address",
          "name": "owner_",
          "type": "address"
        },
        {
          "internalType": "address",
          "name": "p12TokenAddr_",
          "type": "address"
        },
        {
          "internalType": "string",
          "name": "name_",
          "type": "string"
        },
        {
          "internalType": "string",
          "name": "symbol_",
          "type": "string"
        }
      ],
      "stateMutability": "nonpayable",
      "type": "constructor"
    },
    {
      "inputs": [],
      "name": "CannotWithdraw",
      "type": "error"
    },
    {
      "inputs": [],
      "name": "ContractStopped",
      "type": "error"
    },
    {
      "inputs": [],
      "name": "InValidBlockNumber",
      "type": "error"
    },
    {
      "inputs": [],
      "name": "InvalidValue",
      "type": "error"
    },
    {
      "inputs": [],
      "name": "LockExisted",
      "type": "error"
    },
    {
      "inputs": [],
      "name": "LockExpired",
      "type": "error"
    },
    {
      "inputs": [],
      "name": "LockTimeTooLong",
      "type": "error"
    },
    {
      "inputs": [],
      "name": "LockTimeTooShort",
      "type": "error"
    },
    {
      "inputs": [],
      "name": "NoExistedLock",
      "type": "error"
    },
    {
      "inputs": [],
      "name": "NoPermission",
      "type": "error"
    },
    {
      "inputs": [],
      "name": "ZeroAddressSet",
      "type": "error"
    },
    {
      "anonymous": false,
      "inputs": [
        {
          "indexed": true,
          "internalType": "address",
          "name": "provider",
          "type": "address"
        },
        {
          "indexed": false,
          "internalType": "uint256",
          "name": "value",
          "type": "uint256"
        },
        {
          "indexed": true,
          "internalType": "uint256",
          "name": "lockTime",
          "type": "uint256"
        },
        {
          "indexed": false,
          "internalType": "enum VotingEscrow.OperationType",
          "name": "t",
          "type": "uint8"
        },
        {
          "indexed": false,
          "internalType": "uint256",
          "name": "ts",
          "type": "uint256"
        }
      ],
      "name": "Deposit",
      "type": "event"
    },
    {
      "anonymous": false,
      "inputs": [
        {
          "indexed": false,
          "internalType": "address",
          "name": "addr",
          "type": "address"
        },
        {
          "indexed": false,
          "internalType": "uint256",
          "name": "timestamp",
          "type": "uint256"
        }
      ],
      "name": "Expired",
      "type": "event"
    },
    {
      "anonymous": false,
      "inputs": [
        {
          "indexed": true,
          "internalType": "address",
          "name": "previousOwner",
          "type": "address"
        },
        {
          "indexed": true,
          "internalType": "address",
          "name": "newOwner",
          "type": "address"
        }
      ],
      "name": "OwnershipTransferred",
      "type": "event"
    },
    {
      "anonymous": false,
      "inputs": [
        {
          "indexed": false,
          "internalType": "address",
          "name": "account",
          "type": "address"
        }
      ],
      "name": "Paused",
      "type": "event"
    },
    {
      "anonymous": false,
      "inputs": [
        {
          "indexed": false,
          "internalType": "uint256",
          "name": "prevTotalLockedP12",
          "type": "uint256"
        },
        {
          "indexed": false,
          "internalType": "uint256",
          "name": "totalLockedP12",
          "type": "uint256"
        }
      ],
      "name": "TotalLocked",
      "type": "event"
    },
    {
      "anonymous": false,
      "inputs": [
        {
          "indexed": false,
          "internalType": "address",
          "name": "account",
          "type": "address"
        }
      ],
      "name": "Unpaused",
      "type": "event"
    },
    {
      "anonymous": false,
      "inputs": [
        {
          "indexed": true,
          "internalType": "address",
          "name": "provider",
          "type": "address"
        },
        {
          "indexed": false,
          "internalType": "uint256",
          "name": "value",
          "type": "uint256"
        },
        {
          "indexed": false,
          "internalType": "uint256",
          "name": "ts",
          "type": "uint256"
        }
      ],
      "name": "Withdraw",
      "type": "event"
    },
    {
      "inputs": [
        {
          "internalType": "address",
          "name": "addr",
          "type": "address"
        }
      ],
      "name": "balanceOf",
      "outputs": [
        {
          "internalType": "int256",
          "name": "",
          "type": "int256"
        }
      ],
      "stateMutability": "view",
      "type": "function"
    },
    {
      "inputs": [
        {
          "internalType": "address",
          "name": "addr",
          "type": "address"
        },
        {
          "internalType": "uint256",
          "name": "blk",
          "type": "uint256"
        }
      ],
      "name": "balanceOfAt",
      "outputs": [
        {
          "internalType": "int256",
          "name": "",
          "type": "int256"
        }
      ],
      "stateMutability": "view",
      "type": "function"
    },
    {
      "inputs": [],
      "name": "checkPoint",
      "outputs": [],
      "stateMutability": "nonpayable",
      "type": "function"
    },
    {
      "inputs": [],
      "name": "claimOwnership",
      "outputs": [],
      "stateMutability": "nonpayable",
      "type": "function"
    },
    {
      "inputs": [
        {
          "internalType": "uint256",
          "name": "value",
          "type": "uint256"
        },
        {
          "internalType": "uint256",
          "name": "unlockTime",
          "type": "uint256"
        }
      ],
      "name": "createLock",
      "outputs": [],
      "stateMutability": "nonpayable",
      "type": "function"
    },
    {
      "inputs": [],
      "name": "decimals",
      "outputs": [
        {
          "internalType": "uint256",
          "name": "",
          "type": "uint256"
        }
      ],
      "stateMutability": "view",
      "type": "function"
    },
    {
      "inputs": [
        {
          "internalType": "address",
          "name": "addr",
          "type": "address"
        },
        {
          "internalType": "uint256",
          "name": "value",
          "type": "uint256"
        }
      ],
      "name": "depositFor",
      "outputs": [],
      "stateMutability": "nonpayable",
      "type": "function"
    },
    {
      "inputs": [],
      "name": "epoch",
      "outputs": [
        {
          "internalType": "uint256",
          "name": "",
          "type": "uint256"
        }
      ],
      "stateMutability": "view",
      "type": "function"
    },
    {
      "inputs": [],
      "name": "expire",
      "outputs": [],
      "stateMutability": "nonpayable",
      "type": "function"
    },
    {
      "inputs": [],
      "name": "expired",
      "outputs": [
        {
          "internalType": "bool",
          "name": "",
          "type": "bool"
        }
      ],
      "stateMutability": "view",
      "type": "function"
    },
    {
      "inputs": [
        {
          "internalType": "uint256",
          "name": "blk",
          "type": "uint256"
        },
        {
          "internalType": "uint256",
          "name": "maxEpoch",
          "type": "uint256"
        }
      ],
      "name": "findBlockEpoch",
      "outputs": [
        {
          "internalType": "uint256",
          "name": "",
          "type": "uint256"
        }
      ],
      "stateMutability": "view",
      "type": "function"
    },
    {
      "inputs": [
        {
          "internalType": "address",
          "name": "addr",
          "type": "address"
        }
      ],
      "name": "getLastUserSlope",
      "outputs": [
        {
          "internalType": "int256",
          "name": "",
          "type": "int256"
        }
      ],
      "stateMutability": "view",
      "type": "function"
    },
    {
      "inputs": [
        {
          "internalType": "uint256",
          "name": "value",
          "type": "uint256"
        }
      ],
      "name": "increaseAmount",
      "outputs": [],
      "stateMutability": "nonpayable",
      "type": "function"
    },
    {
      "inputs": [
        {
          "internalType": "uint256",
          "name": "unlockTime",
          "type": "uint256"
        }
      ],
      "name": "increaseUnlockTime",
      "outputs": [],
      "stateMutability": "nonpayable",
      "type": "function"
    },
    {
      "inputs": [
        {
          "internalType": "address",
          "name": "",
          "type": "address"
        }
      ],
      "name": "locked",
      "outputs": [
        {
          "internalType": "int256",
          "name": "amount",
          "type": "int256"
        },
        {
          "internalType": "uint256",
          "name": "end",
          "type": "uint256"
        }
      ],
      "stateMutability": "view",
      "type": "function"
    },
    {
      "inputs": [
        {
          "internalType": "address",
          "name": "addr",
          "type": "address"
        }
      ],
      "name": "lockedEnd",
      "outputs": [
        {
          "internalType": "uint256",
          "name": "",
          "type": "uint256"
        }
      ],
      "stateMutability": "view",
      "type": "function"
    },
    {
      "inputs": [],
      "name": "name",
      "outputs": [
        {
          "internalType": "string",
          "name": "",
          "type": "string"
        }
      ],
      "stateMutability": "view",
      "type": "function"
    },
    {
      "inputs": [],
      "name": "owner",
      "outputs": [
        {
          "internalType": "address",
          "name": "",
          "type": "address"
        }
      ],
      "stateMutability": "view",
      "type": "function"
    },
    {
      "inputs": [],
      "name": "p12Token",
      "outputs": [
        {
          "internalType": "address",
          "name": "",
          "type": "address"
        }
      ],
      "stateMutability": "view",
      "type": "function"
    },
    {
      "inputs": [],
      "name": "pause",
      "outputs": [],
      "stateMutability": "nonpayable",
      "type": "function"
    },
    {
      "inputs": [],
      "name": "paused",
      "outputs": [
        {
          "internalType": "bool",
          "name": "",
          "type": "bool"
        }
      ],
      "stateMutability": "view",
      "type": "function"
    },
    {
      "inputs": [],
      "name": "pendingOwner",
      "outputs": [
        {
          "internalType": "address",
          "name": "",
          "type": "address"
        }
      ],
      "stateMutability": "view",
      "type": "function"
    },
    {
      "inputs": [
        {
          "internalType": "uint256",
          "name": "",
          "type": "uint256"
        }
      ],
      "name": "pointHistory",
      "outputs": [
        {
          "internalType": "int256",
          "name": "bias",
          "type": "int256"
        },
        {
          "internalType": "int256",
          "name": "slope",
          "type": "int256"
        },
        {
          "internalType": "uint256",
          "name": "ts",
          "type": "uint256"
        },
        {
          "internalType": "uint256",
          "name": "blk",
          "type": "uint256"
        }
      ],
      "stateMutability": "view",
      "type": "function"
    },
    {
      "inputs": [],
      "name": "renounceOwnership",
      "outputs": [],
      "stateMutability": "nonpayable",
      "type": "function"
    },
    {
      "inputs": [
        {
          "internalType": "uint256",
          "name": "",
          "type": "uint256"
        }
      ],
      "name": "slopeChanges",
      "outputs": [
        {
          "internalType": "int256",
          "name": "",
          "type": "int256"
        }
      ],
      "stateMutability": "view",
      "type": "function"
    },
    {
      "inputs": [],
      "name": "symbol",
      "outputs": [
        {
          "internalType": "string",
          "name": "",
          "type": "string"
        }
      ],
      "stateMutability": "view",
      "type": "function"
    },
    {
      "inputs": [],
      "name": "totalLockedP12",
      "outputs": [
        {
          "internalType": "uint256",
          "name": "",
          "type": "uint256"
        }
      ],
      "stateMutability": "view",
      "type": "function"
    },
    {
      "inputs": [],
      "name": "totalSupply",
      "outputs": [
        {
          "internalType": "uint256",
          "name": "",
          "type": "uint256"
        }
      ],
      "stateMutability": "view",
      "type": "function"
    },
    {
      "inputs": [
        {
          "internalType": "uint256",
          "name": "blk",
          "type": "uint256"
        }
      ],
      "name": "totalSupplyAt",
      "outputs": [
        {
          "internalType": "uint256",
          "name": "",
          "type": "uint256"
        }
      ],
      "stateMutability": "view",
      "type": "function"
    },
    {
      "inputs": [
        {
          "internalType": "address",
          "name": "newOwner",
          "type": "address"
        },
        {
          "internalType": "bool",
          "name": "direct",
          "type": "bool"
        }
      ],
      "name": "transferOwnership",
      "outputs": [],
      "stateMutability": "nonpayable",
      "type": "function"
    },
    {
      "inputs": [],
      "name": "unpause",
      "outputs": [],
      "stateMutability": "nonpayable",
      "type": "function"
    },
    {
      "inputs": [
        {
          "internalType": "address",
          "name": "",
          "type": "address"
        }
      ],
      "name": "userPointEpoch",
      "outputs": [
        {
          "internalType": "uint256",
          "name": "",
          "type": "uint256"
        }
      ],
      "stateMutability": "view",
      "type": "function"
    },
    {
      "inputs": [
        {
          "internalType": "address",
          "name": "",
          "type": "address"
        },
        {
          "internalType": "uint256",
          "name": "",
          "type": "uint256"
        }
      ],
      "name": "userPointHistory",
      "outputs": [
        {
          "internalType": "int256",
          "name": "bias",
          "type": "int256"
        },
        {
          "internalType": "int256",
          "name": "slope",
          "type": "int256"
        },
        {
          "internalType": "uint256",
          "name": "ts",
          "type": "uint256"
        },
        {
          "internalType": "uint256",
          "name": "blk",
          "type": "uint256"
        }
      ],
      "stateMutability": "view",
      "type": "function"
    },
    {
      "inputs": [
        {
          "internalType": "address",
          "name": "addr",
          "type": "address"
        },
        {
          "internalType": "uint256",
          "name": "idx",
          "type": "uint256"
        }
      ],
      "name": "userPointHistoryTs",
      "outputs": [
        {
          "internalType": "uint256",
          "name": "",
          "type": "uint256"
        }
      ],
      "stateMutability": "view",
      "type": "function"
    },
    {
      "inputs": [],
      "name": "withdraw",
      "outputs": [],
      "stateMutability": "nonpayable",
      "type": "function"
    }
  ],
  "transactionHash": "0x19657db988d6a4444382d77d0fe47822313ebbcca6da4fb495a3b477b7fa36eb",
  "args": [
    "0xfeD03676c595DD1F1c6716a446cD44B4C90AD290",
    "0xFafcAC047267d491038aFE1441aB25990c47c6C3",
    "Vote-escrowed P12",
    "veP12"
  ],
  "numDeployments": 3,
  "solcInputHash": "95681ec8e6f0ca074b8eddc137e42a94",
  "bytecode": "0x60806040523480156200001157600080fd5b50604051620029243803806200292483398101604081905262000034916200024e565b600160005583620000458162000112565b506002805460ff60a01b191690556001600160a01b0383166200007b57604051630ae8f22360e21b815260040160405180910390fd5b600c6200008983826200036d565b50600d6200009882826200036d565b5050600380546001600160a01b0319166001600160a01b0393909316929092179091555050600080526008602052437f5eff886ea0ce6ca488a3d6e336d6c0f75f46d19b42c06ce5ee98e42c96d256ca55427f5eff886ea0ce6ca488a3d6e336d6c0f75f46d19b42c06ce5ee98e42c96d256c95562000439565b600180546001600160a01b038381166001600160a01b0319831681179093556040519116919082907f8be0079c531659141344cd1fd0a4f28419497f9722a3daafe3b4186f6b6457e090600090a35050565b80516001600160a01b03811681146200017c57600080fd5b919050565b634e487b7160e01b600052604160045260246000fd5b600082601f830112620001a957600080fd5b81516001600160401b0380821115620001c657620001c662000181565b604051601f8301601f19908116603f01168101908282118183101715620001f157620001f162000181565b816040528381526020925086838588010111156200020e57600080fd5b600091505b8382101562000232578582018301518183018401529082019062000213565b83821115620002445760008385830101525b9695505050505050565b600080600080608085870312156200026557600080fd5b620002708562000164565b9350620002806020860162000164565b60408601519093506001600160401b03808211156200029e57600080fd5b620002ac8883890162000197565b93506060870151915080821115620002c357600080fd5b50620002d28782880162000197565b91505092959194509250565b600181811c90821680620002f357607f821691505b6020821081036200031457634e487b7160e01b600052602260045260246000fd5b50919050565b601f8211156200036857600081815260208120601f850160051c81016020861015620003435750805b601f850160051c820191505b8181101562000364578281556001016200034f565b5050505b505050565b81516001600160401b0381111562000389576200038962000181565b620003a1816200039a8454620002de565b846200031a565b602080601f831160018114620003d95760008415620003c05750858301515b600019600386901b1c1916600185901b17855562000364565b600085815260208120601f198616915b828110156200040a57888601518255948401946001909101908401620003e9565b5085821015620004295787850151600019600388901b60f8161c191681555b5050505050600190811b01905550565b6124db80620004496000396000f3fe608060405234801561001057600080fd5b50600436106102115760003560e01c806379599f9611610125578063981b24d0116100ad578063cff805ab1161007c578063cff805ab146104d1578063e30c3978146104d9578063eac6a667146104ea578063f3a6d60814610523578063f52a36f71461056257600080fd5b8063981b24d01461045c578063b242e5341461046f578063b52c05fe14610482578063cbf9fe5f1461049557600080fd5b80638ad4c447116100f45780638ad4c447146103da5780638b7c37a31461040f5780638da5cb5b1461043a578063900cf0cf1461044b57806395d89b411461045457600080fd5b806379599f96146103975780637c616fe61461039f57806381fc83bb146103b25780638456cb59146103d257600080fd5b80633ccfd60b116101a85780634e71e0c8116101775780634e71e0c81461034f5780634ee2cd7e146103575780635c975abb1461036a57806370a082311461037c578063715018a61461038f57600080fd5b80633ccfd60b146102f65780633f4ba83a146102fe5780634c2067c7146103065780634deafcae1461032357600080fd5b8063313ce567116101e4578063313ce567146102725780633323bac91461027a57806334d901a41461028357806338dbff66146102e357600080fd5b806306fdde031461021657806315456eba1461023457806318160ddd146102495780632f4f21e21461025f575b600080fd5b61021e610582565b60405161022b91906120b8565b60405180910390f35b6102476102423660046120eb565b610610565b005b6102516106f8565b60405190815260200161022b565b61024761026d366004612120565b61074d565b610251601281565b61025160045481565b6102c3610291366004612120565b600960209081526000928352604080842090915290825290208054600182015460028301546003909301549192909184565b60408051948552602085019390935291830152606082015260800161022b565b6102516102f136600461214a565b610868565b6102476108f1565b610247610a84565b6007546103139060ff1681565b604051901515815260200161022b565b61025161033136600461216c565b6001600160a01b031660009081526005602052604090206001015490565b610247610a96565b610251610365366004612120565b610ac9565b600254600160a01b900460ff16610313565b61025161038a36600461216c565b610d81565b610247610e43565b610247610e55565b6102476103ad3660046120eb565b610ead565b6102516103c036600461216c565b600a6020526000908152604090205481565b610247610fcf565b6102c36103e83660046120eb565b60086020526000908152604090208054600182015460028301546003909301549192909184565b600354610422906001600160a01b031681565b6040516001600160a01b03909116815260200161022b565b6001546001600160a01b0316610422565b61025160065481565b61021e610fdf565b61025161046a3660046120eb565b610fec565b61024761047d366004612198565b61118f565b61024761049036600461214a565b6111f0565b6104bc6104a336600461216c565b6005602052600090815260409020805460019091015482565b6040805192835260208301919091520161022b565b610247611314565b6002546001600160a01b0316610422565b6102516104f8366004612120565b6001600160a01b03919091166000908152600960209081526040808320938352929052206002015490565b61025161053136600461216c565b6001600160a01b03166000908152600a60209081526040808320546009835281842090845290915290206001015490565b6102516105703660046120eb565b600b6020526000908152604090205481565b600c805461058f906121cf565b80601f01602080910402602001604051908101604052809291908181526020018280546105bb906121cf565b80156106085780601f106105dd57610100808354040283529160200191610608565b820191906000526020600020905b8154815290600101906020018083116105eb57829003601f168201915b505050505081565b60026000540361063b5760405162461bcd60e51b815260040161063290612203565b60405180910390fd5b600260005561064861134c565b610650611399565b33600090815260056020908152604080832081518083019092528054825260010154918101919091529082900361069a57604051632a9ffab760e21b815260040160405180910390fd5b80516000036106bc57604051633a3be75b60e11b815260040160405180910390fd5b428160200151116106e0576040516307b7d7dd60e51b815260040160405180910390fd5b6106ef338360008460026113bd565b50506001600055565b600654600081815260086020908152604080832081516080810183528154815260018201549381019390935260028101549183019190915260030154606082015290919061074681426114f3565b9250505090565b60026000540361076f5760405162461bcd60e51b815260040161063290612203565b600260005561077c61134c565b610784611399565b6001600160a01b03821660009081526005602090815260408083208151808301909252805482526001015491810191909152908290036107d757604051632a9ffab760e21b815260040160405180910390fd5b80516000036107f957604051633a3be75b60e11b815260040160405180910390fd5b4281602001511161081d576040516307b7d7dd60e51b815260040160405180910390fd5b6001600160a01b0383166000908152600560209081526040808320815180830190925280548252600101549181019190915261085e918591859190816113bd565b5050600160005550565b60008082815b608081116108e557818310156108e5576000600261088c8486612250565b610897906001612250565b6108a1919061227e565b60008181526008602052604090206003015490915087106108c4578093506108d2565b6108cf600182612292565b92505b50806108dd816122a9565b91505061086e565b50909150505b92915050565b6002600054036109135760405162461bcd60e51b815260040161063290612203565b600260005561092061134c565b3360009081526005602090815260408083208151808301909252805480835260019091015492820192909252910361096b57604051633a3be75b60e11b815260040160405180910390fd5b806020015142108015610981575060075460ff16155b1561099f576040516323499aa160e01b815260040160405180910390fd5b8051600060208084018281528285523383526005909152604090912083518155905160019091015560045482906109d68382612292565b6004556109e43383866115e3565b6003546109fb906001600160a01b03163385611bc8565b6040805184815242602082015233917ff279e6a1f5e320cca91135676d9cb6e44ca8a08c0b88342bcdb1144f6511b568910160405180910390a27f20afdd8f420a231acd54c47385623d5f04cacd142f4792d73dd98a454ad6cc1381610a618582612292565b6040805192835260208301919091520160405180910390a1505060016000555050565b610a8c611c30565b610a94611c5b565b565b6002546001600160a01b03163314610ac157604051639d7b369d60e01b815260040160405180910390fd5b610a94611cab565b600043821115610aec57604051631b793e8760e31b815260040160405180910390fd5b6001600160a01b0383166000908152600a602052604081205460015b60808111610b945781831015610b945760006002610b268486612250565b610b31906001612250565b610b3b919061227e565b6001600160a01b03881660009081526009602090815260408083208484529091529020600301549091508610610b7357809350610b81565b610b7e600182612292565b92505b5080610b8c816122a9565b915050610b08565b506001600160a01b038516600090815260096020908152604080832085845282528083208151608081018352815481526001820154938101939093526002810154918301919091526003015460608201526006549091610bf48783610868565b60008181526008602090815260408083208151608081018352815481526001820154938101939093526002810154918301919091526003015460608201529192508084841015610cc3576000600881610c4e876001612250565b8152602001908152602001600020604051806080016040529081600082015481526020016001820154815260200160028201548152602001600382015481525050905083606001518160600151610ca59190612292565b925083604001518160400151610cbb9190612292565b915050610ce7565b6060830151610cd29043612292565b9150826040015142610ce49190612292565b90505b60408301518215610d24578284606001518c610d039190612292565b610d0d90846122c2565b610d17919061227e565b610d219082612250565b90505b6040870151610d339082612292565b8760200151610d4291906122e1565b87518890610d51908390612366565b9052508651600013610d6f575050935196506108eb95505050505050565b600099505050505050505050506108eb565b6001600160a01b0381166000908152600a6020526040812054808203610daa5750600092915050565b6001600160a01b0383166000908152600960209081526040808320848452825291829020825160808101845281548152600182015492810192909252600281015492820183905260030154606082015290610e059042612292565b8160200151610e1491906122e1565b81518290610e23908390612366565b905250805160001315610e3557600081525b519392505050565b50919050565b610e4b611c30565b610a946000611d14565b610e5d611c30565b610e65611399565b6007805460ff19166001179055604080513381524260208201527f751a0eb66c3cc9aa48957d09bd3cc81db888f5bcac6689def5fb9e18ec3cf20191015b60405180910390a1565b600260005403610ecf5760405162461bcd60e51b815260040161063290612203565b6002600055610edc61134c565b610ee4611399565b33600090815260056020908152604080832081518083019092528054825260010154918101919091529062093a80610f1c818561227e565b610f2691906122c2565b905042826020015111610f4c576040516307b7d7dd60e51b815260040160405180910390fd5b8151600003610f6e57604051633a3be75b60e11b815260040160405180910390fd5b81602001518111610f9257604051636badcecf60e01b815260040160405180910390fd5b610fa0630784ce0042612250565b811115610fc057604051635b30744d60e11b815260040160405180910390fd5b61085e336000838560026113bd565b610fd7611c30565b610a94611d66565b600d805461058f906121cf565b60004382111561100f57604051631b793e8760e31b815260040160405180910390fd5b600654600061101e8483610868565b60008181526008602090815260408083208151608081018352815481526001820154938101939093526002810154918301919091526003015460608201529192508383101561111d576000600881611077866001612250565b81526020019081526020016000206040518060800160405290816000820154815260200160018201548152602001600282015481526020016003820154815250509050806060015183606001511461111757826060015181606001516110dd9190612292565b836040015182604001516110f19190612292565b6060850151611100908a612292565b61110a91906122c2565b611114919061227e565b91505b5061116c565b4382606001511461116c5760608201516111379043612292565b60408301516111469042612292565b60608401516111559089612292565b61115f91906122c2565b611169919061227e565b90505b611185828284604001516111809190612250565b6114f3565b9695505050505050565b611197611c30565b6001600160a01b0382166111be57604051630ae8f22360e21b815260040160405180910390fd5b80156111d1576111cd82611d14565b5050565b600280546001600160a01b0319166001600160a01b0384161790555050565b6002600054036112125760405162461bcd60e51b815260040161063290612203565b600260005561121f61134c565b611227611399565b600062093a80611237818461227e565b61124191906122c2565b336000908152600560209081526040808320815180830190925280548252600101549181019190915291925084900361128d57604051632a9ffab760e21b815260040160405180910390fd5b8051156112ad576040516326db571760e21b815260040160405180910390fd5b4282116112cd57604051636badcecf60e01b815260040160405180910390fd5b6112db630784ce0042612250565b8211156112fb57604051635b30744d60e11b815260040160405180910390fd5b6113093385848460016113bd565b505060016000555050565b610a946000604051806040016040528060008152602001600081525060405180604001604052806000815260200160008152506115e3565b600254600160a01b900460ff1615610a945760405162461bcd60e51b815260206004820152601060248201526f14185d5cd8589b194e881c185d5cd95960821b6044820152606401610632565b60075460ff1615610a945760405163250440b360e01b815260040160405180910390fd5b60045482906113cc8682612250565b6004556040805180820190915282518152602080840151908201528251879084906113f89083906123a5565b905250851561140957602083018690525b6001600160a01b0388166000908152600560209081526040909120845181559084015160019091015561143d8882856115e3565b861561145b5760035461145b906001600160a01b031689308a611da9565b8260200151886001600160a01b03167fbe9cf0e939c614fad640a623a53ba0a807c8cb503c4c4c8dacabe27b86ff2dd589874260405161149d939291906123e6565b60405180910390a37f20afdd8f420a231acd54c47385623d5f04cacd142f4792d73dd98a454ad6cc13826114d18982612250565b6040805192835260208301919091520160405180910390a15050505050505050565b600080839050600062093a8080836040015161150f919061227e565b61151991906122c2565b905060005b60ff8162ffffff1610156115ca5761153962093a8083612250565b915060008583111561154d5785925061155e565b506000828152600b60205260409020545b604084015161156d9084612292565b846020015161157c91906122e1565b8451859061158b908390612366565b90525085830361159b57506115ca565b80846020018181516115ad91906123a5565b9052505060408301829052806115c28161241c565b91505061151e565b508151600013156115da57600082525b50519392505050565b61160e6040518060800160405280600081526020016000815260200160008152602001600081525090565b6116396040518060800160405280600081526020016000815260200160008152602001600081525090565b61165d60405180606001604052806000815260200160008152602001600081525090565b6000808252602082015260065460408201526001600160a01b0386161561177657428560200151118015611692575084516000125b156116d15784516116a890630784ce009061243e565b6020808501919091528501516116bf904290612292565b83602001516116ce91906122e1565b83525b4284602001511180156116e5575083516000125b156117245783516116fb90630784ce009061243e565b602080840191909152840151611712904290612292565b826020015161172191906122e1565b82525b6020808601516000908152600b8252604090205482528401511561177657846020015184602001510361175d5780516020820152611776565b6020808501516000908152600b82526040902054908201525b6040805160808101825260008082526020820152428183015243606082015290820151156117eb57600860008360400151815260200190815260200160002060405180608001604052908160008201548152602001600182015481526020016002820154815260200160038201548152505090505b60408101518160004283101561183857604084015161180a9042612292565b60608501516118199043612292565b61182b90670de0b6b3a76400006122c2565b611835919061227e565b90505b600062093a80611848818661227e565b61185291906122c2565b905060005b60ff8162ffffff1610156119be5761187262093a8083612250565b915060004283111561188657429250611897565b506000828152600b60205260409020545b6118a18684612292565b87602001516118b091906122e1565b875188906118bf908390612366565b9052506020870180518291906118d69083906123a5565b9052508651600013156118e857600087525b6000876020015112156118fd57600060208801525b60408088018490528501519295508592670de0b6b3a7640000906119219085612292565b61192b90866122c2565b611935919061227e565b85606001516119449190612250565b60608801526040880180516001919061195e908390612250565b90525042830361197457504360608701526119be565b6040808901516000908152600860209081529082902089518155908901516001820155908801516002820155606088015160039091015550806119b68161241c565b915050611857565b5060408601516006556001600160a01b038b1615611a4257876020015187602001516119ea9190612366565b856020018181516119fb91906123a5565b90525087518751611a0c9190612366565b85518690611a1b9083906123a5565b905250602085015160001315611a3357600060208601525b845160001315611a4257600085525b604080870151600090815260086020908152908290208751815590870151600182015590860151600282015560608601516003909101556001600160a01b038b1615611bbb57428a602001511115611aea57602088015186518790611aa89083906123a5565b9052506020808b0151908a015103611ad257602087015186518790611ace908390612366565b9052505b85516020808c01516000908152600b90915260409020555b4289602001511115611b3a57896020015189602001511115611b3a57866020015186602001818151611b1c9190612366565b9052506020808701518a8201516000908152600b9092526040909120555b6001600160a01b038b166000908152600a6020526040812054611b5e906001612250565b6001600160a01b038d166000818152600a60209081526040808320859055428d82019081524360608f01908152948452600983528184209584529482529091208b518155908b015160018201559151600283015551600390910155505b5050505050505050505050565b6040516001600160a01b038316602482015260448101829052611c2b90849063a9059cbb60e01b906064015b60408051601f198184030181529190526020810180516001600160e01b03166001600160e01b031990931692909217909152611de7565b505050565b6001546001600160a01b03163314610a9457604051639d7b369d60e01b815260040160405180910390fd5b611c63611eb9565b6002805460ff60a01b191690557f5db9ee0a495bf2e6ff9c91a7834c1ba4fdd244a5e8aa4e537bd38aeae4b073aa335b6040516001600160a01b039091168152602001610ea3565b6001546002546040516001600160a01b03928316929091169082907f8be0079c531659141344cd1fd0a4f28419497f9722a3daafe3b4186f6b6457e090600090a35060028054600180546001600160a01b03199081166001600160a01b03841617909155169055565b600180546001600160a01b038381166001600160a01b0319831681179093556040519116919082907f8be0079c531659141344cd1fd0a4f28419497f9722a3daafe3b4186f6b6457e090600090a35050565b611d6e61134c565b6002805460ff60a01b1916600160a01b1790557f62e78cea01bee320cd4e420270b5ea74000d11b0c9f74754ebdbfc544b05a258611c933390565b6040516001600160a01b0380851660248301528316604482015260648101829052611de19085906323b872dd60e01b90608401611bf4565b50505050565b6000611e3c826040518060400160405280602081526020017f5361666545524332303a206c6f772d6c6576656c2063616c6c206661696c6564815250856001600160a01b0316611f099092919063ffffffff16565b805190915015611c2b5780806020019051810190611e5a919061246c565b611c2b5760405162461bcd60e51b815260206004820152602a60248201527f5361666545524332303a204552433230206f7065726174696f6e20646964206e6044820152691bdd081cdd58d8d9595960b21b6064820152608401610632565b600254600160a01b900460ff16610a945760405162461bcd60e51b815260206004820152601460248201527314185d5cd8589b194e881b9bdd081c185d5cd95960621b6044820152606401610632565b6060611f188484600085611f22565b90505b9392505050565b606082471015611f835760405162461bcd60e51b815260206004820152602660248201527f416464726573733a20696e73756666696369656e742062616c616e636520666f6044820152651c8818d85b1b60d21b6064820152608401610632565b6001600160a01b0385163b611fda5760405162461bcd60e51b815260206004820152601d60248201527f416464726573733a2063616c6c20746f206e6f6e2d636f6e74726163740000006044820152606401610632565b600080866001600160a01b03168587604051611ff69190612489565b60006040518083038185875af1925050503d8060008114612033576040519150601f19603f3d011682016040523d82523d6000602084013e612038565b606091505b5091509150612048828286612053565b979650505050505050565b60608315612062575081611f1b565b8251156120725782518084602001fd5b8160405162461bcd60e51b815260040161063291906120b8565b60005b838110156120a757818101518382015260200161208f565b83811115611de15750506000910152565b60208152600082518060208401526120d781604085016020870161208c565b601f01601f19169190910160400192915050565b6000602082840312156120fd57600080fd5b5035919050565b80356001600160a01b038116811461211b57600080fd5b919050565b6000806040838503121561213357600080fd5b61213c83612104565b946020939093013593505050565b6000806040838503121561215d57600080fd5b50508035926020909101359150565b60006020828403121561217e57600080fd5b611f1b82612104565b801515811461219557600080fd5b50565b600080604083850312156121ab57600080fd5b6121b483612104565b915060208301356121c481612187565b809150509250929050565b600181811c908216806121e357607f821691505b602082108103610e3d57634e487b7160e01b600052602260045260246000fd5b6020808252601f908201527f5265656e7472616e637947756172643a207265656e7472616e742063616c6c00604082015260600190565b634e487b7160e01b600052601160045260246000fd5b600082198211156122635761226361223a565b500190565b634e487b7160e01b600052601260045260246000fd5b60008261228d5761228d612268565b500490565b6000828210156122a4576122a461223a565b500390565b6000600182016122bb576122bb61223a565b5060010190565b60008160001904831182151516156122dc576122dc61223a565b500290565b60006001600160ff1b03818413828413808216868404861116156123075761230761223a565b600160ff1b60008712828116878305891216156123265761232661223a565b600087129250878205871284841616156123425761234261223a565b878505871281841616156123585761235861223a565b505050929093029392505050565b60008083128015600160ff1b8501841216156123845761238461223a565b6001600160ff1b038401831381161561239f5761239f61223a565b50500390565b600080821280156001600160ff1b03849003851316156123c7576123c761223a565b600160ff1b83900384128116156123e0576123e061223a565b50500190565b838152606081016004841061240b57634e487b7160e01b600052602160045260246000fd5b602082019390935260400152919050565b600062ffffff8083168181036124345761243461223a565b6001019392505050565b60008261244d5761244d612268565b600160ff1b8214600019841416156124675761246761223a565b500590565b60006020828403121561247e57600080fd5b8151611f1b81612187565b6000825161249b81846020870161208c565b919091019291505056fea2646970667358221220d04a1a3a1523403949e42889a5bb79345b09bfeffc84733d3689fa29f9bc1e5564736f6c634300080f0033",
  "devdoc": {
    "kind": "dev",
    "methods": {
      "balanceOf(address)": {
        "details": "Adheres to the ERC20 `balanceOf` interface for Aragon compatibility",
        "params": {
          "addr": "User wallet address"
        },
        "returns": {
          "_0": "User voting power"
        }
      },
      "balanceOfAt(address,uint256)": {
        "details": "Adheres to MiniMe `balanceOfAt` interface: https://github.com/Giveth/minime",
        "params": {
          "addr": "User's wallet address",
          "blk": "Block to calculate the voting power at"
        },
        "returns": {
          "_0": "Voting power"
        }
      },
      "claimOwnership()": {
        "details": "pending owner call this function to claim ownership"
      },
      "constructor": {
        "params": {
          "name_": "Token name",
          "p12TokenAddr_": "`ERC20P12` token address",
          "symbol_": "Token symbol"
        }
      },
      "createLock(uint256,uint256)": {
        "params": {
          "unlockTime": "Epoch time when tokens unlock, rounded down to whole weeks",
          "value": "Amount to deposit"
        }
      },
      "depositFor(address,uint256)": {
        "details": "Anyone (even a smart contract) can deposit for someone else, but      cannot extend their lockTime and deposit for a brand new user",
        "params": {
          "addr": "User's wallet address",
          "value": "Amount to add to user's lock"
        }
      },
      "findBlockEpoch(uint256,uint256)": {
        "params": {
          "blk": "Block to find",
          "maxEpoch": "Don't go beyond this epoch"
        },
        "returns": {
          "_0": "Approximate timestamp for block"
        }
      },
      "getLastUserSlope(address)": {
        "params": {
          "addr": "Address of the user wallet"
        },
        "returns": {
          "_0": "Value of the slope"
        }
      },
      "increaseAmount(uint256)": {
        "params": {
          "value": "Amount of tokens to deposit and add to the lock"
        }
      },
      "increaseUnlockTime(uint256)": {
        "params": {
          "unlockTime": "New epoch time for unlocking"
        }
      },
      "lockedEnd(address)": {
        "params": {
          "addr": "User wallet"
        },
        "returns": {
          "_0": "Epoch time of the lock end"
        }
      },
      "owner()": {
        "details": "Returns the address of the current owner."
      },
      "paused()": {
        "details": "Returns true if the contract is paused, and false otherwise."
      },
      "pendingOwner()": {
        "details": "Return the address of the pending owner"
      },
      "renounceOwnership()": {
        "details": "Leaves the contract without owner. It will not be possible to call `onlyOwner` functions anymore. Can only be called by the current owner. NOTE: Renouncing ownership will leave the contract without an owner, thereby removing any functionality that is only available to the owner."
      },
      "totalSupply()": {
        "details": "Adheres to the ERC20 `totalSupply` interface for Aragon compatibility",
        "returns": {
          "_0": "Total voting power"
        }
      },
      "totalSupplyAt(uint256)": {
        "params": {
          "blk": "Block to calculate the total voting power at"
        },
        "returns": {
          "_0": "Total voting power at `_block`"
        }
      },
      "transferOwnership(address,bool)": {
        "details": "Transfers ownership of the contract to a new account (`newOwner`). Can only be called by the current owner. Note If direct is false, it will set an pending owner and the OwnerShipTransferring only happens when the pending owner claim the ownership"
      },
      "userPointHistoryTs(address,uint256)": {
        "params": {
          "addr": "User wallet address",
          "idx": "User epoch number"
        },
        "returns": {
          "_0": "Epoch time of the checkpoint"
        }
      },
      "withdraw()": {
        "details": "Only possible if the lock has expired or contract expired"
      }
    },
    "version": 1
  },
  "userdoc": {
    "kind": "user",
    "methods": {
      "balanceOf(address)": {
        "notice": "Get the current voting power for `msg.sender`"
      },
      "balanceOfAt(address,uint256)": {
        "notice": "Measure voting power of `addr` at block height `_block`"
      },
      "checkPoint()": {
        "notice": "Record global data to checkpoint"
      },
      "constructor": {
        "notice": "Contract constructor"
      },
      "createLock(uint256,uint256)": {
        "notice": "Deposit `value` tokens for `msg.sender` and lock until `unlock_time`"
      },
      "depositFor(address,uint256)": {
        "notice": "Deposit `value` tokens for `addr` and add to the lock"
      },
      "findBlockEpoch(uint256,uint256)": {
        "notice": "Binary search to estimate timestamp for block number"
      },
      "getLastUserSlope(address)": {
        "notice": "Get the most recently recorded rate of voting power decrease for `addr`"
      },
      "increaseAmount(uint256)": {
        "notice": "Deposit `value` additional tokens for `msg.sender`         without modifying the unlock time"
      },
      "increaseUnlockTime(uint256)": {
        "notice": "Extend the unlock time for `msg.sender` to `unlock_time`"
      },
      "lockedEnd(address)": {
        "notice": "Get timestamp when `addr`'s lock finishes"
      },
      "totalSupply()": {
        "notice": "Calculate total voting power"
      },
      "totalSupplyAt(uint256)": {
        "notice": "Calculate total voting power at some point in the past"
      },
      "userPointHistoryTs(address,uint256)": {
        "notice": "Get the timestamp for checkpoint `idx` for `addr`"
      },
      "withdraw()": {
        "notice": "Withdraw all tokens for `msg.sender`"
      }
    },
    "version": 1
  },
  "storageLayout": {
    "storage": [
      {
        "astId": 2113,
        "contract": "contracts/token/VotingEscrow.sol:VotingEscrow",
        "label": "_status",
        "offset": 0,
        "slot": "0",
        "type": "t_uint256"
      },
      {
        "astId": 8113,
        "contract": "contracts/token/VotingEscrow.sol:VotingEscrow",
        "label": "_owner",
        "offset": 0,
        "slot": "1",
        "type": "t_address"
      },
      {
        "astId": 8115,
        "contract": "contracts/token/VotingEscrow.sol:VotingEscrow",
        "label": "_pendingOwner",
        "offset": 0,
        "slot": "2",
        "type": "t_address"
      },
      {
        "astId": 2012,
        "contract": "contracts/token/VotingEscrow.sol:VotingEscrow",
        "label": "_paused",
        "offset": 20,
        "slot": "2",
        "type": "t_bool"
      },
      {
        "astId": 18038,
        "contract": "contracts/token/VotingEscrow.sol:VotingEscrow",
        "label": "p12Token",
        "offset": 0,
        "slot": "3",
        "type": "t_address"
      },
      {
        "astId": 18040,
        "contract": "contracts/token/VotingEscrow.sol:VotingEscrow",
        "label": "totalLockedP12",
        "offset": 0,
        "slot": "4",
        "type": "t_uint256"
      },
      {
        "astId": 18045,
        "contract": "contracts/token/VotingEscrow.sol:VotingEscrow",
        "label": "locked",
        "offset": 0,
        "slot": "5",
        "type": "t_mapping(t_address,t_struct(LockedBalance)18128_storage)"
      },
      {
        "astId": 18047,
        "contract": "contracts/token/VotingEscrow.sol:VotingEscrow",
        "label": "epoch",
        "offset": 0,
        "slot": "6",
        "type": "t_uint256"
      },
      {
        "astId": 18049,
        "contract": "contracts/token/VotingEscrow.sol:VotingEscrow",
        "label": "expired",
        "offset": 0,
        "slot": "7",
        "type": "t_bool"
      },
      {
        "astId": 18054,
        "contract": "contracts/token/VotingEscrow.sol:VotingEscrow",
        "label": "pointHistory",
        "offset": 0,
        "slot": "8",
        "type": "t_mapping(t_uint256,t_struct(Point)18123_storage)"
      },
      {
        "astId": 18061,
        "contract": "contracts/token/VotingEscrow.sol:VotingEscrow",
        "label": "userPointHistory",
        "offset": 0,
        "slot": "9",
        "type": "t_mapping(t_address,t_mapping(t_uint256,t_struct(Point)18123_storage))"
      },
      {
        "astId": 18065,
        "contract": "contracts/token/VotingEscrow.sol:VotingEscrow",
        "label": "userPointEpoch",
        "offset": 0,
        "slot": "10",
        "type": "t_mapping(t_address,t_uint256)"
      },
      {
        "astId": 18069,
        "contract": "contracts/token/VotingEscrow.sol:VotingEscrow",
        "label": "slopeChanges",
        "offset": 0,
        "slot": "11",
        "type": "t_mapping(t_uint256,t_int256)"
      },
      {
        "astId": 18071,
        "contract": "contracts/token/VotingEscrow.sol:VotingEscrow",
        "label": "name",
        "offset": 0,
        "slot": "12",
        "type": "t_string_storage"
      },
      {
        "astId": 18073,
        "contract": "contracts/token/VotingEscrow.sol:VotingEscrow",
        "label": "symbol",
        "offset": 0,
        "slot": "13",
        "type": "t_string_storage"
      }
    ],
    "types": {
      "t_address": {
        "encoding": "inplace",
        "label": "address",
        "numberOfBytes": "20"
      },
      "t_bool": {
        "encoding": "inplace",
        "label": "bool",
        "numberOfBytes": "1"
      },
      "t_int256": {
        "encoding": "inplace",
        "label": "int256",
        "numberOfBytes": "32"
      },
      "t_mapping(t_address,t_mapping(t_uint256,t_struct(Point)18123_storage))": {
        "encoding": "mapping",
        "key": "t_address",
        "label": "mapping(address => mapping(uint256 => struct VotingEscrow.Point))",
        "numberOfBytes": "32",
        "value": "t_mapping(t_uint256,t_struct(Point)18123_storage)"
      },
      "t_mapping(t_address,t_struct(LockedBalance)18128_storage)": {
        "encoding": "mapping",
        "key": "t_address",
        "label": "mapping(address => struct VotingEscrow.LockedBalance)",
        "numberOfBytes": "32",
        "value": "t_struct(LockedBalance)18128_storage"
      },
      "t_mapping(t_address,t_uint256)": {
        "encoding": "mapping",
        "key": "t_address",
        "label": "mapping(address => uint256)",
        "numberOfBytes": "32",
        "value": "t_uint256"
      },
      "t_mapping(t_uint256,t_int256)": {
        "encoding": "mapping",
        "key": "t_uint256",
        "label": "mapping(uint256 => int256)",
        "numberOfBytes": "32",
        "value": "t_int256"
      },
      "t_mapping(t_uint256,t_struct(Point)18123_storage)": {
        "encoding": "mapping",
        "key": "t_uint256",
        "label": "mapping(uint256 => struct VotingEscrow.Point)",
        "numberOfBytes": "32",
        "value": "t_struct(Point)18123_storage"
      },
      "t_string_storage": {
        "encoding": "bytes",
        "label": "string",
        "numberOfBytes": "32"
      },
      "t_struct(LockedBalance)18128_storage": {
        "encoding": "inplace",
        "label": "struct VotingEscrow.LockedBalance",
        "members": [
          {
            "astId": 18125,
            "contract": "contracts/token/VotingEscrow.sol:VotingEscrow",
            "label": "amount",
            "offset": 0,
            "slot": "0",
            "type": "t_int256"
          },
          {
            "astId": 18127,
            "contract": "contracts/token/VotingEscrow.sol:VotingEscrow",
            "label": "end",
            "offset": 0,
            "slot": "1",
            "type": "t_uint256"
          }
        ],
        "numberOfBytes": "64"
      },
      "t_struct(Point)18123_storage": {
        "encoding": "inplace",
        "label": "struct VotingEscrow.Point",
        "members": [
          {
            "astId": 18116,
            "contract": "contracts/token/VotingEscrow.sol:VotingEscrow",
            "label": "bias",
            "offset": 0,
            "slot": "0",
            "type": "t_int256"
          },
          {
            "astId": 18118,
            "contract": "contracts/token/VotingEscrow.sol:VotingEscrow",
            "label": "slope",
            "offset": 0,
            "slot": "1",
            "type": "t_int256"
          },
          {
            "astId": 18120,
            "contract": "contracts/token/VotingEscrow.sol:VotingEscrow",
            "label": "ts",
            "offset": 0,
            "slot": "2",
            "type": "t_uint256"
          },
          {
            "astId": 18122,
            "contract": "contracts/token/VotingEscrow.sol:VotingEscrow",
            "label": "blk",
            "offset": 0,
            "slot": "3",
            "type": "t_uint256"
          }
        ],
        "numberOfBytes": "128"
      },
      "t_uint256": {
        "encoding": "inplace",
        "label": "uint256",
        "numberOfBytes": "32"
      }
    }
  }
}