{
  "address": "0x5F32539F0ceC357bE6BEEdA587c8c49b12f50613",
  "abi": [
    {
      "inputs": [
        {
          "internalType": "address",
          "name": "owner_",
          "type": "address"
        }
      ],
      "stateMutability": "nonpayable",
      "type": "constructor"
    },
    {
      "inputs": [],
      "name": "DstChainIdIsNotAllowed",
      "type": "error"
    },
    {
      "inputs": [],
      "name": "NewOwnerIsZeroAddress",
      "type": "error"
    },
    {
      "inputs": [],
      "name": "NoHandoverRequest",
      "type": "error"
    },
    {
      "inputs": [],
      "name": "NotSigner",
      "type": "error"
    },
    {
      "inputs": [],
      "name": "Unauthorized",
      "type": "error"
    },
    {
      "anonymous": false,
      "inputs": [
        {
          "indexed": false,
          "internalType": "uint256",
          "name": "chainId",
          "type": "uint256"
        },
        {
          "indexed": false,
          "internalType": "bool",
          "name": "valid",
          "type": "bool"
        }
      ],
      "name": "DstValidSet",
      "type": "event"
    },
    {
      "anonymous": false,
      "inputs": [
        {
          "indexed": true,
          "internalType": "address",
          "name": "pendingOwner",
          "type": "address"
        }
      ],
      "name": "OwnershipHandoverCanceled",
      "type": "event"
    },
    {
      "anonymous": false,
      "inputs": [
        {
          "indexed": true,
          "internalType": "address",
          "name": "pendingOwner",
          "type": "address"
        }
      ],
      "name": "OwnershipHandoverRequested",
      "type": "event"
    },
    {
      "anonymous": false,
      "inputs": [
        {
          "indexed": true,
          "internalType": "address",
          "name": "oldOwner",
          "type": "address"
        },
        {
          "indexed": true,
          "internalType": "address",
          "name": "newOwner",
          "type": "address"
        }
      ],
      "name": "OwnershipTransferred",
      "type": "event"
    },
    {
      "anonymous": false,
      "inputs": [
        {
          "indexed": true,
          "internalType": "address",
          "name": "user",
          "type": "address"
        },
        {
          "indexed": true,
          "internalType": "uint256",
          "name": "tokenId",
          "type": "uint256"
        }
      ],
      "name": "ReleaseNFT",
      "type": "event"
    },
    {
      "anonymous": false,
      "inputs": [
        {
          "indexed": true,
          "internalType": "uint256",
          "name": "dstChainId",
          "type": "uint256"
        },
        {
          "indexed": true,
          "internalType": "uint256",
          "name": "tokenId",
          "type": "uint256"
        },
        {
          "indexed": true,
          "internalType": "uint256",
          "name": "cid",
          "type": "uint256"
        },
        {
          "indexed": false,
          "internalType": "address",
          "name": "nftAddr",
          "type": "address"
        },
        {
          "indexed": false,
          "internalType": "address",
          "name": "from",
          "type": "address"
        },
        {
          "indexed": false,
          "internalType": "address",
          "name": "receiver",
          "type": "address"
        }
      ],
      "name": "SendNFT",
      "type": "event"
    },
    {
      "anonymous": false,
      "inputs": [
        {
          "indexed": true,
          "internalType": "uint256",
          "name": "dstChainId",
          "type": "uint256"
        },
        {
          "indexed": true,
          "internalType": "uint256",
          "name": "tokenId",
          "type": "uint256"
        },
        {
          "indexed": false,
          "internalType": "address",
          "name": "nftAddr",
          "type": "address"
        },
        {
          "indexed": false,
          "internalType": "address",
          "name": "from",
          "type": "address"
        },
        {
          "indexed": false,
          "internalType": "address",
          "name": "receiver",
          "type": "address"
        }
      ],
      "name": "SendOaoNFT",
      "type": "event"
    },
    {
      "anonymous": false,
      "inputs": [
        {
          "indexed": false,
          "internalType": "address",
          "name": "signer",
          "type": "address"
        },
        {
          "indexed": false,
          "internalType": "bool",
          "name": "valid",
          "type": "bool"
        }
      ],
      "name": "SignerSet",
      "type": "event"
    },
    {
      "inputs": [
        {
          "internalType": "uint256",
          "name": "",
          "type": "uint256"
        }
      ],
      "name": "allowedDst",
      "outputs": [
        {
          "internalType": "bool",
          "name": "",
          "type": "bool"
        }
      ],
      "stateMutability": "view",
      "type": "function"
    },
    {
      "inputs": [],
      "name": "cancelOwnershipHandover",
      "outputs": [],
      "stateMutability": "payable",
      "type": "function"
    },
    {
      "inputs": [
        {
          "internalType": "address",
          "name": "pendingOwner",
          "type": "address"
        }
      ],
      "name": "completeOwnershipHandover",
      "outputs": [],
      "stateMutability": "payable",
      "type": "function"
    },
    {
      "inputs": [
        {
          "internalType": "address",
          "name": "",
          "type": "address"
        },
        {
          "internalType": "address",
          "name": "",
          "type": "address"
        },
        {
          "internalType": "uint256",
          "name": "",
          "type": "uint256"
        },
        {
          "internalType": "bytes",
          "name": "",
          "type": "bytes"
        }
      ],
      "name": "onERC721Received",
      "outputs": [
        {
          "internalType": "bytes4",
          "name": "",
          "type": "bytes4"
        }
      ],
      "stateMutability": "pure",
      "type": "function"
    },
    {
      "inputs": [],
      "name": "owner",
      "outputs": [
        {
          "internalType": "address",
          "name": "result",
          "type": "address"
        }
      ],
      "stateMutability": "view",
      "type": "function"
    },
    {
      "inputs": [
        {
          "internalType": "address",
          "name": "pendingOwner",
          "type": "address"
        }
      ],
      "name": "ownershipHandoverExpiresAt",
      "outputs": [
        {
          "internalType": "uint256",
          "name": "result",
          "type": "uint256"
        }
      ],
      "stateMutability": "view",
      "type": "function"
    },
    {
      "inputs": [
        {
          "internalType": "address",
          "name": "nftAddr",
          "type": "address"
        },
        {
          "internalType": "address",
          "name": "user",
          "type": "address"
        },
        {
          "internalType": "uint256",
          "name": "tokenId",
          "type": "uint256"
        }
      ],
      "name": "releaseNFT",
      "outputs": [],
      "stateMutability": "nonpayable",
      "type": "function"
    },
    {
      "inputs": [],
      "name": "renounceOwnership",
      "outputs": [],
      "stateMutability": "payable",
      "type": "function"
    },
    {
      "inputs": [],
      "name": "requestOwnershipHandover",
      "outputs": [],
      "stateMutability": "payable",
      "type": "function"
    },
    {
      "inputs": [
        {
          "internalType": "address",
          "name": "nftAddr",
          "type": "address"
        },
        {
          "internalType": "uint256",
          "name": "dstChainId",
          "type": "uint256"
        },
        {
          "internalType": "uint256",
          "name": "tokenId",
          "type": "uint256"
        },
        {
          "internalType": "address",
          "name": "from",
          "type": "address"
        },
        {
          "internalType": "address",
          "name": "receiver",
          "type": "address"
        }
      ],
      "name": "sendNFT",
      "outputs": [],
      "stateMutability": "nonpayable",
      "type": "function"
    },
    {
      "inputs": [
        {
          "internalType": "address",
          "name": "",
          "type": "address"
        }
      ],
      "name": "signers",
      "outputs": [
        {
          "internalType": "bool",
          "name": "",
          "type": "bool"
        }
      ],
      "stateMutability": "view",
      "type": "function"
    },
    {
      "inputs": [
        {
          "internalType": "address",
          "name": "newOwner",
          "type": "address"
        }
      ],
      "name": "transferOwnership",
      "outputs": [],
      "stateMutability": "payable",
      "type": "function"
    },
    {
      "inputs": [
        {
          "internalType": "uint256",
          "name": "dstChainId",
          "type": "uint256"
        },
        {
          "internalType": "bool",
          "name": "valid",
          "type": "bool"
        }
      ],
      "name": "updateDstValidity",
      "outputs": [],
      "stateMutability": "nonpayable",
      "type": "function"
    },
    {
      "inputs": [
        {
          "internalType": "address",
          "name": "signer",
          "type": "address"
        },
        {
          "internalType": "bool",
          "name": "valid",
          "type": "bool"
        }
      ],
      "name": "updateSigner",
      "outputs": [],
      "stateMutability": "nonpayable",
      "type": "function"
    }
  ],
  "transactionHash": "0x3f848fcd778b4d2fbfff24a00b09b187fb8af83e69f4d561cdf4bc516ae0c5fb",
  "args": [
    "0xBa1d495D8cfcad60d56442F1f1a9917ddE0e3231"
  ],
  "numDeployments": 2,
  "solcInputHash": "81645781730186aa612b3d0afe15f6f2",
  "bytecode": "0x608060405234801561001057600080fd5b5060405161097c38038061097c83398101604081905261002f9161007c565b6100388161003e565b506100ac565b638b78c6d81980546001600160a01b039092169182907f8be0079c531659141344cd1fd0a4f28419497f9722a3daafe3b4186f6b6457e0600080a355565b60006020828403121561008e57600080fd5b81516001600160a01b03811681146100a557600080fd5b9392505050565b6108c1806100bb6000396000f3fe6080604052600436106100dd5760003560e01c80638da5cb5b1161007f578063f04e283e11610059578063f04e283e14610242578063f2fde38b14610255578063f460590b14610268578063fee81cf41461028857600080fd5b80638da5cb5b146101c6578063b9a058b0146101f2578063cd8c1ce81461021257600080fd5b80633d0558ef116100bb5780633d0558ef1461015657806354d1f13d14610176578063715018a61461017e578063736c0d5b1461018657600080fd5b8063150b7a02146100e2578063256929621461012c5780632b4380c514610136575b600080fd5b3480156100ee57600080fd5b5061010e6100fd3660046106e5565b630a85bd0160e11b95945050505050565b6040516001600160e01b031990911681526020015b60405180910390f35b6101346102c9565b005b34801561014257600080fd5b50610134610151366004610780565b610319565b34801561016257600080fd5b506101346101713660046107bc565b6103c4565b6101346103d8565b610134610414565b34801561019257600080fd5b506101b66101a1366004610813565b60006020819052908152604090205460ff1681565b6040519015158152602001610123565b3480156101d257600080fd5b50638b78c6d819546040516001600160a01b039091168152602001610123565b3480156101fe57600080fd5b5061013461020d366004610845565b610428565b34801561021e57600080fd5b506101b661022d366004610871565b60016020526000908152604090205460ff1681565b610134610250366004610813565b61048a565b610134610263366004610813565b6104ca565b34801561027457600080fd5b5061013461028336600461088a565b6104f1565b34801561029457600080fd5b506102bb6102a3366004610813565b63389a75e1600c908152600091909152602090205490565b604051908152602001610123565b60006202a30067ffffffffffffffff164201905063389a75e1600c5233600052806020600c2055337fdbf36a107da19e49527a7176a1babf963b4b0ff8cde35ee35d6cd8f1f9ac7e1d600080a250565b610321610553565b6040516323b872dd60e01b81523060048201526001600160a01b038381166024830152604482018390528416906323b872dd90606401600060405180830381600087803b15801561037157600080fd5b505af1158015610385573d6000803e3d6000fd5b50506040518392506001600160a01b03851691507fb02b5fcbd3c7f4557ffb7fbd36f3d2876f9f67c097f7c43ffba61875ea2c9e7c90600090a3505050565b6103d18585858585610583565b5050505050565b63389a75e1600c523360005260006020600c2055337ffa7b8eab7da67f412cc9575ed43464468f9bfbae89d1675917346ca6d8fe3c92600080a2565b61041c610670565b610426600061068b565b565b610430610670565b600082815260016020908152604091829020805460ff19168415159081179091558251858152918201527fd3b88b26ee7fccc9ba34d3df123c7db1ca070188e89fe0549eb3f97cfaca072191015b60405180910390a15050565b610492610670565b63389a75e1600c52806000526020600c2080544211156104ba57636f5e88186000526004601cfd5b600090556104c78161068b565b50565b6104d2610670565b8060601b6104e857637448fbae6000526004601cfd5b6104c78161068b565b6104f9610670565b6001600160a01b03821660008181526020818152604091829020805460ff19168515159081179091558251938452908301527ffc4acb499491cd850a8a21ab98c7f128850c0f0e5f1a875a62b7fa055c2ecf19910161047e565b3360009081526020819052604090205460ff166104265760405163143606b960e31b815260040160405180910390fd5b60008481526001602052604090205460ff166105b257604051631b51261760e11b815260040160405180910390fd5b6040516323b872dd60e01b81526001600160a01b038381166004830152306024830152604482018590528616906323b872dd90606401600060405180830381600087803b15801561060257600080fd5b505af1158015610616573d6000803e3d6000fd5b5050604080516001600160a01b038981168252868116602083015285168183015290518693508792507f5bd093705955613c9e180859a9053d6daf6237df88eea5242912858acb4d40cf9181900360600190a35050505050565b638b78c6d819543314610426576382b429006000526004601cfd5b638b78c6d81980546001600160a01b039092169182907f8be0079c531659141344cd1fd0a4f28419497f9722a3daafe3b4186f6b6457e0600080a355565b80356001600160a01b03811681146106e057600080fd5b919050565b6000806000806000608086880312156106fd57600080fd5b610706866106c9565b9450610714602087016106c9565b935060408601359250606086013567ffffffffffffffff8082111561073857600080fd5b818801915088601f83011261074c57600080fd5b81358181111561075b57600080fd5b89602082850101111561076d57600080fd5b9699959850939650602001949392505050565b60008060006060848603121561079557600080fd5b61079e846106c9565b92506107ac602085016106c9565b9150604084013590509250925092565b600080600080600060a086880312156107d457600080fd5b6107dd866106c9565b945060208601359350604086013592506107f9606087016106c9565b9150610807608087016106c9565b90509295509295909350565b60006020828403121561082557600080fd5b61082e826106c9565b9392505050565b803580151581146106e057600080fd5b6000806040838503121561085857600080fd5b8235915061086860208401610835565b90509250929050565b60006020828403121561088357600080fd5b5035919050565b6000806040838503121561089d57600080fd5b6108a6836106c9565b91506108686020840161083556fea164736f6c6343000813000a",
  "devdoc": {
    "errors": {
      "NewOwnerIsZeroAddress()": [
        {
          "details": "The `newOwner` cannot be the zero address."
        }
      ],
      "NoHandoverRequest()": [
        {
          "details": "The `pendingOwner` does not have a valid handover request."
        }
      ],
      "Unauthorized()": [
        {
          "details": "The caller is not authorized to call the function."
        }
      ]
    },
    "events": {
      "OwnershipHandoverCanceled(address)": {
        "details": "The ownership handover to `pendingOwner` has been canceled."
      },
      "OwnershipHandoverRequested(address)": {
        "details": "An ownership handover to `pendingOwner` has been requested."
      },
      "OwnershipTransferred(address,address)": {
        "details": "The ownership is transferred from `oldOwner` to `newOwner`. This event is intentionally kept the same as OpenZeppelin's Ownable to be compatible with indexers and [EIP-173](https://eips.ethereum.org/EIPS/eip-173), despite it not being as lightweight as a single argument event."
      },
      "SendNFT(uint256,uint256,uint256,address,address,address)": {
        "details": "just emit the bridge NFT request event",
        "params": {
          "cid": "galxe campaign id",
          "dstChainId": "destination dstChainId",
          "tokenId": "NFT tokenId"
        }
      },
      "SendOaoNFT(uint256,uint256,address,address,address)": {
        "details": "just emit the bridge NFT request event",
        "params": {
          "dstChainId": "destination dstChainId",
          "tokenId": "NFT tokenId"
        }
      }
    },
    "kind": "dev",
    "methods": {
      "cancelOwnershipHandover()": {
        "details": "Cancels the two-step ownership handover to the caller, if any."
      },
      "completeOwnershipHandover(address)": {
        "details": "Allows the owner to complete the two-step ownership handover to `pendingOwner`. Reverts if there is no existing ownership handover requested by `pendingOwner`."
      },
      "owner()": {
        "details": "Returns the owner of the contract."
      },
      "ownershipHandoverExpiresAt(address)": {
        "details": "Returns the expiry timestamp for the two-step ownership handover to `pendingOwner`."
      },
      "renounceOwnership()": {
        "details": "Allows the owner to renounce their ownership."
      },
      "requestOwnershipHandover()": {
        "details": "Request a two-step ownership handover to the caller. The request will automatically expire in 48 hours (172800 seconds) by default."
      },
      "transferOwnership(address)": {
        "details": "Allows the owner to transfer the ownership to `newOwner`."
      }
    },
    "version": 1
  },
  "userdoc": {
    "events": {
      "SendNFT(uint256,uint256,uint256,address,address,address)": {
        "notice": "emit bridge galxe badge NFT event"
      },
      "SendOaoNFT(uint256,uint256,address,address,address)": {
        "notice": "emit bridge general NFT event"
      }
    },
    "kind": "user",
    "methods": {},
    "version": 1
  },
  "storageLayout": {
    "storage": [
      {
        "astId": 602,
        "contract": "src/OaoNFTReceiver.sol:OaoNFTReceiver",
        "label": "signers",
        "offset": 0,
        "slot": "0",
        "type": "t_mapping(t_address,t_bool)"
      },
      {
        "astId": 606,
        "contract": "src/OaoNFTReceiver.sol:OaoNFTReceiver",
        "label": "allowedDst",
        "offset": 0,
        "slot": "1",
        "type": "t_mapping(t_uint256,t_bool)"
      }
    ],
    "types": {
      "t_address": {
        "encoding": "inplace",
        "label": "address",
        "numberOfBytes": "20"
      },
      "t_bool": {
        "encoding": "inplace",
        "label": "bool",
        "numberOfBytes": "1"
      },
      "t_mapping(t_address,t_bool)": {
        "encoding": "mapping",
        "key": "t_address",
        "label": "mapping(address => bool)",
        "numberOfBytes": "32",
        "value": "t_bool"
      },
      "t_mapping(t_uint256,t_bool)": {
        "encoding": "mapping",
        "key": "t_uint256",
        "label": "mapping(uint256 => bool)",
        "numberOfBytes": "32",
        "value": "t_bool"
      },
      "t_uint256": {
        "encoding": "inplace",
        "label": "uint256",
        "numberOfBytes": "32"
      }
    }
  }
}