{
  "address": "0xA14123F74ae25CBfD004D44681970001Cf1D37DD",
  "abi": [
    {
      "inputs": [],
      "stateMutability": "nonpayable",
      "type": "constructor"
    },
    {
      "anonymous": false,
      "inputs": [
        {
          "indexed": false,
          "internalType": "address",
          "name": "account",
          "type": "address"
        }
      ],
      "name": "Paused",
      "type": "event"
    },
    {
      "anonymous": false,
      "inputs": [
        {
          "indexed": true,
          "internalType": "bytes32",
          "name": "role",
          "type": "bytes32"
        },
        {
          "indexed": true,
          "internalType": "bytes32",
          "name": "previousAdminRole",
          "type": "bytes32"
        },
        {
          "indexed": true,
          "internalType": "bytes32",
          "name": "newAdminRole",
          "type": "bytes32"
        }
      ],
      "name": "RoleAdminChanged",
      "type": "event"
    },
    {
      "anonymous": false,
      "inputs": [
        {
          "indexed": true,
          "internalType": "bytes32",
          "name": "role",
          "type": "bytes32"
        },
        {
          "indexed": true,
          "internalType": "address",
          "name": "account",
          "type": "address"
        },
        {
          "indexed": true,
          "internalType": "address",
          "name": "sender",
          "type": "address"
        }
      ],
      "name": "RoleGranted",
      "type": "event"
    },
    {
      "anonymous": false,
      "inputs": [
        {
          "indexed": true,
          "internalType": "bytes32",
          "name": "role",
          "type": "bytes32"
        },
        {
          "indexed": true,
          "internalType": "address",
          "name": "account",
          "type": "address"
        },
        {
          "indexed": true,
          "internalType": "address",
          "name": "sender",
          "type": "address"
        }
      ],
      "name": "RoleRevoked",
      "type": "event"
    },
    {
      "anonymous": false,
      "inputs": [
        {
          "indexed": false,
          "internalType": "address",
          "name": "account",
          "type": "address"
        }
      ],
      "name": "Unpaused",
      "type": "event"
    },
    {
      "inputs": [],
      "name": "DEFAULT_ADMIN_ROLE",
      "outputs": [
        {
          "internalType": "bytes32",
          "name": "",
          "type": "bytes32"
        }
      ],
      "stateMutability": "view",
      "type": "function"
    },
    {
      "inputs": [],
      "name": "DELEGATION_CALLER",
      "outputs": [
        {
          "internalType": "bytes32",
          "name": "",
          "type": "bytes32"
        }
      ],
      "stateMutability": "view",
      "type": "function"
    },
    {
      "inputs": [],
      "name": "PAUSABLE_CALLER",
      "outputs": [
        {
          "internalType": "bytes32",
          "name": "",
          "type": "bytes32"
        }
      ],
      "stateMutability": "view",
      "type": "function"
    },
    {
      "inputs": [
        {
          "internalType": "bytes",
          "name": "data",
          "type": "bytes"
        }
      ],
      "name": "decode",
      "outputs": [
        {
          "components": [
            {
              "internalType": "uint256",
              "name": "salt",
              "type": "uint256"
            },
            {
              "internalType": "contract IERC1155",
              "name": "token",
              "type": "address"
            },
            {
              "internalType": "uint256",
              "name": "tokenId",
              "type": "uint256"
            },
            {
              "internalType": "uint256",
              "name": "amount",
              "type": "uint256"
            }
          ],
          "internalType": "struct ERC1155Delegate.Pair[]",
          "name": "",
          "type": "tuple[]"
        }
      ],
      "stateMutability": "pure",
      "type": "function"
    },
    {
      "inputs": [],
      "name": "delegateType",
      "outputs": [
        {
          "internalType": "uint256",
          "name": "",
          "type": "uint256"
        }
      ],
      "stateMutability": "pure",
      "type": "function"
    },
    {
      "inputs": [
        {
          "internalType": "address",
          "name": "seller",
          "type": "address"
        },
        {
          "internalType": "address",
          "name": "buyer",
          "type": "address"
        },
        {
          "internalType": "bytes",
          "name": "data",
          "type": "bytes"
        }
      ],
      "name": "executeSell",
      "outputs": [
        {
          "internalType": "bool",
          "name": "",
          "type": "bool"
        }
      ],
      "stateMutability": "nonpayable",
      "type": "function"
    },
    {
      "inputs": [
        {
          "internalType": "bytes32",
          "name": "role",
          "type": "bytes32"
        }
      ],
      "name": "getRoleAdmin",
      "outputs": [
        {
          "internalType": "bytes32",
          "name": "",
          "type": "bytes32"
        }
      ],
      "stateMutability": "view",
      "type": "function"
    },
    {
      "inputs": [
        {
          "internalType": "bytes32",
          "name": "role",
          "type": "bytes32"
        },
        {
          "internalType": "address",
          "name": "account",
          "type": "address"
        }
      ],
      "name": "grantRole",
      "outputs": [],
      "stateMutability": "nonpayable",
      "type": "function"
    },
    {
      "inputs": [
        {
          "internalType": "bytes32",
          "name": "role",
          "type": "bytes32"
        },
        {
          "internalType": "address",
          "name": "account",
          "type": "address"
        }
      ],
      "name": "hasRole",
      "outputs": [
        {
          "internalType": "bool",
          "name": "",
          "type": "bool"
        }
      ],
      "stateMutability": "view",
      "type": "function"
    },
    {
      "inputs": [
        {
          "internalType": "address",
          "name": "",
          "type": "address"
        },
        {
          "internalType": "address",
          "name": "",
          "type": "address"
        },
        {
          "internalType": "uint256[]",
          "name": "",
          "type": "uint256[]"
        },
        {
          "internalType": "uint256[]",
          "name": "",
          "type": "uint256[]"
        },
        {
          "internalType": "bytes",
          "name": "",
          "type": "bytes"
        }
      ],
      "name": "onERC1155BatchReceived",
      "outputs": [
        {
          "internalType": "bytes4",
          "name": "",
          "type": "bytes4"
        }
      ],
      "stateMutability": "pure",
      "type": "function"
    },
    {
      "inputs": [
        {
          "internalType": "address",
          "name": "",
          "type": "address"
        },
        {
          "internalType": "address",
          "name": "",
          "type": "address"
        },
        {
          "internalType": "uint256",
          "name": "",
          "type": "uint256"
        },
        {
          "internalType": "uint256",
          "name": "",
          "type": "uint256"
        },
        {
          "internalType": "bytes",
          "name": "",
          "type": "bytes"
        }
      ],
      "name": "onERC1155Received",
      "outputs": [
        {
          "internalType": "bytes4",
          "name": "",
          "type": "bytes4"
        }
      ],
      "stateMutability": "pure",
      "type": "function"
    },
    {
      "inputs": [],
      "name": "pause",
      "outputs": [],
      "stateMutability": "nonpayable",
      "type": "function"
    },
    {
      "inputs": [],
      "name": "paused",
      "outputs": [
        {
          "internalType": "bool",
          "name": "",
          "type": "bool"
        }
      ],
      "stateMutability": "view",
      "type": "function"
    },
    {
      "inputs": [
        {
          "internalType": "bytes32",
          "name": "role",
          "type": "bytes32"
        },
        {
          "internalType": "address",
          "name": "account",
          "type": "address"
        }
      ],
      "name": "renounceRole",
      "outputs": [],
      "stateMutability": "nonpayable",
      "type": "function"
    },
    {
      "inputs": [
        {
          "internalType": "bytes32",
          "name": "role",
          "type": "bytes32"
        },
        {
          "internalType": "address",
          "name": "account",
          "type": "address"
        }
      ],
      "name": "revokeRole",
      "outputs": [],
      "stateMutability": "nonpayable",
      "type": "function"
    },
    {
      "inputs": [
        {
          "internalType": "bytes4",
          "name": "interfaceId",
          "type": "bytes4"
        }
      ],
      "name": "supportsInterface",
      "outputs": [
        {
          "internalType": "bool",
          "name": "",
          "type": "bool"
        }
      ],
      "stateMutability": "view",
      "type": "function"
    },
    {
      "inputs": [],
      "name": "unpause",
      "outputs": [],
      "stateMutability": "nonpayable",
      "type": "function"
    }
  ],
  "transactionHash": "0x7fe00eae87c907f89758d60c3eadffee6d9f1bda86088e17b21f0fc90ba0016d",
  "args": [],
  "numDeployments": 1,
  "solcInputHash": "1f7f80fb95b6efcc6f464d7df403eaaa",
  "bytecode": "0x608060405234801561001057600080fd5b50600180556002805460ff1916905561002a60003361002f565b6100ce565b6000828152602081815260408083206001600160a01b038516845290915290205460ff166100ca576000828152602081815260408083206001600160a01b03851684529091529020805460ff191660011790556100893390565b6001600160a01b0316816001600160a01b0316837f2f8788117e7eff1d82e926ec794901d17c78024a50270940304540a733656f0d60405160405180910390a45b5050565b6110e9806100dd6000396000f3fe608060405234801561001057600080fd5b506004361061010b5760003560e01c80638456cb59116100a2578063bc197c8111610071578063bc197c811461021c578063bc553f0f14610257578063d547741f1461026a578063e5c5e9a31461027d578063f23a6e611461029d57600080fd5b80638456cb59146101d25780638e325979146101da57806391d1485414610201578063a217fddf1461021457600080fd5b806336568abe116100de57806336568abe146101855780633cf7af26146101985780633f4ba83a146101bf5780635c975abb146101c757600080fd5b806301ffc9a714610110578063248a9ca3146101385780632c436e5b146101695780632f2ff15d14610170575b600080fd5b61012361011e366004610a43565b6102bd565b60405190151581526020015b60405180910390f35b61015b610146366004610a6d565b60009081526020819052604090206001015490565b60405190815260200161012f565b600161015b565b61018361017e366004610a9b565b6102f4565b005b610183610193366004610a9b565b61031f565b61015b7f4d5b90b2ff801b79c44742188d0f2fce5a80a460e67b2fdad2eaca180bf3607b81565b6101836103a2565b60025460ff16610123565b6101836103d8565b61015b7f7630198b183b603be5df16e380207195f2a065102b113930ccb600feaf61533181565b61012361020f366004610a9b565b61040b565b61015b600081565b61023e61022a366004610b59565b63bc197c8160e01b98975050505050505050565b6040516001600160e01b0319909116815260200161012f565b610123610265366004610c18565b610434565b610183610278366004610a9b565b610611565b61029061028b366004610c7d565b610637565b60405161012f9190610cbf565b61023e6102ab366004610d2c565b63f23a6e6160e01b9695505050505050565b60006001600160e01b03198216637965db0b60e01b14806102ee57506301ffc9a760e01b6001600160e01b03198316145b92915050565b600082815260208190526040902060010154610310813361064c565b61031a83836106b0565b505050565b6001600160a01b03811633146103945760405162461bcd60e51b815260206004820152602f60248201527f416363657373436f6e74726f6c3a2063616e206f6e6c792072656e6f756e636560448201526e103937b632b9903337b91039b2b63360891b60648201526084015b60405180910390fd5b61039e8282610734565b5050565b7f4d5b90b2ff801b79c44742188d0f2fce5a80a460e67b2fdad2eaca180bf3607b6103cd813361064c565b6103d5610799565b50565b7f4d5b90b2ff801b79c44742188d0f2fce5a80a460e67b2fdad2eaca180bf3607b610403813361064c565b6103d561082c565b6000918252602082815260408084206001600160a01b0393909316845291905290205460ff1690565b60006002600154036104885760405162461bcd60e51b815260206004820152601f60248201527f5265656e7472616e637947756172643a207265656e7472616e742063616c6c00604482015260640161038b565b60026001557f7630198b183b603be5df16e380207195f2a065102b113930ccb600feaf6153316104b8813361064c565b60025460ff16156104fe5760405162461bcd60e51b815260206004820152601060248201526f14185d5cd8589b194e881c185d5cd95960821b604482015260640161038b565b600061050a8585610637565b905060005b815181101561060057600082828151811061052c5761052c610da8565b6020026020010151905080602001516001600160a01b031663f242432a8a8a84604001518560600151600067ffffffffffffffff81111561056f5761056f610dbe565b6040519080825280601f01601f191660200182016040528015610599576020820181803683370190505b506040518663ffffffff1660e01b81526004016105ba959493929190610e30565b600060405180830381600087803b1580156105d457600080fd5b505af11580156105e8573d6000803e3d6000fd5b505050505080806105f890610e8b565b91505061050f565b505060018080559695505050505050565b60008281526020819052604090206001015461062d813361064c565b61031a8383610734565b606061064582840184610efe565b9392505050565b610656828261040b565b61039e5761066e816001600160a01b031660146108a7565b6106798360206108a7565b60405160200161068a929190610fdd565b60408051601f198184030181529082905262461bcd60e51b825261038b91600401611052565b6106ba828261040b565b61039e576000828152602081815260408083206001600160a01b03851684529091529020805460ff191660011790556106f03390565b6001600160a01b0316816001600160a01b0316837f2f8788117e7eff1d82e926ec794901d17c78024a50270940304540a733656f0d60405160405180910390a45050565b61073e828261040b565b1561039e576000828152602081815260408083206001600160a01b0385168085529252808320805460ff1916905551339285917ff6391f5c32d9c69d2a47ea670b442974b53935d1edc7fd64eb21e047a839171b9190a45050565b60025460ff166107e25760405162461bcd60e51b815260206004820152601460248201527314185d5cd8589b194e881b9bdd081c185d5cd95960621b604482015260640161038b565b6002805460ff191690557f5db9ee0a495bf2e6ff9c91a7834c1ba4fdd244a5e8aa4e537bd38aeae4b073aa335b6040516001600160a01b03909116815260200160405180910390a1565b60025460ff16156108725760405162461bcd60e51b815260206004820152601060248201526f14185d5cd8589b194e881c185d5cd95960821b604482015260640161038b565b6002805460ff191660011790557f62e78cea01bee320cd4e420270b5ea74000d11b0c9f74754ebdbfc544b05a25861080f3390565b606060006108b6836002611065565b6108c1906002611084565b67ffffffffffffffff8111156108d9576108d9610dbe565b6040519080825280601f01601f191660200182016040528015610903576020820181803683370190505b509050600360fc1b8160008151811061091e5761091e610da8565b60200101906001600160f81b031916908160001a905350600f60fb1b8160018151811061094d5761094d610da8565b60200101906001600160f81b031916908160001a9053506000610971846002611065565b61097c906001611084565b90505b60018111156109f4576f181899199a1a9b1b9c1cb0b131b232b360811b85600f16601081106109b0576109b0610da8565b1a60f81b8282815181106109c6576109c6610da8565b60200101906001600160f81b031916908160001a90535060049490941c936109ed8161109c565b905061097f565b5083156106455760405162461bcd60e51b815260206004820181905260248201527f537472696e67733a20686578206c656e67746820696e73756666696369656e74604482015260640161038b565b600060208284031215610a5557600080fd5b81356001600160e01b03198116811461064557600080fd5b600060208284031215610a7f57600080fd5b5035919050565b6001600160a01b03811681146103d557600080fd5b60008060408385031215610aae57600080fd5b823591506020830135610ac081610a86565b809150509250929050565b60008083601f840112610add57600080fd5b50813567ffffffffffffffff811115610af557600080fd5b6020830191508360208260051b8501011115610b1057600080fd5b9250929050565b60008083601f840112610b2957600080fd5b50813567ffffffffffffffff811115610b4157600080fd5b602083019150836020828501011115610b1057600080fd5b60008060008060008060008060a0898b031215610b7557600080fd5b8835610b8081610a86565b97506020890135610b9081610a86565b9650604089013567ffffffffffffffff80821115610bad57600080fd5b610bb98c838d01610acb565b909850965060608b0135915080821115610bd257600080fd5b610bde8c838d01610acb565b909650945060808b0135915080821115610bf757600080fd5b50610c048b828c01610b17565b999c989b5096995094979396929594505050565b60008060008060608587031215610c2e57600080fd5b8435610c3981610a86565b93506020850135610c4981610a86565b9250604085013567ffffffffffffffff811115610c6557600080fd5b610c7187828801610b17565b95989497509550505050565b60008060208385031215610c9057600080fd5b823567ffffffffffffffff811115610ca757600080fd5b610cb385828601610b17565b90969095509350505050565b602080825282518282018190526000919060409081850190868401855b82811015610d1f57815180518552868101516001600160a01b03168786015285810151868601526060908101519085015260809093019290850190600101610cdc565b5091979650505050505050565b60008060008060008060a08789031215610d4557600080fd5b8635610d5081610a86565b95506020870135610d6081610a86565b94506040870135935060608701359250608087013567ffffffffffffffff811115610d8a57600080fd5b610d9689828a01610b17565b979a9699509497509295939492505050565b634e487b7160e01b600052603260045260246000fd5b634e487b7160e01b600052604160045260246000fd5b60005b83811015610def578181015183820152602001610dd7565b83811115610dfe576000848401525b50505050565b60008151808452610e1c816020860160208601610dd4565b601f01601f19169290920160200192915050565b6001600160a01b03868116825285166020820152604081018490526060810183905260a060808201819052600090610e6a90830184610e04565b979650505050505050565b634e487b7160e01b600052601160045260246000fd5b600060018201610e9d57610e9d610e75565b5060010190565b6040516080810167ffffffffffffffff81118282101715610ec757610ec7610dbe565b60405290565b604051601f8201601f1916810167ffffffffffffffff81118282101715610ef657610ef6610dbe565b604052919050565b60006020808385031215610f1157600080fd5b823567ffffffffffffffff80821115610f2957600080fd5b818501915085601f830112610f3d57600080fd5b813581811115610f4f57610f4f610dbe565b610f5d848260051b01610ecd565b818152848101925060079190911b830184019087821115610f7d57600080fd5b928401925b81841015610e6a5760808489031215610f9b5760008081fd5b610fa3610ea4565b8435815285850135610fb481610a86565b818701526040858101359082015260608086013590820152835260809093019291840191610f82565b7f416363657373436f6e74726f6c3a206163636f756e7420000000000000000000815260008351611015816017850160208801610dd4565b7001034b99036b4b9b9b4b733903937b6329607d1b6017918401918201528351611046816028840160208801610dd4565b01602801949350505050565b6020815260006106456020830184610e04565b600081600019048311821515161561107f5761107f610e75565b500290565b6000821982111561109757611097610e75565b500190565b6000816110ab576110ab610e75565b50600019019056fea264697066735822122040819865f3374f6b201f5a5588ee08c380befc32618814f1c6a9114162f363fe64736f6c634300080f0033",
  "devdoc": {
    "kind": "dev",
    "methods": {
      "decode(bytes)": {
        "details": "decode data to the array of Pair"
      },
      "delegateType()": {
        "returns": {
          "_0": "delegateType the delegate's type"
        }
      },
      "executeSell(address,address,bytes)": {
        "details": "run the sell to transfer item",
        "params": {
          "buyer": "address which buy the item",
          "data": "the item's data, which will be decode as a array of Pair",
          "seller": "address which sell the item"
        }
      },
      "getRoleAdmin(bytes32)": {
        "details": "Returns the admin role that controls `role`. See {grantRole} and {revokeRole}. To change a role's admin, use {_setRoleAdmin}."
      },
      "grantRole(bytes32,address)": {
        "details": "Grants `role` to `account`. If `account` had not been already granted `role`, emits a {RoleGranted} event. Requirements: - the caller must have ``role``'s admin role."
      },
      "hasRole(bytes32,address)": {
        "details": "Returns `true` if `account` has been granted `role`."
      },
      "onERC1155BatchReceived(address,address,uint256[],uint256[],bytes)": {
        "details": "Received function"
      },
      "onERC1155Received(address,address,uint256,uint256,bytes)": {
        "details": "Received function"
      },
      "paused()": {
        "details": "Returns true if the contract is paused, and false otherwise."
      },
      "renounceRole(bytes32,address)": {
        "details": "Revokes `role` from the calling account. Roles are often managed via {grantRole} and {revokeRole}: this function's purpose is to provide a mechanism for accounts to lose their privileges if they are compromised (such as when a trusted device is misplaced). If the calling account had been revoked `role`, emits a {RoleRevoked} event. Requirements: - the caller must be `account`."
      },
      "revokeRole(bytes32,address)": {
        "details": "Revokes `role` from `account`. If `account` had been granted `role`, emits a {RoleRevoked} event. Requirements: - the caller must have ``role``'s admin role."
      },
      "supportsInterface(bytes4)": {
        "details": "See {IERC165-supportsInterface}."
      }
    },
    "version": 1
  },
  "userdoc": {
    "kind": "user",
    "methods": {},
    "version": 1
  },
  "storageLayout": {
    "storage": [
      {
        "astId": 1440,
        "contract": "contracts/secretShop/ERC1155Delegate.sol:ERC1155Delegate",
        "label": "_roles",
        "offset": 0,
        "slot": "0",
        "type": "t_mapping(t_bytes32,t_struct(RoleData)1435_storage)"
      },
      {
        "astId": 1900,
        "contract": "contracts/secretShop/ERC1155Delegate.sol:ERC1155Delegate",
        "label": "_status",
        "offset": 0,
        "slot": "1",
        "type": "t_uint256"
      },
      {
        "astId": 1815,
        "contract": "contracts/secretShop/ERC1155Delegate.sol:ERC1155Delegate",
        "label": "_paused",
        "offset": 0,
        "slot": "2",
        "type": "t_bool"
      }
    ],
    "types": {
      "t_address": {
        "encoding": "inplace",
        "label": "address",
        "numberOfBytes": "20"
      },
      "t_bool": {
        "encoding": "inplace",
        "label": "bool",
        "numberOfBytes": "1"
      },
      "t_bytes32": {
        "encoding": "inplace",
        "label": "bytes32",
        "numberOfBytes": "32"
      },
      "t_mapping(t_address,t_bool)": {
        "encoding": "mapping",
        "key": "t_address",
        "label": "mapping(address => bool)",
        "numberOfBytes": "32",
        "value": "t_bool"
      },
      "t_mapping(t_bytes32,t_struct(RoleData)1435_storage)": {
        "encoding": "mapping",
        "key": "t_bytes32",
        "label": "mapping(bytes32 => struct AccessControl.RoleData)",
        "numberOfBytes": "32",
        "value": "t_struct(RoleData)1435_storage"
      },
      "t_struct(RoleData)1435_storage": {
        "encoding": "inplace",
        "label": "struct AccessControl.RoleData",
        "members": [
          {
            "astId": 1432,
            "contract": "contracts/secretShop/ERC1155Delegate.sol:ERC1155Delegate",
            "label": "members",
            "offset": 0,
            "slot": "0",
            "type": "t_mapping(t_address,t_bool)"
          },
          {
            "astId": 1434,
            "contract": "contracts/secretShop/ERC1155Delegate.sol:ERC1155Delegate",
            "label": "adminRole",
            "offset": 0,
            "slot": "1",
            "type": "t_bytes32"
          }
        ],
        "numberOfBytes": "64"
      },
      "t_uint256": {
        "encoding": "inplace",
        "label": "uint256",
        "numberOfBytes": "32"
      }
    }
  }
}