{
  "address": "0xf812Ea10851f93A2f21FDD8A5202AFe691c6711A",
  "abi": [
    {
      "inputs": [],
      "stateMutability": "nonpayable",
      "type": "constructor"
    },
    {
      "anonymous": false,
      "inputs": [
        {
          "indexed": false,
          "internalType": "address",
          "name": "account",
          "type": "address"
        }
      ],
      "name": "Paused",
      "type": "event"
    },
    {
      "anonymous": false,
      "inputs": [
        {
          "indexed": true,
          "internalType": "bytes32",
          "name": "role",
          "type": "bytes32"
        },
        {
          "indexed": true,
          "internalType": "bytes32",
          "name": "previousAdminRole",
          "type": "bytes32"
        },
        {
          "indexed": true,
          "internalType": "bytes32",
          "name": "newAdminRole",
          "type": "bytes32"
        }
      ],
      "name": "RoleAdminChanged",
      "type": "event"
    },
    {
      "anonymous": false,
      "inputs": [
        {
          "indexed": true,
          "internalType": "bytes32",
          "name": "role",
          "type": "bytes32"
        },
        {
          "indexed": true,
          "internalType": "address",
          "name": "account",
          "type": "address"
        },
        {
          "indexed": true,
          "internalType": "address",
          "name": "sender",
          "type": "address"
        }
      ],
      "name": "RoleGranted",
      "type": "event"
    },
    {
      "anonymous": false,
      "inputs": [
        {
          "indexed": true,
          "internalType": "bytes32",
          "name": "role",
          "type": "bytes32"
        },
        {
          "indexed": true,
          "internalType": "address",
          "name": "account",
          "type": "address"
        },
        {
          "indexed": true,
          "internalType": "address",
          "name": "sender",
          "type": "address"
        }
      ],
      "name": "RoleRevoked",
      "type": "event"
    },
    {
      "anonymous": false,
      "inputs": [
        {
          "indexed": false,
          "internalType": "address",
          "name": "account",
          "type": "address"
        }
      ],
      "name": "Unpaused",
      "type": "event"
    },
    {
      "inputs": [],
      "name": "DEFAULT_ADMIN_ROLE",
      "outputs": [
        {
          "internalType": "bytes32",
          "name": "",
          "type": "bytes32"
        }
      ],
      "stateMutability": "view",
      "type": "function"
    },
    {
      "inputs": [],
      "name": "DELEGATION_CALLER",
      "outputs": [
        {
          "internalType": "bytes32",
          "name": "",
          "type": "bytes32"
        }
      ],
      "stateMutability": "view",
      "type": "function"
    },
    {
      "inputs": [],
      "name": "PAUSABLE_CALLER",
      "outputs": [
        {
          "internalType": "bytes32",
          "name": "",
          "type": "bytes32"
        }
      ],
      "stateMutability": "view",
      "type": "function"
    },
    {
      "inputs": [
        {
          "internalType": "bytes",
          "name": "data",
          "type": "bytes"
        }
      ],
      "name": "decode",
      "outputs": [
        {
          "components": [
            {
              "internalType": "uint256",
              "name": "salt",
              "type": "uint256"
            },
            {
              "internalType": "contract IERC721",
              "name": "token",
              "type": "address"
            },
            {
              "internalType": "uint256",
              "name": "tokenId",
              "type": "uint256"
            }
          ],
          "internalType": "struct ERC721Delegate.Pair[]",
          "name": "",
          "type": "tuple[]"
        }
      ],
      "stateMutability": "pure",
      "type": "function"
    },
    {
      "inputs": [],
      "name": "delegateType",
      "outputs": [
        {
          "internalType": "uint256",
          "name": "",
          "type": "uint256"
        }
      ],
      "stateMutability": "pure",
      "type": "function"
    },
    {
      "inputs": [
        {
          "internalType": "address",
          "name": "seller",
          "type": "address"
        },
        {
          "internalType": "address",
          "name": "buyer",
          "type": "address"
        },
        {
          "internalType": "bytes",
          "name": "data",
          "type": "bytes"
        }
      ],
      "name": "executeSell",
      "outputs": [
        {
          "internalType": "bool",
          "name": "",
          "type": "bool"
        }
      ],
      "stateMutability": "nonpayable",
      "type": "function"
    },
    {
      "inputs": [
        {
          "internalType": "bytes32",
          "name": "role",
          "type": "bytes32"
        }
      ],
      "name": "getRoleAdmin",
      "outputs": [
        {
          "internalType": "bytes32",
          "name": "",
          "type": "bytes32"
        }
      ],
      "stateMutability": "view",
      "type": "function"
    },
    {
      "inputs": [
        {
          "internalType": "bytes32",
          "name": "role",
          "type": "bytes32"
        },
        {
          "internalType": "address",
          "name": "account",
          "type": "address"
        }
      ],
      "name": "grantRole",
      "outputs": [],
      "stateMutability": "nonpayable",
      "type": "function"
    },
    {
      "inputs": [
        {
          "internalType": "bytes32",
          "name": "role",
          "type": "bytes32"
        },
        {
          "internalType": "address",
          "name": "account",
          "type": "address"
        }
      ],
      "name": "hasRole",
      "outputs": [
        {
          "internalType": "bool",
          "name": "",
          "type": "bool"
        }
      ],
      "stateMutability": "view",
      "type": "function"
    },
    {
      "inputs": [
        {
          "internalType": "address",
          "name": "",
          "type": "address"
        },
        {
          "internalType": "address",
          "name": "",
          "type": "address"
        },
        {
          "internalType": "uint256",
          "name": "",
          "type": "uint256"
        },
        {
          "internalType": "bytes",
          "name": "",
          "type": "bytes"
        }
      ],
      "name": "onERC721Received",
      "outputs": [
        {
          "internalType": "bytes4",
          "name": "",
          "type": "bytes4"
        }
      ],
      "stateMutability": "pure",
      "type": "function"
    },
    {
      "inputs": [],
      "name": "pause",
      "outputs": [],
      "stateMutability": "nonpayable",
      "type": "function"
    },
    {
      "inputs": [],
      "name": "paused",
      "outputs": [
        {
          "internalType": "bool",
          "name": "",
          "type": "bool"
        }
      ],
      "stateMutability": "view",
      "type": "function"
    },
    {
      "inputs": [
        {
          "internalType": "bytes32",
          "name": "role",
          "type": "bytes32"
        },
        {
          "internalType": "address",
          "name": "account",
          "type": "address"
        }
      ],
      "name": "renounceRole",
      "outputs": [],
      "stateMutability": "nonpayable",
      "type": "function"
    },
    {
      "inputs": [
        {
          "internalType": "bytes32",
          "name": "role",
          "type": "bytes32"
        },
        {
          "internalType": "address",
          "name": "account",
          "type": "address"
        }
      ],
      "name": "revokeRole",
      "outputs": [],
      "stateMutability": "nonpayable",
      "type": "function"
    },
    {
      "inputs": [
        {
          "internalType": "bytes4",
          "name": "interfaceId",
          "type": "bytes4"
        }
      ],
      "name": "supportsInterface",
      "outputs": [
        {
          "internalType": "bool",
          "name": "",
          "type": "bool"
        }
      ],
      "stateMutability": "view",
      "type": "function"
    },
    {
      "inputs": [],
      "name": "unpause",
      "outputs": [],
      "stateMutability": "nonpayable",
      "type": "function"
    }
  ],
  "transactionHash": "0x8661b54d60128ee9c7673d30c8f0434010e1929dc49088c10685caa6d490e1b8",
  "args": [],
  "numDeployments": 1,
  "solcInputHash": "1f7f80fb95b6efcc6f464d7df403eaaa",
  "bytecode": "0x608060405234801561001057600080fd5b50600180556002805460ff1916905561002a60003361002f565b6100ce565b6000828152602081815260408083206001600160a01b038516845290915290205460ff166100ca576000828152602081815260408083206001600160a01b03851684529091529020805460ff191660011790556100893390565b6001600160a01b0316816001600160a01b0316837f2f8788117e7eff1d82e926ec794901d17c78024a50270940304540a733656f0d60405160405180910390a45b5050565b610f12806100dd6000396000f3fe608060405234801561001057600080fd5b50600436106101005760003560e01c80635c975abb11610097578063a217fddf11610066578063a217fddf14610241578063bc553f0f14610249578063d547741f1461025c578063e5c5e9a31461026f57600080fd5b80635c975abb146101f45780638456cb59146101ff5780638e3259791461020757806391d148541461022e57600080fd5b80632f2ff15d116100d35780632f2ff15d1461019d57806336568abe146101b25780633cf7af26146101c55780633f4ba83a146101ec57600080fd5b806301ffc9a714610105578063150b7a021461012d578063248a9ca3146101655780632c436e5b14610196575b600080fd5b6101186101133660046109d7565b61028f565b60405190151581526020015b60405180910390f35b61014c61013b366004610a5f565b630a85bd0160e11b95945050505050565b6040516001600160e01b03199091168152602001610124565b610188610173366004610ad2565b60009081526020819052604090206001015490565b604051908152602001610124565b6002610188565b6101b06101ab366004610aeb565b6102c6565b005b6101b06101c0366004610aeb565b6102f1565b6101887f4d5b90b2ff801b79c44742188d0f2fce5a80a460e67b2fdad2eaca180bf3607b81565b6101b0610374565b60025460ff16610118565b6101b06103aa565b6101887f7630198b183b603be5df16e380207195f2a065102b113930ccb600feaf61533181565b61011861023c366004610aeb565b6103dd565b610188600081565b610118610257366004610b1b565b610406565b6101b061026a366004610aeb565b6105a5565b61028261027d366004610b80565b6105cb565b6040516101249190610bc2565b60006001600160e01b03198216637965db0b60e01b14806102c057506301ffc9a760e01b6001600160e01b03198316145b92915050565b6000828152602081905260409020600101546102e281336105e0565b6102ec8383610644565b505050565b6001600160a01b03811633146103665760405162461bcd60e51b815260206004820152602f60248201527f416363657373436f6e74726f6c3a2063616e206f6e6c792072656e6f756e636560448201526e103937b632b9903337b91039b2b63360891b60648201526084015b60405180910390fd5b61037082826106c8565b5050565b7f4d5b90b2ff801b79c44742188d0f2fce5a80a460e67b2fdad2eaca180bf3607b61039f81336105e0565b6103a761072d565b50565b7f4d5b90b2ff801b79c44742188d0f2fce5a80a460e67b2fdad2eaca180bf3607b6103d581336105e0565b6103a76107c0565b6000918252602082815260408084206001600160a01b0393909316845291905290205460ff1690565b600060026001540361045a5760405162461bcd60e51b815260206004820152601f60248201527f5265656e7472616e637947756172643a207265656e7472616e742063616c6c00604482015260640161035d565b60026001557f7630198b183b603be5df16e380207195f2a065102b113930ccb600feaf61533161048a81336105e0565b60025460ff16156104d05760405162461bcd60e51b815260206004820152601060248201526f14185d5cd8589b194e881c185d5cd95960821b604482015260640161035d565b60006104dc85856105cb565b905060005b81518110156105945760008282815181106104fe576104fe610c24565b602090810291909101810151908101516040808301519051632142170760e11b81526001600160a01b038d811660048301528c81166024830152604482019290925292935016906342842e0e90606401600060405180830381600087803b15801561056857600080fd5b505af115801561057c573d6000803e3d6000fd5b5050505050808061058c90610c50565b9150506104e1565b505060018080559695505050505050565b6000828152602081905260409020600101546105c181336105e0565b6102ec83836106c8565b60606105d982840184610cd9565b9392505050565b6105ea82826103dd565b61037057610602816001600160a01b0316601461083b565b61060d83602061083b565b60405160200161061e929190610de6565b60408051601f198184030181529082905262461bcd60e51b825261035d91600401610e5b565b61064e82826103dd565b610370576000828152602081815260408083206001600160a01b03851684529091529020805460ff191660011790556106843390565b6001600160a01b0316816001600160a01b0316837f2f8788117e7eff1d82e926ec794901d17c78024a50270940304540a733656f0d60405160405180910390a45050565b6106d282826103dd565b15610370576000828152602081815260408083206001600160a01b0385168085529252808320805460ff1916905551339285917ff6391f5c32d9c69d2a47ea670b442974b53935d1edc7fd64eb21e047a839171b9190a45050565b60025460ff166107765760405162461bcd60e51b815260206004820152601460248201527314185d5cd8589b194e881b9bdd081c185d5cd95960621b604482015260640161035d565b6002805460ff191690557f5db9ee0a495bf2e6ff9c91a7834c1ba4fdd244a5e8aa4e537bd38aeae4b073aa335b6040516001600160a01b03909116815260200160405180910390a1565b60025460ff16156108065760405162461bcd60e51b815260206004820152601060248201526f14185d5cd8589b194e881c185d5cd95960821b604482015260640161035d565b6002805460ff191660011790557f62e78cea01bee320cd4e420270b5ea74000d11b0c9f74754ebdbfc544b05a2586107a33390565b6060600061084a836002610e8e565b610855906002610ead565b67ffffffffffffffff81111561086d5761086d610c69565b6040519080825280601f01601f191660200182016040528015610897576020820181803683370190505b509050600360fc1b816000815181106108b2576108b2610c24565b60200101906001600160f81b031916908160001a905350600f60fb1b816001815181106108e1576108e1610c24565b60200101906001600160f81b031916908160001a9053506000610905846002610e8e565b610910906001610ead565b90505b6001811115610988576f181899199a1a9b1b9c1cb0b131b232b360811b85600f166010811061094457610944610c24565b1a60f81b82828151811061095a5761095a610c24565b60200101906001600160f81b031916908160001a90535060049490941c9361098181610ec5565b9050610913565b5083156105d95760405162461bcd60e51b815260206004820181905260248201527f537472696e67733a20686578206c656e67746820696e73756666696369656e74604482015260640161035d565b6000602082840312156109e957600080fd5b81356001600160e01b0319811681146105d957600080fd5b6001600160a01b03811681146103a757600080fd5b60008083601f840112610a2857600080fd5b50813567ffffffffffffffff811115610a4057600080fd5b602083019150836020828501011115610a5857600080fd5b9250929050565b600080600080600060808688031215610a7757600080fd5b8535610a8281610a01565b94506020860135610a9281610a01565b935060408601359250606086013567ffffffffffffffff811115610ab557600080fd5b610ac188828901610a16565b969995985093965092949392505050565b600060208284031215610ae457600080fd5b5035919050565b60008060408385031215610afe57600080fd5b823591506020830135610b1081610a01565b809150509250929050565b60008060008060608587031215610b3157600080fd5b8435610b3c81610a01565b93506020850135610b4c81610a01565b9250604085013567ffffffffffffffff811115610b6857600080fd5b610b7487828801610a16565b95989497509550505050565b60008060208385031215610b9357600080fd5b823567ffffffffffffffff811115610baa57600080fd5b610bb685828601610a16565b90969095509350505050565b602080825282518282018190526000919060409081850190868401855b82811015610c1757815180518552868101516001600160a01b0316878601528501518585015260609093019290850190600101610bdf565b5091979650505050505050565b634e487b7160e01b600052603260045260246000fd5b634e487b7160e01b600052601160045260246000fd5b600060018201610c6257610c62610c3a565b5060010190565b634e487b7160e01b600052604160045260246000fd5b6040516060810167ffffffffffffffff81118282101715610ca257610ca2610c69565b60405290565b604051601f8201601f1916810167ffffffffffffffff81118282101715610cd157610cd1610c69565b604052919050565b60006020808385031215610cec57600080fd5b823567ffffffffffffffff80821115610d0457600080fd5b818501915085601f830112610d1857600080fd5b813581811115610d2a57610d2a610c69565b610d38848260051b01610ca8565b81815284810192506060918202840185019188831115610d5757600080fd5b938501935b82851015610daa5780858a031215610d745760008081fd5b610d7c610c7f565b8535815286860135610d8d81610a01565b818801526040868101359082015284529384019392850192610d5c565b50979650505050505050565b60005b83811015610dd1578181015183820152602001610db9565b83811115610de0576000848401525b50505050565b7f416363657373436f6e74726f6c3a206163636f756e7420000000000000000000815260008351610e1e816017850160208801610db6565b7001034b99036b4b9b9b4b733903937b6329607d1b6017918401918201528351610e4f816028840160208801610db6565b01602801949350505050565b6020815260008251806020840152610e7a816040850160208701610db6565b601f01601f19169190910160400192915050565b6000816000190483118215151615610ea857610ea8610c3a565b500290565b60008219821115610ec057610ec0610c3a565b500190565b600081610ed457610ed4610c3a565b50600019019056fea264697066735822122074d8c86170ec02f65c85d010a031bf125323334afb20993bd45361284ffe439864736f6c634300080f0033",
  "devdoc": {
    "kind": "dev",
    "methods": {
      "decode(bytes)": {
        "details": "decode data to the array of Pair"
      },
      "delegateType()": {
        "returns": {
          "_0": "delegateType the delegate's type"
        }
      },
      "executeSell(address,address,bytes)": {
        "details": "run the sell to transfer item",
        "params": {
          "buyer": "address which buy the item",
          "data": "the item's data, which will be decode as a array of Pair",
          "seller": "address which sell the item"
        }
      },
      "getRoleAdmin(bytes32)": {
        "details": "Returns the admin role that controls `role`. See {grantRole} and {revokeRole}. To change a role's admin, use {_setRoleAdmin}."
      },
      "grantRole(bytes32,address)": {
        "details": "Grants `role` to `account`. If `account` had not been already granted `role`, emits a {RoleGranted} event. Requirements: - the caller must have ``role``'s admin role."
      },
      "hasRole(bytes32,address)": {
        "details": "Returns `true` if `account` has been granted `role`."
      },
      "onERC721Received(address,address,uint256,bytes)": {
        "details": "Received function"
      },
      "paused()": {
        "details": "Returns true if the contract is paused, and false otherwise."
      },
      "renounceRole(bytes32,address)": {
        "details": "Revokes `role` from the calling account. Roles are often managed via {grantRole} and {revokeRole}: this function's purpose is to provide a mechanism for accounts to lose their privileges if they are compromised (such as when a trusted device is misplaced). If the calling account had been revoked `role`, emits a {RoleRevoked} event. Requirements: - the caller must be `account`."
      },
      "revokeRole(bytes32,address)": {
        "details": "Revokes `role` from `account`. If `account` had been granted `role`, emits a {RoleRevoked} event. Requirements: - the caller must have ``role``'s admin role."
      },
      "supportsInterface(bytes4)": {
        "details": "See {IERC165-supportsInterface}."
      }
    },
    "version": 1
  },
  "userdoc": {
    "kind": "user",
    "methods": {},
    "version": 1
  },
  "storageLayout": {
    "storage": [
      {
        "astId": 1440,
        "contract": "contracts/secretShop/ERC721Delegate.sol:ERC721Delegate",
        "label": "_roles",
        "offset": 0,
        "slot": "0",
        "type": "t_mapping(t_bytes32,t_struct(RoleData)1435_storage)"
      },
      {
        "astId": 1900,
        "contract": "contracts/secretShop/ERC721Delegate.sol:ERC721Delegate",
        "label": "_status",
        "offset": 0,
        "slot": "1",
        "type": "t_uint256"
      },
      {
        "astId": 1815,
        "contract": "contracts/secretShop/ERC721Delegate.sol:ERC721Delegate",
        "label": "_paused",
        "offset": 0,
        "slot": "2",
        "type": "t_bool"
      }
    ],
    "types": {
      "t_address": {
        "encoding": "inplace",
        "label": "address",
        "numberOfBytes": "20"
      },
      "t_bool": {
        "encoding": "inplace",
        "label": "bool",
        "numberOfBytes": "1"
      },
      "t_bytes32": {
        "encoding": "inplace",
        "label": "bytes32",
        "numberOfBytes": "32"
      },
      "t_mapping(t_address,t_bool)": {
        "encoding": "mapping",
        "key": "t_address",
        "label": "mapping(address => bool)",
        "numberOfBytes": "32",
        "value": "t_bool"
      },
      "t_mapping(t_bytes32,t_struct(RoleData)1435_storage)": {
        "encoding": "mapping",
        "key": "t_bytes32",
        "label": "mapping(bytes32 => struct AccessControl.RoleData)",
        "numberOfBytes": "32",
        "value": "t_struct(RoleData)1435_storage"
      },
      "t_struct(RoleData)1435_storage": {
        "encoding": "inplace",
        "label": "struct AccessControl.RoleData",
        "members": [
          {
            "astId": 1432,
            "contract": "contracts/secretShop/ERC721Delegate.sol:ERC721Delegate",
            "label": "members",
            "offset": 0,
            "slot": "0",
            "type": "t_mapping(t_address,t_bool)"
          },
          {
            "astId": 1434,
            "contract": "contracts/secretShop/ERC721Delegate.sol:ERC721Delegate",
            "label": "adminRole",
            "offset": 0,
            "slot": "1",
            "type": "t_bytes32"
          }
        ],
        "numberOfBytes": "64"
      },
      "t_uint256": {
        "encoding": "inplace",
        "label": "uint256",
        "numberOfBytes": "32"
      }
    }
  }
}