{
  "address": "0xb2F832fB670c933c4aABb7519D42ad319D9b297A",
  "abi": [
    {
      "anonymous": false,
      "inputs": [
        {
          "indexed": false,
          "internalType": "string",
          "name": "name",
          "type": "string"
        },
        {
          "indexed": false,
          "internalType": "int128",
          "name": "typeId",
          "type": "int128"
        }
      ],
      "name": "AddType",
      "type": "event"
    },
    {
      "anonymous": false,
      "inputs": [
        {
          "indexed": false,
          "internalType": "address",
          "name": "previousAdmin",
          "type": "address"
        },
        {
          "indexed": false,
          "internalType": "address",
          "name": "newAdmin",
          "type": "address"
        }
      ],
      "name": "AdminChanged",
      "type": "event"
    },
    {
      "anonymous": false,
      "inputs": [
        {
          "indexed": false,
          "internalType": "address",
          "name": "admin",
          "type": "address"
        }
      ],
      "name": "ApplyOwnership",
      "type": "event"
    },
    {
      "anonymous": false,
      "inputs": [
        {
          "indexed": true,
          "internalType": "address",
          "name": "beacon",
          "type": "address"
        }
      ],
      "name": "BeaconUpgraded",
      "type": "event"
    },
    {
      "anonymous": false,
      "inputs": [
        {
          "indexed": false,
          "internalType": "address",
          "name": "admin",
          "type": "address"
        }
      ],
      "name": "CommitOwnership",
      "type": "event"
    },
    {
      "anonymous": false,
      "inputs": [
        {
          "indexed": false,
          "internalType": "address",
          "name": "addr",
          "type": "address"
        },
        {
          "indexed": false,
          "internalType": "int128",
          "name": "gaugeType",
          "type": "int128"
        },
        {
          "indexed": false,
          "internalType": "uint256",
          "name": "weight",
          "type": "uint256"
        }
      ],
      "name": "NewGauge",
      "type": "event"
    },
    {
      "anonymous": false,
      "inputs": [
        {
          "indexed": false,
          "internalType": "address",
          "name": "gaugeAddress",
          "type": "address"
        },
        {
          "indexed": false,
          "internalType": "uint256",
          "name": "time",
          "type": "uint256"
        },
        {
          "indexed": false,
          "internalType": "uint256",
          "name": "weight",
          "type": "uint256"
        },
        {
          "indexed": false,
          "internalType": "uint256",
          "name": "totalWeight",
          "type": "uint256"
        }
      ],
      "name": "NewGaugeWeight",
      "type": "event"
    },
    {
      "anonymous": false,
      "inputs": [
        {
          "indexed": false,
          "internalType": "int128",
          "name": "typeId",
          "type": "int128"
        },
        {
          "indexed": false,
          "internalType": "uint256",
          "name": "time",
          "type": "uint256"
        },
        {
          "indexed": false,
          "internalType": "uint256",
          "name": "weight",
          "type": "uint256"
        },
        {
          "indexed": false,
          "internalType": "uint256",
          "name": "totalWeight",
          "type": "uint256"
        }
      ],
      "name": "NewTypeWeight",
      "type": "event"
    },
    {
      "anonymous": false,
      "inputs": [
        {
          "indexed": true,
          "internalType": "address",
          "name": "previousOwner",
          "type": "address"
        },
        {
          "indexed": true,
          "internalType": "address",
          "name": "newOwner",
          "type": "address"
        }
      ],
      "name": "OwnershipTransferred",
      "type": "event"
    },
    {
      "anonymous": false,
      "inputs": [
        {
          "indexed": false,
          "internalType": "address",
          "name": "account",
          "type": "address"
        }
      ],
      "name": "Paused",
      "type": "event"
    },
    {
      "anonymous": false,
      "inputs": [
        {
          "indexed": false,
          "internalType": "address",
          "name": "oldP12Factory",
          "type": "address"
        },
        {
          "indexed": false,
          "internalType": "address",
          "name": "newP12Factory",
          "type": "address"
        }
      ],
      "name": "SetP12Factory",
      "type": "event"
    },
    {
      "anonymous": false,
      "inputs": [
        {
          "indexed": false,
          "internalType": "contract IVotingEscrow",
          "name": "oldVotingEscrow",
          "type": "address"
        },
        {
          "indexed": false,
          "internalType": "contract IVotingEscrow",
          "name": "newVotingEscrow",
          "type": "address"
        }
      ],
      "name": "SetVotingEscrow",
      "type": "event"
    },
    {
      "anonymous": false,
      "inputs": [
        {
          "indexed": false,
          "internalType": "address",
          "name": "account",
          "type": "address"
        }
      ],
      "name": "Unpaused",
      "type": "event"
    },
    {
      "anonymous": false,
      "inputs": [
        {
          "indexed": true,
          "internalType": "address",
          "name": "implementation",
          "type": "address"
        }
      ],
      "name": "Upgraded",
      "type": "event"
    },
    {
      "anonymous": false,
      "inputs": [
        {
          "indexed": false,
          "internalType": "uint256",
          "name": "time",
          "type": "uint256"
        },
        {
          "indexed": false,
          "internalType": "address",
          "name": "user",
          "type": "address"
        },
        {
          "indexed": false,
          "internalType": "address",
          "name": "gaugeAddress",
          "type": "address"
        },
        {
          "indexed": false,
          "internalType": "uint256",
          "name": "weight",
          "type": "uint256"
        }
      ],
      "name": "VoteForGauge",
      "type": "event"
    },
    {
      "inputs": [],
      "name": "MULTIPLIER",
      "outputs": [
        {
          "internalType": "uint256",
          "name": "",
          "type": "uint256"
        }
      ],
      "stateMutability": "view",
      "type": "function"
    },
    {
      "inputs": [],
      "name": "WEEK",
      "outputs": [
        {
          "internalType": "uint256",
          "name": "",
          "type": "uint256"
        }
      ],
      "stateMutability": "view",
      "type": "function"
    },
    {
      "inputs": [],
      "name": "WEIGHT_VOTE_DELAY",
      "outputs": [
        {
          "internalType": "uint256",
          "name": "",
          "type": "uint256"
        }
      ],
      "stateMutability": "view",
      "type": "function"
    },
    {
      "inputs": [
        {
          "internalType": "address",
          "name": "addr",
          "type": "address"
        },
        {
          "internalType": "int128",
          "name": "gaugeType",
          "type": "int128"
        },
        {
          "internalType": "uint256",
          "name": "weight",
          "type": "uint256"
        }
      ],
      "name": "addGauge",
      "outputs": [],
      "stateMutability": "nonpayable",
      "type": "function"
    },
    {
      "inputs": [
        {
          "internalType": "string",
          "name": "name",
          "type": "string"
        },
        {
          "internalType": "uint256",
          "name": "weight",
          "type": "uint256"
        }
      ],
      "name": "addType",
      "outputs": [],
      "stateMutability": "nonpayable",
      "type": "function"
    },
    {
      "inputs": [
        {
          "internalType": "address",
          "name": "addr",
          "type": "address"
        },
        {
          "internalType": "uint256",
          "name": "weight",
          "type": "uint256"
        }
      ],
      "name": "changeGaugeWeight",
      "outputs": [],
      "stateMutability": "nonpayable",
      "type": "function"
    },
    {
      "inputs": [
        {
          "internalType": "int128",
          "name": "typeId",
          "type": "int128"
        },
        {
          "internalType": "uint256",
          "name": "weight",
          "type": "uint256"
        }
      ],
      "name": "changeTypeWeight",
      "outputs": [],
      "stateMutability": "nonpayable",
      "type": "function"
    },
    {
      "inputs": [],
      "name": "checkpoint",
      "outputs": [],
      "stateMutability": "nonpayable",
      "type": "function"
    },
    {
      "inputs": [
        {
          "internalType": "address",
          "name": "addr",
          "type": "address"
        }
      ],
      "name": "checkpointGauge",
      "outputs": [],
      "stateMutability": "nonpayable",
      "type": "function"
    },
    {
      "inputs": [],
      "name": "claimOwnership",
      "outputs": [],
      "stateMutability": "nonpayable",
      "type": "function"
    },
    {
      "inputs": [
        {
          "internalType": "address",
          "name": "addr",
          "type": "address"
        },
        {
          "internalType": "uint256",
          "name": "time",
          "type": "uint256"
        }
      ],
      "name": "gaugeRelativeWeight",
      "outputs": [
        {
          "internalType": "uint256",
          "name": "",
          "type": "uint256"
        }
      ],
      "stateMutability": "view",
      "type": "function"
    },
    {
      "inputs": [
        {
          "internalType": "address",
          "name": "addr",
          "type": "address"
        },
        {
          "internalType": "uint256",
          "name": "time",
          "type": "uint256"
        }
      ],
      "name": "gaugeRelativeWeightWrite",
      "outputs": [
        {
          "internalType": "uint256",
          "name": "",
          "type": "uint256"
        }
      ],
      "stateMutability": "nonpayable",
      "type": "function"
    },
    {
      "inputs": [
        {
          "internalType": "int128",
          "name": "",
          "type": "int128"
        }
      ],
      "name": "gaugeTypeNames",
      "outputs": [
        {
          "internalType": "string",
          "name": "",
          "type": "string"
        }
      ],
      "stateMutability": "view",
      "type": "function"
    },
    {
      "inputs": [
        {
          "internalType": "address",
          "name": "",
          "type": "address"
        }
      ],
      "name": "gaugeTypes",
      "outputs": [
        {
          "internalType": "int128",
          "name": "",
          "type": "int128"
        }
      ],
      "stateMutability": "view",
      "type": "function"
    },
    {
      "inputs": [
        {
          "internalType": "int128",
          "name": "",
          "type": "int128"
        }
      ],
      "name": "gauges",
      "outputs": [
        {
          "internalType": "address",
          "name": "",
          "type": "address"
        }
      ],
      "stateMutability": "view",
      "type": "function"
    },
    {
      "inputs": [
        {
          "internalType": "address",
          "name": "addr",
          "type": "address"
        }
      ],
      "name": "getGaugeTypes",
      "outputs": [
        {
          "internalType": "int128",
          "name": "",
          "type": "int128"
        }
      ],
      "stateMutability": "view",
      "type": "function"
    },
    {
      "inputs": [
        {
          "internalType": "address",
          "name": "addr",
          "type": "address"
        }
      ],
      "name": "getGaugeWeight",
      "outputs": [
        {
          "internalType": "uint256",
          "name": "",
          "type": "uint256"
        }
      ],
      "stateMutability": "view",
      "type": "function"
    },
    {
      "inputs": [],
      "name": "getTotalWeight",
      "outputs": [
        {
          "internalType": "uint256",
          "name": "",
          "type": "uint256"
        }
      ],
      "stateMutability": "view",
      "type": "function"
    },
    {
      "inputs": [
        {
          "internalType": "int128",
          "name": "typeId",
          "type": "int128"
        }
      ],
      "name": "getTypeWeight",
      "outputs": [
        {
          "internalType": "uint256",
          "name": "",
          "type": "uint256"
        }
      ],
      "stateMutability": "view",
      "type": "function"
    },
    {
      "inputs": [
        {
          "internalType": "int128",
          "name": "typeId",
          "type": "int128"
        }
      ],
      "name": "getWeightsSumPerType",
      "outputs": [
        {
          "internalType": "uint256",
          "name": "",
          "type": "uint256"
        }
      ],
      "stateMutability": "view",
      "type": "function"
    },
    {
      "inputs": [
        {
          "internalType": "address",
          "name": "votingEscrow_",
          "type": "address"
        },
        {
          "internalType": "address",
          "name": "p12CoinFactory_",
          "type": "address"
        }
      ],
      "name": "initialize",
      "outputs": [],
      "stateMutability": "nonpayable",
      "type": "function"
    },
    {
      "inputs": [
        {
          "internalType": "address",
          "name": "",
          "type": "address"
        },
        {
          "internalType": "address",
          "name": "",
          "type": "address"
        }
      ],
      "name": "lastUserVote",
      "outputs": [
        {
          "internalType": "uint256",
          "name": "",
          "type": "uint256"
        }
      ],
      "stateMutability": "view",
      "type": "function"
    },
    {
      "inputs": [],
      "name": "nGaugeTypes",
      "outputs": [
        {
          "internalType": "int128",
          "name": "",
          "type": "int128"
        }
      ],
      "stateMutability": "view",
      "type": "function"
    },
    {
      "inputs": [],
      "name": "nGauges",
      "outputs": [
        {
          "internalType": "int128",
          "name": "",
          "type": "int128"
        }
      ],
      "stateMutability": "view",
      "type": "function"
    },
    {
      "inputs": [],
      "name": "owner",
      "outputs": [
        {
          "internalType": "address",
          "name": "",
          "type": "address"
        }
      ],
      "stateMutability": "view",
      "type": "function"
    },
    {
      "inputs": [],
      "name": "p12CoinFactory",
      "outputs": [
        {
          "internalType": "address",
          "name": "",
          "type": "address"
        }
      ],
      "stateMutability": "view",
      "type": "function"
    },
    {
      "inputs": [],
      "name": "pause",
      "outputs": [],
      "stateMutability": "nonpayable",
      "type": "function"
    },
    {
      "inputs": [],
      "name": "paused",
      "outputs": [
        {
          "internalType": "bool",
          "name": "",
          "type": "bool"
        }
      ],
      "stateMutability": "view",
      "type": "function"
    },
    {
      "inputs": [],
      "name": "pendingOwner",
      "outputs": [
        {
          "internalType": "address",
          "name": "",
          "type": "address"
        }
      ],
      "stateMutability": "view",
      "type": "function"
    },
    {
      "inputs": [
        {
          "internalType": "int128",
          "name": "",
          "type": "int128"
        },
        {
          "internalType": "uint256",
          "name": "",
          "type": "uint256"
        }
      ],
      "name": "pointsSum",
      "outputs": [
        {
          "internalType": "uint256",
          "name": "bias",
          "type": "uint256"
        },
        {
          "internalType": "uint256",
          "name": "slope",
          "type": "uint256"
        }
      ],
      "stateMutability": "view",
      "type": "function"
    },
    {
      "inputs": [
        {
          "internalType": "uint256",
          "name": "",
          "type": "uint256"
        }
      ],
      "name": "pointsTotal",
      "outputs": [
        {
          "internalType": "uint256",
          "name": "",
          "type": "uint256"
        }
      ],
      "stateMutability": "view",
      "type": "function"
    },
    {
      "inputs": [
        {
          "internalType": "int128",
          "name": "",
          "type": "int128"
        },
        {
          "internalType": "uint256",
          "name": "",
          "type": "uint256"
        }
      ],
      "name": "pointsTypeWeight",
      "outputs": [
        {
          "internalType": "uint256",
          "name": "",
          "type": "uint256"
        }
      ],
      "stateMutability": "view",
      "type": "function"
    },
    {
      "inputs": [
        {
          "internalType": "address",
          "name": "",
          "type": "address"
        },
        {
          "internalType": "uint256",
          "name": "",
          "type": "uint256"
        }
      ],
      "name": "pointsWeight",
      "outputs": [
        {
          "internalType": "uint256",
          "name": "bias",
          "type": "uint256"
        },
        {
          "internalType": "uint256",
          "name": "slope",
          "type": "uint256"
        }
      ],
      "stateMutability": "view",
      "type": "function"
    },
    {
      "inputs": [],
      "name": "proxiableUUID",
      "outputs": [
        {
          "internalType": "bytes32",
          "name": "",
          "type": "bytes32"
        }
      ],
      "stateMutability": "view",
      "type": "function"
    },
    {
      "inputs": [],
      "name": "renounceOwnership",
      "outputs": [],
      "stateMutability": "nonpayable",
      "type": "function"
    },
    {
      "inputs": [
        {
          "internalType": "address",
          "name": "newP12Factory",
          "type": "address"
        }
      ],
      "name": "setP12CoinFactory",
      "outputs": [],
      "stateMutability": "nonpayable",
      "type": "function"
    },
    {
      "inputs": [
        {
          "internalType": "contract IVotingEscrow",
          "name": "newVotingEscrow",
          "type": "address"
        }
      ],
      "name": "setVotingEscrow",
      "outputs": [],
      "stateMutability": "nonpayable",
      "type": "function"
    },
    {
      "inputs": [
        {
          "internalType": "int128",
          "name": "",
          "type": "int128"
        }
      ],
      "name": "timeSum",
      "outputs": [
        {
          "internalType": "uint256",
          "name": "",
          "type": "uint256"
        }
      ],
      "stateMutability": "view",
      "type": "function"
    },
    {
      "inputs": [],
      "name": "timeTotal",
      "outputs": [
        {
          "internalType": "uint256",
          "name": "",
          "type": "uint256"
        }
      ],
      "stateMutability": "view",
      "type": "function"
    },
    {
      "inputs": [
        {
          "internalType": "int128",
          "name": "",
          "type": "int128"
        }
      ],
      "name": "timeTypeWeight",
      "outputs": [
        {
          "internalType": "uint256",
          "name": "",
          "type": "uint256"
        }
      ],
      "stateMutability": "view",
      "type": "function"
    },
    {
      "inputs": [
        {
          "internalType": "address",
          "name": "",
          "type": "address"
        }
      ],
      "name": "timeWeight",
      "outputs": [
        {
          "internalType": "uint256",
          "name": "",
          "type": "uint256"
        }
      ],
      "stateMutability": "view",
      "type": "function"
    },
    {
      "inputs": [
        {
          "internalType": "address",
          "name": "newOwner",
          "type": "address"
        },
        {
          "internalType": "bool",
          "name": "direct",
          "type": "bool"
        }
      ],
      "name": "transferOwnership",
      "outputs": [],
      "stateMutability": "nonpayable",
      "type": "function"
    },
    {
      "inputs": [],
      "name": "unpause",
      "outputs": [],
      "stateMutability": "nonpayable",
      "type": "function"
    },
    {
      "inputs": [
        {
          "internalType": "address",
          "name": "newImplementation",
          "type": "address"
        }
      ],
      "name": "upgradeTo",
      "outputs": [],
      "stateMutability": "nonpayable",
      "type": "function"
    },
    {
      "inputs": [
        {
          "internalType": "address",
          "name": "newImplementation",
          "type": "address"
        },
        {
          "internalType": "bytes",
          "name": "data",
          "type": "bytes"
        }
      ],
      "name": "upgradeToAndCall",
      "outputs": [],
      "stateMutability": "payable",
      "type": "function"
    },
    {
      "inputs": [
        {
          "internalType": "address",
          "name": "gaugeAddr",
          "type": "address"
        },
        {
          "internalType": "uint256",
          "name": "userWeight",
          "type": "uint256"
        }
      ],
      "name": "voteForGaugeWeights",
      "outputs": [],
      "stateMutability": "nonpayable",
      "type": "function"
    },
    {
      "inputs": [
        {
          "internalType": "address",
          "name": "",
          "type": "address"
        }
      ],
      "name": "voteUserPower",
      "outputs": [
        {
          "internalType": "uint256",
          "name": "",
          "type": "uint256"
        }
      ],
      "stateMutability": "view",
      "type": "function"
    },
    {
      "inputs": [
        {
          "internalType": "address",
          "name": "",
          "type": "address"
        },
        {
          "internalType": "address",
          "name": "",
          "type": "address"
        }
      ],
      "name": "voteUserSlopes",
      "outputs": [
        {
          "internalType": "uint256",
          "name": "slope",
          "type": "uint256"
        },
        {
          "internalType": "uint256",
          "name": "power",
          "type": "uint256"
        },
        {
          "internalType": "uint256",
          "name": "end",
          "type": "uint256"
        }
      ],
      "stateMutability": "view",
      "type": "function"
    },
    {
      "inputs": [],
      "name": "votingEscrow",
      "outputs": [
        {
          "internalType": "contract IVotingEscrow",
          "name": "",
          "type": "address"
        }
      ],
      "stateMutability": "view",
      "type": "function"
    }
  ],
  "transactionHash": "0xc2eb69105788799639917eb0249b8fe26a02684db12d9a804fd70f8a262af533",
  "args": [],
  "numDeployments": 1,
  "solcInputHash": "1f7f80fb95b6efcc6f464d7df403eaaa",
  "bytecode": "0x60a06040523060805234801561001457600080fd5b506080516135f961004c60003960008181610a9301528181610ad301528181610ddb01528181610e1b0152610eaa01526135f96000f3fe6080604052600436106102ae5760003560e01c806372be527611610175578063c685775a116100dc578063e4036c6d11610095578063ec73d9061161006f578063ec73d90614610998578063f4359ce5146109c5578063f763d1ff146109dc578063f89993f014610a1b57600080fd5b8063e4036c6d146108d1578063e75ec699146108fe578063eab9041e1461096057600080fd5b8063c685775a146107ec578063ce5ec92e14610822578063dd2b117f14610842578063e0ab067e14610863578063e24862e814610883578063e30c3978146108b357600080fd5b80639e08e3ef1161012e5780639e08e3ef146107095780639fbd4f6614610723578063b242e53414610743578063bb18d47a14610763578063c2c4c5c114610783578063c3a6ca131461079857600080fd5b806372be52761461062e5780637e183ba0146106765780638456cb5914610696578063870e3733146106ab5780638aca6a23146106cb5780638da5cb5b146106eb57600080fd5b8063491640411161021957806357f4cf27116101d257806357f4cf271461055d5780635c975abb1461059f57806365c60468146105c3578063688f3f1f146105e3578063715018a6146105f95780637244d9601461060e57600080fd5b806349164041146104b65780634e71e0c8146104e95780634f1ef286146104fe5780634f2bfe5b146105115780634f6ffd071461053157806352d1902d1461054857600080fd5b80632d1746911161026b5780632d174691146103da57806330928dc5146103fc5780633659cfe6146104295780633cd784f1146104495780633f4ba83a14610481578063485cc9551461049657600080fd5b8063057c9cb4146102b3578063059f8b16146102f357806306aba0e11461030f57806310d1ba581461033357806326f4ed5114610375578063289f338f146103ad575b600080fd5b3480156102bf57600080fd5b506102e06102ce366004612e40565b603d6020526000908152604090205481565b6040519081526020015b60405180910390f35b3480156102ff57600080fd5b506102e0670de0b6b3a764000081565b34801561031b57600080fd5b506003546000908152603d60205260409020546102e0565b34801561033f57600080fd5b506102e061034e366004612e70565b600f0b6000908152603e60209081526040808320603f835281842054845290915290205490565b34801561038157600080fd5b506102e0610390366004612ea0565b603660209081526000928352604080842090915290825290205481565b3480156103b957600080fd5b506102e06103c8366004612ed9565b60396020526000908152604090205481565b3480156103e657600080fd5b506103fa6103f5366004612ef6565b610a48565b005b34801561040857600080fd5b506102e0610417366004612e70565b603f6020526000908152604090205481565b34801561043557600080fd5b506103fa610444366004612ed9565b610a89565b34801561045557600080fd5b50600154610469906001600160a01b031681565b6040516001600160a01b0390911681526020016102ea565b34801561048d57600080fd5b506103fa610b68565b3480156104a257600080fd5b506103fa6104b1366004612ea0565b610b9c565b3480156104c257600080fd5b506104d66104d1366004612ed9565b610cfb565b604051600f9190910b81526020016102ea565b3480156104f557600080fd5b506103fa610d6f565b6103fa61050c366004612fae565b610dd1565b34801561051d57600080fd5b50600054610469906001600160a01b031681565b34801561053d57600080fd5b506102e0620d2f0081565b34801561055457600080fd5b506102e0610e9d565b34801561056957600080fd5b506102e0610578366004612e70565b600f0b6000908152603a60209081526040808320603c835281842054845290915290205490565b3480156105ab57600080fd5b506101095460ff1660405190151581526020016102ea565b3480156105cf57600080fd5b506102e06105de366004612ef6565b610f50565b3480156105ef57600080fd5b506102e060035481565b34801561060557600080fd5b506103fa610f65565b34801561061a57600080fd5b506103fa610629366004612ef6565b610f99565b34801561063a57600080fd5b506102e0610649366004612ed9565b6001600160a01b031660009081526037602090815260408083206039835281842054845290915290205490565b34801561068257600080fd5b506103fa610691366004612ed9565b611849565b3480156106a257600080fd5b506103fa611923565b3480156106b757600080fd5b506103fa6106c6366004613012565b611955565b3480156106d757600080fd5b506103fa6106e6366004612ed9565b611a17565b3480156106f757600080fd5b5060d7546001600160a01b0316610469565b34801561071557600080fd5b506002546104d690600f0b81565b34801561072f57600080fd5b506103fa61073e36600461306b565b611a29565b34801561074f57600080fd5b506103fa61075e3660046130a9565b611d73565b34801561076f57600080fd5b506102e061077e366004612ef6565b611e21565b34801561078f57600080fd5b506103fa611e40565b3480156107a457600080fd5b506107d76107b3366004612ef6565b60376020908152600092835260408084209091529082529020805460019091015482565b604080519283526020830191909152016102ea565b3480156107f857600080fd5b50610469610807366004612e70565b6032602052600090815260409020546001600160a01b031681565b34801561082e57600080fd5b506103fa61083d366004612ed9565b611e48565b34801561084e57600080fd5b506002546104d690600160801b9004600f0b81565b34801561086f57600080fd5b506103fa61087e3660046130dc565b611f1a565b34801561088f57600080fd5b506104d661089e366004612ed9565b603360205260009081526040902054600f0b81565b3480156108bf57600080fd5b5060d8546001600160a01b0316610469565b3480156108dd57600080fd5b506108f16108ec366004612e70565b611f4e565b6040516102ea9190613150565b34801561090a57600080fd5b50610945610919366004612ea0565b603460209081526000928352604080842090915290825290208054600182015460029092015490919083565b604080519384526020840192909252908201526060016102ea565b34801561096c57600080fd5b506102e061097b3660046130dc565b603e60209081526000928352604080842090915290825290205481565b3480156109a457600080fd5b506102e06109b3366004612ed9565b60356020526000908152604090205481565b3480156109d157600080fd5b506102e062093a8081565b3480156109e857600080fd5b506107d76109f73660046130dc565b603a6020908152600092835260408084209091529082529020805460019091015482565b348015610a2757600080fd5b506102e0610a36366004612e70565b603c6020526000908152604090205481565b60d7546001600160a01b03163314610a7b5760405162461bcd60e51b8152600401610a7290613163565b60405180910390fd5b610a858282611fe8565b5050565b6001600160a01b037f0000000000000000000000000000000000000000000000000000000000000000163003610ad15760405162461bcd60e51b8152600401610a729061319a565b7f00000000000000000000000000000000000000000000000000000000000000006001600160a01b0316610b1a60008051602061357d833981519152546001600160a01b031690565b6001600160a01b031614610b405760405162461bcd60e51b8152600401610a72906131e6565b610b4981612183565b60408051600080825260208201909252610b65918391906121ad565b50565b60d7546001600160a01b03163314610b925760405162461bcd60e51b8152600401610a7290613163565b610b9a612318565b565b604054610100900460ff16610bb75760405460ff1615610bbb565b303b155b610c1e5760405162461bcd60e51b815260206004820152602e60248201527f496e697469616c697a61626c653a20636f6e747261637420697320616c72656160448201526d191e481a5b9a5d1a585b1a5e995960921b6064820152608401610a72565b604054610100900460ff16158015610c40576040805461ffff19166101011790555b6001600160a01b03831615801590610c6057506001600160a01b03821615155b610ca45760405162461bcd60e51b8152602060048201526015602482015274047433a20616464726573732063616e206e6f74203605c1b6044820152606401610a72565b600080546001600160a01b038086166001600160a01b0319928316179092556001805492851692909116919091179055610cdc6123ad565b610ce46123e1565b8015610cf6576040805461ff00191690555b505050565b6001600160a01b038116600090815260336020526040812054600f0b808203610d5d5760405162461bcd60e51b815260206004820152601460248201527347433a2077726f6e67206761756765207479706560601b6044820152606401610a72565b610d68600182613248565b9392505050565b60d8546001600160a01b03163314610dc95760405162461bcd60e51b815260206004820152601e60248201527f536166654f776e61626c653a2063616c6c657220213d2070656e64696e6700006044820152606401610a72565b610b9a612411565b6001600160a01b037f0000000000000000000000000000000000000000000000000000000000000000163003610e195760405162461bcd60e51b8152600401610a729061319a565b7f00000000000000000000000000000000000000000000000000000000000000006001600160a01b0316610e6260008051602061357d833981519152546001600160a01b031690565b6001600160a01b031614610e885760405162461bcd60e51b8152600401610a72906131e6565b610e9182612183565b610a85828260016121ad565b6000306001600160a01b037f00000000000000000000000000000000000000000000000000000000000000001614610f3d5760405162461bcd60e51b815260206004820152603860248201527f555550535570677261646561626c653a206d757374206e6f742062652063616c60448201527f6c6564207468726f7567682064656c656761746563616c6c00000000000000006064820152608401610a72565b5060008051602061357d83398151915290565b6000610f5c838361247a565b90505b92915050565b60d7546001600160a01b03163314610f8f5760405162461bcd60e51b8152600401610a7290613163565b610b9a6000612554565b6101095460ff1615610fe05760405162461bcd60e51b815260206004820152601060248201526f14185d5cd8589b194e881c185d5cd95960821b6044820152606401610a72565b60008054604051631e74dac160e31b81523360048201526001600160a01b039091169063f3a6d608906024016020604051808303816000875af115801561102b573d6000803e3d6000fd5b505050506040513d601f19601f8201168201806040525081019061104f9190613298565b600080546040516326f57e5760e11b815233600482015292935090916001600160a01b0390911690634deafcae906024016020604051808303816000875af115801561109f573d6000803e3d6000fd5b505050506040513d601f19601f820116820180604052508101906110c39190613298565b9050600062093a80806110d681426132b1565b6110e091906132c9565b6110ea91906132eb565b905080821161112d5760405162461bcd60e51b815260206004820152600f60248201526e47433a206e6f2076616c696420766560881b6044820152606401610a72565b61271084111561117f5760405162461bcd60e51b815260206004820152601a60248201527f47433a206e6f20656e6f75676820766f74696e6720706f7765720000000000006044820152606401610a72565b3360009081526036602090815260408083206001600160a01b03891684529091529020546111b190620d2f00906132b1565b4210156112005760405162461bcd60e51b815260206004820152601860248201527f47433a2043616e6e6f7420766f746520736f206f6674656e00000000000000006044820152606401610a72565b60408051808201909152600080825260208201526001600160a01b03861660009081526033602052604081205461123c90600190600f0b613248565b9050600081600f0b12156112885760405162461bcd60e51b815260206004820152601360248201527211d0ce8811d85d59d9481b9bdd081859191959606a1b6044820152606401610a72565b3360009081526034602090815260408083206001600160a01b038b1684528252808320815160608101835281548152600182015493810193909352600201549082018190529091908510156112ea578482604001516112e7919061330a565b90505b81516112f79082906132eb565b84526040805160608101909152600090806127106113158c8c6132eb565b61131f91906132c9565b8152602081018b90526040018890529050600061133c878961330a565b825190915061134c9082906132eb565b602080880191909152848101518382015133600090815260359093526040909220549091611379916132b1565b611383919061330a565b33600090815260356020526040902081905561271010156113e65760405162461bcd60e51b815260206004820152601760248201527f47433a205573656420746f6f206d75636820706f7765720000000000000000006044820152606401610a72565b6114116040518060800160405280600081526020016000815260200160008152602001600081525090565b61141a8c6125a6565b81526001600160a01b038c1660009081526037602090815260408083208b84528252909120600101549082015261145086612725565b604080830191909152600f87900b6000908152603a60209081528282208b83528152919020600101546060830152875190880151825161149a91611493916132b1565b8951612873565b6114a4919061330a565b6001600160a01b038d1660009081526037602090815260408083208c845282529182902092909255885191890151908301516114e391611493916132b1565b6114ed919061330a565b600f87900b6000908152603a602090815260408083208c845290915290819020919091558501518810156115b05784518351602083015161153891611531916132b1565b8751612873565b611542919061330a565b6001600160a01b038d1660009081526037602090815260408083208c845290915290206001015584518351606083015161157f91611531916132b1565b611589919061330a565b600f87900b6000908152603a602090815260408083208c8452909152902060010155611626565b82516001600160a01b038d1660009081526037602090815260408083208c8452909152812060010180549091906115e89084906132b1565b90915550508251600f87900b6000908152603a602090815260408083208c8452909152812060010180549091906116209084906132b1565b90915550505b5042846040015111156116a95783516001600160a01b038c1660009081526038602090815260408083208189015184529091528120805490919061166b90849061330a565b90915550508351600f86900b6000908152603b60209081526040808320818901518452909152812080549091906116a390849061330a565b90915550505b81516001600160a01b038c166000908152603860209081526040808320818701518452909152812080549091906116e19084906132b1565b90915550508151600f86900b6000908152603b60209081526040808320818701518452909152812080549091906117199084906132b1565b90915550611727905061288a565b508160346000336001600160a01b03166001600160a01b0316815260200190815260200160002060008d6001600160a01b03166001600160a01b031681526020019081526020016000206000820151816000015560208201518160010155604082015181600201559050504260366000336001600160a01b03166001600160a01b0316815260200190815260200160002060008d6001600160a01b03166001600160a01b03168152602001908152602001600020819055507f45ca9a4c8d0119eb329e580d28fe689e484e1be230da8037ade9547d2d25cc9142338d8d60405161183494939291909384526001600160a01b03928316602085015291166040830152606082015260800190565b60405180910390a15050505050505050505050565b60d7546001600160a01b031633146118735760405162461bcd60e51b8152600401610a7290613163565b6001546001600160a01b039081169082166118c35760405162461bcd60e51b815260206004820152601060248201526f047433a2076652063616e206e6f7420360841b6044820152606401610a72565b600180546001600160a01b0319166001600160a01b0384811691821790925560408051928416835260208301919091527fb5004c6dd32173c6ee128faa447de600665c96ba213f764d94599ca5ceda78b191015b60405180910390a15050565b60d7546001600160a01b0316331461194d5760405162461bcd60e51b8152600401610a7290613163565b610b9a6129de565b60d7546001600160a01b0316331461197f5760405162461bcd60e51b8152600401610a7290613163565b600254600f0b600081815260316020526040902061199d84826133a3565b506119a9816001613463565b600280546001600160801b0319166001600160801b03929092169190911790558115610cf6576119d98183612a5b565b7f6fbe76157c712f16b5a3c44ed48baa04e3450bc3fab0c020e848aca72bbccc848382604051611a0a9291906134b2565b60405180910390a1505050565b611a20816125a6565b50610a8561288a565b60d7546001600160a01b0316331480611a4c57506001546001600160a01b031633145b611a985760405162461bcd60e51b815260206004820181905260248201527f47433a206f6e6c792061646d696e206f7220703132436f696e466163746f72796044820152606401610a72565b600082600f0b12158015611ab55750600254600f90810b9083900b125b611af75760405162461bcd60e51b815260206004820152601360248201527223a19d1033b0bab3b2aa3cb8329032b93937b960691b6044820152606401610a72565b6001600160a01b038316600090815260336020526040902054600f0b15611b605760405162461bcd60e51b815260206004820152601960248201527f47433a206475706c6963617465642067617567652074797065000000000000006044820152606401610a72565b600254600160801b9004600f0b611b78816001613463565b600280546001600160801b03928316600160801b029216919091179055600f81900b600090815260326020526040902080546001600160a01b0386166001600160a01b0319909116179055611bce836001613463565b6001600160a01b038516600090815260336020526040812080546001600160801b0319166001600160801b03939093169290921790915562093a8080611c1481426132b1565b611c1e91906132c9565b611c2891906132eb565b90508215611cdc576000611c3b85612b5f565b90506000611c4886612725565b90506000611c5461288a565b9050611c6082876132b1565b600f88900b6000818152603a60209081526040808320898452825280832094909455918152603c90915220849055611c9886846132eb565b611ca290826132b1565b6000858152603d602090815260408083209390935560038790556001600160a01b038b168252603781528282208783529052208690555050505b600f84900b6000908152603c60205260408120549003611d0d57600f84900b6000908152603c602052604090208190555b6001600160a01b0385166000818152603960209081526040918290208490558151928352600f87900b9083015281018490527ffd55b3191f9c9dd92f4f134dd700e7d76f6a0c836a08687023d6d38f03ebd8779060600160405180910390a15050505050565b60d7546001600160a01b03163314611d9d5760405162461bcd60e51b8152600401610a7290613163565b6001600160a01b038216611df35760405162461bcd60e51b815260206004820152601b60248201527f536166654f776e61626c653a206e6577206f776e6572206973203000000000006044820152606401610a72565b8015611e0257610a8582612554565b60d880546001600160a01b0319166001600160a01b0384161790555050565b6000611e2c836125a6565b50611e3561288a565b50610f5c838361247a565b610b6561288a565b60d7546001600160a01b03163314611e725760405162461bcd60e51b8152600401610a7290613163565b6000546001600160a01b03908116908216611ec25760405162461bcd60e51b815260206004820152601060248201526f047433a2076652063616e206e6f7420360841b6044820152606401610a72565b600080546001600160a01b0319166001600160a01b0384811691821790925560408051928416835260208301919091527fd828f779f83b901159162ddcecf828d6a7983bf62746349df2da26aff0ac140b9101611917565b60d7546001600160a01b03163314611f445760405162461bcd60e51b8152600401610a7290613163565b610a858282612a5b565b60316020526000908152604090208054611f6790613321565b80601f0160208091040260200160405190810160405280929190818152602001828054611f9390613321565b8015611fe05780601f10611fb557610100808354040283529160200191611fe0565b820191906000526020600020905b815481529060010190602001808311611fc357829003601f168201915b505050505081565b6001600160a01b03821660009081526033602052604081205461201090600190600f0b613248565b9050600061201d846125a6565b9050600061202a83612b5f565b9050600061203784612725565b9050600061204361288a565b9050600062093a808061205681426132b1565b61206091906132c9565b61206a91906132eb565b6001600160a01b038916600081815260376020908152604080832085845282528083208c905592825260399052908120829055909150856120ab89866132b1565b6120b5919061330a565b600f88900b6000818152603a602090815260408083208784528252808320859055928252603c90522083905590506120ed85856132eb565b6120f786836132eb565b61210190856132b1565b61210b919061330a565b6000838152603d6020908152604091829020839055600385905581516001600160a01b038d16815242918101919091529081018a9052606081018290529093507f54c0cf3647e6cdb2fc0a7876e60ba77563fceedf2e06c01c597f8dccb9e6bd729060800160405180910390a1505050505050505050565b60d7546001600160a01b03163314610b655760405162461bcd60e51b8152600401610a7290613163565b7f4910fdfa16fed3260ed0e7147f7cc6da11a60208b5b9406d12a635614ffd91435460ff16156121e057610cf683612c0c565b826001600160a01b03166352d1902d6040518163ffffffff1660e01b8152600401602060405180830381865afa92505050801561223a575060408051601f3d908101601f1916820190925261223791810190613298565b60015b61229d5760405162461bcd60e51b815260206004820152602e60248201527f45524331393637557067726164653a206e657720696d706c656d656e7461746960448201526d6f6e206973206e6f74205555505360901b6064820152608401610a72565b60008051602061357d833981519152811461230c5760405162461bcd60e51b815260206004820152602960248201527f45524331393637557067726164653a20756e737570706f727465642070726f786044820152681a58589b195555525160ba1b6064820152608401610a72565b50610cf6838383612ca8565b6101095460ff166123625760405162461bcd60e51b815260206004820152601460248201527314185d5cd8589b194e881b9bdd081c185d5cd95960621b6044820152606401610a72565b610109805460ff191690557f5db9ee0a495bf2e6ff9c91a7834c1ba4fdd244a5e8aa4e537bd38aeae4b073aa335b6040516001600160a01b03909116815260200160405180910390a1565b604054610100900460ff166123d45760405162461bcd60e51b8152600401610a72906134d7565b610109805460ff19169055565b604054610100900460ff166124085760405162461bcd60e51b8152600401610a72906134d7565b610b9a33612554565b60d75460d8546040516001600160a01b03928316929091169082907f8be0079c531659141344cd1fd0a4f28419497f9722a3daafe3b4186f6b6457e090600090a35060d8805460d780546001600160a01b03199081166001600160a01b03841617909155169055565b60008062093a8061248b81856132c9565b61249591906132eb565b6000818152603d60205260409020549091508015612549576001600160a01b0385166000908152603360205260408120546124d590600190600f0b613248565b600f81900b6000908152603e602090815260408083208784528252808320546001600160a01b038b168452603783528184208885529092529091205491925090838161252984670de0b6b3a76400006132eb565b61253391906132eb565b61253d91906132c9565b95505050505050610f5f565b600092505050610f5f565b60d780546001600160a01b038381166001600160a01b0319831681179093556040519116919082907f8be0079c531659141344cd1fd0a4f28419497f9722a3daafe3b4186f6b6457e090600090a35050565b6001600160a01b0381166000908152603960205260408120548015612716576001600160a01b038316600090815260376020908152604080832084845282528083208151808301909252805482526001015491810191909152905b6101f481101561270d5742831161270d5761261f62093a80846132b1565b9250600062093a80836020015161263691906132eb565b9050808360000151111561269a578083600001818151612656919061330a565b9052506001600160a01b0386166000908152603860209081526040808320878452825290912054908401805182919061269090839061330a565b9052506126a59050565b600080845260208401525b6001600160a01b038616600090815260376020908152604080832087845282529091208451815590840151600190910155428411156126fa576001600160a01b03861660009081526039602052604090208490555b508061270581613522565b915050612601565b50519392505050565b50600092915050565b50919050565b600f81900b6000908152603c6020526040812054801561271657600f83900b6000908152603a6020908152604080832084845282528083208151808301909252805482526001015491810191909152905b6101f481101561270d5742831161270d5761279462093a80846132b1565b9250600062093a8083602001516127ab91906132eb565b9050808360000151111561280a5780836000018181516127cb919061330a565b905250600f86900b6000908152603b60209081526040808320878452825290912054908401805182919061280090839061330a565b9052506128159050565b600080845260208401525b600f86900b6000908152603a60209081526040808320878452825290912084518155908401516001909101554284111561286057600f86900b6000908152603c602052604090208490555b508061286b81613522565b915050612776565b6000818310156128835781610f5c565b5090919050565b60035460025460009190600f0b428211156128af576128ac62093a808361330a565b91505b6000828152603d6020526040812054905b606481600f0b12156129005782600f0b81600f0b0315612900576128e381612725565b506128ed81612b5f565b50806128f88161353b565b9150506128c0565b5060005b6101f48110156129d6574284116129d65761292262093a80856132b1565b93506000915060005b606481600f0b12156129a457600254600f82810b91900b146129a457600f81900b6000818152603a60209081526040808320898452825280832054938352603e825280832089845290915290205461298381836132eb565b61298d90866132b1565b94505050808061299c9061353b565b91505061292b565b506000848152603d60205260409020829055428411156129c45760038490555b806129ce81613522565b915050612904565b509392505050565b6101095460ff1615612a255760405162461bcd60e51b815260206004820152601060248201526f14185d5cd8589b194e881c185d5cd95960821b6044820152606401610a72565b610109805460ff191660011790557f62e78cea01bee320cd4e420270b5ea74000d11b0c9f74754ebdbfc544b05a2586123903390565b6000612a6683612b5f565b90506000612a7384612725565b90506000612a7f61288a565b9050600062093a8080612a9281426132b1565b612a9c91906132c9565b612aa691906132eb565b9050612ab284846132eb565b612abc86856132eb565b612ac690846132b1565b612ad0919061330a565b6000828152603d60209081526040808320849055600f8a900b808452603e835281842086855283528184208a90556003869055808452603f83529281902085905580519283529082018490528101879052606081018290529092507e170bcdc909b6ac6e12d020fe8942256312cdcd555fb6d712899eba56d2f9019060800160405180910390a1505050505050565b600f81900b6000908152603f6020526040812054801561271657600f83900b6000908152603e60209081526040808320848452909152812054905b6101f48110156129d6574283116129d657612bb862093a80846132b1565b600f86900b6000908152603e602090815260408083208484529091529020839055925042831115612bfa57600f85900b6000908152603f602052604090208390555b80612c0481613522565b915050612b9a565b6001600160a01b0381163b612c795760405162461bcd60e51b815260206004820152602d60248201527f455243313936373a206e657720696d706c656d656e746174696f6e206973206e60448201526c1bdd08184818dbdb9d1c9858dd609a1b6064820152608401610a72565b60008051602061357d83398151915280546001600160a01b0319166001600160a01b0392909216919091179055565b612cb183612cd3565b600082511180612cbe5750805b15610cf657612ccd8383612d13565b50505050565b612cdc81612c0c565b6040516001600160a01b038216907fbc7cd75a20ee27fd9adebab32041f755214dbc6bffa90cc0225b39da2e5c2d3b90600090a250565b60606001600160a01b0383163b612d7b5760405162461bcd60e51b815260206004820152602660248201527f416464726573733a2064656c65676174652063616c6c20746f206e6f6e2d636f6044820152651b9d1c9858dd60d21b6064820152608401610a72565b600080846001600160a01b031684604051612d969190613560565b600060405180830381855af49150503d8060008114612dd1576040519150601f19603f3d011682016040523d82523d6000602084013e612dd6565b606091505b5091509150612dfe828260405180606001604052806027815260200161359d60279139612e07565b95945050505050565b60608315612e16575081610d68565b825115612e265782518084602001fd5b8160405162461bcd60e51b8152600401610a729190613150565b600060208284031215612e5257600080fd5b5035919050565b8035600f81900b8114612e6b57600080fd5b919050565b600060208284031215612e8257600080fd5b610f5c82612e59565b6001600160a01b0381168114610b6557600080fd5b60008060408385031215612eb357600080fd5b8235612ebe81612e8b565b91506020830135612ece81612e8b565b809150509250929050565b600060208284031215612eeb57600080fd5b8135610d6881612e8b565b60008060408385031215612f0957600080fd5b8235612f1481612e8b565b946020939093013593505050565b634e487b7160e01b600052604160045260246000fd5b600067ffffffffffffffff80841115612f5357612f53612f22565b604051601f8501601f19908116603f01168101908282118183101715612f7b57612f7b612f22565b81604052809350858152868686011115612f9457600080fd5b858560208301376000602087830101525050509392505050565b60008060408385031215612fc157600080fd5b8235612fcc81612e8b565b9150602083013567ffffffffffffffff811115612fe857600080fd5b8301601f81018513612ff957600080fd5b61300885823560208401612f38565b9150509250929050565b6000806040838503121561302557600080fd5b823567ffffffffffffffff81111561303c57600080fd5b8301601f8101851361304d57600080fd5b61305c85823560208401612f38565b95602094909401359450505050565b60008060006060848603121561308057600080fd5b833561308b81612e8b565b925061309960208501612e59565b9150604084013590509250925092565b600080604083850312156130bc57600080fd5b82356130c781612e8b565b915060208301358015158114612ece57600080fd5b600080604083850312156130ef57600080fd5b612f1483612e59565b60005b838110156131135781810151838201526020016130fb565b83811115612ccd5750506000910152565b6000815180845261313c8160208601602086016130f8565b601f01601f19169290920160200192915050565b602081526000610f5c6020830184613124565b6020808252601d908201527f536166654f776e61626c653a2063616c6c6572206e6f74206f776e6572000000604082015260600190565b6020808252602c908201527f46756e6374696f6e206d7573742062652063616c6c6564207468726f7567682060408201526b19195b1959d85d1958d85b1b60a21b606082015260800190565b6020808252602c908201527f46756e6374696f6e206d7573742062652063616c6c6564207468726f7567682060408201526b6163746976652070726f787960a01b606082015260800190565b634e487b7160e01b600052601160045260246000fd5b600081600f0b83600f0b600081128160016001607f1b03190183128115161561327357613273613232565b8160016001607f1b0301831381161561328e5761328e613232565b5090039392505050565b6000602082840312156132aa57600080fd5b5051919050565b600082198211156132c4576132c4613232565b500190565b6000826132e657634e487b7160e01b600052601260045260246000fd5b500490565b600081600019048311821515161561330557613305613232565b500290565b60008282101561331c5761331c613232565b500390565b600181811c9082168061333557607f821691505b60208210810361271f57634e487b7160e01b600052602260045260246000fd5b601f821115610cf657600081815260208120601f850160051c8101602086101561337c5750805b601f850160051c820191505b8181101561339b57828155600101613388565b505050505050565b815167ffffffffffffffff8111156133bd576133bd612f22565b6133d1816133cb8454613321565b84613355565b602080601f83116001811461340657600084156133ee5750858301515b600019600386901b1c1916600185901b17855561339b565b600085815260208120601f198616915b8281101561343557888601518255948401946001909101908401613416565b50858210156134535787850151600019600388901b60f8161c191681555b5050505050600190811b01905550565b600081600f0b83600f0b600082128260016001607f1b030382138115161561348d5761348d613232565b8260016001607f1b03190382128116156134a9576134a9613232565b50019392505050565b6040815260006134c56040830185613124565b905082600f0b60208301529392505050565b6020808252602b908201527f496e697469616c697a61626c653a20636f6e7472616374206973206e6f74206960408201526a6e697469616c697a696e6760a81b606082015260800190565b60006001820161353457613534613232565b5060010190565b600081600f0b60016001607f1b03810361355757613557613232565b60010192915050565b600082516135728184602087016130f8565b919091019291505056fe360894a13ba1a3210667c828492db98dca3e2076cc3735a920a3ca505d382bbc416464726573733a206c6f772d6c6576656c2064656c65676174652063616c6c206661696c6564a2646970667358221220f40a363ea445421a91a52abb6b574ea86b214e3dc828157ad43806787c7b430164736f6c634300080f0033",
  "devdoc": {
    "kind": "dev",
    "methods": {
      "addGauge(address,int128,uint256)": {
        "params": {
          "addr": "Gauge address",
          "gaugeType": "Gauge type",
          "weight": "Gauge weight"
        }
      },
      "addType(string,uint256)": {
        "params": {
          "name": "Name of gauge type",
          "weight": "Weight of gauge type"
        }
      },
      "changeGaugeWeight(address,uint256)": {
        "params": {
          "addr": "`GaugeController` contract address",
          "weight": "New Gauge weight"
        }
      },
      "changeTypeWeight(int128,uint256)": {
        "params": {
          "typeId": "Gauge type id",
          "weight": "New Gauge weight"
        }
      },
      "checkpointGauge(address)": {
        "params": {
          "addr": "Gauge address"
        }
      },
      "claimOwnership()": {
        "details": "pending owner call this function to claim ownership"
      },
      "gaugeRelativeWeight(address,uint256)": {
        "params": {
          "addr": "Gauge address",
          "time": "Relative weight at the specified timestamp in the past or present"
        },
        "returns": {
          "_0": "Value of relative weight normalized to 1e18"
        }
      },
      "gaugeRelativeWeightWrite(address,uint256)": {
        "details": "Any address can call, however nothing is recorded if the values are filled already",
        "params": {
          "addr": "Gauge address",
          "time": "Relative weight at the specified timestamp in the past or present"
        },
        "returns": {
          "_0": "Value of relative weight normalized to 1e18"
        }
      },
      "getGaugeTypes(address)": {
        "params": {
          "addr": "Gauge address"
        },
        "returns": {
          "_0": "Gauge type id"
        }
      },
      "getGaugeWeight(address)": {
        "params": {
          "addr": "Gauge address"
        },
        "returns": {
          "_0": "Gauge weight"
        }
      },
      "getTotalWeight()": {
        "returns": {
          "_0": "Total weight"
        }
      },
      "getTypeWeight(int128)": {
        "params": {
          "typeId": "Type id"
        },
        "returns": {
          "_0": "Type weight"
        }
      },
      "getWeightsSumPerType(int128)": {
        "params": {
          "typeId": "Type id"
        },
        "returns": {
          "_0": "Sum of gauge weights"
        }
      },
      "owner()": {
        "details": "Returns the address of the current owner."
      },
      "paused()": {
        "details": "Returns true if the contract is paused, and false otherwise."
      },
      "pendingOwner()": {
        "details": "Return the address of the pending owner"
      },
      "proxiableUUID()": {
        "details": "Implementation of the ERC1822 {proxiableUUID} function. This returns the storage slot used by the implementation. It is used to validate that the this implementation remains valid after an upgrade. IMPORTANT: A proxy pointing at a proxiable contract should not be considered proxiable itself, because this risks bricking a proxy that upgrades to it, by delegating to itself until out of gas. Thus it is critical that this function revert if invoked through a proxy. This is guaranteed by the `notDelegated` modifier."
      },
      "renounceOwnership()": {
        "details": "Leaves the contract without owner. It will not be possible to call `onlyOwner` functions anymore. Can only be called by the current owner. NOTE: Renouncing ownership will leave the contract without an owner, thereby removing any functionality that is only available to the owner."
      },
      "setP12CoinFactory(address)": {
        "params": {
          "newP12Factory": "address of newP12Factory"
        }
      },
      "setVotingEscrow(address)": {
        "params": {
          "newVotingEscrow": "address of votingEscrow"
        }
      },
      "transferOwnership(address,bool)": {
        "details": "Transfers ownership of the contract to a new account (`newOwner`). Can only be called by the current owner. Note If direct is false, it will set an pending owner and the OwnerShipTransferring only happens when the pending owner claim the ownership"
      },
      "upgradeTo(address)": {
        "details": "Upgrade the implementation of the proxy to `newImplementation`. Calls {_authorizeUpgrade}. Emits an {Upgraded} event."
      },
      "upgradeToAndCall(address,bytes)": {
        "details": "Upgrade the implementation of the proxy to `newImplementation`, and subsequently execute the function call encoded in `data`. Calls {_authorizeUpgrade}. Emits an {Upgraded} event."
      },
      "voteForGaugeWeights(address,uint256)": {
        "params": {
          "gaugeAddr": "Gauge which `msg.sender` votes for",
          "userWeight": "Weight for a gauge in bps (units of 0.01%). Minimal is 0.01%. Ignored if 0"
        }
      }
    },
    "version": 1
  },
  "userdoc": {
    "kind": "user",
    "methods": {
      "addGauge(address,int128,uint256)": {
        "notice": "Add gauge `addr` of type `gaugeType` with weight `weight`"
      },
      "addType(string,uint256)": {
        "notice": "Add gauge type with name `name` and weight `weight`"
      },
      "changeGaugeWeight(address,uint256)": {
        "notice": "Change weight of gauge `addr` to `weight`"
      },
      "changeTypeWeight(int128,uint256)": {
        "notice": "Change gauge type `typeId` weight to `weight`"
      },
      "checkpoint()": {
        "notice": "Checkpoint to fill data common for all gauges"
      },
      "checkpointGauge(address)": {
        "notice": "Checkpoint to fill data for both a specific gauge and common for all gauges"
      },
      "gaugeRelativeWeight(address,uint256)": {
        "notice": "Get Gauge relative weight (not more than 1.0) normalized to 1e18 (e.g. 1.0 == 1e18). Inflation which will be received by it is inflation_rate * relative_weight / 1e18"
      },
      "gaugeRelativeWeightWrite(address,uint256)": {
        "notice": "Get gauge weight normalized to 1e18 and also fill all the unfilled values for type and gauge records"
      },
      "getGaugeTypes(address)": {
        "notice": "Get gauge type for address"
      },
      "getGaugeWeight(address)": {
        "notice": "Get current gauge weight"
      },
      "getTotalWeight()": {
        "notice": "Get current total (type-weighted) weight"
      },
      "getTypeWeight(int128)": {
        "notice": "Get current type weight"
      },
      "getWeightsSumPerType(int128)": {
        "notice": "Get sum of gauge weights per type"
      },
      "setP12CoinFactory(address)": {
        "notice": "set new p12CoinFactory"
      },
      "setVotingEscrow(address)": {
        "notice": "set new votingEscrow"
      },
      "voteForGaugeWeights(address,uint256)": {
        "notice": "Allocate voting power for changing pool weights"
      }
    },
    "version": 1
  },
  "storageLayout": {
    "storage": [
      {
        "astId": 11905,
        "contract": "contracts/staking/GaugeControllerUpgradeable.sol:GaugeControllerUpgradeable",
        "label": "votingEscrow",
        "offset": 0,
        "slot": "0",
        "type": "t_contract(IVotingEscrow)18464"
      },
      {
        "astId": 11907,
        "contract": "contracts/staking/GaugeControllerUpgradeable.sol:GaugeControllerUpgradeable",
        "label": "p12CoinFactory",
        "offset": 0,
        "slot": "1",
        "type": "t_address"
      },
      {
        "astId": 11909,
        "contract": "contracts/staking/GaugeControllerUpgradeable.sol:GaugeControllerUpgradeable",
        "label": "nGaugeTypes",
        "offset": 0,
        "slot": "2",
        "type": "t_int128"
      },
      {
        "astId": 11911,
        "contract": "contracts/staking/GaugeControllerUpgradeable.sol:GaugeControllerUpgradeable",
        "label": "nGauges",
        "offset": 16,
        "slot": "2",
        "type": "t_int128"
      },
      {
        "astId": 11913,
        "contract": "contracts/staking/GaugeControllerUpgradeable.sol:GaugeControllerUpgradeable",
        "label": "timeTotal",
        "offset": 0,
        "slot": "3",
        "type": "t_uint256"
      },
      {
        "astId": 11917,
        "contract": "contracts/staking/GaugeControllerUpgradeable.sol:GaugeControllerUpgradeable",
        "label": "__gap",
        "offset": 0,
        "slot": "4",
        "type": "t_array(t_uint256)45_storage"
      },
      {
        "astId": 11921,
        "contract": "contracts/staking/GaugeControllerUpgradeable.sol:GaugeControllerUpgradeable",
        "label": "gaugeTypeNames",
        "offset": 0,
        "slot": "49",
        "type": "t_mapping(t_int128,t_string_storage)"
      },
      {
        "astId": 11925,
        "contract": "contracts/staking/GaugeControllerUpgradeable.sol:GaugeControllerUpgradeable",
        "label": "gauges",
        "offset": 0,
        "slot": "50",
        "type": "t_mapping(t_int128,t_address)"
      },
      {
        "astId": 11929,
        "contract": "contracts/staking/GaugeControllerUpgradeable.sol:GaugeControllerUpgradeable",
        "label": "gaugeTypes",
        "offset": 0,
        "slot": "51",
        "type": "t_mapping(t_address,t_int128)"
      },
      {
        "astId": 11936,
        "contract": "contracts/staking/GaugeControllerUpgradeable.sol:GaugeControllerUpgradeable",
        "label": "voteUserSlopes",
        "offset": 0,
        "slot": "52",
        "type": "t_mapping(t_address,t_mapping(t_address,t_struct(VotedSlope)12006_storage))"
      },
      {
        "astId": 11940,
        "contract": "contracts/staking/GaugeControllerUpgradeable.sol:GaugeControllerUpgradeable",
        "label": "voteUserPower",
        "offset": 0,
        "slot": "53",
        "type": "t_mapping(t_address,t_uint256)"
      },
      {
        "astId": 11946,
        "contract": "contracts/staking/GaugeControllerUpgradeable.sol:GaugeControllerUpgradeable",
        "label": "lastUserVote",
        "offset": 0,
        "slot": "54",
        "type": "t_mapping(t_address,t_mapping(t_address,t_uint256))"
      },
      {
        "astId": 11953,
        "contract": "contracts/staking/GaugeControllerUpgradeable.sol:GaugeControllerUpgradeable",
        "label": "pointsWeight",
        "offset": 0,
        "slot": "55",
        "type": "t_mapping(t_address,t_mapping(t_uint256,t_struct(Point)11999_storage))"
      },
      {
        "astId": 11959,
        "contract": "contracts/staking/GaugeControllerUpgradeable.sol:GaugeControllerUpgradeable",
        "label": "changesWeight",
        "offset": 0,
        "slot": "56",
        "type": "t_mapping(t_address,t_mapping(t_uint256,t_uint256))"
      },
      {
        "astId": 11963,
        "contract": "contracts/staking/GaugeControllerUpgradeable.sol:GaugeControllerUpgradeable",
        "label": "timeWeight",
        "offset": 0,
        "slot": "57",
        "type": "t_mapping(t_address,t_uint256)"
      },
      {
        "astId": 11970,
        "contract": "contracts/staking/GaugeControllerUpgradeable.sol:GaugeControllerUpgradeable",
        "label": "pointsSum",
        "offset": 0,
        "slot": "58",
        "type": "t_mapping(t_int128,t_mapping(t_uint256,t_struct(Point)11999_storage))"
      },
      {
        "astId": 11976,
        "contract": "contracts/staking/GaugeControllerUpgradeable.sol:GaugeControllerUpgradeable",
        "label": "changesSum",
        "offset": 0,
        "slot": "59",
        "type": "t_mapping(t_int128,t_mapping(t_uint256,t_uint256))"
      },
      {
        "astId": 11980,
        "contract": "contracts/staking/GaugeControllerUpgradeable.sol:GaugeControllerUpgradeable",
        "label": "timeSum",
        "offset": 0,
        "slot": "60",
        "type": "t_mapping(t_int128,t_uint256)"
      },
      {
        "astId": 11984,
        "contract": "contracts/staking/GaugeControllerUpgradeable.sol:GaugeControllerUpgradeable",
        "label": "pointsTotal",
        "offset": 0,
        "slot": "61",
        "type": "t_mapping(t_uint256,t_uint256)"
      },
      {
        "astId": 11990,
        "contract": "contracts/staking/GaugeControllerUpgradeable.sol:GaugeControllerUpgradeable",
        "label": "pointsTypeWeight",
        "offset": 0,
        "slot": "62",
        "type": "t_mapping(t_int128,t_mapping(t_uint256,t_uint256))"
      },
      {
        "astId": 11994,
        "contract": "contracts/staking/GaugeControllerUpgradeable.sol:GaugeControllerUpgradeable",
        "label": "timeTypeWeight",
        "offset": 0,
        "slot": "63",
        "type": "t_mapping(t_int128,t_uint256)"
      },
      {
        "astId": 395,
        "contract": "contracts/staking/GaugeControllerUpgradeable.sol:GaugeControllerUpgradeable",
        "label": "_initialized",
        "offset": 0,
        "slot": "64",
        "type": "t_bool"
      },
      {
        "astId": 398,
        "contract": "contracts/staking/GaugeControllerUpgradeable.sol:GaugeControllerUpgradeable",
        "label": "_initializing",
        "offset": 1,
        "slot": "64",
        "type": "t_bool"
      },
      {
        "astId": 377,
        "contract": "contracts/staking/GaugeControllerUpgradeable.sol:GaugeControllerUpgradeable",
        "label": "__gap",
        "offset": 0,
        "slot": "65",
        "type": "t_array(t_uint256)50_storage"
      },
      {
        "astId": 597,
        "contract": "contracts/staking/GaugeControllerUpgradeable.sol:GaugeControllerUpgradeable",
        "label": "__gap",
        "offset": 0,
        "slot": "115",
        "type": "t_array(t_uint256)50_storage"
      },
      {
        "astId": 1354,
        "contract": "contracts/staking/GaugeControllerUpgradeable.sol:GaugeControllerUpgradeable",
        "label": "__gap",
        "offset": 0,
        "slot": "165",
        "type": "t_array(t_uint256)50_storage"
      },
      {
        "astId": 7440,
        "contract": "contracts/staking/GaugeControllerUpgradeable.sol:GaugeControllerUpgradeable",
        "label": "_owner",
        "offset": 0,
        "slot": "215",
        "type": "t_address"
      },
      {
        "astId": 7442,
        "contract": "contracts/staking/GaugeControllerUpgradeable.sol:GaugeControllerUpgradeable",
        "label": "_pendingOwner",
        "offset": 0,
        "slot": "216",
        "type": "t_address"
      },
      {
        "astId": 7625,
        "contract": "contracts/staking/GaugeControllerUpgradeable.sol:GaugeControllerUpgradeable",
        "label": "__gap",
        "offset": 0,
        "slot": "217",
        "type": "t_array(t_uint256)48_storage"
      },
      {
        "astId": 619,
        "contract": "contracts/staking/GaugeControllerUpgradeable.sol:GaugeControllerUpgradeable",
        "label": "_paused",
        "offset": 0,
        "slot": "265",
        "type": "t_bool"
      },
      {
        "astId": 708,
        "contract": "contracts/staking/GaugeControllerUpgradeable.sol:GaugeControllerUpgradeable",
        "label": "__gap",
        "offset": 0,
        "slot": "266",
        "type": "t_array(t_uint256)49_storage"
      }
    ],
    "types": {
      "t_address": {
        "encoding": "inplace",
        "label": "address",
        "numberOfBytes": "20"
      },
      "t_array(t_uint256)45_storage": {
        "base": "t_uint256",
        "encoding": "inplace",
        "label": "uint256[45]",
        "numberOfBytes": "1440"
      },
      "t_array(t_uint256)48_storage": {
        "base": "t_uint256",
        "encoding": "inplace",
        "label": "uint256[48]",
        "numberOfBytes": "1536"
      },
      "t_array(t_uint256)49_storage": {
        "base": "t_uint256",
        "encoding": "inplace",
        "label": "uint256[49]",
        "numberOfBytes": "1568"
      },
      "t_array(t_uint256)50_storage": {
        "base": "t_uint256",
        "encoding": "inplace",
        "label": "uint256[50]",
        "numberOfBytes": "1600"
      },
      "t_bool": {
        "encoding": "inplace",
        "label": "bool",
        "numberOfBytes": "1"
      },
      "t_contract(IVotingEscrow)18464": {
        "encoding": "inplace",
        "label": "contract IVotingEscrow",
        "numberOfBytes": "20"
      },
      "t_int128": {
        "encoding": "inplace",
        "label": "int128",
        "numberOfBytes": "16"
      },
      "t_mapping(t_address,t_int128)": {
        "encoding": "mapping",
        "key": "t_address",
        "label": "mapping(address => int128)",
        "numberOfBytes": "32",
        "value": "t_int128"
      },
      "t_mapping(t_address,t_mapping(t_address,t_struct(VotedSlope)12006_storage))": {
        "encoding": "mapping",
        "key": "t_address",
        "label": "mapping(address => mapping(address => struct ControllerStorage.VotedSlope))",
        "numberOfBytes": "32",
        "value": "t_mapping(t_address,t_struct(VotedSlope)12006_storage)"
      },
      "t_mapping(t_address,t_mapping(t_address,t_uint256))": {
        "encoding": "mapping",
        "key": "t_address",
        "label": "mapping(address => mapping(address => uint256))",
        "numberOfBytes": "32",
        "value": "t_mapping(t_address,t_uint256)"
      },
      "t_mapping(t_address,t_mapping(t_uint256,t_struct(Point)11999_storage))": {
        "encoding": "mapping",
        "key": "t_address",
        "label": "mapping(address => mapping(uint256 => struct ControllerStorage.Point))",
        "numberOfBytes": "32",
        "value": "t_mapping(t_uint256,t_struct(Point)11999_storage)"
      },
      "t_mapping(t_address,t_mapping(t_uint256,t_uint256))": {
        "encoding": "mapping",
        "key": "t_address",
        "label": "mapping(address => mapping(uint256 => uint256))",
        "numberOfBytes": "32",
        "value": "t_mapping(t_uint256,t_uint256)"
      },
      "t_mapping(t_address,t_struct(VotedSlope)12006_storage)": {
        "encoding": "mapping",
        "key": "t_address",
        "label": "mapping(address => struct ControllerStorage.VotedSlope)",
        "numberOfBytes": "32",
        "value": "t_struct(VotedSlope)12006_storage"
      },
      "t_mapping(t_address,t_uint256)": {
        "encoding": "mapping",
        "key": "t_address",
        "label": "mapping(address => uint256)",
        "numberOfBytes": "32",
        "value": "t_uint256"
      },
      "t_mapping(t_int128,t_address)": {
        "encoding": "mapping",
        "key": "t_int128",
        "label": "mapping(int128 => address)",
        "numberOfBytes": "32",
        "value": "t_address"
      },
      "t_mapping(t_int128,t_mapping(t_uint256,t_struct(Point)11999_storage))": {
        "encoding": "mapping",
        "key": "t_int128",
        "label": "mapping(int128 => mapping(uint256 => struct ControllerStorage.Point))",
        "numberOfBytes": "32",
        "value": "t_mapping(t_uint256,t_struct(Point)11999_storage)"
      },
      "t_mapping(t_int128,t_mapping(t_uint256,t_uint256))": {
        "encoding": "mapping",
        "key": "t_int128",
        "label": "mapping(int128 => mapping(uint256 => uint256))",
        "numberOfBytes": "32",
        "value": "t_mapping(t_uint256,t_uint256)"
      },
      "t_mapping(t_int128,t_string_storage)": {
        "encoding": "mapping",
        "key": "t_int128",
        "label": "mapping(int128 => string)",
        "numberOfBytes": "32",
        "value": "t_string_storage"
      },
      "t_mapping(t_int128,t_uint256)": {
        "encoding": "mapping",
        "key": "t_int128",
        "label": "mapping(int128 => uint256)",
        "numberOfBytes": "32",
        "value": "t_uint256"
      },
      "t_mapping(t_uint256,t_struct(Point)11999_storage)": {
        "encoding": "mapping",
        "key": "t_uint256",
        "label": "mapping(uint256 => struct ControllerStorage.Point)",
        "numberOfBytes": "32",
        "value": "t_struct(Point)11999_storage"
      },
      "t_mapping(t_uint256,t_uint256)": {
        "encoding": "mapping",
        "key": "t_uint256",
        "label": "mapping(uint256 => uint256)",
        "numberOfBytes": "32",
        "value": "t_uint256"
      },
      "t_string_storage": {
        "encoding": "bytes",
        "label": "string",
        "numberOfBytes": "32"
      },
      "t_struct(Point)11999_storage": {
        "encoding": "inplace",
        "label": "struct ControllerStorage.Point",
        "members": [
          {
            "astId": 11996,
            "contract": "contracts/staking/GaugeControllerUpgradeable.sol:GaugeControllerUpgradeable",
            "label": "bias",
            "offset": 0,
            "slot": "0",
            "type": "t_uint256"
          },
          {
            "astId": 11998,
            "contract": "contracts/staking/GaugeControllerUpgradeable.sol:GaugeControllerUpgradeable",
            "label": "slope",
            "offset": 0,
            "slot": "1",
            "type": "t_uint256"
          }
        ],
        "numberOfBytes": "64"
      },
      "t_struct(VotedSlope)12006_storage": {
        "encoding": "inplace",
        "label": "struct ControllerStorage.VotedSlope",
        "members": [
          {
            "astId": 12001,
            "contract": "contracts/staking/GaugeControllerUpgradeable.sol:GaugeControllerUpgradeable",
            "label": "slope",
            "offset": 0,
            "slot": "0",
            "type": "t_uint256"
          },
          {
            "astId": 12003,
            "contract": "contracts/staking/GaugeControllerUpgradeable.sol:GaugeControllerUpgradeable",
            "label": "power",
            "offset": 0,
            "slot": "1",
            "type": "t_uint256"
          },
          {
            "astId": 12005,
            "contract": "contracts/staking/GaugeControllerUpgradeable.sol:GaugeControllerUpgradeable",
            "label": "end",
            "offset": 0,
            "slot": "2",
            "type": "t_uint256"
          }
        ],
        "numberOfBytes": "96"
      },
      "t_uint256": {
        "encoding": "inplace",
        "label": "uint256",
        "numberOfBytes": "32"
      }
    }
  }
}