{
  "address": "0xfF5226Dd7c4c37F2edf62C001203B3c7FAdF7F59",
  "abi": [
    {
      "anonymous": false,
      "inputs": [
        {
          "indexed": false,
          "internalType": "address",
          "name": "previousAdmin",
          "type": "address"
        },
        {
          "indexed": false,
          "internalType": "address",
          "name": "newAdmin",
          "type": "address"
        }
      ],
      "name": "AdminChanged",
      "type": "event"
    },
    {
      "anonymous": false,
      "inputs": [
        {
          "indexed": true,
          "internalType": "address",
          "name": "beacon",
          "type": "address"
        }
      ],
      "name": "BeaconUpgraded",
      "type": "event"
    },
    {
      "anonymous": false,
      "inputs": [
        {
          "indexed": true,
          "internalType": "address",
          "name": "collection",
          "type": "address"
        },
        {
          "indexed": true,
          "internalType": "address",
          "name": "developer",
          "type": "address"
        }
      ],
      "name": "CollectionCreated",
      "type": "event"
    },
    {
      "anonymous": false,
      "inputs": [
        {
          "indexed": true,
          "internalType": "address",
          "name": "previousOwner",
          "type": "address"
        },
        {
          "indexed": true,
          "internalType": "address",
          "name": "newOwner",
          "type": "address"
        }
      ],
      "name": "OwnershipTransferred",
      "type": "event"
    },
    {
      "anonymous": false,
      "inputs": [
        {
          "indexed": false,
          "internalType": "address",
          "name": "account",
          "type": "address"
        }
      ],
      "name": "Paused",
      "type": "event"
    },
    {
      "anonymous": false,
      "inputs": [
        {
          "indexed": false,
          "internalType": "address",
          "name": "oldP12Factory",
          "type": "address"
        },
        {
          "indexed": false,
          "internalType": "address",
          "name": "newP12Factory",
          "type": "address"
        }
      ],
      "name": "SetP12Factory",
      "type": "event"
    },
    {
      "anonymous": false,
      "inputs": [
        {
          "indexed": true,
          "internalType": "address",
          "name": "collection",
          "type": "address"
        },
        {
          "indexed": true,
          "internalType": "uint256",
          "name": "tokenId",
          "type": "uint256"
        },
        {
          "indexed": false,
          "internalType": "uint256",
          "name": "amount",
          "type": "uint256"
        }
      ],
      "name": "SftCreated",
      "type": "event"
    },
    {
      "anonymous": false,
      "inputs": [
        {
          "indexed": false,
          "internalType": "address",
          "name": "account",
          "type": "address"
        }
      ],
      "name": "Unpaused",
      "type": "event"
    },
    {
      "anonymous": false,
      "inputs": [
        {
          "indexed": true,
          "internalType": "address",
          "name": "implementation",
          "type": "address"
        }
      ],
      "name": "Upgraded",
      "type": "event"
    },
    {
      "inputs": [],
      "name": "claimOwnership",
      "outputs": [],
      "stateMutability": "nonpayable",
      "type": "function"
    },
    {
      "inputs": [
        {
          "internalType": "address",
          "name": "collection",
          "type": "address"
        },
        {
          "internalType": "uint256",
          "name": "amount",
          "type": "uint256"
        },
        {
          "internalType": "string",
          "name": "uri",
          "type": "string"
        }
      ],
      "name": "createAssetAndMint",
      "outputs": [],
      "stateMutability": "nonpayable",
      "type": "function"
    },
    {
      "inputs": [
        {
          "internalType": "string",
          "name": "gameId",
          "type": "string"
        },
        {
          "internalType": "string",
          "name": "contractURI",
          "type": "string"
        }
      ],
      "name": "createCollection",
      "outputs": [],
      "stateMutability": "nonpayable",
      "type": "function"
    },
    {
      "inputs": [
        {
          "internalType": "address",
          "name": "p12CoinFactory_",
          "type": "address"
        }
      ],
      "name": "initialize",
      "outputs": [],
      "stateMutability": "nonpayable",
      "type": "function"
    },
    {
      "inputs": [],
      "name": "owner",
      "outputs": [
        {
          "internalType": "address",
          "name": "",
          "type": "address"
        }
      ],
      "stateMutability": "view",
      "type": "function"
    },
    {
      "inputs": [],
      "name": "p12CoinFactory",
      "outputs": [
        {
          "internalType": "address",
          "name": "",
          "type": "address"
        }
      ],
      "stateMutability": "view",
      "type": "function"
    },
    {
      "inputs": [],
      "name": "pause",
      "outputs": [],
      "stateMutability": "nonpayable",
      "type": "function"
    },
    {
      "inputs": [],
      "name": "paused",
      "outputs": [
        {
          "internalType": "bool",
          "name": "",
          "type": "bool"
        }
      ],
      "stateMutability": "view",
      "type": "function"
    },
    {
      "inputs": [],
      "name": "pendingOwner",
      "outputs": [
        {
          "internalType": "address",
          "name": "",
          "type": "address"
        }
      ],
      "stateMutability": "view",
      "type": "function"
    },
    {
      "inputs": [],
      "name": "proxiableUUID",
      "outputs": [
        {
          "internalType": "bytes32",
          "name": "",
          "type": "bytes32"
        }
      ],
      "stateMutability": "view",
      "type": "function"
    },
    {
      "inputs": [
        {
          "internalType": "address",
          "name": "",
          "type": "address"
        }
      ],
      "name": "registry",
      "outputs": [
        {
          "internalType": "string",
          "name": "",
          "type": "string"
        }
      ],
      "stateMutability": "view",
      "type": "function"
    },
    {
      "inputs": [],
      "name": "renounceOwnership",
      "outputs": [],
      "stateMutability": "nonpayable",
      "type": "function"
    },
    {
      "inputs": [
        {
          "internalType": "address",
          "name": "newP12CoinFactory",
          "type": "address"
        }
      ],
      "name": "setP12CoinFactory",
      "outputs": [],
      "stateMutability": "nonpayable",
      "type": "function"
    },
    {
      "inputs": [
        {
          "internalType": "address",
          "name": "newOwner",
          "type": "address"
        },
        {
          "internalType": "bool",
          "name": "direct",
          "type": "bool"
        }
      ],
      "name": "transferOwnership",
      "outputs": [],
      "stateMutability": "nonpayable",
      "type": "function"
    },
    {
      "inputs": [],
      "name": "unpause",
      "outputs": [],
      "stateMutability": "nonpayable",
      "type": "function"
    },
    {
      "inputs": [
        {
          "internalType": "address",
          "name": "collection",
          "type": "address"
        },
        {
          "internalType": "string",
          "name": "newUri",
          "type": "string"
        }
      ],
      "name": "updateCollectionUri",
      "outputs": [],
      "stateMutability": "nonpayable",
      "type": "function"
    },
    {
      "inputs": [
        {
          "internalType": "address",
          "name": "collection",
          "type": "address"
        },
        {
          "internalType": "uint256",
          "name": "tokenId",
          "type": "uint256"
        },
        {
          "internalType": "string",
          "name": "newUri",
          "type": "string"
        }
      ],
      "name": "updateSftUri",
      "outputs": [],
      "stateMutability": "nonpayable",
      "type": "function"
    },
    {
      "inputs": [
        {
          "internalType": "address",
          "name": "newImplementation",
          "type": "address"
        }
      ],
      "name": "upgradeTo",
      "outputs": [],
      "stateMutability": "nonpayable",
      "type": "function"
    },
    {
      "inputs": [
        {
          "internalType": "address",
          "name": "newImplementation",
          "type": "address"
        },
        {
          "internalType": "bytes",
          "name": "data",
          "type": "bytes"
        }
      ],
      "name": "upgradeToAndCall",
      "outputs": [],
      "stateMutability": "payable",
      "type": "function"
    }
  ],
  "transactionHash": "0xf146682fd08daaf197d8c34d6d307db3b7dbdff680dbb87a89c842d03f37bbfd",
  "args": [],
  "numDeployments": 1,
  "solcInputHash": "ee6d5ae419b7f7671c30fcb2c503c6fc",
  "bytecode": "0x60a06040523060805234801561001457600080fd5b5060805161441361004c6000396000818161062b0152818161066e01528181610a3c01528181610a7f0152610b1b01526144136000f3fe6080604052600436106200012b5760003560e01c806352d1902d11620000ad5780638da5cb5b116200006c5780638da5cb5b1462000326578063b242e5341462000346578063c4d66de8146200036b578063d5bc3ab11462000390578063e30c397814620003b557600080fd5b806352d1902d14620002855780635c975abb14620002ac578063715018a614620002d15780637e183ba014620002e95780638456cb59146200030e57600080fd5b80633f4ba83a11620000fa5780633f4ba83a14620001f4578063408a908f146200020c578063422cf3fe14620002315780634e71e0c814620002565780634f1ef286146200026e57600080fd5b8063038defd71462000130578063176b9b75146200016d5780633659cfe614620001945780633cd784f114620001b9575b600080fd5b3480156200013d57600080fd5b50620001556200014f366004620017a7565b620003d5565b60405162000164919062001824565b60405180910390f35b3480156200017a57600080fd5b50620001926200018c36600462001885565b62000477565b005b348015620001a157600080fd5b5062000192620001b3366004620017a7565b62000621565b348015620001c657600080fd5b50600154620001db906001600160a01b031681565b6040516001600160a01b03909116815260200162000164565b3480156200020157600080fd5b50620001926200070c565b3480156200021957600080fd5b50620001926200022b366004620018f8565b62000745565b3480156200023e57600080fd5b5062000192620002503660046200194e565b6200088a565b3480156200026357600080fd5b5062000192620009cc565b620001926200027f366004620019bf565b62000a32565b3480156200029257600080fd5b506200029d62000b0e565b60405190815260200162000164565b348015620002b957600080fd5b5060ca5460ff16604051901515815260200162000164565b348015620002de57600080fd5b506200019262000bc4565b348015620002f657600080fd5b506200019262000308366004620017a7565b62000bfd565b3480156200031b57600080fd5b506200019262000cb9565b3480156200033357600080fd5b506098546001600160a01b0316620001db565b3480156200035357600080fd5b50620001926200036536600462001a8f565b62000cf0565b3480156200037857600080fd5b50620001926200038a366004620017a7565b62000da6565b3480156200039d57600080fd5b5062000192620003af366004620018f8565b62000ec7565b348015620003c257600080fd5b506099546001600160a01b0316620001db565b60006020819052908152604090208054620003f09062001ad1565b80601f01602080910402602001604051908101604052809291908181526020018280546200041e9062001ad1565b80156200046f5780601f1062000443576101008083540402835291602001916200046f565b820191906000526020600020905b8154815290600101906020018083116200045157829003601f168201915b505050505081565b83838080601f0160208091040260200160405190810160405280939291908181526020018383808284376000920191909152505060015460405163cad2efad60e01b81523393506001600160a01b03909116915063cad2efad90620004e190859060040162001824565b602060405180830381865afa158015620004ff573d6000803e3d6000fd5b505050506040513d601f19601f8201168201806040525081019062000525919062001b0d565b6001600160a01b031614620005575760405162461bcd60e51b81526004016200054e9062001b2d565b60405180910390fd5b60ca5460ff16156200057d5760405162461bcd60e51b81526004016200054e9062001b64565b600083836040516200058f9062001783565b6200059c92919062001bb7565b604051809103906000f080158015620005b9573d6000803e3d6000fd5b506001600160a01b0381166000908152602081905260409020909150620005e286888362001c27565b5060405133906001600160a01b038316907f5d0de243db1669e3a7056744cd715c625f0c1c348736c2c2d53d0ddebff1a6c790600090a3505050505050565b6001600160a01b037f00000000000000000000000000000000000000000000000000000000000000001630036200066c5760405162461bcd60e51b81526004016200054e9062001cf5565b7f00000000000000000000000000000000000000000000000000000000000000006001600160a01b0316620006b760008051602062004397833981519152546001600160a01b031690565b6001600160a01b031614620006e05760405162461bcd60e51b81526004016200054e9062001d41565b620006eb816200113d565b6040805160008082526020820190925262000709918391906200116a565b50565b6098546001600160a01b03163314620007395760405162461bcd60e51b81526004016200054e9062001d8d565b62000743620012e7565b565b6001546001600160a01b0380861660009081526020819052604090819020905163cad2efad60e01b815287933393169163cad2efad916200078a919060040162001dc4565b602060405180830381865afa158015620007a8573d6000803e3d6000fd5b505050506040513d601f19601f82011682018060405250810190620007ce919062001b0d565b6001600160a01b031614620007f75760405162461bcd60e51b81526004016200054e9062001b2d565b60ca5460ff16156200081d5760405162461bcd60e51b81526004016200054e9062001b64565b604051633c17845760e11b81526001600160a01b0386169063782f08ae906200084f9087908790879060040162001e57565b600060405180830381600087803b1580156200086a57600080fd5b505af11580156200087f573d6000803e3d6000fd5b505050505050505050565b6001546001600160a01b0380851660009081526020819052604090819020905163cad2efad60e01b815286933393169163cad2efad91620008cf919060040162001dc4565b602060405180830381865afa158015620008ed573d6000803e3d6000fd5b505050506040513d601f19601f8201168201806040525081019062000913919062001b0d565b6001600160a01b0316146200093c5760405162461bcd60e51b81526004016200054e9062001b2d565b60ca5460ff1615620009625760405162461bcd60e51b81526004016200054e9062001b64565b60405163938e3d7b60e01b81526001600160a01b0385169063938e3d7b9062000992908690869060040162001bb7565b600060405180830381600087803b158015620009ad57600080fd5b505af1158015620009c2573d6000803e3d6000fd5b5050505050505050565b6099546001600160a01b0316331462000a285760405162461bcd60e51b815260206004820152601e60248201527f536166654f776e61626c653a2063616c6c657220213d2070656e64696e67000060448201526064016200054e565b620007436200137c565b6001600160a01b037f000000000000000000000000000000000000000000000000000000000000000016300362000a7d5760405162461bcd60e51b81526004016200054e9062001cf5565b7f00000000000000000000000000000000000000000000000000000000000000006001600160a01b031662000ac860008051602062004397833981519152546001600160a01b031690565b6001600160a01b03161462000af15760405162461bcd60e51b81526004016200054e9062001d41565b62000afc826200113d565b62000b0a828260016200116a565b5050565b6000306001600160a01b037f0000000000000000000000000000000000000000000000000000000000000000161462000bb05760405162461bcd60e51b815260206004820152603860248201527f555550535570677261646561626c653a206d757374206e6f742062652063616c60448201527f6c6564207468726f7567682064656c656761746563616c6c000000000000000060648201526084016200054e565b506000805160206200439783398151915290565b6098546001600160a01b0316331462000bf15760405162461bcd60e51b81526004016200054e9062001d8d565b620007436000620013e5565b6098546001600160a01b0316331462000c2a5760405162461bcd60e51b81526004016200054e9062001d8d565b6001546001600160a01b0390811690821662000c5a5760405162461bcd60e51b81526004016200054e9062001e73565b600180546001600160a01b0319166001600160a01b0384811691821790925560408051928416835260208301919091527fb5004c6dd32173c6ee128faa447de600665c96ba213f764d94599ca5ceda78b1910160405180910390a15050565b6098546001600160a01b0316331462000ce65760405162461bcd60e51b81526004016200054e9062001d8d565b6200074362001437565b6098546001600160a01b0316331462000d1d5760405162461bcd60e51b81526004016200054e9062001d8d565b6001600160a01b03821662000d755760405162461bcd60e51b815260206004820152601b60248201527f536166654f776e61626c653a206e6577206f776e65722069732030000000000060448201526064016200054e565b801562000d875762000b0a82620013e5565b609980546001600160a01b0319166001600160a01b0384161790555050565b603354610100900460ff1662000dc35760335460ff161562000dc7565b303b155b62000e2c5760405162461bcd60e51b815260206004820152602e60248201527f496e697469616c697a61626c653a20636f6e747261637420697320616c72656160448201526d191e481a5b9a5d1a585b1a5e995960921b60648201526084016200054e565b603354610100900460ff1615801562000e4f576033805461ffff19166101011790555b6001600160a01b03821662000e785760405162461bcd60e51b81526004016200054e9062001e73565b600180546001600160a01b0319166001600160a01b03841617905562000e9d62001493565b62000ea7620014c4565b62000eb1620014fa565b801562000b0a576033805461ff00191690555050565b6001546001600160a01b0380861660009081526020819052604090819020905163cad2efad60e01b815287933393169163cad2efad9162000f0c919060040162001dc4565b602060405180830381865afa15801562000f2a573d6000803e3d6000fd5b505050506040513d601f19601f8201168201806040525081019062000f50919062001b0d565b6001600160a01b03161462000f795760405162461bcd60e51b81526004016200054e9062001b2d565b60ca5460ff161562000f9f5760405162461bcd60e51b81526004016200054e9062001b64565b60026034540362000ff35760405162461bcd60e51b815260206004820152601f60248201527f5265656e7472616e637947756172643a207265656e7472616e742063616c6c0060448201526064016200054e565b6002603455604051630118fa4960e01b81526000906001600160a01b03871690630118fa49906200102d9088908890889060040162001e57565b6020604051808303816000875af11580156200104d573d6000803e3d6000fd5b505050506040513d601f19601f8201168201806040525081019062001073919062001eb8565b6040805160008152602081019182905263731133e960e01b9091529091506001600160a01b0387169063731133e990620010b790339085908a906024810162001ed2565b600060405180830381600087803b158015620010d257600080fd5b505af1158015620010e7573d6000803e3d6000fd5b5050505080866001600160a01b03167f58be1f766b329e9aa34f854f3b08451e86df3ddc1043743469ed3fa3205984db876040516200112891815260200190565b60405180910390a35050600160345550505050565b6098546001600160a01b03163314620007095760405162461bcd60e51b81526004016200054e9062001d8d565b7f4910fdfa16fed3260ed0e7147f7cc6da11a60208b5b9406d12a635614ffd91435460ff1615620011a557620011a0836200152f565b505050565b826001600160a01b03166352d1902d6040518163ffffffff1660e01b8152600401602060405180830381865afa92505050801562001202575060408051601f3d908101601f19168201909252620011ff9181019062001eb8565b60015b620012675760405162461bcd60e51b815260206004820152602e60248201527f45524331393637557067726164653a206e657720696d706c656d656e7461746960448201526d6f6e206973206e6f74205555505360901b60648201526084016200054e565b600080516020620043978339815191528114620012d95760405162461bcd60e51b815260206004820152602960248201527f45524331393637557067726164653a20756e737570706f727465642070726f786044820152681a58589b195555525160ba1b60648201526084016200054e565b50620011a0838383620015ce565b60ca5460ff16620013325760405162461bcd60e51b815260206004820152601460248201527314185d5cd8589b194e881b9bdd081c185d5cd95960621b60448201526064016200054e565b60ca805460ff191690557f5db9ee0a495bf2e6ff9c91a7834c1ba4fdd244a5e8aa4e537bd38aeae4b073aa335b6040516001600160a01b03909116815260200160405180910390a1565b6098546099546040516001600160a01b03928316929091169082907f8be0079c531659141344cd1fd0a4f28419497f9722a3daafe3b4186f6b6457e090600090a35060998054609880546001600160a01b03199081166001600160a01b03841617909155169055565b609880546001600160a01b038381166001600160a01b0319831681179093556040519116919082907f8be0079c531659141344cd1fd0a4f28419497f9722a3daafe3b4186f6b6457e090600090a35050565b60ca5460ff16156200145d5760405162461bcd60e51b81526004016200054e9062001b64565b60ca805460ff191660011790557f62e78cea01bee320cd4e420270b5ea74000d11b0c9f74754ebdbfc544b05a2586200135f3390565b603354610100900460ff16620014bd5760405162461bcd60e51b81526004016200054e9062001f0b565b6001603455565b603354610100900460ff16620014ee5760405162461bcd60e51b81526004016200054e9062001f0b565b60ca805460ff19169055565b603354610100900460ff16620015245760405162461bcd60e51b81526004016200054e9062001f0b565b6200074333620013e5565b6001600160a01b0381163b6200159e5760405162461bcd60e51b815260206004820152602d60248201527f455243313936373a206e657720696d706c656d656e746174696f6e206973206e60448201526c1bdd08184818dbdb9d1c9858dd609a1b60648201526084016200054e565b6000805160206200439783398151915280546001600160a01b0319166001600160a01b0392909216919091179055565b620015d983620015ff565b600082511180620015e75750805b15620011a057620015f9838362001641565b50505050565b6200160a816200152f565b6040516001600160a01b038216907fbc7cd75a20ee27fd9adebab32041f755214dbc6bffa90cc0225b39da2e5c2d3b90600090a250565b60606001600160a01b0383163b620016ab5760405162461bcd60e51b815260206004820152602660248201527f416464726573733a2064656c65676174652063616c6c20746f206e6f6e2d636f6044820152651b9d1c9858dd60d21b60648201526084016200054e565b600080846001600160a01b031684604051620016c8919062001f56565b600060405180830381855af49150503d806000811462001705576040519150601f19603f3d011682016040523d82523d6000602084013e6200170a565b606091505b5091509150620017358282604051806060016040528060278152602001620043b7602791396200173e565b95945050505050565b606083156200174f5750816200177c565b825115620017605782518084602001fd5b8160405162461bcd60e51b81526004016200054e919062001824565b9392505050565b6124228062001f7583390190565b6001600160a01b03811681146200070957600080fd5b600060208284031215620017ba57600080fd5b81356200177c8162001791565b60005b83811015620017e4578181015183820152602001620017ca565b83811115620015f95750506000910152565b6000815180845262001810816020860160208601620017c7565b601f01601f19169290920160200192915050565b6020815260006200177c6020830184620017f6565b60008083601f8401126200184c57600080fd5b50813567ffffffffffffffff8111156200186557600080fd5b6020830191508360208285010111156200187e57600080fd5b9250929050565b600080600080604085870312156200189c57600080fd5b843567ffffffffffffffff80821115620018b557600080fd5b620018c38883890162001839565b90965094506020870135915080821115620018dd57600080fd5b50620018ec8782880162001839565b95989497509550505050565b600080600080606085870312156200190f57600080fd5b84356200191c8162001791565b935060208501359250604085013567ffffffffffffffff8111156200194057600080fd5b620018ec8782880162001839565b6000806000604084860312156200196457600080fd5b8335620019718162001791565b9250602084013567ffffffffffffffff8111156200198e57600080fd5b6200199c8682870162001839565b9497909650939450505050565b634e487b7160e01b600052604160045260246000fd5b60008060408385031215620019d357600080fd5b8235620019e08162001791565b9150602083013567ffffffffffffffff80821115620019fe57600080fd5b818501915085601f83011262001a1357600080fd5b81358181111562001a285762001a28620019a9565b604051601f8201601f19908116603f0116810190838211818310171562001a535762001a53620019a9565b8160405282815288602084870101111562001a6d57600080fd5b8260208601602083013760006020848301015280955050505050509250929050565b6000806040838503121562001aa357600080fd5b823562001ab08162001791565b91506020830135801515811462001ac657600080fd5b809150509250929050565b600181811c9082168062001ae657607f821691505b60208210810362001b0757634e487b7160e01b600052602260045260246000fd5b50919050565b60006020828403121562001b2057600080fd5b81516200177c8162001791565b6020808252601d908201527f5031324173736574463a206e6f742067616d6520646576656c6f706572000000604082015260600190565b60208082526010908201526f14185d5cd8589b194e881c185d5cd95960821b604082015260600190565b81835281816020850137506000828201602090810191909152601f909101601f19169091010190565b60208152600062001bcd60208301848662001b8e565b949350505050565b601f821115620011a057600081815260208120601f850160051c8101602086101562001bfe5750805b601f850160051c820191505b8181101562001c1f5782815560010162001c0a565b505050505050565b67ffffffffffffffff83111562001c425762001c42620019a9565b62001c5a8362001c53835462001ad1565b8362001bd5565b6000601f84116001811462001c91576000851562001c785750838201355b600019600387901b1c1916600186901b17835562001cee565b600083815260209020601f19861690835b8281101562001cc4578685013582556020948501946001909201910162001ca2565b508682101562001ce25760001960f88860031b161c19848701351681555b505060018560011b0183555b5050505050565b6020808252602c908201527f46756e6374696f6e206d7573742062652063616c6c6564207468726f7567682060408201526b19195b1959d85d1958d85b1b60a21b606082015260800190565b6020808252602c908201527f46756e6374696f6e206d7573742062652063616c6c6564207468726f7567682060408201526b6163746976652070726f787960a01b606082015260800190565b6020808252601d908201527f536166654f776e61626c653a2063616c6c6572206e6f74206f776e6572000000604082015260600190565b600060208083526000845462001dda8162001ad1565b8084870152604060018084166000811462001dfe576001811462001e195762001e49565b60ff1985168984015283151560051b89018301955062001e49565b896000528660002060005b8581101562001e415781548b820186015290830190880162001e24565b8a0184019650505b509398975050505050505050565b8381526040602082015260006200173560408301848662001b8e565b60208082526025908201527f5031324173736574463a20703132436f696e466163746f72792063616e6e6f74604082015264020626520360dc1b606082015260800190565b60006020828403121562001ecb57600080fd5b5051919050565b60018060a01b038516815283602082015282604082015260806060820152600062001f016080830184620017f6565b9695505050505050565b6020808252602b908201527f496e697469616c697a61626c653a20636f6e7472616374206973206e6f74206960408201526a6e697469616c697a696e6760a81b606082015260800190565b6000825162001f6a818460208701620017c7565b919091019291505056fe608060405260006008553480156200001657600080fd5b506040516200242238038062002422833981016040819052620000399162000145565b6040805160208101909152600081526200005381620000cb565b506200005f33620000dd565b8051600003620000b55760405162461bcd60e51b815260206004820152601b60248201527f50313241737365743a20656d70747920636f6e74726163745552490000000000604482015260640160405180910390fd5b6005620000c38282620002b0565b50506200037c565b6002620000d98282620002b0565b5050565b600380546001600160a01b038381166001600160a01b0319831681179093556040519116919082907f8be0079c531659141344cd1fd0a4f28419497f9722a3daafe3b4186f6b6457e090600090a35050565b634e487b7160e01b600052604160045260246000fd5b600060208083850312156200015957600080fd5b82516001600160401b03808211156200017157600080fd5b818501915085601f8301126200018657600080fd5b8151818111156200019b576200019b6200012f565b604051601f8201601f19908116603f01168101908382118183101715620001c657620001c66200012f565b816040528281528886848701011115620001df57600080fd5b600093505b82841015620002035784840186015181850187015292850192620001e4565b82841115620002155760008684830101525b98975050505050505050565b600181811c908216806200023657607f821691505b6020821081036200025757634e487b7160e01b600052602260045260246000fd5b50919050565b601f821115620002ab57600081815260208120601f850160051c81016020861015620002865750805b601f850160051c820191505b81811015620002a75782815560010162000292565b5050505b505050565b81516001600160401b03811115620002cc57620002cc6200012f565b620002e481620002dd845462000221565b846200025d565b602080601f8311600181146200031c5760008415620003035750858301515b600019600386901b1c1916600185901b178555620002a7565b600085815260208120601f198616915b828110156200034d578886015182559484019460019091019084016200032c565b50858210156200036c5787850151600019600388901b60f8161c191681555b5050505050600190811b01905550565b612096806200038c6000396000f3fe608060405234801561001057600080fd5b506004361061012b5760003560e01c8063782f08ae116100ad578063b242e53411610071578063b242e534146102a2578063e30c3978146102b5578063e8a3d485146102c6578063e985e9c5146102ce578063f242432a1461030a57600080fd5b8063782f08ae14610224578063869f7594146102375780638da5cb5b14610257578063938e3d7b1461027c578063a22cb4651461028f57600080fd5b806335403023116100f457806335403023146101c15780634e1273f4146101e15780634e71e0c814610201578063715018a614610209578063731133e91461021157600080fd5b8062fdd58e146101305780630118fa491461015657806301ffc9a7146101695780630e89341c1461018c5780632eb2c2d6146101ac575b600080fd5b61014361013e36600461154a565b61031d565b6040519081526020015b60405180910390f35b6101436101643660046115bc565b6103b4565b61017c610177366004611620565b610431565b604051901515815260200161014d565b61019f61019a366004611644565b610483565b60405161014d91906116aa565b6101bf6101ba366004611806565b61056d565b005b6101436101cf366004611644565b60066020526000908152604090205481565b6101f46101ef3660046118af565b610604565b60405161014d91906119b4565b6101bf61072d565b6101bf610791565b6101bf61021f3660046119c7565b6107c5565b6101bf6102323660046115bc565b6108e8565b610143610245366004611644565b60076020526000908152604090205481565b6003546001600160a01b03165b6040516001600160a01b03909116815260200161014d565b6101bf61028a366004611a27565b610922565b6101bf61029d366004611a68565b610a7d565b6101bf6102b0366004611a68565b610a8c565b6004546001600160a01b0316610264565b61019f610b3a565b61017c6102dc366004611aa4565b6001600160a01b03918216600090815260016020908152604080832093909416825291909152205460ff1690565b6101bf610318366004611ad7565b610bc8565b60006001600160a01b03831661038e5760405162461bcd60e51b815260206004820152602b60248201527f455243313135353a2062616c616e636520717565727920666f7220746865207a60448201526a65726f206164647265737360a81b60648201526084015b60405180910390fd5b506000908152602081815260408083206001600160a01b03949094168352929052205490565b6003546000906001600160a01b031633146103e15760405162461bcd60e51b815260040161038590611b3b565b60088054600090815260076020526040902085905554610402908484610c4f565b6001600860008282546104159190611b88565b909155505060085461042990600190611ba0565b949350505050565b60006001600160e01b03198216636cdb3d1360e11b148061046257506001600160e01b031982166303a24d0760e21b145b8061047d57506301ffc9a760e01b6001600160e01b03198316145b92915050565b606060085482106104cf5760405162461bcd60e51b8152602060048201526016602482015275140c4c905cdcd95d0e881a59081b9bdd08195e1a5cdd60521b6044820152606401610385565b6000828152600a6020526040902080546104e890611bb7565b80601f016020809104026020016040519081016040528092919081815260200182805461051490611bb7565b80156105615780601f1061053657610100808354040283529160200191610561565b820191906000526020600020905b81548152906001019060200180831161054457829003601f168201915b50505050509050919050565b6001600160a01b038516331480610589575061058985336102dc565b6105f05760405162461bcd60e51b815260206004820152603260248201527f455243313135353a207472616e736665722063616c6c6572206973206e6f74206044820152711bdddb995c881b9bdc88185c1c1c9bdd995960721b6064820152608401610385565b6105fd8585858585610d2e565b5050505050565b606081518351146106695760405162461bcd60e51b815260206004820152602960248201527f455243313135353a206163636f756e747320616e6420696473206c656e677468604482015268040dad2e6dac2e8c6d60bb1b6064820152608401610385565b600083516001600160401b03811115610684576106846116bd565b6040519080825280602002602001820160405280156106ad578160200160208202803683370190505b50905060005b8451811015610725576106f88582815181106106d1576106d1611bf1565b60200260200101518583815181106106eb576106eb611bf1565b602002602001015161031d565b82828151811061070a5761070a611bf1565b602090810291909101015261071e81611c07565b90506106b3565b509392505050565b6004546001600160a01b031633146107875760405162461bcd60e51b815260206004820152601e60248201527f536166654f776e61626c653a2063616c6c657220213d2070656e64696e6700006044820152606401610385565b61078f610f0b565b565b6003546001600160a01b031633146107bb5760405162461bcd60e51b815260040161038590611b3b565b61078f6000610f74565b6003546001600160a01b031633146107ef5760405162461bcd60e51b815260040161038590611b3b565b60085483106108405760405162461bcd60e51b815260206004820152601960248201527f50313241737365743a206964206973206e6f742076616c6964000000000000006044820152606401610385565b6000838152600760209081526040808320546006909252909120546108659084611b88565b11156108b35760405162461bcd60e51b815260206004820152601b60248201527f50313241737365743a20657863656564206d617820737570706c7900000000006044820152606401610385565b6108bf84848484610fc6565b600083815260066020526040812080548492906108dd908490611b88565b909155505050505050565b6003546001600160a01b031633146109125760405162461bcd60e51b815260040161038590611b3b565b61091d838383610c4f565b505050565b6003546001600160a01b0316331461094c5760405162461bcd60e51b815260040161038590611b3b565b600081900361099d5760405162461bcd60e51b815260206004820152601b60248201527f50313241737365743a20656d70747920636f6e747261637455524900000000006044820152606401610385565b6000600580546109ac90611bb7565b80601f01602080910402602001604051908101604052809291908181526020018280546109d890611bb7565b8015610a255780601f106109fa57610100808354040283529160200191610a25565b820191906000526020600020905b815481529060010190602001808311610a0857829003601f168201915b50505050509050828260059182610a3d929190611c66565b507f89e5b6f07571941ef88c704155a3557ef26b4fd73f9c2c18294de8e767dda34d816005604051610a70929190611d25565b60405180910390a1505050565b610a883383836110d0565b5050565b6003546001600160a01b03163314610ab65760405162461bcd60e51b815260040161038590611b3b565b6001600160a01b038216610b0c5760405162461bcd60e51b815260206004820152601b60248201527f536166654f776e61626c653a206e6577206f776e6572206973203000000000006044820152606401610385565b8015610b1b57610a8882610f74565b600480546001600160a01b0319166001600160a01b0384161790555050565b60058054610b4790611bb7565b80601f0160208091040260200160405190810160405280929190818152602001828054610b7390611bb7565b8015610bc05780601f10610b9557610100808354040283529160200191610bc0565b820191906000526020600020905b815481529060010190602001808311610ba357829003601f168201915b505050505081565b6001600160a01b038516331480610be45750610be485336102dc565b610c425760405162461bcd60e51b815260206004820152602960248201527f455243313135353a2063616c6c6572206973206e6f74206f776e6572206e6f7260448201526808185c1c1c9bdd995960ba1b6064820152608401610385565b6105fd85858585856111b0565b6000819003610c965760405162461bcd60e51b815260206004820152601360248201527250313241737365743a20656d7074792075726960681b6044820152606401610385565b600854831115610ce15760405162461bcd60e51b8152602060048201526016602482015275140c4c905cdcd95d0e881a59081b9bdd08195e1a5cdd60521b6044820152606401610385565b6000838152600a60205260409020610cfa828483611c66565b507fcb8a581c366c006d079f78b3f29b10e2bf252c6a9df7fb60286aa83c09bbd0b1838383604051610a7093929190611dc0565b8151835114610d905760405162461bcd60e51b815260206004820152602860248201527f455243313135353a2069647320616e6420616d6f756e7473206c656e677468206044820152670dad2e6dac2e8c6d60c31b6064820152608401610385565b6001600160a01b038416610db65760405162461bcd60e51b815260040161038590611df6565b3360005b8451811015610e9d576000858281518110610dd757610dd7611bf1565b602002602001015190506000858381518110610df557610df5611bf1565b602090810291909101810151600084815280835260408082206001600160a01b038e168352909352919091205490915081811015610e455760405162461bcd60e51b815260040161038590611e3b565b6000838152602081815260408083206001600160a01b038e8116855292528083208585039055908b16825281208054849290610e82908490611b88565b9250508190555050505080610e9690611c07565b9050610dba565b50846001600160a01b0316866001600160a01b0316826001600160a01b03167f4a39dc06d4c0dbc64b70af90fd698a233a518aa5d07e595d983b8c0526c8f7fb8787604051610eed929190611e85565b60405180910390a4610f038187878787876112cd565b505050505050565b6003546004546040516001600160a01b03928316929091169082907f8be0079c531659141344cd1fd0a4f28419497f9722a3daafe3b4186f6b6457e090600090a35060048054600380546001600160a01b03199081166001600160a01b03841617909155169055565b600380546001600160a01b038381166001600160a01b0319831681179093556040519116919082907f8be0079c531659141344cd1fd0a4f28419497f9722a3daafe3b4186f6b6457e090600090a35050565b6001600160a01b0384166110265760405162461bcd60e51b815260206004820152602160248201527f455243313135353a206d696e7420746f20746865207a65726f206164647265736044820152607360f81b6064820152608401610385565b336110408160008761103788611428565b6105fd88611428565b6000848152602081815260408083206001600160a01b038916845290915281208054859290611070908490611b88565b909155505060408051858152602081018590526001600160a01b0380881692600092918516917fc3d58168c5ae7397731d063d5bbf3d657854427343f4c083240f7aacaa2d0f62910160405180910390a46105fd81600087878787611473565b816001600160a01b0316836001600160a01b0316036111435760405162461bcd60e51b815260206004820152602960248201527f455243313135353a2073657474696e6720617070726f76616c20737461747573604482015268103337b91039b2b63360b91b6064820152608401610385565b6001600160a01b03838116600081815260016020908152604080832094871680845294825291829020805460ff191686151590811790915591519182527f17307eab39ab6107e8899845ad3d59bd9653f200f220920489ca2b5937696c31910160405180910390a3505050565b6001600160a01b0384166111d65760405162461bcd60e51b815260040161038590611df6565b336111e681878761103788611428565b6000848152602081815260408083206001600160a01b038a168452909152902054838110156112275760405162461bcd60e51b815260040161038590611e3b565b6000858152602081815260408083206001600160a01b038b8116855292528083208785039055908816825281208054869290611264908490611b88565b909155505060408051868152602081018690526001600160a01b03808916928a821692918616917fc3d58168c5ae7397731d063d5bbf3d657854427343f4c083240f7aacaa2d0f62910160405180910390a46112c4828888888888611473565b50505050505050565b6001600160a01b0384163b15610f035760405163bc197c8160e01b81526001600160a01b0385169063bc197c81906113119089908990889088908890600401611eb3565b6020604051808303816000875af192505050801561134c575060408051601f3d908101601f1916820190925261134991810190611f11565b60015b6113f857611358611f2e565b806308c379a003611391575061136c611f4a565b806113775750611393565b8060405162461bcd60e51b815260040161038591906116aa565b505b60405162461bcd60e51b815260206004820152603460248201527f455243313135353a207472616e7366657220746f206e6f6e20455243313135356044820152732932b1b2b4bb32b91034b6b83632b6b2b73a32b960611b6064820152608401610385565b6001600160e01b0319811663bc197c8160e01b146112c45760405162461bcd60e51b815260040161038590611fd3565b6040805160018082528183019092526060916000919060208083019080368337019050509050828160008151811061146257611462611bf1565b602090810291909101015292915050565b6001600160a01b0384163b15610f035760405163f23a6e6160e01b81526001600160a01b0385169063f23a6e61906114b7908990899088908890889060040161201b565b6020604051808303816000875af19250505080156114f2575060408051601f3d908101601f191682019092526114ef91810190611f11565b60015b6114fe57611358611f2e565b6001600160e01b0319811663f23a6e6160e01b146112c45760405162461bcd60e51b815260040161038590611fd3565b80356001600160a01b038116811461154557600080fd5b919050565b6000806040838503121561155d57600080fd5b6115668361152e565b946020939093013593505050565b60008083601f84011261158657600080fd5b5081356001600160401b0381111561159d57600080fd5b6020830191508360208285010111156115b557600080fd5b9250929050565b6000806000604084860312156115d157600080fd5b8335925060208401356001600160401b038111156115ee57600080fd5b6115fa86828701611574565b9497909650939450505050565b6001600160e01b03198116811461161d57600080fd5b50565b60006020828403121561163257600080fd5b813561163d81611607565b9392505050565b60006020828403121561165657600080fd5b5035919050565b6000815180845260005b8181101561168357602081850181015186830182015201611667565b81811115611695576000602083870101525b50601f01601f19169290920160200192915050565b60208152600061163d602083018461165d565b634e487b7160e01b600052604160045260246000fd5b601f8201601f191681016001600160401b03811182821017156116f8576116f86116bd565b6040525050565b60006001600160401b03821115611718576117186116bd565b5060051b60200190565b600082601f83011261173357600080fd5b81356020611740826116ff565b60405161174d82826116d3565b83815260059390931b850182019282810191508684111561176d57600080fd5b8286015b848110156117885780358352918301918301611771565b509695505050505050565b600082601f8301126117a457600080fd5b81356001600160401b038111156117bd576117bd6116bd565b6040516117d4601f8301601f1916602001826116d3565b8181528460208386010111156117e957600080fd5b816020850160208301376000918101602001919091529392505050565b600080600080600060a0868803121561181e57600080fd5b6118278661152e565b94506118356020870161152e565b935060408601356001600160401b038082111561185157600080fd5b61185d89838a01611722565b9450606088013591508082111561187357600080fd5b61187f89838a01611722565b9350608088013591508082111561189557600080fd5b506118a288828901611793565b9150509295509295909350565b600080604083850312156118c257600080fd5b82356001600160401b03808211156118d957600080fd5b818501915085601f8301126118ed57600080fd5b813560206118fa826116ff565b60405161190782826116d3565b83815260059390931b850182019282810191508984111561192757600080fd5b948201945b8386101561194c5761193d8661152e565b8252948201949082019061192c565b9650508601359250508082111561196257600080fd5b5061196f85828601611722565b9150509250929050565b600081518084526020808501945080840160005b838110156119a95781518752958201959082019060010161198d565b509495945050505050565b60208152600061163d6020830184611979565b600080600080608085870312156119dd57600080fd5b6119e68561152e565b9350602085013592506040850135915060608501356001600160401b03811115611a0f57600080fd5b611a1b87828801611793565b91505092959194509250565b60008060208385031215611a3a57600080fd5b82356001600160401b03811115611a5057600080fd5b611a5c85828601611574565b90969095509350505050565b60008060408385031215611a7b57600080fd5b611a848361152e565b915060208301358015158114611a9957600080fd5b809150509250929050565b60008060408385031215611ab757600080fd5b611ac08361152e565b9150611ace6020840161152e565b90509250929050565b600080600080600060a08688031215611aef57600080fd5b611af88661152e565b9450611b066020870161152e565b9350604086013592506060860135915060808601356001600160401b03811115611b2f57600080fd5b6118a288828901611793565b6020808252601d908201527f536166654f776e61626c653a2063616c6c6572206e6f74206f776e6572000000604082015260600190565b634e487b7160e01b600052601160045260246000fd5b60008219821115611b9b57611b9b611b72565b500190565b600082821015611bb257611bb2611b72565b500390565b600181811c90821680611bcb57607f821691505b602082108103611beb57634e487b7160e01b600052602260045260246000fd5b50919050565b634e487b7160e01b600052603260045260246000fd5b600060018201611c1957611c19611b72565b5060010190565b601f82111561091d57600081815260208120601f850160051c81016020861015611c475750805b601f850160051c820191505b81811015610f0357828155600101611c53565b6001600160401b03831115611c7d57611c7d6116bd565b611c9183611c8b8354611bb7565b83611c20565b6000601f841160018114611cc55760008515611cad5750838201355b600019600387901b1c1916600186901b1783556105fd565b600083815260209020601f19861690835b82811015611cf65786850135825560209485019460019092019101611cd6565b5086821015611d135760001960f88860031b161c19848701351681555b505060018560011b0183555050505050565b604081526000611d38604083018561165d565b60208382038185015260008554611d4e81611bb7565b80855260018281168015611d695760018114611d8357611db1565b60ff1984168787015282151560051b870186019450611db1565b896000528560002060005b84811015611da9578154898201890152908301908701611d8e565b880187019550505b50929998505050505050505050565b83815260406020820152816040820152818360608301376000818301606090810191909152601f909201601f1916010192915050565b60208082526025908201527f455243313135353a207472616e7366657220746f20746865207a65726f206164604082015264647265737360d81b606082015260800190565b6020808252602a908201527f455243313135353a20696e73756666696369656e742062616c616e636520666f60408201526939103a3930b739b332b960b11b606082015260800190565b604081526000611e986040830185611979565b8281036020840152611eaa8185611979565b95945050505050565b6001600160a01b0386811682528516602082015260a060408201819052600090611edf90830186611979565b8281036060840152611ef18186611979565b90508281036080840152611f05818561165d565b98975050505050505050565b600060208284031215611f2357600080fd5b815161163d81611607565b600060033d1115611f475760046000803e5060005160e01c5b90565b600060443d1015611f585790565b6040516003193d81016004833e81513d6001600160401b038160248401118184111715611f8757505050505090565b8285019150815181811115611f9f5750505050505090565b843d8701016020828501011115611fb95750505050505090565b611fc8602082860101876116d3565b509095945050505050565b60208082526028908201527f455243313135353a204552433131353552656365697665722072656a656374656040820152676420746f6b656e7360c01b606082015260800190565b6001600160a01b03868116825285166020820152604081018490526060810183905260a0608082018190526000906120559083018461165d565b97965050505050505056fea2646970667358221220b1070ac28efc863ffd305e3c6d2568d6a46e631431483f224be6584921a62c9f64736f6c634300080f0033360894a13ba1a3210667c828492db98dca3e2076cc3735a920a3ca505d382bbc416464726573733a206c6f772d6c6576656c2064656c65676174652063616c6c206661696c6564a2646970667358221220bc9f60cce872476c59ca1a972ba52c78df22b00f7a7a67df5b082e2731c2382964736f6c634300080f0033",
  "devdoc": {
    "kind": "dev",
    "methods": {
      "claimOwnership()": {
        "details": "pending owner call this function to claim ownership"
      },
      "createAssetAndMint(address,uint256,string)": {
        "details": "create asset and mint to msg.sender address",
        "params": {
          "amount": "amount of asset",
          "collection": "which collection want to create",
          "uri": "new asset's metadata uri"
        }
      },
      "createCollection(string,string)": {
        "details": "create Collection",
        "params": {
          "contractURI": "contract-level metadata uri",
          "gameId": "a off-chain game id"
        }
      },
      "owner()": {
        "details": "Returns the address of the current owner."
      },
      "paused()": {
        "details": "Returns true if the contract is paused, and false otherwise."
      },
      "pendingOwner()": {
        "details": "Return the address of the pending owner"
      },
      "proxiableUUID()": {
        "details": "Implementation of the ERC1822 {proxiableUUID} function. This returns the storage slot used by the implementation. It is used to validate that the this implementation remains valid after an upgrade. IMPORTANT: A proxy pointing at a proxiable contract should not be considered proxiable itself, because this risks bricking a proxy that upgrades to it, by delegating to itself until out of gas. Thus it is critical that this function revert if invoked through a proxy. This is guaranteed by the `notDelegated` modifier."
      },
      "renounceOwnership()": {
        "details": "Leaves the contract without owner. It will not be possible to call `onlyOwner` functions anymore. Can only be called by the current owner. NOTE: Renouncing ownership will leave the contract without an owner, thereby removing any functionality that is only available to the owner."
      },
      "setP12CoinFactory(address)": {
        "params": {
          "newP12CoinFactory": "address of p12CoinFactory"
        }
      },
      "transferOwnership(address,bool)": {
        "details": "Transfers ownership of the contract to a new account (`newOwner`). Can only be called by the current owner. Note If direct is false, it will set an pending owner and the OwnerShipTransferring only happens when the pending owner claim the ownership"
      },
      "updateCollectionUri(address,string)": {
        "details": "update Collection Uri",
        "params": {
          "collection": "collection address",
          "newUri": "new Contract-level metadata uri"
        }
      },
      "updateSftUri(address,uint256,string)": {
        "details": "update Sft Uri",
        "params": {
          "collection": "collection address",
          "newUri": "new metadata uri",
          "tokenId": "token id"
        }
      },
      "upgradeTo(address)": {
        "details": "Upgrade the implementation of the proxy to `newImplementation`. Calls {_authorizeUpgrade}. Emits an {Upgraded} event."
      },
      "upgradeToAndCall(address,bytes)": {
        "details": "Upgrade the implementation of the proxy to `newImplementation`, and subsequently execute the function call encoded in `data`. Calls {_authorizeUpgrade}. Emits an {Upgraded} event."
      }
    },
    "version": 1
  },
  "userdoc": {
    "kind": "user",
    "methods": {
      "p12CoinFactory()": {
        "notice": "p12CoinFactory address, for reading game and developer relationship"
      },
      "setP12CoinFactory(address)": {
        "notice": "set new p12CoinFactory"
      }
    },
    "version": 1
  },
  "storageLayout": {
    "storage": [
      {
        "astId": 7886,
        "contract": "contracts/assetFactory/P12AssetFactoryUpgradable.sol:P12AssetFactoryUpgradable",
        "label": "registry",
        "offset": 0,
        "slot": "0",
        "type": "t_mapping(t_address,t_string_storage)"
      },
      {
        "astId": 7889,
        "contract": "contracts/assetFactory/P12AssetFactoryUpgradable.sol:P12AssetFactoryUpgradable",
        "label": "p12CoinFactory",
        "offset": 0,
        "slot": "1",
        "type": "t_address"
      },
      {
        "astId": 7893,
        "contract": "contracts/assetFactory/P12AssetFactoryUpgradable.sol:P12AssetFactoryUpgradable",
        "label": "__gap",
        "offset": 0,
        "slot": "2",
        "type": "t_array(t_uint256)49_storage"
      },
      {
        "astId": 395,
        "contract": "contracts/assetFactory/P12AssetFactoryUpgradable.sol:P12AssetFactoryUpgradable",
        "label": "_initialized",
        "offset": 0,
        "slot": "51",
        "type": "t_bool"
      },
      {
        "astId": 398,
        "contract": "contracts/assetFactory/P12AssetFactoryUpgradable.sol:P12AssetFactoryUpgradable",
        "label": "_initializing",
        "offset": 1,
        "slot": "51",
        "type": "t_bool"
      },
      {
        "astId": 723,
        "contract": "contracts/assetFactory/P12AssetFactoryUpgradable.sol:P12AssetFactoryUpgradable",
        "label": "_status",
        "offset": 0,
        "slot": "52",
        "type": "t_uint256"
      },
      {
        "astId": 767,
        "contract": "contracts/assetFactory/P12AssetFactoryUpgradable.sol:P12AssetFactoryUpgradable",
        "label": "__gap",
        "offset": 0,
        "slot": "53",
        "type": "t_array(t_uint256)49_storage"
      },
      {
        "astId": 1354,
        "contract": "contracts/assetFactory/P12AssetFactoryUpgradable.sol:P12AssetFactoryUpgradable",
        "label": "__gap",
        "offset": 0,
        "slot": "102",
        "type": "t_array(t_uint256)50_storage"
      },
      {
        "astId": 7440,
        "contract": "contracts/assetFactory/P12AssetFactoryUpgradable.sol:P12AssetFactoryUpgradable",
        "label": "_owner",
        "offset": 0,
        "slot": "152",
        "type": "t_address"
      },
      {
        "astId": 7442,
        "contract": "contracts/assetFactory/P12AssetFactoryUpgradable.sol:P12AssetFactoryUpgradable",
        "label": "_pendingOwner",
        "offset": 0,
        "slot": "153",
        "type": "t_address"
      },
      {
        "astId": 7625,
        "contract": "contracts/assetFactory/P12AssetFactoryUpgradable.sol:P12AssetFactoryUpgradable",
        "label": "__gap",
        "offset": 0,
        "slot": "154",
        "type": "t_array(t_uint256)48_storage"
      },
      {
        "astId": 619,
        "contract": "contracts/assetFactory/P12AssetFactoryUpgradable.sol:P12AssetFactoryUpgradable",
        "label": "_paused",
        "offset": 0,
        "slot": "202",
        "type": "t_bool"
      },
      {
        "astId": 708,
        "contract": "contracts/assetFactory/P12AssetFactoryUpgradable.sol:P12AssetFactoryUpgradable",
        "label": "__gap",
        "offset": 0,
        "slot": "203",
        "type": "t_array(t_uint256)49_storage"
      },
      {
        "astId": 377,
        "contract": "contracts/assetFactory/P12AssetFactoryUpgradable.sol:P12AssetFactoryUpgradable",
        "label": "__gap",
        "offset": 0,
        "slot": "252",
        "type": "t_array(t_uint256)50_storage"
      },
      {
        "astId": 597,
        "contract": "contracts/assetFactory/P12AssetFactoryUpgradable.sol:P12AssetFactoryUpgradable",
        "label": "__gap",
        "offset": 0,
        "slot": "302",
        "type": "t_array(t_uint256)50_storage"
      }
    ],
    "types": {
      "t_address": {
        "encoding": "inplace",
        "label": "address",
        "numberOfBytes": "20"
      },
      "t_array(t_uint256)48_storage": {
        "base": "t_uint256",
        "encoding": "inplace",
        "label": "uint256[48]",
        "numberOfBytes": "1536"
      },
      "t_array(t_uint256)49_storage": {
        "base": "t_uint256",
        "encoding": "inplace",
        "label": "uint256[49]",
        "numberOfBytes": "1568"
      },
      "t_array(t_uint256)50_storage": {
        "base": "t_uint256",
        "encoding": "inplace",
        "label": "uint256[50]",
        "numberOfBytes": "1600"
      },
      "t_bool": {
        "encoding": "inplace",
        "label": "bool",
        "numberOfBytes": "1"
      },
      "t_mapping(t_address,t_string_storage)": {
        "encoding": "mapping",
        "key": "t_address",
        "label": "mapping(address => string)",
        "numberOfBytes": "32",
        "value": "t_string_storage"
      },
      "t_string_storage": {
        "encoding": "bytes",
        "label": "string",
        "numberOfBytes": "32"
      },
      "t_uint256": {
        "encoding": "inplace",
        "label": "uint256",
        "numberOfBytes": "32"
      }
    }
  }
}