{
  "address": "0xFeBc26169526Df4582cC96Ad6Ea77b7155F363c2",
  "abi": [
    {
      "anonymous": false,
      "inputs": [
        {
          "indexed": false,
          "internalType": "address",
          "name": "previousAdmin",
          "type": "address"
        },
        {
          "indexed": false,
          "internalType": "address",
          "name": "newAdmin",
          "type": "address"
        }
      ],
      "name": "AdminChanged",
      "type": "event"
    },
    {
      "anonymous": false,
      "inputs": [
        {
          "indexed": true,
          "internalType": "address",
          "name": "beacon",
          "type": "address"
        }
      ],
      "name": "BeaconUpgraded",
      "type": "event"
    },
    {
      "anonymous": false,
      "inputs": [
        {
          "indexed": true,
          "internalType": "contract IP12GameCoin",
          "name": "gameCoinAddress",
          "type": "address"
        },
        {
          "indexed": false,
          "internalType": "string",
          "name": "gameId",
          "type": "string"
        },
        {
          "indexed": false,
          "internalType": "uint256",
          "name": "amountP12",
          "type": "uint256"
        }
      ],
      "name": "CreateGameCoin",
      "type": "event"
    },
    {
      "anonymous": false,
      "inputs": [
        {
          "indexed": true,
          "internalType": "bytes32",
          "name": "mintId",
          "type": "bytes32"
        },
        {
          "indexed": true,
          "internalType": "contract IP12GameCoin",
          "name": "gameCoinAddress",
          "type": "address"
        },
        {
          "indexed": true,
          "internalType": "address",
          "name": "executor",
          "type": "address"
        }
      ],
      "name": "ExecuteMintCoin",
      "type": "event"
    },
    {
      "anonymous": false,
      "inputs": [
        {
          "indexed": true,
          "internalType": "address",
          "name": "previousOwner",
          "type": "address"
        },
        {
          "indexed": true,
          "internalType": "address",
          "name": "newOwner",
          "type": "address"
        }
      ],
      "name": "OwnershipTransferred",
      "type": "event"
    },
    {
      "anonymous": false,
      "inputs": [
        {
          "indexed": false,
          "internalType": "address",
          "name": "account",
          "type": "address"
        }
      ],
      "name": "Paused",
      "type": "event"
    },
    {
      "anonymous": false,
      "inputs": [
        {
          "indexed": true,
          "internalType": "bytes32",
          "name": "mintId",
          "type": "bytes32"
        },
        {
          "indexed": true,
          "internalType": "contract IP12GameCoin",
          "name": "gameCoinAddress",
          "type": "address"
        },
        {
          "indexed": false,
          "internalType": "uint256",
          "name": "mintAmount",
          "type": "uint256"
        },
        {
          "indexed": false,
          "internalType": "uint256",
          "name": "unlockTimestamp",
          "type": "uint256"
        },
        {
          "indexed": false,
          "internalType": "uint256",
          "name": "amountP12",
          "type": "uint256"
        }
      ],
      "name": "QueueMintCoin",
      "type": "event"
    },
    {
      "anonymous": false,
      "inputs": [
        {
          "indexed": false,
          "internalType": "string",
          "name": "gameId",
          "type": "string"
        },
        {
          "indexed": true,
          "internalType": "address",
          "name": "developer",
          "type": "address"
        }
      ],
      "name": "RegisterGame",
      "type": "event"
    },
    {
      "anonymous": false,
      "inputs": [
        {
          "indexed": false,
          "internalType": "uint256",
          "name": "oldDelayB",
          "type": "uint256"
        },
        {
          "indexed": false,
          "internalType": "uint256",
          "name": "newDelayB",
          "type": "uint256"
        }
      ],
      "name": "SetDelayB",
      "type": "event"
    },
    {
      "anonymous": false,
      "inputs": [
        {
          "indexed": false,
          "internalType": "uint256",
          "name": "oldDelayK",
          "type": "uint256"
        },
        {
          "indexed": false,
          "internalType": "uint256",
          "name": "newDelayK",
          "type": "uint256"
        }
      ],
      "name": "SetDelayK",
      "type": "event"
    },
    {
      "anonymous": false,
      "inputs": [
        {
          "indexed": false,
          "internalType": "address",
          "name": "oldDev",
          "type": "address"
        },
        {
          "indexed": false,
          "internalType": "address",
          "name": "newDev",
          "type": "address"
        }
      ],
      "name": "SetDev",
      "type": "event"
    },
    {
      "anonymous": false,
      "inputs": [
        {
          "indexed": false,
          "internalType": "contract IGaugeController",
          "name": "oldGaugeController",
          "type": "address"
        },
        {
          "indexed": false,
          "internalType": "contract IGaugeController",
          "name": "newGaugeController",
          "type": "address"
        }
      ],
      "name": "SetGaugeController",
      "type": "event"
    },
    {
      "anonymous": false,
      "inputs": [
        {
          "indexed": false,
          "internalType": "contract IP12MineUpgradeable",
          "name": "oldP12Mine",
          "type": "address"
        },
        {
          "indexed": false,
          "internalType": "contract IP12MineUpgradeable",
          "name": "newP12Mine",
          "type": "address"
        }
      ],
      "name": "SetP12Mine",
      "type": "event"
    },
    {
      "anonymous": false,
      "inputs": [
        {
          "indexed": false,
          "internalType": "address",
          "name": "oldP12Token",
          "type": "address"
        },
        {
          "indexed": false,
          "internalType": "address",
          "name": "newP12Token",
          "type": "address"
        }
      ],
      "name": "SetP12Token",
      "type": "event"
    },
    {
      "anonymous": false,
      "inputs": [
        {
          "indexed": false,
          "internalType": "contract IUniswapV2Factory",
          "name": "oldUniswapFactory",
          "type": "address"
        },
        {
          "indexed": false,
          "internalType": "contract IUniswapV2Factory",
          "name": "newUniswapFactory",
          "type": "address"
        }
      ],
      "name": "SetUniswapFactory",
      "type": "event"
    },
    {
      "anonymous": false,
      "inputs": [
        {
          "indexed": false,
          "internalType": "contract IUniswapV2Router02",
          "name": "oldUniswapRouter",
          "type": "address"
        },
        {
          "indexed": false,
          "internalType": "contract IUniswapV2Router02",
          "name": "newUniswapRouter",
          "type": "address"
        }
      ],
      "name": "SetUniswapRouter",
      "type": "event"
    },
    {
      "anonymous": false,
      "inputs": [
        {
          "indexed": false,
          "internalType": "address",
          "name": "account",
          "type": "address"
        }
      ],
      "name": "Unpaused",
      "type": "event"
    },
    {
      "anonymous": false,
      "inputs": [
        {
          "indexed": true,
          "internalType": "address",
          "name": "implementation",
          "type": "address"
        }
      ],
      "name": "Upgraded",
      "type": "event"
    },
    {
      "anonymous": false,
      "inputs": [
        {
          "indexed": false,
          "internalType": "address",
          "name": "userAddress",
          "type": "address"
        },
        {
          "indexed": false,
          "internalType": "contract IP12GameCoin",
          "name": "gameCoinAddress",
          "type": "address"
        },
        {
          "indexed": false,
          "internalType": "uint256",
          "name": "amountGameCoin",
          "type": "uint256"
        }
      ],
      "name": "Withdraw",
      "type": "event"
    },
    {
      "inputs": [],
      "name": "addLiquidityEffectiveTime",
      "outputs": [
        {
          "internalType": "uint256",
          "name": "",
          "type": "uint256"
        }
      ],
      "stateMutability": "view",
      "type": "function"
    },
    {
      "inputs": [
        {
          "internalType": "contract IP12GameCoin",
          "name": "",
          "type": "address"
        }
      ],
      "name": "allGameCoins",
      "outputs": [
        {
          "internalType": "string",
          "name": "",
          "type": "string"
        }
      ],
      "stateMutability": "view",
      "type": "function"
    },
    {
      "inputs": [
        {
          "internalType": "string",
          "name": "",
          "type": "string"
        }
      ],
      "name": "allGames",
      "outputs": [
        {
          "internalType": "address",
          "name": "",
          "type": "address"
        }
      ],
      "stateMutability": "view",
      "type": "function"
    },
    {
      "inputs": [],
      "name": "claimOwnership",
      "outputs": [],
      "stateMutability": "nonpayable",
      "type": "function"
    },
    {
      "inputs": [
        {
          "internalType": "contract IP12GameCoin",
          "name": "",
          "type": "address"
        },
        {
          "internalType": "bytes32",
          "name": "",
          "type": "bytes32"
        }
      ],
      "name": "coinMintRecords",
      "outputs": [
        {
          "internalType": "uint256",
          "name": "amount",
          "type": "uint256"
        },
        {
          "internalType": "uint256",
          "name": "unlockTimestamp",
          "type": "uint256"
        },
        {
          "internalType": "bool",
          "name": "executed",
          "type": "bool"
        }
      ],
      "stateMutability": "view",
      "type": "function"
    },
    {
      "inputs": [
        {
          "internalType": "string",
          "name": "name",
          "type": "string"
        },
        {
          "internalType": "string",
          "name": "symbol",
          "type": "string"
        },
        {
          "internalType": "string",
          "name": "gameId",
          "type": "string"
        },
        {
          "internalType": "string",
          "name": "gameCoinIconUrl",
          "type": "string"
        },
        {
          "internalType": "uint256",
          "name": "amountGameCoin",
          "type": "uint256"
        },
        {
          "internalType": "uint256",
          "name": "amountP12",
          "type": "uint256"
        }
      ],
      "name": "create",
      "outputs": [
        {
          "internalType": "contract IP12GameCoin",
          "name": "gameCoinAddress",
          "type": "address"
        }
      ],
      "stateMutability": "nonpayable",
      "type": "function"
    },
    {
      "inputs": [],
      "name": "delayB",
      "outputs": [
        {
          "internalType": "uint256",
          "name": "",
          "type": "uint256"
        }
      ],
      "stateMutability": "view",
      "type": "function"
    },
    {
      "inputs": [],
      "name": "delayK",
      "outputs": [
        {
          "internalType": "uint256",
          "name": "",
          "type": "uint256"
        }
      ],
      "stateMutability": "view",
      "type": "function"
    },
    {
      "inputs": [],
      "name": "dev",
      "outputs": [
        {
          "internalType": "address",
          "name": "",
          "type": "address"
        }
      ],
      "stateMutability": "view",
      "type": "function"
    },
    {
      "inputs": [
        {
          "internalType": "contract IP12GameCoin",
          "name": "gameCoinAddress",
          "type": "address"
        },
        {
          "internalType": "bytes32",
          "name": "mintId",
          "type": "bytes32"
        }
      ],
      "name": "executeMintCoin",
      "outputs": [
        {
          "internalType": "bool",
          "name": "",
          "type": "bool"
        }
      ],
      "stateMutability": "nonpayable",
      "type": "function"
    },
    {
      "inputs": [],
      "name": "gaugeController",
      "outputs": [
        {
          "internalType": "contract IGaugeController",
          "name": "",
          "type": "address"
        }
      ],
      "stateMutability": "view",
      "type": "function"
    },
    {
      "inputs": [
        {
          "internalType": "contract IP12GameCoin",
          "name": "gameCoinAddress",
          "type": "address"
        },
        {
          "internalType": "uint256",
          "name": "amountGameCoin",
          "type": "uint256"
        }
      ],
      "name": "getMintDelay",
      "outputs": [
        {
          "internalType": "uint256",
          "name": "time",
          "type": "uint256"
        }
      ],
      "stateMutability": "view",
      "type": "function"
    },
    {
      "inputs": [
        {
          "internalType": "contract IP12GameCoin",
          "name": "gameCoinAddress",
          "type": "address"
        },
        {
          "internalType": "uint256",
          "name": "amountGameCoin",
          "type": "uint256"
        }
      ],
      "name": "getMintFee",
      "outputs": [
        {
          "internalType": "uint256",
          "name": "amountP12",
          "type": "uint256"
        }
      ],
      "stateMutability": "view",
      "type": "function"
    },
    {
      "inputs": [
        {
          "internalType": "address",
          "name": "p12_",
          "type": "address"
        },
        {
          "internalType": "contract IUniswapV2Factory",
          "name": "uniswapFactory_",
          "type": "address"
        },
        {
          "internalType": "contract IUniswapV2Router02",
          "name": "uniswapRouter_",
          "type": "address"
        },
        {
          "internalType": "uint256",
          "name": "effectiveTime_",
          "type": "uint256"
        },
        {
          "internalType": "bytes32",
          "name": "initHash_",
          "type": "bytes32"
        }
      ],
      "name": "initialize",
      "outputs": [],
      "stateMutability": "nonpayable",
      "type": "function"
    },
    {
      "inputs": [],
      "name": "owner",
      "outputs": [
        {
          "internalType": "address",
          "name": "",
          "type": "address"
        }
      ],
      "stateMutability": "view",
      "type": "function"
    },
    {
      "inputs": [],
      "name": "p12",
      "outputs": [
        {
          "internalType": "address",
          "name": "",
          "type": "address"
        }
      ],
      "stateMutability": "view",
      "type": "function"
    },
    {
      "inputs": [],
      "name": "p12Mine",
      "outputs": [
        {
          "internalType": "contract IP12MineUpgradeable",
          "name": "",
          "type": "address"
        }
      ],
      "stateMutability": "view",
      "type": "function"
    },
    {
      "inputs": [],
      "name": "pause",
      "outputs": [],
      "stateMutability": "nonpayable",
      "type": "function"
    },
    {
      "inputs": [],
      "name": "paused",
      "outputs": [
        {
          "internalType": "bool",
          "name": "",
          "type": "bool"
        }
      ],
      "stateMutability": "view",
      "type": "function"
    },
    {
      "inputs": [],
      "name": "pendingOwner",
      "outputs": [
        {
          "internalType": "address",
          "name": "",
          "type": "address"
        }
      ],
      "stateMutability": "view",
      "type": "function"
    },
    {
      "inputs": [
        {
          "internalType": "contract IP12GameCoin",
          "name": "",
          "type": "address"
        }
      ],
      "name": "preMintIds",
      "outputs": [
        {
          "internalType": "bytes32",
          "name": "",
          "type": "bytes32"
        }
      ],
      "stateMutability": "view",
      "type": "function"
    },
    {
      "inputs": [],
      "name": "proxiableUUID",
      "outputs": [
        {
          "internalType": "bytes32",
          "name": "",
          "type": "bytes32"
        }
      ],
      "stateMutability": "view",
      "type": "function"
    },
    {
      "inputs": [
        {
          "internalType": "string",
          "name": "gameId",
          "type": "string"
        },
        {
          "internalType": "contract IP12GameCoin",
          "name": "gameCoinAddress",
          "type": "address"
        },
        {
          "internalType": "uint256",
          "name": "amountGameCoin",
          "type": "uint256"
        }
      ],
      "name": "queueMintCoin",
      "outputs": [
        {
          "internalType": "bool",
          "name": "success",
          "type": "bool"
        }
      ],
      "stateMutability": "nonpayable",
      "type": "function"
    },
    {
      "inputs": [
        {
          "internalType": "string",
          "name": "gameId",
          "type": "string"
        },
        {
          "internalType": "address",
          "name": "developer",
          "type": "address"
        }
      ],
      "name": "register",
      "outputs": [],
      "stateMutability": "nonpayable",
      "type": "function"
    },
    {
      "inputs": [],
      "name": "renounceOwnership",
      "outputs": [],
      "stateMutability": "nonpayable",
      "type": "function"
    },
    {
      "inputs": [
        {
          "internalType": "uint256",
          "name": "newDelayB",
          "type": "uint256"
        }
      ],
      "name": "setDelayB",
      "outputs": [
        {
          "internalType": "bool",
          "name": "",
          "type": "bool"
        }
      ],
      "stateMutability": "nonpayable",
      "type": "function"
    },
    {
      "inputs": [
        {
          "internalType": "uint256",
          "name": "newDelayK",
          "type": "uint256"
        }
      ],
      "name": "setDelayK",
      "outputs": [
        {
          "internalType": "bool",
          "name": "",
          "type": "bool"
        }
      ],
      "stateMutability": "nonpayable",
      "type": "function"
    },
    {
      "inputs": [
        {
          "internalType": "address",
          "name": "newDev",
          "type": "address"
        }
      ],
      "name": "setDev",
      "outputs": [],
      "stateMutability": "nonpayable",
      "type": "function"
    },
    {
      "inputs": [
        {
          "internalType": "contract IGaugeController",
          "name": "newGaugeController",
          "type": "address"
        }
      ],
      "name": "setGaugeController",
      "outputs": [],
      "stateMutability": "nonpayable",
      "type": "function"
    },
    {
      "inputs": [
        {
          "internalType": "contract IP12MineUpgradeable",
          "name": "newP12Mine",
          "type": "address"
        }
      ],
      "name": "setP12Mine",
      "outputs": [],
      "stateMutability": "nonpayable",
      "type": "function"
    },
    {
      "inputs": [
        {
          "internalType": "address",
          "name": "newP12Token",
          "type": "address"
        }
      ],
      "name": "setP12Token",
      "outputs": [],
      "stateMutability": "nonpayable",
      "type": "function"
    },
    {
      "inputs": [
        {
          "internalType": "contract IUniswapV2Factory",
          "name": "newUniswapFactory",
          "type": "address"
        }
      ],
      "name": "setUniswapFactory",
      "outputs": [],
      "stateMutability": "nonpayable",
      "type": "function"
    },
    {
      "inputs": [
        {
          "internalType": "contract IUniswapV2Router02",
          "name": "newUniswapRouter",
          "type": "address"
        }
      ],
      "name": "setUniswapRouter",
      "outputs": [],
      "stateMutability": "nonpayable",
      "type": "function"
    },
    {
      "inputs": [
        {
          "internalType": "address",
          "name": "newOwner",
          "type": "address"
        },
        {
          "internalType": "bool",
          "name": "direct",
          "type": "bool"
        }
      ],
      "name": "transferOwnership",
      "outputs": [],
      "stateMutability": "nonpayable",
      "type": "function"
    },
    {
      "inputs": [],
      "name": "uniswapFactory",
      "outputs": [
        {
          "internalType": "contract IUniswapV2Factory",
          "name": "",
          "type": "address"
        }
      ],
      "stateMutability": "view",
      "type": "function"
    },
    {
      "inputs": [],
      "name": "uniswapRouter",
      "outputs": [
        {
          "internalType": "contract IUniswapV2Router02",
          "name": "",
          "type": "address"
        }
      ],
      "stateMutability": "view",
      "type": "function"
    },
    {
      "inputs": [],
      "name": "unpause",
      "outputs": [],
      "stateMutability": "nonpayable",
      "type": "function"
    },
    {
      "inputs": [
        {
          "internalType": "address",
          "name": "newImplementation",
          "type": "address"
        }
      ],
      "name": "upgradeTo",
      "outputs": [],
      "stateMutability": "nonpayable",
      "type": "function"
    },
    {
      "inputs": [
        {
          "internalType": "address",
          "name": "newImplementation",
          "type": "address"
        },
        {
          "internalType": "bytes",
          "name": "data",
          "type": "bytes"
        }
      ],
      "name": "upgradeToAndCall",
      "outputs": [],
      "stateMutability": "payable",
      "type": "function"
    },
    {
      "inputs": [
        {
          "internalType": "address",
          "name": "userAddress",
          "type": "address"
        },
        {
          "internalType": "contract IP12GameCoin",
          "name": "gameCoinAddress",
          "type": "address"
        },
        {
          "internalType": "uint256",
          "name": "amountGameCoin",
          "type": "uint256"
        }
      ],
      "name": "withdraw",
      "outputs": [
        {
          "internalType": "bool",
          "name": "",
          "type": "bool"
        }
      ],
      "stateMutability": "nonpayable",
      "type": "function"
    }
  ],
  "transactionHash": "0x988639f054d994ba5210fc25b008aa8db1616739b8a9257b39f1880f88d02663",
  "args": [],
  "numDeployments": 1,
  "solcInputHash": "ee6d5ae419b7f7671c30fcb2c503c6fc",
  "bytecode": "0x60a06040523060805234801561001457600080fd5b5060805161505e61004c60003960008181610a2801528181610a6b01528181610f6801528181610fab01526110f2015261505e6000f3fe6080604052600436106200026a5760003560e01c80638da5cb5b1162000147578063beb54e5311620000b9578063d477f05f1162000078578063d477f05f14620007b5578063d9caed1214620007da578063e04b677f14620007ff578063e30c39781462000824578063e48f427b146200084457600080fd5b8063beb54e5314620006e2578063bfe369531462000707578063c45ef4821462000729578063cad2efad146200074e578063caf3a4fe146200079357600080fd5b8063ada221f41162000106578063ada221f41462000629578063afdbf3c2146200064e578063b242e5341462000673578063b309bc981462000698578063bea9849e14620006bd57600080fd5b80638da5cb5b146200057c57806391cca3db146200059c57806398d294a114620005be57806399eecb3b14620005d65780639be55f5114620005f857600080fd5b80635377210f11620001e1578063735de9f711620001a0578063735de9f714620004c7578063739be25414620004e95780638456cb59146200051d5780638bdb2afa14620005355780638d7017d3146200055757600080fd5b80635377210f14620003d25780635c975abb146200043e578063614bb60a14620004595780637142bc831462000471578063715018a614620004af57600080fd5b80634e71e0c8116200022e5780634e71e0c814620003325780634f1ef286146200034a5780634f6649f1146200036157806352d1902d14620003865780635348e30414620003ad57600080fd5b806291d2b8146200026f5780631e59c52914620002965780633659cfe614620002bb5780633735e35914620002e05780633f4ba83a146200031a575b600080fd5b3480156200027c57600080fd5b50620002946200028e36600462002fbd565b6200085c565b005b348015620002a357600080fd5b5062000294620002b536600462003093565b6200091c565b348015620002c857600080fd5b5062000294620002da36600462002fbd565b62000a1e565b348015620002ed57600080fd5b5062000305620002ff366004620030eb565b62000b09565b60405190151581526020015b60405180910390f35b3480156200032757600080fd5b506200029462000ebf565b3480156200033f57600080fd5b506200029462000ef8565b620002946200035b3660046200314b565b62000f5e565b3480156200036e57600080fd5b50620002946200038036600462002fbd565b6200103a565b3480156200039357600080fd5b506200039e620010e5565b60405190815260200162000311565b348015620003ba57600080fd5b5062000305620003cc366004620031b6565b6200119b565b348015620003df57600080fd5b5062000420620003f1366004620031b6565b603460209081526000928352604080842090915290825290208054600182015460029092015490919060ff1683565b60408051938452602084019290925215159082015260600162000311565b3480156200044b57600080fd5b506101315460ff1662000305565b3480156200046657600080fd5b506200039e60045481565b3480156200047e57600080fd5b506200049662000490366004620031e5565b62001432565b6040516001600160a01b03909116815260200162000311565b348015620004bc57600080fd5b506200029462001992565b348015620004d457600080fd5b5060015462000496906001600160a01b031681565b348015620004f657600080fd5b506200050e6200050836600462002fbd565b620019cb565b6040516200031191906200330e565b3480156200052a57600080fd5b506200029462001a6d565b3480156200054257600080fd5b5060025462000496906001600160a01b031681565b3480156200056457600080fd5b50620002946200057636600462003323565b62001aa4565b3480156200058957600080fd5b5060cd546001600160a01b031662000496565b348015620005a957600080fd5b5060085462000496906001600160a01b031681565b348015620005cb57600080fd5b506200039e60065481565b348015620005e357600080fd5b5060095462000496906001600160a01b031681565b3480156200060557600080fd5b506200039e6200061736600462002fbd565b60356020526000908152604090205481565b3480156200063657600080fd5b50620002946200064836600462002fbd565b62001ce3565b3480156200065b57600080fd5b50620003056200066d36600462003385565b62001d8e565b3480156200068057600080fd5b506200029462000692366004620033ae565b62001e0b565b348015620006a557600080fd5b5062000305620006b736600462003385565b62001ec1565b348015620006ca57600080fd5b5062000294620006dc36600462002fbd565b62001f30565b348015620006ef57600080fd5b506200039e62000701366004620031b6565b62001fdb565b3480156200071457600080fd5b5060005462000496906001600160a01b031681565b3480156200073657600080fd5b506200039e62000748366004620031b6565b62002210565b3480156200075b57600080fd5b50620004966200076d366004620033e1565b80516020818301810180516032825292820191909301209152546001600160a01b031681565b348015620007a057600080fd5b5060075462000496906001600160a01b031681565b348015620007c257600080fd5b5062000294620007d436600462002fbd565b620022a8565b348015620007e757600080fd5b5062000305620007f93660046200341a565b62002353565b3480156200080c57600080fd5b50620002946200081e36600462002fbd565b6200241d565b3480156200083157600080fd5b5060ce546001600160a01b031662000496565b3480156200085157600080fd5b506200039e60035481565b60cd546001600160a01b03163314620008925760405162461bcd60e51b815260040162000889906200344f565b60405180910390fd5b6001600160a01b038116620008bb5760405162461bcd60e51b8152600401620008899062003486565b600980546001600160a01b038381166001600160a01b03198316179092556040519116907f9b1ae61f53f47914159f1f1397501254f37fc99c47286e6b059ce40b382bf0b490620009109083908590620034bd565b60405180910390a15050565b6008546001600160a01b03163314620009785760405162461bcd60e51b815260206004820152601e60248201527f503132466163746f72793a2063616c6c6572206d757374206265206465760000604482015260640162000889565b6001600160a01b038116620009a15760405162461bcd60e51b8152600401620008899062003486565b80603283604051620009b49190620034d7565b90815260405190819003602001812080546001600160a01b039384166001600160a01b0319909116179055908216907fd0dd9fef631eda10c96c4dc062a2dd5fa09ab1fc94bc8b015f6d7c3eeaca4a389062000a129085906200330e565b60405180910390a25050565b6001600160a01b037f000000000000000000000000000000000000000000000000000000000000000016300362000a695760405162461bcd60e51b81526004016200088990620034f5565b7f00000000000000000000000000000000000000000000000000000000000000006001600160a01b031662000ab460008051602062004fe2833981519152546001600160a01b031690565b6001600160a01b03161462000add5760405162461bcd60e51b8152600401620008899062003541565b62000ae881620024c8565b6040805160008082526020820190925262000b0691839190620024f5565b50565b6000600260ff540362000b305760405162461bcd60e51b815260040162000889906200358d565b600260ff5562000b436101315460ff1690565b1562000b635760405162461bcd60e51b81526004016200088990620035c4565b60328460405162000b759190620034d7565b90815260405190819003602001902054336001600160a01b039091161462000be05760405162461bcd60e51b815260206004820152601e60248201527f503132466163746f72793a2068617665206e6f207065726d697373696f6e0000604482015260640162000889565b6001600160a01b0383166000908152603360205260409020805462000c96919062000c0b90620035ee565b80601f016020809104026020016040519081016040528092919081815260200182805462000c3990620035ee565b801562000c8a5780601f1062000c5e5761010080835404028352916020019162000c8a565b820191906000526020600020905b81548152906001019060200180831162000c6c57829003601f168201915b50505050508562002672565b62000ce45760405162461bcd60e51b815260206004820152601960248201527f503132466163746f72793a2077726f6e672067616d6520696400000000000000604482015260640162000889565b6001600160a01b0383166000908152603560209081526040808320546034835281842081855290925282206001015442919080831062000d275782935062000d2b565b8093505b600062000d39888862001fdb565b60005490915062000d56906001600160a01b0316333084620026cf565b600062000d64898962002210565b9050600062000dea8a338b8a6005546001600160a01b039485166000818152603560208181526040808420805482518085018890529a909b168a83015260608a0198909852608089019690965260a088019890985260c0808801949094528451808803909401845260e09096019093528151918601919091209152919092529081905590565b905060405180606001604052808a8152602001888462000e0b919062003640565b8152600060209182018190526001600160a01b038d16808252603483526040808320868452845291829020845181559284015160018401559201516002909101805460ff1916911515919091179055817f192dbb596f99b94785518ef174823fd46e8962b95010f6ddc9fd529a129dbe778b62000e898b8762003640565b604080519283526020830191909152810187905260600160405180910390a36001975050505050505050600160ff559392505050565b60cd546001600160a01b0316331462000eec5760405162461bcd60e51b815260040162000889906200344f565b62000ef662002742565b565b60ce546001600160a01b0316331462000f545760405162461bcd60e51b815260206004820152601e60248201527f536166654f776e61626c653a2063616c6c657220213d2070656e64696e670000604482015260640162000889565b62000ef6620027d9565b6001600160a01b037f000000000000000000000000000000000000000000000000000000000000000016300362000fa95760405162461bcd60e51b81526004016200088990620034f5565b7f00000000000000000000000000000000000000000000000000000000000000006001600160a01b031662000ff460008051602062004fe2833981519152546001600160a01b031690565b6001600160a01b0316146200101d5760405162461bcd60e51b8152600401620008899062003541565b6200102882620024c8565b6200103682826001620024f5565b5050565b60cd546001600160a01b03163314620010675760405162461bcd60e51b815260040162000889906200344f565b6001600160a01b038116620010905760405162461bcd60e51b8152600401620008899062003486565b600780546001600160a01b038381166001600160a01b03198316179092556040519116907f95468d408cf5dd8c0bb5ce4d4a5e1b17b13caa162d20fc4d727f92d404e5265b90620009109083908590620034bd565b6000306001600160a01b037f00000000000000000000000000000000000000000000000000000000000000001614620011875760405162461bcd60e51b815260206004820152603860248201527f555550535570677261646561626c653a206d757374206e6f742062652063616c60448201527f6c6564207468726f7567682064656c656761746563616c6c0000000000000000606482015260840162000889565b5060008051602062004fe283398151915290565b6000600260ff5403620011c25760405162461bcd60e51b815260040162000889906200358d565b600260ff55620011d56101315460ff1690565b15620011f55760405162461bcd60e51b81526004016200088990620035c4565b6001600160a01b038316600090815260346020908152604080832085845290915281206001015490036200126c5760405162461bcd60e51b815260206004820152601d60248201527f503132466163746f72793a206e6f6e2d6578697374656e74206d696e74000000604482015260640162000889565b6001600160a01b038316600090815260346020908152604080832085845290915290206002015460ff1615620012e55760405162461bcd60e51b815260206004820152601960248201527f503132466163746f72793a206d696e7420657865637574656400000000000000604482015260640162000889565b6001600160a01b0383166000908152603460209081526040808320858452909152902060010154429081116200135e5760405162461bcd60e51b815260206004820152601c60248201527f503132466163746f72793a206e6f742074696d6520746f206d696e7400000000604482015260640162000889565b6001600160a01b03841660008181526034602090815260408083208784529091529081902060028101805460ff191660011790555490516340c10f1960e01b815230600482015260248101919091526340c10f1990604401600060405180830381600087803b158015620013d157600080fd5b505af1158015620013e6573d6000803e3d6000fd5b50506040513392506001600160a01b038716915085907f2da35f6537bd80d9cac4d158e23a0ab942e7fb1fd4a25243fcad824c3433e37990600090a46001915050600160ff5592915050565b6000600260ff5403620014595760405162461bcd60e51b815260040162000889906200358d565b600260ff556200146c6101315460ff1690565b156200148c5760405162461bcd60e51b81526004016200088990620035c4565b6032856040516200149e9190620034d7565b90815260405190819003602001902054336001600160a01b0390911614620015095760405162461bcd60e51b815260206004820152601f60248201527f503132466163746f72793a206e6f207065726d697420746f2063726561746500604482015260640162000889565b600082116200155b5760405162461bcd60e51b815260206004820152601a60248201527f503132466163746f72793a206e6f7420656e6f75676820703132000000000000604482015260640162000889565b6200156a878787878762002842565b905060006200157b6002856200365b565b60005490915062001598906001600160a01b0316333086620026cf565b600154620015b4906001600160a01b0384811691168362002891565b6001546000805460075460065492936001600160a01b039081169363e8e337009382169288928a92899284928492911690620015f1904262003640565b60405160e08a901b6001600160e01b03191681526001600160a01b039889166004820152968816602488015260448701959095526064860193909352608485019190915260a484015290921660c482015260e4810191909152610104016060604051808303816000875af11580156200166e573d6000803e3d6000fd5b505050506040513d601f19601f820116820180604052508101906200169491906200367e565b6002546000805460405163e6a4390560e01b81529396509094506001600160a01b03918216935063e6a4390592620016d592909116908890600401620034bd565b602060405180830381865afa158015620016f3573d6000803e3d6000fd5b505050506040513d601f19601f82011682018060405250810190620017199190620036ad565b90506001600160a01b038116620017735760405162461bcd60e51b815260206004820152601e60248201527f503132466163746f72793a20706169722061646472657373206572726f720000604482015260640162000889565b6007546040516370a0823160e01b81526001600160a01b0391821660048201526000918316906370a0823190602401602060405180830381865afa158015620017c0573d6000803e3d6000fd5b505050506040513d601f19601f82011682018060405250810190620017e69190620036cd565b9050808314620018395760405162461bcd60e51b815260206004820152601d60248201527f503132466163746f72793a206c69717569646974696573206e6f74203d000000604482015260640162000889565b600954604051634fdea7b360e11b81526001600160a01b03848116600483015260006024830152606460448301819052921691639fbd4f669101600060405180830381600087803b1580156200188e57600080fd5b505af1158015620018a3573d6000803e3d6000fd5b50506007546040516361b5943760e11b81526001600160a01b03868116600483015260248201869052336044830152909116925063c36b286e9150606401600060405180830381600087803b158015620018fc57600080fd5b505af115801562001911573d6000803e3d6000fd5b505050506001600160a01b0385166000908152603360205260409020620019398a8262003731565b50846001600160a01b03167f6e95c3b5d98fadafb5128d1b47318086a57941593d293495faa5879c7eda5ba88a8860405162001977929190620037fe565b60405180910390a250505050600160ff559695505050505050565b60cd546001600160a01b03163314620019bf5760405162461bcd60e51b815260040162000889906200344f565b62000ef66000620029af565b60336020526000908152604090208054620019e690620035ee565b80601f016020809104026020016040519081016040528092919081815260200182805462001a1490620035ee565b801562001a655780601f1062001a395761010080835404028352916020019162001a65565b820191906000526020600020905b81548152906001019060200180831162001a4757829003601f168201915b505050505081565b60cd546001600160a01b0316331462001a9a5760405162461bcd60e51b815260040162000889906200344f565b62000ef662002a01565b603654610100900460ff1662001ac15760365460ff161562001ac5565b303b155b62001b2a5760405162461bcd60e51b815260206004820152602e60248201527f496e697469616c697a61626c653a20636f6e747261637420697320616c72656160448201526d191e481a5b9a5d1a585b1a5e995960921b606482015260840162000889565b603654610100900460ff1615801562001b4d576036805461ffff19166101011790555b6001600160a01b03861662001ba55760405162461bcd60e51b815260206004820152601e60248201527f5031324d696e653a2070313220746f6b656e2063616e6e6f7420626520300000604482015260640162000889565b6001600160a01b03851662001bfd5760405162461bcd60e51b815260206004820152601d60248201527f5031324d696e653a20756e6973776170462063616e6e6f742062652030000000604482015260640162000889565b6001600160a01b03841662001c555760405162461bcd60e51b815260206004820152601d60248201527f5031324d696e653a20756e6973776170522063616e6e6f742062652030000000604482015260640162000889565b600080546001600160a01b03199081166001600160a01b03898116918217909355600280548316898516179055600180549092169287169283179091556005849055600685905562001caa9160001962002891565b62001cb462002a5f565b62001cbe62002a90565b62001cc862002ac7565b801562001cdb576036805461ff00191690555b505050505050565b60cd546001600160a01b0316331462001d105760405162461bcd60e51b815260040162000889906200344f565b6001600160a01b03811662001d395760405162461bcd60e51b8152600401620008899062003486565b600080546001600160a01b038381166001600160a01b03198316179092556040519116907fa8b6187bdfcd1b7c94f6739c7b7fd3ae429f0243bb27db8dd521cb941628924c90620009109083908590620034bd565b60cd546000906001600160a01b0316331462001dbe5760405162461bcd60e51b815260040162000889906200344f565b600380549083905560408051828152602081018590527fb936e6dfcf3fec6bfb7d23d91ce9406c4ce74825de73cf38c764ed900731d7a491015b60405180910390a160019150505b919050565b60cd546001600160a01b0316331462001e385760405162461bcd60e51b815260040162000889906200344f565b6001600160a01b03821662001e905760405162461bcd60e51b815260206004820152601b60248201527f536166654f776e61626c653a206e6577206f776e657220697320300000000000604482015260640162000889565b801562001ea2576200103682620029af565b60ce80546001600160a01b0319166001600160a01b0384161790555050565b60cd546000906001600160a01b0316331462001ef15760405162461bcd60e51b815260040162000889906200344f565b600480549083905560408051828152602081018590527f43c057f209152d56f2de0fa1d79291670facf6161810b2392b949bf1647cc236910162001df8565b60cd546001600160a01b0316331462001f5d5760405162461bcd60e51b815260040162000889906200344f565b6001600160a01b03811662001f865760405162461bcd60e51b8152600401620008899062003486565b600180546001600160a01b038381166001600160a01b03198316179092556040519116907f0f37b9ce7f4d93710cfa573bde8e5e815a6ddd7917004b6832145a3c22047e3b90620009109083908590620034bd565b60008054819081906001600160a01b0380871691161015620020ef5760025460005460405163e6a4390560e01b81526001600160a01b039283169263e6a439059262002030928a9290911690600401620034bd565b602060405180830381865afa1580156200204e573d6000803e3d6000fd5b505050506040513d601f19601f82011682018060405250810190620020749190620036ad565b6001600160a01b0316630902f1ac6040518163ffffffff1660e01b8152600401606060405180830381865afa158015620020b2573d6000803e3d6000fd5b505050506040513d601f19601f82011682018060405250810190620020d891906200383a565b506001600160701b039081169350169050620021e2565b60025460005460405163e6a4390560e01b81526001600160a01b039283169263e6a439059262002128928a9290911690600401620034bd565b602060405180830381865afa15801562002146573d6000803e3d6000fd5b505050506040513d601f19601f820116820180604052508101906200216c9190620036ad565b6001600160a01b0316630902f1ac6040518163ffffffff1660e01b8152600401606060405180830381865afa158015620021aa573d6000803e3d6000fd5b505050506040513d601f19601f82011682018060405250810190620021d091906200383a565b506001600160701b0391821693501690505b620021ef82606462003890565b620021fb858362003890565b6200220791906200365b565b95945050505050565b6000600454836001600160a01b03166318160ddd6040518163ffffffff1660e01b8152600401602060405180830381865afa15801562002254573d6000803e3d6000fd5b505050506040513d601f19601f820116820180604052508101906200227a9190620036cd565b60035462002289908562003890565b6200229591906200365b565b620022a1919062003640565b9392505050565b60cd546001600160a01b03163314620022d55760405162461bcd60e51b815260040162000889906200344f565b6001600160a01b038116620022fe5760405162461bcd60e51b8152600401620008899062003486565b600880546001600160a01b038381166001600160a01b03198316179092556040519116907f7b4a3682445cf2b8276b6dde2faa9f9a653ea60d9ebadf169518e64f55666aae90620009109083908590620034bd565b6008546000906001600160a01b03163314620023b25760405162461bcd60e51b815260206004820152601e60248201527f503132466163746f72793a2063616c6c6572206d757374206265206465760000604482015260640162000889565b620023c86001600160a01b038416858462002afc565b604080516001600160a01b038087168252851660208201529081018390527f9b1bfa7fa9ee420a16e124f794c35ac9f90472acc99140eb2f6447c714cad8eb9060600160405180910390a15060019392505050565b60cd546001600160a01b031633146200244a5760405162461bcd60e51b815260040162000889906200344f565b6001600160a01b038116620024735760405162461bcd60e51b8152600401620008899062003486565b600280546001600160a01b038381166001600160a01b03198316179092556040519116907f1d63ba0b48b767ad4e57f2dabb3bc49065423e8fb23b85274d4f8d0c6952848990620009109083908590620034bd565b60cd546001600160a01b0316331462000b065760405162461bcd60e51b815260040162000889906200344f565b7f4910fdfa16fed3260ed0e7147f7cc6da11a60208b5b9406d12a635614ffd91435460ff161562002530576200252b8362002b2e565b505050565b826001600160a01b03166352d1902d6040518163ffffffff1660e01b8152600401602060405180830381865afa9250505080156200258d575060408051601f3d908101601f191682019092526200258a91810190620036cd565b60015b620025f25760405162461bcd60e51b815260206004820152602e60248201527f45524331393637557067726164653a206e657720696d706c656d656e7461746960448201526d6f6e206973206e6f74205555505360901b606482015260840162000889565b60008051602062004fe28339815191528114620026645760405162461bcd60e51b815260206004820152602960248201527f45524331393637557067726164653a20756e737570706f727465642070726f786044820152681a58589b195555525160ba1b606482015260840162000889565b506200252b83838362002bcd565b600081604051602001620026879190620034d7565b6040516020818303038152906040528051906020012083604051602001620026b09190620034d7565b6040516020818303038152906040528051906020012014905092915050565b6040516001600160a01b03808516602483015283166044820152606481018290526200273c9085906323b872dd60e01b906084015b60408051601f198184030181529190526020810180516001600160e01b03166001600160e01b03199093169290921790915262002bf8565b50505050565b6101315460ff166200278e5760405162461bcd60e51b815260206004820152601460248201527314185d5cd8589b194e881b9bdd081c185d5cd95960621b604482015260640162000889565b610131805460ff191690557f5db9ee0a495bf2e6ff9c91a7834c1ba4fdd244a5e8aa4e537bd38aeae4b073aa335b6040516001600160a01b03909116815260200160405180910390a1565b60cd5460ce546040516001600160a01b03928316929091169082907f8be0079c531659141344cd1fd0a4f28419497f9722a3daafe3b4186f6b6457e090600090a35060ce805460cd80546001600160a01b03199081166001600160a01b03841617909155169055565b6000808686868686604051620028589062002f99565b62002868959493929190620038b2565b604051809103906000f08015801562002885573d6000803e3d6000fd5b50979650505050505050565b801580620029105750604051636eb1769f60e11b81526001600160a01b0384169063dd62ed3e90620028ca9030908690600401620034bd565b602060405180830381865afa158015620028e8573d6000803e3d6000fd5b505050506040513d601f19601f820116820180604052508101906200290e9190620036cd565b155b6200297d5760405162461bcd60e51b815260206004820152603660248201527f5361666545524332303a20617070726f76652066726f6d206e6f6e2d7a65726f60448201527520746f206e6f6e2d7a65726f20616c6c6f77616e636560501b606482015260840162000889565b6040516001600160a01b0383166024820152604481018290526200252b90849063095ea7b360e01b9060640162002704565b60cd80546001600160a01b038381166001600160a01b0319831681179093556040519116919082907f8be0079c531659141344cd1fd0a4f28419497f9722a3daafe3b4186f6b6457e090600090a35050565b6101315460ff161562002a285760405162461bcd60e51b81526004016200088990620035c4565b610131805460ff191660011790557f62e78cea01bee320cd4e420270b5ea74000d11b0c9f74754ebdbfc544b05a258620027bc3390565b603654610100900460ff1662002a895760405162461bcd60e51b815260040162000889906200391a565b600160ff55565b603654610100900460ff1662002aba5760405162461bcd60e51b815260040162000889906200391a565b610131805460ff19169055565b603654610100900460ff1662002af15760405162461bcd60e51b815260040162000889906200391a565b62000ef633620029af565b6040516001600160a01b0383166024820152604481018290526200252b90849063a9059cbb60e01b9060640162002704565b6001600160a01b0381163b62002b9d5760405162461bcd60e51b815260206004820152602d60248201527f455243313936373a206e657720696d706c656d656e746174696f6e206973206e60448201526c1bdd08184818dbdb9d1c9858dd609a1b606482015260840162000889565b60008051602062004fe283398151915280546001600160a01b0319166001600160a01b0392909216919091179055565b62002bd88362002cd1565b60008251118062002be65750805b156200252b576200273c838362002d13565b600062002c4f826040518060400160405280602081526020017f5361666545524332303a206c6f772d6c6576656c2063616c6c206661696c6564815250856001600160a01b031662002e079092919063ffffffff16565b8051909150156200252b578080602001905181019062002c70919062003965565b6200252b5760405162461bcd60e51b815260206004820152602a60248201527f5361666545524332303a204552433230206f7065726174696f6e20646964206e6044820152691bdd081cdd58d8d9595960b21b606482015260840162000889565b62002cdc8162002b2e565b6040516001600160a01b038216907fbc7cd75a20ee27fd9adebab32041f755214dbc6bffa90cc0225b39da2e5c2d3b90600090a250565b60606001600160a01b0383163b62002d7d5760405162461bcd60e51b815260206004820152602660248201527f416464726573733a2064656c65676174652063616c6c20746f206e6f6e2d636f6044820152651b9d1c9858dd60d21b606482015260840162000889565b600080846001600160a01b03168460405162002d9a9190620034d7565b600060405180830381855af49150503d806000811462002dd7576040519150601f19603f3d011682016040523d82523d6000602084013e62002ddc565b606091505b5091509150620022078282604051806060016040528060278152602001620050026027913962002e20565b606062002e18848460008562002e5e565b949350505050565b6060831562002e31575081620022a1565b82511562002e425782518084602001fd5b8160405162461bcd60e51b81526004016200088991906200330e565b60608247101562002ec15760405162461bcd60e51b815260206004820152602660248201527f416464726573733a20696e73756666696369656e742062616c616e636520666f6044820152651c8818d85b1b60d21b606482015260840162000889565b6001600160a01b0385163b62002f1a5760405162461bcd60e51b815260206004820152601d60248201527f416464726573733a2063616c6c20746f206e6f6e2d636f6e7472616374000000604482015260640162000889565b600080866001600160a01b0316858760405162002f389190620034d7565b60006040518083038185875af1925050503d806000811462002f77576040519150601f19603f3d011682016040523d82523d6000602084013e62002f7c565b606091505b509150915062002f8e82828662002e20565b979650505050505050565b61165c806200398683390190565b6001600160a01b038116811462000b0657600080fd5b60006020828403121562002fd057600080fd5b8135620022a18162002fa7565b634e487b7160e01b600052604160045260246000fd5b600067ffffffffffffffff8084111562003011576200301162002fdd565b604051601f8501601f19908116603f011681019082821181831017156200303c576200303c62002fdd565b816040528093508581528686860111156200305657600080fd5b858560208301376000602087830101525050509392505050565b600082601f8301126200308257600080fd5b620022a18383356020850162002ff3565b60008060408385031215620030a757600080fd5b823567ffffffffffffffff811115620030bf57600080fd5b620030cd8582860162003070565b9250506020830135620030e08162002fa7565b809150509250929050565b6000806000606084860312156200310157600080fd5b833567ffffffffffffffff8111156200311957600080fd5b620031278682870162003070565b93505060208401356200313a8162002fa7565b929592945050506040919091013590565b600080604083850312156200315f57600080fd5b82356200316c8162002fa7565b9150602083013567ffffffffffffffff8111156200318957600080fd5b8301601f810185136200319b57600080fd5b620031ac8582356020840162002ff3565b9150509250929050565b60008060408385031215620031ca57600080fd5b8235620031d78162002fa7565b946020939093013593505050565b60008060008060008060c08789031215620031ff57600080fd5b863567ffffffffffffffff808211156200321857600080fd5b620032268a838b0162003070565b975060208901359150808211156200323d57600080fd5b6200324b8a838b0162003070565b965060408901359150808211156200326257600080fd5b620032708a838b0162003070565b955060608901359150808211156200328757600080fd5b506200329689828a0162003070565b9350506080870135915060a087013590509295509295509295565b60005b83811015620032ce578181015183820152602001620032b4565b838111156200273c5750506000910152565b60008151808452620032fa816020860160208601620032b1565b601f01601f19169290920160200192915050565b602081526000620022a16020830184620032e0565b600080600080600060a086880312156200333c57600080fd5b8535620033498162002fa7565b945060208601356200335b8162002fa7565b935060408601356200336d8162002fa7565b94979396509394606081013594506080013592915050565b6000602082840312156200339857600080fd5b5035919050565b801515811462000b0657600080fd5b60008060408385031215620033c257600080fd5b8235620033cf8162002fa7565b91506020830135620030e0816200339f565b600060208284031215620033f457600080fd5b813567ffffffffffffffff8111156200340c57600080fd5b62002e188482850162003070565b6000806000606084860312156200343057600080fd5b83356200343d8162002fa7565b925060208401356200313a8162002fa7565b6020808252601d908201527f536166654f776e61626c653a2063616c6c6572206e6f74206f776e6572000000604082015260600190565b6020808252601f908201527f503132466163746f72793a20616464726573732063616e6e6f74206265203000604082015260600190565b6001600160a01b0392831681529116602082015260400190565b60008251620034eb818460208701620032b1565b9190910192915050565b6020808252602c908201527f46756e6374696f6e206d7573742062652063616c6c6564207468726f7567682060408201526b19195b1959d85d1958d85b1b60a21b606082015260800190565b6020808252602c908201527f46756e6374696f6e206d7573742062652063616c6c6564207468726f7567682060408201526b6163746976652070726f787960a01b606082015260800190565b6020808252601f908201527f5265656e7472616e637947756172643a207265656e7472616e742063616c6c00604082015260600190565b60208082526010908201526f14185d5cd8589b194e881c185d5cd95960821b604082015260600190565b600181811c908216806200360357607f821691505b6020821081036200362457634e487b7160e01b600052602260045260246000fd5b50919050565b634e487b7160e01b600052601160045260246000fd5b600082198211156200365657620036566200362a565b500190565b6000826200367957634e487b7160e01b600052601260045260246000fd5b500490565b6000806000606084860312156200369457600080fd5b8351925060208401519150604084015190509250925092565b600060208284031215620036c057600080fd5b8151620022a18162002fa7565b600060208284031215620036e057600080fd5b5051919050565b601f8211156200252b57600081815260208120601f850160051c81016020861015620037105750805b601f850160051c820191505b8181101562001cdb578281556001016200371c565b815167ffffffffffffffff8111156200374e576200374e62002fdd565b62003766816200375f8454620035ee565b84620036e7565b602080601f8311600181146200379e5760008415620037855750858301515b600019600386901b1c1916600185901b17855562001cdb565b600085815260208120601f198616915b82811015620037cf57888601518255948401946001909101908401620037ae565b5085821015620037ee5787850151600019600388901b60f8161c191681555b5050505050600190811b01905550565b604081526000620038136040830185620032e0565b90508260208301529392505050565b80516001600160701b038116811462001e0657600080fd5b6000806000606084860312156200385057600080fd5b6200385b8462003822565b92506200386b6020850162003822565b9150604084015163ffffffff811681146200388557600080fd5b809150509250925092565b6000816000190483118215151615620038ad57620038ad6200362a565b500290565b60a081526000620038c760a0830188620032e0565b8281036020840152620038db8188620032e0565b90508281036040840152620038f18187620032e0565b90508281036060840152620039078186620032e0565b9150508260808301529695505050505050565b6020808252602b908201527f496e697469616c697a61626c653a20636f6e7472616374206973206e6f74206960408201526a6e697469616c697a696e6760a81b606082015260800190565b6000602082840312156200397857600080fd5b8151620022a1816200339f56fe60806040523480156200001157600080fd5b506040516200165c3803806200165c8339810160408190526200003491620002b5565b8484600362000044838262000406565b50600462000053828262000406565b505050620000706200006a620000a560201b60201c565b620000a9565b60076200007e848262000406565b5060086200008d838262000406565b506200009a3382620000fb565b5050505050620004f9565b3390565b600580546001600160a01b038381166001600160a01b0319831681179093556040519116919082907f8be0079c531659141344cd1fd0a4f28419497f9722a3daafe3b4186f6b6457e090600090a35050565b6001600160a01b038216620001565760405162461bcd60e51b815260206004820152601f60248201527f45524332303a206d696e7420746f20746865207a65726f206164647265737300604482015260640160405180910390fd5b80600260008282546200016a9190620004d2565b90915550506001600160a01b0382166000908152602081905260408120805483929062000199908490620004d2565b90915550506040518181526001600160a01b038316906000907fddf252ad1be2c89b69c2b068fc378daa952ba7f163c4a11628f55a4df523b3ef9060200160405180910390a35050565b505050565b634e487b7160e01b600052604160045260246000fd5b600082601f8301126200021057600080fd5b81516001600160401b03808211156200022d576200022d620001e8565b604051601f8301601f19908116603f01168101908282118183101715620002585762000258620001e8565b816040528381526020925086838588010111156200027557600080fd5b600091505b838210156200029957858201830151818301840152908201906200027a565b83821115620002ab5760008385830101525b9695505050505050565b600080600080600060a08688031215620002ce57600080fd5b85516001600160401b0380821115620002e657600080fd5b620002f489838a01620001fe565b965060208801519150808211156200030b57600080fd5b6200031989838a01620001fe565b955060408801519150808211156200033057600080fd5b6200033e89838a01620001fe565b945060608801519150808211156200035557600080fd5b506200036488828901620001fe565b925050608086015190509295509295909350565b600181811c908216806200038d57607f821691505b602082108103620003ae57634e487b7160e01b600052602260045260246000fd5b50919050565b601f821115620001e357600081815260208120601f850160051c81016020861015620003dd5750805b601f850160051c820191505b81811015620003fe57828155600101620003e9565b505050505050565b81516001600160401b03811115620004225762000422620001e8565b6200043a8162000433845462000378565b84620003b4565b602080601f831160018114620004725760008415620004595750858301515b600019600386901b1c1916600185901b178555620003fe565b600085815260208120601f198616915b82811015620004a35788860151825594840194600190910190840162000482565b5085821015620004c25787850151600019600388901b60f8161c191681555b5050505050600190811b01905550565b60008219821115620004f457634e487b7160e01b600052601160045260246000fd5b500190565b61115380620005096000396000f3fe608060405234801561001057600080fd5b50600436106101425760003560e01c8063715018a6116100b8578063a9059cbb1161007c578063a9059cbb1461028b578063b242e5341461029e578063c5ac5e3e146102b1578063d7c81b55146102c4578063dd62ed3e146102cc578063e30c39781461030557600080fd5b8063715018a61461023057806379cc6790146102385780638da5cb5b1461024b57806395d89b4114610270578063a457c2d71461027857600080fd5b8063313ce5671161010a578063313ce567146101b557806339509351146101c457806340c10f19146101d757806342966c68146101ec5780634e71e0c8146101ff57806370a082311461020757600080fd5b806306fdde0314610147578063095ea7b31461016557806318160ddd1461018857806323b872dd1461019a57806325371063146101ad575b600080fd5b61014f610316565b60405161015c9190610e13565b60405180910390f35b610178610173366004610e49565b6103a8565b604051901515815260200161015c565b6002545b60405190815260200161015c565b6101786101a8366004610e73565b6103c0565b61014f6103e4565b6040516012815260200161015c565b6101786101d2366004610e49565b610472565b6101ea6101e5366004610e49565b6104b1565b005b6101ea6101fa366004610eaf565b6104f2565b6101ea6104ff565b61018c610215366004610ec8565b6001600160a01b031660009081526020819052604090205490565b6101ea610563565b6101ea610246366004610e49565b610597565b6005546001600160a01b03165b6040516001600160a01b03909116815260200161015c565b61014f6105ac565b610178610286366004610e49565b6105bb565b610178610299366004610e49565b61064d565b6101ea6102ac366004610ee3565b61065b565b6101ea6102bf366004610f35565b610709565b61014f610754565b61018c6102da366004611000565b6001600160a01b03918216600090815260016020908152604080832093909416825291909152205490565b6006546001600160a01b0316610258565b60606003805461032590611033565b80601f016020809104026020016040519081016040528092919081815260200182805461035190611033565b801561039e5780601f106103735761010080835404028352916020019161039e565b820191906000526020600020905b81548152906001019060200180831161038157829003601f168201915b5050505050905090565b6000336103b6818585610761565b5060019392505050565b6000336103ce858285610886565b6103d9858585610918565b506001949350505050565b600880546103f190611033565b80601f016020809104026020016040519081016040528092919081815260200182805461041d90611033565b801561046a5780601f1061043f5761010080835404028352916020019161046a565b820191906000526020600020905b81548152906001019060200180831161044d57829003601f168201915b505050505081565b3360008181526001602090815260408083206001600160a01b03871684529091528120549091906103b690829086906104ac908790611083565b610761565b6005546001600160a01b031633146104e45760405162461bcd60e51b81526004016104db9061109b565b60405180910390fd5b6104ee8282610ae6565b5050565b6104fc3382610bc5565b50565b6006546001600160a01b031633146105595760405162461bcd60e51b815260206004820152601e60248201527f536166654f776e61626c653a2063616c6c657220213d2070656e64696e67000060448201526064016104db565b610561610d0b565b565b6005546001600160a01b0316331461058d5760405162461bcd60e51b81526004016104db9061109b565b6105616000610d74565b6105a2823383610886565b6104ee8282610bc5565b60606004805461032590611033565b3360008181526001602090815260408083206001600160a01b0387168452909152812054909190838110156106405760405162461bcd60e51b815260206004820152602560248201527f45524332303a2064656372656173656420616c6c6f77616e63652062656c6f77604482015264207a65726f60d81b60648201526084016104db565b6103d98286868403610761565b6000336103b6818585610918565b6005546001600160a01b031633146106855760405162461bcd60e51b81526004016104db9061109b565b6001600160a01b0382166106db5760405162461bcd60e51b815260206004820152601b60248201527f536166654f776e61626c653a206e6577206f776e65722069732030000000000060448201526064016104db565b80156106ea576104ee82610d74565b600680546001600160a01b0319166001600160a01b0384161790555050565b610713838261064d565b507f0685266a580e960b24e8250625c91771b26ecea1913010a819fee0661a45dac8838383604051610747939291906110d2565b60405180910390a1505050565b600780546103f190611033565b6001600160a01b0383166107c35760405162461bcd60e51b8152602060048201526024808201527f45524332303a20617070726f76652066726f6d20746865207a65726f206164646044820152637265737360e01b60648201526084016104db565b6001600160a01b0382166108245760405162461bcd60e51b815260206004820152602260248201527f45524332303a20617070726f766520746f20746865207a65726f206164647265604482015261737360f01b60648201526084016104db565b6001600160a01b0383811660008181526001602090815260408083209487168084529482529182902085905590518481527f8c5be1e5ebec7d5bd14f71427d1e84f3dd0314c0f7b2291e5b200ac8c7c3b92591015b60405180910390a3505050565b6001600160a01b03838116600090815260016020908152604080832093861683529290522054600019811461091257818110156109055760405162461bcd60e51b815260206004820152601d60248201527f45524332303a20696e73756666696369656e7420616c6c6f77616e636500000060448201526064016104db565b6109128484848403610761565b50505050565b6001600160a01b03831661097c5760405162461bcd60e51b815260206004820152602560248201527f45524332303a207472616e736665722066726f6d20746865207a65726f206164604482015264647265737360d81b60648201526084016104db565b6001600160a01b0382166109de5760405162461bcd60e51b815260206004820152602360248201527f45524332303a207472616e7366657220746f20746865207a65726f206164647260448201526265737360e81b60648201526084016104db565b6001600160a01b03831660009081526020819052604090205481811015610a565760405162461bcd60e51b815260206004820152602660248201527f45524332303a207472616e7366657220616d6f756e7420657863656564732062604482015265616c616e636560d01b60648201526084016104db565b6001600160a01b03808516600090815260208190526040808220858503905591851681529081208054849290610a8d908490611083565b92505081905550826001600160a01b0316846001600160a01b03167fddf252ad1be2c89b69c2b068fc378daa952ba7f163c4a11628f55a4df523b3ef84604051610ad991815260200190565b60405180910390a3610912565b6001600160a01b038216610b3c5760405162461bcd60e51b815260206004820152601f60248201527f45524332303a206d696e7420746f20746865207a65726f20616464726573730060448201526064016104db565b8060026000828254610b4e9190611083565b90915550506001600160a01b03821660009081526020819052604081208054839290610b7b908490611083565b90915550506040518181526001600160a01b038316906000907fddf252ad1be2c89b69c2b068fc378daa952ba7f163c4a11628f55a4df523b3ef9060200160405180910390a35050565b6001600160a01b038216610c255760405162461bcd60e51b815260206004820152602160248201527f45524332303a206275726e2066726f6d20746865207a65726f206164647265736044820152607360f81b60648201526084016104db565b6001600160a01b03821660009081526020819052604090205481811015610c995760405162461bcd60e51b815260206004820152602260248201527f45524332303a206275726e20616d6f756e7420657863656564732062616c616e604482015261636560f01b60648201526084016104db565b6001600160a01b0383166000908152602081905260408120838303905560028054849290610cc8908490611106565b90915550506040518281526000906001600160a01b038516907fddf252ad1be2c89b69c2b068fc378daa952ba7f163c4a11628f55a4df523b3ef90602001610879565b6005546006546040516001600160a01b03928316929091169082907f8be0079c531659141344cd1fd0a4f28419497f9722a3daafe3b4186f6b6457e090600090a35060068054600580546001600160a01b03199081166001600160a01b03841617909155169055565b600580546001600160a01b038381166001600160a01b0319831681179093556040519116919082907f8be0079c531659141344cd1fd0a4f28419497f9722a3daafe3b4186f6b6457e090600090a35050565b6000815180845260005b81811015610dec57602081850181015186830182015201610dd0565b81811115610dfe576000602083870101525b50601f01601f19169290920160200192915050565b602081526000610e266020830184610dc6565b9392505050565b80356001600160a01b0381168114610e4457600080fd5b919050565b60008060408385031215610e5c57600080fd5b610e6583610e2d565b946020939093013593505050565b600080600060608486031215610e8857600080fd5b610e9184610e2d565b9250610e9f60208501610e2d565b9150604084013590509250925092565b600060208284031215610ec157600080fd5b5035919050565b600060208284031215610eda57600080fd5b610e2682610e2d565b60008060408385031215610ef657600080fd5b610eff83610e2d565b915060208301358015158114610f1457600080fd5b809150509250929050565b634e487b7160e01b600052604160045260246000fd5b600080600060608486031215610f4a57600080fd5b610f5384610e2d565b9250602084013567ffffffffffffffff80821115610f7057600080fd5b818601915086601f830112610f8457600080fd5b813581811115610f9657610f96610f1f565b604051601f8201601f19908116603f01168101908382118183101715610fbe57610fbe610f1f565b81604052828152896020848701011115610fd757600080fd5b826020860160208301376000602084830101528096505050505050604084013590509250925092565b6000806040838503121561101357600080fd5b61101c83610e2d565b915061102a60208401610e2d565b90509250929050565b600181811c9082168061104757607f821691505b60208210810361106757634e487b7160e01b600052602260045260246000fd5b50919050565b634e487b7160e01b600052601160045260246000fd5b600082198211156110965761109661106d565b500190565b6020808252601d908201527f536166654f776e61626c653a2063616c6c6572206e6f74206f776e6572000000604082015260600190565b6001600160a01b03841681526060602082018190526000906110f690830185610dc6565b9050826040830152949350505050565b6000828210156111185761111861106d565b50039056fea2646970667358221220800019f6c08dd9eedcbdd3bef63cbfcb062fe5332057f33c0a032a0d0df3ff4e64736f6c634300080f0033360894a13ba1a3210667c828492db98dca3e2076cc3735a920a3ca505d382bbc416464726573733a206c6f772d6c6576656c2064656c65676174652063616c6c206661696c6564a26469706673582212207c8530baef9b4256e93a657ca568fdcc8c2812e2e7f6caa0546cabe1a8f5cd0464736f6c634300080f0033",
  "devdoc": {
    "kind": "dev",
    "methods": {
      "claimOwnership()": {
        "details": "pending owner call this function to claim ownership"
      },
      "create(string,string,string,string,uint256,uint256)": {
        "details": "developer first create their game coin",
        "params": {
          "amountGameCoin": "how many coin first mint",
          "amountP12": "how many P12 coin developer would stake",
          "gameCoinIconUrl": "game coin icon's url",
          "gameId": "the game's id",
          "name": "new game coin's name",
          "symbol": "game coin's symbol"
        },
        "returns": {
          "gameCoinAddress": "the address of the new game coin"
        }
      },
      "executeMintCoin(address,bytes32)": {
        "details": "when time is up, anyone can call this function to make the mint executed",
        "params": {
          "gameCoinAddress": "address of the game coin",
          "mintId": "a unique id to identify a mint, developer can get it after declare"
        },
        "returns": {
          "_0": "bool whether the operation success"
        }
      },
      "getMintDelay(address,uint256)": {
        "details": "linear function to calculate the delay timedelayB is the minimum delay period, even someone mint zero token,there still be delayB period before someone can really mint zero tokendelayK is the parameter to take the ratio of new amount in to accountFor example, the initial supply of Game Coin is 100k. If developer wantto mint 100k, developer needs to real mint it after `delayK + delayB`. Ifdeveloper want to mint 200k, developer has to real mint it after `2DelayK +delayB`. ^ t +            / |          / |        / 2k+b|      / |    / k+b|  /  |/  b| 0----p---2p---------> amount"
      },
      "getMintFee(address,uint256)": {
        "details": "calculate the MintFee in P12"
      },
      "owner()": {
        "details": "Returns the address of the current owner."
      },
      "paused()": {
        "details": "Returns true if the contract is paused, and false otherwise."
      },
      "pendingOwner()": {
        "details": "Return the address of the pending owner"
      },
      "proxiableUUID()": {
        "details": "Implementation of the ERC1822 {proxiableUUID} function. This returns the storage slot used by the implementation. It is used to validate that the this implementation remains valid after an upgrade. IMPORTANT: A proxy pointing at a proxiable contract should not be considered proxiable itself, because this risks bricking a proxy that upgrades to it, by delegating to itself until out of gas. Thus it is critical that this function revert if invoked through a proxy. This is guaranteed by the `notDelegated` modifier."
      },
      "queueMintCoin(string,address,uint256)": {
        "details": "if developer want to mint after create coin, developer must declare first",
        "params": {
          "amountGameCoin": "how many developer want to mint",
          "gameCoinAddress": "game coin's address",
          "gameId": "game's id",
          "success": "whether the operation success"
        }
      },
      "register(string,address)": {
        "details": "create binding between game and developer, only called by p12 backend",
        "params": {
          "developer": "developer address, who own this game",
          "gameId": "game id"
        }
      },
      "renounceOwnership()": {
        "details": "Leaves the contract without owner. It will not be possible to call `onlyOwner` functions anymore. Can only be called by the current owner. NOTE: Renouncing ownership will leave the contract without an owner, thereby removing any functionality that is only available to the owner."
      },
      "setDelayB(uint256)": {
        "details": "set linear function's B parameter",
        "params": {
          "newDelayB": "new B parameter"
        }
      },
      "setDelayK(uint256)": {
        "details": "set linear function's K parameter",
        "params": {
          "newDelayK": "new K parameter"
        }
      },
      "setDev(address)": {
        "details": "set dev address",
        "params": {
          "newDev": "new dev address"
        }
      },
      "setGaugeController(address)": {
        "details": "set gaugeController contract address",
        "params": {
          "newGaugeController": "new gaugeController address"
        }
      },
      "setP12Mine(address)": {
        "details": "set p12mine contract address",
        "params": {
          "newP12Mine": "new p12mine address"
        }
      },
      "setP12Token(address)": {
        "details": "set p12Token address reserved only during development",
        "params": {
          "newP12Token": "new p12Token address"
        }
      },
      "setUniswapFactory(address)": {
        "details": "set uniswapFactory address reserved only during development",
        "params": {
          "newUniswapFactory": "new UniswapFactory address"
        }
      },
      "setUniswapRouter(address)": {
        "details": "set uniswapRouter address reserved only during development",
        "params": {
          "newUniswapRouter": "new uniswapRouter address"
        }
      },
      "transferOwnership(address,bool)": {
        "details": "Transfers ownership of the contract to a new account (`newOwner`). Can only be called by the current owner. Note If direct is false, it will set an pending owner and the OwnerShipTransferring only happens when the pending owner claim the ownership"
      },
      "upgradeTo(address)": {
        "details": "Upgrade the implementation of the proxy to `newImplementation`. Calls {_authorizeUpgrade}. Emits an {Upgraded} event."
      },
      "upgradeToAndCall(address,bytes)": {
        "details": "Upgrade the implementation of the proxy to `newImplementation`, and subsequently execute the function call encoded in `data`. Calls {_authorizeUpgrade}. Emits an {Upgraded} event."
      },
      "withdraw(address,address,uint256)": {
        "params": {
          "amountGameCoin": "how many user want to withdraw",
          "gameCoinAddress": "gameCoin's address",
          "userAddress": "user's address"
        }
      }
    },
    "version": 1
  },
  "userdoc": {
    "kind": "user",
    "methods": {
      "withdraw(address,address,uint256)": {
        "notice": "called when user want to withdraw his game coin from custodian address"
      }
    },
    "version": 1
  },
  "storageLayout": {
    "storage": [
      {
        "astId": 8313,
        "contract": "contracts/factory/P12CoinFactoryUpgradeable.sol:P12CoinFactoryUpgradeable",
        "label": "p12",
        "offset": 0,
        "slot": "0",
        "type": "t_address"
      },
      {
        "astId": 8317,
        "contract": "contracts/factory/P12CoinFactoryUpgradeable.sol:P12CoinFactoryUpgradeable",
        "label": "uniswapRouter",
        "offset": 0,
        "slot": "1",
        "type": "t_contract(IUniswapV2Router02)7253"
      },
      {
        "astId": 8321,
        "contract": "contracts/factory/P12CoinFactoryUpgradeable.sol:P12CoinFactoryUpgradeable",
        "label": "uniswapFactory",
        "offset": 0,
        "slot": "2",
        "type": "t_contract(IUniswapV2Factory)6615"
      },
      {
        "astId": 8324,
        "contract": "contracts/factory/P12CoinFactoryUpgradeable.sol:P12CoinFactoryUpgradeable",
        "label": "delayK",
        "offset": 0,
        "slot": "3",
        "type": "t_uint256"
      },
      {
        "astId": 8326,
        "contract": "contracts/factory/P12CoinFactoryUpgradeable.sol:P12CoinFactoryUpgradeable",
        "label": "delayB",
        "offset": 0,
        "slot": "4",
        "type": "t_uint256"
      },
      {
        "astId": 8329,
        "contract": "contracts/factory/P12CoinFactoryUpgradeable.sol:P12CoinFactoryUpgradeable",
        "label": "_initHash",
        "offset": 0,
        "slot": "5",
        "type": "t_bytes32"
      },
      {
        "astId": 8331,
        "contract": "contracts/factory/P12CoinFactoryUpgradeable.sol:P12CoinFactoryUpgradeable",
        "label": "addLiquidityEffectiveTime",
        "offset": 0,
        "slot": "6",
        "type": "t_uint256"
      },
      {
        "astId": 8335,
        "contract": "contracts/factory/P12CoinFactoryUpgradeable.sol:P12CoinFactoryUpgradeable",
        "label": "p12Mine",
        "offset": 0,
        "slot": "7",
        "type": "t_contract(IP12MineUpgradeable)16164"
      },
      {
        "astId": 8337,
        "contract": "contracts/factory/P12CoinFactoryUpgradeable.sol:P12CoinFactoryUpgradeable",
        "label": "dev",
        "offset": 0,
        "slot": "8",
        "type": "t_address"
      },
      {
        "astId": 8340,
        "contract": "contracts/factory/P12CoinFactoryUpgradeable.sol:P12CoinFactoryUpgradeable",
        "label": "gaugeController",
        "offset": 0,
        "slot": "9",
        "type": "t_contract(IGaugeController)15932"
      },
      {
        "astId": 8344,
        "contract": "contracts/factory/P12CoinFactoryUpgradeable.sol:P12CoinFactoryUpgradeable",
        "label": "__gap",
        "offset": 0,
        "slot": "10",
        "type": "t_array(t_uint256)40_storage"
      },
      {
        "astId": 8348,
        "contract": "contracts/factory/P12CoinFactoryUpgradeable.sol:P12CoinFactoryUpgradeable",
        "label": "allGames",
        "offset": 0,
        "slot": "50",
        "type": "t_mapping(t_string_memory_ptr,t_address)"
      },
      {
        "astId": 8353,
        "contract": "contracts/factory/P12CoinFactoryUpgradeable.sol:P12CoinFactoryUpgradeable",
        "label": "allGameCoins",
        "offset": 0,
        "slot": "51",
        "type": "t_mapping(t_contract(IP12GameCoin)9903,t_string_storage)"
      },
      {
        "astId": 8361,
        "contract": "contracts/factory/P12CoinFactoryUpgradeable.sol:P12CoinFactoryUpgradeable",
        "label": "coinMintRecords",
        "offset": 0,
        "slot": "52",
        "type": "t_mapping(t_contract(IP12GameCoin)9903,t_mapping(t_bytes32,t_struct(MintCoinInfo)8373_storage))"
      },
      {
        "astId": 8366,
        "contract": "contracts/factory/P12CoinFactoryUpgradeable.sol:P12CoinFactoryUpgradeable",
        "label": "preMintIds",
        "offset": 0,
        "slot": "53",
        "type": "t_mapping(t_contract(IP12GameCoin)9903,t_bytes32)"
      },
      {
        "astId": 395,
        "contract": "contracts/factory/P12CoinFactoryUpgradeable.sol:P12CoinFactoryUpgradeable",
        "label": "_initialized",
        "offset": 0,
        "slot": "54",
        "type": "t_bool"
      },
      {
        "astId": 398,
        "contract": "contracts/factory/P12CoinFactoryUpgradeable.sol:P12CoinFactoryUpgradeable",
        "label": "_initializing",
        "offset": 1,
        "slot": "54",
        "type": "t_bool"
      },
      {
        "astId": 377,
        "contract": "contracts/factory/P12CoinFactoryUpgradeable.sol:P12CoinFactoryUpgradeable",
        "label": "__gap",
        "offset": 0,
        "slot": "55",
        "type": "t_array(t_uint256)50_storage"
      },
      {
        "astId": 597,
        "contract": "contracts/factory/P12CoinFactoryUpgradeable.sol:P12CoinFactoryUpgradeable",
        "label": "__gap",
        "offset": 0,
        "slot": "105",
        "type": "t_array(t_uint256)50_storage"
      },
      {
        "astId": 1354,
        "contract": "contracts/factory/P12CoinFactoryUpgradeable.sol:P12CoinFactoryUpgradeable",
        "label": "__gap",
        "offset": 0,
        "slot": "155",
        "type": "t_array(t_uint256)50_storage"
      },
      {
        "astId": 7440,
        "contract": "contracts/factory/P12CoinFactoryUpgradeable.sol:P12CoinFactoryUpgradeable",
        "label": "_owner",
        "offset": 0,
        "slot": "205",
        "type": "t_address"
      },
      {
        "astId": 7442,
        "contract": "contracts/factory/P12CoinFactoryUpgradeable.sol:P12CoinFactoryUpgradeable",
        "label": "_pendingOwner",
        "offset": 0,
        "slot": "206",
        "type": "t_address"
      },
      {
        "astId": 7625,
        "contract": "contracts/factory/P12CoinFactoryUpgradeable.sol:P12CoinFactoryUpgradeable",
        "label": "__gap",
        "offset": 0,
        "slot": "207",
        "type": "t_array(t_uint256)48_storage"
      },
      {
        "astId": 723,
        "contract": "contracts/factory/P12CoinFactoryUpgradeable.sol:P12CoinFactoryUpgradeable",
        "label": "_status",
        "offset": 0,
        "slot": "255",
        "type": "t_uint256"
      },
      {
        "astId": 767,
        "contract": "contracts/factory/P12CoinFactoryUpgradeable.sol:P12CoinFactoryUpgradeable",
        "label": "__gap",
        "offset": 0,
        "slot": "256",
        "type": "t_array(t_uint256)49_storage"
      },
      {
        "astId": 619,
        "contract": "contracts/factory/P12CoinFactoryUpgradeable.sol:P12CoinFactoryUpgradeable",
        "label": "_paused",
        "offset": 0,
        "slot": "305",
        "type": "t_bool"
      },
      {
        "astId": 708,
        "contract": "contracts/factory/P12CoinFactoryUpgradeable.sol:P12CoinFactoryUpgradeable",
        "label": "__gap",
        "offset": 0,
        "slot": "306",
        "type": "t_array(t_uint256)49_storage"
      }
    ],
    "types": {
      "t_address": {
        "encoding": "inplace",
        "label": "address",
        "numberOfBytes": "20"
      },
      "t_array(t_uint256)40_storage": {
        "base": "t_uint256",
        "encoding": "inplace",
        "label": "uint256[40]",
        "numberOfBytes": "1280"
      },
      "t_array(t_uint256)48_storage": {
        "base": "t_uint256",
        "encoding": "inplace",
        "label": "uint256[48]",
        "numberOfBytes": "1536"
      },
      "t_array(t_uint256)49_storage": {
        "base": "t_uint256",
        "encoding": "inplace",
        "label": "uint256[49]",
        "numberOfBytes": "1568"
      },
      "t_array(t_uint256)50_storage": {
        "base": "t_uint256",
        "encoding": "inplace",
        "label": "uint256[50]",
        "numberOfBytes": "1600"
      },
      "t_bool": {
        "encoding": "inplace",
        "label": "bool",
        "numberOfBytes": "1"
      },
      "t_bytes32": {
        "encoding": "inplace",
        "label": "bytes32",
        "numberOfBytes": "32"
      },
      "t_contract(IGaugeController)15932": {
        "encoding": "inplace",
        "label": "contract IGaugeController",
        "numberOfBytes": "20"
      },
      "t_contract(IP12GameCoin)9903": {
        "encoding": "inplace",
        "label": "contract IP12GameCoin",
        "numberOfBytes": "20"
      },
      "t_contract(IP12MineUpgradeable)16164": {
        "encoding": "inplace",
        "label": "contract IP12MineUpgradeable",
        "numberOfBytes": "20"
      },
      "t_contract(IUniswapV2Factory)6615": {
        "encoding": "inplace",
        "label": "contract IUniswapV2Factory",
        "numberOfBytes": "20"
      },
      "t_contract(IUniswapV2Router02)7253": {
        "encoding": "inplace",
        "label": "contract IUniswapV2Router02",
        "numberOfBytes": "20"
      },
      "t_mapping(t_bytes32,t_struct(MintCoinInfo)8373_storage)": {
        "encoding": "mapping",
        "key": "t_bytes32",
        "label": "mapping(bytes32 => struct P12CoinFactoryStorage.MintCoinInfo)",
        "numberOfBytes": "32",
        "value": "t_struct(MintCoinInfo)8373_storage"
      },
      "t_mapping(t_contract(IP12GameCoin)9903,t_bytes32)": {
        "encoding": "mapping",
        "key": "t_contract(IP12GameCoin)9903",
        "label": "mapping(contract IP12GameCoin => bytes32)",
        "numberOfBytes": "32",
        "value": "t_bytes32"
      },
      "t_mapping(t_contract(IP12GameCoin)9903,t_mapping(t_bytes32,t_struct(MintCoinInfo)8373_storage))": {
        "encoding": "mapping",
        "key": "t_contract(IP12GameCoin)9903",
        "label": "mapping(contract IP12GameCoin => mapping(bytes32 => struct P12CoinFactoryStorage.MintCoinInfo))",
        "numberOfBytes": "32",
        "value": "t_mapping(t_bytes32,t_struct(MintCoinInfo)8373_storage)"
      },
      "t_mapping(t_contract(IP12GameCoin)9903,t_string_storage)": {
        "encoding": "mapping",
        "key": "t_contract(IP12GameCoin)9903",
        "label": "mapping(contract IP12GameCoin => string)",
        "numberOfBytes": "32",
        "value": "t_string_storage"
      },
      "t_mapping(t_string_memory_ptr,t_address)": {
        "encoding": "mapping",
        "key": "t_string_memory_ptr",
        "label": "mapping(string => address)",
        "numberOfBytes": "32",
        "value": "t_address"
      },
      "t_string_memory_ptr": {
        "encoding": "bytes",
        "label": "string",
        "numberOfBytes": "32"
      },
      "t_string_storage": {
        "encoding": "bytes",
        "label": "string",
        "numberOfBytes": "32"
      },
      "t_struct(MintCoinInfo)8373_storage": {
        "encoding": "inplace",
        "label": "struct P12CoinFactoryStorage.MintCoinInfo",
        "members": [
          {
            "astId": 8368,
            "contract": "contracts/factory/P12CoinFactoryUpgradeable.sol:P12CoinFactoryUpgradeable",
            "label": "amount",
            "offset": 0,
            "slot": "0",
            "type": "t_uint256"
          },
          {
            "astId": 8370,
            "contract": "contracts/factory/P12CoinFactoryUpgradeable.sol:P12CoinFactoryUpgradeable",
            "label": "unlockTimestamp",
            "offset": 0,
            "slot": "1",
            "type": "t_uint256"
          },
          {
            "astId": 8372,
            "contract": "contracts/factory/P12CoinFactoryUpgradeable.sol:P12CoinFactoryUpgradeable",
            "label": "executed",
            "offset": 0,
            "slot": "2",
            "type": "t_bool"
          }
        ],
        "numberOfBytes": "96"
      },
      "t_uint256": {
        "encoding": "inplace",
        "label": "uint256",
        "numberOfBytes": "32"
      }
    }
  }
}