{
  "address": "0xFf225Dde0d32b6CA68aCDc1f18bCd620DEcF95F6",
  "abi": [
    {
      "anonymous": false,
      "inputs": [
        {
          "indexed": false,
          "internalType": "address",
          "name": "previousAdmin",
          "type": "address"
        },
        {
          "indexed": false,
          "internalType": "address",
          "name": "newAdmin",
          "type": "address"
        }
      ],
      "name": "AdminChanged",
      "type": "event"
    },
    {
      "anonymous": false,
      "inputs": [
        {
          "indexed": true,
          "internalType": "address",
          "name": "beacon",
          "type": "address"
        }
      ],
      "name": "BeaconUpgraded",
      "type": "event"
    },
    {
      "anonymous": false,
      "inputs": [
        {
          "indexed": true,
          "internalType": "address",
          "name": "collection",
          "type": "address"
        },
        {
          "indexed": true,
          "internalType": "address",
          "name": "developer",
          "type": "address"
        }
      ],
      "name": "CollectionCreated",
      "type": "event"
    },
    {
      "anonymous": false,
      "inputs": [
        {
          "indexed": false,
          "internalType": "uint8",
          "name": "version",
          "type": "uint8"
        }
      ],
      "name": "Initialized",
      "type": "event"
    },
    {
      "anonymous": false,
      "inputs": [
        {
          "indexed": true,
          "internalType": "address",
          "name": "previousOwner",
          "type": "address"
        },
        {
          "indexed": true,
          "internalType": "address",
          "name": "newOwner",
          "type": "address"
        }
      ],
      "name": "OwnershipTransferred",
      "type": "event"
    },
    {
      "anonymous": false,
      "inputs": [
        {
          "indexed": false,
          "internalType": "address",
          "name": "account",
          "type": "address"
        }
      ],
      "name": "Paused",
      "type": "event"
    },
    {
      "anonymous": false,
      "inputs": [
        {
          "indexed": false,
          "internalType": "address",
          "name": "oldP12Factory",
          "type": "address"
        },
        {
          "indexed": false,
          "internalType": "address",
          "name": "newP12Factory",
          "type": "address"
        }
      ],
      "name": "SetP12Factory",
      "type": "event"
    },
    {
      "anonymous": false,
      "inputs": [
        {
          "indexed": true,
          "internalType": "address",
          "name": "collection",
          "type": "address"
        },
        {
          "indexed": true,
          "internalType": "uint256",
          "name": "tokenId",
          "type": "uint256"
        },
        {
          "indexed": false,
          "internalType": "uint256",
          "name": "amount",
          "type": "uint256"
        }
      ],
      "name": "SftCreated",
      "type": "event"
    },
    {
      "anonymous": false,
      "inputs": [
        {
          "indexed": false,
          "internalType": "address",
          "name": "account",
          "type": "address"
        }
      ],
      "name": "Unpaused",
      "type": "event"
    },
    {
      "anonymous": false,
      "inputs": [
        {
          "indexed": true,
          "internalType": "address",
          "name": "implementation",
          "type": "address"
        }
      ],
      "name": "Upgraded",
      "type": "event"
    },
    {
      "inputs": [],
      "name": "claimOwnership",
      "outputs": [],
      "stateMutability": "nonpayable",
      "type": "function"
    },
    {
      "inputs": [
        {
          "internalType": "address",
          "name": "collection",
          "type": "address"
        },
        {
          "internalType": "uint256",
          "name": "amount",
          "type": "uint256"
        },
        {
          "internalType": "string",
          "name": "uri",
          "type": "string"
        }
      ],
      "name": "createAssetAndMint",
      "outputs": [],
      "stateMutability": "nonpayable",
      "type": "function"
    },
    {
      "inputs": [
        {
          "internalType": "string",
          "name": "gameId",
          "type": "string"
        },
        {
          "internalType": "string",
          "name": "contractURI",
          "type": "string"
        }
      ],
      "name": "createCollection",
      "outputs": [],
      "stateMutability": "nonpayable",
      "type": "function"
    },
    {
      "inputs": [
        {
          "internalType": "address",
          "name": "p12CoinFactory_",
          "type": "address"
        }
      ],
      "name": "initialize",
      "outputs": [],
      "stateMutability": "nonpayable",
      "type": "function"
    },
    {
      "inputs": [],
      "name": "owner",
      "outputs": [
        {
          "internalType": "address",
          "name": "",
          "type": "address"
        }
      ],
      "stateMutability": "view",
      "type": "function"
    },
    {
      "inputs": [],
      "name": "p12CoinFactory",
      "outputs": [
        {
          "internalType": "address",
          "name": "",
          "type": "address"
        }
      ],
      "stateMutability": "view",
      "type": "function"
    },
    {
      "inputs": [],
      "name": "pause",
      "outputs": [],
      "stateMutability": "nonpayable",
      "type": "function"
    },
    {
      "inputs": [],
      "name": "paused",
      "outputs": [
        {
          "internalType": "bool",
          "name": "",
          "type": "bool"
        }
      ],
      "stateMutability": "view",
      "type": "function"
    },
    {
      "inputs": [],
      "name": "pendingOwner",
      "outputs": [
        {
          "internalType": "address",
          "name": "",
          "type": "address"
        }
      ],
      "stateMutability": "view",
      "type": "function"
    },
    {
      "inputs": [],
      "name": "proxiableUUID",
      "outputs": [
        {
          "internalType": "bytes32",
          "name": "",
          "type": "bytes32"
        }
      ],
      "stateMutability": "view",
      "type": "function"
    },
    {
      "inputs": [
        {
          "internalType": "address",
          "name": "",
          "type": "address"
        }
      ],
      "name": "registry",
      "outputs": [
        {
          "internalType": "string",
          "name": "",
          "type": "string"
        }
      ],
      "stateMutability": "view",
      "type": "function"
    },
    {
      "inputs": [],
      "name": "renounceOwnership",
      "outputs": [],
      "stateMutability": "nonpayable",
      "type": "function"
    },
    {
      "inputs": [
        {
          "internalType": "address",
          "name": "newP12CoinFactory",
          "type": "address"
        }
      ],
      "name": "setP12CoinFactory",
      "outputs": [],
      "stateMutability": "nonpayable",
      "type": "function"
    },
    {
      "inputs": [
        {
          "internalType": "address",
          "name": "newOwner",
          "type": "address"
        },
        {
          "internalType": "bool",
          "name": "direct",
          "type": "bool"
        }
      ],
      "name": "transferOwnership",
      "outputs": [],
      "stateMutability": "nonpayable",
      "type": "function"
    },
    {
      "inputs": [],
      "name": "unpause",
      "outputs": [],
      "stateMutability": "nonpayable",
      "type": "function"
    },
    {
      "inputs": [
        {
          "internalType": "address",
          "name": "collection",
          "type": "address"
        },
        {
          "internalType": "string",
          "name": "newUri",
          "type": "string"
        }
      ],
      "name": "updateCollectionUri",
      "outputs": [],
      "stateMutability": "nonpayable",
      "type": "function"
    },
    {
      "inputs": [
        {
          "internalType": "address",
          "name": "collection",
          "type": "address"
        },
        {
          "internalType": "uint256",
          "name": "tokenId",
          "type": "uint256"
        },
        {
          "internalType": "string",
          "name": "newUri",
          "type": "string"
        }
      ],
      "name": "updateSftUri",
      "outputs": [],
      "stateMutability": "nonpayable",
      "type": "function"
    },
    {
      "inputs": [
        {
          "internalType": "address",
          "name": "newImplementation",
          "type": "address"
        }
      ],
      "name": "upgradeTo",
      "outputs": [],
      "stateMutability": "nonpayable",
      "type": "function"
    },
    {
      "inputs": [
        {
          "internalType": "address",
          "name": "newImplementation",
          "type": "address"
        },
        {
          "internalType": "bytes",
          "name": "data",
          "type": "bytes"
        }
      ],
      "name": "upgradeToAndCall",
      "outputs": [],
      "stateMutability": "payable",
      "type": "function"
    }
  ],
  "transactionHash": "0x15827a4babdeb66721bcac13a137d4d3df925abc712986397b5074a3d6fa1a13",
  "args": [],
  "numDeployments": 2,
  "solcInputHash": "6aef8f9d42a3b042afb2ed63b1591069",
  "bytecode": "0x60a06040523060805234801561001457600080fd5b506080516143f861004c6000396000818161060f01528181610652015281816109e801528181610a2b0152610ac701526143f86000f3fe6080604052600436106200012b5760003560e01c806352d1902d11620000ad5780638da5cb5b116200006c5780638da5cb5b1462000326578063b242e5341462000346578063c4d66de8146200036b578063d5bc3ab11462000390578063e30c397814620003b557600080fd5b806352d1902d14620002855780635c975abb14620002ac578063715018a614620002d15780637e183ba014620002e95780638456cb59146200030e57600080fd5b80633f4ba83a11620000fa5780633f4ba83a14620001f4578063408a908f146200020c578063422cf3fe14620002315780634e71e0c814620002565780634f1ef286146200026e57600080fd5b8063038defd71462000130578063176b9b75146200016d5780633659cfe614620001945780633cd784f114620001b9575b600080fd5b3480156200013d57600080fd5b50620001556200014f366004620017dd565b620003d5565b6040516200016491906200185a565b60405180910390f35b3480156200017a57600080fd5b50620001926200018c366004620018bb565b62000477565b005b348015620001a157600080fd5b5062000192620001b3366004620017dd565b62000605565b348015620001c657600080fd5b50600154620001db906001600160a01b031681565b6040516001600160a01b03909116815260200162000164565b3480156200020157600080fd5b5062000192620006f0565b3480156200021957600080fd5b50620001926200022b3660046200192e565b62000729565b3480156200023e57600080fd5b50620001926200025036600462001984565b62000852565b3480156200026357600080fd5b506200019262000978565b620001926200027f366004620019f5565b620009de565b3480156200029257600080fd5b506200029d62000aba565b60405190815260200162000164565b348015620002b957600080fd5b5060fc5460ff16604051901515815260200162000164565b348015620002de57600080fd5b506200019262000b70565b348015620002f657600080fd5b506200019262000308366004620017dd565b62000ba9565b3480156200031b57600080fd5b506200019262000c66565b3480156200033357600080fd5b5060ca546001600160a01b0316620001db565b3480156200035357600080fd5b50620001926200036536600462001ac5565b62000c9d565b3480156200037857600080fd5b50620001926200038a366004620017dd565b62000d53565b3480156200039d57600080fd5b5062000192620003af3660046200192e565b62000ebf565b348015620003c257600080fd5b5060cb546001600160a01b0316620001db565b60006020819052908152604090208054620003f09062001b07565b80601f01602080910402602001604051908101604052809291908181526020018280546200041e9062001b07565b80156200046f5780601f1062000443576101008083540402835291602001916200046f565b820191906000526020600020905b8154815290600101906020018083116200045157829003601f168201915b505050505081565b83838080601f0160208091040260200160405190810160405280939291908181526020018383808284376000920191909152505060015460405163cad2efad60e01b81523393506001600160a01b03909116915063cad2efad90620004e19085906004016200185a565b602060405180830381865afa158015620004ff573d6000803e3d6000fd5b505050506040513d601f19601f8201168201806040525081019062000525919062001b43565b6001600160a01b031614620005575760405162461bcd60e51b81526004016200054e9062001b63565b60405180910390fd5b6200056162001119565b600083836040516200057390620017b9565b6200058092919062001bc3565b604051809103906000f0801580156200059d573d6000803e3d6000fd5b506001600160a01b0381166000908152602081905260409020909150620005c686888362001c33565b5060405133906001600160a01b038316907f5d0de243db1669e3a7056744cd715c625f0c1c348736c2c2d53d0ddebff1a6c790600090a3505050505050565b6001600160a01b037f0000000000000000000000000000000000000000000000000000000000000000163003620006505760405162461bcd60e51b81526004016200054e9062001d01565b7f00000000000000000000000000000000000000000000000000000000000000006001600160a01b03166200069b6000805160206200437c833981519152546001600160a01b031690565b6001600160a01b031614620006c45760405162461bcd60e51b81526004016200054e9062001d4d565b620006cf8162001161565b60408051600080825260208201909252620006ed918391906200118e565b50565b60ca546001600160a01b031633146200071d5760405162461bcd60e51b81526004016200054e9062001d99565b620007276200130b565b565b6001546001600160a01b0380861660009081526020819052604090819020905163cad2efad60e01b815287933393169163cad2efad916200076e919060040162001dd0565b602060405180830381865afa1580156200078c573d6000803e3d6000fd5b505050506040513d601f19601f82011682018060405250810190620007b2919062001b43565b6001600160a01b031614620007db5760405162461bcd60e51b81526004016200054e9062001b63565b620007e562001119565b604051633c17845760e11b81526001600160a01b0386169063782f08ae90620008179087908790879060040162001e63565b600060405180830381600087803b1580156200083257600080fd5b505af115801562000847573d6000803e3d6000fd5b505050505050505050565b6001546001600160a01b0380851660009081526020819052604090819020905163cad2efad60e01b815286933393169163cad2efad9162000897919060040162001dd0565b602060405180830381865afa158015620008b5573d6000803e3d6000fd5b505050506040513d601f19601f82011682018060405250810190620008db919062001b43565b6001600160a01b031614620009045760405162461bcd60e51b81526004016200054e9062001b63565b6200090e62001119565b60405163938e3d7b60e01b81526001600160a01b0385169063938e3d7b906200093e908690869060040162001bc3565b600060405180830381600087803b1580156200095957600080fd5b505af11580156200096e573d6000803e3d6000fd5b5050505050505050565b60cb546001600160a01b03163314620009d45760405162461bcd60e51b815260206004820152601e60248201527f536166654f776e61626c653a2063616c6c657220213d2070656e64696e67000060448201526064016200054e565b620007276200135f565b6001600160a01b037f000000000000000000000000000000000000000000000000000000000000000016300362000a295760405162461bcd60e51b81526004016200054e9062001d01565b7f00000000000000000000000000000000000000000000000000000000000000006001600160a01b031662000a746000805160206200437c833981519152546001600160a01b031690565b6001600160a01b03161462000a9d5760405162461bcd60e51b81526004016200054e9062001d4d565b62000aa88262001161565b62000ab6828260016200118e565b5050565b6000306001600160a01b037f0000000000000000000000000000000000000000000000000000000000000000161462000b5c5760405162461bcd60e51b815260206004820152603860248201527f555550535570677261646561626c653a206d757374206e6f742062652063616c60448201527f6c6564207468726f7567682064656c656761746563616c6c000000000000000060648201526084016200054e565b506000805160206200437c83398151915290565b60ca546001600160a01b0316331462000b9d5760405162461bcd60e51b81526004016200054e9062001d99565b620007276000620013c8565b60ca546001600160a01b0316331462000bd65760405162461bcd60e51b81526004016200054e9062001d99565b6001546001600160a01b0390811690821662000c065760405162461bcd60e51b81526004016200054e9062001e7f565b600180546001600160a01b0319166001600160a01b0384811691821790925560408051928416835260208301919091527fb5004c6dd32173c6ee128faa447de600665c96ba213f764d94599ca5ceda78b191015b60405180910390a15050565b60ca546001600160a01b0316331462000c935760405162461bcd60e51b81526004016200054e9062001d99565b620007276200143e565b60ca546001600160a01b0316331462000cca5760405162461bcd60e51b81526004016200054e9062001d99565b6001600160a01b03821662000d225760405162461bcd60e51b815260206004820152601b60248201527f536166654f776e61626c653a206e6577206f776e65722069732030000000000060448201526064016200054e565b801562000d345762000ab682620013c8565b60cb80546001600160a01b0319166001600160a01b0384161790555050565b603354610100900460ff161580801562000d745750603354600160ff909116105b8062000d905750303b15801562000d90575060335460ff166001145b62000df55760405162461bcd60e51b815260206004820152602e60248201527f496e697469616c697a61626c653a20636f6e747261637420697320616c72656160448201526d191e481a5b9a5d1a585b1a5e995960921b60648201526084016200054e565b6033805460ff19166001179055801562000e19576033805461ff0019166101001790555b6001600160a01b03821662000e425760405162461bcd60e51b81526004016200054e9062001e7f565b600180546001600160a01b0319166001600160a01b03841617905562000e676200147e565b62000e71620014af565b62000e7b620014e5565b801562000ab6576033805461ff0019169055604051600181527f7f26b83ff96e1f2b6a682f133852f6798a09c465da95921460cefb38474024989060200162000c5a565b6001546001600160a01b0380861660009081526020819052604090819020905163cad2efad60e01b815287933393169163cad2efad9162000f04919060040162001dd0565b602060405180830381865afa15801562000f22573d6000803e3d6000fd5b505050506040513d601f19601f8201168201806040525081019062000f48919062001b43565b6001600160a01b03161462000f715760405162461bcd60e51b81526004016200054e9062001b63565b62000f7b62001119565b60026034540362000fcf5760405162461bcd60e51b815260206004820152601f60248201527f5265656e7472616e637947756172643a207265656e7472616e742063616c6c0060448201526064016200054e565b6002603455604051630118fa4960e01b81526000906001600160a01b03871690630118fa4990620010099088908890889060040162001e63565b6020604051808303816000875af115801562001029573d6000803e3d6000fd5b505050506040513d601f19601f820116820180604052508101906200104f919062001ec4565b6040805160008152602081019182905263731133e960e01b9091529091506001600160a01b0387169063731133e9906200109390339085908a906024810162001ede565b600060405180830381600087803b158015620010ae57600080fd5b505af1158015620010c3573d6000803e3d6000fd5b5050505080866001600160a01b03167f58be1f766b329e9aa34f854f3b08451e86df3ddc1043743469ed3fa3205984db876040516200110491815260200190565b60405180910390a35050600160345550505050565b60fc5460ff1615620007275760405162461bcd60e51b815260206004820152601060248201526f14185d5cd8589b194e881c185d5cd95960821b60448201526064016200054e565b60ca546001600160a01b03163314620006ed5760405162461bcd60e51b81526004016200054e9062001d99565b7f4910fdfa16fed3260ed0e7147f7cc6da11a60208b5b9406d12a635614ffd91435460ff1615620011c957620011c4836200151a565b505050565b826001600160a01b03166352d1902d6040518163ffffffff1660e01b8152600401602060405180830381865afa92505050801562001226575060408051601f3d908101601f19168201909252620012239181019062001ec4565b60015b6200128b5760405162461bcd60e51b815260206004820152602e60248201527f45524331393637557067726164653a206e657720696d706c656d656e7461746960448201526d6f6e206973206e6f74205555505360901b60648201526084016200054e565b6000805160206200437c8339815191528114620012fd5760405162461bcd60e51b815260206004820152602960248201527f45524331393637557067726164653a20756e737570706f727465642070726f786044820152681a58589b195555525160ba1b60648201526084016200054e565b50620011c4838383620015b9565b62001315620015ea565b60fc805460ff191690557f5db9ee0a495bf2e6ff9c91a7834c1ba4fdd244a5e8aa4e537bd38aeae4b073aa335b6040516001600160a01b03909116815260200160405180910390a1565b60ca5460cb546040516001600160a01b03928316929091169082907f8be0079c531659141344cd1fd0a4f28419497f9722a3daafe3b4186f6b6457e090600090a35060cb805460ca80546001600160a01b03199081166001600160a01b03841617909155169055565b7fb53127684a568b3173ae13b9f8a6016e243e63b6e8ee1178d6a717850b5d610381905560ca80546001600160a01b038084166001600160a01b0319831681179093556040519116919082907f8be0079c531659141344cd1fd0a4f28419497f9722a3daafe3b4186f6b6457e090600090a35050565b6200144862001119565b60fc805460ff191660011790557f62e78cea01bee320cd4e420270b5ea74000d11b0c9f74754ebdbfc544b05a258620013423390565b603354610100900460ff16620014a85760405162461bcd60e51b81526004016200054e9062001f17565b6001603455565b603354610100900460ff16620014d95760405162461bcd60e51b81526004016200054e9062001f17565b60fc805460ff19169055565b603354610100900460ff166200150f5760405162461bcd60e51b81526004016200054e9062001f17565b6200072733620013c8565b6001600160a01b0381163b620015895760405162461bcd60e51b815260206004820152602d60248201527f455243313936373a206e657720696d706c656d656e746174696f6e206973206e60448201526c1bdd08184818dbdb9d1c9858dd609a1b60648201526084016200054e565b6000805160206200437c83398151915280546001600160a01b0319166001600160a01b0392909216919091179055565b620015c48362001635565b600082511180620015d25750805b15620011c457620015e4838362001677565b50505050565b60fc5460ff16620007275760405162461bcd60e51b815260206004820152601460248201527314185d5cd8589b194e881b9bdd081c185d5cd95960621b60448201526064016200054e565b62001640816200151a565b6040516001600160a01b038216907fbc7cd75a20ee27fd9adebab32041f755214dbc6bffa90cc0225b39da2e5c2d3b90600090a250565b60606001600160a01b0383163b620016e15760405162461bcd60e51b815260206004820152602660248201527f416464726573733a2064656c65676174652063616c6c20746f206e6f6e2d636f6044820152651b9d1c9858dd60d21b60648201526084016200054e565b600080846001600160a01b031684604051620016fe919062001f62565b600060405180830381855af49150503d80600081146200173b576040519150601f19603f3d011682016040523d82523d6000602084013e62001740565b606091505b50915091506200176b82826040518060600160405280602781526020016200439c6027913962001774565b95945050505050565b6060831562001785575081620017b2565b825115620017965782518084602001fd5b8160405162461bcd60e51b81526004016200054e91906200185a565b9392505050565b6123fb8062001f8183390190565b6001600160a01b0381168114620006ed57600080fd5b600060208284031215620017f057600080fd5b8135620017b281620017c7565b60005b838110156200181a57818101518382015260200162001800565b83811115620015e45750506000910152565b6000815180845262001846816020860160208601620017fd565b601f01601f19169290920160200192915050565b602081526000620017b260208301846200182c565b60008083601f8401126200188257600080fd5b50813567ffffffffffffffff8111156200189b57600080fd5b602083019150836020828501011115620018b457600080fd5b9250929050565b60008060008060408587031215620018d257600080fd5b843567ffffffffffffffff80821115620018eb57600080fd5b620018f9888389016200186f565b909650945060208701359150808211156200191357600080fd5b5062001922878288016200186f565b95989497509550505050565b600080600080606085870312156200194557600080fd5b84356200195281620017c7565b935060208501359250604085013567ffffffffffffffff8111156200197657600080fd5b62001922878288016200186f565b6000806000604084860312156200199a57600080fd5b8335620019a781620017c7565b9250602084013567ffffffffffffffff811115620019c457600080fd5b620019d2868287016200186f565b9497909650939450505050565b634e487b7160e01b600052604160045260246000fd5b6000806040838503121562001a0957600080fd5b823562001a1681620017c7565b9150602083013567ffffffffffffffff8082111562001a3457600080fd5b818501915085601f83011262001a4957600080fd5b81358181111562001a5e5762001a5e620019df565b604051601f8201601f19908116603f0116810190838211818310171562001a895762001a89620019df565b8160405282815288602084870101111562001aa357600080fd5b8260208601602083013760006020848301015280955050505050509250929050565b6000806040838503121562001ad957600080fd5b823562001ae681620017c7565b91506020830135801515811462001afc57600080fd5b809150509250929050565b600181811c9082168062001b1c57607f821691505b60208210810362001b3d57634e487b7160e01b600052602260045260246000fd5b50919050565b60006020828403121562001b5657600080fd5b8151620017b281620017c7565b6020808252601d908201527f5031324173736574463a206e6f742067616d6520646576656c6f706572000000604082015260600190565b81835281816020850137506000828201602090810191909152601f909101601f19169091010190565b60208152600062001bd960208301848662001b9a565b949350505050565b601f821115620011c457600081815260208120601f850160051c8101602086101562001c0a5750805b601f850160051c820191505b8181101562001c2b5782815560010162001c16565b505050505050565b67ffffffffffffffff83111562001c4e5762001c4e620019df565b62001c668362001c5f835462001b07565b8362001be1565b6000601f84116001811462001c9d576000851562001c845750838201355b600019600387901b1c1916600186901b17835562001cfa565b600083815260209020601f19861690835b8281101562001cd0578685013582556020948501946001909201910162001cae565b508682101562001cee5760001960f88860031b161c19848701351681555b505060018560011b0183555b5050505050565b6020808252602c908201527f46756e6374696f6e206d7573742062652063616c6c6564207468726f7567682060408201526b19195b1959d85d1958d85b1b60a21b606082015260800190565b6020808252602c908201527f46756e6374696f6e206d7573742062652063616c6c6564207468726f7567682060408201526b6163746976652070726f787960a01b606082015260800190565b6020808252601d908201527f536166654f776e61626c653a2063616c6c6572206e6f74206f776e6572000000604082015260600190565b600060208083526000845462001de68162001b07565b8084870152604060018084166000811462001e0a576001811462001e255762001e55565b60ff1985168984015283151560051b89018301955062001e55565b896000528660002060005b8581101562001e4d5781548b820186015290830190880162001e30565b8a0184019650505b509398975050505050505050565b8381526040602082015260006200176b60408301848662001b9a565b60208082526025908201527f5031324173736574463a20703132436f696e466163746f72792063616e6e6f74604082015264020626520360dc1b606082015260800190565b60006020828403121562001ed757600080fd5b5051919050565b60018060a01b038516815283602082015282604082015260806060820152600062001f0d60808301846200182c565b9695505050505050565b6020808252602b908201527f496e697469616c697a61626c653a20636f6e7472616374206973206e6f74206960408201526a6e697469616c697a696e6760a81b606082015260800190565b6000825162001f76818460208701620017fd565b919091019291505056fe608060405260006008553480156200001657600080fd5b50604051620023fb380380620023fb833981016040819052620000399162000145565b6040805160208101909152600081526200005381620000cb565b506200005f33620000dd565b8051600003620000b55760405162461bcd60e51b815260206004820152601b60248201527f50313241737365743a20656d70747920636f6e74726163745552490000000000604482015260640160405180910390fd5b6005620000c38282620002b0565b50506200037c565b6002620000d98282620002b0565b5050565b600380546001600160a01b038381166001600160a01b0319831681179093556040519116919082907f8be0079c531659141344cd1fd0a4f28419497f9722a3daafe3b4186f6b6457e090600090a35050565b634e487b7160e01b600052604160045260246000fd5b600060208083850312156200015957600080fd5b82516001600160401b03808211156200017157600080fd5b818501915085601f8301126200018657600080fd5b8151818111156200019b576200019b6200012f565b604051601f8201601f19908116603f01168101908382118183101715620001c657620001c66200012f565b816040528281528886848701011115620001df57600080fd5b600093505b82841015620002035784840186015181850187015292850192620001e4565b82841115620002155760008684830101525b98975050505050505050565b600181811c908216806200023657607f821691505b6020821081036200025757634e487b7160e01b600052602260045260246000fd5b50919050565b601f821115620002ab57600081815260208120601f850160051c81016020861015620002865750805b601f850160051c820191505b81811015620002a75782815560010162000292565b5050505b505050565b81516001600160401b03811115620002cc57620002cc6200012f565b620002e481620002dd845462000221565b846200025d565b602080601f8311600181146200031c5760008415620003035750858301515b600019600386901b1c1916600185901b178555620002a7565b600085815260208120601f198616915b828110156200034d578886015182559484019460019091019084016200032c565b50858210156200036c5787850151600019600388901b60f8161c191681555b5050505050600190811b01905550565b61206f806200038c6000396000f3fe608060405234801561001057600080fd5b506004361061012b5760003560e01c8063782f08ae116100ad578063b242e53411610071578063b242e534146102a2578063e30c3978146102b5578063e8a3d485146102c6578063e985e9c5146102ce578063f242432a1461030a57600080fd5b8063782f08ae14610224578063869f7594146102375780638da5cb5b14610257578063938e3d7b1461027c578063a22cb4651461028f57600080fd5b806335403023116100f457806335403023146101c15780634e1273f4146101e15780634e71e0c814610201578063715018a614610209578063731133e91461021157600080fd5b8062fdd58e146101305780630118fa491461015657806301ffc9a7146101695780630e89341c1461018c5780632eb2c2d6146101ac575b600080fd5b61014361013e3660046114d4565b61031d565b6040519081526020015b60405180910390f35b610143610164366004611546565b6103b3565b61017c6101773660046115aa565b610430565b604051901515815260200161014d565b61019f61019a3660046115ce565b610482565b60405161014d9190611634565b6101bf6101ba366004611790565b61056c565b005b6101436101cf3660046115ce565b60066020526000908152604090205481565b6101f46101ef366004611839565b6105b8565b60405161014d919061193e565b6101bf6106e1565b6101bf610745565b6101bf61021f366004611951565b610779565b6101bf610232366004611546565b61089d565b6101436102453660046115ce565b60076020526000908152604090205481565b6003546001600160a01b03165b6040516001600160a01b03909116815260200161014d565b6101bf61028a3660046119b1565b6108d7565b6101bf61029d3660046119f2565b610a32565b6101bf6102b03660046119f2565b610a41565b6004546001600160a01b0316610264565b61019f610aef565b61017c6102dc366004611a2e565b6001600160a01b03918216600090815260016020908152604080832093909416825291909152205460ff1690565b6101bf610318366004611a61565b610b7d565b60006001600160a01b03831661038d5760405162461bcd60e51b815260206004820152602a60248201527f455243313135353a2061646472657373207a65726f206973206e6f742061207660448201526930b634b21037bbb732b960b11b60648201526084015b60405180910390fd5b506000908152602081815260408083206001600160a01b03949094168352929052205490565b6003546000906001600160a01b031633146103e05760405162461bcd60e51b815260040161038490611ac5565b60088054600090815260076020526040902085905554610401908484610bc2565b6001600860008282546104149190611b12565b909155505060085461042890600190611b2a565b949350505050565b60006001600160e01b03198216636cdb3d1360e11b148061046157506001600160e01b031982166303a24d0760e21b145b8061047c57506301ffc9a760e01b6001600160e01b03198316145b92915050565b606060085482106104ce5760405162461bcd60e51b8152602060048201526016602482015275140c4c905cdcd95d0e881a59081b9bdd08195e1a5cdd60521b6044820152606401610384565b600082815260096020526040902080546104e790611b41565b80601f016020809104026020016040519081016040528092919081815260200182805461051390611b41565b80156105605780601f1061053557610100808354040283529160200191610560565b820191906000526020600020905b81548152906001019060200180831161054357829003601f168201915b50505050509050919050565b6001600160a01b038516331480610588575061058885336102dc565b6105a45760405162461bcd60e51b815260040161038490611b7b565b6105b18585858585610ca1565b5050505050565b6060815183511461061d5760405162461bcd60e51b815260206004820152602960248201527f455243313135353a206163636f756e747320616e6420696473206c656e677468604482015268040dad2e6dac2e8c6d60bb1b6064820152608401610384565b600083516001600160401b0381111561063857610638611647565b604051908082528060200260200182016040528015610661578160200160208202803683370190505b50905060005b84518110156106d9576106ac85828151811061068557610685611bca565b602002602001015185838151811061069f5761069f611bca565b602002602001015161031d565b8282815181106106be576106be611bca565b60209081029190910101526106d281611be0565b9050610667565b509392505050565b6004546001600160a01b0316331461073b5760405162461bcd60e51b815260206004820152601e60248201527f536166654f776e61626c653a2063616c6c657220213d2070656e64696e6700006044820152606401610384565b610743610e7e565b565b6003546001600160a01b0316331461076f5760405162461bcd60e51b815260040161038490611ac5565b6107436000610ee7565b6003546001600160a01b031633146107a35760405162461bcd60e51b815260040161038490611ac5565b60085483106107f45760405162461bcd60e51b815260206004820152601960248201527f50313241737365743a206964206973206e6f742076616c6964000000000000006044820152606401610384565b6000838152600760209081526040808320546006909252909120546108199084611b12565b11156108675760405162461bcd60e51b815260206004820152601b60248201527f50313241737365743a20657863656564206d617820737570706c7900000000006044820152606401610384565b60008381526006602052604081208054849290610885908490611b12565b90915550610897905084848484610f39565b50505050565b6003546001600160a01b031633146108c75760405162461bcd60e51b815260040161038490611ac5565b6108d2838383610bc2565b505050565b6003546001600160a01b031633146109015760405162461bcd60e51b815260040161038490611ac5565b60008190036109525760405162461bcd60e51b815260206004820152601b60248201527f50313241737365743a20656d70747920636f6e747261637455524900000000006044820152606401610384565b60006005805461096190611b41565b80601f016020809104026020016040519081016040528092919081815260200182805461098d90611b41565b80156109da5780601f106109af576101008083540402835291602001916109da565b820191906000526020600020905b8154815290600101906020018083116109bd57829003601f168201915b505050505090508282600591826109f2929190611c3f565b507f89e5b6f07571941ef88c704155a3557ef26b4fd73f9c2c18294de8e767dda34d816005604051610a25929190611cfe565b60405180910390a1505050565b610a3d33838361104d565b5050565b6003546001600160a01b03163314610a6b5760405162461bcd60e51b815260040161038490611ac5565b6001600160a01b038216610ac15760405162461bcd60e51b815260206004820152601b60248201527f536166654f776e61626c653a206e6577206f776e6572206973203000000000006044820152606401610384565b8015610ad057610a3d82610ee7565b600480546001600160a01b0319166001600160a01b0384161790555050565b60058054610afc90611b41565b80601f0160208091040260200160405190810160405280929190818152602001828054610b2890611b41565b8015610b755780601f10610b4a57610100808354040283529160200191610b75565b820191906000526020600020905b815481529060010190602001808311610b5857829003601f168201915b505050505081565b6001600160a01b038516331480610b995750610b9985336102dc565b610bb55760405162461bcd60e51b815260040161038490611b7b565b6105b1858585858561112d565b6000819003610c095760405162461bcd60e51b815260206004820152601360248201527250313241737365743a20656d7074792075726960681b6044820152606401610384565b600854831115610c545760405162461bcd60e51b8152602060048201526016602482015275140c4c905cdcd95d0e881a59081b9bdd08195e1a5cdd60521b6044820152606401610384565b6000838152600960205260409020610c6d828483611c3f565b507fcb8a581c366c006d079f78b3f29b10e2bf252c6a9df7fb60286aa83c09bbd0b1838383604051610a2593929190611d99565b8151835114610d035760405162461bcd60e51b815260206004820152602860248201527f455243313135353a2069647320616e6420616d6f756e7473206c656e677468206044820152670dad2e6dac2e8c6d60c31b6064820152608401610384565b6001600160a01b038416610d295760405162461bcd60e51b815260040161038490611dcf565b3360005b8451811015610e10576000858281518110610d4a57610d4a611bca565b602002602001015190506000858381518110610d6857610d68611bca565b602090810291909101810151600084815280835260408082206001600160a01b038e168352909352919091205490915081811015610db85760405162461bcd60e51b815260040161038490611e14565b6000838152602081815260408083206001600160a01b038e8116855292528083208585039055908b16825281208054849290610df5908490611b12565b9250508190555050505080610e0990611be0565b9050610d2d565b50846001600160a01b0316866001600160a01b0316826001600160a01b03167f4a39dc06d4c0dbc64b70af90fd698a233a518aa5d07e595d983b8c0526c8f7fb8787604051610e60929190611e5e565b60405180910390a4610e76818787878787611257565b505050505050565b6003546004546040516001600160a01b03928316929091169082907f8be0079c531659141344cd1fd0a4f28419497f9722a3daafe3b4186f6b6457e090600090a35060048054600380546001600160a01b03199081166001600160a01b03841617909155169055565b600380546001600160a01b038381166001600160a01b0319831681179093556040519116919082907f8be0079c531659141344cd1fd0a4f28419497f9722a3daafe3b4186f6b6457e090600090a35050565b6001600160a01b038416610f995760405162461bcd60e51b815260206004820152602160248201527f455243313135353a206d696e7420746f20746865207a65726f206164647265736044820152607360f81b6064820152608401610384565b336000610fa5856113b2565b90506000610fb2856113b2565b90506000868152602081815260408083206001600160a01b038b16845290915281208054879290610fe4908490611b12565b909155505060408051878152602081018790526001600160a01b03808a1692600092918716917fc3d58168c5ae7397731d063d5bbf3d657854427343f4c083240f7aacaa2d0f62910160405180910390a4611044836000898989896113fd565b50505050505050565b816001600160a01b0316836001600160a01b0316036110c05760405162461bcd60e51b815260206004820152602960248201527f455243313135353a2073657474696e6720617070726f76616c20737461747573604482015268103337b91039b2b63360b91b6064820152608401610384565b6001600160a01b03838116600081815260016020908152604080832094871680845294825291829020805460ff191686151590811790915591519182527f17307eab39ab6107e8899845ad3d59bd9653f200f220920489ca2b5937696c31910160405180910390a3505050565b6001600160a01b0384166111535760405162461bcd60e51b815260040161038490611dcf565b33600061115f856113b2565b9050600061116c856113b2565b90506000868152602081815260408083206001600160a01b038c168452909152902054858110156111af5760405162461bcd60e51b815260040161038490611e14565b6000878152602081815260408083206001600160a01b038d8116855292528083208985039055908a168252812080548892906111ec908490611b12565b909155505060408051888152602081018890526001600160a01b03808b16928c821692918816917fc3d58168c5ae7397731d063d5bbf3d657854427343f4c083240f7aacaa2d0f62910160405180910390a461124c848a8a8a8a8a6113fd565b505050505050505050565b6001600160a01b0384163b15610e765760405163bc197c8160e01b81526001600160a01b0385169063bc197c819061129b9089908990889088908890600401611e8c565b6020604051808303816000875af19250505080156112d6575060408051601f3d908101601f191682019092526112d391810190611eea565b60015b611382576112e2611f07565b806308c379a00361131b57506112f6611f23565b80611301575061131d565b8060405162461bcd60e51b81526004016103849190611634565b505b60405162461bcd60e51b815260206004820152603460248201527f455243313135353a207472616e7366657220746f206e6f6e20455243313135356044820152732932b1b2b4bb32b91034b6b83632b6b2b73a32b960611b6064820152608401610384565b6001600160e01b0319811663bc197c8160e01b146110445760405162461bcd60e51b815260040161038490611fac565b604080516001808252818301909252606091600091906020808301908036833701905050905082816000815181106113ec576113ec611bca565b602090810291909101015292915050565b6001600160a01b0384163b15610e765760405163f23a6e6160e01b81526001600160a01b0385169063f23a6e61906114419089908990889088908890600401611ff4565b6020604051808303816000875af192505050801561147c575060408051601f3d908101601f1916820190925261147991810190611eea565b60015b611488576112e2611f07565b6001600160e01b0319811663f23a6e6160e01b146110445760405162461bcd60e51b815260040161038490611fac565b80356001600160a01b03811681146114cf57600080fd5b919050565b600080604083850312156114e757600080fd5b6114f0836114b8565b946020939093013593505050565b60008083601f84011261151057600080fd5b5081356001600160401b0381111561152757600080fd5b60208301915083602082850101111561153f57600080fd5b9250929050565b60008060006040848603121561155b57600080fd5b8335925060208401356001600160401b0381111561157857600080fd5b611584868287016114fe565b9497909650939450505050565b6001600160e01b0319811681146115a757600080fd5b50565b6000602082840312156115bc57600080fd5b81356115c781611591565b9392505050565b6000602082840312156115e057600080fd5b5035919050565b6000815180845260005b8181101561160d576020818501810151868301820152016115f1565b8181111561161f576000602083870101525b50601f01601f19169290920160200192915050565b6020815260006115c760208301846115e7565b634e487b7160e01b600052604160045260246000fd5b601f8201601f191681016001600160401b038111828210171561168257611682611647565b6040525050565b60006001600160401b038211156116a2576116a2611647565b5060051b60200190565b600082601f8301126116bd57600080fd5b813560206116ca82611689565b6040516116d7828261165d565b83815260059390931b85018201928281019150868411156116f757600080fd5b8286015b8481101561171257803583529183019183016116fb565b509695505050505050565b600082601f83011261172e57600080fd5b81356001600160401b0381111561174757611747611647565b60405161175e601f8301601f19166020018261165d565b81815284602083860101111561177357600080fd5b816020850160208301376000918101602001919091529392505050565b600080600080600060a086880312156117a857600080fd5b6117b1866114b8565b94506117bf602087016114b8565b935060408601356001600160401b03808211156117db57600080fd5b6117e789838a016116ac565b945060608801359150808211156117fd57600080fd5b61180989838a016116ac565b9350608088013591508082111561181f57600080fd5b5061182c8882890161171d565b9150509295509295909350565b6000806040838503121561184c57600080fd5b82356001600160401b038082111561186357600080fd5b818501915085601f83011261187757600080fd5b8135602061188482611689565b604051611891828261165d565b83815260059390931b85018201928281019150898411156118b157600080fd5b948201945b838610156118d6576118c7866114b8565b825294820194908201906118b6565b965050860135925050808211156118ec57600080fd5b506118f9858286016116ac565b9150509250929050565b600081518084526020808501945080840160005b8381101561193357815187529582019590820190600101611917565b509495945050505050565b6020815260006115c76020830184611903565b6000806000806080858703121561196757600080fd5b611970856114b8565b9350602085013592506040850135915060608501356001600160401b0381111561199957600080fd5b6119a58782880161171d565b91505092959194509250565b600080602083850312156119c457600080fd5b82356001600160401b038111156119da57600080fd5b6119e6858286016114fe565b90969095509350505050565b60008060408385031215611a0557600080fd5b611a0e836114b8565b915060208301358015158114611a2357600080fd5b809150509250929050565b60008060408385031215611a4157600080fd5b611a4a836114b8565b9150611a58602084016114b8565b90509250929050565b600080600080600060a08688031215611a7957600080fd5b611a82866114b8565b9450611a90602087016114b8565b9350604086013592506060860135915060808601356001600160401b03811115611ab957600080fd5b61182c8882890161171d565b6020808252601d908201527f536166654f776e61626c653a2063616c6c6572206e6f74206f776e6572000000604082015260600190565b634e487b7160e01b600052601160045260246000fd5b60008219821115611b2557611b25611afc565b500190565b600082821015611b3c57611b3c611afc565b500390565b600181811c90821680611b5557607f821691505b602082108103611b7557634e487b7160e01b600052602260045260246000fd5b50919050565b6020808252602f908201527f455243313135353a2063616c6c6572206973206e6f7420746f6b656e206f776e60408201526e195c881b9bdc88185c1c1c9bdd9959608a1b606082015260800190565b634e487b7160e01b600052603260045260246000fd5b600060018201611bf257611bf2611afc565b5060010190565b601f8211156108d257600081815260208120601f850160051c81016020861015611c205750805b601f850160051c820191505b81811015610e7657828155600101611c2c565b6001600160401b03831115611c5657611c56611647565b611c6a83611c648354611b41565b83611bf9565b6000601f841160018114611c9e5760008515611c865750838201355b600019600387901b1c1916600186901b1783556105b1565b600083815260209020601f19861690835b82811015611ccf5786850135825560209485019460019092019101611caf565b5086821015611cec5760001960f88860031b161c19848701351681555b505060018560011b0183555050505050565b604081526000611d1160408301856115e7565b60208382038185015260008554611d2781611b41565b80855260018281168015611d425760018114611d5c57611d8a565b60ff1984168787015282151560051b870186019450611d8a565b896000528560002060005b84811015611d82578154898201890152908301908701611d67565b880187019550505b50929998505050505050505050565b83815260406020820152816040820152818360608301376000818301606090810191909152601f909201601f1916010192915050565b60208082526025908201527f455243313135353a207472616e7366657220746f20746865207a65726f206164604082015264647265737360d81b606082015260800190565b6020808252602a908201527f455243313135353a20696e73756666696369656e742062616c616e636520666f60408201526939103a3930b739b332b960b11b606082015260800190565b604081526000611e716040830185611903565b8281036020840152611e838185611903565b95945050505050565b6001600160a01b0386811682528516602082015260a060408201819052600090611eb890830186611903565b8281036060840152611eca8186611903565b90508281036080840152611ede81856115e7565b98975050505050505050565b600060208284031215611efc57600080fd5b81516115c781611591565b600060033d1115611f205760046000803e5060005160e01c5b90565b600060443d1015611f315790565b6040516003193d81016004833e81513d6001600160401b038160248401118184111715611f6057505050505090565b8285019150815181811115611f785750505050505090565b843d8701016020828501011115611f925750505050505090565b611fa16020828601018761165d565b509095945050505050565b60208082526028908201527f455243313135353a204552433131353552656365697665722072656a656374656040820152676420746f6b656e7360c01b606082015260800190565b6001600160a01b03868116825285166020820152604081018490526060810183905260a06080820181905260009061202e908301846115e7565b97965050505050505056fea2646970667358221220fe7652443c02e514f7bbb003f67c58a59026965b32b74a28cf8a80140b5fafb964736f6c634300080f0033360894a13ba1a3210667c828492db98dca3e2076cc3735a920a3ca505d382bbc416464726573733a206c6f772d6c6576656c2064656c65676174652063616c6c206661696c6564a26469706673582212202f70c6d5bc6c087c348a6115fa8b82ae8334f1776fcd806e412933286362143064736f6c634300080f0033",
  "devdoc": {
    "kind": "dev",
    "methods": {
      "claimOwnership()": {
        "details": "pending owner call this function to claim ownership"
      },
      "createAssetAndMint(address,uint256,string)": {
        "details": "create asset and mint to msg.sender address",
        "params": {
          "amount": "amount of asset",
          "collection": "which collection want to create",
          "uri": "new asset's metadata uri"
        }
      },
      "createCollection(string,string)": {
        "details": "create Collection",
        "params": {
          "contractURI": "contract-level metadata uri",
          "gameId": "a off-chain game id"
        }
      },
      "owner()": {
        "details": "Returns the address of the current owner."
      },
      "paused()": {
        "details": "Returns true if the contract is paused, and false otherwise."
      },
      "pendingOwner()": {
        "details": "Return the address of the pending owner"
      },
      "proxiableUUID()": {
        "details": "Implementation of the ERC1822 {proxiableUUID} function. This returns the storage slot used by the implementation. It is used to validate that the this implementation remains valid after an upgrade. IMPORTANT: A proxy pointing at a proxiable contract should not be considered proxiable itself, because this risks bricking a proxy that upgrades to it, by delegating to itself until out of gas. Thus it is critical that this function revert if invoked through a proxy. This is guaranteed by the `notDelegated` modifier."
      },
      "renounceOwnership()": {
        "details": "Leaves the contract without owner. It will not be possible to call `onlyOwner` functions anymore. Can only be called by the current owner. NOTE: Renouncing ownership will leave the contract without an owner, thereby removing any functionality that is only available to the owner."
      },
      "setP12CoinFactory(address)": {
        "params": {
          "newP12CoinFactory": "address of p12CoinFactory"
        }
      },
      "transferOwnership(address,bool)": {
        "details": "Transfers ownership of the contract to a new account (`newOwner`). Can only be called by the current owner. Note If direct is false, it will set an pending owner and the OwnerShipTransferring only happens when the pending owner claim the ownership"
      },
      "updateCollectionUri(address,string)": {
        "details": "update Collection Uri",
        "params": {
          "collection": "collection address",
          "newUri": "new Contract-level metadata uri"
        }
      },
      "updateSftUri(address,uint256,string)": {
        "details": "update Sft Uri",
        "params": {
          "collection": "collection address",
          "newUri": "new metadata uri",
          "tokenId": "token id"
        }
      },
      "upgradeTo(address)": {
        "details": "Upgrade the implementation of the proxy to `newImplementation`. Calls {_authorizeUpgrade}. Emits an {Upgraded} event."
      },
      "upgradeToAndCall(address,bytes)": {
        "details": "Upgrade the implementation of the proxy to `newImplementation`, and subsequently execute the function call encoded in `data`. Calls {_authorizeUpgrade}. Emits an {Upgraded} event."
      }
    },
    "version": 1
  },
  "userdoc": {
    "kind": "user",
    "methods": {
      "p12CoinFactory()": {
        "notice": "p12CoinFactory address, for reading game and developer relationship"
      },
      "setP12CoinFactory(address)": {
        "notice": "set new p12CoinFactory"
      }
    },
    "version": 1
  },
  "storageLayout": {
    "storage": [
      {
        "astId": 8736,
        "contract": "contracts/assetFactory/P12AssetFactoryUpgradable.sol:P12AssetFactoryUpgradable",
        "label": "registry",
        "offset": 0,
        "slot": "0",
        "type": "t_mapping(t_address,t_string_storage)"
      },
      {
        "astId": 8739,
        "contract": "contracts/assetFactory/P12AssetFactoryUpgradable.sol:P12AssetFactoryUpgradable",
        "label": "p12CoinFactory",
        "offset": 0,
        "slot": "1",
        "type": "t_address"
      },
      {
        "astId": 8743,
        "contract": "contracts/assetFactory/P12AssetFactoryUpgradable.sol:P12AssetFactoryUpgradable",
        "label": "__gap",
        "offset": 0,
        "slot": "2",
        "type": "t_array(t_uint256)49_storage"
      },
      {
        "astId": 395,
        "contract": "contracts/assetFactory/P12AssetFactoryUpgradable.sol:P12AssetFactoryUpgradable",
        "label": "_initialized",
        "offset": 0,
        "slot": "51",
        "type": "t_uint8"
      },
      {
        "astId": 398,
        "contract": "contracts/assetFactory/P12AssetFactoryUpgradable.sol:P12AssetFactoryUpgradable",
        "label": "_initializing",
        "offset": 1,
        "slot": "51",
        "type": "t_bool"
      },
      {
        "astId": 816,
        "contract": "contracts/assetFactory/P12AssetFactoryUpgradable.sol:P12AssetFactoryUpgradable",
        "label": "_status",
        "offset": 0,
        "slot": "52",
        "type": "t_uint256"
      },
      {
        "astId": 860,
        "contract": "contracts/assetFactory/P12AssetFactoryUpgradable.sol:P12AssetFactoryUpgradable",
        "label": "__gap",
        "offset": 0,
        "slot": "53",
        "type": "t_array(t_uint256)49_storage"
      },
      {
        "astId": 1540,
        "contract": "contracts/assetFactory/P12AssetFactoryUpgradable.sol:P12AssetFactoryUpgradable",
        "label": "__gap",
        "offset": 0,
        "slot": "102",
        "type": "t_array(t_uint256)50_storage"
      },
      {
        "astId": 377,
        "contract": "contracts/assetFactory/P12AssetFactoryUpgradable.sol:P12AssetFactoryUpgradable",
        "label": "__gap",
        "offset": 0,
        "slot": "152",
        "type": "t_array(t_uint256)50_storage"
      },
      {
        "astId": 8295,
        "contract": "contracts/assetFactory/P12AssetFactoryUpgradable.sol:P12AssetFactoryUpgradable",
        "label": "_owner",
        "offset": 0,
        "slot": "202",
        "type": "t_address"
      },
      {
        "astId": 8297,
        "contract": "contracts/assetFactory/P12AssetFactoryUpgradable.sol:P12AssetFactoryUpgradable",
        "label": "_pendingOwner",
        "offset": 0,
        "slot": "203",
        "type": "t_address"
      },
      {
        "astId": 8481,
        "contract": "contracts/assetFactory/P12AssetFactoryUpgradable.sol:P12AssetFactoryUpgradable",
        "label": "__gap",
        "offset": 0,
        "slot": "204",
        "type": "t_array(t_uint256)48_storage"
      },
      {
        "astId": 696,
        "contract": "contracts/assetFactory/P12AssetFactoryUpgradable.sol:P12AssetFactoryUpgradable",
        "label": "_paused",
        "offset": 0,
        "slot": "252",
        "type": "t_bool"
      },
      {
        "astId": 801,
        "contract": "contracts/assetFactory/P12AssetFactoryUpgradable.sol:P12AssetFactoryUpgradable",
        "label": "__gap",
        "offset": 0,
        "slot": "253",
        "type": "t_array(t_uint256)49_storage"
      },
      {
        "astId": 674,
        "contract": "contracts/assetFactory/P12AssetFactoryUpgradable.sol:P12AssetFactoryUpgradable",
        "label": "__gap",
        "offset": 0,
        "slot": "302",
        "type": "t_array(t_uint256)50_storage"
      }
    ],
    "types": {
      "t_address": {
        "encoding": "inplace",
        "label": "address",
        "numberOfBytes": "20"
      },
      "t_array(t_uint256)48_storage": {
        "base": "t_uint256",
        "encoding": "inplace",
        "label": "uint256[48]",
        "numberOfBytes": "1536"
      },
      "t_array(t_uint256)49_storage": {
        "base": "t_uint256",
        "encoding": "inplace",
        "label": "uint256[49]",
        "numberOfBytes": "1568"
      },
      "t_array(t_uint256)50_storage": {
        "base": "t_uint256",
        "encoding": "inplace",
        "label": "uint256[50]",
        "numberOfBytes": "1600"
      },
      "t_bool": {
        "encoding": "inplace",
        "label": "bool",
        "numberOfBytes": "1"
      },
      "t_mapping(t_address,t_string_storage)": {
        "encoding": "mapping",
        "key": "t_address",
        "label": "mapping(address => string)",
        "numberOfBytes": "32",
        "value": "t_string_storage"
      },
      "t_string_storage": {
        "encoding": "bytes",
        "label": "string",
        "numberOfBytes": "32"
      },
      "t_uint256": {
        "encoding": "inplace",
        "label": "uint256",
        "numberOfBytes": "32"
      },
      "t_uint8": {
        "encoding": "inplace",
        "label": "uint8",
        "numberOfBytes": "1"
      }
    }
  }
}