{
  "address": "0xAb68c4ff93d1ba927979E22cc0c1Acf86E83ab0F",
  "abi": [
    {
      "inputs": [
        {
          "internalType": "address",
          "name": "p12TokenAddr_",
          "type": "address"
        },
        {
          "internalType": "string",
          "name": "name_",
          "type": "string"
        },
        {
          "internalType": "string",
          "name": "symbol_",
          "type": "string"
        }
      ],
      "stateMutability": "nonpayable",
      "type": "constructor"
    },
    {
      "anonymous": false,
      "inputs": [
        {
          "indexed": true,
          "internalType": "address",
          "name": "provider",
          "type": "address"
        },
        {
          "indexed": false,
          "internalType": "uint256",
          "name": "value",
          "type": "uint256"
        },
        {
          "indexed": true,
          "internalType": "uint256",
          "name": "lockTime",
          "type": "uint256"
        },
        {
          "indexed": false,
          "internalType": "enum VotingEscrow.OperationType",
          "name": "t",
          "type": "uint8"
        },
        {
          "indexed": false,
          "internalType": "uint256",
          "name": "ts",
          "type": "uint256"
        }
      ],
      "name": "Deposit",
      "type": "event"
    },
    {
      "anonymous": false,
      "inputs": [
        {
          "indexed": false,
          "internalType": "address",
          "name": "addr",
          "type": "address"
        },
        {
          "indexed": false,
          "internalType": "uint256",
          "name": "timestamp",
          "type": "uint256"
        }
      ],
      "name": "Expired",
      "type": "event"
    },
    {
      "anonymous": false,
      "inputs": [
        {
          "indexed": true,
          "internalType": "address",
          "name": "previousOwner",
          "type": "address"
        },
        {
          "indexed": true,
          "internalType": "address",
          "name": "newOwner",
          "type": "address"
        }
      ],
      "name": "OwnershipTransferred",
      "type": "event"
    },
    {
      "anonymous": false,
      "inputs": [
        {
          "indexed": false,
          "internalType": "address",
          "name": "account",
          "type": "address"
        }
      ],
      "name": "Paused",
      "type": "event"
    },
    {
      "anonymous": false,
      "inputs": [
        {
          "indexed": false,
          "internalType": "uint256",
          "name": "prevTotalLockedP12",
          "type": "uint256"
        },
        {
          "indexed": false,
          "internalType": "uint256",
          "name": "totalLockedP12",
          "type": "uint256"
        }
      ],
      "name": "TotalLocked",
      "type": "event"
    },
    {
      "anonymous": false,
      "inputs": [
        {
          "indexed": false,
          "internalType": "address",
          "name": "account",
          "type": "address"
        }
      ],
      "name": "Unpaused",
      "type": "event"
    },
    {
      "anonymous": false,
      "inputs": [
        {
          "indexed": true,
          "internalType": "address",
          "name": "provider",
          "type": "address"
        },
        {
          "indexed": false,
          "internalType": "uint256",
          "name": "value",
          "type": "uint256"
        },
        {
          "indexed": false,
          "internalType": "uint256",
          "name": "ts",
          "type": "uint256"
        }
      ],
      "name": "Withdraw",
      "type": "event"
    },
    {
      "inputs": [
        {
          "internalType": "address",
          "name": "addr",
          "type": "address"
        }
      ],
      "name": "balanceOf",
      "outputs": [
        {
          "internalType": "int256",
          "name": "",
          "type": "int256"
        }
      ],
      "stateMutability": "view",
      "type": "function"
    },
    {
      "inputs": [
        {
          "internalType": "address",
          "name": "addr",
          "type": "address"
        },
        {
          "internalType": "uint256",
          "name": "blk",
          "type": "uint256"
        }
      ],
      "name": "balanceOfAt",
      "outputs": [
        {
          "internalType": "int256",
          "name": "",
          "type": "int256"
        }
      ],
      "stateMutability": "view",
      "type": "function"
    },
    {
      "inputs": [],
      "name": "checkPoint",
      "outputs": [],
      "stateMutability": "nonpayable",
      "type": "function"
    },
    {
      "inputs": [],
      "name": "claimOwnership",
      "outputs": [],
      "stateMutability": "nonpayable",
      "type": "function"
    },
    {
      "inputs": [
        {
          "internalType": "uint256",
          "name": "value",
          "type": "uint256"
        },
        {
          "internalType": "uint256",
          "name": "unlockTime",
          "type": "uint256"
        }
      ],
      "name": "createLock",
      "outputs": [],
      "stateMutability": "nonpayable",
      "type": "function"
    },
    {
      "inputs": [],
      "name": "decimals",
      "outputs": [
        {
          "internalType": "uint256",
          "name": "",
          "type": "uint256"
        }
      ],
      "stateMutability": "view",
      "type": "function"
    },
    {
      "inputs": [
        {
          "internalType": "address",
          "name": "addr",
          "type": "address"
        },
        {
          "internalType": "uint256",
          "name": "value",
          "type": "uint256"
        }
      ],
      "name": "depositFor",
      "outputs": [],
      "stateMutability": "nonpayable",
      "type": "function"
    },
    {
      "inputs": [],
      "name": "epoch",
      "outputs": [
        {
          "internalType": "uint256",
          "name": "",
          "type": "uint256"
        }
      ],
      "stateMutability": "view",
      "type": "function"
    },
    {
      "inputs": [],
      "name": "expire",
      "outputs": [],
      "stateMutability": "nonpayable",
      "type": "function"
    },
    {
      "inputs": [],
      "name": "expired",
      "outputs": [
        {
          "internalType": "bool",
          "name": "",
          "type": "bool"
        }
      ],
      "stateMutability": "view",
      "type": "function"
    },
    {
      "inputs": [
        {
          "internalType": "uint256",
          "name": "blk",
          "type": "uint256"
        },
        {
          "internalType": "uint256",
          "name": "maxEpoch",
          "type": "uint256"
        }
      ],
      "name": "findBlockEpoch",
      "outputs": [
        {
          "internalType": "uint256",
          "name": "",
          "type": "uint256"
        }
      ],
      "stateMutability": "view",
      "type": "function"
    },
    {
      "inputs": [
        {
          "internalType": "address",
          "name": "addr",
          "type": "address"
        }
      ],
      "name": "getLastUserSlope",
      "outputs": [
        {
          "internalType": "int256",
          "name": "",
          "type": "int256"
        }
      ],
      "stateMutability": "view",
      "type": "function"
    },
    {
      "inputs": [
        {
          "internalType": "uint256",
          "name": "value",
          "type": "uint256"
        }
      ],
      "name": "increaseAmount",
      "outputs": [],
      "stateMutability": "nonpayable",
      "type": "function"
    },
    {
      "inputs": [
        {
          "internalType": "uint256",
          "name": "unlockTime",
          "type": "uint256"
        }
      ],
      "name": "increaseUnlockTime",
      "outputs": [],
      "stateMutability": "nonpayable",
      "type": "function"
    },
    {
      "inputs": [
        {
          "internalType": "address",
          "name": "",
          "type": "address"
        }
      ],
      "name": "locked",
      "outputs": [
        {
          "internalType": "int256",
          "name": "amount",
          "type": "int256"
        },
        {
          "internalType": "uint256",
          "name": "end",
          "type": "uint256"
        }
      ],
      "stateMutability": "view",
      "type": "function"
    },
    {
      "inputs": [
        {
          "internalType": "address",
          "name": "addr",
          "type": "address"
        }
      ],
      "name": "lockedEnd",
      "outputs": [
        {
          "internalType": "uint256",
          "name": "",
          "type": "uint256"
        }
      ],
      "stateMutability": "view",
      "type": "function"
    },
    {
      "inputs": [],
      "name": "name",
      "outputs": [
        {
          "internalType": "string",
          "name": "",
          "type": "string"
        }
      ],
      "stateMutability": "view",
      "type": "function"
    },
    {
      "inputs": [],
      "name": "owner",
      "outputs": [
        {
          "internalType": "address",
          "name": "",
          "type": "address"
        }
      ],
      "stateMutability": "view",
      "type": "function"
    },
    {
      "inputs": [],
      "name": "p12Token",
      "outputs": [
        {
          "internalType": "address",
          "name": "",
          "type": "address"
        }
      ],
      "stateMutability": "view",
      "type": "function"
    },
    {
      "inputs": [],
      "name": "pause",
      "outputs": [],
      "stateMutability": "nonpayable",
      "type": "function"
    },
    {
      "inputs": [],
      "name": "paused",
      "outputs": [
        {
          "internalType": "bool",
          "name": "",
          "type": "bool"
        }
      ],
      "stateMutability": "view",
      "type": "function"
    },
    {
      "inputs": [],
      "name": "pendingOwner",
      "outputs": [
        {
          "internalType": "address",
          "name": "",
          "type": "address"
        }
      ],
      "stateMutability": "view",
      "type": "function"
    },
    {
      "inputs": [
        {
          "internalType": "uint256",
          "name": "",
          "type": "uint256"
        }
      ],
      "name": "pointHistory",
      "outputs": [
        {
          "internalType": "int256",
          "name": "bias",
          "type": "int256"
        },
        {
          "internalType": "int256",
          "name": "slope",
          "type": "int256"
        },
        {
          "internalType": "uint256",
          "name": "ts",
          "type": "uint256"
        },
        {
          "internalType": "uint256",
          "name": "blk",
          "type": "uint256"
        }
      ],
      "stateMutability": "view",
      "type": "function"
    },
    {
      "inputs": [],
      "name": "renounceOwnership",
      "outputs": [],
      "stateMutability": "nonpayable",
      "type": "function"
    },
    {
      "inputs": [
        {
          "internalType": "uint256",
          "name": "",
          "type": "uint256"
        }
      ],
      "name": "slopeChanges",
      "outputs": [
        {
          "internalType": "int256",
          "name": "",
          "type": "int256"
        }
      ],
      "stateMutability": "view",
      "type": "function"
    },
    {
      "inputs": [],
      "name": "symbol",
      "outputs": [
        {
          "internalType": "string",
          "name": "",
          "type": "string"
        }
      ],
      "stateMutability": "view",
      "type": "function"
    },
    {
      "inputs": [],
      "name": "totalLockedP12",
      "outputs": [
        {
          "internalType": "uint256",
          "name": "",
          "type": "uint256"
        }
      ],
      "stateMutability": "view",
      "type": "function"
    },
    {
      "inputs": [],
      "name": "totalSupply",
      "outputs": [
        {
          "internalType": "uint256",
          "name": "",
          "type": "uint256"
        }
      ],
      "stateMutability": "view",
      "type": "function"
    },
    {
      "inputs": [
        {
          "internalType": "uint256",
          "name": "blk",
          "type": "uint256"
        }
      ],
      "name": "totalSupplyAt",
      "outputs": [
        {
          "internalType": "uint256",
          "name": "",
          "type": "uint256"
        }
      ],
      "stateMutability": "view",
      "type": "function"
    },
    {
      "inputs": [
        {
          "internalType": "address",
          "name": "newOwner",
          "type": "address"
        },
        {
          "internalType": "bool",
          "name": "direct",
          "type": "bool"
        }
      ],
      "name": "transferOwnership",
      "outputs": [],
      "stateMutability": "nonpayable",
      "type": "function"
    },
    {
      "inputs": [],
      "name": "unpause",
      "outputs": [],
      "stateMutability": "nonpayable",
      "type": "function"
    },
    {
      "inputs": [
        {
          "internalType": "address",
          "name": "",
          "type": "address"
        }
      ],
      "name": "userPointEpoch",
      "outputs": [
        {
          "internalType": "uint256",
          "name": "",
          "type": "uint256"
        }
      ],
      "stateMutability": "view",
      "type": "function"
    },
    {
      "inputs": [
        {
          "internalType": "address",
          "name": "",
          "type": "address"
        },
        {
          "internalType": "uint256",
          "name": "",
          "type": "uint256"
        }
      ],
      "name": "userPointHistory",
      "outputs": [
        {
          "internalType": "int256",
          "name": "bias",
          "type": "int256"
        },
        {
          "internalType": "int256",
          "name": "slope",
          "type": "int256"
        },
        {
          "internalType": "uint256",
          "name": "ts",
          "type": "uint256"
        },
        {
          "internalType": "uint256",
          "name": "blk",
          "type": "uint256"
        }
      ],
      "stateMutability": "view",
      "type": "function"
    },
    {
      "inputs": [
        {
          "internalType": "address",
          "name": "addr",
          "type": "address"
        },
        {
          "internalType": "uint256",
          "name": "idx",
          "type": "uint256"
        }
      ],
      "name": "userPointHistoryTs",
      "outputs": [
        {
          "internalType": "uint256",
          "name": "",
          "type": "uint256"
        }
      ],
      "stateMutability": "view",
      "type": "function"
    },
    {
      "inputs": [],
      "name": "withdraw",
      "outputs": [],
      "stateMutability": "nonpayable",
      "type": "function"
    }
  ],
  "transactionHash": "0xc27f98060a9a2500442bd31a5754f1fcb73eacde653d5203fe58bff676fa5401",
  "args": [
    "0x2844B158Bcffc0aD7d881a982D464c0ce38d8086",
    "Vote-escrowed P12",
    "veP12"
  ],
  "numDeployments": 1,
  "solcInputHash": "3ebc22a5d94db8a8f651c81db9812941",
  "bytecode": "0x60806040523480156200001157600080fd5b5060405162002dc438038062002dc4833981016040819052620000349162000261565b6001600055620000443362000142565b6002805460ff60a01b191690556001600160a01b038316620000ac5760405162461bcd60e51b815260206004820152601f60248201527f566f74696e67457363726f773a20746f6b656e2063616e6e6f74206265203000604482015260640160405180910390fd5b600c620000ba83826200037a565b50600d620000c982826200037a565b5050600380546001600160a01b0319166001600160a01b03939093169290921790915550600080526008602052437f5eff886ea0ce6ca488a3d6e336d6c0f75f46d19b42c06ce5ee98e42c96d256ca55427f5eff886ea0ce6ca488a3d6e336d6c0f75f46d19b42c06ce5ee98e42c96d256c95562000446565b600180546001600160a01b038381166001600160a01b0319831681179093556040519116919082907f8be0079c531659141344cd1fd0a4f28419497f9722a3daafe3b4186f6b6457e090600090a35050565b634e487b7160e01b600052604160045260246000fd5b600082601f830112620001bc57600080fd5b81516001600160401b0380821115620001d957620001d962000194565b604051601f8301601f19908116603f0116810190828211818310171562000204576200020462000194565b816040528381526020925086838588010111156200022157600080fd5b600091505b8382101562000245578582018301518183018401529082019062000226565b83821115620002575760008385830101525b9695505050505050565b6000806000606084860312156200027757600080fd5b83516001600160a01b03811681146200028f57600080fd5b60208501519093506001600160401b0380821115620002ad57600080fd5b620002bb87838801620001aa565b93506040860151915080821115620002d257600080fd5b50620002e186828701620001aa565b9150509250925092565b600181811c908216806200030057607f821691505b6020821081036200032157634e487b7160e01b600052602260045260246000fd5b50919050565b601f8211156200037557600081815260208120601f850160051c81016020861015620003505750805b601f850160051c820191505b8181101562000371578281556001016200035c565b5050505b505050565b81516001600160401b0381111562000396576200039662000194565b620003ae81620003a78454620002eb565b8462000327565b602080601f831160018114620003e65760008415620003cd5750858301515b600019600386901b1c1916600185901b17855562000371565b600085815260208120601f198616915b828110156200041757888601518255948401946001909101908401620003f6565b5085821015620004365787850151600019600388901b60f8161c191681555b5050505050600190811b01905550565b61296e80620004566000396000f3fe608060405234801561001057600080fd5b50600436106102115760003560e01c806379599f9611610125578063981b24d0116100ad578063cff805ab1161007c578063cff805ab146104d1578063e30c3978146104d9578063eac6a667146104ea578063f3a6d60814610523578063f52a36f71461056257600080fd5b8063981b24d01461045c578063b242e5341461046f578063b52c05fe14610482578063cbf9fe5f1461049557600080fd5b80638ad4c447116100f45780638ad4c447146103da5780638b7c37a31461040f5780638da5cb5b1461043a578063900cf0cf1461044b57806395d89b411461045457600080fd5b806379599f96146103975780637c616fe61461039f57806381fc83bb146103b25780638456cb59146103d257600080fd5b80633ccfd60b116101a85780634e71e0c8116101775780634e71e0c81461034f5780634ee2cd7e146103575780635c975abb1461036a57806370a082311461037c578063715018a61461038f57600080fd5b80633ccfd60b146102f65780633f4ba83a146102fe5780634c2067c7146103065780634deafcae1461032357600080fd5b8063313ce567116101e4578063313ce567146102725780633323bac91461027a57806334d901a41461028357806338dbff66146102e357600080fd5b806306fdde031461021657806315456eba1461023457806318160ddd146102495780632f4f21e21461025f575b600080fd5b61021e610582565b60405161022b91906124a6565b60405180910390f35b6102476102423660046124d9565b610610565b005b61025161076b565b60405190815260200161022b565b61024761026d36600461250e565b6107c0565b610251601281565b61025160045481565b6102c361029136600461250e565b600960209081526000928352604080842090915290825290208054600182015460028301546003909301549192909184565b60408051948552602085019390935291830152606082015260800161022b565b6102516102f1366004612538565b61094e565b6102476109d7565b610247610bc6565b6007546103139060ff1681565b604051901515815260200161022b565b61025161033136600461255a565b6001600160a01b031660009081526005602052604090206001015490565b610247610bfa565b61025161036536600461250e565b610c5c565b600254600160a01b900460ff16610313565b61025161038a36600461255a565b610f43565b610247611005565b610247611039565b6102476103ad3660046124d9565b6110ce565b6102516103c036600461255a565b600a6020526000908152604090205481565b6102476112c7565b6102c36103e83660046124d9565b60086020526000908152604090208054600182015460028301546003909301549192909184565b600354610422906001600160a01b031681565b6040516001600160a01b03909116815260200161022b565b6001546001600160a01b0316610422565b61025160065481565b61021e6112f9565b61025161046a3660046124d9565b611306565b61024761047d366004612586565b6114d8565b610247610490366004612538565b61158a565b6104bc6104a336600461255a565b6005602052600090815260409020805460019091015482565b6040805192835260208301919091520161022b565b610247611751565b6002546001600160a01b0316610422565b6102516104f836600461250e565b6001600160a01b03919091166000908152600960209081526040808320938352929052206002015490565b61025161053136600461255a565b6001600160a01b03166000908152600a60209081526040808320546009835281842090845290915290206001015490565b6102516105703660046124d9565b600b6020526000908152604090205481565b600c805461058f906125bd565b80601f01602080910402602001604051908101604052809291908181526020018280546105bb906125bd565b80156106085780601f106105dd57610100808354040283529160200191610608565b820191906000526020600020905b8154815290600101906020018083116105eb57829003601f168201915b505050505081565b60026000540361063b5760405162461bcd60e51b8152600401610632906125f1565b60405180910390fd5b6002600055610648611789565b60075460ff161561066b5760405162461bcd60e51b815260040161063290612628565b336000908152600560209081526040918290208251808401909352805483526001015490820152816106af5760405162461bcd60e51b81526004016106329061265f565b80516000126107005760405162461bcd60e51b815260206004820152601e60248201527f566f74696e67457363726f773a206e6f206578697374696e67206c6f636b00006044820152606401610632565b428160200151116107535760405162461bcd60e51b815260206004820152601a60248201527f566f74696e67457363726f773a206c6f636b20657870697265640000000000006044820152606401610632565b610762338360008460026117d6565b50506001600055565b60065460008181526008602090815260408083208151608081018352815481526001820154938101939093526002810154918301919091526003015460608201529091906107b9814261190c565b9250505090565b6002600054036107e25760405162461bcd60e51b8152600401610632906125f1565b60026000556107ef611789565b60075460ff16156108125760405162461bcd60e51b815260040161063290612628565b6001600160a01b03821660009081526005602090815260409182902082518084019093528054835260010154908201528161085f5760405162461bcd60e51b81526004016106329061265f565b80516000126108b05760405162461bcd60e51b815260206004820152601e60248201527f566f74696e67457363726f773a206e6f206578697374696e67206c6f636b00006044820152606401610632565b428160200151116109035760405162461bcd60e51b815260206004820152601a60248201527f566f74696e67457363726f773a206c6f636b20657870697265640000000000006044820152606401610632565b6001600160a01b03831660009081526005602090815260408083208151808301909252805482526001015491810191909152610944918591859190816117d6565b5050600160005550565b60008082815b608081116109cb57818310156109cb576000600261097284866126ac565b61097d9060016126ac565b61098791906126da565b60008181526008602052604090206003015490915087106109aa578093506109b8565b6109b56001826126ee565b92505b50806109c381612705565b915050610954565b50909150505b92915050565b6002600054036109f95760405162461bcd60e51b8152600401610632906125f1565b6002600055610a06611789565b33600090815260056020908152604080832081518083019092528054808352600190910154928201929092529112610a805760405162461bcd60e51b815260206004820152601d60248201527f566f74696e67457363726f773a206e6f206c6f636b656420746f6b656e0000006044820152606401610632565b806020015142101580610a95575060075460ff165b610ae15760405162461bcd60e51b815260206004820152601f60248201527f566f74696e67457363726f773a20636f6e646974696f6e206e6f74206d6574006044820152606401610632565b805160006020808401828152828552338352600590915260409091208351815590516001909101556004548290610b1883826126ee565b600455610b263383866119fc565b600354610b3d906001600160a01b03163385611fe1565b6040805184815242602082015233917ff279e6a1f5e320cca91135676d9cb6e44ca8a08c0b88342bcdb1144f6511b568910160405180910390a27f20afdd8f420a231acd54c47385623d5f04cacd142f4792d73dd98a454ad6cc1381610ba385826126ee565b6040805192835260208301919091520160405180910390a1505060016000555050565b6001546001600160a01b03163314610bf05760405162461bcd60e51b81526004016106329061271e565b610bf8612049565b565b6002546001600160a01b03163314610c545760405162461bcd60e51b815260206004820152601e60248201527f536166654f776e61626c653a2063616c6c657220213d2070656e64696e6700006044820152606401610632565b610bf8612099565b600043821115610cae5760405162461bcd60e51b815260206004820152601b60248201527f566f74696e67457363726f773a20696e76616c696420626c6f636b00000000006044820152606401610632565b6001600160a01b0383166000908152600a602052604081205460015b60808111610d565781831015610d565760006002610ce884866126ac565b610cf39060016126ac565b610cfd91906126da565b6001600160a01b03881660009081526009602090815260408083208484529091529020600301549091508610610d3557809350610d43565b610d406001826126ee565b92505b5080610d4e81612705565b915050610cca565b506001600160a01b038516600090815260096020908152604080832085845282528083208151608081018352815481526001820154938101939093526002810154918301919091526003015460608201526006549091610db6878361094e565b60008181526008602090815260408083208151608081018352815481526001820154938101939093526002810154918301919091526003015460608201529192508084841015610e85576000600881610e108760016126ac565b8152602001908152602001600020604051806080016040529081600082015481526020016001820154815260200160028201548152602001600382015481525050905083606001518160600151610e6791906126ee565b925083604001518160400151610e7d91906126ee565b915050610ea9565b6060830151610e9490436126ee565b9150826040015142610ea691906126ee565b90505b60408301518215610ee6578284606001518c610ec591906126ee565b610ecf9084612755565b610ed991906126da565b610ee390826126ac565b90505b6040870151610ef590826126ee565b8760200151610f049190612774565b87518890610f139083906127f9565b9052508651600013610f31575050935196506109d195505050505050565b600099505050505050505050506109d1565b6001600160a01b0381166000908152600a6020526040812054808203610f6c5750600092915050565b6001600160a01b0383166000908152600960209081526040808320848452825291829020825160808101845281548152600182015492810192909252600281015492820183905260030154606082015290610fc790426126ee565b8160200151610fd69190612774565b81518290610fe59083906127f9565b905250805160001315610ff757600081525b519392505050565b50919050565b6001546001600160a01b0316331461102f5760405162461bcd60e51b81526004016106329061271e565b610bf86000612102565b6001546001600160a01b031633146110635760405162461bcd60e51b81526004016106329061271e565b60075460ff16156110865760405162461bcd60e51b815260040161063290612628565b6007805460ff19166001179055604080513381524260208201527f751a0eb66c3cc9aa48957d09bd3cc81db888f5bcac6689def5fb9e18ec3cf20191015b60405180910390a1565b6002600054036110f05760405162461bcd60e51b8152600401610632906125f1565b60026000556110fd611789565b60075460ff16156111205760405162461bcd60e51b815260040161063290612628565b33600090815260056020908152604080832081518083019092528054825260010154918101919091529062093a8061115881856126da565b6111629190612755565b9050428260200151116111b75760405162461bcd60e51b815260206004820152601a60248201527f566f74696e67457363726f773a204c6f636b20657870697265640000000000006044820152606401610632565b81516000126112085760405162461bcd60e51b815260206004820152601f60248201527f566f74696e67457363726f773a204e6f7468696e67206973206c6f636b6564006044820152606401610632565b8160200151811161125b5760405162461bcd60e51b815260206004820181905260248201527f566f74696e67457363726f773a20696e76616c696420756e6c6f636b54696d656044820152606401610632565b611269630784ce00426126ac565b8111156112b85760405162461bcd60e51b815260206004820152601f60248201527f566f74696e67457363726f773a206578636565642063617020706572696f64006044820152606401610632565b610944336000838560026117d6565b6001546001600160a01b031633146112f15760405162461bcd60e51b81526004016106329061271e565b610bf8612154565b600d805461058f906125bd565b6000438211156113585760405162461bcd60e51b815260206004820152601b60248201527f566f74696e67457363726f773a20696e76616c696420626c6f636b00000000006044820152606401610632565b6006546000611367848361094e565b6000818152600860209081526040808320815160808101835281548152600182015493810193909352600281015491830191909152600301546060820152919250838310156114665760006008816113c08660016126ac565b815260200190815260200160002060405180608001604052908160008201548152602001600182015481526020016002820154815260200160038201548152505090508060600151836060015114611460578260600151816060015161142691906126ee565b8360400151826040015161143a91906126ee565b6060850151611449908a6126ee565b6114539190612755565b61145d91906126da565b91505b506114b5565b438260600151146114b557606082015161148090436126ee565b604083015161148f90426126ee565b606084015161149e90896126ee565b6114a89190612755565b6114b291906126da565b90505b6114ce828284604001516114c991906126ac565b61190c565b9695505050505050565b6001546001600160a01b031633146115025760405162461bcd60e51b81526004016106329061271e565b6001600160a01b0382166115585760405162461bcd60e51b815260206004820152601b60248201527f536166654f776e61626c653a206e6577206f776e6572206973203000000000006044820152606401610632565b801561156b5761156782612102565b5050565b600280546001600160a01b0319166001600160a01b0384161790555050565b6002600054036115ac5760405162461bcd60e51b8152600401610632906125f1565b60026000556115b9611789565b60075460ff16156115dc5760405162461bcd60e51b815260040161063290612628565b600062093a806115ec81846126da565b6115f69190612755565b3360009081526005602090815260409182902082518084019093528054835260010154908201529091508361163d5760405162461bcd60e51b81526004016106329061265f565b80511561168c5760405162461bcd60e51b815260206004820152601f60248201527f566f74696e67457363726f773a206f6c6420746f6b656e73206c6f636b6564006044820152606401610632565b4282116116db5760405162461bcd60e51b815260206004820152601860248201527f566f74696e67457363726f773a206c6f636b206c6174657200000000000000006044820152606401610632565b6116e9630784ce00426126ac565b8211156117385760405162461bcd60e51b815260206004820152601f60248201527f566f74696e67457363726f773a206578636565642063617020706572696f64006044820152606401610632565b6117463385848460016117d6565b505060016000555050565b610bf86000604051806040016040528060008152602001600081525060405180604001604052806000815260200160008152506119fc565b600254600160a01b900460ff1615610bf85760405162461bcd60e51b815260206004820152601060248201526f14185d5cd8589b194e881c185d5cd95960821b6044820152606401610632565b60045482906117e586826126ac565b600455604080518082019091528251815260208084015190820152825187908490611811908390612838565b905250851561182257602083018690525b6001600160a01b038816600090815260056020908152604090912084518155908401516001909101556118568882856119fc565b861561187457600354611874906001600160a01b031689308a612197565b8260200151886001600160a01b03167fbe9cf0e939c614fad640a623a53ba0a807c8cb503c4c4c8dacabe27b86ff2dd58987426040516118b693929190612879565b60405180910390a37f20afdd8f420a231acd54c47385623d5f04cacd142f4792d73dd98a454ad6cc13826118ea89826126ac565b6040805192835260208301919091520160405180910390a15050505050505050565b600080839050600062093a8080836040015161192891906126da565b6119329190612755565b905060005b60ff8162ffffff1610156119e35761195262093a80836126ac565b915060008583111561196657859250611977565b506000828152600b60205260409020545b604084015161198690846126ee565b84602001516119959190612774565b845185906119a49083906127f9565b9052508583036119b457506119e3565b80846020018181516119c69190612838565b9052505060408301829052806119db816128af565b915050611937565b508151600013156119f357600082525b50519392505050565b611a276040518060800160405280600081526020016000815260200160008152602001600081525090565b611a526040518060800160405280600081526020016000815260200160008152602001600081525090565b611a7660405180606001604052806000815260200160008152602001600081525090565b6000808252602082015260065460408201526001600160a01b03861615611b8f57428560200151118015611aab575084516000125b15611aea578451611ac190630784ce00906128d1565b602080850191909152850151611ad89042906126ee565b8360200151611ae79190612774565b83525b428460200151118015611afe575083516000125b15611b3d578351611b1490630784ce00906128d1565b602080840191909152840151611b2b9042906126ee565b8260200151611b3a9190612774565b82525b6020808601516000908152600b82526040902054825284015115611b8f578460200151846020015103611b765780516020820152611b8f565b6020808501516000908152600b82526040902054908201525b604080516080810182526000808252602082015242818301524360608201529082015115611c0457600860008360400151815260200190815260200160002060405180608001604052908160008201548152602001600182015481526020016002820154815260200160038201548152505090505b604081015181600042831015611c51576040840151611c2390426126ee565b6060850151611c3290436126ee565b611c4490670de0b6b3a7640000612755565b611c4e91906126da565b90505b600062093a80611c6181866126da565b611c6b9190612755565b905060005b60ff8162ffffff161015611dd757611c8b62093a80836126ac565b9150600042831115611c9f57429250611cb0565b506000828152600b60205260409020545b611cba86846126ee565b8760200151611cc99190612774565b87518890611cd89083906127f9565b905250602087018051829190611cef908390612838565b905250865160001315611d0157600087525b600087602001511215611d1657600060208801525b60408088018490528501519295508592670de0b6b3a764000090611d3a90856126ee565b611d449086612755565b611d4e91906126da565b8560600151611d5d91906126ac565b606088015260408801805160019190611d779083906126ac565b905250428303611d8d5750436060870152611dd7565b604080890151600090815260086020908152908290208951815590890151600182015590880151600282015560608801516003909101555080611dcf816128af565b915050611c70565b5060408601516006556001600160a01b038b1615611e5b5787602001518760200151611e0391906127f9565b85602001818151611e149190612838565b90525087518751611e2591906127f9565b85518690611e34908390612838565b905250602085015160001315611e4c57600060208601525b845160001315611e5b57600085525b604080870151600090815260086020908152908290208751815590870151600182015590860151600282015560608601516003909101556001600160a01b038b1615611fd457428a602001511115611f0357602088015186518790611ec1908390612838565b9052506020808b0151908a015103611eeb57602087015186518790611ee79083906127f9565b9052505b85516020808c01516000908152600b90915260409020555b4289602001511115611f5357896020015189602001511115611f5357866020015186602001818151611f3591906127f9565b9052506020808701518a8201516000908152600b9092526040909120555b6001600160a01b038b166000908152600a6020526040812054611f779060016126ac565b6001600160a01b038d166000818152600a60209081526040808320859055428d82019081524360608f01908152948452600983528184209584529482529091208b518155908b015160018201559151600283015551600390910155505b5050505050505050505050565b6040516001600160a01b03831660248201526044810182905261204490849063a9059cbb60e01b906064015b60408051601f198184030181529190526020810180516001600160e01b03166001600160e01b0319909316929092179091526121d5565b505050565b6120516122a7565b6002805460ff60a01b191690557f5db9ee0a495bf2e6ff9c91a7834c1ba4fdd244a5e8aa4e537bd38aeae4b073aa335b6040516001600160a01b0390911681526020016110c4565b6001546002546040516001600160a01b03928316929091169082907f8be0079c531659141344cd1fd0a4f28419497f9722a3daafe3b4186f6b6457e090600090a35060028054600180546001600160a01b03199081166001600160a01b03841617909155169055565b600180546001600160a01b038381166001600160a01b0319831681179093556040519116919082907f8be0079c531659141344cd1fd0a4f28419497f9722a3daafe3b4186f6b6457e090600090a35050565b61215c611789565b6002805460ff60a01b1916600160a01b1790557f62e78cea01bee320cd4e420270b5ea74000d11b0c9f74754ebdbfc544b05a2586120813390565b6040516001600160a01b03808516602483015283166044820152606481018290526121cf9085906323b872dd60e01b9060840161200d565b50505050565b600061222a826040518060400160405280602081526020017f5361666545524332303a206c6f772d6c6576656c2063616c6c206661696c6564815250856001600160a01b03166122f79092919063ffffffff16565b805190915015612044578080602001905181019061224891906128ff565b6120445760405162461bcd60e51b815260206004820152602a60248201527f5361666545524332303a204552433230206f7065726174696f6e20646964206e6044820152691bdd081cdd58d8d9595960b21b6064820152608401610632565b600254600160a01b900460ff16610bf85760405162461bcd60e51b815260206004820152601460248201527314185d5cd8589b194e881b9bdd081c185d5cd95960621b6044820152606401610632565b60606123068484600085612310565b90505b9392505050565b6060824710156123715760405162461bcd60e51b815260206004820152602660248201527f416464726573733a20696e73756666696369656e742062616c616e636520666f6044820152651c8818d85b1b60d21b6064820152608401610632565b6001600160a01b0385163b6123c85760405162461bcd60e51b815260206004820152601d60248201527f416464726573733a2063616c6c20746f206e6f6e2d636f6e74726163740000006044820152606401610632565b600080866001600160a01b031685876040516123e4919061291c565b60006040518083038185875af1925050503d8060008114612421576040519150601f19603f3d011682016040523d82523d6000602084013e612426565b606091505b5091509150612436828286612441565b979650505050505050565b60608315612450575081612309565b8251156124605782518084602001fd5b8160405162461bcd60e51b815260040161063291906124a6565b60005b8381101561249557818101518382015260200161247d565b838111156121cf5750506000910152565b60208152600082518060208401526124c581604085016020870161247a565b601f01601f19169190910160400192915050565b6000602082840312156124eb57600080fd5b5035919050565b80356001600160a01b038116811461250957600080fd5b919050565b6000806040838503121561252157600080fd5b61252a836124f2565b946020939093013593505050565b6000806040838503121561254b57600080fd5b50508035926020909101359150565b60006020828403121561256c57600080fd5b612309826124f2565b801515811461258357600080fd5b50565b6000806040838503121561259957600080fd5b6125a2836124f2565b915060208301356125b281612575565b809150509250929050565b600181811c908216806125d157607f821691505b602082108103610fff57634e487b7160e01b600052602260045260246000fd5b6020808252601f908201527f5265656e7472616e637947756172643a207265656e7472616e742063616c6c00604082015260600190565b6020808252601e908201527f566f74696e67457363726f773a20636f6e74726163742073746f707065640000604082015260600190565b6020808252601b908201527f566f74696e67457363726f773a20696e76616c69642076616c75650000000000604082015260600190565b634e487b7160e01b600052601160045260246000fd5b600082198211156126bf576126bf612696565b500190565b634e487b7160e01b600052601260045260246000fd5b6000826126e9576126e96126c4565b500490565b60008282101561270057612700612696565b500390565b60006001820161271757612717612696565b5060010190565b6020808252601d908201527f536166654f776e61626c653a2063616c6c6572206e6f74206f776e6572000000604082015260600190565b600081600019048311821515161561276f5761276f612696565b500290565b60006001600160ff1b038184138284138082168684048611161561279a5761279a612696565b600160ff1b60008712828116878305891216156127b9576127b9612696565b600087129250878205871284841616156127d5576127d5612696565b878505871281841616156127eb576127eb612696565b505050929093029392505050565b60008083128015600160ff1b85018412161561281757612817612696565b6001600160ff1b038401831381161561283257612832612696565b50500390565b600080821280156001600160ff1b038490038513161561285a5761285a612696565b600160ff1b839003841281161561287357612873612696565b50500190565b838152606081016004841061289e57634e487b7160e01b600052602160045260246000fd5b602082019390935260400152919050565b600062ffffff8083168181036128c7576128c7612696565b6001019392505050565b6000826128e0576128e06126c4565b600160ff1b8214600019841416156128fa576128fa612696565b500590565b60006020828403121561291157600080fd5b815161230981612575565b6000825161292e81846020870161247a565b919091019291505056fea26469706673582212204e487e8b82c293af7da705eaf448b1d280e08892f905db8eedf2aa3ada532c7564736f6c634300080f0033",
  "devdoc": {
    "kind": "dev",
    "methods": {
      "balanceOf(address)": {
        "details": "Adheres to the ERC20 `balanceOf` interface for Aragon compatibility",
        "params": {
          "addr": "User wallet address"
        },
        "returns": {
          "_0": "User voting power"
        }
      },
      "balanceOfAt(address,uint256)": {
        "details": "Adheres to MiniMe `balanceOfAt` interface: https://github.com/Giveth/minime",
        "params": {
          "addr": "User's wallet address",
          "blk": "Block to calculate the voting power at"
        },
        "returns": {
          "_0": "Voting power"
        }
      },
      "claimOwnership()": {
        "details": "pending owner call this function to claim ownership"
      },
      "constructor": {
        "params": {
          "name_": "Token name",
          "p12TokenAddr_": "`ERC20P12` token address",
          "symbol_": "Token symbol"
        }
      },
      "createLock(uint256,uint256)": {
        "params": {
          "unlockTime": "Epoch time when tokens unlock, rounded down to whole weeks",
          "value": "Amount to deposit"
        }
      },
      "depositFor(address,uint256)": {
        "details": "Anyone (even a smart contract) can deposit for someone else, but      cannot extend their lockTime and deposit for a brand new user",
        "params": {
          "addr": "User's wallet address",
          "value": "Amount to add to user's lock"
        }
      },
      "findBlockEpoch(uint256,uint256)": {
        "params": {
          "blk": "Block to find",
          "maxEpoch": "Don't go beyond this epoch"
        },
        "returns": {
          "_0": "Approximate timestamp for block"
        }
      },
      "getLastUserSlope(address)": {
        "params": {
          "addr": "Address of the user wallet"
        },
        "returns": {
          "_0": "Value of the slope"
        }
      },
      "increaseAmount(uint256)": {
        "params": {
          "value": "Amount of tokens to deposit and add to the lock"
        }
      },
      "increaseUnlockTime(uint256)": {
        "params": {
          "unlockTime": "New epoch time for unlocking"
        }
      },
      "lockedEnd(address)": {
        "params": {
          "addr": "User wallet"
        },
        "returns": {
          "_0": "Epoch time of the lock end"
        }
      },
      "owner()": {
        "details": "Returns the address of the current owner."
      },
      "paused()": {
        "details": "Returns true if the contract is paused, and false otherwise."
      },
      "pendingOwner()": {
        "details": "Return the address of the pending owner"
      },
      "renounceOwnership()": {
        "details": "Leaves the contract without owner. It will not be possible to call `onlyOwner` functions anymore. Can only be called by the current owner. NOTE: Renouncing ownership will leave the contract without an owner, thereby removing any functionality that is only available to the owner."
      },
      "totalSupply()": {
        "details": "Adheres to the ERC20 `totalSupply` interface for Aragon compatibility",
        "returns": {
          "_0": "Total voting power"
        }
      },
      "totalSupplyAt(uint256)": {
        "params": {
          "blk": "Block to calculate the total voting power at"
        },
        "returns": {
          "_0": "Total voting power at `_block`"
        }
      },
      "transferOwnership(address,bool)": {
        "details": "Transfers ownership of the contract to a new account (`newOwner`). Can only be called by the current owner. Note If direct is false, it will set an pending owner and the OwnerShipTransferring only happens when the pending owner claim the ownership"
      },
      "userPointHistoryTs(address,uint256)": {
        "params": {
          "addr": "User wallet address",
          "idx": "User epoch number"
        },
        "returns": {
          "_0": "Epoch time of the checkpoint"
        }
      },
      "withdraw()": {
        "details": "Only possible if the lock has expired or contract expired"
      }
    },
    "version": 1
  },
  "userdoc": {
    "kind": "user",
    "methods": {
      "balanceOf(address)": {
        "notice": "Get the current voting power for `msg.sender`"
      },
      "balanceOfAt(address,uint256)": {
        "notice": "Measure voting power of `addr` at block height `_block`"
      },
      "checkPoint()": {
        "notice": "Record global data to checkpoint"
      },
      "constructor": {
        "notice": "Contract constructor"
      },
      "createLock(uint256,uint256)": {
        "notice": "Deposit `value` tokens for `msg.sender` and lock until `unlock_time`"
      },
      "depositFor(address,uint256)": {
        "notice": "Deposit `value` tokens for `addr` and add to the lock"
      },
      "findBlockEpoch(uint256,uint256)": {
        "notice": "Binary search to estimate timestamp for block number"
      },
      "getLastUserSlope(address)": {
        "notice": "Get the most recently recorded rate of voting power decrease for `addr`"
      },
      "increaseAmount(uint256)": {
        "notice": "Deposit `value` additional tokens for `msg.sender`         without modifying the unlock time"
      },
      "increaseUnlockTime(uint256)": {
        "notice": "Extend the unlock time for `msg.sender` to `unlock_time`"
      },
      "lockedEnd(address)": {
        "notice": "Get timestamp when `addr`'s lock finishes"
      },
      "totalSupply()": {
        "notice": "Calculate total voting power"
      },
      "totalSupplyAt(uint256)": {
        "notice": "Calculate total voting power at some point in the past"
      },
      "userPointHistoryTs(address,uint256)": {
        "notice": "Get the timestamp for checkpoint `idx` for `addr`"
      },
      "withdraw()": {
        "notice": "Withdraw all tokens for `msg.sender`"
      }
    },
    "version": 1
  },
  "storageLayout": {
    "storage": [
      {
        "astId": 2113,
        "contract": "contracts/token/VotingEscrow.sol:VotingEscrow",
        "label": "_status",
        "offset": 0,
        "slot": "0",
        "type": "t_uint256"
      },
      {
        "astId": 8112,
        "contract": "contracts/token/VotingEscrow.sol:VotingEscrow",
        "label": "_owner",
        "offset": 0,
        "slot": "1",
        "type": "t_address"
      },
      {
        "astId": 8114,
        "contract": "contracts/token/VotingEscrow.sol:VotingEscrow",
        "label": "_pendingOwner",
        "offset": 0,
        "slot": "2",
        "type": "t_address"
      },
      {
        "astId": 2012,
        "contract": "contracts/token/VotingEscrow.sol:VotingEscrow",
        "label": "_paused",
        "offset": 20,
        "slot": "2",
        "type": "t_bool"
      },
      {
        "astId": 17383,
        "contract": "contracts/token/VotingEscrow.sol:VotingEscrow",
        "label": "p12Token",
        "offset": 0,
        "slot": "3",
        "type": "t_address"
      },
      {
        "astId": 17385,
        "contract": "contracts/token/VotingEscrow.sol:VotingEscrow",
        "label": "totalLockedP12",
        "offset": 0,
        "slot": "4",
        "type": "t_uint256"
      },
      {
        "astId": 17390,
        "contract": "contracts/token/VotingEscrow.sol:VotingEscrow",
        "label": "locked",
        "offset": 0,
        "slot": "5",
        "type": "t_mapping(t_address,t_struct(LockedBalance)17473_storage)"
      },
      {
        "astId": 17392,
        "contract": "contracts/token/VotingEscrow.sol:VotingEscrow",
        "label": "epoch",
        "offset": 0,
        "slot": "6",
        "type": "t_uint256"
      },
      {
        "astId": 17394,
        "contract": "contracts/token/VotingEscrow.sol:VotingEscrow",
        "label": "expired",
        "offset": 0,
        "slot": "7",
        "type": "t_bool"
      },
      {
        "astId": 17399,
        "contract": "contracts/token/VotingEscrow.sol:VotingEscrow",
        "label": "pointHistory",
        "offset": 0,
        "slot": "8",
        "type": "t_mapping(t_uint256,t_struct(Point)17468_storage)"
      },
      {
        "astId": 17406,
        "contract": "contracts/token/VotingEscrow.sol:VotingEscrow",
        "label": "userPointHistory",
        "offset": 0,
        "slot": "9",
        "type": "t_mapping(t_address,t_mapping(t_uint256,t_struct(Point)17468_storage))"
      },
      {
        "astId": 17410,
        "contract": "contracts/token/VotingEscrow.sol:VotingEscrow",
        "label": "userPointEpoch",
        "offset": 0,
        "slot": "10",
        "type": "t_mapping(t_address,t_uint256)"
      },
      {
        "astId": 17414,
        "contract": "contracts/token/VotingEscrow.sol:VotingEscrow",
        "label": "slopeChanges",
        "offset": 0,
        "slot": "11",
        "type": "t_mapping(t_uint256,t_int256)"
      },
      {
        "astId": 17416,
        "contract": "contracts/token/VotingEscrow.sol:VotingEscrow",
        "label": "name",
        "offset": 0,
        "slot": "12",
        "type": "t_string_storage"
      },
      {
        "astId": 17418,
        "contract": "contracts/token/VotingEscrow.sol:VotingEscrow",
        "label": "symbol",
        "offset": 0,
        "slot": "13",
        "type": "t_string_storage"
      }
    ],
    "types": {
      "t_address": {
        "encoding": "inplace",
        "label": "address",
        "numberOfBytes": "20"
      },
      "t_bool": {
        "encoding": "inplace",
        "label": "bool",
        "numberOfBytes": "1"
      },
      "t_int256": {
        "encoding": "inplace",
        "label": "int256",
        "numberOfBytes": "32"
      },
      "t_mapping(t_address,t_mapping(t_uint256,t_struct(Point)17468_storage))": {
        "encoding": "mapping",
        "key": "t_address",
        "label": "mapping(address => mapping(uint256 => struct VotingEscrow.Point))",
        "numberOfBytes": "32",
        "value": "t_mapping(t_uint256,t_struct(Point)17468_storage)"
      },
      "t_mapping(t_address,t_struct(LockedBalance)17473_storage)": {
        "encoding": "mapping",
        "key": "t_address",
        "label": "mapping(address => struct VotingEscrow.LockedBalance)",
        "numberOfBytes": "32",
        "value": "t_struct(LockedBalance)17473_storage"
      },
      "t_mapping(t_address,t_uint256)": {
        "encoding": "mapping",
        "key": "t_address",
        "label": "mapping(address => uint256)",
        "numberOfBytes": "32",
        "value": "t_uint256"
      },
      "t_mapping(t_uint256,t_int256)": {
        "encoding": "mapping",
        "key": "t_uint256",
        "label": "mapping(uint256 => int256)",
        "numberOfBytes": "32",
        "value": "t_int256"
      },
      "t_mapping(t_uint256,t_struct(Point)17468_storage)": {
        "encoding": "mapping",
        "key": "t_uint256",
        "label": "mapping(uint256 => struct VotingEscrow.Point)",
        "numberOfBytes": "32",
        "value": "t_struct(Point)17468_storage"
      },
      "t_string_storage": {
        "encoding": "bytes",
        "label": "string",
        "numberOfBytes": "32"
      },
      "t_struct(LockedBalance)17473_storage": {
        "encoding": "inplace",
        "label": "struct VotingEscrow.LockedBalance",
        "members": [
          {
            "astId": 17470,
            "contract": "contracts/token/VotingEscrow.sol:VotingEscrow",
            "label": "amount",
            "offset": 0,
            "slot": "0",
            "type": "t_int256"
          },
          {
            "astId": 17472,
            "contract": "contracts/token/VotingEscrow.sol:VotingEscrow",
            "label": "end",
            "offset": 0,
            "slot": "1",
            "type": "t_uint256"
          }
        ],
        "numberOfBytes": "64"
      },
      "t_struct(Point)17468_storage": {
        "encoding": "inplace",
        "label": "struct VotingEscrow.Point",
        "members": [
          {
            "astId": 17461,
            "contract": "contracts/token/VotingEscrow.sol:VotingEscrow",
            "label": "bias",
            "offset": 0,
            "slot": "0",
            "type": "t_int256"
          },
          {
            "astId": 17463,
            "contract": "contracts/token/VotingEscrow.sol:VotingEscrow",
            "label": "slope",
            "offset": 0,
            "slot": "1",
            "type": "t_int256"
          },
          {
            "astId": 17465,
            "contract": "contracts/token/VotingEscrow.sol:VotingEscrow",
            "label": "ts",
            "offset": 0,
            "slot": "2",
            "type": "t_uint256"
          },
          {
            "astId": 17467,
            "contract": "contracts/token/VotingEscrow.sol:VotingEscrow",
            "label": "blk",
            "offset": 0,
            "slot": "3",
            "type": "t_uint256"
          }
        ],
        "numberOfBytes": "128"
      },
      "t_uint256": {
        "encoding": "inplace",
        "label": "uint256",
        "numberOfBytes": "32"
      }
    }
  }
}