{
  "address": "0x74C65bC47b4e5F39b1128CAdCE8c37094cEc6014",
  "abi": [
    {
      "anonymous": false,
      "inputs": [
        {
          "indexed": false,
          "internalType": "address",
          "name": "previousAdmin",
          "type": "address"
        },
        {
          "indexed": false,
          "internalType": "address",
          "name": "newAdmin",
          "type": "address"
        }
      ],
      "name": "AdminChanged",
      "type": "event"
    },
    {
      "anonymous": false,
      "inputs": [
        {
          "indexed": true,
          "internalType": "address",
          "name": "beacon",
          "type": "address"
        }
      ],
      "name": "BeaconUpgraded",
      "type": "event"
    },
    {
      "anonymous": false,
      "inputs": [
        {
          "indexed": true,
          "internalType": "address",
          "name": "lpToken",
          "type": "address"
        },
        {
          "indexed": true,
          "internalType": "uint256",
          "name": "poolAmount",
          "type": "uint256"
        },
        {
          "indexed": false,
          "internalType": "uint256",
          "name": "accP12PerShare",
          "type": "uint256"
        }
      ],
      "name": "Checkpoint",
      "type": "event"
    },
    {
      "anonymous": false,
      "inputs": [
        {
          "indexed": true,
          "internalType": "address",
          "name": "user",
          "type": "address"
        },
        {
          "indexed": false,
          "internalType": "uint256",
          "name": "amount",
          "type": "uint256"
        }
      ],
      "name": "Claim",
      "type": "event"
    },
    {
      "anonymous": false,
      "inputs": [
        {
          "indexed": true,
          "internalType": "address",
          "name": "user",
          "type": "address"
        },
        {
          "indexed": true,
          "internalType": "uint256",
          "name": "pid",
          "type": "uint256"
        },
        {
          "indexed": false,
          "internalType": "uint256",
          "name": "amount",
          "type": "uint256"
        },
        {
          "indexed": false,
          "internalType": "uint256",
          "name": "userAmount",
          "type": "uint256"
        },
        {
          "indexed": false,
          "internalType": "uint256",
          "name": "poolAmount",
          "type": "uint256"
        }
      ],
      "name": "Deposit",
      "type": "event"
    },
    {
      "anonymous": false,
      "inputs": [
        {
          "indexed": false,
          "internalType": "address",
          "name": "executor",
          "type": "address"
        },
        {
          "indexed": false,
          "internalType": "uint256",
          "name": "emergencyUnlockTime",
          "type": "uint256"
        }
      ],
      "name": "Emergency",
      "type": "event"
    },
    {
      "anonymous": false,
      "inputs": [
        {
          "indexed": true,
          "internalType": "address",
          "name": "user",
          "type": "address"
        },
        {
          "indexed": true,
          "internalType": "uint256",
          "name": "pid",
          "type": "uint256"
        },
        {
          "indexed": true,
          "internalType": "bytes32",
          "name": "withdrawId",
          "type": "bytes32"
        },
        {
          "indexed": false,
          "internalType": "uint256",
          "name": "amount",
          "type": "uint256"
        },
        {
          "indexed": false,
          "internalType": "uint256",
          "name": "userAmount",
          "type": "uint256"
        },
        {
          "indexed": false,
          "internalType": "uint256",
          "name": "poolAmount",
          "type": "uint256"
        }
      ],
      "name": "ExecuteWithdraw",
      "type": "event"
    },
    {
      "anonymous": false,
      "inputs": [
        {
          "indexed": false,
          "internalType": "uint8",
          "name": "version",
          "type": "uint8"
        }
      ],
      "name": "Initialized",
      "type": "event"
    },
    {
      "anonymous": false,
      "inputs": [
        {
          "indexed": true,
          "internalType": "address",
          "name": "previousOwner",
          "type": "address"
        },
        {
          "indexed": true,
          "internalType": "address",
          "name": "newOwner",
          "type": "address"
        }
      ],
      "name": "OwnershipTransferred",
      "type": "event"
    },
    {
      "anonymous": false,
      "inputs": [
        {
          "indexed": false,
          "internalType": "address",
          "name": "account",
          "type": "address"
        }
      ],
      "name": "Paused",
      "type": "event"
    },
    {
      "anonymous": false,
      "inputs": [
        {
          "indexed": true,
          "internalType": "address",
          "name": "user",
          "type": "address"
        },
        {
          "indexed": false,
          "internalType": "uint256",
          "name": "pid",
          "type": "uint256"
        },
        {
          "indexed": true,
          "internalType": "uint256",
          "name": "amount",
          "type": "uint256"
        },
        {
          "indexed": true,
          "internalType": "bytes32",
          "name": "newWithdrawId",
          "type": "bytes32"
        },
        {
          "indexed": false,
          "internalType": "uint256",
          "name": "unlockTimestamp",
          "type": "uint256"
        }
      ],
      "name": "QueueWithdraw",
      "type": "event"
    },
    {
      "anonymous": false,
      "inputs": [
        {
          "indexed": false,
          "internalType": "uint256",
          "name": "oldDelayB",
          "type": "uint256"
        },
        {
          "indexed": false,
          "internalType": "uint256",
          "name": "newDelayB",
          "type": "uint256"
        }
      ],
      "name": "SetDelayB",
      "type": "event"
    },
    {
      "anonymous": false,
      "inputs": [
        {
          "indexed": false,
          "internalType": "uint256",
          "name": "oldDelayK",
          "type": "uint256"
        },
        {
          "indexed": false,
          "internalType": "uint256",
          "name": "newDelayK",
          "type": "uint256"
        }
      ],
      "name": "SetDelayK",
      "type": "event"
    },
    {
      "anonymous": false,
      "inputs": [
        {
          "indexed": false,
          "internalType": "contract IGaugeController",
          "name": "oldGaugeController",
          "type": "address"
        },
        {
          "indexed": false,
          "internalType": "contract IGaugeController",
          "name": "newGaugeController",
          "type": "address"
        }
      ],
      "name": "SetGaugeController",
      "type": "event"
    },
    {
      "anonymous": false,
      "inputs": [
        {
          "indexed": false,
          "internalType": "address",
          "name": "oldP12Factory",
          "type": "address"
        },
        {
          "indexed": false,
          "internalType": "address",
          "name": "newP12Factory",
          "type": "address"
        }
      ],
      "name": "SetP12Factory",
      "type": "event"
    },
    {
      "anonymous": false,
      "inputs": [
        {
          "indexed": false,
          "internalType": "uint256",
          "name": "oldRate",
          "type": "uint256"
        },
        {
          "indexed": false,
          "internalType": "uint256",
          "name": "newRate",
          "type": "uint256"
        }
      ],
      "name": "SetRate",
      "type": "event"
    },
    {
      "anonymous": false,
      "inputs": [
        {
          "indexed": false,
          "internalType": "address",
          "name": "account",
          "type": "address"
        }
      ],
      "name": "Unpaused",
      "type": "event"
    },
    {
      "anonymous": false,
      "inputs": [
        {
          "indexed": true,
          "internalType": "address",
          "name": "implementation",
          "type": "address"
        }
      ],
      "name": "Upgraded",
      "type": "event"
    },
    {
      "anonymous": false,
      "inputs": [
        {
          "indexed": false,
          "internalType": "address",
          "name": "lpToken",
          "type": "address"
        },
        {
          "indexed": false,
          "internalType": "uint256",
          "name": "amount",
          "type": "uint256"
        }
      ],
      "name": "WithdrawLpTokenEmergency",
      "type": "event"
    },
    {
      "inputs": [],
      "name": "ONE",
      "outputs": [
        {
          "internalType": "uint256",
          "name": "",
          "type": "uint256"
        }
      ],
      "stateMutability": "view",
      "type": "function"
    },
    {
      "inputs": [],
      "name": "WEEK",
      "outputs": [
        {
          "internalType": "uint256",
          "name": "",
          "type": "uint256"
        }
      ],
      "stateMutability": "view",
      "type": "function"
    },
    {
      "inputs": [
        {
          "internalType": "address",
          "name": "lpToken",
          "type": "address"
        },
        {
          "internalType": "uint256",
          "name": "amount",
          "type": "uint256"
        },
        {
          "internalType": "address",
          "name": "gameCoinCreator",
          "type": "address"
        }
      ],
      "name": "addLpTokenInfoForGameCreator",
      "outputs": [],
      "stateMutability": "nonpayable",
      "type": "function"
    },
    {
      "inputs": [
        {
          "internalType": "address",
          "name": "lpToken",
          "type": "address"
        }
      ],
      "name": "checkpoint",
      "outputs": [],
      "stateMutability": "nonpayable",
      "type": "function"
    },
    {
      "inputs": [],
      "name": "checkpointAll",
      "outputs": [],
      "stateMutability": "nonpayable",
      "type": "function"
    },
    {
      "inputs": [
        {
          "internalType": "address",
          "name": "lpToken",
          "type": "address"
        }
      ],
      "name": "claim",
      "outputs": [
        {
          "internalType": "uint256",
          "name": "",
          "type": "uint256"
        }
      ],
      "stateMutability": "nonpayable",
      "type": "function"
    },
    {
      "inputs": [],
      "name": "claimAll",
      "outputs": [
        {
          "internalType": "uint256",
          "name": "",
          "type": "uint256"
        }
      ],
      "stateMutability": "nonpayable",
      "type": "function"
    },
    {
      "inputs": [],
      "name": "claimOwnership",
      "outputs": [],
      "stateMutability": "nonpayable",
      "type": "function"
    },
    {
      "inputs": [
        {
          "internalType": "address",
          "name": "lpToken",
          "type": "address"
        }
      ],
      "name": "createPool",
      "outputs": [],
      "stateMutability": "nonpayable",
      "type": "function"
    },
    {
      "inputs": [],
      "name": "delayB",
      "outputs": [
        {
          "internalType": "uint256",
          "name": "",
          "type": "uint256"
        }
      ],
      "stateMutability": "view",
      "type": "function"
    },
    {
      "inputs": [],
      "name": "delayK",
      "outputs": [
        {
          "internalType": "uint256",
          "name": "",
          "type": "uint256"
        }
      ],
      "stateMutability": "view",
      "type": "function"
    },
    {
      "inputs": [
        {
          "internalType": "address",
          "name": "lpToken",
          "type": "address"
        },
        {
          "internalType": "uint256",
          "name": "amount",
          "type": "uint256"
        }
      ],
      "name": "deposit",
      "outputs": [],
      "stateMutability": "nonpayable",
      "type": "function"
    },
    {
      "inputs": [],
      "name": "emergency",
      "outputs": [],
      "stateMutability": "nonpayable",
      "type": "function"
    },
    {
      "inputs": [],
      "name": "emergencyUnlockTime",
      "outputs": [
        {
          "internalType": "uint256",
          "name": "",
          "type": "uint256"
        }
      ],
      "stateMutability": "view",
      "type": "function"
    },
    {
      "inputs": [
        {
          "internalType": "address",
          "name": "lpToken",
          "type": "address"
        },
        {
          "internalType": "bytes32",
          "name": "id",
          "type": "bytes32"
        }
      ],
      "name": "executeWithdraw",
      "outputs": [],
      "stateMutability": "nonpayable",
      "type": "function"
    },
    {
      "inputs": [],
      "name": "gaugeController",
      "outputs": [
        {
          "internalType": "contract IGaugeController",
          "name": "",
          "type": "address"
        }
      ],
      "stateMutability": "view",
      "type": "function"
    },
    {
      "inputs": [
        {
          "internalType": "address",
          "name": "lpToken",
          "type": "address"
        }
      ],
      "name": "getPid",
      "outputs": [
        {
          "internalType": "uint256",
          "name": "",
          "type": "uint256"
        }
      ],
      "stateMutability": "view",
      "type": "function"
    },
    {
      "inputs": [
        {
          "internalType": "address",
          "name": "lpToken",
          "type": "address"
        },
        {
          "internalType": "address",
          "name": "user",
          "type": "address"
        }
      ],
      "name": "getUserLpBalance",
      "outputs": [
        {
          "internalType": "uint256",
          "name": "",
          "type": "uint256"
        }
      ],
      "stateMutability": "view",
      "type": "function"
    },
    {
      "inputs": [
        {
          "internalType": "address",
          "name": "lpToken",
          "type": "address"
        },
        {
          "internalType": "uint256",
          "name": "amount",
          "type": "uint256"
        }
      ],
      "name": "getWithdrawUnlockTimestamp",
      "outputs": [
        {
          "internalType": "uint256",
          "name": "",
          "type": "uint256"
        }
      ],
      "stateMutability": "view",
      "type": "function"
    },
    {
      "inputs": [
        {
          "internalType": "address",
          "name": "p12Token_",
          "type": "address"
        },
        {
          "internalType": "address",
          "name": "p12CoinFactory_",
          "type": "address"
        },
        {
          "internalType": "contract IGaugeController",
          "name": "gaugeController_",
          "type": "address"
        },
        {
          "internalType": "uint256",
          "name": "delayK_",
          "type": "uint256"
        },
        {
          "internalType": "uint256",
          "name": "delayB_",
          "type": "uint256"
        },
        {
          "internalType": "uint256",
          "name": "rate_",
          "type": "uint256"
        }
      ],
      "name": "initialize",
      "outputs": [],
      "stateMutability": "nonpayable",
      "type": "function"
    },
    {
      "inputs": [],
      "name": "isEmergency",
      "outputs": [
        {
          "internalType": "bool",
          "name": "",
          "type": "bool"
        }
      ],
      "stateMutability": "view",
      "type": "function"
    },
    {
      "inputs": [
        {
          "internalType": "address",
          "name": "",
          "type": "address"
        }
      ],
      "name": "lpTokenRegistry",
      "outputs": [
        {
          "internalType": "uint256",
          "name": "",
          "type": "uint256"
        }
      ],
      "stateMutability": "view",
      "type": "function"
    },
    {
      "inputs": [],
      "name": "owner",
      "outputs": [
        {
          "internalType": "address",
          "name": "",
          "type": "address"
        }
      ],
      "stateMutability": "view",
      "type": "function"
    },
    {
      "inputs": [],
      "name": "p12CoinFactory",
      "outputs": [
        {
          "internalType": "address",
          "name": "",
          "type": "address"
        }
      ],
      "stateMutability": "view",
      "type": "function"
    },
    {
      "inputs": [],
      "name": "p12RewardVault",
      "outputs": [
        {
          "internalType": "contract IP12RewardVault",
          "name": "",
          "type": "address"
        }
      ],
      "stateMutability": "view",
      "type": "function"
    },
    {
      "inputs": [],
      "name": "p12Token",
      "outputs": [
        {
          "internalType": "address",
          "name": "",
          "type": "address"
        }
      ],
      "stateMutability": "view",
      "type": "function"
    },
    {
      "inputs": [],
      "name": "pause",
      "outputs": [],
      "stateMutability": "nonpayable",
      "type": "function"
    },
    {
      "inputs": [],
      "name": "paused",
      "outputs": [
        {
          "internalType": "bool",
          "name": "",
          "type": "bool"
        }
      ],
      "stateMutability": "view",
      "type": "function"
    },
    {
      "inputs": [],
      "name": "pendingOwner",
      "outputs": [
        {
          "internalType": "address",
          "name": "",
          "type": "address"
        }
      ],
      "stateMutability": "view",
      "type": "function"
    },
    {
      "inputs": [
        {
          "internalType": "address",
          "name": "",
          "type": "address"
        },
        {
          "internalType": "uint256",
          "name": "",
          "type": "uint256"
        }
      ],
      "name": "periodTimestamp",
      "outputs": [
        {
          "internalType": "uint256",
          "name": "",
          "type": "uint256"
        }
      ],
      "stateMutability": "view",
      "type": "function"
    },
    {
      "inputs": [
        {
          "internalType": "uint256",
          "name": "",
          "type": "uint256"
        }
      ],
      "name": "poolInfos",
      "outputs": [
        {
          "internalType": "address",
          "name": "lpToken",
          "type": "address"
        },
        {
          "internalType": "uint256",
          "name": "accP12PerShare",
          "type": "uint256"
        },
        {
          "internalType": "uint256",
          "name": "amount",
          "type": "uint256"
        },
        {
          "internalType": "uint256",
          "name": "period",
          "type": "uint256"
        }
      ],
      "stateMutability": "view",
      "type": "function"
    },
    {
      "inputs": [],
      "name": "poolLength",
      "outputs": [
        {
          "internalType": "uint256",
          "name": "",
          "type": "uint256"
        }
      ],
      "stateMutability": "view",
      "type": "function"
    },
    {
      "inputs": [
        {
          "internalType": "address",
          "name": "",
          "type": "address"
        }
      ],
      "name": "preWithdrawIds",
      "outputs": [
        {
          "internalType": "bytes32",
          "name": "",
          "type": "bytes32"
        }
      ],
      "stateMutability": "view",
      "type": "function"
    },
    {
      "inputs": [],
      "name": "proxiableUUID",
      "outputs": [
        {
          "internalType": "bytes32",
          "name": "",
          "type": "bytes32"
        }
      ],
      "stateMutability": "view",
      "type": "function"
    },
    {
      "inputs": [
        {
          "internalType": "address",
          "name": "lpToken",
          "type": "address"
        },
        {
          "internalType": "uint256",
          "name": "amount",
          "type": "uint256"
        }
      ],
      "name": "queueWithdraw",
      "outputs": [],
      "stateMutability": "nonpayable",
      "type": "function"
    },
    {
      "inputs": [],
      "name": "rate",
      "outputs": [
        {
          "internalType": "uint256",
          "name": "",
          "type": "uint256"
        }
      ],
      "stateMutability": "view",
      "type": "function"
    },
    {
      "inputs": [
        {
          "internalType": "address",
          "name": "",
          "type": "address"
        }
      ],
      "name": "realizedReward",
      "outputs": [
        {
          "internalType": "uint256",
          "name": "",
          "type": "uint256"
        }
      ],
      "stateMutability": "view",
      "type": "function"
    },
    {
      "inputs": [],
      "name": "renounceOwnership",
      "outputs": [],
      "stateMutability": "nonpayable",
      "type": "function"
    },
    {
      "inputs": [
        {
          "internalType": "uint256",
          "name": "newDelayB",
          "type": "uint256"
        }
      ],
      "name": "setDelayB",
      "outputs": [
        {
          "internalType": "bool",
          "name": "",
          "type": "bool"
        }
      ],
      "stateMutability": "nonpayable",
      "type": "function"
    },
    {
      "inputs": [
        {
          "internalType": "uint256",
          "name": "newDelayK",
          "type": "uint256"
        }
      ],
      "name": "setDelayK",
      "outputs": [
        {
          "internalType": "bool",
          "name": "",
          "type": "bool"
        }
      ],
      "stateMutability": "nonpayable",
      "type": "function"
    },
    {
      "inputs": [
        {
          "internalType": "contract IGaugeController",
          "name": "newGaugeController",
          "type": "address"
        }
      ],
      "name": "setGaugeController",
      "outputs": [],
      "stateMutability": "nonpayable",
      "type": "function"
    },
    {
      "inputs": [
        {
          "internalType": "address",
          "name": "newP12CoinFactory",
          "type": "address"
        }
      ],
      "name": "setP12CoinFactory",
      "outputs": [],
      "stateMutability": "nonpayable",
      "type": "function"
    },
    {
      "inputs": [
        {
          "internalType": "uint256",
          "name": "newRate",
          "type": "uint256"
        }
      ],
      "name": "setRate",
      "outputs": [
        {
          "internalType": "bool",
          "name": "",
          "type": "bool"
        }
      ],
      "stateMutability": "nonpayable",
      "type": "function"
    },
    {
      "inputs": [
        {
          "internalType": "address",
          "name": "newOwner",
          "type": "address"
        },
        {
          "internalType": "bool",
          "name": "direct",
          "type": "bool"
        }
      ],
      "name": "transferOwnership",
      "outputs": [],
      "stateMutability": "nonpayable",
      "type": "function"
    },
    {
      "inputs": [],
      "name": "unpause",
      "outputs": [],
      "stateMutability": "nonpayable",
      "type": "function"
    },
    {
      "inputs": [
        {
          "internalType": "address",
          "name": "newImplementation",
          "type": "address"
        }
      ],
      "name": "upgradeTo",
      "outputs": [],
      "stateMutability": "nonpayable",
      "type": "function"
    },
    {
      "inputs": [
        {
          "internalType": "address",
          "name": "newImplementation",
          "type": "address"
        },
        {
          "internalType": "bytes",
          "name": "data",
          "type": "bytes"
        }
      ],
      "name": "upgradeToAndCall",
      "outputs": [],
      "stateMutability": "payable",
      "type": "function"
    },
    {
      "inputs": [
        {
          "internalType": "uint256",
          "name": "",
          "type": "uint256"
        },
        {
          "internalType": "address",
          "name": "",
          "type": "address"
        }
      ],
      "name": "userInfo",
      "outputs": [
        {
          "internalType": "uint256",
          "name": "amount",
          "type": "uint256"
        },
        {
          "internalType": "uint256",
          "name": "rewardDebt",
          "type": "uint256"
        }
      ],
      "stateMutability": "view",
      "type": "function"
    },
    {
      "inputs": [],
      "name": "withdrawAllLpTokenEmergency",
      "outputs": [],
      "stateMutability": "nonpayable",
      "type": "function"
    },
    {
      "inputs": [],
      "name": "withdrawEmergency",
      "outputs": [],
      "stateMutability": "nonpayable",
      "type": "function"
    },
    {
      "inputs": [
        {
          "internalType": "address",
          "name": "",
          "type": "address"
        },
        {
          "internalType": "bytes32",
          "name": "",
          "type": "bytes32"
        }
      ],
      "name": "withdrawInfos",
      "outputs": [
        {
          "internalType": "address",
          "name": "who",
          "type": "address"
        },
        {
          "internalType": "uint256",
          "name": "amount",
          "type": "uint256"
        },
        {
          "internalType": "uint256",
          "name": "unlockTimestamp",
          "type": "uint256"
        },
        {
          "internalType": "bool",
          "name": "executed",
          "type": "bool"
        }
      ],
      "stateMutability": "view",
      "type": "function"
    },
    {
      "inputs": [
        {
          "internalType": "address",
          "name": "lpToken",
          "type": "address"
        }
      ],
      "name": "withdrawLpTokenEmergency",
      "outputs": [],
      "stateMutability": "nonpayable",
      "type": "function"
    }
  ],
  "transactionHash": "0x64f20f30c514d7b6745b9a5898491f31759a86f1cabdfb4a8ed914845e26e8fa",
  "args": [],
  "numDeployments": 1,
  "solcInputHash": "4469ca789cc903d41586c7b01477b622",
  "bytecode": "0x60a06040523060805234801561001457600080fd5b50608051614b5261004c60003960008181611171015281816111b401528181611788015281816117cb01526118630152614b526000f3fe6080604052600436106200033e5760003560e01c8063689d84e411620001b1578063afdbf3c211620000ee578063caa6fea411620000a1578063e48f427b1162000078578063e48f427b1462000a6c578063ea4b4ca31462000a84578063ec83a76a1462000aa9578063f4359ce51462000ada57600080fd5b8063caa6fea41462000a1c578063d1058e591462000a34578063e30c39781462000a4c57600080fd5b8063afdbf3c214620008df578063b242e5341462000904578063b309bc981462000929578063b3868125146200094e578063c2ee3a0814620009d9578063c36b286e14620009f757600080fd5b80638b7c37a3116200016457806393f1a40b116200013b57806393f1a40b146200081a57806399eecb3b1462000873578063a24ed7421462000895578063a972985e14620008ba57600080fd5b80638b7c37a314620007b35780638da5cb5b14620007d55780639049f9d214620007f557600080fd5b8063689d84e414620006d1578063715018a61462000721578063728cdbca14620007395780637e183ba0146200075e5780638456cb5914620007835780638983727c146200079b57600080fd5b80633d16433e11620002805780634e13acc7116200023357806352d1902d116200020a57806352d1902d146200066a5780635c975abb14620006825780635f9e8f82146200069d578063614bb60a14620006b957600080fd5b80634e13acc7146200060a5780634e71e0c8146200063b5780634f1ef286146200065357600080fd5b80633d16433e14620005475780633f4ba83a14620005785780634016634014620005905780634146a07314620005a857806343b55f3514620005c057806347e7ef2414620005e557600080fd5b80632b57474d11620002f65780632f321b7111620002cd5780632f321b7114620004a557806334fcf43714620004ca5780633659cfe614620005005780633cd784f1146200052557600080fd5b80632b57474d14620004395780632bf6c5bc14620004755780632c4e722e146200048d57600080fd5b806291d2b81462000343578063081e3eda146200036a5780630f48fa5f146200038f57806319a78f5514620003b45780631e83409a14620003d957806320fe4adc14620003fe575b600080fd5b3480156200035057600080fd5b50620003686200036236600462003a2f565b62000af3565b005b3480156200037757600080fd5b506007545b6040519081526020015b60405180910390f35b3480156200039c57600080fd5b506200037c620003ae36600462003a4f565b62000be8565b348015620003c157600080fd5b506200037c620003d336600462003a7e565b62000d44565b348015620003e657600080fd5b506200037c620003f836600462003a2f565b62000d7e565b3480156200040b57600080fd5b5060035462000420906001600160a01b031681565b6040516001600160a01b03909116815260200162000386565b3480156200044657600080fd5b506200037c6200045836600462003a4f565b603560209081526000928352604080842090915290825290205481565b3480156200048257600080fd5b506200037c60095481565b3480156200049a57600080fd5b506200037c60065481565b348015620004b257600080fd5b5062000368620004c436600462003a2f565b62000f04565b348015620004d757600080fd5b50620004ef620004e936600462003abc565b620010e2565b604051901515815260200162000386565b3480156200050d57600080fd5b50620003686200051f36600462003a2f565b62001167565b3480156200053257600080fd5b5060005462000420906001600160a01b031681565b3480156200055457600080fd5b506200037c6200056636600462003a2f565b60326020526000908152604090205481565b3480156200058557600080fd5b506200036862001252565b3480156200059d57600080fd5b50620003686200128b565b348015620005b557600080fd5b506200036862001346565b348015620005cd57600080fd5b506200037c620005df36600462003a2f565b62001474565b348015620005f257600080fd5b50620003686200060436600462003a4f565b6200150b565b3480156200061757600080fd5b506200037c6200062936600462003a2f565b60366020526000908152604090205481565b3480156200064857600080fd5b506200036862001718565b620003686200066436600462003aec565b6200177e565b3480156200067757600080fd5b506200037c62001856565b3480156200068f57600080fd5b506101335460ff16620004ef565b348015620006aa57600080fd5b50600854620004ef9060ff1681565b348015620006c657600080fd5b506200037c60055481565b348015620006de57600080fd5b50620006f6620006f036600462003abc565b6200190c565b604080516001600160a01b039095168552602085019390935291830152606082015260800162000386565b3480156200072e57600080fd5b506200036862001951565b3480156200074657600080fd5b50620003686200075836600462003bbc565b6200198a565b3480156200076b57600080fd5b50620003686200077d36600462003a2f565b62001be9565b3480156200079057600080fd5b506200036862001c9f565b348015620007a857600080fd5b506200036862001cd6565b348015620007c057600080fd5b5060015462000420906001600160a01b031681565b348015620007e257600080fd5b5060cf546001600160a01b031662000420565b3480156200080257600080fd5b50620003686200081436600462003a2f565b62001d05565b3480156200082757600080fd5b506200085d6200083936600462003c28565b60336020908152600092835260408084209091529082529020805460019091015482565b6040805192835260208301919091520162000386565b3480156200088057600080fd5b5060025462000420906001600160a01b031681565b348015620008a257600080fd5b5062000368620008b436600462003a4f565b62001eff565b348015620008c757600080fd5b5062000368620008d936600462003a2f565b620022f2565b348015620008ec57600080fd5b50620004ef620008fe36600462003abc565b6200230c565b3480156200091157600080fd5b50620003686200092336600462003c5f565b6200237b565b3480156200093657600080fd5b50620004ef6200094836600462003abc565b62002431565b3480156200095b57600080fd5b50620009ac6200096d36600462003a4f565b603760209081526000928352604080842090915290825290208054600182015460028301546003909301546001600160a01b0390921692909160ff1684565b604080516001600160a01b0390951685526020850193909352918301521515606082015260800162000386565b348015620009e657600080fd5b506200037c670de0b6b3a764000081565b34801562000a0457600080fd5b506200036862000a1636600462003c92565b620024a0565b34801562000a2957600080fd5b506200036862002750565b34801562000a4157600080fd5b506200037c62002831565b34801562000a5957600080fd5b5060d0546001600160a01b031662000420565b34801562000a7957600080fd5b506200037c60045481565b34801562000a9157600080fd5b506200036862000aa336600462003a4f565b6200298c565b34801562000ab657600080fd5b506200037c62000ac836600462003a2f565b60346020526000908152604090205481565b34801562000ae757600080fd5b506200037c62093a8081565b60cf546001600160a01b0316331462000b295760405162461bcd60e51b815260040162000b209062003cd9565b60405180910390fd5b6002546001600160a01b0390811690821662000b885760405162461bcd60e51b815260206004820152601760248201527f5031324d696e653a2067632063616e6e6f742062652030000000000000000000604482015260640162000b20565b600280546001600160a01b0319166001600160a01b0384811691821790925560408051928416835260208301919091527f9b1ae61f53f47914159f1f1397501254f37fc99c47286e6b059ce40b382bf0b491015b60405180910390a15050565b60008062000bf68462001474565b905060006007828154811062000c105762000c1062003d10565b6000918252602080832060408051608081018252600490940290910180546001600160a01b0390811685526001820154858501526002808301548685015260039092015460608601528a168552603683528185205460378452828620818752909352908420015491935042918083101562000c8c578062000c8e565b825b9350600060055486600001516001600160a01b03166318160ddd6040518163ffffffff1660e01b8152600401602060405180830381865afa15801562000cd8573d6000803e3d6000fd5b505050506040513d601f19601f8201168201806040525081019062000cfe919062003d26565b60045462000d0d908c62003d56565b62000d19919062003d78565b62000d25919062003d9b565b9050600062000d35868362003d9b565b9b9a5050505050505050505050565b60008062000d528462001474565b60009081526033602090815260408083206001600160a01b038716845290915290205491505092915050565b60006002610101540362000da65760405162461bcd60e51b815260040162000b209062003db6565b60026101015562000db662002c1e565b600062000dc38362001474565b600081815260336020908152604080832033845290915290205490915062000e2e5760405162461bcd60e51b815260206004820152601860248201527f5031324d696e653a206e6f207374616b656420746f6b656e0000000000000000604482015260640162000b20565b60006007828154811062000e465762000e4662003d10565b6000918252602080832085845260338252604080852033865290925292206004909102909101915062000e798362002c67565b60008160010154670de0b6b3a76400008460010154846000015462000e9f919062003d56565b62000eab919062003d78565b62000eb7919062003ded565b9050670de0b6b3a76400008360010154836000015462000ed8919062003d56565b62000ee4919062003d78565b600183015562000ef5338262002fed565b60016101015595945050505050565b6002610101540362000f2a5760405162461bcd60e51b815260040162000b209062003db6565b60026101015560085460ff1662000f805760405162461bcd60e51b81526020600482015260196024820152785031324d696e653a206e6f20656d657267656e6379206e6f7760381b604482015260640162000b20565b60095442101562000fd05760405162461bcd60e51b8152602060048201526019602482015278140c4c935a5b994e881b9bdd081d5b9b1bd8dad959081e595d603a1b604482015260640162000b20565b600062000fdd8262001474565b905060006007828154811062000ff75762000ff762003d10565b6000918252602080832085845260338252604080852033865290925292208054600490920290920192506200106f5760405162461bcd60e51b815260206004820152601c60248201527f5031324d696e653a20776974686f757420616e79206c70546f6b656e00000000604482015260640162000b20565b805460008083556001830155825462001093906001600160a01b03163383620030d7565b604080516001600160a01b0387168152602081018390527fdbf7eb12dbcd8a10d5042f573e98fb78d4d13563e2591a961fc35b6d6c2b7841910160405180910390a15050600161010155505050565b60cf546000906001600160a01b03163314620011125760405162461bcd60e51b815260040162000b209062003cd9565b60068054908390556200112462001cd6565b60408051828152602081018590527f3a8f7e78fe36c54b4f888a309efa91eba128acb04cc1c2ffa0e5c4db7b4a878591015b60405180910390a150600192915050565b6001600160a01b037f0000000000000000000000000000000000000000000000000000000000000000163003620011b25760405162461bcd60e51b815260040162000b209062003e07565b7f00000000000000000000000000000000000000000000000000000000000000006001600160a01b0316620011fd60008051602062004ad6833981519152546001600160a01b031690565b6001600160a01b031614620012265760405162461bcd60e51b815260040162000b209062003e53565b620012318162003141565b604080516000808252602082019092526200124f918391906200316e565b50565b60cf546001600160a01b031633146200127f5760405162461bcd60e51b815260040162000b209062003cd9565b62001289620032e6565b565b60075460005b8181101562001342576000818152603360209081526040808320338452909152902054156200132d57600060078281548110620012d257620012d262003d10565b600091825260209182902060408051608081018252600490930290910180546001600160a01b031680845260018201549484019490945260028101549183019190915260030154606082015291506200132b9062000f04565b505b80620013398162003e9f565b91505062001291565b5050565b60cf546001600160a01b03163314620013735760405162461bcd60e51b815260040162000b209062003cd9565b60085460ff16620013c35760405162461bcd60e51b81526020600482015260196024820152785031324d696e653a206e6f20656d657267656e6379206e6f7760381b604482015260640162000b20565b600954421015620014135760405162461bcd60e51b8152602060048201526019602482015278140c4c935a5b994e881b9bdd081d5b9b1bd8dad959081e595d603a1b604482015260640162000b20565b6003546040516350e0278760e11b81523360048201526001600160a01b039091169063a1c04f0e90602401600060405180830381600087803b1580156200145957600080fd5b505af11580156200146e573d6000803e3d6000fd5b50505050565b6001600160a01b0381166000908152603260205260408120548290620014dd5760405162461bcd60e51b815260206004820152601b60248201527f5031324d696e653a204c5020546f6b656e204e6f742045786973740000000000604482015260640162000b20565b6001600160a01b038316600090815260326020526040902054620015049060019062003ded565b9392505050565b6200151562002c1e565b600261010154036200153b5760405162461bcd60e51b815260040162000b209062003db6565b60026101015560006200154e8362001474565b905060006007828154811062001568576200156862003d10565b600091825260208083208584526033825260408085203386529092529220600490910290910191506200159b8362002c67565b805415620015f15760008160010154670de0b6b3a764000084600101548460000154620015c9919062003d56565b620015d5919062003d78565b620015e1919062003ded565b9050620015ef338262002fed565b505b83600003620016435760405162461bcd60e51b815260206004820152601860248201527f5031324d696e653a206e65656420616d6f756e74203e20300000000000000000604482015260640162000b20565b8381600001600082825462001659919062003d9b565b925050819055508382600201600082825462001676919062003d9b565b9091555050815462001694906001600160a01b03163330876200333b565b60018201548154670de0b6b3a764000091620016b09162003d56565b620016bc919062003d78565b600182015580546002830154604080518781526020810193909352820152839033907f7162984403f6c73c8639375d45a9187dfd04602231bd8e587c415718b5f7e5f99060600160405180910390a35050600161010155505050565b60d0546001600160a01b03163314620017745760405162461bcd60e51b815260206004820152601e60248201527f536166654f776e61626c653a2063616c6c657220213d2070656e64696e670000604482015260640162000b20565b6200128962003375565b6001600160a01b037f0000000000000000000000000000000000000000000000000000000000000000163003620017c95760405162461bcd60e51b815260040162000b209062003e07565b7f00000000000000000000000000000000000000000000000000000000000000006001600160a01b03166200181460008051602062004ad6833981519152546001600160a01b031690565b6001600160a01b0316146200183d5760405162461bcd60e51b815260040162000b209062003e53565b620018488262003141565b62001342828260016200316e565b6000306001600160a01b037f00000000000000000000000000000000000000000000000000000000000000001614620018f85760405162461bcd60e51b815260206004820152603860248201527f555550535570677261646561626c653a206d757374206e6f742062652063616c60448201527f6c6564207468726f7567682064656c656761746563616c6c0000000000000000606482015260840162000b20565b5060008051602062004ad683398151915290565b600781815481106200191d57600080fd5b600091825260209091206004909102018054600182015460028301546003909301546001600160a01b039092169350919084565b60cf546001600160a01b031633146200197e5760405162461bcd60e51b815260040162000b209062003cd9565b620012896000620033de565b603854610100900460ff1615808015620019ab5750603854600160ff909116105b80620019c75750303b158015620019c7575060385460ff166001145b62001a2c5760405162461bcd60e51b815260206004820152602e60248201527f496e697469616c697a61626c653a20636f6e747261637420697320616c72656160448201526d191e481a5b9a5d1a585b1a5e995960921b606482015260840162000b20565b6038805460ff19166001179055801562001a50576038805461ff0019166101001790555b6001600160a01b03871662001aa85760405162461bcd60e51b815260206004820152601d60248201527f5031324d696e653a20703132546f6b656e2063616e6e6f742062652030000000604482015260640162000b20565b6001600160a01b03861662001ad15760405162461bcd60e51b815260040162000b209062003ebb565b600180546001600160a01b03808a166001600160a01b031992831617909255600080548984169083161790556002805492881692909116919091179055604051879062001b1e9062003a0b565b6001600160a01b039091168152602001604051809103906000f08015801562001b4b573d6000803e3d6000fd5b50600380546001600160a01b0319166001600160a01b039290921691909117905560048490556005839055600682905562001b8562003454565b62001b8f62003486565b62001b99620034bd565b801562001be0576038805461ff0019169055604051600181527f7f26b83ff96e1f2b6a682f133852f6798a09c465da95921460cefb38474024989060200160405180910390a15b50505050505050565b60cf546001600160a01b0316331462001c165760405162461bcd60e51b815260040162000b209062003cd9565b6000546001600160a01b0390811690821662001c465760405162461bcd60e51b815260040162000b209062003ebb565b600080546001600160a01b0319166001600160a01b0384811691821790925560408051928416835260208301919091527fb5004c6dd32173c6ee128faa447de600665c96ba213f764d94599ca5ceda78b1910162000bdc565b60cf546001600160a01b0316331462001ccc5760405162461bcd60e51b815260040162000b209062003cd9565b62001289620034f2565b60075460005b81811015620013425762001cf08162002c67565b8062001cfc8162003e9f565b91505062001cdc565b6001600160a01b03811660009081526032602052604090205481901562001d6f5760405162461bcd60e51b815260206004820152601f60248201527f5031324d696e653a204c5020546f6b656e20416c726561647920457869737400604482015260640162000b20565b62001d7962002c1e565b6000546001600160a01b031633148062001d9d575060cf546001600160a01b031633145b62001deb5760405162461bcd60e51b815260206004820181905260248201527f5031324d696e653a206e6f7420703132666163746f7279206f72206f776e6572604482015260640162000b20565b50604080516080810182526001600160a01b0392831680825260006020808401828152848601838152606086018481526007805460018101825581875297517fa66cc928b5edb82af9bd49922954155ab7b0942694bea4ce44661d9a8736c688600490990298890180546001600160a01b03191691909b161790995591517fa66cc928b5edb82af9bd49922954155ab7b0942694bea4ce44661d9a8736c689870155517fa66cc928b5edb82af9bd49922954155ab7b0942694bea4ce44661d9a8736c68a860155517fa66cc928b5edb82af9bd49922954155ab7b0942694bea4ce44661d9a8736c68b9094019390935581815260358352838120818052835283812042905593549084526032909152912055565b6002610101540362001f255760405162461bcd60e51b815260040162000b209062003db6565b60026101015562001f3562002c1e565b600062001f428362001474565b6001600160a01b0380851660009081526037602090815260408083208784529091529020549192501633811462001fbc5760405162461bcd60e51b815260206004820152601f60248201527f5031324d696e653a2063616c6c6572206e6f7420746f6b656e206f776e657200604482015260640162000b20565b60006007838154811062001fd45762001fd462003d10565b600091825260208083208684526033825260408085206001600160a01b0380891687529084528186208054918c168752603785528287208b88529094529420600101546004909302019350911015620020705760405162461bcd60e51b815260206004820152601a60248201527f5031324d696e653a20776974686472617720746f6f206d756368000000000000604482015260640162000b20565b6001600160a01b0386166000908152603760209081526040808320888452909152902060020154421015620020e85760405162461bcd60e51b815260206004820181905260248201527f5031324d696e653a20756e6c6f636b2074696d65206e6f742072656163686564604482015260640162000b20565b6001600160a01b038616600090815260376020908152604080832088845290915290206003015460ff1615620021615760405162461bcd60e51b815260206004820152601a60248201527f5031324d696e653a20616c72656164792077697468647261776e000000000000604482015260640162000b20565b6001600160a01b03861660009081526037602090815260408083208884529091529020600301805460ff191660011790556200219d8462002c67565b60008160010154670de0b6b3a764000084600101548460000154620021c3919062003d56565b620021cf919062003d78565b620021db919062003ded565b9050620021e9848262002fed565b6001600160a01b03871660009081526037602090815260408083208984529091528120600101548354909182918591906200222690849062003ded565b925050819055508084600201600082825462002243919062003ded565b909155505060018401548354670de0b6b3a764000091620022649162003d56565b62002270919062003d78565b600184015583546200228d906001600160a01b03168683620030d7565b82546002850154604080518481526020810193909352820152879087906001600160a01b038816907f3b6169f3eda7dec0c3762f33d51b47c9417626ef6b03a4112469b10e2542283c9060600160405180910390a45050600161010155505050505050565b6000620022ff8262001474565b9050620013428162002c67565b60cf546000906001600160a01b031633146200233c5760405162461bcd60e51b815260040162000b209062003cd9565b600480549083905560408051828152602081018590527fb936e6dfcf3fec6bfb7d23d91ce9406c4ce74825de73cf38c764ed900731d7a4910162001156565b60cf546001600160a01b03163314620023a85760405162461bcd60e51b815260040162000b209062003cd9565b6001600160a01b038216620024005760405162461bcd60e51b815260206004820152601b60248201527f536166654f776e61626c653a206e6577206f776e657220697320300000000000604482015260640162000b20565b801562002412576200134282620033de565b60d080546001600160a01b0319166001600160a01b0384161790555050565b60cf546000906001600160a01b03163314620024615760405162461bcd60e51b815260040162000b209062003cd9565b600580549083905560408051828152602081018590527f43c057f209152d56f2de0fa1d79291670facf6161810b2392b949bf1647cc236910162001156565b620024aa62002c1e565b6000546001600160a01b03163314620025065760405162461bcd60e51b815260206004820152601e60248201527f5031324d696e653a2063616c6c6572206e6f7420703132666163746f72790000604482015260640162000b20565b620025118362001d05565b60006200251e8462001474565b6040516370a0823160e01b81523060048201529091506000906001600160a01b038616906370a0823190602401602060405180830381865afa15801562002569573d6000803e3d6000fd5b505050506040513d601f19601f820116820180604052508101906200258f919062003d26565b9050600060078381548110620025a957620025a962003d10565b600091825260208083208684526033825260408085206001600160a01b038a16865290925292206002600490920290920190810154909250620025ed908462003ded565b8611158015620025fd5750600086115b6200264b5760405162461bcd60e51b815260206004820152601760248201527f5031324d696e653a20616d6f756e74206e6f74206d6574000000000000000000604482015260640162000b20565b600182600301600082825462002662919062003d9b565b909155505081546001600160a01b03166000908152603560209081526040808320600386015484529091528120429055815487918391620026a590849062003d9b565b9250508190555085826002016000828254620026c2919062003d9b565b909155505060018201548154670de0b6b3a764000091620026e39162003d56565b620026ef919062003d78565b60018201558054600283015460408051898152602081019390935282015284906001600160a01b038716907f7162984403f6c73c8639375d45a9187dfd04602231bd8e587c415718b5f7e5f99060600160405180910390a350505050505050565b60cf546001600160a01b031633146200277d5760405162461bcd60e51b815260040162000b209062003cd9565b60085460ff1615620027d25760405162461bcd60e51b815260206004820152601760248201527f5031324d696e653a20616c726561647920657869737473000000000000000000604482015260640162000b20565b6008805460ff1916600117905562015180620027ef814262003d9b565b60098190556040805133815260208101929092527f60d80110a4ada21fcf122778cf9fd06e96a62cfab4577aa054d8f50703342c94910160405180910390a150565b600060026101015403620028595760405162461bcd60e51b815260040162000b209062003db6565b6002610101556200286962002c1e565b6007546000805b8281101562002973576000818152603360209081526040808320338452909152902054156200295e57600060078281548110620028b157620028b162003d10565b60009182526020808320858452603382526040808520338652909252922060049091029091019150620028e48362002c67565b600180820154908301548254670de0b6b3a764000091620029059162003d56565b62002911919062003d78565b6200291d919062003ded565b62002929908562003d9b565b9350670de0b6b3a7640000826001015482600001546200294a919062003d56565b62002956919062003d78565b600190910155505b806200296a8162003e9f565b91505062002870565b5062002980338262002fed565b91505060016101015590565b6200299662002c1e565b60026101015403620029bc5760405162461bcd60e51b815260040162000b209062003db6565b6002610101556000620029cf8362001474565b9050600060078281548110620029e957620029e962003d10565b60009182526020808320858452603382526040808520338652909252922080546004909202909201925084111562002a645760405162461bcd60e51b815260206004820152601a60248201527f5031324d696e653a20776974686472617720746f6f206d756368000000000000604482015260640162000b20565b62002a6f8362002c67565b80541562002ac55760008160010154670de0b6b3a76400008460010154846000015462002a9d919062003d56565b62002aa9919062003d78565b62002ab5919062003ded565b905062002ac3338262002fed565b505b600062002ad3868662000be8565b6001600160a01b038781166000818152603660209081526040808320805482518085018790528084018e905233606082018190526080808301939093528451808303909301835260a082018086528351938701939093209384905561012082018552825260c081018e815260e082018a81526101009092018781529787526037865284872084885290955292909420935184546001600160a01b031916961695909517835590516001838101919091559051600283015591516003909101805460ff191691151591909117905585015484549293509091670de0b6b3a76400009162002bbf9162003d56565b62002bcb919062003d78565b600184015560408051868152602081018490528291889133917f272443b29ab847e8afe0555c70202fdd13f55ad0256863dbf7babad95689f915910160405180910390a450506001610101555050505050565b6101335460ff1615620012895760405162461bcd60e51b815260206004820152601060248201526f14185d5cd8589b194e881c185d5cd95960821b604482015260640162000b20565b62002c7162002c1e565b60006007828154811062002c895762002c8962003d10565b60009182526020808320600492830201600181015481546001600160a01b039081168087526035855260408088206003860154895290955295849020546002549451638aca6a2360e01b8152958601969096529195509392911690638aca6a2390602401600060405180830381600087803b15801562002d0857600080fd5b505af115801562002d1d573d6000803e3d6000fd5b5050505080421162002d725760405162461bcd60e51b815260206004820152601a60248201527f5031324d696e653a206e6f742074696d6520746f20636865636b000000000000604482015260640162000b20565b826002015460000362002dd257600183600301600082825462002d96919062003d9b565b909155505082546001600160a01b03166000908152603560209081526040808320600390960154835294905292909220429055506200124f9050565b80600062002e0962093a808062002dea818662003d9b565b62002df6919062003d78565b62002e02919062003d56565b4262003533565b905060005b6101f481101562002f5357600062002e27848462003ded565b60025488549192506000916001600160a01b03918216916365c60468911662093a8062002e55818a62003d78565b62002e61919062003d56565b6040516001600160e01b031960e085901b1681526001600160a01b03909216600483015260248201526044016020604051808303816000875af115801562002ead573d6000803e3d6000fd5b505050506040513d601f19601f8201168201806040525081019062002ed3919062003d26565b90508760020154828260065462002eeb919062003d56565b62002ef7919062003d56565b62002f03919062003d78565b62002f0f908862003d9b565b965042840362002f2157505062002f53565b83945062002f3962093a808562002e02919062003d9b565b93505050808062002f4a9062003e9f565b91505062002e0e565b50600180860185905560038601805460009062002f7290849062003d9b565b909155505084546001600160a01b03908116600090815260356020908152604080832060038a015484528252918290204290556002880154885460018a01549351938452909316917fd5d17e0ef95673e9f3758eb2dd453e0a395922322e5462909459da8ed6ea3b40910160405180910390a3505050505050565b6003546040516310b3879160e11b81526001600160a01b03848116600483015260248201849052909116906321670f2290604401600060405180830381600087803b1580156200303c57600080fd5b505af115801562003051573d6000803e3d6000fd5b5050506001600160a01b0383166000908152603460205260409020546200307b9150829062003d9b565b6001600160a01b038316600081815260346020526040908190209290925590517f47cee97cb7acd717b3c0aa1435d004cd5b3c8c57d70dbceb4e4458bbd60e39d490620030cb9084815260200190565b60405180910390a25050565b6040516001600160a01b0383166024820152604481018290526200313c90849063a9059cbb60e01b906064015b60408051601f198184030181529190526020810180516001600160e01b03166001600160e01b0319909316929092179091526200354b565b505050565b60cf546001600160a01b031633146200124f5760405162461bcd60e51b815260040162000b209062003cd9565b7f4910fdfa16fed3260ed0e7147f7cc6da11a60208b5b9406d12a635614ffd91435460ff1615620031a4576200313c8362003624565b826001600160a01b03166352d1902d6040518163ffffffff1660e01b8152600401602060405180830381865afa92505050801562003201575060408051601f3d908101601f19168201909252620031fe9181019062003d26565b60015b620032665760405162461bcd60e51b815260206004820152602e60248201527f45524331393637557067726164653a206e657720696d706c656d656e7461746960448201526d6f6e206973206e6f74205555505360901b606482015260840162000b20565b60008051602062004ad68339815191528114620032d85760405162461bcd60e51b815260206004820152602960248201527f45524331393637557067726164653a20756e737570706f727465642070726f786044820152681a58589b195555525160ba1b606482015260840162000b20565b506200313c838383620036c3565b620032f0620036ee565b610133805460ff191690557f5db9ee0a495bf2e6ff9c91a7834c1ba4fdd244a5e8aa4e537bd38aeae4b073aa335b6040516001600160a01b03909116815260200160405180910390a1565b6040516001600160a01b03808516602483015283166044820152606481018290526200146e9085906323b872dd60e01b9060840162003104565b60cf5460d0546040516001600160a01b03928316929091169082907f8be0079c531659141344cd1fd0a4f28419497f9722a3daafe3b4186f6b6457e090600090a35060d0805460cf80546001600160a01b03199081166001600160a01b03841617909155169055565b7fb53127684a568b3173ae13b9f8a6016e243e63b6e8ee1178d6a717850b5d610381905560cf80546001600160a01b038084166001600160a01b0319831681179093556040519116919082907f8be0079c531659141344cd1fd0a4f28419497f9722a3daafe3b4186f6b6457e090600090a35050565b603854610100900460ff166200347e5760405162461bcd60e51b815260040162000b209062003efe565b600161010155565b603854610100900460ff16620034b05760405162461bcd60e51b815260040162000b209062003efe565b610133805460ff19169055565b603854610100900460ff16620034e75760405162461bcd60e51b815260040162000b209062003efe565b6200128933620033de565b620034fc62002c1e565b610133805460ff191660011790557f62e78cea01bee320cd4e420270b5ea74000d11b0c9f74754ebdbfc544b05a2586200331e3390565b600081831062003544578162001504565b5090919050565b6000620035a2826040518060400160405280602081526020017f5361666545524332303a206c6f772d6c6576656c2063616c6c206661696c6564815250856001600160a01b03166200373a9092919063ffffffff16565b8051909150156200313c5780806020019051810190620035c3919062003f49565b6200313c5760405162461bcd60e51b815260206004820152602a60248201527f5361666545524332303a204552433230206f7065726174696f6e20646964206e6044820152691bdd081cdd58d8d9595960b21b606482015260840162000b20565b6001600160a01b0381163b620036935760405162461bcd60e51b815260206004820152602d60248201527f455243313936373a206e657720696d706c656d656e746174696f6e206973206e60448201526c1bdd08184818dbdb9d1c9858dd609a1b606482015260840162000b20565b60008051602062004ad683398151915280546001600160a01b0319166001600160a01b0392909216919091179055565b620036ce8362003753565b600082511180620036dc5750805b156200313c576200146e838362003795565b6101335460ff16620012895760405162461bcd60e51b815260206004820152601460248201527314185d5cd8589b194e881b9bdd081c185d5cd95960621b604482015260640162000b20565b60606200374b848460008562003892565b949350505050565b6200375e8162003624565b6040516001600160a01b038216907fbc7cd75a20ee27fd9adebab32041f755214dbc6bffa90cc0225b39da2e5c2d3b90600090a250565b60606001600160a01b0383163b620037ff5760405162461bcd60e51b815260206004820152602660248201527f416464726573733a2064656c65676174652063616c6c20746f206e6f6e2d636f6044820152651b9d1c9858dd60d21b606482015260840162000b20565b600080846001600160a01b0316846040516200381c919062003f98565b600060405180830381855af49150503d806000811462003859576040519150601f19603f3d011682016040523d82523d6000602084013e6200385e565b606091505b509150915062003889828260405180606001604052806027815260200162004af660279139620039cd565b95945050505050565b606082471015620038f55760405162461bcd60e51b815260206004820152602660248201527f416464726573733a20696e73756666696369656e742062616c616e636520666f6044820152651c8818d85b1b60d21b606482015260840162000b20565b6001600160a01b0385163b6200394e5760405162461bcd60e51b815260206004820152601d60248201527f416464726573733a2063616c6c20746f206e6f6e2d636f6e7472616374000000604482015260640162000b20565b600080866001600160a01b031685876040516200396c919062003f98565b60006040518083038185875af1925050503d8060008114620039ab576040519150601f19603f3d011682016040523d82523d6000602084013e620039b0565b606091505b5091509150620039c2828286620039cd565b979650505050505050565b60608315620039de57508162001504565b825115620039ef5782518084602001fd5b8160405162461bcd60e51b815260040162000b20919062003fb6565b610aea8062003fec83390190565b6001600160a01b03811681146200124f57600080fd5b60006020828403121562003a4257600080fd5b8135620015048162003a19565b6000806040838503121562003a6357600080fd5b823562003a708162003a19565b946020939093013593505050565b6000806040838503121562003a9257600080fd5b823562003a9f8162003a19565b9150602083013562003ab18162003a19565b809150509250929050565b60006020828403121562003acf57600080fd5b5035919050565b634e487b7160e01b600052604160045260246000fd5b6000806040838503121562003b0057600080fd5b823562003b0d8162003a19565b9150602083013567ffffffffffffffff8082111562003b2b57600080fd5b818501915085601f83011262003b4057600080fd5b81358181111562003b555762003b5562003ad6565b604051601f8201601f19908116603f0116810190838211818310171562003b805762003b8062003ad6565b8160405282815288602084870101111562003b9a57600080fd5b8260208601602083013760006020848301015280955050505050509250929050565b60008060008060008060c0878903121562003bd657600080fd5b863562003be38162003a19565b9550602087013562003bf58162003a19565b9450604087013562003c078162003a19565b959894975094956060810135955060808101359460a0909101359350915050565b6000806040838503121562003c3c57600080fd5b82359150602083013562003ab18162003a19565b80151581146200124f57600080fd5b6000806040838503121562003c7357600080fd5b823562003c808162003a19565b9150602083013562003ab18162003c50565b60008060006060848603121562003ca857600080fd5b833562003cb58162003a19565b925060208401359150604084013562003cce8162003a19565b809150509250925092565b6020808252601d908201527f536166654f776e61626c653a2063616c6c6572206e6f74206f776e6572000000604082015260600190565b634e487b7160e01b600052603260045260246000fd5b60006020828403121562003d3957600080fd5b5051919050565b634e487b7160e01b600052601160045260246000fd5b600081600019048311821515161562003d735762003d7362003d40565b500290565b60008262003d9657634e487b7160e01b600052601260045260246000fd5b500490565b6000821982111562003db15762003db162003d40565b500190565b6020808252601f908201527f5265656e7472616e637947756172643a207265656e7472616e742063616c6c00604082015260600190565b60008282101562003e025762003e0262003d40565b500390565b6020808252602c908201527f46756e6374696f6e206d7573742062652063616c6c6564207468726f7567682060408201526b19195b1959d85d1958d85b1b60a21b606082015260800190565b6020808252602c908201527f46756e6374696f6e206d7573742062652063616c6c6564207468726f7567682060408201526b6163746976652070726f787960a01b606082015260800190565b60006001820162003eb45762003eb462003d40565b5060010190565b60208082526023908201527f5031324d696e653a20703132436f696e466163746f72792063616e6e6f74206260408201526206520360ec1b606082015260800190565b6020808252602b908201527f496e697469616c697a61626c653a20636f6e7472616374206973206e6f74206960408201526a6e697469616c697a696e6760a81b606082015260800190565b60006020828403121562003f5c57600080fd5b8151620015048162003c50565b60005b8381101562003f8657818101518382015260200162003f6c565b838111156200146e5750506000910152565b6000825162003fac81846020870162003f69565b9190910192915050565b602081526000825180602084015262003fd781604085016020870162003f69565b601f01601f1916919091016040019291505056fe608060405234801561001057600080fd5b50604051610aea380380610aea83398101604081905261002f91610107565b610038336100b7565b6001600160a01b0381166100925760405162461bcd60e51b815260206004820152601a60248201527f50313252563a20616464726573732063616e6e6f742062652030000000000000604482015260640160405180910390fd5b600280546001600160a01b0319166001600160a01b0392909216919091179055610137565b600080546001600160a01b038381166001600160a01b0319831681178455604051919092169283917f8be0079c531659141344cd1fd0a4f28419497f9722a3daafe3b4186f6b6457e09190a35050565b60006020828403121561011957600080fd5b81516001600160a01b038116811461013057600080fd5b9392505050565b6109a4806101466000396000f3fe608060405234801561001057600080fd5b50600436106100885760003560e01c80638da5cb5b1161005b5780638da5cb5b146100e1578063a1c04f0e146100f2578063b242e53414610105578063e30c39781461011857600080fd5b806321670f221461008d5780634e71e0c8146100a2578063715018a6146100aa5780638b7c37a3146100b2575b600080fd5b6100a061009b3660046107f5565b610129565b005b6100a0610177565b6100a06101db565b6002546100c5906001600160a01b031681565b6040516001600160a01b03909116815260200160405180910390f35b6000546001600160a01b03166100c5565b6100a061010036600461081f565b61020f565b6100a061011336600461084b565b6103c7565b6001546001600160a01b03166100c5565b6000546001600160a01b0316331461015c5760405162461bcd60e51b815260040161015390610882565b60405180910390fd5b600254610173906001600160a01b03168383610475565b5050565b6001546001600160a01b031633146101d15760405162461bcd60e51b815260206004820152601e60248201527f536166654f776e61626c653a2063616c6c657220213d2070656e64696e6700006044820152606401610153565b6101d96104cc565b565b6000546001600160a01b031633146102055760405162461bcd60e51b815260040161015390610882565b6101d96000610534565b6000546001600160a01b031633146102395760405162461bcd60e51b815260040161015390610882565b6001600160a01b03811661028f5760405162461bcd60e51b815260206004820152601a60248201527f50313252563a20616464726573732063616e6e6f7420626520300000000000006044820152606401610153565b6002546040516370a0823160e01b81523060048201526103149183916001600160a01b03909116906370a0823190602401602060405180830381865afa1580156102dd573d6000803e3d6000fd5b505050506040513d601f19601f8201168201806040525081019061030191906108b9565b6002546001600160a01b03169190610475565b6002546040516370a0823160e01b81523060048201527ff58b081c2d077b17c9ef90e17090bd89e8b8b98933872e29c9352269eda3823f916001600160a01b03169081906370a0823190602401602060405180830381865afa15801561037e573d6000803e3d6000fd5b505050506040513d601f19601f820116820180604052508101906103a291906108b9565b604080516001600160a01b03909316835260208301919091520160405180910390a150565b6000546001600160a01b031633146103f15760405162461bcd60e51b815260040161015390610882565b6001600160a01b0382166104475760405162461bcd60e51b815260206004820152601b60248201527f536166654f776e61626c653a206e6577206f776e6572206973203000000000006044820152606401610153565b80156104565761017382610534565b600180546001600160a01b0319166001600160a01b0384161790555050565b604080516001600160a01b038416602482015260448082018490528251808303909101815260649091019091526020810180516001600160e01b031663a9059cbb60e01b1790526104c7908490610584565b505050565b600080546001546040516001600160a01b0392831693919092169183917f8be0079c531659141344cd1fd0a4f28419497f9722a3daafe3b4186f6b6457e091a35060018054600080546001600160a01b03199081166001600160a01b03841617909155169055565b600080546001600160a01b038381166001600160a01b0319831681178455604051919092169283917f8be0079c531659141344cd1fd0a4f28419497f9722a3daafe3b4186f6b6457e09190a35050565b60006105d9826040518060400160405280602081526020017f5361666545524332303a206c6f772d6c6576656c2063616c6c206661696c6564815250856001600160a01b03166106569092919063ffffffff16565b8051909150156104c757808060200190518101906105f791906108d2565b6104c75760405162461bcd60e51b815260206004820152602a60248201527f5361666545524332303a204552433230206f7065726174696f6e20646964206e6044820152691bdd081cdd58d8d9595960b21b6064820152608401610153565b6060610665848460008561066f565b90505b9392505050565b6060824710156106d05760405162461bcd60e51b815260206004820152602660248201527f416464726573733a20696e73756666696369656e742062616c616e636520666f6044820152651c8818d85b1b60d21b6064820152608401610153565b6001600160a01b0385163b6107275760405162461bcd60e51b815260206004820152601d60248201527f416464726573733a2063616c6c20746f206e6f6e2d636f6e74726163740000006044820152606401610153565b600080866001600160a01b03168587604051610743919061091f565b60006040518083038185875af1925050503d8060008114610780576040519150601f19603f3d011682016040523d82523d6000602084013e610785565b606091505b50915091506107958282866107a0565b979650505050505050565b606083156107af575081610668565b8251156107bf5782518084602001fd5b8160405162461bcd60e51b8152600401610153919061093b565b80356001600160a01b03811681146107f057600080fd5b919050565b6000806040838503121561080857600080fd5b610811836107d9565b946020939093013593505050565b60006020828403121561083157600080fd5b610668826107d9565b801515811461084857600080fd5b50565b6000806040838503121561085e57600080fd5b610867836107d9565b915060208301356108778161083a565b809150509250929050565b6020808252601d908201527f536166654f776e61626c653a2063616c6c6572206e6f74206f776e6572000000604082015260600190565b6000602082840312156108cb57600080fd5b5051919050565b6000602082840312156108e457600080fd5b81516106688161083a565b60005b8381101561090a5781810151838201526020016108f2565b83811115610919576000848401525b50505050565b600082516109318184602087016108ef565b9190910192915050565b602081526000825180602084015261095a8160408501602087016108ef565b601f01601f1916919091016040019291505056fea264697066735822122074ce4426f2252c0942a46f97f07ebc7b6f0d94592c891a8419496c559b37e6f964736f6c634300080f0033360894a13ba1a3210667c828492db98dca3e2076cc3735a920a3ca505d382bbc416464726573733a206c6f772d6c6576656c2064656c65676174652063616c6c206661696c6564a26469706673582212209e355311b06f137bc58568873a77219556637736f29f0d30ecd8390e4153d9e864736f6c634300080f0033",
  "devdoc": {
    "kind": "dev",
    "methods": {
      "addLpTokenInfoForGameCreator(address,uint256,address)": {
        "params": {
          "gameCoinCreator": "user of game coin creator",
          "lpToken": "Address of lpToken"
        }
      },
      "checkpoint(address)": {
        "params": {
          "lpToken": "Address of lpToken"
        }
      },
      "claim(address)": {
        "params": {
          "lpToken": "Address of lpToken"
        }
      },
      "claimOwnership()": {
        "details": "pending owner call this function to claim ownership"
      },
      "createPool(address)": {
        "params": {
          "lpToken": "Address of lpToken"
        }
      },
      "deposit(address,uint256)": {
        "params": {
          "amount": "Number of lpToken",
          "lpToken": "Address of lpToken"
        }
      },
      "executeWithdraw(address,bytes32)": {
        "params": {
          "id": "Withdraw id",
          "lpToken": "Address of lpToken"
        }
      },
      "getPid(address)": {
        "params": {
          "lpToken": "Address of lpToken"
        }
      },
      "getUserLpBalance(address,address)": {
        "params": {
          "lpToken": "Address of lpToken",
          "user": "LpToken holder"
        },
        "returns": {
          "_0": "Get lpToken balance"
        }
      },
      "getWithdrawUnlockTimestamp(address,uint256)": {
        "params": {
          "amount": "Number of lpToken",
          "lpToken": "Address of lpToken"
        }
      },
      "initialize(address,address,address,uint256,uint256,uint256)": {
        "params": {
          "delayB_": "delayB_ is a coefficient",
          "delayK_": "delayK_ is a coefficient",
          "gaugeController_": "address of gaugeController",
          "p12CoinFactory_": "Address of p12CoinFactory",
          "p12Token_": "Address of p12Token"
        }
      },
      "owner()": {
        "details": "Returns the address of the current owner."
      },
      "paused()": {
        "details": "Returns true if the contract is paused, and false otherwise."
      },
      "pendingOwner()": {
        "details": "Return the address of the pending owner"
      },
      "proxiableUUID()": {
        "details": "Implementation of the ERC1822 {proxiableUUID} function. This returns the storage slot used by the implementation. It is used to validate that the this implementation remains valid after an upgrade. IMPORTANT: A proxy pointing at a proxiable contract should not be considered proxiable itself, because this risks bricking a proxy that upgrades to it, by delegating to itself until out of gas. Thus it is critical that this function revert if invoked through a proxy. This is guaranteed by the `notDelegated` modifier."
      },
      "queueWithdraw(address,uint256)": {
        "params": {
          "amount": "Number of lpToken",
          "lpToken": "Address of lpToken"
        }
      },
      "renounceOwnership()": {
        "details": "Leaves the contract without owner. It will not be possible to call `onlyOwner` functions anymore. Can only be called by the current owner. NOTE: Renouncing ownership will leave the contract without an owner, thereby removing any functionality that is only available to the owner."
      },
      "setDelayB(uint256)": {
        "params": {
          "newDelayB": "Is a coefficient"
        },
        "returns": {
          "_0": "Get bool result"
        }
      },
      "setDelayK(uint256)": {
        "params": {
          "newDelayK": "Is a coefficient"
        },
        "returns": {
          "_0": "Get bool result"
        }
      },
      "setGaugeController(address)": {
        "params": {
          "newGaugeController": "address of gaugeController"
        }
      },
      "setP12CoinFactory(address)": {
        "params": {
          "newP12CoinFactory": "address of p12CoinFactory"
        }
      },
      "setRate(uint256)": {
        "params": {
          "newRate": "is p12 token inflation rate"
        }
      },
      "transferOwnership(address,bool)": {
        "details": "Transfers ownership of the contract to a new account (`newOwner`). Can only be called by the current owner. Note If direct is false, it will set an pending owner and the OwnerShipTransferring only happens when the pending owner claim the ownership"
      },
      "upgradeTo(address)": {
        "details": "Upgrade the implementation of the proxy to `newImplementation`. Calls {_authorizeUpgrade}. Emits an {Upgraded} event."
      },
      "upgradeToAndCall(address,bytes)": {
        "details": "Upgrade the implementation of the proxy to `newImplementation`, and subsequently execute the function call encoded in `data`. Calls {_authorizeUpgrade}. Emits an {Upgraded} event."
      },
      "withdrawLpTokenEmergency(address)": {
        "params": {
          "lpToken": "address of lpToken"
        }
      }
    },
    "version": 1
  },
  "userdoc": {
    "kind": "user",
    "methods": {
      "addLpTokenInfoForGameCreator(address,uint256,address)": {
        "notice": "This method is only used when creating game coin in p12CoinFactory"
      },
      "checkpoint(address)": {
        "notice": "update checkpoint for pool"
      },
      "checkpointAll()": {
        "notice": "update checkpoint for all pool"
      },
      "claim(address)": {
        "notice": "Get pending rewards"
      },
      "claimAll()": {
        "notice": "Get all pending rewards"
      },
      "createPool(address)": {
        "notice": "Create a new pool"
      },
      "deposit(address,uint256)": {
        "notice": "Deposit lpToken"
      },
      "emergency()": {
        "notice": "set the isEmergency to true"
      },
      "executeWithdraw(address,bytes32)": {
        "notice": "Withdraw lpToken"
      },
      "getPid(address)": {
        "notice": "Get pool id"
      },
      "getUserLpBalance(address,address)": {
        "notice": "Get user lpToken balance"
      },
      "getWithdrawUnlockTimestamp(address,uint256)": {
        "notice": "get withdraw unlockTimestamp"
      },
      "initialize(address,address,address,uint256,uint256,uint256)": {
        "notice": "Contract initialization"
      },
      "poolLength()": {
        "notice": "Get pool len"
      },
      "queueWithdraw(address,uint256)": {
        "notice": "Withdraw lpToken delay"
      },
      "setDelayB(uint256)": {
        "notice": "Set delayB value"
      },
      "setDelayK(uint256)": {
        "notice": "Set delayK value"
      },
      "setGaugeController(address)": {
        "notice": "set new gaugeController"
      },
      "setP12CoinFactory(address)": {
        "notice": "set new p12CoinFactory"
      },
      "setRate(uint256)": {
        "notice": "set new rate"
      },
      "withdrawAllLpTokenEmergency()": {
        "notice": "withdraw lpToken Emergency"
      },
      "withdrawEmergency()": {
        "notice": "withdraw token Emergency"
      },
      "withdrawLpTokenEmergency(address)": {
        "notice": "withdraw all lpToken Emergency"
      }
    },
    "version": 1
  },
  "storageLayout": {
    "storage": [
      {
        "astId": 14624,
        "contract": "contracts/staking/P12MineUpgradeable.sol:P12MineUpgradeable",
        "label": "p12CoinFactory",
        "offset": 0,
        "slot": "0",
        "type": "t_address"
      },
      {
        "astId": 14626,
        "contract": "contracts/staking/P12MineUpgradeable.sol:P12MineUpgradeable",
        "label": "p12Token",
        "offset": 0,
        "slot": "1",
        "type": "t_address"
      },
      {
        "astId": 14629,
        "contract": "contracts/staking/P12MineUpgradeable.sol:P12MineUpgradeable",
        "label": "gaugeController",
        "offset": 0,
        "slot": "2",
        "type": "t_contract(IGaugeController)16791"
      },
      {
        "astId": 14632,
        "contract": "contracts/staking/P12MineUpgradeable.sol:P12MineUpgradeable",
        "label": "p12RewardVault",
        "offset": 0,
        "slot": "3",
        "type": "t_contract(IP12RewardVault)17044"
      },
      {
        "astId": 14634,
        "contract": "contracts/staking/P12MineUpgradeable.sol:P12MineUpgradeable",
        "label": "delayK",
        "offset": 0,
        "slot": "4",
        "type": "t_uint256"
      },
      {
        "astId": 14636,
        "contract": "contracts/staking/P12MineUpgradeable.sol:P12MineUpgradeable",
        "label": "delayB",
        "offset": 0,
        "slot": "5",
        "type": "t_uint256"
      },
      {
        "astId": 14638,
        "contract": "contracts/staking/P12MineUpgradeable.sol:P12MineUpgradeable",
        "label": "rate",
        "offset": 0,
        "slot": "6",
        "type": "t_uint256"
      },
      {
        "astId": 14642,
        "contract": "contracts/staking/P12MineUpgradeable.sol:P12MineUpgradeable",
        "label": "poolInfos",
        "offset": 0,
        "slot": "7",
        "type": "t_array(t_struct(PoolInfo)14696_storage)dyn_storage"
      },
      {
        "astId": 14644,
        "contract": "contracts/staking/P12MineUpgradeable.sol:P12MineUpgradeable",
        "label": "isEmergency",
        "offset": 0,
        "slot": "8",
        "type": "t_bool"
      },
      {
        "astId": 14646,
        "contract": "contracts/staking/P12MineUpgradeable.sol:P12MineUpgradeable",
        "label": "emergencyUnlockTime",
        "offset": 0,
        "slot": "9",
        "type": "t_uint256"
      },
      {
        "astId": 14650,
        "contract": "contracts/staking/P12MineUpgradeable.sol:P12MineUpgradeable",
        "label": "__gap",
        "offset": 0,
        "slot": "10",
        "type": "t_array(t_uint256)40_storage"
      },
      {
        "astId": 14654,
        "contract": "contracts/staking/P12MineUpgradeable.sol:P12MineUpgradeable",
        "label": "lpTokenRegistry",
        "offset": 0,
        "slot": "50",
        "type": "t_mapping(t_address,t_uint256)"
      },
      {
        "astId": 14661,
        "contract": "contracts/staking/P12MineUpgradeable.sol:P12MineUpgradeable",
        "label": "userInfo",
        "offset": 0,
        "slot": "51",
        "type": "t_mapping(t_uint256,t_mapping(t_address,t_struct(UserInfo)14687_storage))"
      },
      {
        "astId": 14665,
        "contract": "contracts/staking/P12MineUpgradeable.sol:P12MineUpgradeable",
        "label": "realizedReward",
        "offset": 0,
        "slot": "52",
        "type": "t_mapping(t_address,t_uint256)"
      },
      {
        "astId": 14671,
        "contract": "contracts/staking/P12MineUpgradeable.sol:P12MineUpgradeable",
        "label": "periodTimestamp",
        "offset": 0,
        "slot": "53",
        "type": "t_mapping(t_address,t_mapping(t_uint256,t_uint256))"
      },
      {
        "astId": 14675,
        "contract": "contracts/staking/P12MineUpgradeable.sol:P12MineUpgradeable",
        "label": "preWithdrawIds",
        "offset": 0,
        "slot": "54",
        "type": "t_mapping(t_address,t_bytes32)"
      },
      {
        "astId": 14682,
        "contract": "contracts/staking/P12MineUpgradeable.sol:P12MineUpgradeable",
        "label": "withdrawInfos",
        "offset": 0,
        "slot": "55",
        "type": "t_mapping(t_address,t_mapping(t_bytes32,t_struct(WithdrawInfo)14705_storage))"
      },
      {
        "astId": 395,
        "contract": "contracts/staking/P12MineUpgradeable.sol:P12MineUpgradeable",
        "label": "_initialized",
        "offset": 0,
        "slot": "56",
        "type": "t_uint8"
      },
      {
        "astId": 398,
        "contract": "contracts/staking/P12MineUpgradeable.sol:P12MineUpgradeable",
        "label": "_initializing",
        "offset": 1,
        "slot": "56",
        "type": "t_bool"
      },
      {
        "astId": 1540,
        "contract": "contracts/staking/P12MineUpgradeable.sol:P12MineUpgradeable",
        "label": "__gap",
        "offset": 0,
        "slot": "57",
        "type": "t_array(t_uint256)50_storage"
      },
      {
        "astId": 377,
        "contract": "contracts/staking/P12MineUpgradeable.sol:P12MineUpgradeable",
        "label": "__gap",
        "offset": 0,
        "slot": "107",
        "type": "t_array(t_uint256)50_storage"
      },
      {
        "astId": 674,
        "contract": "contracts/staking/P12MineUpgradeable.sol:P12MineUpgradeable",
        "label": "__gap",
        "offset": 0,
        "slot": "157",
        "type": "t_array(t_uint256)50_storage"
      },
      {
        "astId": 8295,
        "contract": "contracts/staking/P12MineUpgradeable.sol:P12MineUpgradeable",
        "label": "_owner",
        "offset": 0,
        "slot": "207",
        "type": "t_address"
      },
      {
        "astId": 8297,
        "contract": "contracts/staking/P12MineUpgradeable.sol:P12MineUpgradeable",
        "label": "_pendingOwner",
        "offset": 0,
        "slot": "208",
        "type": "t_address"
      },
      {
        "astId": 8481,
        "contract": "contracts/staking/P12MineUpgradeable.sol:P12MineUpgradeable",
        "label": "__gap",
        "offset": 0,
        "slot": "209",
        "type": "t_array(t_uint256)48_storage"
      },
      {
        "astId": 816,
        "contract": "contracts/staking/P12MineUpgradeable.sol:P12MineUpgradeable",
        "label": "_status",
        "offset": 0,
        "slot": "257",
        "type": "t_uint256"
      },
      {
        "astId": 860,
        "contract": "contracts/staking/P12MineUpgradeable.sol:P12MineUpgradeable",
        "label": "__gap",
        "offset": 0,
        "slot": "258",
        "type": "t_array(t_uint256)49_storage"
      },
      {
        "astId": 696,
        "contract": "contracts/staking/P12MineUpgradeable.sol:P12MineUpgradeable",
        "label": "_paused",
        "offset": 0,
        "slot": "307",
        "type": "t_bool"
      },
      {
        "astId": 801,
        "contract": "contracts/staking/P12MineUpgradeable.sol:P12MineUpgradeable",
        "label": "__gap",
        "offset": 0,
        "slot": "308",
        "type": "t_array(t_uint256)49_storage"
      }
    ],
    "types": {
      "t_address": {
        "encoding": "inplace",
        "label": "address",
        "numberOfBytes": "20"
      },
      "t_array(t_struct(PoolInfo)14696_storage)dyn_storage": {
        "base": "t_struct(PoolInfo)14696_storage",
        "encoding": "dynamic_array",
        "label": "struct P12MineStorage.PoolInfo[]",
        "numberOfBytes": "32"
      },
      "t_array(t_uint256)40_storage": {
        "base": "t_uint256",
        "encoding": "inplace",
        "label": "uint256[40]",
        "numberOfBytes": "1280"
      },
      "t_array(t_uint256)48_storage": {
        "base": "t_uint256",
        "encoding": "inplace",
        "label": "uint256[48]",
        "numberOfBytes": "1536"
      },
      "t_array(t_uint256)49_storage": {
        "base": "t_uint256",
        "encoding": "inplace",
        "label": "uint256[49]",
        "numberOfBytes": "1568"
      },
      "t_array(t_uint256)50_storage": {
        "base": "t_uint256",
        "encoding": "inplace",
        "label": "uint256[50]",
        "numberOfBytes": "1600"
      },
      "t_bool": {
        "encoding": "inplace",
        "label": "bool",
        "numberOfBytes": "1"
      },
      "t_bytes32": {
        "encoding": "inplace",
        "label": "bytes32",
        "numberOfBytes": "32"
      },
      "t_contract(IGaugeController)16791": {
        "encoding": "inplace",
        "label": "contract IGaugeController",
        "numberOfBytes": "20"
      },
      "t_contract(IP12RewardVault)17044": {
        "encoding": "inplace",
        "label": "contract IP12RewardVault",
        "numberOfBytes": "20"
      },
      "t_mapping(t_address,t_bytes32)": {
        "encoding": "mapping",
        "key": "t_address",
        "label": "mapping(address => bytes32)",
        "numberOfBytes": "32",
        "value": "t_bytes32"
      },
      "t_mapping(t_address,t_mapping(t_bytes32,t_struct(WithdrawInfo)14705_storage))": {
        "encoding": "mapping",
        "key": "t_address",
        "label": "mapping(address => mapping(bytes32 => struct P12MineStorage.WithdrawInfo))",
        "numberOfBytes": "32",
        "value": "t_mapping(t_bytes32,t_struct(WithdrawInfo)14705_storage)"
      },
      "t_mapping(t_address,t_mapping(t_uint256,t_uint256))": {
        "encoding": "mapping",
        "key": "t_address",
        "label": "mapping(address => mapping(uint256 => uint256))",
        "numberOfBytes": "32",
        "value": "t_mapping(t_uint256,t_uint256)"
      },
      "t_mapping(t_address,t_struct(UserInfo)14687_storage)": {
        "encoding": "mapping",
        "key": "t_address",
        "label": "mapping(address => struct P12MineStorage.UserInfo)",
        "numberOfBytes": "32",
        "value": "t_struct(UserInfo)14687_storage"
      },
      "t_mapping(t_address,t_uint256)": {
        "encoding": "mapping",
        "key": "t_address",
        "label": "mapping(address => uint256)",
        "numberOfBytes": "32",
        "value": "t_uint256"
      },
      "t_mapping(t_bytes32,t_struct(WithdrawInfo)14705_storage)": {
        "encoding": "mapping",
        "key": "t_bytes32",
        "label": "mapping(bytes32 => struct P12MineStorage.WithdrawInfo)",
        "numberOfBytes": "32",
        "value": "t_struct(WithdrawInfo)14705_storage"
      },
      "t_mapping(t_uint256,t_mapping(t_address,t_struct(UserInfo)14687_storage))": {
        "encoding": "mapping",
        "key": "t_uint256",
        "label": "mapping(uint256 => mapping(address => struct P12MineStorage.UserInfo))",
        "numberOfBytes": "32",
        "value": "t_mapping(t_address,t_struct(UserInfo)14687_storage)"
      },
      "t_mapping(t_uint256,t_uint256)": {
        "encoding": "mapping",
        "key": "t_uint256",
        "label": "mapping(uint256 => uint256)",
        "numberOfBytes": "32",
        "value": "t_uint256"
      },
      "t_struct(PoolInfo)14696_storage": {
        "encoding": "inplace",
        "label": "struct P12MineStorage.PoolInfo",
        "members": [
          {
            "astId": 14689,
            "contract": "contracts/staking/P12MineUpgradeable.sol:P12MineUpgradeable",
            "label": "lpToken",
            "offset": 0,
            "slot": "0",
            "type": "t_address"
          },
          {
            "astId": 14691,
            "contract": "contracts/staking/P12MineUpgradeable.sol:P12MineUpgradeable",
            "label": "accP12PerShare",
            "offset": 0,
            "slot": "1",
            "type": "t_uint256"
          },
          {
            "astId": 14693,
            "contract": "contracts/staking/P12MineUpgradeable.sol:P12MineUpgradeable",
            "label": "amount",
            "offset": 0,
            "slot": "2",
            "type": "t_uint256"
          },
          {
            "astId": 14695,
            "contract": "contracts/staking/P12MineUpgradeable.sol:P12MineUpgradeable",
            "label": "period",
            "offset": 0,
            "slot": "3",
            "type": "t_uint256"
          }
        ],
        "numberOfBytes": "128"
      },
      "t_struct(UserInfo)14687_storage": {
        "encoding": "inplace",
        "label": "struct P12MineStorage.UserInfo",
        "members": [
          {
            "astId": 14684,
            "contract": "contracts/staking/P12MineUpgradeable.sol:P12MineUpgradeable",
            "label": "amount",
            "offset": 0,
            "slot": "0",
            "type": "t_uint256"
          },
          {
            "astId": 14686,
            "contract": "contracts/staking/P12MineUpgradeable.sol:P12MineUpgradeable",
            "label": "rewardDebt",
            "offset": 0,
            "slot": "1",
            "type": "t_uint256"
          }
        ],
        "numberOfBytes": "64"
      },
      "t_struct(WithdrawInfo)14705_storage": {
        "encoding": "inplace",
        "label": "struct P12MineStorage.WithdrawInfo",
        "members": [
          {
            "astId": 14698,
            "contract": "contracts/staking/P12MineUpgradeable.sol:P12MineUpgradeable",
            "label": "who",
            "offset": 0,
            "slot": "0",
            "type": "t_address"
          },
          {
            "astId": 14700,
            "contract": "contracts/staking/P12MineUpgradeable.sol:P12MineUpgradeable",
            "label": "amount",
            "offset": 0,
            "slot": "1",
            "type": "t_uint256"
          },
          {
            "astId": 14702,
            "contract": "contracts/staking/P12MineUpgradeable.sol:P12MineUpgradeable",
            "label": "unlockTimestamp",
            "offset": 0,
            "slot": "2",
            "type": "t_uint256"
          },
          {
            "astId": 14704,
            "contract": "contracts/staking/P12MineUpgradeable.sol:P12MineUpgradeable",
            "label": "executed",
            "offset": 0,
            "slot": "3",
            "type": "t_bool"
          }
        ],
        "numberOfBytes": "128"
      },
      "t_uint256": {
        "encoding": "inplace",
        "label": "uint256",
        "numberOfBytes": "32"
      },
      "t_uint8": {
        "encoding": "inplace",
        "label": "uint8",
        "numberOfBytes": "1"
      }
    }
  }
}